:02000000ff00ff
:080002004c6174746963650030
:17000a00694345637562653220323032302e31322e32373934330071
:18002100506172743a2069434534304c50314b2d53574731365452003e
:1a003900446174653a20446563203520323032312031363a33373a333700c0
:0200530000ffac
:040055007eaa997e68
:02005900510054
:02005b0001059d
:03005d00920020ee
:0300600062014bef
:0300630072009098
:0300660082000015
:02006900110084
:02006b00010191
:20006d00000000000000000000000000000000000000000000000000000000000000000073
:09008d000000000000000000006a
:2000960000000000000000000000000000000000000000000000000000000000000000004a
:0a00b6000000000000000000000040
:2000c000000000000000000000000000000000000000000000000000000000000000000020
:0900e00000000000000000000017
:2000e9000000000000000000000000000000000000000000000000000000000000000000f7
:0a01090000000000000000000000ec
:200113000000000000000000000000000000000000000000000000000000000000000000cc
:09013300000000000000000000c3
:20013c000000000000000000000000000000000000000000000000000000000000000000a3
:0a015c000000000000000000000099
:200166000000000000040000000000001000000000000040000000001000000000000040d5
:090186000000000000010000006f
:20018f00000000000000000000000000000000000000000000000000000000000000000050
:0a01af000000000000000000000046
:2001b90000000000000c00000000000030000000000000c00000000030000000000000c03a
:0901d9000000000000030000001a
:2001e2000000000000000000000000000000000000000000000000000000000000000000fd
:0a02020000000000000000000000f2
:20020c000000000000000000000000000000000000000000000000000000000000000000d2
:09022c00000000000000000000c9
:200235000000000000000000000000000000000000000000000000000000000000000000a9
:0a025500000000000000000000009f
:20025f0000000000000000000000000000000000000000000000000000000000000000007f
:09027f0000000000000000000076
:20028800000000000000000000000000000000000000000000000000000000000000000056
:0a02a800000000000000000000004c
:2002b200000000000004000000000000100000000000004000000000100000000000004088
:0902d20000000000000100000022
:2002db00000000000000000000000000000000000000000000000000000000000000000003
:0a02fb0000000000000000000000f9
:200305000000000001e10002000000000000000000000000000000000000000000000000f4
:09032500000000000000000000cf
:20032e000000200000100b80000000000000000000400000000000000000000000000000b4
:0a034e0000000000000000000000a5
:20035800000008007805a3c28000000000000000000000000004080000000000000000000f
:090378000000000000000000007c
:20038100000002000000083c000000000000000000000000000021000000000000000000f5
:0a03a1000000000000000000000052
:2003ab00000000000181a3c20000000000000000000000000000000000000000000000004b
:0903cb0000000000000000000029
:2003d400000000000000003c080000000000000000000000000000000000000000000000c5
:0a03f40000000000000000000000ff
:2003fe000003000019f523c3000000000000000000000000000000000000000000000000e8
:09041e00000000000000000000d5
:200427000000000000080803c00000000000000000000000000000000000000000200000c2
:0a04470000000000000000000000ab
:20045100000000000007a3c30000000000000000000000000000000000000000000000001e
:0904710000000000000000000082
:20047a000000200000000003c000000000000000000000000000000000000000000000007f
:0a049a000000000000000000000058
:2004a400000000000005a3c3000000000000000000000000000400000000000000000000c9
:0904c4000000000000000000002f
:2004cd000000000000000003c0000000000000000000000000002800000000000000000024
:0a04ed000000000000000000000005
:2004f700000000003005a3c30000000000000000000000000000000000000000000000004a
:09051700000000000000000000db
:200520000000000000000803c00000000000000000000000000000000000000000000000f0
:0a05400000000000000000000000b1
:20054a00000000008187a3c300000000000000000000000000000000000000000000000023
:09056a0000000000000000000088
:200573000000000001000803c000000000000000000000000000000000000000000000009c
:0a059300000000000000000000005e
:20059d0000000000000723c300000006fed0820000000000000000000000000000000000fb
:0905bd0000000000000000000035
:2005c6000000200000000003c100000028fe0000000000000000000000000000000000000b
:0a05e600000000000000000000000b
:2005f00000000800000723c30000036074808200000000000000000000000000000000001d
:09061000000000000000000000e1
:200619000000020000000003c00000142ada000000000000000000000000000000000000e4
:0a06390000000000000000000000b7
:2006430000000000019523c300000360259082000000000000000000000000000000000081
:090663000000000000000000008e
:20066c000000000000080803c000001400690000000000000000000000000000000000001e
:0a068c000000000000000000000064
:2006960000030000181523c30000000000000000000000000000000000000000000000002e
:0906b6000000000000000000003b
:2006bf000000000000080803c0000000000000000000000000000000000000000000000048
:0a06df000000000000000000000011
:2006e900000000000007a3c30000000600000000000000000000000000000000000000007e
:09070900000000000000000000e7
:200712000000200000000003c00000004000000000000000000000000000000000000000a4
:0a07320000000000000000000000bd
:20073c00000000000005a3c30000020600000000000000000000000000000000000000002a
:09075c0000000000000000000094
:200765000000000000000003c000002440000000000000000000000000000000002000002d
:0a078500000000000000000000006a
:20078f00000000009805a3c300000000000000000000000000000000000000000000000047
:0907af0000000000000000000041
:2007b8000000000001000803c0000000000000000000000000000000000000000000000055
:0a07d8000000000000000000000017
:2007e200000000008187a3c3000000604000000000000000000000000000000000000000e9
:09080200000000000000000000ed
:20080b000000000001000803c00000022400000000000000000000000000000001080000d2
:0a082b0000000000000000000000c3
:2008350000000000000723c300000160400000000000000000000000000000000000000015
:090855000000000000000000009a
:20085e000000200000000003c100000028000000004000000000000000000000000000002e
:0a087e000000000000000000000070
:2008880000000800000723c3000001604000000000000000000000000000000000000000ba
:0908a80000000000000000000047
:2008b1000000020000000003c000000028000000000000000000000000000000000000003a
:0a08d100000000000000000000001d
:2008db0000000000019523c3000002068000000000000000000000000000000000000000f9
:0908fb00000000000000000000f4
:200904000000000000080803c00000140000000000000000000000000000000000000000ec
:0a09240000000000000000000000c9
:20092e0000030000181523c30000020005e08000000000000000000000000000000000002c
:09094e00000000000000000000a0
:200957000000000000080803c0000014007a0001000000000000000000000000000000001e
:0a0977000000000000000000000076
:20098100000000000007a3c3000000001790801000000000000000000000000000000000b2
:0909a1000000000000000000004d
:2009aa000000200000000003c00000000349000000000000000000000000000000000000fe
:0a09ca000000000000000000000023
:2009d400000000000005a3c300000000000000000000000000000000000000000000000098
:0909f400000000000000000000fa
:2009fd000000000000000003c0000000000000000000000000000000000000000000000017
:0a0a1d0000000000000000000000cf
:200a2700000000009805a3c3000000000000000000000000000000000000000000000000ac
:090a4700000000000000000000a6
:200a50000000000001000803c00000000000000000000000000000000000000000000000ba
:0a0a7000000000000000000000007c
:200a7a00000000008187a3c3000000060000000000000000000000000000000000000000e8
:090a9a0000000000000000000053
:200aa3000000000001000803c0000000400000000000000000000000000000000000000027
:0a0ac3000000000000000000000029
:200acd0000000000000723c30000000000000000000000000000000000000000000000001c
:090aed0000000000000000000000
:200af6000000208000000003c100000000000000000000000000000000000000000000007c
:0a0b160000000000000000000000d5
:200b200000000800180723c3000000001ea08000000000000000000000000000000000006a
:090b4000000000000000000000ac
:200b49000000020000000003c0000000036a00010000000000000000000000000000000059
:0a0b69000000000000000000000082
:200b730000000000019523c300000360400000000000000000000000000000000000000043
:090b930000000000000000000059
:200b9c000000000000080803c000001428000000000000000000000000000000000000002a
:0a0bbc00000000000000000000002f
:200bc60000030000000523c300000000000000000000000000000000000000000000000021
:090be60000000000000000000006
:200bef000000000000000803c000000000000000000000000000000000000000000000001b
:0a0c0f0000000000000000000000db
:200c1900000000000007a3c30000000000000000000000000000000000000000000000004e
:090c3900000000000000000000b2
:200c42000000200000000003c00000000000000000000000000000000000000000000000af
:0a0c62000000000000000000000088
:200c6c00000000000010265b000000000000000000000000000000000000000000000000d7
:090c8c000000000000000000005f
:200c9500000000000008021a400000000000000000000000000000000000000000000000db
:0a0cb5000000000000000000000035
:200cbf000000000098082155000000000000000000000000000000000000000000000000ff
:090cdf000000000000000000000c
:200ce800000000000100b02a80000000000000000000000000000000000000000000000091
:0a0d080000000000000000000000e1
:200d120000000000800d742001000006000000000000000000000000000000000000000099
:090d3200000000000000000000b8
:200d3b000000000001007e00000000004000000000000000000000000000000000000000d9
:0a0d5b00000000000000000000008e
:200d650000000000008000000000000000000000000000000000006016a50480000000004f
:090d850000000000000000000065
:200d8e00000020800010000000020000000000000040000000020004004005000800000000
:0a0dae00000000000000000000003b
:200db80000000800000000000000000000000000000000000020000005a5048000000000c5
:090dd80000000000000000000012
:200de10000000200000000000000000000000000000000000008000000500a00000000008e
:0a0e010000000000000000000000e7
:200e0b0000001000018000000000000000000000000000000000020600000000000000002e
:090e2b00000000000000000000be
:200e3400000002000000000000000000000000000000000000000004000000000000000098
:0a0e54000000000000000000000094
:200e5e0000030000000578010000000000000000000000000000000704aaf48000000000ca
:090e7e000000000000000000006b
:200e87000000008000009803c01200000000000000000000000000040010af00000000009b
:0a0ea7000000000000000000000041
:200eb10000000400000000000000000000000000000000000000000000000000000000001d
:090ed10000000000000000000018
:200eda00000020400000000000000000000000000000000000000000000000000000000098
:0a0efa0000000000000000000000ee
:200f04000000000000000000000000000000000000000000000000060000000000000000c7
:090f2400000000000000000000c4
:200f2d000000000000000000000000000000000000000000000000000000000000000000a4
:0a0f4d00000000000000000000009a
:200f570000000000000000000000000000000000000000000000006015c010000000000035
:090f770000000000000000000071
:200f800000000000000000000000000000000000000000000000000001db00000000000075
:0a0fa0000000000000000000000047
:200faa0000000000380000000000000000000000000000000000000004b125000000000015
:090fca000000000000000000001e
:200fd300000000000080000000000000000000000000000000000000001d1200000000004f
:0a0ff30000000000000000000000f4
:200ffd0000000000000000000000e20286c004000000000000000000000000000003800023
:09101d004020000000000000006a
:2010260000002000000000000000000440400f0000000000000000000000000000000800ef
:0a1046003400080000000000000064
:201050000000000000000000002001401da9640000000000000000000000000000000000f5
:0910700000200000000000000057
:201079000000000000000000000800022c009600000000000000000000000000000000008b
:0a1099002c00000000000000000021
:2010a3000000000000a73200004001460ce5040000000000000000000000000000000100d7
:0910c300402000000000000000c4
:2010cc00000000000000df000008000201500a00000000000000000000000000000000d0f0
:0a10ec002c000000000000000000ce
:2010f60000030000000000000000026280a1240000000000000000000000000000001c0012
:09111600002000000000000000b0
:20111f0000000000000000000000000440d921000000000000000000000000000000000072
:0a113f002000000000000000000086
:201149000000000081a00000000001c036c0040000000000000000000000000000000000aa
:091169004020000000000000001d
:2011720000002000050000000000000002400f0000000000000000000000000000000000e7
:0a1192003000000000000000000023
:20119c0000000000000000000000000001a0f4000000000000000000000000000008010095
:0911bc00402000000000000000ca
:2011c50000000000000000000000000000000f000000000000000000000000000000f0907b
:0a11e5003c000000000000000000c4
:2011ef0000000000581ff8000004c8607ec004000000000000000000000000000000000003
:09120f0040200000000000000076
:2012180000000000000a77880000a14023600f00000000000000000000000000000000003a
:0a1238003c00000000000000000070
:2012420000000000d8100000000000004000000000000000000000000000000000081f003d
:0912620040200000000000000023
:20126b0000000000050a00000000000020000000000000000000000000000000000071f0d3
:0a128b003800000000000000000021
:201295000000000050050002000000000600080000000000000000000000000000000002d2
:0912b5003c0200000000000000f2
:2012be0000002000008b080000800014280a00000040000000000000000000000000000057
:0a12de0003c0100000000000000033
:2012e800000000000000040200200147048f0800000000000000000000000000800800064f
:0913080000c0800000000000009c
:2013110000000000000002c0000800006820f000000000000000000000000000200010004a
:0a133100000c0400000000000000a2
:20133b000000000000a0000200400142d48f0c0000000000000000000000000000080000f6
:09135b0000000000000000000089
:2013640000000000001a02c00008000020200f000000000000000000000000000000100026
:0a138400000000000000000000005f
:20138e00000300000000040200000000148f0800000000000000000000000000000000008b
:0913ae0000000000000000000036
:2013b700000000000d0a0280000000140020f0000000000000000000000000000000000059
:0a13d700000000000000000000000c
:2013e100000000000000000200000000068f080000000000000000000000000000000082cb
:09140100955000000000000000fd
:20140a000000200000000240000000000020f0080000000000000000000000000000000147
:0a142a0002a800000000000000000e
:20143400000000000010000200000000048f080000000000000000000000000000000000eb
:091454000000000000000000008f
:20145d0000000000000d0200000000000000f0000000000000000000000000000000000070
:0a147d000000000000000000000065
:20148700000000000000040200000000168f08000000000000000000000000000000000092
:0914a7000000000000000000003c
:2014b0000000000000000340000000000000f00000000000000000000000000000000000e9
:0a14d0000000000000000000000012
:2014da00000000008000040200000000068f080000000000000000000000000000000000cf
:0914fa00000000000000000000e9
:20150300000000000b000380000000000020f000000000000000000000000000000000002a
:0a15230000000000000000000000be
:20152d0000000000000023c0610000001c8f0c0000000000000000000000000000000000a3
:09154d0000000000003000000065
:20155600000020000000003c0100000000000f040000000000000000000000000000b00055
:0a1576000000000000040000000067
:2015800000000000000f7420002000001c8f0c000000000000000000000000008008000049
:0915a000000000000002ec401004
:2015a9000000000000003f800008000000000f00000000000000000000000000200010001c
:0a15c9000000000000001490000074
:2015d30000000000001f342000400006548f0c00000000000000000000000000000000da76
:0915f3009400000000000000005b
:2015fc00000000000009f2c00008000020200f00000000000000000000000000000050016c
:0a161c0000000000000000000000c4
:20162600000300000083382000000060548f0c000000000000000000000000000000000077
:091646000000000020000000007b
:20164f00000000000010f2c00000000020200f00000000000000000000000000000050001a
:0a166f000000000001400000000030
:201679000000000091afb420000000001e8f0c000000000000000000000000000000005a2a
:09169900f0d00000200000000068
:2016a2000000000005803f800000000000000f0000000000000000000000000000000001d4
:0a16c200224c00000240000000006e
:2016cc0000000000d000000000000000168f0c00000000000000000000000000000000007d
:0916ec00000000002000000000d5
:2016f50000000000050a00000000000000000f0000000000000000000000000000000000b7
:0a1715000000000002400000000088
:20171f000000000058b0000000000260168f0c00000000000000000000000000000000008f
:09173f00000000000000000000a1
:2017480008000000050a00000000000400200f000000000000000000000000000000000037
:0a1768000000000000000000000077
:201772000000000059b00000000002061e8f0c00000000000000000000000000000000008d
:091792000000000000000000004e
:20179b0010000000050a00000000000400200f0000000000000000000000000000000000dc
:0a17bb000000000000000000000024
:0217c500000022
:0217c70011010e
:0217c90001011c
:2017cb000000000000000000000000000000000000000000000000000000000000000000fe
:0917eb0000000080000000000075
:2017f4000000000000000000000000000000000000000000000000000000000000000000d5
:0a18140000000000000000000000ca
:20181e000000000000000000000000000000000000000000000000000000000000000000aa
:09183e0000000040000000000061
:20184700000000000000000000000000000000000000000000000000000000000000000081
:0a1867000000000000000000000077
:20187100000000000000000000000000000000000000000000000000000000000000000057
:09189100000000800000000000ce
:20189a0000000000000000000000000000000000000000000000000000000000000000002e
:0a18ba000000000000000010000014
:2018c400000000000004000000000000100000000000004000000000100000000000004060
:0918e400000000000001000000fa
:2018ed000000000000000000000000000000000000000000000000000000000000000000db
:0a190d0000000000000000000000d0
:2019170000000000000c00000000000030000000000000c00000000030000000000000c0c4
:09193700000000000003000000a4
:20194000000000000000000000000000000000000000000000000000000000000000000087
:0a196000000000000000000000007d
:20196a0000000000000000000000000000000000000000000000000000000000000000005d
:09198a0000000000000000000054
:20199300000000000000000000000000000000000000000000000000000000000000000034
:0a19b300000000000000000000002a
:2019bd0000000000000000000000000000000000000000000000000000000000000000000a
:0919dd0000000000000000000001
:2019e6000000000000000000000000000000000000000000000000000000000000000000e1
:0a1a060000000000000000000000d6
:201a1000000000000004000000000000100000000000004000000000100000000000004012
:091a3000000000000001000000ac
:201a390000000000000000000000000000000000000000000000000000000000000000008d
:0a1a59000000000000300000000053
:201a6300000000000000000000000000000000000000000000000000000000000000000063
:091a83000000000000000000005a
:201a8c0000000000000000000000000000000000000000000000000000000000000000003a
:0a1aac000000000000000000000030
:201ab600000000000000000000000000000000000000000000000000000000000000000010
:091ad60000000000000000000007
:201adf000000000000000000000000000000000000000000000000000000000000000000e7
:0a1aff0000000000000000000000dd
:201b09000000000000000000000000000000000000000000000000000000000000000000bc
:091b2900000000000000000000b3
:201b3200000000000000000000000000000000000000000000000000000000000000000093
:0a1b52000000000000000000000089
:201b5c00000200000000000000000000000000000000000000000000000000000000000067
:091b7c0000000000000000000060
:201b8500000000000000000000000000000000000000000000000000000000000000000040
:0a1ba5000000000000000000000036
:201baf00000000000000000000000000000000000000000000000000000000000000000016
:091bcf000000000000000000000d
:201bd8000000300000000000000000000000000000000000000000000000000000000000bd
:0a1bf80000000000000000000000e3
:201c02000000000000000000000000000000000000000000000000000000000000000000c2
:091c2200000000000000000000b9
:201c2b00000000000000000000000000000000000000000000000000000000000000000099
:0a1c4b00000000000000000000008f
:201c550000000000000000000000000000000000000000000000000000000000000000006f
:091c750000000000000000000066
:201c7e00000000000000000000000000000000000000000000000000000000000000000046
:0a1c9e00000000000000000000003c
:201ca80000020000000000000000000000000000000000000000000000000000000000001a
:091cc80000000000000000000013
:201cd1000000000000000000000000000000000000000000000000000000000000000000f3
:0a1cf10000000000000000000000e9
:201cfb000000000000000000000000000000000000000000000000000000000000000000c9
:091d1b00000000000000000000bf
:201d240000000000000000000000000000000000000000000000000000000000000000009f
:0a1d44000000000000000000000095
:201d4e00000000000000000000000000000000000000000000000000000000000000000075
:091d6e000000000000000000006c
:201d770000000000000000000000000000000000000000000000000000000000000000004c
:0a1d97000000000000000000000042
:201da100000000000000000000000000000000000000000000000000000000000000000022
:091dc10000000000000000000019
:201dca000000000000000000000000000000000000000000000000000000000000000000f9
:0a1dea0000000000000000000000ef
:201df4000002000000000000000000000000000000000000000000000000000000000000cd
:091e1400000000000000000000c5
:201e1d000000000000000000000000000000000000000000000000000000000000000000a5
:0a1e3d00000000000000000000009b
:201e470000000000000000000000000000000000000000000000000000000000000000007b
:091e670000000000000000000072
:201e7000000030000000000000000000000000000000000000000000000000000000000022
:0a1e90000000000000000000000048
:201e9a00000000000000000000000000000000000000000000000000000000000000000028
:091eba000000000000000000001f
:201ec3000000000000000000000000000000000000000000000000000000000000000000ff
:0a1ee30000000000000000000000f5
:201eed000000000000000000000000000000000000000000000000000000000000000000d5
:091f0d00000000000000000000cb
:201f16000000000000000000000000000000000000000000000000000000000000000000ab
:0a1f360000000000000000000000a1
:201f400000020000000000000000000000000000040000000000000000000000000000007b
:091f600000000000000000000078
:201f6900000000000000000000000000000000000000000000000000000000000000000058
:0a1f8900000000000000000000004e
:201f930000000000000000000000000000000000000000000000000000000000000000002e
:091fb30000000000000000000025
:201fbc00000000000000000000000000000000000000000000000000000000000000000005
:0a1fdc0000000000000000000000fb
:201fe6000000000000000000000000000000000000000000000000000000000000000000db
:09200600000000000000000000d1
:20200f000000000000000000000000000000000000000000000000000000000000000000b1
:0a202f0000000000000000000000a7
:20203900000000000000000000000000000000000000000000000000000000000000000087
:092059000000000000000000007e
:2020620000000000000000000000000000000000000000000000000000000000000000005e
:0a2082000000000000000000000054
:20208c00000200000000000000000000000000000000000000000000000000000000000032
:0920ac000000000000000000002b
:2020b50000000000000000000000000000000000000000000000000000000000000000000b
:0a20d5000000000000000000000001
:2020df000000000000000000000000000000000000000000000000000000000000000000e1
:0920ff00000000000000000000d8
:20210800000030000000000000000000000000000000000000000000000000000000000087
:0a21280000000000000000000000ad
:2021320000000000000000000000000000000000000000000000000000000000000000008d
:0921520000000000000000000084
:20215b00000000000000000000000000000000000000000000000000000000000000000064
:0a217b00000000000000000000005a
:2021850000000000000000000000000000000000000000000000000000000000000000003a
:0921a50000000000000000000031
:2021ae00000000000000000000000000000000000000000000000000000000000000000011
:0a21ce000000000000000000000007
:2021d8000002000000000000000000000000000000000000000000000000000000000000e5
:0921f800000000000000000000de
:202201000000000000000000000000000000000000000000000000000000000000000000bd
:0a22210000000000000000000000b3
:20222b00000000000000000000000000000000000000000000000000000000000000000093
:09224b000000000000000000008a
:2022540000000000000000000000000000000000000000000000000000000000000000006a
:0a2274000000000000000000000060
:20227e00000000000000000000000000000000000000000000000000000000000000000040
:09229e0000000000000000000037
:2022a700000000000000000000000000000000000000000000000000000000000000000017
:0a22c700000000000000000000000d
:2022d1000000000000000000000000000000000000000000000000000000000000000000ed
:0922f100000000000000000000e4
:2022fa000000000000000000000000000000000000000000000000000000000000000000c4
:0a231a0000000000000000000000b9
:20232400000200000000000000000000000000000000000000000000000000000000000097
:0923440000000000000000000090
:20234d00000000000000000000000000000000000000000000000000000000000000000070
:0a236d000000000000000000000066
:20237700000000000000000000000000000000000000000000000000000000000000000046
:092397000000000000000000003d
:2023a0000000300000000000000000000000000000000000000000000000000000000000ed
:0a23c0000000000000000000000013
:2023ca000000000000000000000000000000000000000000000000000000000000000000f3
:0923ea00000000000000000000ea
:2023f3000000000000000000000000000000000000000000000000000000000000000000ca
:0a24130000000000000000000000bf
:20241d0000000000000000000000000000000000000000000000000000000000000000009f
:09243d0000000000000000000096
:20244600000000000000000000000000000000000000000000000000000000000000000076
:0a246600000000000000000000006c
:20247000000200000000000000000000000000000400000000000000000000000000000046
:0924900000000000000000000043
:20249900000000000000000000000000000000000000000000000000000000000000000023
:0a24b9000000000000000000000019
:2024c3000000000000000000000000000000000000000000000000000000000000000000f9
:0924e300000000000000000000f0
:2024ec000000000000000000000000000000000000000000000000000000000000000000d0
:0a250c0000000000000000000000c5
:202516000000000000000000000000000000000000000000000000000000000000000000a5
:092536000000000000000000009c
:20253f0000000000000000000000000000000000000000000000000000000000000000007c
:0a255f000000000000000000000072
:20256900000000000000000000000000000000000000000000000000000000000000000052
:0925890000000000000000000049
:20259200000000000000000000000000000000000000000000000000000000000000000029
:0a25b200000000000000000000001f
:2025bc000002000000000000000000000000000000000000000000000000000000000000fd
:0925dc00000000000000000000f6
:2025e5000000000000000000000000000000000000000000000000000000000000000000d6
:0a26050000000000000000000000cb
:20260f0000000000000000000020000000000000000000000000000000000000000000008b
:09262f00000000000000000000a2
:20263800000030000000000000000000000000000000000000000000000000000000000052
:0a2658000000000000000000000078
:20266200000000000000000000000000000000000000000000000000000000000000000058
:092682000000000000000000004f
:20268b0000000000000000000000000000000000000000000000000000000000000000002f
:0a26ab000000000000000000000025
:2026b500000000000000000000000000000000000000000000000000000000000000000005
:0926d500000000000000000000fc
:2026de000000000000000000000000000000000000000000000000000000000000000000dc
:0a26fe0000000000000000000000d2
:2027080000020000000000000020000000000000000000000000000000000000800000000f
:09272800000000000000000000a8
:20273100000000000000000000000000000000000000000000000000000000000000000088
:0a275100000000000000000000007e
:20275b0000000000000000000000000000000000000000000000000000000000000000005e
:09277b0000000000000000000055
:20278400000000000000000000000000000000000000000000000000000000000000000035
:0a27a400000000000000000000002b
:2027ae0000000000000000000000000000000000000000000000000000000000000000000b
:0927ce0000000000000000000002
:2027d7000000000000000000000000000000000000000000000000000000000000000000e2
:0a27f70000000000000000000000d8
:202801000000000000000000000000000000000000000000000000000000000000000000b7
:09282100000000000000000000ae
:20282a0000000000000000000000000000000000000000000000000000000000000000008e
:0a284a000000000000000000000084
:20285400000200000000000000000000000000000000000000000000000000000000000062
:092874000000000000000000005b
:20287d0000000000000000000000000000000000000000000000000000000000000000003b
:0a289d000000000000000000000031
:2028a700000000000000000000000000000000000000000000000000000000000000000011
:0928c70000000000000000000008
:2028d0000000300000000000000000000000000000000000000000000000000000000000b8
:0a28f00000000000000000000000de
:2028fa000000000000000000000000000000000000000000000000000000000000000000be
:09291a00000000000000000000b4
:20292300000000000000000000000000000000000000000000000000000000000000000094
:0a294300000000000000000000008a
:20294d0000000000000000000000000000000000000000000000000000000000000000006a
:09296d0000000000000000000061
:20297600000000000000000000000000000000000000000000000000000000000000000041
:0a2996000000000000000000000037
:2029a000000200000000000000000000000000000400000000000000000000000000000011
:0929c0000000000000000000000e
:2029c9000000000000000000000000000000000000000000000000000000000000000000ee
:0a29e90000000000000000000000e4
:2029f300000000000000000000000042000000000000000000000000000000000000000082
:092a1300000000000000000000ba
:202a1c00000000000000000000000020040000000000000000000000000000000000000076
:0a2a3c000000000000000000000090
:202a46000000000000000000000000400205500000000000000000000000000000000000d9
:092a660000000000000000000067
:202a6f0000000000000000000000002601e8554000000000000000000000000000000000a3
:0a2a8f00000000000000000000003d
:202a99000000000000000000000000000000f000000000000000000000000000000000002d
:092ab90000000000000000000014
:202ac2000000000000000000000000000168f0c000000000000000000000000000000000db
:0a2ae20000000000000000000000ea
:202aec000002000000000000000000000000f00000000000000000000000000000000000d8
:092b0c00000000000000000000c0
:202b150000000000000000000000000001e8f0c00000000000000000000000000000000007
:0a2b35000000000000000000000096
:202b3f000000000000000000000000000200f0000000000000000000000000000000000084
:092b5f000000000000000000006d
:202b68000000300000000000000000060148f0c0000000000000000000000000000000001e
:0a2b88000000000000000000000043
:202b92000000000000000000008000020200f00000000000000000000000000000000000af
:092bb2000000000000000000001a
:202bbb000000000000000000000400006548f0c00000000000000000000000000000000099
:0a2bdb0000000000000000000000f0
:202be5000000000000000000008000000000f0000000000000000000000000000000000060
:092c0500000000000000000000c6
:202c0e0000000000000000000002000001c8f0c0000000000000000000000000000000002b
:0a2c2e00000000000000000000009c
:202c38000002000000000000000000000000f040000000000000000000000000000000004a
:092c580000000000000000000073
:202c610000000000000000000000000001c8f0c000000000000000000000000000000000da
:0a2c81000000000000000000000049
:202c8b000000000000a7f000200000400200f0000000000000000000000000000000105fd1
:092cab0070c001000000000000ef
:202cb40000000000051a37820000002061e8f0c0000000000000000000000000001001e915
:0a2cd4007d8d2000000000000000cc
:202cde00003800005003f800200000400200f0000000000000000000000000000000000001
:092cfe00000000000000000000cd
:202d0700000040000000b7c200000e260168f0c000000000000000000000000000000000a6
:0a2d270000000000000000000000a2
:202d31000000000050000000000000000000f0000000000000000000000000000000000042
:092d510000000000000000000079
:202d5a000000000000000000000000000168f0c000000000000000000000000000000180bf
:0a2d7a00000000000000000000004f
:202d84000002000000a00000000000000000f000000000000000000000000000000000009d
:092da40000000000000000000026
:202dad0000000000050a00000000000001e8f0c0000000000000000000000000000000005e
:0a2dcd0000000000000000000000fc
:202dd7000000000000000000000000020200f000000000000000000000000000000f0000d9
:092df700000000000000000000d3
:202e00000000300000000000000000060548f0c0000000000000000000000000000000007f
:0a2e200000000000000000000000a8
:202e2a003000000000000000008000020200f0800000000000000000000000000000000064
:092e4a000000000000000000007f
:202e53000200000000000000000400006548f0c000000000000000000000000000000000fc
:0a2e73000000000000000000000055
:202e7d000000000000000000008000000000f0800000000000000000000000020000000043
:092e9d000000000000000000002c
:202ea60000000001800000000002000001c8f0c00000000000000000000000000800000008
:0a2ec6000000000000000000000002
:202ed0000002000000000000000000000000f04004000000000000000000000000000a00a2
:092ef000000000000000000000d9
:202ef90000000000000000000000000001c8f0c00000000000000000000000000000000040
:0a2f190000000000000000000000ae
:022f23000000ac
:022f2500110297
:022f27000101a6
:202f2900000000000000000000000000000000000000000000000000000000000000000088
:092f49000000000000000000007f
:202f520000000000000000000000000000000000000000000000000000000000000000005f
:0a2f72000000000000000000000055
:202f7c00000000000000000000000000000000000000000000000000000000000000000035
:092f9c000000000000000000002c
:202fa50000000000000000000000000000000000000000000000000000000000000000000c
:0a2fc5000000000000000000000002
:202fcf000000000000000000000000000000000000000000000000000000000000000000e2
:092fef00000000000000000000d9
:202ff8000000000000000000000000000000000000000000000000000000000000000000b9
:0a30180000000000000000000000ae
:203022000000000000080000000000002000000000080000000000002000000000000080be
:0930420000000000000200000083
:20304b00000000000000000000000000000000000000000000000000000000000000000065
:0a306b00000000000000000000005b
:2030750000000000000c00000000000030000000000c00000000000030000000000000c003
:093095000000000000030000002f
:20309e00000000000000000000000000000000000000000000000000000000000000000012
:0a30be000000000000000000000008
:2030c8000000000000000000000000000000000000000000000000000000000000000000e8
:0930e800000000000000000000df
:2030f1000000000000000000000000000000000000000000000000000000000000000000bf
:0a31110000000000000000000000b4
:20311b00000000000000000000000000000000000000000000000000000000000000000094
:09313b000000000000000000008b
:2031440000000000000000000000000000000000000000000000000000000000000000006b
:0a3164000000000000000000000061
:20316e00000000000008000000000000200000000008000000000000200000000000008071
:09318e0000000000000200000036
:20319700000000000000000000000000000000000000000000000000000000000000000018
:0a31b700000000000000000000000e
:2031c1000000000000000000000000000000000000000000000000000000000000000000ee
:0931e100000000000000000000e5
:2031ea0000002000000000000000000000000000000000000800000000000000000000009d
:0a320a0000000000000000000000ba
:2032140000000000000000000000000000000000000000000000000000000000000000009a
:0932340000000000000000000091
:20323d00000000000000000000000000000000000000000000000000000000000000000071
:0a325d000000000000000000000067
:20326700000000000000000000000000000000000000000000000000000000000000000047
:093287000000000000000000003e
:2032900000000000000000000000000000000000000000000000000000000000000000001e
:0a32b0000000000000000000000014
:2032ba000003000000000000000000000000000000000000000000000000000000000000f1
:0932da00000000000000000000eb
:2032e3000000000000000000000000000000000000000000000000000000000000000000cb
:0a33030000000000000000000000c0
:20330d000000000000000000000000000000000000000000000000000000000000000000a0
:09332d0000000000000000000097
:20333600000020000000000000000000000000000000000000000000000000000000000057
:0a335600000000000000000000006d
:2033600000000000000000000000000000000000000000000000000000000000000000004d
:0933800000000000000000000044
:20338900000000000000000000000000000000000000000000000000000000000000000024
:0a33a900000000000000000000001a
:2033b3000000000000000000000000000000000000000000000000000000000000000000fa
:0933d300000000000000000000f1
:2033dc000000000000000000000000000000000000000000000000000000000000000000d1
:0a33fc0000000000000000000000c7
:203406000000000000000000000000000000000000000000000000000000000000000000a6
:093426000000000000000000009d
:20342f0000000000000000000000000000000000000000000000000000000000000000007d
:0a344f000000000000000000000073
:20345900000000000000000000000000000000000000000000000000000000000000000053
:093479000000000000000000004a
:2034820000002000000000000000000000000000000000000000000000000000000000000a
:0a34a2000000000000000000000020
:2034ac00000000000000000000000000000000000000000000000000000000000000000000
:0934cc00000000000000000000f7
:2034d5000000000000000000000000000000000000000000000000000000000000000000d7
:0a34f50000000000000000000000cd
:2034ff000000000000000000000000000000000000000000000000000000000000000000ad
:09351f00000000000000000000a3
:20352800000000000000000000000000000000000000000000000000000000000000000083
:0a3548000000000000000000000079
:20355200000300000000000000000000000000000000000000000000000000000000000056
:0935720000000000000000000050
:20357b00000000000000000000000000000000000000000000000000000000000000000030
:0a359b000000000000000000000026
:2035a500000000000000000000000000000000000000000000000000000000000000000006
:0935c500000000000000000000fd
:2035ce000000200000000000000000000000000000000000000000000000000000000000bd
:0a35ee0000000000000000000000d3
:2035f8000000000000000000000000000000000000000000000000000000000000000000b3
:09361800000000000000000000a9
:20362100000000000000000000000000000000000000000000000000000000000000000089
:0a364100000000000000000000007f
:20364b0000000000000000000000000000000000000000000000000000000000000000005f
:09366b0000000000000000000056
:20367400000000000000000000000000000000000000000000000000000000000000000036
:0a369400000000000000000000002c
:20369e0000000000000000000000000000000000000000000000000000000000000000000c
:0936be0000000000000000000003
:2036c7000000000000000000000000000000000000000000000000000000000000000000e3
:0a36e70000000000000000000000d9
:2036f1000000000000000000000000000000000000000000000000000000000000000000b9
:09371100000000000000000000af
:20371a00000020000000000000000000000000000000000008000000000000000000000067
:0a373a000000000000000000000085
:20374400000000000000000000000000000000000000000000000000000000000000000065
:093764000000000000000000005c
:20376d0000000000000000000000000000000000000000000000000000000000000000003c
:0a378d000000000000000000000032
:20379700000000000000000000000000000000000000000000000000000000000000000012
:0937b70000000000000000000009
:2037c0000000000000000000000000000000000000000000000000000000000000000000e9
:0a37e00000000000000000000000df
:2037ea000003000000000000000000000000000000000000000000000000000000000000bc
:09380a00000000000000000000b5
:20381300000000000000000000000000000000000000000000000000000000000000000095
:0a383300000000000000000000008b
:20383d0000000000000000000000000000000000000000000000000000000000000000006b
:09385d0000000000000000000062
:20386600000020000000000000000000000000000000000000000000000000000000000022
:0a3886000000000000000000000038
:20389000000000000000000000000000000000000000000000000000000000000000000018
:0938b0000000000000000000000f
:2038b9000000000000000000000000000000000000000000000000000000000000000000ef
:0a38d90000000000000000000000e5
:2038e3000000000000000000000000000000000000000000000000000000000000000000c5
:09390300000000000000000000bb
:20390c0000000000000000000000000000000000000000000000000000000000000000009b
:0a392c000000000000000000000091
:20393600000000000000000000000000000000000000000000000000000000000000000071
:0939560000000000000000000068
:20395f00000000000000000000000000000000000000000000000000000000000000000048
:0a397f00000000000000000000003e
:2039890000000000000000000000000000000000000000000000000000000000000000001e
:0939a90000000000000000000015
:2039b2000000200000000000000000000000000000000000000000000000000000000000d5
:0a39d20000000000000000000000eb
:2039dc000000000000000000000000000000000000000000000000000000000000000000cb
:0939fc00000000000000000000c2
:203a05000000000000000000000000000000000000000000000000000000000000000000a1
:0a3a25000000000000000000000097
:203a2f00000000000000000000000000000000000000000000000000000000000000000077
:093a4f000000000000000000006e
:203a580000000000000000000000000000000000000000000000000000000000000000004e
:0a3a78000000000000000000000044
:203a8200000300000000000000000000000000000000000000000000000000000000000021
:093aa2000000000000000000001b
:203aab000000000000000000000000000000000000000000000000000000000000000000fb
:0a3acb0000000000000000000000f1
:203ad5000000000000000000000000000000000000000000000000000000000000000000d1
:093af500000000000000000000c8
:203afe00000020000000000000000000000000000000000000000000000000000000000088
:0a3b1e00000000000000000000009d
:203b280000000000000000000000000000000000000000000000000000000000000000007d
:093b480000000000000000000074
:203b5100000000000000000000000000000000000000000000000000000000000000000054
:0a3b7100000000000000000000004a
:203b7b0000000000000000000000000000000000000000000000000000000000000000002a
:093b9b0000000000000000000021
:203ba400000000000000000000000000000000000000000000000000000000000000000001
:0a3bc40000000000000000000000f7
:203bce000000000000000000000000000000000000000000000000000000000000000000d7
:093bee00000000000000000000ce
:203bf7000000000000000000000000000000000000000000000000000000000000000000ae
:0a3c170000000000000000000000a3
:203c2100000000000000000000000000000000000000000000000000000000000000000083
:093c41000000000000000000007a
:203c4a000000200000000000004000000000000100000000080000000000000100000000f0
:0a3c6a000000000000000000000050
:203c7400000000000000000000000000000000000000000000000000000000000000000030
:093c940000000000000000000027
:203c9d00000000000000000000000000000000000000000000000000000000000000000007
:0a3cbd0000000000000000000000fd
:203cc7000000000000000000000000000000000000000000000000000000000000000000dd
:093ce700000000000000000000d4
:203cf0000000000000000000000000000000000000000000000000000000000000000000b4
:0a3d100000000000000000000000a9
:203d1a00000300000000000000000000000000000000000000000000000000000000000086
:093d3a0000000000000000000080
:203d4300000000000000000000000000000000000000000000000000000000000000000060
:0a3d63000000000000000000000056
:203d6d00000000000000000000000000000000000000000000000000000000000000000036
:093d8d000000000000000000002d
:203d96000000200000000000000000000000000000000000000000000000000000000000ed
:0a3db6000000000000000000000003
:203dc0000000000000000000000000000000000000000000000000000000000000000000e3
:093de000000000000000000000da
:203de9000000000000000000000000000000000000000000000000000000000000000000ba
:0a3e090000000000000000000000af
:203e130000000000000000000000000000000000000000000000000000000000000000008f
:093e330000000000000000000086
:203e3c00000000000000000000000000000000000000000000000000000000000000000066
:0a3e5c00000000000000000000005c
:203e660000000000000000000000000000000000000000000000000000000000000000003c
:093e860000000000000000000033
:203e8f000000000000000000004000000000000100000000000000000000000100000000d1
:0a3eaf000000000000000000000009
:203eb9000000000000000000000000000000000000000000000000000000000000000000e9
:093ed900000000000000000000e0
:203ee2000000200000000000000000000000000000000000000000000000000000000000a0
:0a3f020000000000000000000000b5
:203f0c0000000000000000000000000000180010000000000000000000000000000000006d
:093f2c000000000000000000008c
:203f350000000000000000000000000000000000400000000000000000000000000000002c
:0a3f55000000000000000000000062
:203f5f000000000000000000000000000000000c0000000000000000000000000000000036
:093f7f0000000000000000000039
:203f88000000000000000000000000000000000040000000000000000000000000000000d9
:0a3fa800000000000000000000000f
:203fb2000003000000000000000000000001000000000000000000000000000000000000eb
:093fd200000000000000000000e6
:203fdb00000000000000000000000000000080000000000000000000000000000000000046
:0a3ffb0000000000000000000000bc
:20400500000000000000000000008297d000000000000000000000000000000000000000b2
:0940250000000000000000000092
:20402e000000200000000000000002800e00000000000000000000000000000000000000c2
:0a404e000000000000000000000068
:2040580000000000000000000020801fd00a000000000000000000000000000000000000af
:094078000000000000000000003f
:204081000000000000000000000003c00800a00000000000000000000000000000000000b4
:0a40a1000000000000000000000015
:2040ab0000000000000000000020829ff000000000000000000000000000000000000000c4
:0940cb00000000000000000000ec
:2040d4000000000000000000000002802e000000000000000000000000000000000000001c
:0a40f40000000000000000000000c2
:2040fe00000000000000000000000000081c0000000000000000000000000000000000007e
:09411e0000000000000000000098
:204127000000000000000000000000000011800000000000000000000000000000000000e7
:0a414700000000000000000000006e
:204151000000001000780000000000000000000000000000000000000000000000000000c6
:0941710000000000000000000045
:20417a000000200000d4000000000000000000000000000008000000000000000000000029
:0a419a00000000000000000000001b
:2041a40000000030f13800000400000001000000000000000000000000000010000000008d
:0941c400000000000000000000f2
:2041cd0000000000f00000000010000000080000000000000000000000000000400000008a
:0a41ed0000000000000000000000c8
:2041f70000001010f169e0000300040df008000000000000000000000000000c0000000036
:094217000000000000000000009e
:20422000000000000f040000001000016e01000000000000000000000000000040000000ab
:0a4240000000000000000000000074
:20424a0000030010f17000000000000ef00000000000000000000000018000000000000061
:09426a000000000000000000004b
:20427300000000800f003c0000000100ea00a00000000000000000000000000000000000d5
:0a4293000000000000000000000021
:20429d0000000010f170000020000000050e0000000000000000000000000000000000005d
:0942bd00000000000000000000f8
:2042c600000020000f000000000000000000a0000000000000000000000000000000000009
:0a42e60000000000000000000000ce
:2042f00000000010f900064000000000080000000000000000000000000000000000000057
:09431000000000000000000000a4
:20431900000000000f70007400000000007000000000000000000000000000000000000021
:0a433900000000000000000000007a
:2043430000000810f138060050000000001a000000000000000000000000000000000000a9
:0943630000000000000000000051
:20436c00000000000f00003a82000000005000000000000000000000000000000000000016
:0a438c000000000000000000000027
:2043960000000030f17a60400000041ed58a0000000000000000bc16000000000000000079
:0943b600000000000000000000fe
:2043bf0000000000f004242400000003e900a00000000000000013c0200000000000000023
:0a43df0000000000000000000000d4
:2043e90000000030f138000000004001a50000000000000000000000000000000000000075
:09440900000000000000000000aa
:2044120000002020f0000000000100001058000000000000000000000000000000000000f1
:0a4432000000000000000000000080
:20443c0000000030f138000004004000a50a00000000000000000000000000000000000014
:09445c0000000000000000000057
:2044650000000010f0000000001000001001b0000000000000000000000000000000000066
:0a448500000000000000000000002d
:20448f0030000030f12a600003004001850000000000000000000000000000000000000069
:0944af0000000000000000000004
:2044b80003000000f0040400001000001000000000000000000000000000000000000000c9
:0a44d80000000000000000000000da
:2044e20000030030f12a0600000040008500000000000000000000000000000000000000a1
:09450200000000000000000000b0
:20450b0000000000f00404000000000010d8000000000000000000000000000000000000b0
:0a452b000000000000000000000086
:2045350000000030f17800000000400180000000000000000000000000000000000000000c
:094555000000000000000000005d
:20455e0000002000f00000000000000000000000000000000000000000000000000000002d
:0a457e000000000000000000000033
:2045880000000030f1680000000040018000000000000000000000000000000000000000c9
:0945a8000000000000000000000a
:2045b10000000000f0000000000000000000000000000000000000000000000000000000fa
:0a45d10000000000000000000000e0
:2045db0000000030f168064000004020000000000000000000000000000000000000000091
:0945fb00000000000000000000b7
:2046040000000010f00400200000000340000000000000000000000000000000000000002f
:0a462400000000000000000000008c
:20462e0000000030f1786040000040000000000000000000000000000000000000000000f3
:09464e0000000000000000000063
:2046570000034000f0040020000000024000000000000000000000000000000000000000aa
:0a4677000000000000000000000039
:02468100000037
:02468300110321
:02468500010131
:20468700000000000000000000000000000000000000000000000000000000000000000013
:0946a7000000000000000000000a
:2046b0000000000000000000000000000000000000000000000000000000000000000000ea
:0a46d00000000000000000000000e0
:2046da000000000000000000000000000000000000000000000000000000000000000000c0
:0946fa00000000000000000000b7
:20470300000000000000000000000000000000000000000000000000000000000000000096
:0a472300000000000000000000008c
:20472d0000000000000000000000000000000000000000000000000000000000000000006c
:09474d0000000000000000000063
:20475600000000000000000000000000000000000000000000000000000000000000000043
:0a4776000000000000000000000039
:20478000000000000008000000000000200000000008000000000000200000000000008049
:0947a0000000000000020000000e
:2047a9000000000000000000000000000000000000000000000000000000000000000000f0
:0a47c90000000000000000000000e6
:2047d30000000000000c00000000000030000000000c00000000000030000000000000c08e
:0947f300000000000003000000ba
:2047fc0000000000000000000000000000000000000000000000000000000000000000009d
:0a481c000000000000000000000092
:20482600000000000000000000000000000000000000000000000000000000000000000072
:0948460000000000000000000069
:20484f00000000000000000000000000000000000000000000000000000000000000000049
:0a486f00000000000000000000003f
:2048790000000000000000000000000000000000000000000000000000000000000000001f
:0948990000000000000000000016
:2048a2000000000000000000000000000000000000000000000000000000000000000000f6
:0a48c20000000000000000000000ec
:2048cc000000000000080000000000002000000000080000000000002000000000000080fc
:0948ec00000000000002000000c1
:2048f5000000000000000000000000000000000000000000000000000000000000000000a3
:0a4915000000000000000000000098
:20491f00000000000000000000000000000000000000000000000000000000000000000078
:09493f000000000000000000006f
:2049480000000000000000000000000000000000000000000000000000000000000000004f
:0a4968000000000000000000000045
:20497200000000000000000000000000000000000000000000000000000000000000000025
:094992000000000000000000001c
:20499b000000000000000000000000000000000000000000000000000000000000000000fc
:0a49bb0000000000000000000000f2
:2049c5000000000000000000000000000000000000000000000000000000000000000000d2
:0949e500000000000000000000c9
:2049ee000000000000000000000000000000000000000000000000000000000000000000a9
:0a4a0e00000000000000000000009e
:204a180000020000000000000000000000000000000000000000000000000000000000007c
:094a380000000000000000000075
:204a4100000000000000000000000000000000000000000000000000000000000000000055
:0a4a6100000000000000000000004b
:204a6b0000000000000000000000000000000000000000000000000000000000000000002b
:094a8b0000000000000000000022
:204a94000000300000000000000000000000000000000000000000000000000000000000d2
:0a4ab40000000000000000000000f8
:204abe000000000000000000000000000000000000000000000000000000000000000000d8
:094ade00000000000000000000cf
:204ae7000000000000000000000000000000000000000000000000000000000000000000af
:0a4b070000000000000000000000a4
:204b1100000000000000000000000000000000000000000000000000000000000000000084
:094b31000000000000000000007b
:204b3a0000000000000000000000000000000000000000000000000000000000000000005b
:0a4b5a000000000000000000000051
:204b640000020000000000000000000000000000000000000000000000000000000000002f
:094b840000000000000000000028
:204b8d00000000000000000000000000000000000000000000000000000000000000000008
:0a4bad0000000000000000000000fe
:204bb7000000000000000000000000000000000000000000000000000000000000000000de
:094bd700000000000000000000d5
:204be0000000000000000000000000000000000000000000000000000000000000000000b5
:0a4c000000000000000000000000aa
:204c0a0000000000000000000000000000000000000000000000000000000000000000008a
:094c2a0000000000000000000081
:204c3300000000000000000000000000000000000000000000000000000000000000000061
:0a4c53000000000000000000000057
:204c5d00000000000000000000000000000000000000000000000000000000000000000037
:094c7d000000000000000000002e
:204c860000000000000000000000000000000000000000000000000000000000000000000e
:0a4ca6000000000000000000000004
:204cb0000002000000000000000000000000000000000000000000000000000000000000e2
:094cd000000000000000000000db
:204cd9000000000000000000000000000000000000000000000000000000000000000000bb
:0a4cf90000000000000000000000b1
:204d0300000000000000000000000000000000000000000000000000000000000000000090
:094d230000000000000000000087
:204d2c00000030000000000000000000000000000000000000000000000000000000000037
:0a4d4c00000000000000000000005d
:204d560000000000000000000000000000000000000000000000000000000000000000003d
:094d760000000000000000000034
:204d7f00000000000000000000000000000000000000000000000000000000000000000014
:0a4d9f00000000000000000000000a
:204da9000000000000000000000000000000000000000000000000000000000000000000ea
:094dc900000000000000000000e1
:204dd2000000000000000000000000000000000000000000000000000000000000000000c1
:0a4df20000000000000000000000b7
:204dfc00000200000000000000000000000000000000000080000000000000000000000015
:094e1c000000000000000000008d
:204e250000000000000000000000000000000000000000000000000000000000000000006d
:0a4e45000000000000000000000063
:204e4f00000000000000000000000000000000000000000000000000000000000000000043
:094e6f000000000000000000003a
:204e780000000000000000000000000000000000000000000000000000000000000000001a
:0a4e98000000000000000000000010
:204ea2000000000000000000000000000000000000000000000000000000000000000000f0
:094ec200000000000000000000e7
:204ecb000000000000000000000000000000000000000000000000000000000000000000c7
:0a4eeb0000000000000000000000bd
:204ef50000000000000000000000000000000000000000000000000000000000000000009d
:094f150000000000000000000093
:204f1e00000000000000000000000000000000000000000000000000000000000000000073
:0a4f3e000000000000000000000069
:204f4800000200000000000000000000000000000000000000000000000000000000000047
:094f680000000000000000000040
:204f7100000000000000000000000000000000000000000000000000000000000000000020
:0a4f91000000000000000000000016
:204f9b000000000000000000000000000000000000000000000000000000000000000000f6
:094fbb00000000000000000000ed
:204fc40000003000000000000000000000000000000000000000000000000000000000009d
:0a4fe40000000000000000000000c3
:204fee000000000000000000000000000000000000000000000000000000000000000000a3
:09500e0000000000000000000099
:20501700000000000000000000000000000000000000000000000000000000000000000079
:0a503700000000000000000000006f
:2050410000000000000000000000000000000000000000000000000000000000000000004f
:0950610000000000000000000046
:20506a00000000000000000000000000000000000000000000000000000000000000000026
:0a508a00000000000000000000001c
:205094000002000000000000000000000000000000000000000000000000000000000000fa
:0950b400000000000000000000f3
:2050bd000000000000000000000000000000000000000000000000000000000000000000d3
:0a50dd0000000000000000000000c9
:2050e7000000000000000000000000000000000000000000000000000000000000000000a9
:095107000000000000000000009f
:2051100000000000000000000000000000000000000000000000000000000000000000007f
:0a5130000000000000000000000075
:20513a00000000000000000000000000000000000000000000000000000000000000000055
:09515a000000000000000000004c
:2051630000000000000000000000000000000000000000000000000000000000000000002c
:0a5183000000000000000000000022
:20518d00000000000000000000000000000000000000000000000000000000000000000002
:0951ad00000000000000000000f9
:2051b6000000000000000000000000000000000000000000000000000000000000000000d9
:0a51d60000000000000000000000cf
:2051e0000002000000000000000000000000000000000000000000000000000000000000ad
:09520000000000000000000000a5
:20520900000000000000000000000000000000000000000000000000000000000000000085
:0a522900000000000000000000007b
:2052330000000000000000000000000000000000000000000000000000000000000000005b
:0952530000000000000000000052
:20525c00000030000000000000000000000000000000000000000000000000000000000002
:0a527c000000000000000000000028
:20528600000000000000000000000000000000000000000000000000000000000000000008
:0952a600000000000000000000ff
:2052af000000000000000000000000000000000000000000000000000000000000000000df
:0a52cf0000000000000000000000d5
:2052d9000000000000000000000000000000000000000000000000000000000000000000b5
:0952f900000000000000000000ac
:2053020000000000000000000000000000000000000000000000000000000000000000008b
:0a5322000000000000000000000081
:20532c000002000000000000000000000000000000000000800000000000000000000000df
:09534c0000000000000000000058
:20535500000000000000000000000000000000000000000000000000000000000000000038
:0a537500000000000000000000002e
:20537f000000000000000000040000000000001000000000000000000000000000000000fa
:09539f0000000000000000000005
:2053a8000000000000000000000000000000000000000000000000000000000000000000e5
:0a53c80000000000000000000000db
:2053d2000000000000000000000000000000000000000000000000000000000000000000bb
:0953f200000000000000000000b2
:2053fb00000000000000000000000000000000000000000000000000000000000000000092
:0a541b000000000000000000000087
:20542500000000000000000000000000000000000000000000000000000000000000000067
:095445000000000000000000005e
:20544e0000000000000000000000000000000000000000000000000000000000000000003e
:0a546e000000000000000000000034
:20547800000000000000000000000000000000000000000000000000000000000000000014
:095498000000000000000000000b
:2054a1000000000000000000000000000000000000000000000000000000000000000000eb
:0a54c10000000000000000000000e1
:2054cb000000000000000000000000000000000000000000000000000000000000000000c1
:0954eb00000000000000000000b8
:2054f400000000000000000000000000000000000000000000000000000000000000000098
:0a551400000000000000000000008d
:20551e0000000000000000000000000000000000000000000000000000000000000000006d
:09553e0000000000000000000064
:20554700000000000000000000000000000000000000000000000000000000000000000044
:0a556700000000000000000000003a
:2055710000000000000000000000000000000000000000000000000000000000000000001a
:0955910000000000000000000011
:20559a000000000000000000000000000000000000000000000000000000000000000000f1
:0a55ba0000000000000000000000e7
:2055c4000000000000000000040000000000001000000000000000000000000000000000b3
:0955e400000000000000000000be
:2055ed0000000000000000000000000000000000000000000000000000000000000000009e
:0a560d000000000000000000000093
:20561700000000000000030000000000000000000000000000000000000000000000000070
:095637000000000000000000006a
:2056400000000000000000000000000000000000000000000000000000000000000000004a
:0a5660000000000000000000000040
:20566a00000000000000000000000000000000000000000000000000000000000000000020
:09568a0000000000000000000017
:205693000000000000000000000000000000000000000000000000000000000000000000f7
:0a56b30000000000000000000000ed
:2056bd000000000000000000000000000000000000000000000000000000000000000000cd
:0956dd00000000000000000000c4
:2056e6000000000000000000000000000000000000000000000000000000000000000000a4
:0a5706000000000000000000000099
:20571000000200000000000000000000000000000000000000000000000000000000000077
:0957300000000000000000000070
:20573900000000000000000000000000000000000000000000000000000000000000000050
:0a5759000000000000000000000046
:205763000000000f007800000000000000000000000000000000000000000000000000009f
:095783000000000000000000001d
:20578c00000030120052c000000000000000000000000000000000000000000000000000a9
:0a57ac0000000000000000000000f3
:2057b6000000000000000400010000000000000000000000000000000000000000000000ce
:0957d600000000000000000000ca
:2057df00000000000000067000300000000000000000000000000000000000000000000004
:0a57ff0000000000000000000000a0
:2058090000000000000000000100000000000000000000000000000000000000000000007e
:0958290000000000000000000076
:20583200000000000000000000400000000000000000000000000000000000000000000016
:0a585200000000000000000000004c
:20585c000002000000000000000000000000000000000000800000000000000000000000aa
:09587c0000000000000000000023
:20588500000000000000000000000000000000000000000000000000000000000000000003
:0a58a50000000000000000000000f9
:2058af00000000000000420000000000000000000000000000000000000000000000000097
:0958cf00000000000000000000d0
:2058d80000000000000020040000000000000000000000000000000000000000000000008c
:0a58f80000000000000000000000a6
:205902000000000aa040020000000000000800000000000000000000000000000000000091
:095922000000000000000000007c
:20592b0000000002aa178064000000000000100000000000000000000000000000000000a5
:0a594b000000000000000000000052
:205955000000000f0000000000000000000000000000000000000000000000000000000023
:0959750000000000000000000029
:20597e00000000030f16800000000000000000000000000000000000000000000000000061
:0a599e0000000000000000000000ff
:2059a8000002000f00000000000000000100000000000000000000000000000000000000cd
:0959c800000000000000000000d6
:2059d100000000030f1780000000000000808000000000000000000000000000000000000d
:0a59f10000000000000000000000ac
:2059fb000000000f004000000000000000000000000000000000000000000000000000003d
:095a1b0000000000000000000082
:205a2400000030030f1280600000000000000000000000000000000000000000000000002e
:0a5a44000000000000000000000058
:205a4e000000000f0040400001403c00d00a0004000000000000000000000000000000004e
:095a6e000000000000000000002f
:205a7700000000030f12a600003048014c100000c0000000000000000000000000000000b0
:0a5a97000000000000000000000005
:205aa1000000000f00000000010000000000000400000000000000000000000000000000d1
:095ac100000000000000000000dc
:205aca00000000030f138000004000000000000100000000000000000000000000000000d6
:0a5aea0000000000000000000000b2
:205af4000002020f0000000000403c00b00000000000000000000000000000000000000053
:095b140000000000000000000088
:205b1d00000000030f138000000008014e000000000000000000000000000000000000006c
:0a5b3d00000000000000000000005e
:205b47000000000f004002000000000fe50a000000000000000000000000000000000000ef
:095b670000000000000000000035
:205b7000000000030f17860400000041ec59b000000000000000000000000000000000002c
:0a5b9000000000000000000000000b
:205b9a000000000f0040020000000036850a000000000000000000000000000000000000d5
:095bba00000000000000000000e2
:205bc300000000030f1680640000000768d1a00000000000000000000000000000000000d6
:0a5be30000000000000000000000b8
:205bed000000000f000000000000003c950a000000000000000000000000000000000000ae
:095c0d000000000000000000008e
:205c1600000000030f16800000000040cf80a0000000000000000000000000000000000097
:0a5c36000000000000000000000064
:205c40000002000f000000000000002ee50a00000000000000000000000000000000000016
:095c60000000000000000000003b
:205c6900000000030f17800000000042df58b0000000000000000000000000000000000049
:0a5c89000000000000000000000011
:205c93000000000f004040000000003ec9000000000000000000000000000000000000005b
:095cb300000000000000000000e8
:205cbc00000030030f12a06000000043dd38000000000000000000000000014000000000db
:0a5cdc0000000000000000000000be
:205ce6000000000f004040000100000000000000000000000000000000000000000000000e
:095d060000000000000000000094
:205d0f00000000030f12a6000030000000000000000000000000000000000000000000007a
:0a5d2f00000000000000000000006a
:205d39000000000f00000000010000000080000000000000000000000000000000000000ba
:095d590000000000000000000041
:205d6200000000030f13800000400000001800000000000000000000000000000000000024
:0a5d82000000000000000000000017
:205d8c000002020f00000000008a03c0001b000000000000800000000000000000000000fc
:095dac00000000000000000000ee
:205db500000000030f1380000000403c4001c00000000000000000000000000000000000ac
:0a5dd50000000000000000000000c4
:025ddf000000c2
:035de10062003f1e
:035de400720080ca
:025de7001100a9
:035de90082000035
:025dec000103b1
:085dee000000000000000000ad
:085df6000000000000000000a5
:085dfe0000000000000000009d
:085e0600000000000000000094
:0261ee000000af
:0361f000820080aa
:0261f3000103a6
:0861f5000000000000000000a2
:0861fd0000000000000000009a
:08620500000000000000000091
:08620d00000000000000000089
:0265f5000000a4
:0265f700110190
:0365f9008200001d
:0265fc00010399
:0865fe00000000000000000095
:0866060000000000000000008c
:08660e00000000000000000084
:0866160000000000000000007c
:0269fe00000097
:036a000082008091
:026a030001038d
:086a0500000000000000000089
:086a0d00000000000000000081
:086a1500000000000000000079
:086a1d00000000000000000071
:026e050000008b
:026e0700110276
:036e090082000004
:026e0c00010380
:086e0e0000000000000000007c
:086e1600000000000000000074
:086e1e0000000000000000006c
:086e2600000000000000000064
:02720e0000007e
:0372100082008079
:02721300010375
:08721500000000000000000071
:08721d00000000000000000069
:08722500000000000000000061
:08722d00000000000000000059
:02761500000073
:0276170011035d
:03761900820000ec
:02761c00010368
:08761e00000000000000000064
:0876260000000000000000005c
:08762e00000000000000000054
:0876360000000000000000004c
:027a1e00000066
:037a200082008061
:027a230001035d
:087a2500000000000000000059
:087a2d00000000000000000051
:087a3500000000000000000049
:087a3d00000000000000000041
:027e250000005b
:017e27002238
:027e2800a53f74
:027e2a0001064f
:00000001FF
