:02000000ff00ff
:080002004c6174746963650030
:17000a00694345637562653220323032302e31322e32373934330071
:15002100506172743a2069434534304c50314b2d514e38340034
:1b003600446174653a204a756e20313320323032322031393a31383a33330073
:0200510000ffae
:040053007eaa997e6a
:02005700510056
:0200590001059f
:03005b0092000010
:03005e0062014bf1
:030061007200909a
:0300640082000017
:02006700110086
:02006900010193
:20006b00000000000000000000000000000000000000000000000000000000000000000075
:09008b00000000800000000000ec
:2000940000000000000000000000000000000000000000000000000000000000000000004c
:0a00b4000000000000000000000042
:2000be00000000000000000000000000000000000000000000000000000000001000000012
:0900de00000000400000000000d9
:2000e7000000000000000000000000000000000000000000000000000000000000000000f9
:0a01070000000000000000000000ee
:200111000000000000000000000000000000000000000000000000000000000000000000ce
:0901310000000080000002000043
:20013a000000000000000000000000000000000000000000000000000000000000000000a5
:0a015a00000000000000001000008b
:200164000000000000040000000000001000000000000040000000001000000000000040d7
:090184000000000007010000006a
:20018d00000000000000000000000000000000000000000000000000000000000000000052
:0a01ad0000000000008000000000c8
:2001b70000000000000c00000000000030000000000000c00000000030000000000000c03c
:0901d7000000000000020000001d
:2001e0000000000000000000000000000000000000000000000000000000000000000000ff
:0a02000000000000000000000000f4
:20020a000000000000000000000000000000000000000000000000000000000000000000d4
:09022a00000000000000000000cb
:200233000000000000000000000000000000000000000000000000000000000000000000ab
:0a02530000000000000000000000a1
:20025d00000000000000000000000000000000000000000000000000000000000000000081
:09027d0000000000000000000078
:20028600000000000000000000000000000000000000000000004000000000000100000017
:0a02a600000000040000000000004a
:2002b00000000000000400000000000010000000000000400000000010000000000000408a
:0902d00000000000000100000024
:2002d900000000000000000000000000000000000000000000000000000000000000000005
:0a02f90000000000000000000000fb
:200303000000000000000000000000000000000000000000000000000000000000000000da
:09032300000000000000000000d1
:20032c00000020000000000000000000000000000040000000000000000000000000000051
:0a034c0000000000000000000000a7
:20035600000000000000000000000000000000000000000000000000000000000000000087
:090376000000000000000000007e
:20037f0000000000000000000000000000000000000000000000000000000000000000005e
:0a039f000000000000000000000054
:2003a900000000000000000000000000000000000000000000000000000000000000000034
:0903c9000000000000000000002b
:2003d20000000000000000000000000000000000000000000000000000000000000000000b
:0a03f2000000000000000000000001
:2003fc000003000000000000000000000000000000000000000000000000000000000000de
:09041c00000000000000000000d7
:200425000000000000000000000000000000000000000000000000000000000000000000b7
:0a04450000000000000000000000ad
:20044f0000000000000000000000000000000000000000000000000000000000000000008d
:09046f0000000000000000000084
:20047800000020000000000000000000000000000000000000000000000000000000000044
:0a049800000000000000000000005a
:2004a20000000000000000000000000000000000000000000000000000000000000000003a
:0904c20000000000000000000031
:2004cb00000000000000000000000000000000000000000000000000000000000000000011
:0a04eb000000000000000000000007
:2004f5000000000000000000000000000000000000000000000000000000000000000000e7
:09051500000000000000000000dd
:20051e000000000000000000000000000000000000000000000000000000000000000000bd
:0a053e0000000000000000000000b3
:20054800000000000000000000000000000000000000000000000000000000000000000093
:090568000000000000000000008a
:2005710000000000000000000000000000000000000000000000000000000000000000006a
:0a0591000000000000000000000060
:20059b00400000000000000000000000000000000000000000000000000000000000000000
:0905bb0000000000000000000037
:2005c4000000200000000000000000000000000000000000000000000000000000000000f7
:0a05e400000000000000000000000d
:2005ee000000000000000000000000000000000000000000000000000000000000000000ed
:09060e00000000000000000000e3
:200617000800000000000000000000000000000000000000000000000000000000000000bb
:0a06370000000000000000000000b9
:20064100440000000000000000000000000000000000000000000000000000000000000055
:0906610000000000000000000090
:20066a0000c0000000000000000000000000000000000000000000000000000000000000b0
:0a068a000000000000000000000066
:20069400000300000000000000000000000000000000000000000000000000000000000043
:0906b4000000000000000000003d
:2006bd0000000000000000000000000000000000000000000000000000000000000000001d
:0a06dd000000000000000000000013
:2006e7000000000000000000000000000000000000000000000000000000000000000000f3
:09070700000000000000000000e9
:200710000000200000000000000000000000000000000000000000000000000000000000a9
:0a07300000000000000000000000bf
:20073a0000300000000000000000000000000000000000000000000000000000000000006f
:09075a0000000000000000000096
:20076300000000000000000000000000000000000000000000000000000000000000000076
:0a078300000000000000000000006c
:20078d0000000000000000000000000000000000000000000000000000000000000000004c
:0907ad0000000000000000000043
:2007b600000000000000000000000000000000000000000000000000000000000000000023
:0a07d6000000000000000000000019
:2007e0000000000000000000000000000000000000000000000000000000000000000000f9
:09080000000000000000000000ef
:200809000000000000000000000000000000000000000000000000000000000000000000cf
:0a08290000000000000000000000c5
:200833000000000000000000000000000000000000000000000000000000000000000000a5
:090853000000000000000000009c
:20085c0000002000000000000000000000000000004000000000000000000000000000001c
:0a087c000000000000000000000072
:20088600000000000000000000000000000000000000000000000000000000000000000052
:0908a60000000000000000000049
:2008af00080000000000000000000000000000000000000000000000000000000000000021
:0a08cf00000000000000000000001f
:2008d9000000000000000000000000000000000000000000000000000000000000000000ff
:0908f900000000000000000000f6
:200902000000000000000000000000000000000000000000000000000000000000000000d5
:0a09220000000000000000000000cb
:20092c000003000000000000000000000000000000000000000000000000000000000000a8
:09094c00000000000000000000a2
:20095500000000000000000000000000000000000000000000000000000000000000000082
:0a0975000000000000000000000078
:20097f00000000000000000000000000000000000000000000000000000000000000000058
:09099f000000000100000000004e
:2009a80000002000000000000000000000000000000000000000000000000000000000000f
:0a09c8000000000000000000000025
:2009d200000000000000000000000000000000000000000000000000000000000000000005
:0909f200000000000000000000fc
:2009fb000000000000000000000000000000000000000000000000000000000000000000dc
:0a0a1b0000000000000000000000d1
:200a25000000000000000000000000000000000000000000000000000000000000000000b1
:090a4500000000000000000000a8
:200a4e00000000000000000000000000000000000000000000000000000000000000000088
:0a0a6e00000000000000000000007e
:200a780000000000000000000000000000000000000000000000000000000000000000005e
:090a980000000000000000000055
:200aa100000000000000000000000000000000000000000000000000000000000000000035
:0a0ac100000000000000000000002b
:200acb0000000000000000000000000000000000000000000000000000000000000000000b
:090aeb0000000000000000000002
:200af4000000200000000000000000000000000000000000000000000000000000000000c2
:0a0b140000000000000000000000d7
:200b1e000000000000000000000000000000000000000000000000000000000000000000b7
:090b3e00000000000000000000ae
:200b4700080000000000000000000000000000000000000000000000000000000000000086
:0a0b67000000000000000000000084
:200b7100000000000000000000000000000000000000000000000000000000000000000064
:090b91000000000000000000005b
:200b9a0000000000000000000000000000000000000000000000000000000000000000003b
:0a0bba000000000000000000000031
:200bc40000030000000000000000000000000000000000000000000000000000000000000e
:090be40000000000000000000008
:200bed000000000000000000000000000000000000000000000000000000000000000000e8
:0a0c0d0000000000000000000000dd
:200c17000000000000000000000000000000000000000000000000000000000000000000bd
:090c3700000000000000000000b4
:200c4000000020000000000000000000000000000000000000000000000000000000000074
:0a0c6000000000000000000000008a
:200c6a0000000000000000000000000000000000000000000000000000000000000000006a
:090c8a0000000000000000000061
:200c9300000000000000000000000000000000000000000000000000000000000000000041
:0a0cb3000000000000000000000037
:200cbd00000000000000000000000000000000000000000000000000000000000000000017
:090cdd000000000000000000000e
:200ce6000000000000000000000000000000000000000000000000000000000000000000ee
:0a0d060000000000000000000000e3
:200d10000000000000000000000000000000000000000000000000000000000000000000c3
:090d3000000000000000000000ba
:200d390000000000000000000000000000000000000000000000000000000000000000009a
:0a0d59000000000000000000000090
:200d6300000000000000000000000000000000000000000000000000000000000000003040
:090d830000200000000000000047
:200d8c00000000000000000000000000000000000040000000000000000000000000f0f027
:0a0dac00bc000000824000000000bf
:200db6008068000000000000000000000000000000000000000000000000000080000012a3
:090dd6003c2802000000000000ae
:200ddf000800000000000000000000000000000000000000000000000000000028000000c4
:0a0dff0003c00020400000000000c7
:200e0900000000000000000000000000000000000000000000000000000000000001015275
:090e29003c28000200000000005a
:200e320000000000000000000000000000000000000000000000000000000000000000e0c0
:0a0e520083c0000000000000000053
:200e5c00000100000000000000000000000000000000000000000000000000000000011262
:090e7c003c2400003600000000d7
:200e85000000000000000000000000000000000000000000000000000000000000000080cd
:0a0ea50083c00000a0400000000020
:200eaf000000000000000000000000000000000000000000000000000000000000001e7a8b
:090ecf003c20000000037c0040ff
:200ed8000000200000000000000000000000000000000000000000000000000000000000da
:0a0ef80003c0000000001400f00029
:200f0200400000000000000000000000000000000000000000000000000000000008003a4d
:090f22003c2000001e000000004c
:200f2b0000c000000000000000000000000000000000000000000000000000000000500096
:0a0f4b0003c00000000000000000d9
:200f55000000000000000000000000000000000000000000000000000000000000000e5a14
:090f75003c300000000000000007
:200f7e0008000000000000000000000000000000000000000000000000000000000001004a
:0a0f9e00803c00000000000000008d
:200fa800400000000000000000000000000000000000000000000000000000000000187a57
:090fc8003c3000000000000000b4
:200fd1000000000000000000000000000000000000000000000000000000000000005000b0
:0a0ff100803c00000000000000003a
:200ffb00000000000000000000000000000000000000000000000000000000000000007264
:09101b003c3000002000ea08004e
:2010240000002000000000000000000000000000000000000000000000000000000000008c
:0a104400003c1000014007a000046a
:20104e000000000000000000000000000000000000000000000000000000000280000052ae
:09106e003c300a00000000000003
:20107700000000000000000000000000000000000000000000000000000000000800000051
:0a109700003c0020000000000000f3
:2010a100000000000000000000000000000000000000000000000000000000000001995243
:0910c1003c3000001604000000a0
:2010ca00000000000000000000000000000000000000000000000000000000000000008086
:0a10ea00803c0000000280000000be
:2010f400000300000000000000000000000000000000000000000000000000000001815205
:091114003c300000000000000066
:20111d00000000000000000000000000000000000000000000000000000000000000008032
:0a113d00803c0000014000000000ab
:20114700000000000000000000000000000000000000000000000000000000000008007a06
:091167003c3000000003fc0040d4
:201170000000200000000000000000000000000000000000000000000000000000007000cf
:0a119000003c000000400c00f000dd
:20119a00000000000000000000000000000000000000000000000000000000000000005adb
:0911ba003c300000246400000038
:2011c30000000000000000000000000000000000000000000000000000000000000000000c
:0a11e300003c00000266400000001e
:2011ed00000000000000000000000000000000000000000000000000000000000008005a80
:09120d003c30000000697f000084
:201216000000000000000000000000000000000000000000000000000000000000001000a8
:0a123600803c000000003cd20004e0
:20124000000000000000000000000000000000000000000000000000000000000008187af4
:091260003c3000002000000000f9
:20126900000000000000000000000000000000000000000000000000000000000000100055
:0a128900803c00000040000000005f
:201293000000000000000000000000000000000000000000000002065dd85000000000723c
:0912b3003c3000000000000000c6
:2012bc0000002000000000000000000000000000004000000000003c39498a00400000002a
:0a12dc00003c1000000000000000bc
:2012e6000000000000000000000000000000000000000000002000003d850600800000720e
:091306003c3000400002ef080039
:20130f0000000000000000000000000000000000000000000002000027d00040280000005d
:0a132f00003c000200000df0000079
:201339000000000000000000000000000000000000000000004000621fe006000001195281
:091359003c300000366f4a080028
:201362000000000000000000000000000000000000000000000400007dd00540000008804d
:0a138200803c00000142bea0000004
:20138c000003000000000000000000000000000028000000000001e01ca50400100181528c
:0913ac003c300000b66f6b080034
:2013b500000000000000000000000000000000000100000000000000001050400080008077
:0a13d500803c0000114295b00000ba
:2013df00000000000000000000000000000000000000000000000000000000000000007a74
:0913ff003c3000001437cc08005a
:2014080000002000000000000000000000000000000000000000001c000000000000000088
:0a142800003c00000363b6c00000a2
:201432000000000000000000000000000000000000000000000000e0000000000000005a60
:091452003c3000002601cc4520cd
:20145b0000000000000000000000000000000000003000000000000200000000000000003f
:0a147b00003c000002602de4a00018
:2014850000000000000000000000000000000000000000000000204005c250000009805aed
:0914a5003c3000003c6000000036
:2014ae0001000000000000000000000000000000000000000000003c036e1500400010000b
:0a14ce00803c000000c6c0000000d2
:2014d8000000000000000000000000000000000000000000004001c05ec080200008187a9b
:0914f8003c30000000640000001b
:201501000000000000000000000000000000000000000000000c00263b40000040001000cd
:0a152100803c0000000640000000be
:20152b004000000000000000000000000000000000000000000022000000000001000072cb
:09154b003c30000000037a0800a6
:2015540000002000000000000000000000000000000000000000003c2800000000000000f3
:0a157400003c1008000016b0000053
:20157e0000000000000000000000000000000000000000000020000000000002a008005231
:09159e003c3002002000000000b6
:2015a700080000000000000000000000000000000000000000020000000000002900700081
:0a15c700003c00a001c0000000007d
:2015d10040000000000000000000000036f7f00000000000004001c71fce2000000199529c
:0915f1003c300c001c6a0a0240a7
:2015fa0000000000000000000000000002ffff2000000000000c0002416f810000280080ca
:0a161a00803c004003c004e014808f
:201624000003000000000000000000004000000000000000000001e02dc0040000018052be
:091644003c300080b6047c0a4031
:20164d0000000000000000000000000038000000000000000000000203f00a5000000000f6
:0a166d00803c0004f14294000400e8
:20167700000000000000000000000000000000000000000000000000400000000007807a12
:091697003c3000021c00ed2501ad
:2016a0000000200000000000000000000000000000000000000000003c00000000000800c6
:0a16c000003c000000227cc2a000e4
:2016ca000000000000000000000000000000000000000000000001c03eb850000381015a1a
:0916ea003c3000002e647c121259
:2016f30000000000000000000000000024000000000000000000000224ee4500000008c092
:0a171300003c00000062010120000c
:20171d00000000000000000000000000000000000000000000001006000000000009007a13
:09173d00155000041d60ecc5020a
:2017460008000000000000000000000024000000000000000000008028000000000010009f
:0a176600815400000000020c500046
:2017700000000000000000000000000380000000000000000040000724a850000008013e2c
:0917900052804c000c00f80642e6
:201799000000000000000000000000000000000000000000000c001468ef450000001083e1
:0a17b900b11400c00020000064001d
:0217c300000024
:0217c500110110
:0217c70001011e
:2017c9000000020000000000000800000000000020000000000000000000000000000000d6
:0917e900000000000000000000f7
:2017f2000000000000000000000000000000000000000000000000000000000000000000d7
:0a18120000000000000000000000cc
:20181c00000001000000000000040000000000001000000000040000000000000000000093
:09183c00000000000000000000a3
:20184500000000000000000000000000000000000000000000000000000000000000000083
:0a1865000000000000000000000079
:20186f00000002000000080000080000000000002000000080000000400000000000000067
:09188f0000000000000000000050
:201898000000000000000040000000000000000000000000040000000000000000000000ec
:0a18b8000000000000000000000026
:2018c200000000001c04000000000000100000000001c04000000000100000000000004085
:0918e200000000000001000000fc
:2018eb000000000000000000000000000000000000002000000000000000000000000000bd
:0a190b0000000000000000000000d2
:2019150000000000000c00000000000030000000000000c00000000020000000000000c0d6
:0919350000000000000300800026
:20193e00000000000000000000000000000000000000000000000000000000000000000089
:0a195e00000000000000000000007f
:2019680000000000000000000000000000000000000000000000000000000000000000005f
:0919880000000000000000000056
:20199100000000000000000000000000000000000000000000000000000000000000000036
:0a19b100000000000000000000002c
:2019bb0000000000000000000000000000000000000000000000000000000000000000000c
:0919db0000000000000000000003
:2019e4000000000000000000000000000000000001000000000040000000000001000000a1
:0a1a040000000004000000000000d4
:201a0e00000000000004000000000000100000000000004000000000100000000000004014
:091a2e00000000000001000000ae
:201a370000000000000000000000000000000000000000000000000000000000000000008f
:0a1a57000000000000000000000085
:201a6100000000000000000000000000000000000000000000000000000000000000000065
:091a81000000000000000000005c
:201a8a0000000000000000000000000000000000000000000000000000000000000000003c
:0a1aaa000000000000000000000032
:201ab400000000000000000000000000000000000000000000000000000000000000000012
:091ad40000000000000000000009
:201add000000000000000000000000000000000000000000000000000000000000000000e9
:0a1afd0000000000000000000000df
:201b07000000000000000000000000000000000000000000000000000000000000000000be
:091b2700000000000000000000b5
:201b3000000000000000000000000000000000000000000000000000000000000000000095
:0a1b5000000000000000000000008b
:201b5a00000200000000000000000000000000000000000000000000000000000000000069
:091b7a0000000000000000000062
:201b8300000000000000000000000000000000000000000000000000000000000000000042
:0a1ba3000000000000000000000038
:201bad00000000000000000000000000000000000000000000000000000000000000000018
:091bcd000000000000000000000f
:201bd6000000300000000000000000000000000000000000000000000000000000000000bf
:0a1bf60000000000000000000000e5
:201c00000000000000000000000000000000000000000000000000000000000000000000c4
:091c2000000000000000000000bb
:201c290000000000000000000000000000000000000000000000000000000000000000009b
:0a1c49000000000000000000000091
:201c5300000000000000000000000000000000000000000000000000000000000000000071
:091c730000000000000000000068
:201c7c00000000000000000000000000000000000000000000000000000000000000000048
:0a1c9c00000000000000000000003e
:201ca60000020000000000000000000000000000000000000000000000000000000000001c
:091cc60000000000000000000015
:201ccf000000000000000000000000000000000000000000000000000000000000000000f5
:0a1cef0000000000000000000000eb
:201cf9000000000000000000000000000000000000000000000000000000000000000000cb
:091d19000000000002400000007f
:201d22000000000000000000000000000000000000000000000000000000000000000000a1
:0a1d42000000000000e300000000b4
:201d4c0000000000080000000000000000000000000000000000000000000000000000006f
:091d6c00000000000003c0b500f6
:201d75000000000003800000000000000000000000000000000000000000000000000000cb
:0a1d950000000000000026cf5028d7
:201d9f00000000000000000000000000000000000020000000000000000000000000000004
:091dbf0000000000000010a0006b
:201dc8000000000000000000000000000000000000010000000000000000000000000000fa
:0a1de8000000000000601eaa028047
:201df2000002000000070000000000000000000000000000000000000000000000000000c8
:091e1200000000000000000000c7
:201e1b000000000000001029404000000000000000000000000000000000000000000000ee
:0a1e3b00000000000160000000003c
:201e450000000000000000000000000000000000000000000000000000000000000000007d
:091e650000000000000000000074
:201e6e00000030000000000000000000000000000000000000000000000000000000000024
:0a1e8e00000000000000000000004a
:201e980000000000000000000000000000000000000000000000000000000000000000002a
:091eb80000000000000000000021
:201ec100000000000000000000000000000000000000000000000000000000000000000001
:0a1ee10000000000000200000000f5
:201eeb000000000000000000000000000000000000000000000000000000000000000000d7
:091f0b00000000000200000000cb
:201f14000000000000000000000000000000000000000000000000000000000000000000ad
:0a1f34000000000000600000000043
:201f3e00000200000000000000000000000000000400000000000800000000000000000075
:091f5e00000000000003c0500067
:201f6700000000000300000000000000000000000000000000000000000000000000000057
:0a1f870000000000000021ca000065
:201f91000040000000000000000000000000000000000000000000000000000000000000f0
:091fb10000000400000000000023
:201fba00000280000000000000000000000000000000000000000000000000000000000085
:0a1fda0000000040000000000000bd
:201fe4000000000000000000000000000000000000000000000000000000000000000000dd
:09200400000000000000000000d3
:20200d000000000000000000000000000000000000000000000000000000000000000000b3
:0a202d000000000200400000000067
:20203700000000000000000000000000000000000000000000000000000000000000000089
:0920570000000000000000000080
:20206000000000000000000000000000000000000000000000000000000000000000000060
:0a2080000000000000000000000056
:20208a00000200000000000000000000000000000000000000000000000000000000000034
:0920aa0000000000002800000005
:2020b30000000000000000000000000000000000000000000000000000000000000000000d
:0a20d30000000000000040000000c3
:2020dd000000000000000000000000000000000000000000000000000000000000000000e3
:0920fd00000001000000000000d9
:20210600000030000000000000000000000000000000000000000000000000000000000089
:0a212600000000100000000000009f
:202130000c0000000000000000000000000000000000000000000000000000000000000083
:0921500000000408040000000076
:2021590004c0000000000000000000000000000000000000000000000000000000000000a2
:0a217900000000c00200000000009a
:202183008000000000000000000000000000000000000000000000000000000000000000bc
:0921a30000000a003c00000000ed
:2021ac00000000000000000000000000000000000000000000000000000000000000000013
:0a21cc00000000a000000000000069
:2021d6000002000000000000000000000000000000000000000000000000000000000000e7
:0921f60000000000000000550487
:2021ff000400000000000000000000000000000000000000000000000000000000000000bc
:0a221f0000000000000014855400c8
:20222900000001000000000000000000000000000000000000000000000000000000000094
:0922490000000400040020000064
:2022520000000000000000000000000000000000000000000000000000000000000000006c
:0a2272000000004002071e000800f3
:20227c008000000000000000000000000000000000000000000000000000000000000000c2
:09229c00000000000443e0f5001d
:2022a500000000000000000000000000000000000000000000000000000000000280000097
:0a22c50000000000026396805c0038
:2022cf000000400000000000000000000000000000000000000000000000000000000000af
:0922ef00000000000002c0f5002f
:2022f8000000000000000000000000000000000000000000000000000000000000000000c6
:0a23180000000000000016805c00c9
:2023220000000000000000000000000000000000000000000000000000000000000000009b
:09234200000000000043c0f5009a
:20234b000000000000000000000000000000000000000000000000000000000000800000f2
:0a236b000000000000039e805c00eb
:20237500000000000000000000000000000000000000000000000000000000000000000048
:09239500000000000022e0f50048
:20239e000000200000000000000000000000000000000000000000000000000000000000ff
:0a23be0000000000006054805c0085
:2023c8000000000000000000000000000000000000000000000000000000000000000000f5
:0923e800000000000023e0f500f4
:2023f1000000000000000000000000000000000000000000000000000000000000000000cc
:0a2411000000000000e654805c00ab
:20241b0080000000000000000000000000000000000000000000000000000000030000001e
:09243b0000000a001c02c0f500bb
:20244400000000000000000000000000000000000000000000000000000000000000000078
:0a2464000000002000001c805e0054
:20246e0000000000000000000000000000000000040000000000000000000000000000004a
:09248e00000000000003c0f50489
:202497000000000000000000000000000000000000800000000000000000000000000000a5
:0a24b7000000000000001c805c0023
:2024c10000000000000000000000000000000000000000000000000000000000000b80046c
:0924e10009c004000402e0f5004a
:2024ea00000000000000000000000000000000000000000000000000000000000000b80713
:0a250a00609d08c002063e805c00e0
:20251400804000000000000000000000000000000800000000000000000000000000007c63
:09253400000000000440e0f50085
:20253d000006800000000000000000000000000000000000000000000000000000001809d7
:0a255d0028140000026316805c00e1
:202567000000000000000000000000000000000000000000000000000000000000008000d4
:09258700000000000c42c0f50048
:202590000000000000000000000000000000000000000000000000000000000000003800f3
:0a25b000000000000203b6805c008a
:2025ba0000000000000000000000000000000000000000000000000000000000000b0000f6
:0925da00000000003c40c0f500c7
:2025e300000004000000000000000000000000000000000000000000000000000000800054
:0a2603000000000000031e805c00d0
:20260d00000000000000000000000000000000000000000000000000000000000000007439
:09262d002bc000000022e0f500c2
:202636000000200000000000000000000000000000000000000000000000000000000188db
:0a265600297c4200006074805c00e3
:2026600008000000000000000000000000000000000000000000000000000000000008004a
:09268000000000000020e0f5005c
:2026890004c00000000000000000000000000000000000000000000000000000000000e08d
:0a26a90000000000004654805c00b1
:2026b3008000000000000000000000000000000000000000000000000000000080000edf1a
:0926d30029000a000002c0f50014
:2026dc000000000000000000000000000000000000000000000000000000000028000005b1
:0a26fc00a590002000003c805c0067
:202706000002000000000000000000000000000000000000000000000000000000000900a8
:09272600000000000000dff500d6
:20272f0004000000000000000000000000000000000000000000000000000000000000b0d6
:0a274f000000000000001cc05c0048
:20275900003000000000000000000000000000000000000000c000000000000000000878f0
:092779002d4000000003400000a7
:2027820084000000000000000000000000000000000000000004000000000000000001f7b7
:0a27a200a880080000e01faa01183b
:2027ac00980000000000000000008000000000000000000000001440000000000009005048
:0927cc00108230002428000000f6
:2027d500006000000000000000000000000000000000000000000081000000000000b80843
:0a27f500020408000000400000008c
:2027ff000c00000000000000000000000000000028000000000000028205040000000010e9
:09281f002040000e0043c000013e
:2028280004c00000000000000000000000000000000000000000000004ea50600400000822
:0a2848000108080000e61fa20020ae
:202852000002000000000000000000000000000000000000000000000000000000008a00da
:092872000f000000000040af005f
:20287b000000000000000000000000000000000000000000000000000000000000003810f5
:0a289b0000f00800000000e5f00066
:2028a500000000000000000000000000000000000000000000000006400000000000900835
:0928c50031400000000040cf008a
:2028ce0000003000000000000000000000000000000000000000001e64000000000010a583
:0a28ee00eb140900016027a4e024a8
:2028f8000c00000000000000000002400000f0100000000000c0002000000000000000b6dc
:09291800c6800000002050000000
:20292100040000000000000000000000000a0f000000000000040006780000000000518125
:0a294100e008000000005cea00045a
:20294b008030000000000000000000000000000000000000002010001f00a5001301801321
:09296b003c000000140000000013
:2029740000004000000000000000000000000000000000000002008000fa0048020098a7fe
:0a29940061c00000034000000000d5
:20299e000002000000000000000000000000000004000000000003c02d0a0408000080fa93
:0929be00928000002401500f0971
:2029c700040000000000000000000000000000000000000000000020021a50400000700fa1
:0a29e700b914000000002fc0a0800a
:2029f100000002800000000000000000000000000000000000c0002280000000000000bf23
:092a1100c00204000e2ec00000fa
:202a1a000400000000000000000000000000000000000000000c001c000000000000000967
:0a2a3a00a200054002e037e0802012
:202a4400803c000000000000000000000000000000000000000000200305040000090d0074
:092a6400154000000020db810098
:202a6d0000004000000000000000000000000000000000000000001e01ec504000008017d7
:0a2a8d002154000200474fe47000de
:202a97000800000000000000000000000000000000000000000000003c0a040000290002a2
:092ab7009a400000026e50e20199
:202ac00004c000000000000000000000000000000000000000000000020a5040000181a074
:0a2ae000225a0400006280ed10206d
:202aea0000420000000000000000000000000000000000000000000000000000000010007a
:092b0a0003c010003c224b5100f5
:202b13000003800000000000000000000000000000000000000000146800000000005983c7
:0a2b330023c2000002001f901000f2
:202b3d000000000000000000000000000000000000000000000000003d8850000000000063
:092b5d0003c000015400e05a40dd
:202b660000003000000000000000000000000000000000000000000603684520002800031e
:0a2b8600a3c200000a46ae000400de
:202b900008000000000000000000000000000000000000000040002400000000000b0000ae
:092bb00003c0040600002050409f
:202bb9000440000000000000000000000000000000000000000400066800000000008001c5
:0a2bd90023c200c020061fa504104f
:202be300800000000000000000000000000000000000000000a000003c0a400000000e001e
:092c030003c00a003c03ea4a0088
:202c0c00000000000000000000000c000000000000000000000a0014036a6402002000018a
:0a2c2c0023c200a000600ed4500087
:202c3600000200000000000000000000000000000000000000000022740fa094000d8d0801
:092c560003c10000006c00000045
:202c5f0004000000000000000000000000000000000000000000000600d8a0280000181380
:0a2c7f0023c201000006000000005f
:202c89000000000000000000000000000000000000000000000001628d07400400000008e8
:092ca90003c0040006235f98003b
:202cb20000000000000000000000000000000000000000000000003c6a485002000001a71a
:0a2cd200a3c2014402e72dfa4000fe
:202cdc008000000000000000000000000000000000000000000001428dfff0000000090888
:092cfc0003c00000802df005402a
:202d050000000000000000000000000000000000000000000002000069cf7f0000000017de
:0a2d250023c20000000227c00400d2
:202d2f00000000000000000000000000000000000000000000000266ad00000000009a08cd
:092d4f0003c0000100437e0000f6
:202d58000000000000000000000000000000000000000000000000043feca00000001983f0
:0a2d7800a3c20000a802a5b01200db
:202d82008001000000000000000000000000000000000000000001c3c7cb5000000080008a
:092da20003c000001c2df00540e7
:202dab0000000000000000000000000000000000000000000000003e296d202000005003a1
:0a2dcb00a3c2040000003dc0040094
:202dd500000000000000000000000000000000000000000000000042cceda000000900003a
:092df50003c00001802000000071
:202dfe00000030000000000000000000000000000000000000000000004c80000000800534
:0a2e1e0023c220001402c0000000cf
:202e2800000000000000000000000000000000000000000000000000000000000000800802
:092e480003c20c000000000000b0
:202e51000000000000000000000000000000000000000000000000000000000002803803a4
:0a2e7100a3c220c000e00000000032
:202e7b008000000000000000000000000000000000000000000000001faff00002000903eb
:092e9b001a400a451c01df9800f1
:202ea40000000000000000000000000000000000000000000000000002ef7f00400000104e
:0a2ec400225a00200806acda400094
:202ece00000200000000000000000000000000000400000000000343cd8a4080000000027f
:092eee0040000000002800000073
:202ef700000000020000000000000000000000000000000000000004025e640000000005ec
:0a2f17008402000ac0000000000060
:022f21000000ae
:022f2300110299
:022f25000101a8
:202f270000000000000000000000000000000000000000000000000000000000000000008a
:092f470000000000000000000081
:202f5000000000000000000000000000000000000000000000000000000000000000000061
:0a2f70000000000000000000000057
:202f7a000000000000000000000000000000000000000000000000000000008000000000b7
:092f9a000000000000000000002e
:202fa30000000000000000000000000000000000000000000000000000000000000000000e
:0a2fc3000000000000000000000004
:202fcd000000000000000000000000000000000000000000000000000000000000000000e4
:092fed00000000000000000000db
:202ff6000000000000000000000000000000000000000000000000000000000000000000bb
:0a30160000000000000000000000b0
:203020000000000000080000000000002000000000080000000000002000000000000080c0
:0930400000000000000200000085
:20304900000000000000000000000000000000000000000000000000000000000000000067
:0a306900000000000000000000005d
:2030730000000000000c00000000000030000000000c00000000000030000000000000c005
:0930930000000000000300000031
:20309c00000000000000000000000000000000000000000000000000000000000000000014
:0a30bc00000000000000000000000a
:2030c6000000000000000000000000000000000000000000000000000000000000000000ea
:0930e600000000000000000000e1
:2030ef000000000000000000000000000000000000000000000000000000000000000000c1
:0a310f0000000000000000000000b6
:20311900000000000000000000000000000000000000000000000000000000000000000096
:0931390000000000000000000885
:20314200000000000000000000000000000000000000000000000000000000080000000065
:0a31620000002000000002000080c1
:20316c00000000000008000000000000200000000008000000000000200000000000008073
:09318c0000000000000300000037
:2031950000000000000000000000000000000000000000000000000000000000000000001a
:0a31b500000000000000020000000e
:2031bf000000000000000000000000000000000000000000000000000000000000000000f0
:0931df00000000000000000000e7
:2031e80000002000000000000000000000000000000000000800000000000000000000009f
:0a32080000000000000000000000bc
:2032120000000000000000000000000000000000000000000000000000000000000000009c
:0932320000000000000000000093
:20323b00000000000000000000000000000000000000000000000000000000000000000073
:0a325b000000000000000000000069
:20326500000000000000000000000000000000000000000000000000000000000000000049
:0932850000000000000000000040
:20328e00000000000000000000000000000000000000000000000000000000000000000020
:0a32ae000000000000000000000016
:2032b8000003000000000000000000000000000000000000000000000000000000000000f3
:0932d800000000000000000000ed
:2032e1000000000000000000000000000000000000000000000000000000000000000000cd
:0a33010000000000000000000000c2
:20330b000000000000000000000000000000000000000000000000000000000000000000a2
:09332b0000000000000000000099
:20333400000020000000000000000000000000000000000000000000000000000000000059
:0a335400000000000000000000006f
:20335e0000000000000000000000000000000000000000000000000000000000000000004f
:09337e0000000000000000000046
:20338700000000000000000000000000000000000000000000000000000000000000000026
:0a33a700000000000000000000001c
:2033b1000000000000000000000000000000000000000000000000000000000000000000fc
:0933d100000000000000000000f3
:2033da000000000000000000000000000000000000000000000000000000000000000000d3
:0a33fa0000000000000000000000c9
:203404000000000000000000000000000000000000000000000000000000000000000000a8
:093424000000000000000000009f
:20342d0000000000000000000000000000000000000000000000000000000000000000007f
:0a344d000000000000000000000075
:20345700000000000000000000000000000000000000000000000000000000000000000055
:093477000000000000000000004c
:2034800000002000000000000000000000000000000000000000000000000000000000000c
:0a34a0000000000000000000000022
:2034aa00000000000000000000000000000000000000000000000000000000000000000002
:0934ca00000000000000000002f7
:2034d3000000000000000000000000000000000000000000000000000000000000000000d9
:0a34f30000000000000000000000cf
:2034fd000000000000000000000000000000000000000000000000000000000000000000af
:09351d00000000000000000000a5
:20352600000000000000000000000000000000000000000000000000000000000000000085
:0a354600000000000000000000007b
:20355000000300000000000000000000000000000000000000000000000000000000000058
:0935700000000000000000000052
:20357900000000000000000000000000000000000000000000000000000000000000000032
:0a3599000000000000000000000028
:2035a300000000000000000000000000000000000000000000000000000000000000000008
:0935c300000000000000000000ff
:2035cc000000200000000000000000000000000000000000000000000000000000000000bf
:0a35ec0000000000000000000000d5
:2035f6000000000000000000000000000000000000000000000000000000000000000000b5
:09361600000000000000000200a9
:20361f0000000000000000000000000000000000000000000000000000000000000000008b
:0a363f000000000000000000400041
:20364900000000000000000000000000000000000000000000000000000000000000000061
:0936690000000000000000000058
:20367200000000000000000000000000000000000000000000000000000000000000000038
:0a369200000000000000000000002e
:20369c0000000000000000000000000000000000000000000000000000000000000000000e
:0936bc0000000000000000000005
:2036c5000000000000000000000000000000000000000000000000000000000000000000e5
:0a36e50000000000000000000000db
:2036ef000000000000000000000000000000000000000000000000000000000000000000bb
:09370f00000000000000000000b1
:20371800000020000000000000000000000000000000000008000000000000000000000069
:0a3738000000000000000000000087
:20374200000000000000000000000000000000000000000000000000000000000000000067
:093762000000000000000000005e
:20376b0000000000000000000000000000000000000000000000000000000000000000003e
:0a378b000000000000000000000034
:20379500000000000000000000000000000000000000000000000000000000000000000014
:0937b5000000000000000000000b
:2037be000000000000000000000000000000000000000000000000000000000000000000eb
:0a37de0000000000000000000000e1
:2037e8000001000000000000000000000000000000000000000000000000000000000000c0
:09380800000000000000000000b7
:20381100000000000000000000000000000000000000000000000000000000000000000097
:0a383100000000000000000000008d
:20383b0000000000000000000000000000000000000000000000000000000000000000006d
:09385b0000000000000000000064
:20386400000024000000000000000000000000000000000000000000000000000000000020
:0a388400000000000000000000003a
:20388e0000000000000000000000000000000000000000000000000000000000000000001a
:0938ae0000000000000000080009
:2038b7000000000000000000000000000000000000000000000000000000000000000000f1
:0a38d70000000000000000000000e7
:2038e1000000000000000000000000000000000000000000000000000000000000000000c7
:09390100000000000000000000bd
:20390a00080000000000000000000000000000000000000000000000000000000000000095
:0a392a000000000000000000000093
:20393400000000000000000000000000000000000000000000000000000000000000000073
:093954000000000015e130020042
:20395d000000000000000000700000000000000000000000000000000000000000000000da
:0a397d00000000010282e08a400011
:20398700000000000000000000000000000000000000000000000000080000000000000018
:0939a70000000000000000000017
:2039b000000020000000000000000000000000000000000000000000001080000000000047
:0a39d00000000000000000000000ed
:2039da000000000000000000000000000000000000000000000000000500001400000000b4
:0939fa00000000000000000000c4
:203a0300080000000000000000000000000000000000000000000000000800014000000052
:0a3a23000000000000000000000099
:203a2d0000000000000000000000000000000000000000000000b006a00000000000000023
:093a4d0000000000000000000070
:203a5600000000000000000000000000000000000000000000000b2a78d0000000000000d3
:0a3a76000000000000000000000046
:203a8000000300000000000000000000000000000000000000000000000000000000000023
:093aa00000000000000000080015
:203aa9000000000000000000000000000000000000000000000000000000000000000000fd
:0a3ac90000000000000000000000f3
:203ad30000000000000000000000000000000000000000000000000000000000000cf300d4
:093af3007000000000000000005a
:203afc00000020000000000000000000000000000000000000000000000000000008dfb5ee
:0a3b1c00440000000000000000005b
:203b260000000000000000000000000000000000000000100000000000000000000000006f
:093b460000000000000000020074
:203b4f000000000000000000000000000000000000000002800000000000000000000000d4
:0a3b6f00000000000000000040000c
:203b7900000000000000000000000000000000000000000000000000000800000000002004
:093b990000000000000000000023
:203ba200000000000000000000000000000000000000000000000000000000000000000102
:0a3bc20040000000000000000000b9
:203bcc00000000000000000000000000000000000000000000000000001e000c000000149b
:093bec00000000000000000000d0
:203bf50000000000000000000000000000000000000000000000000000010000c0000000ef
:0a3c150000000000000000000000a5
:203c1f0000000000000000000000000000000000000000000041295fb0010000000000000b
:093c3f000000000000000000007c
:203c48000000200000000000000000000000000000000000080001543d0080000000000022
:0a3c68000000000000000b00000047
:203c720000000000000000000000000000000000000000000050101ef00a000000000000ba
:093c92000000500829dc000009c3
:203c9b0040000000000000000000000000000400000000001000000038010000000000007c
:0a3cbb00000005022800e0000110df
:203cc5000000000000000000000000000000000000000000000028ce1780000002043ec04e
:093ce500000030000000000002a4
:203cee0000000000000000000000000000000000000000005000014f4a0000000000133881
:0a3d0e000000030000000000006048
:203d18000003000000000000000000000000000000000000000020d6b819000000000000c1
:093d38000000000293dd01900a75
:203d4100000000000000000000000000000000000000000000080004dc10f000000000007a
:0a3d610002400800361fd0080100e0
:203d6b00000000000000000000000000000000000000000000000000001e0000000000001a
:093d8b000000001801da801000ac
:203d94000000200000000000000000000000000000000000000000000001000000000000ee
:0a3db400038000003c00df0b00005c
:203dbe0000000000000000000000000000000000000000000041014ea808000000000000a5
:093dde00680000182968181000a3
:203de7000000000000000000000000000000000000000000000a101410b0d00000000000fe
:0a3e0700000000002801e70f000092
:203e110000000000000000000000000000000000000000000010001ee70000000000000478
:093e31003800000000007180005f
:203e3a0000000000000000000000000000000000000000000000000c18d808000000000064
:0a3e5a00040010000000002c00001e
:203e6400000000000000000000000000000000000000000000002176b38100000000000073
:093e84002a80000b8bdd00040014
:203e8d00000000000000000000000000000000000000000000000168dab8c0c0000000009a
:0a3ead0000100000306fe00d20004f
:203eb70040000000000000000000000007810000000000005000012fa98000000100828077
:093ed7000000040014da18b00028
:203ee0000000200000000000000000000008d000000000000000000aea100000000007407f
:0a3f0000000000000001bf0d0000ea
:203f0a0000040000000000000000813ee0000010000000002000003495800014010f1380c4
:093f2a0000000000057b11f0010c
:203f3300080280000000000000004004e9000001000000000500000ed90000010000f04099
:0a3f5300024000200005a08e0010bf
:203f5d004000000000000000000000000000000c0000000000502040971e0088010f12a049
:093f7d0004200000000050a00027
:203f860000c00000000000000000000000000000c00000000000239c1e090000e000f003e2
:0a3fa6004240000000000910000076
:203fb00000010000000000000000000000000000000000000010811eb0190000010f160052
:093fd0000000000801fa18a0002d
:203fd9000000000000000000300000000000000000000000000000042900a000080f0000b4
:0a3ff900000000203c019f0a1800a0
:2040030000000000000000000000000000008000000000002000012ee80b0100010f172093
:094023000000000043ca00840003
:20402c000000240000000000000000000000040000000000000000096a91e0080040f0012f
:0a404c0040000000003fd9102040a2
:20405600000000000000000000000000001e000000000000001122cde7004000810f1794ca
:0940760028000101004b000400c8
:20407f0000000000000000000000000000010000000000000000022c20900200000f0040f1
:0a409f002000000000029000000065
:2040a900000000000000000000000000071e0000000000000000000000000000810f171417
:0940c90000010503f87f0000026c
:2040d2000800000000000000000000000009000000000000000000000000b000000f0040be
:0a40f200000000003fc18100000043
:2040fc0000000000000000000000000003800000000000000020811eb70c0000010f131c60
:09411c00780002097dfa51c0008f
:20412500000000000000000000000000000800000000000000000004efb100000000f0409e
:0a4145000400000017c1091000007b
:20414f00007800000000000000000000000000000000000000002016e8001000010f161470
:09416f006800000010ec80100053
:2041780000042000000000000000000000b0e0000000000008000007e9f0a0000300f000f8
:0a4198002000000000aeef0d000053
:2041a2000000000000000000000000000000001000000000001128cfe0010010010f138051
:0941c200600401228c5800100970
:2041cb0008000000000000000000000000000001000000000000028c300080014000f0005c
:0a41eb000400002028c2000b015060
:2041f50000000000000000000002811cc1000008000000000000011ce188080c010f121670
:0942150028000000000000000078
:20421e00800000000000000000000005e9080000c0000000000000076e0101808040f000a3
:0a423e00040000000000000000086a
:204248000002000000000000000000000000000000000000005128cf88000000010f1280e2
:0942680028000802945d81840025
:2042710000000000000000000000000000000000000000000000028c205000000000f040ff
:0a429100040000202a82f900b800a2
:20429b00000000000000000000000000000e0000000000000010811ce8010000010f170038
:0942bb000000010810ecd980009c
:2042c4000000200000000000000000000001000000000000000000042ef0c0000000f040a7
:0a42e400000100000083e500000067
:2042ee0040000000000000000000000000000800000000030080294e9f001000010f128617
:09430e000010020807c17018003c
:204317000080000000000000000000000000000000000000000801542db8c0000000f00212
:0a4337004000000000b4d088000030
:20434100000000000000000000000000081e0000000000000000000009180000000f1000f6
:094361002800000014fa0080009d
:20436a0008000000000000000000000000310000000000000000000000b1e0000000f00079
:0a438a00000000800003e0100000b6
:2043940040000000000000000000000000000000000000000000a00ec500000080a53e8073
:0943b400020001028c5a00020013
:2043bd00000000000000000020000000000000000000000000004009cf080000000aa0a452
:0a43dd000010000028c20500400097
:2043e70000000000000000000000000000000080000000000000002e8018000000047e549a
:0944070004000004000080010023
:2044100000002000000000000000000000000004000000000000000f4e0000000000273ca8
:0a44300003c0001000240b00000080
:20443a000000000000000000000000000000000000000000005522c61500001450810354d4
:09445a0028004004020000e0000b
:2044630000000000000000000000000000000000000000000000011c29780001000e707488
:0a448300028004000004000018008d
:20448d0000000000000000000000000000008000000000000004014d9000000c42047e4499
:0944ad0060002004000001d400ad
:2044b60000000000000000000000000000000400000000000000017c3f000000c000203c0a
:0a44d600240003000014001a200067
:2044e00000030000000000000000000000000000000000000000801ed70000000004fe54ee
:09450000000000040000000400aa
:2045090001800000000000000000000000000000000000000000222cdd000000000029b904
:0a45290042800000000c00000000ba
:204533000000000000000000000000000000000000000000000000000d0f0000000000202c
:094553000000000400009984142a
:20455c0000002000000000000000000000000000000000000000000000f9e0000000000046
:0a457c0040010000002c099020000f
:20458600000000000000000000000000000000000000000000000000078e00000204fed4a8
:0945a600000000040000001400f4
:2045af0000000000000000000000000000000000000000000000000000080000000025f8c7
:0a45cf0000000000002c0009a0000d
:2045d9000000000000000000000000000000000000000000000000000718000000047a46df
:0945f90060010004020000020848
:204602000000000000000000000000000000000000000000000000000001000000002f7cec
:0a46220020000000000c0000400022
:20462c00000000000000000000000000000000000000000000000000051e00000204fac487
:09464c000400000400000000005d
:204655000000000000000000000000000000000000000000000000000008000000002db858
:0a4675000300000000140000000024
:02467f00000039
:02468100110323
:02468300010133
:20468500000000000000000000000000000000000000000010000000000000000000000005
:0946a5000000000000000000000c
:2046ae000000000000000000000000000000000000000000000000000000000000000000ec
:0a46ce0000000000000000000000e2
:2046d8000000000000000000000000000000000000000f0020000000000000800000000013
:0946f800000200000000000000b7
:20470100000000000000000000000000000000000000000000000000000000000000000098
:0a472100000000000000000000008e
:20472b00000000000000000000000000000000000c00000010000000000000000000000052
:09474b0000000000000000000065
:204754000000000000000000000000000000000000800000000000000000000000000000c5
:0a477400000000000000000000003b
:20477e00000000000008000000000000000000000000000000000000200000000000008073
:09479e0000000000000200000010
:2047a7000000000000000000000000000000000000000000000000000000000000000000f2
:0a47c70000000000000000000000e8
:2047d10000000000000c00000000000030000000000c00000000000030000000000000c090
:0947f100000000000003000000bc
:2047fa0000000000000000000000000000000000000000000000000000000000000000009f
:0a481a000000000000000000000094
:20482400000000000000000000000000000000000000000000000000000000000000000074
:094844000000000000000000006b
:20484d0000000000000000000000000000000000000000000000000000000000000000004b
:0a486d000000000000000000000041
:204877000000000000000000000000000800000000000000000000000a000000000000000f
:0948970000000000000000000018
:2048a0000000000000000000000000000000000800000000020000000000000800000000e6
:0a48c000000020000000000000804e
:2048ca000000000000080000000000002000000000080000000000002000000000000080fe
:0948ea00000000000002000000c3
:2048f300000000000000000000000000002000000000000000000006000000000000180067
:0a491300000000000060000000003a
:20491d0000000000000000000000000000000000000000000000000000000000000000007a
:09493d0000000000000000000071
:20494600000000000000000000000000000000000000000000000000000000000000000051
:0a4966000000000000000000000047
:20497000000000000000000000000000000000000000000000000000000000000000000027
:094990000000000000000000001e
:204999000000000000000000000000000000000000000000000000000000000000000000fe
:0a49b90000000000000000000000f4
:2049c3000000000000000000000000000000000000000000000000000000000000000000d4
:0949e300000000000000000000cb
:2049ec000000000000000000000000000000000000000000000000000000000000000000ab
:0a4a0c0000000000000000000000a0
:204a160000020000000000000000000000000000000000000000000000000000000000007e
:094a360000000000000000000077
:204a3f00000000000000000000000000000000000000000000000000000000000000000057
:0a4a5f00000000000000000000004d
:204a690000000000000000000000000000000000000000000000000000000000000000002d
:094a890000000000000000000024
:204a92000000300000000000000000000000000000000000000000000000000000000000d4
:0a4ab20000000000000000000000fa
:204abc000000000000000000000000000000000000000000000000000000140000000000c6
:094adc00000000000000000000d1
:204ae5000000000000000000000000000000000000000000000000000000000000000000b1
:0a4b050000000000000000000000a6
:204b0f0000000000000000000000000000000000000000000000000000000800000000007e
:094b2f000000000000000000007d
:204b380000000000000000000000000000000000000000000000000000000000000000005d
:0a4b58000000000000000000000053
:204b6200000200000000000000000000000000000000000000000000000000000000000031
:094b82000000000000000000002a
:204b8b0000000000000000000000000000000000000000000000000000000000000000000a
:0a4bab0000000000000000200000e0
:204bb500000000000000000000000000000000000000000000012bc30000000000000000f1
:094bd50000002001603e00800098
:204bde000400000000000000000000000000000000000000000002bdea38000000000000d2
:0a4bfe00000003102b4cb001000072
:204c08008028000000000000000000000000100000000000000000000000000000000000d4
:094c2800000000038dc80000002b
:204c3100000040000000000000000000000000000000000000000000000000000000000023
:0a4c51000000000034c60018000047
:204c5b00080000000000000000000000000000000000000000000000000000000000000031
:094c7b00200000001408000800ec
:204c840004c00000000000000000000000000000000000000000000000000000000000004c
:0a4ca40000000000029c11800000d7
:204cae000000000000000000000000000000000000000000000000000000000000000000e6
:094cce00000000003d6d90c000e3
:204cd7000000000000000000000000000000000000000000000000000000000000000000bd
:0a4cf70000000000a3eea001000081
:204d0100000000000000000000000000000000000000000200000000000000000000000090
:094d210000000000000800000081
:204d2a00000030000000000000000000000000000000000000000000000000000000000039
:0a4d4a0000000000029c9018000019
:204d540000000000000000000000000000000000000000000000000000000000000000023d
:094d740060003000000000a00006
:204d7d000000000000000000000000000000000000000000000000000038000000000001dd
:0a4d9d00c7c00200000001810c00f5
:204da70080000000000000000000000000000000000000000000000000000000000000006c
:094dc700000050015068000001d9
:204dd0000000000000000000000000000000000000000000000000000000000000000000c3
:0a4df00000000400a92c800a001442
:204dfa000002000000000000000000000000000000000000800000000020000020aa00002d
:094e1a0000000000000000a000ef
:204e230000000400000000000000000000000000000000000000000000000000002aa12878
:0a4e4300000000000000001900004c
:204e4d00000000000000000000000000000000000000000000000000000000000000000045
:094e6d00000020017c0a0900008c
:204e76000000000000000000000000000000000000000000000000000000000000100029e3
:0a4e9600c00002012bde110a00002b
:204ea00088000000000000000000000000000000000000000000000c9009000000af07c04f
:094ec000200000000000020000c7
:204ec900000000000000000004000000000000000000000000000201d9001000003a016c32
:0a4ee9000640000000000000000079
:204ef3000000000000000000000000000000000000000000000000169000000000af034007
:094f13000000000314f900000085
:204f1c0000000000000000000000000000000000000000000000000648000000003a016d7f
:0a4f3c00c0000000b1feb018000034
:204f4600800040000000000000000000000000000000000000000000000b010000af03c00d
:094f660020000000000000000022
:204f6f0000000800000000000000000000000000000000000000000000000000003a016c73
:0a4f8f000000000000000000000018
:204f9900000000000000000000000000000020000000000000000000000a000000af0744d4
:094fb90020000000000000b0001f
:204fc20000001000000000000000000000000400000000000000000000001000003a012e42
:0a4fe200064000000000000000007f
:204fec000000000000000000000000000000000000000001000000000000000000af07c42a
:09500c00000000036c0f0804020f
:2050150000000000000000000000000000000000000000000000000000000000003a012e12
:0a5035006200001039c015000020d1
:20503f008000000000000000000000000000000000000000000000000500000000af0340da
:09505f00240040001c390000018e
:205068008000000000000000000000000000000000000000000000000081a000003a013c10
:0a50880000000512015eb5000010e3
:20509200000080000000000400000000000000000000000000000000050a000020af03c0d9
:0950b20000000000280001c0000c
:2050bb0000400000000000000000000000000000000000001000000000d81000003a013c26
:0a50db0000000000028e800b0000b0
:2050e5000000000000000000000000000000000000000000000000000000000000af06c036
:0951050020202000000e088000ab
:20510e0004000000000000000000000000000000000000000000000000000000003a0178ca
:0a512e0060400310005497000000d9
:205138008000000000000000000000000000000000000000000000000000000200af0644dc
:095158002000000000c9009000d5
:2051610000000000000000000000000000000000000000000000000000000014003a016a75
:0a5181000640000004179001000032
:20518b000c0000000000000000000000000000000000000000000027c000180004af02c084
:0951ab00240000000000000000d7
:2051b4000480000000000000000000000000000000000000000000075b00e000003a016872
:0a51d40000000000000000001c00b5
:2051de000002000000000000000000000000000000000000000000000010000000af0240ae
:0951fe0000000000000000b000f8
:205207000000000000000000000000000000000000000000000000000000a000003a017834
:0a522700000000000000000000007d
:205231000040000000000000000000000000000000000000000000000d8a000000af06c40d
:0952510000010000000000a000b3
:20525a000002b000000000000000000000000000000000000000000000799000003a012a14
:0a527a000600000000000001000023
:20528400000000000000000000000000000000000000000000000002a000000000af066c47
:0952a40068500000000000a000a9
:2052ad000000000000000000000000000000000000000000000100057959a000003a013af4
:0a52cd00678000000000058b0c0054
:2052d70000000000000000000000000000000000000000000000000da010000000af02c089
:0952f7000000500000005000000e
:205300000000000000000000000000000000000000000000000000414958a0c0003a0138d8
:0a532000000004000000081a00005d
:20532a000002000000000000000000000000000000000000800000000500000000af126caf
:09534a0028000000034f00800060
:2053530000000000000000000000000000000000000000000000000000800000003a053a41
:0a53730000000000201cb001000043
:20537d000000000000000000000000000000000000000000000000000000000000000014fc
:09539d0000000000000000000007
:2053a600000000000000000000000000000000000000000000000000007000000000000275
:0a53c60000000000000000000000dd
:2053d0008000000000000000000000000000000000000000000001c2e0100000000000008a
:0953f000400000000000d000089c
:2053f900000000000000000000000000000000000000000000010a297a0180000000000065
:0a5419000600000000000000004043
:205423000000000000000000000000000000000000000000000006f6b0000000001853d47e
:0954430000000000000000000060
:20544c0000000000000000000000000000000000000000000000009fe00000000002480671
:0a546c000002000000000000000034
:20547600000000000000000000000000000000000000000000000000000d0000008b035427
:09549600240000000000000000e9
:20549f00000000000000000000000000000000000000000000000000000010000420a5a470
:0a54bf0000000000000000000000e3
:2054c900000000000000000000000000000000000000000000200300010a000000f50a8016
:0954e90020000000000050a000aa
:2054f200000000000000000000000000000000000000000000030031c0801000000a033ccd
:0a5512000040000000000d9b0000a7
:20551c00000000000000000000000000000000000000000000003d7f8d0000000000000026
:09553c0000000000000000000066
:205545000000000000000000000000000000000000000000000002f75b00000000000000f2
:0a556500000000000000003a000002
:20556f00800000000000000000000000000000000000000000000000000a00100000000082
:09558f000001400003db000000f4
:205598000000000000000000000000000000000000000000000000000000100140000000a2
:0a55b800000005000414900000003c
:2055c2000000000000000000000000000000000000000000000000000000000000f50b8049
:0955e20000000800036a500000fb
:2055eb0000000000000000000000000000000000000000000000000000000000000a57e857
:0a560b00028000000065bd80000071
:2056150000000000000000000000000000000000000000000000000000000400000000026f
:095635000000000000000000006c
:20563e00000000000000000000000000000000c0000000000000000000000000000000018b
:0a565e00c00000000000000004007e
:2056680080000000000000000000000000000000000000000000000000000000000000049e
:0956880000000000000010000009
:205691000000000000000000000000000000000000000000000000000030000000000002c7
:0a56b100000000000000081a0000cd
:2056bb00000000000000034000000000000000000000000000000000030000000000000089
:0956db00000000000000000000c6
:2056e4000000000000000004000000000000000000000000000000000000000000000000a2
:0a570400000000000000010a000090
:20570e000002000000000000000000000000000000000000000000000000008000000bc02e
:09572e0040000000141000000806
:205737000000000000000038000000000000000000000000000000000000001400805734fb
:0a575700020000c1014dc00801402e
:205761000000000000000000000000000000000000000007000001430000000000000002db
:09578100000000000000109288f5
:20578a00000030000000000000000000000000000000000000000014ee00000000000000cd
:0a57aa00e0000000000000000140d4
:2057b400000000000000030000000000000000000000000000223fc000000000180c0bc0c2
:0957d40040000000142e000a0040
:2057dd000000000000000000000000000000000000000000000043fc000000000468d764c6
:0a57fd0007000010a2ddc00040000c
:2058070080000080036800000000000000000000000000000000000000000002900a040076
:0958270040004020015b00e0019b
:2058300000000000013a000000000000000000000000000000000000000000000000a56810
:0a58500002800401006690000010c1
:20585a00000200000002c000000000000000000000000000800000000000000000000000ea
:09587a003c000000000070d000a9
:205883000000000000002000000000000000000000000000000000000000000000000000e5
:0a58a30000400000000008010000b2
:2058ad00000000000000000040000000000000000000000000000042b08000000000000029
:0958cd00000000000410110000ad
:2058d600000000000000000002000000000000000000000000010288781800000000000095
:0a58f600000000100056c00a000078
:20590000000000000000000000000000000000000000000000000040d08e000000000002e7
:09592000000200025948000510c4
:20592900000000000000000000000000000000000000000000010204ce38c0000000000091
:0a594900400000001a400000a0809a
:20595300000000000000000000000000000000000000000000000002b988e02000000000f1
:0959730000000000000000b0007b
:20597c000000000000000000000000000000000000000000000100114ff0100000000000aa
:0a599c000000000000000001000000
:2059a600000200000000000000000000000000000000000000042842c100000000000000b0
:0959c600000000100379500000fc
:2059cf000000000000000000000000000000000000000000000112886bf1e00000000000e1
:0a59ef00000000000426dd800d001a
:2059f900060000000000000200000000000000000000000000000282d108000000010c001c
:095a190068000000000009000013
:205a22000000300000000000000000000000000000000000000000144070100024201761a4
:0a5a42006f8000000000018c0000de
:205a4c00000000000000000000000000000000000000000200000003b588000d00fe0a8063
:095a6c0040003000000000a6001b
:205a75000000000000000000000000000000000000000000000101007d501000e505e1a4c3
:0a5a9500478002000000050aac0083
:205a9f00000000000000000000000000000000000000000000001403050f001000005a56fc
:095abf0000005001400f900000ae
:205ac800000000000000000000000000000000000000000000000140fe5010c100010da2ae
:0a5ae80060000400000e9b9a0140cc
:205af200000200000000000000000000000001400000000000000001950f000000000000ac
:095b12003400000029cb00f180f1
:205b1b00000000000000000000000000000000000000000000000a816c80000000000001f2
:0a5b3b0046c000020075800014004f
:205b4500000000000000000000000000000000000000000000050041e108000000019c0074
:095b650000000001007a10840028
:205b6e000000000000000000000000000000000000000000000f0014dd80108000201131a5
:0a5b8e00600000000035801e0000da
:205b98000000000000000000000000000000000000000000000011c0d00000000002ba4050
:095bb800400000000d5d700000ca
:205bc10000000000000000000000000000000000000000000005122cc1008000002011808f
:0a5be1000380000000b4e98000001a
:205beb000000000000000000000000000000000000000000000020e6ff00000010a30c04d2
:095c0b000000000015db10000090
:205c1400000000000000000000000000000000000000000000000004cf800014040a37f2d2
:0a5c3400000000002166e980000076
:205c3e00000200000000000000000000000000000000000000001080ed0f00000002ba44b8
:095c5e0000010000007a50d000a2
:205c67000000000000000000000000000000000000000000000102040001900000001180f4
:0a5c870000000001041fa508000042
:205c9100000000000000000000000000000000000000000000000f000d00000000000e4089
:095cb10000000801542ab80000ab
:205cba000000300000000000000000000000000000000000000160f00000020000005320d4
:0a5cda0000000001aa9c0d18000054
:205ce400000000000000000020000000000000000000000000000141d088000c00000002d8
:095d0400005030438ede318000b6
:205d0d000400000000000000010000000000000000000000000002bd5978900080000001d0
:0a5d2d00c000020030edd1190000a3
:205d37008000000000000000000000000000000000000000000020e6f08000140000000042
:095d5700000150016c2dd0f00197
:205d6000000000000000000000000000000000000000000000000804cf50000100000000f7
:0a5d8000e00005500957a0180014b8
:205d8a000002000000000000000000000000000000000000800011a7e100000000000034aa
:095daa00000008803c00008000ac
:205db3000400000000000000000000000000000000000000000008117e980000000000009d
:0a5dd300e000002503c400000000fa
:025ddd000000c4
:035ddf0062003f20
:035de200720080cc
:025de5001100ab
:035de70082000037
:025dea000103b3
:085dec000000000000000000af
:085df4000000000000000000a7
:085dfc0000000000000000009f
:085e0400000000000000000096
:0261ec000000b1
:0361ee00820080ac
:0261f1000103a8
:0861f3000000000000000000a4
:0861fb0000000000000000009c
:08620300000000000000000093
:08620b0000000000000000008b
:0265f3000000a6
:0265f500110192
:0365f7008200001f
:0265fa0001039b
:0865fc00000000000000000097
:0866040000000000000000008e
:08660c00000000000000000086
:0866140000000000000000007e
:0269fc00000099
:0369fe0082008094
:026a010001038f
:086a030000000000000000008b
:086a0b00000000000000000083
:086a130000000000000000007b
:086a1b00000000000000000073
:026e030000008d
:026e0500110278
:036e070082000006
:026e0a00010382
:086e0c0000000000000000007e
:086e1400000000000000000076
:086e1c0000000000000000006e
:086e2400000000000000000066
:02720c00000080
:03720e008200807b
:02721100010377
:08721300000000000000000073
:08721b0000000000000000006b
:08722300000000000000000063
:08722b0000000000000000005b
:02761300000075
:0276150011035f
:03761700820000ee
:02761a0001036a
:08761c00000000000000000066
:0876240000000000000000005e
:08762c00000000000000000056
:0876340000000000000000004e
:027a1c00000068
:037a1e0082008063
:027a210001035f
:087a230000000000000000005b
:087a2b00000000000000000053
:087a330000000000000000004b
:087a3b00000000000000000043
:027e230000005d
:017e2500223a
:027e260026a78d
:027e2800010651
:00000001FF
