:02000000ff00ff
:080002004c6174746963650030
:17000a00694345637562653220323032302e31322e32373934330071
:15002100506172743a2069434534304c50314b2d514e38340034
:1b003600446174653a204a756e20313320323032322031373a30323a35350078
:0200510000ffae
:040053007eaa997e6a
:02005700510056
:0200590001059f
:03005b0092000010
:03005e0062014bf1
:030061007200909a
:0300640082000017
:02006700110086
:02006900010193
:20006b00000000000000000000000000000000000000000000000000000000000000000075
:09008b00000000800000000000ec
:2000940000000000000000000000000000000000000000000000000000000000000000004c
:0a00b4000000000000000000000042
:2000be00000000000000000000000000000000000000000000000000000000001000000012
:0900de00000000400000000000d9
:2000e7000000000000000000000000000000000000000000000000000000000000000000f9
:0a01070000000000000000000000ee
:200111000000000000000000000000000000000000000000000000000000000000000000ce
:0901310000000080000001000044
:20013a000000000000000000000000000000000000000000000000000000000000000000a5
:0a015a00000000000000001000008b
:200164000000000000040000000000001000000000000040000000001000000000000040d7
:0901840000000000000100000071
:20018d00000000000000000000000000000000000000000000000000000000000000000052
:0a01ad000000000000000000000048
:2001b70000000000000c00000000000030000000000000c00000000030000000000000c03c
:0901d7000000000000020000001d
:2001e0000000000000000000000000000000000000000000000000000000000000000000ff
:0a02000000000000000000000000f4
:20020a000000000000000000000000000000000000000000000000000000000000000000d4
:09022a00000000000000000000cb
:200233000000000000000000000000000000000000000000000000000000000000000000ab
:0a0253000000000000300000000071
:20025d00000000000000000000000000000000000000000000000000000000000000000081
:09027d0000000000000000000078
:20028600000000000000000000000000000000000000000000004000000000000100000017
:0a02a600000000040000000000004a
:2002b00000000000000400000000000010000000000000400000000010000000000000408a
:0902d00000000000000100000024
:2002d900000000000000000000000000000000000000000000000000000000000000000005
:0a02f90000000000000000000000fb
:200303000000000000000000000000000000000000000000000000000000000000000000da
:09032300000000000000000000d1
:20032c00000020000000000000000000000000000040000000000000000000000000000051
:0a034c0000000000000000000000a7
:20035600000000000000000000000000000000000000000000000000000000000000000087
:090376000000000000000000007e
:20037f0000000000000000000000000000000000000000000000000000000000000000005e
:0a039f000000000000000000000054
:2003a900000000000000000000000000000000000000000000000000000000000000000034
:0903c9000000000000000000002b
:2003d20000000000000000000000000000000000000000000000000000000000000000000b
:0a03f2000000000000000000000001
:2003fc000003000000000000000000000000000000000000000000000000000000000000de
:09041c00000000000000000000d7
:200425000000000000000000000000000000000000000000000000000000000000000000b7
:0a04450000000000000000000000ad
:20044f0000000000000000000000000000000000000000000000000000000000000000008d
:09046f0000000000000000000084
:20047800000020000000000000000000000000000000000000000000000000000000000044
:0a049800000000000000000000005a
:2004a20000000000000000000000000000000000000000000000000000000000000000003a
:0904c20000000000000000000031
:2004cb00000000000000000000000000000000000000000000000000000000000000000011
:0a04eb000000000000000000000007
:2004f5000000000000000000000000000000000000000000000000000000000000000000e7
:09051500000000000000000000dd
:20051e000000000000000000000000000000000000000000000000000000000000000000bd
:0a053e0000000000000000000000b3
:20054800000000000000000000000000000000000000000000000000000000000000000093
:090568000000000000000000008a
:2005710000000000000000000000000000000000000000000000000000000000000000006a
:0a0591000000000000000000000060
:20059b00400000000000000000000000000000000000000000000000000000000000000000
:0905bb0000000000000000000037
:2005c4000000200000000000000000000000000000000000000000000000000000000000f7
:0a05e400000000000000000000000d
:2005ee000000000000000000000000000000000000000000000000000000000000000000ed
:09060e00000000000000000000e3
:200617000800000000000000000000000000000000000000000000000000000000000000bb
:0a06370000000000000000000000b9
:20064100480000000000000000000000000000000000000000000000000000000000000051
:0906610000000000000000000090
:20066a0000c0000000000000000000000000000000000000000000000000000000000000b0
:0a068a000000000000000000000066
:2006940000070000000000000000000000000000000000000000000000000000000000003f
:0906b4000000000000000000003d
:2006bd000002c000000000000000000000000000000000000000000000000000000000005b
:0a06dd000000000000000000000013
:2006e7000000000000000000000000000000000000000000000000000000000000000000f3
:09070700000000000000000000e9
:200710000000200000000000000000000000000000000000000000000000000000000000a9
:0a07300000000000000000000000bf
:20073a0000000000000000000000000000000000000000000000000000000000000000009f
:09075a0000000000000000000096
:20076300000000000000000000000000000000000000000000000000000000000000000076
:0a078300000000000000000000006c
:20078d0000000000000000000000000000000000000000000000000000000000000000004c
:0907ad0000000000000000000043
:2007b600000000000000000000000000000000000000000000000000000000000000000023
:0a07d6000000000000000000000019
:2007e0000000000000000000000000000000000000000000000000000000000000000000f9
:09080000000000000000000000ef
:200809000000000000000000000000000000000000000000000000000000000000000000cf
:0a08290000000000000000000000c5
:200833000000000000000000000000000000000000000000000000000000000000000000a5
:090853000000000000000000009c
:20085c0000002000000000000000000000000000004000000000000000000000000000001c
:0a087c000000000000000000000072
:20088600000000000000000000000000000000000000000000000000000000000000000052
:0908a60000000000000000000049
:2008af00080000000000000000000000000000000000000000000000000000000000000021
:0a08cf00000000000000000000001f
:2008d9000000000000000000000000000000000000000000000000000000000000000000ff
:0908f900000000000000000000f6
:200902000000000000000000000000000000000000000000000000000000000000000000d5
:0a09220000000000000000000000cb
:20092c000003000000000000000000000000000000000000000000000000000000000000a8
:09094c00000000000000000000a2
:20095500000000000000000000000000000000000000000000000000000000000000000082
:0a0975000000000000000000000078
:20097f00000000000000000000000000000000000000000000000000000000000000000058
:09099f000000000000000000004f
:2009a80000002000000000000000000000000000000000000000000000000000000000000f
:0a09c8000000000000000000000025
:2009d200000000000000000000000000000000000000000000000000000000000000000005
:0909f200000000000000000000fc
:2009fb000000000000000000000000000000000000000000000000000000000000000000dc
:0a0a1b0000000000000000000000d1
:200a25000000000000000000000000000000000000000000000000000000000000000000b1
:090a4500000000000000000000a8
:200a4e00000000000000000000000000000000000000000000000000000000000000000088
:0a0a6e00000000000000000000007e
:200a780000000000000000000000000000000000000000000000000000000000000000005e
:090a980000000000000000000055
:200aa100000000000000000000000000000000000000000000000000000000000000000035
:0a0ac100000000000000000000002b
:200acb0000000000000000000000000000000000000000000000000000000000000000000b
:090aeb0000000000000000000002
:200af4000000200000000000000000000000000000000000000000000000000000000000c2
:0a0b140000000000000000000000d7
:200b1e000000000000000000000000000000000000000000000000000000000000000000b7
:090b3e00000000000000000000ae
:200b4700080000000000000000000000000000000000000000000000000000000000000086
:0a0b67000000000000000000000084
:200b7100000000000000000000000000000000000000000000000000000000000000000064
:090b91000000000000000000005b
:200b9a0000000000000000000000000000000000000000000000000000000000000000003b
:0a0bba000000000000000000000031
:200bc40000030000000000000000000000000000000000000000000000000000000000000e
:090be4000000000000021ca00149
:200bed000000000000000000000000000000000000000000000000000000000000000000e8
:0a0c0d000000000000000d050000cb
:200c17000000000000000000000000000000000000000000000000000000000000000000bd
:090c3700000000000000000000b4
:200c4000000020000000000000000000000000000000000000000000000000000000000074
:0a0c6000000000000000000000008a
:200c6a0000000000000000000000000000000000000000000000000000000000000000006a
:090c8a00000000001e040000003f
:200c9300000000000000000000000000000000000000000000000000000000000000000041
:0a0cb30000000000002340000000d4
:200cbd00000000000000000000000000000000000000000000000000000000000000000017
:090cdd000000000000000000000e
:200ce6000000000000000000000000000000000000000000000000000000000000000000ee
:0a0d060000000000000000000000e3
:200d10000000000000000000000000000000000000000000000000000000000000000000c3
:090d3000000000000000000000ba
:200d390000000000000000000000000000000000000000000000000000000000000000009a
:0a0d59000000000000000000000090
:200d6300000000000000000000000000000000000000000000000000000000000000003040
:090d83000020000000665a040083
:200d8c00000000000000000000000000000000000040000000000000000000000000000007
:0a0dac003800000002422fe00000b2
:200db600000000000000000000000000000000000000000000000000000000028000007a21
:090dd6003c2002002603cc004081
:200ddf000800040000000000000000000000000000000000000000000000000008000000e0
:0a0dff0083c0002001400c00f0004a
:200e0900000000000000000000000000000000000000000000000000000000000000007257
:090e29003c200000166d4042401f
:200e32000000000000000000000000000000000000000000000000000000000000000000a0
:0a0e520083c0000000028e924000f1
:200e5c00000100000000000000000000000000000000000000000000000000000000197ae2
:090e7c003c20000016046c00404b
:200e85000000000020000000000000000000000000000000000000000000000000000080ad
:0a0ea50003c000000002a400f000ea
:200eaf000000000000000000000000000000000000000000000000000000000000059a3252
:090ecf003c20000000027c8000c0
:200ed800000020000000000000000000000000000000000000000000000000000000f000ea
:0a0ef80083c0000001401d900000bf
:200f0200440400000000000000000000000000000000000000000000000000000000013a4c
:090f22003c20000014674c004063
:200f2b0000c38000000000000000000000000000000000000000000000000000000000a0c3
:0a0f4b0083c0000000020600f00061
:200f5500000000000000000000000000000000000000000000000000000000000007015a1a
:090f75003c30000006001f124090
:200f7e0008000000000000000000000000000000000000000000000000000000000008a0a3
:0a0f9e00803c000000000da21000ce
:200fa80040000000000000000000e0000000000000000000000000000000000000059a5a10
:090fc8003c30000014074c00400d
:200fd100000000000000000000000000000000000000000000000000000000000000000000
:0a0ff100803c000000022c00f0001c
:200ffb000000000000000000000000004000000000000000000002001cc05c0000000072ea
:09101b003c30000000034a08000b
:2010240000002000000000000000003c38000000000000000000003c02dff50800000000fe
:0a104400003c100000003da0000079
:20104e000000000000000000000003e00000000000000000002000003c805c029000007263
:09106e003c3000000068000000a5
:2010770000000000000000000000001c30000000000000000002002402c0f5100880000098
:0a109700003c000000000000000013
:2010a10000000000000000000000000040000000000000000000000654805c00000019524e
:0910c1003c300000366cd8080038
:2010ca000000000000000000000000002c000000000000000000000022e0f5100000008053
:0a10ea00803c00000142adc0000090
:2010f40000030000000000000000000040000000000000000000006074805c000001815215
:091114003c3000007607ef0800f2
:20111d0000000000000000000000003c38000000000000000000000022e0f51000000080b7
:0a113d00803c00000942bde0000004
:2011470000000000000000000000000035a8000000000000000000035e805e000008007aea
:091167003c3000001400000000ff
:201170000000200000000000000000000278000000000000000000003ec0f5000000700062
:0a119000003c00000362c0000000f4
:20119a0000000000000000000000000000000000000000000000000236805c800300005a44
:0911ba003c3000000000000000c0
:2011c30000000000000000000000000000000000000000000000000042c0f5000000000015
:0a11e300003c0000000000000000c6
:2011ed0000000000000000000000000000000000000000000000026316805e000009805aa6
:09120d003c30000000297b0800c0
:2012160000000000000000000000000000000000000000000000000402e0f50000001000cd
:0a123600803c0000000435a0000019
:201240000000000000000000000000002690800000000000004002063e805d000008187a5b
:091260003c300001546000000064
:2012690000000000000000000000000001580000000000000004000402e0f500000010001d
:0a128900803c00000b66c00000006e
:201293000000000000000000000000000000000000000000000000001c805d0000000072d0
:0912b3003c3000000000000000c6
:2012bc0000002000000000000000003c3c00000000400000000000002240f50400000000df
:0a12dc00003c1000000000000000bc
:2012e6000000000000000000000002004480800000000000002000001c805c028000007296
:091306003c30000000680000000a
:20130f00000000000000000000000034395e000000000000000a000003c0f5100800000019
:0a132f00003c000000000000000078
:2013390000000000000000000000020075d0100000000000000001e654805c0000001952bb
:091359003c30008000006c08002b
:201362000000000000000000000000343869000000000000000000022260f500400000805d
:0a138200803c000000002ec00008af
:20138c00000300000000000000000002bda80220000000000000086054805c000001815249
:0913ac003c3000000000000000cc
:2013b50000000000000000000000001401500000000000000000000023e0f5100008008023
:0a13d500803c000000000000000052
:2013df000000000000000000000000000000000000000000000000001e805e000008007a70
:0913ff003c300000140000000065
:201408000000200000000000000000000000000000000000000000000240f50000007000fd
:0a142800003c00000362c000000059
:201432000000000000000000000001c000000000000000000000020016805e000000005a89
:091452003c300000140000000011
:20145b0000000000000000000000000200000000000000000000002c03c0f500000000008b
:0a147b00003c00000022c000000049
:2014850000000000000000000000006000000000000000000000026216805d000009805aad
:0914a5003c300000002afe0800a2
:2014ae000000000000000000000000040000000000000000000000042660f500000010008b
:0a14ce00803c000000042cf0000830
:2014d800000000000000000000000000000000000000000000c002001c0008000008187a74
:0914f8003c30000000000000007f
:20150100000000000000000000000000000000000000000000040004002000000000100092
:0a152100803c0000034000000000c1
:20152b004000000000000000000000000000000000000000000000001485560000000072ff
:09154b003c300000140000000017
:201554000000200000000000000000000000000000000000000000000000550400000000fe
:0a157400003c100000200000000001
:20157e00000000000000000000000000000000000000000000200000000000028000005259
:09159e003c30020020287d85206c
:2015a700c800000000000000000000000000000000000000000a000000000000280000002a
:0a15c700003c00a000442c9000043a
:2015d100400000000000000000000000000000000000000000c003e000000000000199522b
:0915f1003c30000004005cb5026e
:2015fa0000000000000000000000000000000000000200000004003e0000000000180080f5
:0a161a00803c000000203c0100109d
:201624000003000000000000000000000000000000000000000000000000000000018052d0
:091644003c300000000000000031
:20164d0000000000000000000000000000000000000000000000000000000000000000007d
:0a166d00803c0000000000000000b7
:20167700000000000000000000000000000000000000000000000000000000000000007ad9
:091697003c30000000700d3340ee
:2016a0000000200000000000000000000000000000000000000000002800000001000000e1
:0a16c000003c00000004018330002c
:2016ca00000000000000000000000000000000000000000000000000000000002020005a66
:0916ea003c300000140000000077
:2016f3000000000800000000000000000000000000000000000000000000000001b400001a
:0a171300003c00000340000000004d
:20171d0004000000000000000000000000000000000000000000000000000000000f007a1f
:09173d001550000000200000001e
:20174600080000000000000000000000000000000000000000000000000000000000180063
:0a17660081540000000400000000a0
:20177000000000000000000000000000000000000000000000c001e00000000000080100af
:0917900000000000000000000050
:201799000000000000000000000000000000000000000000000c0002000000000000108092
:0a17b9000000000000000000000026
:0217c300000024
:0217c500110110
:0217c70001011e
:2017c9000000020000000000000800000000000020000000000000000000000000000000d6
:0917e900000000000000000000f7
:2017f2000000000000000000000000000000000000000000000000000000000000000000d7
:0a18120000000000000000000000cc
:20181c00000001000000000000040000000000001000000000040000000000000000000093
:09183c00000000000000000000a3
:20184500000000000000000000000000000000000000000000000000000000000000000083
:0a1865000000000000000000000079
:20186f00000002002000080000080000000000002002000080000000000000000000000085
:09188f0000000000000000000050
:2018980000000000034000c0000000000000000000002c000c0000000000000000000000f5
:0a18b8000000000000000000000026
:2018c20000000000000400000000000010000000000000400004000010000000000000405e
:0918e200000000000001000000fc
:2018eb000000000000000000000000000000000000000000000000000000000000000000dd
:0a190b0000000000000000000000d2
:2019150000000000000c00000000000030000000000000c00000000020000000000000c0d6
:09193500000000000003000000a6
:20193e00000000000000000000000000000000000000000000000000000000000000000089
:0a195e00000000000000000000007f
:2019680000000000000000000000000000000000000000000000000000000000000000005f
:0919880000000000000000000056
:20199100000000000000000000000000000000000000000000000000000000000000000036
:0a19b100000000000000000000002c
:2019bb0000000000000000000000000000000000000000000000000000000000000000000c
:0919db0000000000000000000003
:2019e4000000000000000000000000000000000001000000000040000000000001000000a1
:0a1a040000000004000000000000d4
:201a0e00000000000004000000000000100000000000004000000000100000000000004014
:091a2e00000000000001000000ae
:201a370000000000000000000000000000000000000000000000000000040000000000008b
:0a1a5700060000000000000000007f
:201a6100000000000000000000000000000000000000000000000000000000000000000065
:091a81000000000000000000005c
:201a8a0000000000000000000000000000000000000000000000000000000000000000003c
:0a1aaa000000000000000000000032
:201ab400000000000000000000000000000000000000000000000000000000000000000012
:091ad40000000000000000000009
:201add000000000000000000000000000000000000000000000000000000000000000000e9
:0a1afd0000000000000000000000df
:201b07000000000000000000000000000000000000000000000000000000000000000000be
:091b2700000000000000000000b5
:201b3000000000000000000000000000000000000000000000000000000000000000000095
:0a1b5000000000000000000000008b
:201b5a00000200000000000000000000000000000000000000000000000000000000000069
:091b7a0000000000000000000062
:201b8300000000000000000000000000000000000000000000000000000000000000000042
:0a1ba3000000000000000000000038
:201bad00000000000000000000000000000000000000000000000000000000000000000018
:091bcd000000000000000000000f
:201bd6000000300000000000000000000000000000000000000000000000000000000000bf
:0a1bf60000000000000000000000e5
:201c0000000000000000000000000000000000000000000000000000000000000080000044
:091c2000000000000000000000bb
:201c290000000000000000000000000000000000000000000000000000000000000000009b
:0a1c49000000000000000000000091
:201c5300000000000000000000000000000000000000000000000000000000000000000071
:091c730000000000000000000068
:201c7c00000000000000000000000000000000000000000000000000000000000000000048
:0a1c9c00000000000010000000002e
:201ca60000020000000000000000000000000000000000000000000000000000000000001c
:091cc60000000000000000000015
:201ccf000000000000000000000000000000000000000000000000000000000000000000f5
:0a1cef0000000000000000000000eb
:201cf9000000000000000000000000000000000000000000000000000000000300000000c8
:091d190000000000003af0ca00cd
:201d2200000000000000000000000000000000000000000000000000000000001000000091
:0a1d42000000000001c024a054209e
:201d4c00000000000000000000000000000000000000000000000000000000000000000077
:091d6c00000000000001f050002d
:201d75000000000000000000000000000000000000000000000000000000000000007800d6
:0a1d95000000000000002fef5000d6
:201d9f00000000000000000000000000000000000000000000000000000000000000000024
:091dbf000000000000000000001b
:201dc8000000000000000000000000000000000000000000000000000000000000000000fb
:0a1de80000000000000600000000eb
:201df2000002000000000000000000000000000000000000000000000000000000000000cf
:091e120000000000000340db00a9
:201e1b000000000000000000000000000000000000000000000000000000000000000000a7
:0a1e3b00000000000000000e7028f7
:201e450000000000000000000000000000000000000000000000000000000000000000007d
:091e650000000000000010300133
:201e6e000000300000000000000000000000000000000000000000000000000000003000f4
:0a1e8e0000000000000000a3032084
:201e98000000000000000000000000000000000000000000000000000000000100810000a8
:091eb8000000000000427eaf00b2
:201ec100000000000000000000000000000000000000000000000000000000001000800071
:0a1ee1000000000000070ffbd00016
:201eeb00000000000000000000000000000000000000000000000000000000028000000055
:091f0b00000002000000000000cb
:201f1400000000000000000000000000000000000000000000000000000000002800000085
:0a1f34000000002000000000000083
:201f3e00000200000000000000000000000000000400000000000000000000000000080075
:091f5e00154100000428000000f8
:201f6700000000000000000000000000000000000000000000000000000000000000000555
:0a1f870021550000000000000000da
:201f9100000000000000000000000000000000000000400000000140070002010001080894
:091fb100000000a0000000000087
:201fba0000000000000000000000000000000000000000000000002000688022300080032a
:0a1fda008002000410000000000067
:201fe4000000000000000000000000000000000000000000000001402c8000000001009857
:092004003d400000002000000036
:20200d0000000000000000000000000000000000000000000000000002ee20000000980506
:0a202d00a0170000000040000000b2
:2020370000000000000000000000000000000000000000000000000280000000000f0cf0fc
:092057003d4000000038000000cb
:20206000000000000000000000000000000000000000000000000016040000000000801da9
:0a208000a01700001000400000004f
:20208a000002000000000000000000000000000000000000000001428000000000070090da
:0920aa003d40000000003050012f
:2020b3000000000000000000000000000000000000000000000000206c00000000008007fa
:0a20d300a017000000001d850000aa
:2020dd0000000000000000000000000000000000000000000000000000000000000008f8e3
:0920fd003d4000000078000000e5
:20210600000030000000000000000000000000000000000000000000000000000000181d54
:0a21260020170000000280000000f6
:202130000828040000000000000000000000000000000000000000000000000000000898bb
:092150003d400000000370850011
:202159000480404000000000000000000000000000000000000000000000000000000195cc
:0a2179002017000000433da454208d
:20218300800000000000000000000000000000000000000000000002aee00000800000f0bc
:0921a3003d400a000043f0af00ca
:2021ac0000000000000000000000000000000000000000000000000000cd80002800000f8f
:0a21cc0020170020000295c050000b
:2021d6000002000000000000000000000000000000000000000002428000000000000d9086
:0921f6003d410000000370af0040
:2021ff0004000000000000000000000000000000000000000000002600000000000000177f
:0a221f002017000000001d8a500087
:2022290000000000000000000000000000000000018000000000000000000001000100b85a
:092249003d40008000000000008f
:2022520000000000000000000000000000000000000000000000400068000000300081878c
:0a227200a0170000000000000000ab
:20227c00800000000000000000000000000000000000000000000002adf00000000500d846
:09229c003d400020003800000064
:2022a500000000000000000000000000000000000000000000000e1406ed80000000180d5f
:0a22c500a017000000004000000018
:2022cf00000000000000828000000000000000000000000000000142830f5000000300b015
:0922ef003d400000002f70d308ef
:2022f8000000000000001628002000000000000000000000000000360568f5080000800543
:0a231800a0170000000044ac3020c4
:2023220000000000000000000000000000000000000000000000000000000000000510d0b6
:092342003d4000001c20c0040015
:20234b00000000000000000000000000000000000000000000000016680000000000008f65
:0a236b00a017000002c200c080208d
:2023750000000000000000000000000000000000000000000000000000000000000008b888
:092395003d4000001c42da7f000b
:20239e0000002000000000000000000000000000000000000000000070000000000018f582
:0a23be00201700000203879ff000c3
:2023c8000000000000000000000000000000000000000000000000000ee00000000188d8a6
:0923e8003d400001647cc0ff00cf
:2023f10000000000000000000000000000000000000000000000000003cc08000000f99d5f
:0a24110020170000020644a5f000a9
:20241b0080000000f00000000000000000000000000000000000000000000002800000b0ff
:09243b003d4000003c2cfd2e0088
:20244400000000000800000000000000000000000000000000000000000000000800000761
:0a2464002017000000004ecbd2004c
:20246e000200000000a000000000c00000000000040000000000000280000000010000d392
:09248e003d400000022350af00a4
:20249700000000000001000000000000000000000000000000000000000000000000000d17
:0a24b70038170000006060e5f01027
:2024c100000000000000000000000000000000000000000000000007c00000000000000034
:0924e10000000c001603d00a40b3
:2024ea0000000000000000000000000000000000000000000000000030000000003800006a
:0a250a00000000c0036600a05400aa
:20251400800000200000000000000000000000000000000000000000000000000380000084
:0925340000000000002800000076
:20253d0000000000000000000000000000000000000000000000000000000000000000007e
:0a255d00000000000006400000002e
:202567000000000010000000000000000000000000000000000000003d0af000000000000d
:092587000000000000000000004b
:20259000000000000000000000000000000000000000000000000000021a5f0902000000a5
:0a25b000000000040000000000001d
:2025ba00000000000000000000000000000000000000000000000000000000000000000001
:0925da00000000000030000000c8
:2025e3000000000000000000000000000000000000000000000000000000000000300000a8
:0a26030000000000000000000000cd
:20260d000000000000000000000000000000000000000000000000040000000000000000a9
:09262d00000000000001d00a4089
:202636000000200000000000000000000000000000000000000000007800000000000000ec
:0a265600000000000002a0a05400e4
:202660000c00000070a97000800000000000000000000000000000003d050098000000006b
:092680000000040002434fe200d7
:2026890004000000000152e000400000000000000000000000000000021ea00000000000fa
:0a26a900000000c000e707e4200075
:2026b300803000000000000000000000000000000000000000000000000000000000000057
:0926d300000002000001dfa5086f
:2026dc000000000000000000000000000000000000000000000000000000000000000000de
:0a26fc000000002001e035ab5000a3
:202706000002000000e00000000000000000000000000000000000000000000000000000d1
:09272600000000002443fd5800ee
:20272f00040000000001000000000000000000000000000000000000000000000000000085
:0a274f0000000008000724e6400027
:20275900000000000000000000000000000000000000000000000000000000000000000060
:092779000000040000281f040008
:2027820004000000000000000000000000000000000000000000000000000000000000a093
:0a27a200000000c004c05fc040004a
:2027ac0080000000000000000000000000000000000000000000000000000000000000008d
:0927cc000000000000697e5800c5
:2027d50000000000000000000000000000000000000000000000000000000000000000a044
:0a27f50000000000006277f64000cb
:2027ff000c00000000000000000000000000000000000000000000000000000000000000ae
:09281f00000000000c2b50a04049
:20282800048000000000000000000000000000000000000000000c000000000000005800a8
:0a28480000000000020061c504005a
:20285200000200000000000000000000000000000000000000000000000000000000000064
:092872000000000000037e580084
:20287b0000070000000000000000000000000000000000000000000000000000000001a095
:0a289b0000000000016016f6400086
:2028a500000000000000000000000000000000000000000000000000000000000000000013
:0928c50000000000003bd00a40b5
:2028ce000007300000000000000000000000000000000000000000000000000000000000b3
:0a28ee0000000000006001805400ab
:2028f8000800000000000000000000000000000000000000000000000000000000000000b8
:0929180000000c4000000000006a
:20292100044000000000000000000000000000000000000000000000000000000000000052
:0a294100000000c0000600000000c6
:20294b008000000000000000000000000000000000000000000000000000000000000000ec
:09296b00000002000038d00a400f
:20297400400000000000000000000000000000000000000000000c000000000000000000f7
:0a2994000000002000000180540044
:20299e0000020000000000000000000000000000040000000000000000000000000000f71c
:0929be00c00040000401ee5800c5
:2029c700040000000000000000000000000000000000000000000000000000000000000be1
:0a29e700b0200000000016d64000ea
:2029f1000000000000000000000000000000000000000000000001c0000000000280083447
:092a110014000c0000000000009c
:202a1a00040000000000000000000000000000000000000000000000000000000000701117
:0a2a3a003344484000038000000010
:202a44008000000000000000000000000000000000000000000000000000000000008a0068
:092a64000f000000003800000022
:202a6d0000000000000000000000000000000000000000000000001c0000000000007010ad
:0a2a8d0000f0480000000000000007
:202a97000c4000000000000000000000000000000000000000000240040c300000000094bd
:092ab700368000000070000000f0
:202ac0000406000000000000000000000000000000000000000000006840e743000019c140
:0a2ae00022004800014780000000ba
:202aea000002000000d00000000000000000000000000000000001c004ac700000000856bb
:092b0a009400000004016d740048
:202b13000000000000010000000000000000000000000000000000000259c2000000181b51
:0a2b3300bb440000000005da0000ba
:202b3d00000000000000403c0000000000000000000000000000000000000000000000d626
:092b5d00604000002c00d008408b
:202b66000000300000000303c0000000000000000000000000000006000000000000518181
:0a2b8600a38900000342a1a044202f
:202b90000c0000000000000000000000000000000000000000002020150aa00000000cbc52
:092bb00022800c000027f0000057
:202bb900044000000000000000000000000000000000000000000016001c550000005807d2
:0a2bd900aa15084001423dc8022081
:202be300800000000000000000000000000000000000000000200140000a0002800110f65e
:092c03002840020014015b0000ee
:202c0c000006800000000000000000000000000000000000000a001401dca0202800d185e9
:0a2c2c006d4400a00000268800009f
:202c3600000200000000000000000000000000000000000000000160020a000000030a7c86
:092c56002a801000002800000093
:202c5f00040000000000000000000000000000000000000000000006785ea000000001993b
:0a2c7f00f2940000000600000000bf
:202c89000000000000000000000000000000000000000000000000000eaa700000000800fb
:092ca900000000003c6d50000029
:202cb200000000000000000000000000000000000000000000000000016e0140000000f062
:0a2cd200000000000002bde012380f
:202cdc00800000000000000000000000000000000000000000000240340c008400010077da
:092cfc00e8080000022b50000062
:202d0500000000000000000000000000000000000000000000000006016ce0020800180336
:0a2d2500ff45000001c055ea02005e
:202d2f00000000000000000000000000000000000000000000000000160050000000803668
:092d4f00d088100002245e00206f
:202d5800400000000000000000000000000000000000000000000000016e00000000100f8d
:0a2d78007b898000014625f0100859
:202d820040004000000000000000000000000000000000000000000034018000000f00d815
:092da2003c4000000c26ea54003c
:202dab0000000000000000000000000000000000000000000000001603403c020000000f62
:0a2dcb00e3e8080000603cca400085
:202dd500000000000000000000000000000000000000000000008a400100500000009a9099
:092df5002bc0000e14297bff0025
:202dfe0000003000100000000000000000000000000000000000014661da0500000070b8c6
:0a2e1e00617c0000000067ffe00087
:202e280000000000000000000000a0000000000000000000000003401cb5b00000000e0414
:092e48003cc000002c42d05200f5
:202e5100000000000000000000000000000000000000000000000000604fe70100000010ba
:0a2e71006bcc080001438489102097
:202e7b008000000000000000000000000000000000200000002000000caf500080038070f9
:092e9b00028210001c22e000106c
:202ea40000000000000000000000000000000000000100000002000001dba440280050c013
:0a2ec40068142000036065810020ff
:202ece000002000000000000000000000000000004000000000003c01cb80000000000f651
:092eee00100000003c6fecf10043
:202ef70000000000000000000000000000000000000000000000003c004f00000000000828
:0a2f17002e0040000342b7cfa000d7
:022f21000000ae
:022f2300110299
:022f25000101a8
:202f270000000000000000000000000000000000000000000000000000000000000000008a
:092f470000000000000000000081
:202f5000000000000000000000000000000000000000000000000000000000000000000061
:0a2f70000000000000000000000057
:202f7a000000000000000000000000000000000000000000000000000000008000000000b7
:092f9a000000000000000000002e
:202fa30000000000000000000000000000000000000000000000000000000000000000000e
:0a2fc3000000000000000000000004
:202fcd000000000000000000000000000000000000000000000000000000000000000000e4
:092fed00000000000000000000db
:202ff6000000000000000000000000000000000000000000000000000000000000000000bb
:0a30160000000000000000000000b0
:203020000000000000080000000000002000000000080000000000002000000000000080c0
:0930400000000000000200000085
:20304900000000000000000000000000000000000000000000000000000000000000000067
:0a306900000000000000000000005d
:2030730000000000000c00000000000030000000000c00000000000030000000000000c005
:0930930000000000000300000031
:20309c00000000000000000000000000000000000000000000000000000000000000000014
:0a30bc00000000000000000000000a
:2030c6000000000000000000000000000000000000000000000000000000000000000000ea
:0930e600000000000000000008d9
:2030ef000000000000000000000000000000000000000000000000000000000000000000c1
:0a310f0000000000000000000000b6
:20311900000000000000000000000000000000000000000000000000000000000000000096
:093139000000000000000000008d
:20314200000000000000000000000000000000000000000000000000000000080000000065
:0a31620000002000000002000080c1
:20316c00000000000008000000000000200000000008000000000000200000000000008073
:09318c0000000000000300000037
:2031950000000000000000000000000000000000000000000000000000000000000000001a
:0a31b500000000000000020000000e
:2031bf000000000000000000000000000000000000000000000000000000000000000000f0
:0931df00000000000000000000e7
:2031e80000002000000000000000000000000000000000000800000000000000000000009f
:0a32080000000000000000000000bc
:2032120000000000000000000000000000000000000000000000000000000000000000009c
:0932320000000000000000000093
:20323b00000000000000000000000000000000000000000000000000000000000000000073
:0a325b000000000000000000000069
:20326500000000000000000000000000000000000000000000000000000000000000000049
:0932850000000000000000000040
:20328e00000000000000000000000000000000000000000000000000000000000000000020
:0a32ae000000000000000000000016
:2032b8000003000000000000000000000000000000000000000000000000000000000000f3
:0932d800000000000000000000ed
:2032e1000000000000000000000000000000000000000000000000000000000000000000cd
:0a33010000000000000000000000c2
:20330b000000000000000000000000000000000000000000000000000000000000000000a2
:09332b0000000000000000000099
:20333400000020000000000000000000000000000000000000000000000000000000000059
:0a335400000000000000000000006f
:20335e0000000000000000000000000000000000000000000000000000000000000000004f
:09337e0000000000000000000046
:20338700000000000000000000000000000000000000000000000000000000000000000026
:0a33a700000000000000000000001c
:2033b1000000000000000000000000000000000000000000000000000000000000000000fc
:0933d100000000000000000000f3
:2033da000000000000000000000000000000000000000000000000000000000000000000d3
:0a33fa0000000000000000000000c9
:203404000000000000000000000000000000000000000000000000000000000000000000a8
:093424000000000000000000009f
:20342d0000000000000000000000000000000000000000000000000000000000000000007f
:0a344d000000000000000000000075
:20345700000000000000000000000000000000000000000000000000000000000000000055
:093477000000000000000000004c
:2034800000002000000000000000000000000000000000000000000000000000000000000c
:0a34a0000000000000000000000022
:2034aa00000000000000000000000000000000000000000000000000000000000000000002
:0934ca00000000000000000000f9
:2034d3000000000000000000000000000000000000000000000000000000000000000000d9
:0a34f30000000000000000001800b7
:2034fd000000000000000000000000000000000000000000000000000000000000000000af
:09351d00000000000000000000a5
:20352600000000000000000000000000000000000000000000000000000000000000000085
:0a354600000000000000000000007b
:20355000000300000000000000000000000000000000000000000000000000000000000058
:093570000000000000000008004a
:20357900000000000000000000000000000000000000000000000000000000000000000032
:0a3599000000000000000000000028
:2035a300000000000000000000000000000000000000000000000000000000000000000008
:0935c300000000000000000000ff
:2035cc000000200000000000000000000000000000000000000000000000000000000000bf
:0a35ec0000000000000000000000d5
:2035f600000000000000000000000000000000000000000000000000000000200000000095
:09361600000000000000000000ab
:20361f0000000000000000000000000000000000000000000000000000000000000000008b
:0a363f000000000000000000000081
:20364900000000000000000000000000000000000000000000000000000000000000000061
:0936690000000000000000000058
:20367200000000000000000000000000000000000000000000000000000000000000000038
:0a369200000000000000000000002e
:20369c0000000000000000000000000000000000000000000000000000000000000000000e
:0936bc0000000000000000000005
:2036c5000000000000000000000000000000000000000000000000000000000000000000e5
:0a36e50000000000000000000000db
:2036ef000000000000000000000000000000000000000000000000000000000000000000bb
:09370f00000000000000000000b1
:20371800000020000000000000000000000000000000000008000000000000000000000069
:0a3738000000000000000000000087
:20374200000000000000000000000000000000000000000000000000000000000000000067
:093762000000000000000000005e
:20376b0000000000000000000000000000000000000000000000000000000000000000003e
:0a378b000000000000000000000034
:20379500000000000000000000000000000000000000000000000000000000000000000014
:0937b5000000000000000000000b
:2037be000000000000000000000000000000000000000000000000000000000000000000eb
:0a37de0000000000000000000000e1
:2037e8000001000000000000000000000000000000000000000000000000000000000000c0
:09380800000000000000000000b7
:20381100000000000000000030000000000000000000000000000000000000000000000067
:0a3831000000000000000000180075
:20383b0000000000000000000000000000000000000000000000000000000000000000006d
:09385b0000000000000000000064
:20386400000024000000000000000000000000000000000000000000000000000000000020
:0a388400000000000000000000003a
:20388e0000000000000000000000000000000000000000000000000000000000000000001a
:0938ae0000000000000000080009
:2038b7000000000000000000000000000000000000000000000000000000000000000000f1
:0a38d70000000000000000000000e7
:2038e1000000000000000000000000000000000000000000000000000000000000000000c7
:09390100000000000000000000bd
:20390a00080000000000000000000000000000000000000000000000000000000000000095
:0a392a000000000000000000000093
:20393400000000000000000000000000000000000000000000000000000000000000000073
:0939540000000000000000020068
:20395d0000000000000000000000000000000000000000000000000000000000000000004a
:0a397d000000000000000000400000
:20398700000000000000000000000000000000000000000000000000000000000000000020
:0939a70000000000000000000017
:2039b0000000200000000000000000000000000000000000000000000000000000000000d7
:0a39d00000000000000000000000ed
:2039da000000000000000000000000000000000000000000000000000000000000000000cd
:0939fa00000000000000000000c4
:203a030008000000000000000000000000000000000000000000000000000000000000009b
:0a3a23000000000000000000180081
:203a2d00000000000000000000000000000000000000000000000000000000000000000079
:093a4d0000000000000000000070
:203a5600000000000000000000000000000000000000000000000000000000000000000050
:0a3a76000000000000000000000046
:203a8000000300000000000000000000000000000000000000000000000000000000000023
:093aa0000000000000000000001d
:203aa9000000000000000000000000000000000000000000000000000000000000000000fd
:0a3ac90000000000000000000000f3
:203ad3000000000000000000000000000000000000000000000000000000000000000000d3
:093af300000000000000000000ca
:203afc0000002000000000000000000000000000000000000000000000000000000000008a
:0a3b1c00000000000000000000009f
:203b260000000000000000000000000000000000000000000000000000000000000000007f
:093b460000000000000000040072
:203b4f00000000000000000000000000000000000000000000000000000000000000000056
:0a3b6f000000000000000000a000ac
:203b790000000000000000000000000000000000000000000000000000000000000000002c
:093b990000000000000000000023
:203ba200000000000000000000000000000000000000000000000000000000000000000003
:0a3bc20000000000000000000000f9
:203bcc000000000000000000000000000000000000000000000000000000000000000000d9
:093bec00000000000000000000d0
:203bf5000000000000000000000000000000000000000000000000000000000000000000b0
:0a3c150000000000000000000000a5
:203c1f00000000000000000000000000000000000000000000000000000000000000000085
:093c3f0000000004020000000076
:203c4800000020000000000000000000000000000000000008000000000000000000000034
:0a3c6800000000100004000000003e
:203c7200000000000000000000000000000000000000000000000000000000000000000032
:093c92000000000400000011c84c
:203c9b00000000000000000000000000000000000000000000000000000000000000000009
:0a3cbb00000000000014000a0100e0
:203cc5000000000000000000000000000000000000000000000000000000000000000000df
:093ce500000000040000001000c2
:203cee000000000000000000000000000000000000000000000000000000000000000000b6
:0a3d0e0000000000000c000a000095
:203d1800000300000000000000000000000000000000000000000000000000000000000088
:093d38000000000402000000007c
:203d4100000000000000000000000000000000000000000000000000000000000000000062
:0a3d610000000000003c000000001c
:203d6b00000000000000000000000000000000000000000000000000000000000000000038
:093d8b00000000040000500000db
:203d94000000200000000000000000000000000000000000000000000000000000000000ef
:0a3db40000000000002c0d8b000041
:203dbe000000000000000000000000000000000000000000000000000020000000000000c5
:093dde0000000004000001c00017
:203de7000000000000000000000000000000000000000000000000000000000000000000bc
:0a3e070000000000002c0010000075
:203e1100000000000000000000000000000000000000000000000000000000000000000091
:093e310000000004020000000082
:203e3a00000000000000000000000000000000000000000000000000000000000000000068
:0a3e5a0000000000001c0000000042
:203e640000000000000000000000000000000000000000000000000000000000000000003e
:093e840000000004020001c0006e
:203e8d00000000000000000000000000000000000000000000000000000000000000000015
:0a3ead0000000000000c0d000000f2
:203eb70040000000000000000000000000000000000000000000001ed800000000023bc0b8
:093ed700240000103c400000c072
:203ee000000020000000000000000000000000000000000000000100ffb00000000005bf2e
:0a3f000047c0000803c000000000e5
:203f0a000000000000000000000000000000000000000000001028d5a180001440a33a80b8
:093f2a000000400000000000014d
:203f330008000000000000000000000000000000000000000000428c1090e001400a30405d
:0a3f53000000040000000000181434
:203f5d0040000000000000000000000000000000000000000000001ed00e000840017a063f
:093f7d0028003000000000e400ff
:203f8600000000000000000000000000000000000000000000000103ff000000a00000b8c0
:0a3fa60004000200000000002000eb
:203fb0000001000000000000000000000000000000000000009028d5c580400002207ac082
:093fd000040000000000000400e0
:203fd90000000000000000000000000000000000000000000000028c00000a00000007b475
:0a3ff90002000000000000000000bc
:2040030000000000000000000000000000000000000000000000801ed701000002007f4066
:0940230000000000000000100084
:20402c00000024000000000000000000000000000000000000000103ff00d00000004f7cb2
:0a404c004000000000000008000022
:2040560000000000000000000000000000000000000000000000001f900100000000fbc4db
:09407600000002097cde000600d6
:20407f00000000000000000000000000000000000000000000000012ef008000000407f4a1
:0a409f002200000017c00000c0005e
:2040a9000000000000000000000000000000000000000000001022c6050e0000c08b580445
:0940c9006c000000000000000082
:2040d20008000000000000000000000000000000000000000000011c2a09000000047034ce
:0a40f20023c00000000000000000e1
:2040fc0000000000000000000000000000000000000000000000801f9380000002207a64f2
:09411c0004000000000001800015
:20412500000000000000000070000000000000000000000040000022fe98b000000007f566
:0a41450063400000000000000000cd
:20414f0000000000000000000000000000000000000000000000002ce800000001008300b8
:09416f006800000081dd18000069
:20417800000020000000000000000000000000000000000008000022dd10008000000f0061
:0a419800000000000004c009000050
:2041a2000000000000000000500000000000000000000000005028d480000c14010f12801f
:0941c200000001028dc080000123
:2041cb0048000000000000000000000000000000000000000000028c10000001000f0000de
:0a41eb000000000014c0970000104f
:2041f50000000000000000000000000000000000000000000000802ce01c000e01699006f4
:0942150028000010424a78100054
:20421e00800000000000000000000000000000000000000000000022dd000140c0096d008a
:0a423e00200000000e26b088000cde
:20424800002a00000000000000000000000000000000000000002955b5001c00010f12a417
:09426800000000080ae8000080d3
:204271000004000000000000000000000000000000000000010201541bd80000000f00428d
:0a42910040000000000ce0001800df
:20429b00000000000000000000000000000000000000000000000000080b0000010f16804a
:0942bb003800000801cf001400d6
:2042c4000000200000000000000000000000000000000000000000000031e000100f00404a
:0a42e400000000000206c00c2000dc
:2042ee0048000000000000000000000000000000000000002000000000004000016910008e
:09430e0000000000000001a40001
:2043170000c00000000000000000000000000000000000000500000000700a0000096100dd
:0a433700000000000000000f00006d
:204341000000000000000000000000000000000000000000000000000f00000001691000d3
:0943610028000000000050f000eb
:20436a0008000000000000000000000000000000000000000000000000b00000000967000b
:0a438a00000000000000051e000006
:2043940040000000000000000000000000000000000000000000000000000000010f179c06
:0943b400280008080bc8000000f5
:2043bd0000000000000000000000000000000000000000000200000000000000000f0000cf
:0a43dd0000000000001ee00f0000c9
:2043e700000000000000000000000000000000000000000000000026880b0000010f1206d5
:094407002800000000000200c0c2
:20441000000020000000000000000000000000000000000000020202cb71a000020f004039
:0a443000240000000000000000005e
:20443a000000000000000000000000000000000000000000201028cec00a0114010f1294a7
:09445a006c00004286cb81e08079
:2044630000000000000000000000000000000000000000000500028c10010401400f000041
:0a448300220000001444db0a0000d0
:20448d00000000000000000000000000000000000000000000408026850a0008010f16006c
:0944ad0060000000000000800026
:2044b600000000000000000000000000000000000000000000000202cb090000800f00007f
:0a44d60004000000000000100000c8
:2044e0000003000000000000000000000000000000000000000080b4b000000001699016c5
:0945000000000000000000018031
:20450900000000000000000000000000000000000000000000000002d80000000009690046
:0a4529000380000000000000000005
:20453300000000000000000000000000000000000000000010000007c8000000010f121453
:094553002800000001d9800000dd
:20455c000000200000000000000000000000000000000000000002015b120000000f0000a0
:0a457c0000000000021e970e000070
:204586000000000000000000000000000000000000000000001028cee9810000010f1680ff
:0945a600000001128cd811a000e4
:2045af0000000000000000000000000000000000000000000000428c1098d010000f004047
:0a45cf000000000028c20080000078
:2045d900000000000000000000000000000000000000000000008806818e040000aa1680e1
:0945f9000000000000f9808000c0
:2046020000800000000000000000000000000000000000000000000348010000010aa00021
:0a46220000000000021c950a0000d1
:20462c00000000000000000000013fc000000000000000000000001490001c0000001f800f
:09464c00280001028cc0000000ee
:204655000000000000000000000003fc0000000000000000000002006800000000008b3021
:0a4675000000000014c2e000000085
:02467f00000039
:02468100110323
:02468300010133
:20468500000000000000000000000000000000000000000010000000000000000000000005
:0946a5000000000000000000000c
:2046ae000000000000000000000000000000000000000000000000000000000000000000ec
:0a46ce0000000000000000000000e2
:2046d800000000000000000000000000000000000000000020000000000000800000000022
:0946f800000200000000000000b7
:20470100000000000000000000000000000000000000000000000000000000000000000098
:0a472100000000000000000000008e
:20472b0000000000000000000000000000000000000000001000000000000000000000005e
:09474b0000000000000000000065
:204754000000000000000000000000000000000000c0000000000000000000000000000085
:0a477400000000000000000000003b
:20477e00000000000008000000000000000000000000000000000000200000000000008073
:09479e0000000000000200000010
:2047a7000000000000000000000000000000000000000000000000000000000000000000f2
:0a47c70000000000000000000000e8
:2047d10000000000000c00000000000030000000000c00000000000030000000000000c090
:0947f100000000000003000000bc
:2047fa0000000000000000000000000000000000000000000000000000000000000000009f
:0a481a000000000000000000000094
:20482400000000000000000000000000000000000000000000000000000000000000000074
:094844000000000000000000006b
:20484d0000000000000000000000000000000000000000000000000000000000000000004b
:0a486d000000000000000000000041
:204877000000000000000000000000000a00008000001c000000000000000000000000007b
:0948970000000000000000000018
:2048a0000000000000000000000000000020000800000100020000000020000800000000a5
:0a48c000000020000000000000804e
:2048ca000000000000080000000000002000000000080000000000002000000000000080fe
:0948ea00000000000002000000c3
:2048f300000000000020000000000000000000000180000000000000800000000000020082
:0a491300000000000000000000009a
:20491d000000000000000000000000000000000000000000000000000000a00000000000da
:09493d0000000000000000000071
:2049460000000000000000000000000000000000000000000000000000000400000000004d
:0a4966000000000000000000000047
:20497000000000000000000000000000000000000000000000000000000000000000000027
:094990000000000000000001001d
:204999000000000000000000000000000000000000000000000000000000000000000000fe
:0a49b90000000000000000000000f4
:2049c3000000000000000000000000000000000000000000000000000000000000000000d4
:0949e300000000000000000000cb
:2049ec000000000000000000000000000000000000000000000000000000000000000000ab
:0a4a0c0000000000000000000000a0
:204a160000020000000000000000000000000000000000000000000000000000000000007e
:094a360000000000000000000077
:204a3f00000000000000000000000000000000000000000000000000000000000000000057
:0a4a5f00000000000000000000004d
:204a690000000000000000000000000000002000000000000000000000000000000000000d
:094a890000000000000000000024
:204a92000000300000000000000000000000040000000000000000000000000000000000d0
:0a4ab20000000000000000000000fa
:204abc000000000000000000000000000000000000000000000000000000000000000000da
:094adc00000000000000000000d1
:204ae5000000000000000000000000000000000000000000000000000000000000000000b1
:0a4b050000000000000000000000a6
:204b0f00000000000000000000000000000000000000000000000000000000000000000086
:094b2f000000000000000000007d
:204b380000000000000000000000000000000000000000000000000000000000000000005d
:0a4b58000000000000000000000053
:204b6200000200000000000000000000000000000000000000000000000000000000000031
:094b82000000000000000000002a
:204b8b0000000000000000000000000000000000000000000000000000000000000000000a
:0a4bab000000000000000000000000
:204bb5000000000000000000000000000000000000000000000000000000000000000000e0
:094bd500000000000000000004d3
:204bde000400000000000000000000000000000000000000000000000000000000000000b3
:0a4bfe0000000000000000000000ad
:204c080080000000000000000000000000000000000000000000000000000000000000000c
:094c280000000000000000000083
:204c3100000000000000000000000000000000000000000000000000000000000000000063
:0a4c51000000000000000000000059
:204c5b000c000000000000000000000000000000000000000000000000000000000000002d
:094c7b0000000000000000000030
:204c840004000000000000000000000000000000000000000000000000000000000000000c
:0a4ca4000000000000000000000006
:204cae000000000000000000000000000000000000000000000000000000000000000000e6
:094cce00000000000000000000dd
:204cd7000000000000000000000000000000000000000000000000000000000000000000bd
:0a4cf70000000000000000000000b3
:204d0100000000000000000000000000000000000000000000000000000000000000000092
:094d210000000000000000000089
:204d2a00000030000000000000000000000000000000000000000000000000000000000039
:0a4d4a00000000000000000000005f
:204d540000000000000000000000000000000000000000000000000000000000000000003f
:094d740000000000000000000036
:204d7d00000000000000000000000000000000000000000000000000000000000000000016
:0a4d9d00000000000000000000000c
:204da70080400000000000000000000000000000000000000000000000000000000000002c
:094dc700000000000000000000e3
:204dd000000288000000000000000000000000000000000000000000000000000000000039
:0a4df00000000000000000000000b9
:204dfa00000200000000000000000000000000000000000080000000000000000000000017
:094e1a000000000000000000008f
:204e230000000000000000000000000000000000000000000000000000000000000000006f
:0a4e43000000000000000000000065
:204e4d00000000000000000000000000000000000000000000000000000000000000000045
:094e6d00000000000000900000ac
:204e760000000000000000000000000000000000000000000000000000000000000000001c
:0a4e96000000000000000000000012
:204ea000800000000000000000000000000000000000000000000000000000000000000072
:094ec000000000000000000000e9
:204ec9000000000000000000000000000000000000000000000000000000000000000000c9
:0a4ee90000000000000000000000bf
:204ef30000000000000000000000000000000000000000000000000000000000000000009f
:094f130000000040c02b0000006a
:204f1c00000000000000000000000000000000000000000000000000000000000000000075
:0a4f3c00000000101c15800040006a
:204f460000014000000000000000000000000000000000000000000000000000000000000a
:094f6600000000002830300000ba
:204f6f0000000800000000000000000000000000000000000000000000000010000000000a
:0a4f8f00000000000287e0000000af
:204f99000000000000000000000000000000000000000000000000000000000000000000f8
:094fb90000000002bd6900a00027
:204fc2000000100000000000000000000000000000000000000000000000000000000000bf
:0a4fe2000000000013edb00a00000b
:204fec000000000000000000000000000000000000000001000000000000000000000000a4
:09500c000000000000007000002b
:2050150000000000000000000000000000000000000000000000000000000000000000007b
:0a50350000080000000001800000e8
:20503f00800000000000000050000000000000000000000000000000000000000000000081
:09505f0000000000000000e00068
:20506800000000000000000000000000000000000000000000000000000000000000000028
:0a508800000000000000038000009b
:20509200800000000000000008000000000000000000000000000000000000000000000076
:0950b200000000000000000000f5
:2050bb00000000000000000000800000000000000000000000000000000000000000000055
:0a50db0000000000000000000000cb
:2050e500000000000000000000000000000000000000001000000000000000000027d7009d
:0951050060003048142d00800008
:20510e008400000000000000000000000000000000000000800000000000000000003774d2
:0a512e0003a0030082960019000898
:20513800800000000000000000000000000000000000000000000000000000000210d38270
:09515800640000022df9000002c0
:20516100000000000000000000000000000000000000000005000000000000000062078040
:0a5181006640000010b6c0000000f8
:20518b000c30000000000000000000000000000000000000000000000000000000000004c4
:0951ab004200000862cb00000084
:2051b400044000000000000000000000000000000000000070000000000000000000000225
:0a51d4000200000089001000100026
:2051de000002000000000000000000000000000000000000000000000000000000000004ab
:0951fe0024000009402a00000011
:20520700000000000000000000000000000000000000000000000000000000000000000285
:0a52270000400000a80c1100040074
:20523100000000000000000000000000000000000000000000000000000000000027df0057
:09525100000000011ddd50000009
:20525a00000030000000000000000000000000000000000000000000000000000000373499
:0a527a000002000010b6850a0000d3
:20528400000000000000000000000000000000000000000000000000000000000a10d3ee2f
:0952a400000020000000000800d9
:2052ad008000000000000000000000000000000000000000000000000000000000220782b6
:0a52cd00e6070200000000000008e0
:2052d70000000000000000000000000000000000000000000000000000000000020007802e
:0952f7003c004000000000f00141
:205300000000000000000000000000000000000000000000000000000000000000a0a32c1e
:0a532000000004000000000100502e
:20532a0000020000000000000000000000000000000000008000000000000000001b12bcf8
:09534a003c000000000070c000ee
:205353000000000000000000000000000000000000000000000000000000000000003f7289
:0a53730000400000000000010000ef
:20537d00000000000000000000000000000000000000000000000000000000000000000010
:09539d0024003041540a00000014
:2053a6000000000000000000000000000000000000000000000000000000000000000000e7
:0a53c600004002002a8400000c00e1
:2053d00080000000000000000000000000000000000000000000000000000000000000003d
:0953f000000000025a4000000018
:2053f900000000000000000000000000000000000000000000000000000000000000000094
:0a541900000000205a6400000000ab
:20542300000000000000000000000000000000000000000000000000000000000000000069
:09544300240000025a40000000a0
:20544c00000000000000000000000000000000000000000000000000000000000000000040
:0a546c00004000205a440500000033
:20547600000000000000000000000000000000000000000000000000000000000250073c81
:09549600400000025a4000a00091
:20549f00000000000000000000000000000000000000000000000000000000000020036e5c
:0a54bf00020000005a44050000003e
:2054c90000000000000000000000000000000000000000000000000000000000001d569cb4
:0954e900200000025ac00000007e
:2054f20000000000000000000000000000000000000000000000000000000000000053e463
:0a55120007c000005a44000000002a
:20551c0000000000000000000000000000000000000000000000000000000000002eb2404f
:09553c0020002002584000d000bc
:2055450000000000000000000000000000000000000000000000000000000000004057ecc3
:0a556500038003005a440001000017
:20556f00800000000000000000000000000000000000000000000000000000000000002c70
:09558f00000050025ac0d00000d7
:205598000000000000000000000000000000000000000000000000000000000c00000002e5
:0a55b800000004005a640000000027
:2055c2000000000000000000000000000000000000000000000000000000000000000000c9
:0955e2000000008258c058a0141a
:2055eb000000000000000000000000000000000000000000000000000000000000000000a0
:0a560b00000000005a440d01208049
:20561500000000000000000000000000000000000000000000000000000000000000000075
:09563500000030425ac000900050
:20563e0000000000000000000000000000000000000000000000000000000000000000004c
:0a565e00000002005a4400010000a1
:20566800800000000000000000000000000000000000000000000000001000000000000290
:0956880000000003c01000000046
:20569100004000000000000000000000000000000000000000000000003880000000000001
:0a56b1004000000043c5a500000002
:2056bb000000000000000000000000000000000000000000000000000000000000000000cf
:0956db002800004259c000000043
:2056e4000000000000000000000000000000000000000000000000000000000000000000a6
:0a570400004000005a64000000009d
:20570e000002000000000000000000000000000000000000000003dd9010000000000000f9
:09572e00000000025bc000000055
:2057370000000000000000000000000000000000000000000000101c6a008000000000003c
:0a575700000000005a4401000000a9
:20576100000000000000000000000000000000000000000000030003c00a00000000000058
:0957810040000043c0005000800c
:20578a00000030000000000000000000000000000000000000020015ca00000000000000ee
:0a57aa000380000443c488000000df
:2057b4000000000000000000000000000000000000000000000000000300000000000004ce
:0957d40040000002584000a00052
:2057dd0000000000000000000000000000000000000000000000000000d0000000000000dc
:0a57fd00078000005a6400012c0030
:205807008000000000000000000000000000000000000000000000000000000002c016c069
:0958270000005202594050a0009b
:205830000000000000000000000000000000000000000000000000000000a000012c53b880
:0a585000000004005a4400010000ab
:20585a0000020000000000000000000000000000000000008000029d9b0000000000000072
:09587a0000000100024000e00002
:205883000000000000000000000000000000000000000000000010096a8000000000000002
:0a58a3000600000040200000000095
:2058ad00000000000000000000000000000000000000000000002402a0800080000096146b
:0958cd00028000000000b9040093
:2058d600c000000000000000000000000000000000000000000101414c7000000020852628
:0a58f60000100000000009982c0cbf
:20590000000000000000000000000000000000000000000000643040b01000000020d240c1
:0959200000000001483d180000e0
:205929000000000000000000000000000000000000000000000522046900e0000005256858
:0a594900638000102884a98000008c
:205953000000000000000000000000000000000000000000008001420b00000010e703c0ac
:09597300000000006c2000018816
:20597c00000000000000000000000000000000000000000000024014d8800000040810241d
:0a599c006000001009dc000081002b
:2059a600000200000000000000000000000000000000000500002644d10d000000400680cc
:0959c6000000000170301008809f
:2059cf0000000000000000000000000000000000000000000002499a00018000040001a0ad
:0a59ef00000000101704e800040097
:2059f900000000000000000000000000000000000000000000001580c30c000000690000c1
:095a190020000002802b000000b7
:205a2200000030000000000000000000000000000000000000010295681180000406958084
:0a5a420006400000001f8000000075
:205a4c0000000000000000000000000000000000000000020000282ef30d0000008b0c0249
:095a6c006000300a006f500000d8
:205a7500c000000000000000000000000000000000000000000000837b3810000508b3f952
:0a5a95006640020090341b9c01489b
:205a9f00000000000000000000000000000000000000000000001481c008001400009600e0
:095abf0040005003cc000080817e
:205ac800400000000000000000000000000000000000000000010a9d6800b00140008524d4
:0a5ae800060005503cc6000108103e
:205af2000002000000000000000000000000000000000000000000aff10800000040f6862e
:095b1200206002011c7f08e00084
:205b1b000000000000000000000000000000000000000000000000035b80b000002001a219
:0a5b3b0060400000109e93810c00f2
:205b4500000000000000000000000000000000000000000000002906c080000000530a4034
:095b6500001000000000700000b7
:205b6e00c000000000000000000000000000000000000000000009014f380000040a338401
:0a5b8e006008000000000018000885
:205b980000000000000003000000000000000000000000000000009cb08000000008db80bb
:095bb800010000000000d1000012
:205bc1000000000000000c0400000000000000000000000000000a88e878800000000170d1
:0a5be10046800000000000180000dc
:205beb000000000007e4000000000000000000000000001040e428c10d000000000000166f
:095c0b000000000843efb00000a6
:205c1400000000040176c0000000000000000000000000028201028c780180000000000029
:0a5c340066800000881618000000ca
:205c3e00000200000000000000000000000000000000000000002280e01f000000000000a3
:095c5e000000000075ee11b00019
:205c6700000000000000000000000000000000000000000000010200e800800000000000b2
:0a5c870066800020015e98190000fd
:205c9100000000000000000000000000000000000000000050040002c00020000000370086
:095cb100004000000000000800a2
:205cba000000300000001c0000000000000000000000000002015004e81a0410002021ad23
:0a5cda00400040000000059a0000a1
:205ce40000000000000000000000000000000000000000000000013fa510000c00000bc0d4
:095d04000040300902f000080023
:205d0d008400000000000000000000000000000000000000000000026a99c000c40103a5c0
:0a5d2d00e00003009026e0000108ea
:205d37008000000000002000000000000000000000000000002228c1018b0010005f0f4057
:095d5700280048009c7c000003b8
:205d60000000000000000c000000000000000002000000000001428c7ad001c1400055f0b5
:0a5d8000e280040000cec580a0d42c
:205d8a0000020000000000000000000000000000000000008000381cb00c00000008d3800c
:095daa007c0000000000700010f4
:205db300040000000000000000000000000000000000000000000100e8019000002001f140
:0a5dd300474000000000001a0080a5
:025ddd000000c4
:035ddf0062003f20
:035de200720080cc
:025de5001100ab
:035de70082000037
:025dea000103b3
:085dec000000000000000000af
:085df4000000000000000000a7
:085dfc0000000000000000009f
:085e0400000000000000000096
:0261ec000000b1
:0361ee00820080ac
:0261f1000103a8
:0861f3000000000000000000a4
:0861fb0000000000000000009c
:08620300000000000000000093
:08620b0000000000000000008b
:0265f3000000a6
:0265f500110192
:0365f7008200001f
:0265fa0001039b
:0865fc00000000000000000097
:0866040000000000000000008e
:08660c00000000000000000086
:0866140000000000000000007e
:0269fc00000099
:0369fe0082008094
:026a010001038f
:086a030000000000000000008b
:086a0b00000000000000000083
:086a130000000000000000007b
:086a1b00000000000000000073
:026e030000008d
:026e0500110278
:036e070082000006
:026e0a00010382
:086e0c0000000000000000007e
:086e1400000000000000000076
:086e1c0000000000000000006e
:086e2400000000000000000066
:02720c00000080
:03720e008200807b
:02721100010377
:08721300000000000000000073
:08721b0000000000000000006b
:08722300000000000000000063
:08722b0000000000000000005b
:02761300000075
:0276150011035f
:03761700820000ee
:02761a0001036a
:08761c00000000000000000066
:0876240000000000000000005e
:08762c00000000000000000056
:0876340000000000000000004e
:027a1c00000068
:037a1e0082008063
:027a210001035f
:087a230000000000000000005b
:087a2b00000000000000000053
:087a330000000000000000004b
:087a3b00000000000000000043
:027e230000005d
:017e2500223a
:027e2600411bfe
:027e2800010651
:00000001FF
