:02000000ff00ff
:080002004c6174746963650030
:17000a00694345637562653220323032302e31322e32373934330071
:15002100506172743a2069434534304c50314b2d514e38340034
:1b003600446174653a204a756e20313320323032322032323a32353a35350077
:0200510000ffae
:040053007eaa997e6a
:02005700510056
:0200590001059f
:03005b0092000010
:03005e0062014bf1
:030061007200909a
:0300640082000017
:02006700110086
:02006900010193
:20006b00000000000000000000000000000000000000000000000000000000000000000075
:09008b00000000800000000000ec
:2000940000000000000000000000000000000000000000000000000000000000000000004c
:0a00b4000000000000000000000042
:2000be00000000000000000000000000000000000000000000000000000000001000000012
:0900de00000000400000000000d9
:2000e7000000000000000000000000000000000000000000000000000000000000000000f9
:0a01070000000000000000000000ee
:200111000000000000000000000000000000000000000000000000000000000000000000ce
:0901310000000080000001000044
:20013a000000000000000000000000000000000000000000000000000000000000000000a5
:0a015a00000000000000001000008b
:200164000000000000040000000000001000000000000040000000001000000000000040d7
:0901840000000000000100000071
:20018d00000000000000000000000000000000000000000000000000000000000000000052
:0a01ad000000000000000000000048
:2001b70000000000000c00000000000030000000000000c00000000030000000000000c03c
:0901d7000000000000020000001d
:2001e0000000000000000000000000000000000000000000000000000000000000000000ff
:0a02000000000000000000000000f4
:20020a000000000000000000000000000000000000000000000000000000000000000000d4
:09022a000000000000800000004b
:200233000000000000000000000000000000000000000000000000000000000000000000ab
:0a0253000000000000580000000049
:20025d00000000000000000000000000000000000000000180000000000000000000000000
:09027d0000000000000000000078
:20028600000000000000000000000000000000000000000000004000000000000100000017
:0a02a600000000040000000000004a
:2002b00000000000000400000000000010000000000000400000000010000000000000408a
:0902d000800000000001000000a4
:2002d900000000000000000000000000000000000000000000000000000000000000000005
:0a02f90004000000000000000000f7
:200303000000000000000000000000000000000000000000000000000000000000000000da
:09032300000000000000000000d1
:20032c00000020000000000000000000000000000040000000000000000000000000000051
:0a034c0000000000000000000000a7
:20035600000000000000000000000000000000000000000000000000000000000000000087
:090376000000000000000000007e
:20037f0000000000000000000000000000000000000000000000000000000000001000004e
:0a039f000000000000000000000054
:2003a900000000000000000000000000000000000000000000000000000000000000000034
:0903c9000000000000000000002b
:2003d20000000000000000000000000000000000000000000000000000000000000000000b
:0a03f2000000000000000000000001
:2003fc000003000000000000000000000000000000000000000000000000000000000000de
:09041c00000000000000000000d7
:200425000000000000000000000000000000000000000000000000000000000000000000b7
:0a04450000000000000000000000ad
:20044f0000000000000000000000000000000000000000000000000000000000000000008d
:09046f0000000000000000000084
:2004780000002000000000000000000000000000000800000000000000000000000000003c
:0a049800000000000000000000005a
:2004a20000000000000000000000000000000000000000000000000000000000000000003a
:0904c20000000000000000000031
:2004cb00000000000000000000000000000000000000000000000000000000000000000011
:0a04eb000000000000000000000007
:2004f5000000000000000000000000000000000000000000000000000000000000000000e7
:09051500000000000000000000dd
:20051e000000000000000000000000000000000000000000000000000000000000000000bd
:0a053e0000000000000000000000b3
:20054800000000000000000000000000000000000000000000000000000000000000000093
:090568000000000000000000008a
:2005710000000000000000000000000000000000000000000000000000000000000000006a
:0a0591000000000000000000000060
:20059b00400000000000000000000000000000000000000000000000000000000000000000
:0905bb0000000000000000000037
:2005c4000000200000000000000000000000000000000000000000000000000000000000f7
:0a05e400000000000000000000000d
:2005ee000000000000000000000000000000000000000000000000000000000000000000ed
:09060e000000000000001ea00124
:200617000800000000000000000000000000000000000000000000000000000000000000bb
:0a0637000000000000001c05000098
:20064100440000000000000000000000000000000000000000000000000000000000000055
:0906610000000000000000000090
:20066a000080000000000000000000000000000000000000000000000000000000000000f0
:0a068a000000000000000000000066
:20069400000300000000000000000000000000000000000000000000000000000000000043
:0906b4000000000000000000003d
:2006bd0000000000000000000000000000000000000000000000000000000000000000001d
:0a06dd000000000000000000000013
:2006e7000028000000000000000000000000000000000000000000000000000000000000cb
:09070700000000000000000000e9
:200710000004200000000000000000000000000000000000000000000000000000000000a5
:0a07300000000000000000000000bf
:20073a0000000000000000000000000000000000000000000000000000000000000040005f
:09075a0000000000000000000096
:20076300000000000000000000000000000000000000000000000000000000000000000076
:0a078300000000000000000000006c
:20078d0000000000000000000000000000000000000000000000000000000000000000004c
:0907ad0000000000000000000043
:2007b600000000000000000000000000000000000000000000000000000000000000000023
:0a07d6000000000000c00000000059
:2007e0000000000000000000000000000000000000000000000000000000000000000000f9
:09080000000000000400000000eb
:200809000000000000000000000000000000000000000000000000000000000000000000cf
:0a08290000000000002000000000a5
:200833000000000000000000000000000000000000000000000000000000000000000000a5
:090853000000000000000000009c
:20085c0000002000000000000000000000000000004000000000000000000000000000001c
:0a087c000000000000000000000072
:20088600000000000000000000000000000000000000000000200000000000000000000032
:0908a60000000000000000000049
:2008af000800000000000000000000000000000000000000000a0000000000000000000017
:0a08cf00000000000000000000001f
:2008d900000000000000000000000000000000000000000000c000400000000000000000ff
:0908f900000000000000000000f6
:200902000000000000000000000000000000000000000000000400000000000000000000d1
:0a09220000000000000000000000cb
:20092c000003000000000000000000000000000000000000000000000000000000000000a8
:09094c00000000000000000000a2
:2009550000000000000000000000000000000000000000000000000000000000002800005a
:0a0975000000000000000000000078
:20097f00000000000000000000000000000000000000000000000003800000000380000052
:09099f000000000000000000004f
:2009a8000000200000000000000000000000000000000000000000002000000000000000ef
:0a09c80000000000a0000000000085
:2009d2000000000000000000000000000000000000000000000000400000000000000000c5
:0909f200000000000000000000fc
:2009fb0000000000000000000000000000000000000000000000001e0000000000000000be
:0a0a1b0000000000000000000000d1
:200a25000000000000000000000000000000000000000000000000030000000000000000ae
:090a4500000000000000000000a8
:200a4e00000000000000000000000000000000000000000000000000400000000000000048
:0a0a6e00000000000000000000007e
:200a78000000000000000000000000000000000000000000000000000ef01410000000003c
:090a980000000000000000000055
:200aa10000000000000000000000000000000000000000000000000002dca20000000000b5
:0a0ac10000000000a000000000008b
:200acb0000000000000000000000000000000000000000000000000000000000000100000a
:090aeb0000000000000000000002
:200af4000000200000000000000000000000000000000000000000000000000000000800ba
:0a0b140000000000000000000000d7
:200b1e00000000000000000000000000000000000000000000a000000000000280000a008b
:090b3e00000000000000000000ae
:200b47000800000000000000000000000000000000000000000a002400000000280001002f
:0a0b67000000000000000000000084
:200b7100000000000000000000000000000000000000000000c000002ca0a401000008002b
:090b9100000000a00000000000bb
:200b9a000000000000000000000000000000000000000000000c00002fd0004130000000bf
:0a0bba00000000040000000000002d
:200bc4000003000000000000000000000000000000000000000000000000000000000033db
:090be400409000400000000000f8
:200bed000000000000000000000000000000000000000000000000000000000000000001e7
:0a0c0d007821010a00000000000039
:200c17000000000000000000000000000000000000000000000001c00000000000000000fc
:090c3700000000000000000000b4
:200c400000002000000000000000000000000000000000000000000000000000000070b054
:0a0c6000000000000000000000008a
:200c6a0000000000000000000000000000000000000000000000000000000000000000006a
:090c8a0000000000000000000061
:200c9300000000000000000000000000000000000000000000000000000000000000b00091
:0a0cb3000000000000000000000037
:200cbd0000000000000000000000000000000000000000000000004380000000000f000045
:090cdd000000000000000000000e
:200ce600000000000000000000000000000000000000000000000002400000000000b000fc
:0a0d060000000000000000000000e3
:200d100000000000000000000000000000000000000000000040000380000003000800b342
:090d3000009000400000000000ea
:200d3900000000000000000000000000000000000000000000040000000000001000b009cd
:0a0d590078210002000000000000f5
:200d63000068000000000000000000000000000000000000000000e015e7f00000800bdfd2
:090d8300200000041664000000c9
:200d8c000000000000000000000000000000000000400000000000263cc8ff00000001af2e
:0a0dac002c0000000242800000004d
:200db6000000000000000000000000000000000000000000000000001fa1c02080018afa78
:090dd60000800200000000000092
:200ddf0008000400000000000000000000000000000000000000003c004008002810000b21
:0a0dff006c2000200000000000003e
:200e09000000000000000000000000000000000000000000000400000fa0022300038e3a26
:090e2900c4100c0000025ea500db
:200e320000000000000000000000000000000000000000000000002402e08009100001b947
:0a0e5200f811004000001f055000d9
:200e5c000001000000000000000000000000000000000000000002e0400000000008007ad1
:090e7c004080000020001ef0403f
:200e85000000000000000000000000000000000000000000000000063800000000001009f6
:0a0ea5006820000001c0000f0500e6
:200eaf00000000000000000000000000000000000000000000000b404ef090000000008684
:090ecf00344080002404fea5005b
:200ed80000002000000000000000000000000000000000000000001437c80a000000509bd2
:0a0ef8000388000001e35d055000cf
:200f02004000000000000000000000000000000000000000000000460000000010051b7a9f
:090f22000090800026000ef06032
:200f2b0000800000000000000000000000000000000000000000000200000000008090a96b
:0a0f4b004021000002c0000f040066
:200f550000000000000000000000000000000000000000000002000781a0a00000000000b2
:090f75000000000014396ca021f9
:200f7e00c8000000000000000000000000000000000000000000001c4250050000000000d8
:0a0f9e000000000000240cfa4010cf
:200fa8004000000000000000000000000000000000000000000000c21f853023000718b75a
:090fc80029400c00140408b102d8
:200fd10000000000800000000000000000000000000000000000000600e00300100000097e
:0a0ff10042a800400022050722007c
:200ffb00000000000000000000000000000000000000000000020006000000002000013875
:09101b004020010000617f020089
:20102400000020000000000000000000000000000000000000004000280000000000009094
:0a104400b800001000001cf040008e
:20104e00000000000000000000000000000000000000000000a0020027e244001008181a49
:09106e0014200a00006ece0000ff
:201077000000000000000000000000000000000000000000000a000403cba0000080910fbd
:0a1097000014002000029e0050002b
:2010a100000000000000000000000000000000000000000000c0000705f010000000001a49
:0910c1003c200c0014005ac52269
:2010ca000000000000000000000000000000000000000000000c00006a7e510000180000a9
:0a10ea0083c000c00020030c50007a
:2010f40000030000000000000000000000000000000000000000000015cc50a000004a02bc
:091114007c2000002072ce004096
:20111d000000000000000000000000000000000000000000000000000030c501400050002c
:0a113d002bc0000001469e00540084
:201147000000000000000000000000000000000000000000000000600003c0200000000243
:091167007c2000000000ff0200e2
:2011700000002000000000000000000000000000000000000000000000003c0040000000c3
:0a1190002fc020000042dc90400058
:20119a000000000000000000000000000000000000000000000000003e80102000058a12a6
:0911ba001420000026021ad102e3
:2011c30000000000000000000000000000000000000000000000000027d083000000010f82
:0a11e3008014200000c0350e2080ab
:2011ed0000000000000000000000000000000000000000000004004220cd10280005003a38
:09120d003c2000001e300000002e
:2012160000000000000000000000000000000000000000000000200002c0e200010000b043
:0a12360003c02008100000000000b3
:201240000000000000000000000000000000000000000000000001e04003c0300005007203
:091260003c200c0081634f0240a8
:2012690000000000000000000000000000000000000000000000000020003c0040000800c1
:0a12890003c0004014441c90440010
:201293000000000000000000000000000000000000000000000000e05ec7400008000032bc
:0912b3003c20000006064b02007d
:2012bc0000002000000000000000000000000000004000000000000021e9a0080000008080
:0a12dc0083c0100000034df0400035
:2012e60000000000000000000000000000000000000000000020020601c50400280000527c
:0913060014282a0020021ad12249
:20130f000100000000000000000000000000000000000000000a002c03d0a04000000003d1
:0a132f00001400a002c0150e2000fb
:20133900000000000000000000000000000000000000000000c0004637c80284030d0b529c
:091359003c200400206b4a020054
:201362000000000000000000000000000000000000000000000c000203dd00008000599014
:0a138200803c004001424df04000a5
:20138c00000300000000000000000000000000000000000000000002a18080200000003a41
:0913ac003c20000000284cd12275
:2013b50000000000000000000000000000000000000000000000001440c00400001000b040
:0a13d500803c000801c0020d10006a
:2013df000000000000000000000000000000000000000000000000600000000000079a5a93
:0913ff003c20000000034a0262d8
:2014080000002000000000000000000000000000000000000000000028000000000000007c
:0a142800803c000003c00d004400ea
:20143200000000000000000000000000000000000000000000000062d4ea50000003815254
:091452003c20000020615c050152
:20145b000000000000000000000000000000000000000000000000002860aa08000000a097
:0a147b00803c800003c00200500016
:201485000000000000000000000000000000000000000000000001e3c6e0603000000052db
:0914a500154000000460fac502c4
:2014ae00000000000000000000000000000000000000000000000000603006000002000086
:0a14ce00015400000020020c500041
:2014d800000000000000000000000000000000000000000000c00046d6ec5020000018970d
:0914f800a800440000615c0540fd
:201501000000000000000000000000000000000000000000000c00022820c50000000103ab
:0a152100c00000480004020054005e
:20152b0040000000000000000000000000000000000000000000000000000000000500df7c
:09154b007dc200000007df000072
:20155400000020000000000000000000000000000000000000000000280000000200700db0
:0a15740033fc00004243e5c0100004
:20157e00000000000000000000000000000000000000000000a0006020805002900118387a
:09159e00204002000004000000de
:2015a7000800000000000000000000000000000000000000000a000200500a0028805803b3
:0a15c700239c0020040380000000b4
:2015d100400000000000000000000000000000000000000000c0000000000000000581fe76
:0915f10038902400000000000005
:2015fa00000000000000000000000000000000000000000000040000280000000000008f16
:0a161a0035080040a003c0000000e6
:201624000003000000000000000000000000000000000000000003428000000000081802bc
:09164400f88000000006d8a000a7
:20164d00000000000000000000000000000000000000000000000024000000000000510305
:0a166d00334400000003af00000446
:2016770000000000000000000000000000000000000000000000000016a054000001013a0d
:09169700a80000000000000000a2
:2016a0000000200000000000000000000000000000000000000000003c10054000000081f8
:0a16c000c00004000002400000001a
:2016ca000000000000000000000000000000000000000000000000000000000000070806eb
:0916ea0014000000207000000053
:2016f300000000000000000000000000000000000000000000000000000000000000f80fd0
:0a1713000280000002c40000000084
:20171d00000000000000000000000000000000000000000000000040000000000007015b09
:09173d00314080000000ea804008
:20174600880000000000000000000000000000000000000000000002000000000000009069
:0a1766000314000001c003d80004c2
:20177000000000000000000000000000000000000000000000c001e017a5040800038e87d8
:09179000955040000002c18140a7
:201799008000000000000000000000000000000000000000000c0000035005400000910972
:0a17b90002a825000003f6d000048a
:0217c300000024
:0217c500110110
:0217c70001011e
:2017c9000000020000000000000800000000000020000000000000000000000000000000d6
:0917e900000000000000000000f7
:2017f2000000000000000000000000000000000000000000000000000000000000000000d7
:0a18120000000000000000000000cc
:20181c00000001000000000000040000000000001000000000040000000000000000000093
:09183c00000000000000000000a3
:20184500000000000000000000000000000000000000000000000000000000000000000083
:0a1865000000000000000000000079
:20186f000000020000000000000800000000000020020000800000000000000000000000ad
:09188f0000000000000000000050
:2018980000000000000000400000000000000000000014000c0000000000000000000000d0
:0a18b8000000000000000000000026
:2018c200000000000004000000000000100000000000004000000000100000000000004062
:0918e200000000000001000000fc
:2018eb000000000000000000000000000000000000000000000000000000000000000000dd
:0a190b0000000000000000000000d2
:2019150000000000000c00000000000030000000000000c00000000020000000000000c1d5
:0919350080000000000300000026
:20193e00000000000000000000000000000000000000000000000000000000000000000089
:0a195e00000000000000000000007f
:2019680000000000000000000000000000000000000000000000000000000000000000005f
:0919880000000000000000000056
:20199100000000000000000000000000000000000000000000000000000000000000000036
:0a19b100000000000000000000002c
:2019bb0000000000000000000000000000000000000000000000000000000000000000000c
:0919db0000000000000000000003
:2019e4000000000000000000000000000000000001000000000040000000000001000000a1
:0a1a040000000004000000000000d4
:201a0e00000000000204000000000000100000000000004000000000100000000000004012
:091a2e00000000000001000000ae
:201a370000000000006000000000000000000000000000000000000000000000000000002f
:0a1a57000000000000000000000085
:201a6100000000000000000000000000000000000000000000000000000000000000000065
:091a81000000000000000000005c
:201a8a0000000000000000000000000000000000000000000000000000000000000000003c
:0a1aaa000000000000000000000032
:201ab400000000000000000000000000000000000000000000000000000000000000000012
:091ad40000000000000000000009
:201add000000000000000000000000000000000000000000000000000000000000000000e9
:0a1afd0000000000000000000000df
:201b07000000000000000000000000000000000000000000000000000000000000000000be
:091b2700000000000000000000b5
:201b3000000000000000000000000000000000000000000000000000000000000000000095
:0a1b5000000000000000000000008b
:201b5a00000200000000000000000000000000000000000000000000000000000000000069
:091b7a0000000000000000000062
:201b8300000000000000000000000000000000000000000000000000000000000000000042
:0a1ba3000000000000000000000038
:201bad00000000000800000000000000000000000000000000000000000000000000000010
:091bcd000000000000000000000f
:201bd60000003000058000000000000000000000000000000000000000000000000000003a
:0a1bf60000000000000000000000e5
:201c00000000000000000000000000000000000000000000000000020000000000000000c2
:091c2000000000000000000000bb
:201c290000000000000e00000000000000000000000000000000000000000000000000008d
:0a1c49000000000000000000000091
:201c53000000000000008280000000000000000000000000000000003505008800000000ad
:091c730000000000000000000068
:201c7c0000000000000056a8000000000000000000000000000000000008a0100000000092
:0a1c9c00000000000000000000003e
:201ca600000200000000000000000000000000000000000000000002c0000000000000005a
:091cc60000000000000000000015
:201ccf000000000000000000000000000000000000000000000000000000000000000000f5
:0a1cef0000000000000000000000eb
:201cf9000000000000000000000000000000000000000000000000000000000000000000cb
:091d190000000001400000000080
:201d22000000000000000000000000000000000000000000000000000000000000000000a1
:0a1d42000000000000000000000097
:201d4c00000000000000000000000000000000000000000000000000000000000000000077
:091d6c000000000000000000006e
:201d750000000000000000000000000000000000000000000000000000000000000000004e
:0a1d95000000000000000000000044
:201d9f00000000000000000000000000000000000000000000000000000000000000000024
:091dbf000000000000000000001b
:201dc800000000000000000000000a000000000000000000000000000000000000000000f1
:0a1de80000000000000000000000f1
:201df2000002000000000000000000000000000000000000000000000000000000000000cf
:091e1200000000000000000000c7
:201e1b000000000000000000000000000000000000000000000000000000000000000000a7
:0a1e3b00000000000000000000009d
:201e450000000000000000000000000000000000000000000000000000000000000000007d
:091e650000000000000000000074
:201e6e00000030000000000000000000000000000000000000000000000000000000000024
:0a1e8e00000000000000000000004a
:201e980000000000000000000000000000000000000000000000000000000000000000002a
:091eb800000000400000000000e1
:201ec100000000000000000000000000000000000000000000000000000000000000000001
:0a1ee10000000000000000000000f7
:201eeb000800000000000000000000000000000000000000000000000000000000000000cf
:091f0b00000000000000000000cd
:201f14000000000000000000000000000000000000000000000000000000000000000400a9
:0a1f340000000000000000000000a3
:201f3e0000020000000000000000000000000000040000000000000000000000000000007d
:091f5e000000000000000000007a
:201f670000000000000000000000000000000000000000000000000000000000000000005a
:0a1f87000000000000000000000050
:201f9100000000000000000000000000000000000000000000000000000000000000000030
:091fb10000000000000000000027
:201fba00000000000000000000000000000000000000000000000000000000000000000007
:0a1fda0000000000000000000000fd
:201fe40000400000000000000000000000000000000000000000000000000000000000009d
:09200400000000000000000000d3
:20200d00000280000000000000000000000000000000000000000000000000000000000031
:0a202d0000000000000000000000a9
:20203700000000000000000000000000000000000000000000000010000000000000000079
:0920570000000000000000000080
:20206000000000000000000000000000000000000000000000000000000000000000000060
:0a2080000000000000000000000056
:20208a00000200000000000000000000000000000000000000000000000000000000000034
:0920aa000000000000000000002d
:2020b30000000000000000000000000000000000000000000000000000000000000000000d
:0a20d3000000000000000000000003
:2020dd000000000000000000000000000000000000000000000000000000000000000000e3
:0920fd00000000000000000000da
:20210600000030000000000000000000000000000000000000000000000000000000000089
:0a21260000000000000000000000af
:20213000080000000000000000000000000000000000000000000000000000000000000087
:0921500000000000000000000086
:2021590004c0000000000000000000000000000000000000000000000000000000000000a2
:0a217900000000000000000000005c
:202183008000000000000000000000000000000000000000000000000000000000000000bc
:0921a30000000000000000000033
:2021ac00000000000000000000000000000000000000000000000000000000000280000091
:0a21cc000000000000000000000009
:2021d6000002000000000000000000000000000000000000000000000000000000000000e7
:0921f600000000000000000000e0
:2021ff000400000000000000000000000000000000000000000000000000000000000000bc
:0a221f0000000000000000000000b5
:20222900000000000000000000000000000000000000000000000000000000000007000c82
:092249003d400000002acf000016
:20225200000000000000000000000000000000000000000000000000000000000000000567
:0a22720073d4400001402ce0800806
:20227c008000000000000000000000000000000000000000000000000000000000000000c2
:09229c0000000000002800000011
:2022a500000000000000000000000000000000000000000000000000000000000000000019
:0a22c50000000000014000000000ce
:2022cf000000000000000000000000000000000000000000000000040000000000000d00de
:0922ef00000000001400000000d2
:2022f80000000008000000000000000000000000000000000000000020000000000000108e
:0a2318000000000000068000000035
:2023220000010000000000000000000000000000000000000000000000000000000000009a
:092342000000000014000000007e
:20234b00000000000000000000000000000000000000000000000000000000000000000072
:0a236b0000000000000280000000e6
:202375000000000000000000000000000000000000000000000000002d0af0000000000021
:092395000000000000000000003f
:20239e00000020000000000000000000000000000000000000000000020a5f008000000014
:0a23be000000000000000000000015
:2023c8000000000000000000000000000000000000000000000000000000000000000000f5
:0923e800000000000000000000ec
:2023f10000000000000000000000000000000000000000000000000030000000000004a0f8
:0a24110000000000000000000000c1
:20241b008000000000000000000000000000000000000000000000000000000000000074ad
:09243b00140000000002cf0000b3
:20244400000000000000000000000000000000000000000000000e0000000000000004085e
:0a2464007280000000000ff080807d
:20246e00180000000000000000000000000000000400000000000000000000000000000032
:09248e0000000000000000000045
:20249700000000000000000000000000000000000000000000000000000000000000000025
:0a24b700000000000000000000001b
:2024c1000000000000000000000000000000000000000000004000000000000010000800a3
:0924e10000000000142c000000b2
:2024ea000000000000000000000000000000000000000000000c000000000000038018101b
:0a250a00000000000006c000000001
:202514008000000000000000000000000000000000000000000000200000000000010057af
:09253400b1c000001400d0052024
:20253d00000000000000000000000000000000000000000000000004000000000000f0008a
:0a255d00672c00000002a1e0a000be
:202567000000000000000000000000000000000000000000000003c000000000000180937d
:09258700290000003429fc0008c1
:20259000000000000000000000000000000000000000000000010020000000000000100feb
:0a25b000ad91000003402ef0800002
:2025ba00004100000000000000000000000000000000000000000000000000000380003409
:0925da003e800000002800000012
:2025e3000003000000000000000000000000000000000000000000000000000000000008cd
:0a2603002bd402000140000000008b
:20260d0000000000000000000000000000000000000000000000000000000000000000703d
:09262d0030c000000000000000b4
:2026360000002000000000000000000000000000000000000000000000000000000000055f
:0a265600738d080000000000000072
:202660000800000000000000000000000000000000000000004000400000000000008a3c0c
:092680002b4000000003cd000016
:20268900044000000000000000000000000000000000000000040020000000000205500969
:0a26a9007a14080000003cc0808095
:2026b300800000000000000000000000000000000000000000a000000000000280000090d5
:0926d300014000000000000000bd
:2026dc000000000000000000000000000000000000000000000a000000000000280000affd
:0a26fc00a80000000000000000002c
:202706000002000000000000000000000000000000000000000000020005504000000074a6
:0927260002800000000000000028
:20272f0004000002000000000000000000000000000000000000000001485540000001881d
:0a274f00601400000000000000000c
:2027590000000000000000000000000000000000000000000040104002000000000000d6f8
:092779003c8000001421fc000862
:202782000400000000000000000000000000000000000000000c00a001c0008000001987a6
:0a27a2007b45000401606ef080002a
:2027ac008000000000000000000000000000000000000000000000441e0f5000000d00f6c9
:0927cc0096c000000001e00f00be
:2027d50000000000000000000000000000000000000000000000003e216805c0000019cd72
:0a27f5006f9c000001629ea004002a
:2027ff000c00000000000000000000000000000000000000000002400c0f5000000010ba37
:09281f00400000001429400500ee
:20282800040000000000000000000000000000000000000000000000016805c0400000ed31
:0a2848003004000003468fa50400d1
:202852000002000000000000000000000000000000000000000000001c0f5000000900538d
:09287200e0400000142800000001
:20287b0000000000000000000000000000000000000000000000001e01e805c000008008e9
:0a289b00050800000146800000005f
:2028a5000000000000000000000000000000000000000000000000020e0f500001058d0011
:0928c5000000000000015d21008b
:2028ce00000030000000000000000000000000000000000000000006054805c00000d0b022
:0a28ee0000000000006000a12400bb
:2028f8000800000000000000000000000000000000000000000000221e0f500000570914a5
:09291800380240001602dc000840
:20292100040000000000000000000000000000000000000000000004654805c0003200d911
:0a2941002a80080801e60dc080009e
:20294b00904000000000000000000000000000000000000000a000000e0f500080011a9460
:09296b0000000a40000000000019
:20297400000700000000000000000000000000000000000000020000004805e0080081dfa5
:0a299400ea00082200000000000025
:20299e00002a00000000000000000000000000000400000000000003dc0f50400003809357
:0929be00c000000084004e090075
:2029c70004004000000000000000000000000000000000000000000005c805d00000d1ad8c
:0a29e700b8200000020000b06400f8
:2029f100000000000000000000000000000000000000000000400042960f5000000700db6d
:092a1100c00000000041cd2100cd
:202a1a000400000000000000000000000000000000000000000c002063e805c0000001c992
:0a2a3a0028200000006381f1240051
:202a4400800000000000003c00000000000000000000000000000040060f5000000b0b00fb
:092a6400000000000403f9e00881
:202a6d000000000000000683c0000000000000000000000000000026036805c000000000aa
:0a2a8d000000000002002d8a000482
:202a97000c00000000000000000000000000000000000000000001c2940f500010000892b3
:092ab700400040000029c05f004e
:202ac000048000000000000000000000000000000000000000000020036805c0028000059b
:0a2ae000e6000000000601eaf40021
:202aea00000200000000000000000000000000000000000000000000040f5000080000d28d
:092b0a0040024000042aea000028
:202b130000000000000000000000000000000000000000000000000003e805c0010070037e
:0a2b33003e0083000007aeb400006e
:202b3d0000640000f0000000000000000000000000000000000001c2160f500000000a00e2
:092b5d0000000000020059000014
:202b66000006f0000000000000000000000000000000000000000026074805c0002858108f
:0a2b86000000000001401f8800005d
:202b90000c0000000000000000000000000000000000000000000022060f5000002710f368
:092bb0004000200034001005195a
:202bb90004800000000000000000000000000000000000000000001e674805c00000d9cf3e
:0a2bd900ae00800000001d80508057
:202be300800000000000000000000000000000000000000000a001c0140f500000050e006b
:092c030000000200002c603c00fe
:202c0c0000000000000000000000000000000000000000000002002003c805c0003081a0a5
:0a2c2c00000000a000038c0004204b
:202c360000020000000000000000000000000000000000000000000005df500000000a003e
:092c560000000000007c00f00cfd
:202c5f0004000000000000000000000000000000000000000000000003df05c0000001b0f9
:0a2c7f00000000000062c08f020494
:202c890000000000000000000000000000000000000000000000000000000000000000b07b
:092ca9000e80000000340b000055
:202cb200000000000000000000000000000000000000000000000000000000000080000d75
:0a2cd200e095080000004000080033
:202cdc00800000000000000000000000000000000000000000000000000000000005989a21
:092cfc00b7c0000000000d00004b
:202d050000000000000000000000000000000000000000000000000000000000000018c5d1
:0a2d25002d78000001c00010080026
:202d2f000000000000000000000000000000000000000000000000000000000000000cb8c0
:092d4f00168000001c340d000088
:202d58000000000000000000000000000000000000000000000000000000000000001989b9
:0a2d7800e990080000038010080035
:202d820040000000000000000000000000000000000000000000000007bf008000000004a7
:092da200280a000000000e0000e8
:202dab00000000000000000000000000000000000000000000000000034870000000000746
:0a2dcb0062802200000000000800f2
:202dd50000000000000000000000000000000000000000000000000000000000010380f664
:092df5000000000034000f000092
:202dfe00000030000000000000000000000000000000000000000000000000000000380746
:0a2e1e0074202000000000100800de
:202e28000000000000000000000000000000000000000000000000024000000000230d0018
:092e480000000000007c0c0000f9
:202e5100000000038000000000000000000000000000000000000000340000000001b810e1
:0a2e710000000000000280100800bd
:202e7b008000000000000000000000000000000000000000000000c000000002810108006b
:092e9b000000000000000a000024
:202ea400000000000000000000000000000000000000000000000000000000000800d0b086
:0a2ec40000000000000000100800ec
:202ece000002000000000000000000000000000004000000000000040000000000000cf0de
:092eee00000c000400000b0002be
:202ef7000000000000000000000200000000000000000000000000007000000002800013b4
:0a2f1700ea80000018000000080026
:022f21000000ae
:022f2300110299
:022f25000101a8
:202f270000000000000000000000000000000000000000000000000000000000000000008a
:092f470000000000000000000081
:202f5000000000000000000000000000000000000000000000000000000000000000000061
:0a2f70000000000000000000000057
:202f7a000000000000000000000000000000000000000000000000000000008000000000b7
:092f9a000000000000000000002e
:202fa30000000000000000000000000000000000000000000000000000000000000000000e
:0a2fc3000000000000000000000004
:202fcd000000000000000000000000000000000000000000000000000000000000000000e4
:092fed00000000000000000000db
:202ff6000000000000000000000000000000000000000000000000000000000000000000bb
:0a30160000000000000000000000b0
:203020000000000000080000000000002000000000080000000000002000000000000080c0
:0930400000000000000200000085
:20304900000000000000000000000000000000000000000000000000000000000000000067
:0a306900000000000000000000005d
:2030730000000000000c00000000000030000000000c00000000000030000000000000c005
:0930930000000000000300000031
:20309c00000000000000000000000000000000000000000000000000000000000000000014
:0a30bc00000000000000000000000a
:2030c6000000000000000000000000000000000000000000000000000000000000000000ea
:0930e600000000000000000008d9
:2030ef000000000000000000000000000000000000000000000000000000000000000000c1
:0a310f0000000000000000000000b6
:20311900000000000000000000000000000000000000000000000000000000000000000096
:093139000000000000008000000d
:20314200000000000000000000000000000000000000000000000000000000080000000065
:0a31620000002000000000000080c3
:20316c00000000000008000000000000200000000008000000000000200000000000008073
:09318c0000000000000300000037
:2031950000000000000000000000000000000000000000000000000000000000000000001a
:0a31b500000000000000020000000e
:2031bf000000000000000000000000000000000000000000000000000000000000000000f0
:0931df00000000000000000000e7
:2031e80000002000000000000000000000000000000000000800000000000000000000009f
:0a32080000000000000000000000bc
:2032120000000000000000000000000000000000000000000000000000000000000000009c
:093232000000000000000004008f
:20323b00000000000000000000000000000000000000000000000000000000000000000073
:0a325b000000000000000000a000c9
:20326500000000000000000000000000000000000000000000000000000000000000000049
:0932850000000000000000000040
:20328e00000000000000000000000000000000000000000000000000000000000000000020
:0a32ae000000000000000000000016
:2032b8000003000000000000000000000000000000000000000000000000000000000000f3
:0932d800000000000000000000ed
:2032e1000000000000000000000000000000000000000000000000000000000000000000cd
:0a33010000000000000000000000c2
:20330b000000000000000000000000000000000000000000000000000000000000000000a2
:09332b0000000000000000000099
:20333400000020000000000000000000000000000000000000000000000000000000000059
:0a335400000000000000000000006f
:20335e0000000000000000000000000000000000000000000000000000000000000000004f
:09337e0000000000000000000046
:20338700000000000000000000000000000000000000000000000000000000000000000026
:0a33a700000000000000000000001c
:2033b1000000000000000000000000000000000000000000000000000000000000000000fc
:0933d100000000000000000000f3
:2033da000000000000000000000000000000000000000000000000000000000000000000d3
:0a33fa0000000000000000000000c9
:203404000000000000000000000000000000000000000000000000000000000000000000a8
:093424000000000000000000009f
:20342d0000000000000000000000000000000000000000000000000000000000000000007f
:0a344d000000000000000000000075
:20345700000000000000000000000000000000000000000000000000000000000000000055
:093477000000000000000000004c
:2034800000002000000000000000000000000000000000000000000000000000000000000c
:0a34a0000000000000000000000022
:2034aa00000000000000000000000000000000000000000000000000000000000000000002
:0934ca00000000000000000000f9
:2034d3000000000000000000000000000000000000000000000000000000000000000000d9
:0a34f30000000000000000001800b7
:2034fd000000000000000000000000000000000000000000000000000000000000000000af
:09351d00000000000000000000a5
:20352600000000000000000000000000000000000000000000000000000000000000000085
:0a354600000000000000000000007b
:20355000000300000000000000000000000000000000000000000000000000000000000058
:0935700000000000000000000052
:20357900000000000000000000000000000000000000000000000000000000000000000032
:0a3599000000000000000000000028
:2035a300000000000000000000000000000000000000000000000000000000000000000008
:0935c300000000000000000000ff
:2035cc000000200000000000000000000000000000000000000000000000000000000000bf
:0a35ec0000000000000000000000d5
:2035f6000000000000000000000000000000000000000000000000000000000000000000b5
:09361600000000000000000200a9
:20361f0000000000000000000000000000000000000000000000000000000000000000008b
:0a363f000000000000000000400041
:20364900000000000000000000000000000000000000000000000000000000000000000061
:0936690000000000000000000058
:20367200000000000000000000000000000000000000000000000000000000000000000038
:0a369200000000000000000000002e
:20369c0000000000000000000000000000000000000000000000000000000000000000000e
:0936bc0000000000000000000005
:2036c5000000000000000000000000000000000000000000000000000000000000000000e5
:0a36e50000000000000000000000db
:2036ef000000000000000000000000000000000000000000000000000000000000000000bb
:09370f00000000000000000000b1
:20371800000020000000000000000000000000000000000008000000000000000000000069
:0a3738000000000000000000000087
:20374200000000000000000000000000000000000000000000000000000001000000000066
:093762000000000000000000005e
:20376b0000000000000000000000000000000000000000000000000000000000000000003e
:0a378b000000000000000000000034
:20379500000000000000000000000000000000000000000000000000000000000000000014
:0937b5000000000000000000000b
:2037be000000000000000000000000000000000000000000000000000000000000000000eb
:0a37de0000000000000000000000e1
:2037e8000003000000000000000000000000000000000000000000000000000000000000be
:09380800000000000000000000b7
:20381100000000000000000000000000000000000000000000000000000000000000000097
:0a383100000000000000000000008d
:20383b0000000000000000000000000000000000000000000000000000000000000000006d
:09385b0000000000000000000064
:20386400000020000000000000000000000000000000000000000000000000000000000024
:0a388400000000000000000000003a
:20388e0000000000000000000000000000000000000000000000000000000000000000001a
:0938ae0000000000000000080009
:2038b7000000000000000000000000000000000000000000000000000000000000000000f1
:0a38d70000000000000000000000e7
:2038e1000000000000000000000000000000000000000000000000000000000000000000c7
:09390100000000000000000000bd
:20390a00080000000000000000000000000000000000000000000000000000000000000095
:0a392a000000000000000000000093
:20393400000000000000000000000000000000000000000000000000000000000000000073
:0939540000000000000000020068
:20395d0000000000000000000000000000000000000000000000000000000000000000004a
:0a397d000000000000000000400000
:20398700000000000000000000000000000000000000000000000000000000000000000020
:0939a70000000000000000000017
:2039b0000000200000000000000000000000000000000000000000000000000000000000d7
:0a39d00000000000000000000000ed
:2039da000000000000000000000000000000000000000000000000000000000000000000cd
:0939fa00000000000000000000c4
:203a030008000000000000000000000000000000000000000000000000000000000000009b
:0a3a23000000000000000000000099
:203a2d00000000000000000000000000000000000000000000000000000000000000000079
:093a4d0000000000000000000070
:203a5600000000000000000000000000000000000000000000000000000000000000000050
:0a3a76000000000000000000000046
:203a8000000300000000000000000000000000000000000000000000000000000000000023
:093aa0000000000000000000001d
:203aa9000000000000000000000000000000000000000000000000000000000000000000fd
:0a3ac90000000000000000000000f3
:203ad3000000000000000000000000000000000000000000000000000000000000000000d3
:093af300000000000000000000ca
:203afc0000002000000000000000000000000000000000000000000000000000000000008a
:0a3b1c00000000000000000000009f
:203b260000000000000000000000000000000000000000000000000000000000000000007f
:093b460000000000000000000076
:203b4f00000000000000000000000000000000000000000000000000000000000000000056
:0a3b6f00000000000000000000004c
:203b790000000000000000000000000000000000000000000000000000000000000000002c
:093b990000000000000000000023
:203ba200000000000000000000000000000000000000000000000000000000000000000003
:0a3bc20000000000000000000000f9
:203bcc000000000000000000000000000000000000000000000000000000000000000000d9
:093bec00000000000000000000d0
:203bf5000000000000000000000000000000000000000000000000000000000000000000b0
:0a3c150000000000000000000000a5
:203c1f0000000000000000000000000000000000000000000000e814f001000000a51e468f
:093c3f000000000000000000007c
:203c48000000200000000000000000000000000000000000080002bc4d00a000000f5060ca
:0a3c68000200000000000000000050
:203c720000000000000000000000000000000000000000000000e804f0000014000000063c
:093c9200280040000000000200bf
:203c9b000000000000000000000000000000000000000000000002bc0e000001000000003c
:0a3cbb000780040000000000000074
:203cc50000000000000000000000000000000000000000000000e804b981000000000014a5
:093ce500000000000000000000d6
:203cee000000000000000000000000000000000000000000000002bc1d10a000000000002b
:0a3d0e00200000000000000000008b
:203d180000030000000000000000000000000000000000000000e804b80f00000001f7d409
:093d38002800000000000000005a
:203d41000000000000000000000000000000000000000000000002bc1e10800000000bbc2f
:0a3d61002400000000000000000034
:203d6b0000000000000000000000000000000000000000000000e805b00100000010b3c017
:093d8b00680000000000000800bf
:203d94000000200000000000000000000000000000000000000002bc0d00c00000000f70e5
:0a3db4000000000000000000000005
:203dbe0000000000000000000000000000000000000000000000e805f000000040015696db
:093dde00040000000000000000d8
:203de7000000000000000000000000000000000000000000000002bc0e100000000000e4fc
:0a3e0700028000000000000000002f
:203e110000000000000000000000000000000000000000000000e805b019000040ac187661
:093e310038000000000000000050
:203e3a000000000000000000000000000000000000000000000002bc1d0080000005c0a1a7
:0a3e5a00440000000000000000001a
:203e640000000000000000000000000000000000000000000000e805f198000842a276e482
:093e8400680000000000000000cd
:203e8d000000000000000000000000000000000000000000000002bc1e008000c0052025af
:0a3ead0060000000000000000000ab
:203eb70040000000000000000000000000000000000000000000e804f000000000bd1f40b3
:093ed7002c0000000000000000b6
:203ee0000000200000000000000000000000000000000000000082bc0c000000000f5f2cbe
:0a3f00000640000000000000000071
:203f0a0000040000000000000000000000000000000000000000e804f0000014480c7000df
:093f2a0028004000000000000026
:203f33000802800000000000000000000000000000000000000202bc0e0000010000c00055
:0a3f5300000005000000000000005f
:203f5d0040000000000000000000000000000000000000005000e804b980000040e7000464
:093f7d0078000000000000008043
:203f860000c0000000000000000000000000000000000000020002bc1c100000000db0387a
:0a3fa60024000000000000000000ed
:203fb00000030000000000000000000000000000000000000000e804b80d000000007a546f
:093fd000000000000000180000d0
:203fd9000000000000000000000000000000000000000000000002bc1e1080000000273cf9
:0a3ff9000000000000000080180026
:2040030000000000000000000000000000000000000000000000e805b001a00000af1f365b
:094023000400000000000004008c
:20402c000000200000000000000000000000000000000000000002bc0c00e4000000a03dc9
:0a404c004280000000000000200088
:2040560000000000000000000000000000000000000000002000e805f001800042a076c0b4
:094076006000000029fa000800b6
:20407f000000000000000000000000000000040000000000040002bc0e00f00000053070b8
:0a409f00c0000020028100000000b4
:2040a90000000000000000000000000000000000000000001000e805b799000008a4f21eee
:0940c90078010000000000000075
:2040d2000800000000000000000000000000000000000000020002bc1c088000000a8bae1f
:0a40f200c280000000000000000082
:2040fc00000000000000000000000000000000000000000000004000e01900080001b3208f
:09411c006c000000000001a21477
:204125000000000000000000000000000000000000000000000000001000f000c00007753e
:0a414500428000000000000040006e
:20414f0000000000000000000000000000000000000000000000aa84a00100000000000081
:09416f006400000829c801d00019
:204178000000200000000000000000000000000000000000080082a80000c0000000000015
:0a41980003c000048282001d000035
:2041a2000000000000000000000000000000000000000000000000000000001002c077c0f4
:0941c200000040000000000001b3
:2041cb0008000000000000000000000000000000000000000000000000000001002ca138c6
:0a41eb0000000400000000000010b6
:2041f5000000000000000000000000000000000000000000000000000001000c000000009d
:0942150000000000000078040024
:20421e008000000000000000000000000000000000000000000000000000800080000003fd
:0a423e004000000000000000a00c8a
:204248000002000000000000000000000000000000000000000000000000008000000000d4
:09426800000000083cc000000049
:204271000000000000000000000000000000000000000000000000000000005000000000dd
:0a4291000000000483c200000000da
:20429b000000000000000000000000000000000000000000000000000800000000000000fb
:0942bb000000000000008000007a
:2042c400000020000000000000000000000000000000000000000000009000000000000228
:0a42e400c000000000000f00000001
:2042ee004000000000000000000000000000000000000000000000000000a00000000020b0
:09430e00000000000000000000a6
:20431700000000000000000000000000000000000000000000000000000000000000000185
:0a433700c24000000000000000007a
:2043410000000000000000000000000000000000000000000000000000000000008057ceb7
:094361003000000000008004049b
:20436a000800000000000000000000000000000000000000000000000000000000001bfc14
:0a438a002400000000000700a080de
:20439400400000000000000000000000000000000000000000000000000e000d40a377064e
:0943b40030003000000001c000df
:2043bd00c0000000000000000000000000000000000000000000000000000000e00a30c145
:0a43dd00c240020000000010000cb6
:2043e7000000000000000000000000000000000000000000000000000000000001008380b2
:094407000000000210d958100059
:204410000000200000000000000000000000000000000000000000000000001000000f004d
:0a443000000000000015f30a000070
:20443a0000000000000000000000000000000014000000004041015fa8000014010f16008b
:09445a00680009122dc170e00098
:2044630000000000000000000000000000000401000000000000017c3f5000416000f04255
:0a4483004007000011c2fd90000088
:20448d000000000000000000000000000000000c000000000010811fc79e0108010f90360f
:0944ad0000000000145f0184000e
:2044b60000000000000000000000000000000000c0000000000000043d09b008c080fd01e6
:0a44d6004000000017c3b000000012
:2044e00000030000000000030000000000000000000000000001806617000000016910142a
:094500000280083014695805001e
:2045090000800000000000000000000000b00000000000004000000aef08000000896d002b
:0a452900001000002bc3f00000009a
:2045330000000000000000000000000000010000000000000000000000000800010f10003f
:094553000002000014f900a100af
:20455c000000200000000000000000000000d000000000000000000000d000000040fd0042
:0a457c00000000800001f0000000c4
:2045860000000000000000000004813fd01f000000000000002128d6a7000c00056990167c
:0945a600000201022de199a100bf
:2045af00000000000000000000000004eb01c000000000000000028d6008000000096100db
:0a45cf000000500011c0f5000000cc
:2045d90000000000000000000000000007800000000000000000015fd98e0000010f17004d
:0945f9000000000394fd70e000d5
:2046020000000000000000000000000000080000000000000002000039100000000f0040f6
:0a462200034000022945d00000000b
:20462c000000000000000000000000000100000000000000001028d6e5000000010f900ecc
:09464c000000000203ef10e00081
:2046550000000000000000000000000000080000000000000000028c307800000800f70008
:0a4675002380200020469180000001
:02467f00000039
:02468100110323
:02468300010133
:20468500000000000000000000000000000000000000000010000000000000000000000005
:0946a5000000000000000000000c
:2046ae000000000000000000000000000000000000000000000000000000000000000000ec
:0a46ce0000000000000000000000e2
:2046d800000000000000000000000000000000000000000020000000000000800000000022
:0946f800000200000000000000b7
:20470100000000000000000000000000000000000000000000000000000000000000000098
:0a472100000000000000000000008e
:20472b0000000000000000000000000000000000000000001000000000000000000000005e
:09474b0000000000000000000065
:20475400000000000000000000000000000000000000000000000000000000000000000045
:0a477400000000000000000000003b
:20477e00000000000008000000000000000000000000000000000000200000000000008073
:09479e0000000000000200000010
:2047a7000000000000000000000000000000000000000000000000000000000000000000f2
:0a47c70000000000000000000000e8
:2047d10000000000000c00000000000030000000000c00000000000030000000000000c090
:0947f100000000000003000000bc
:2047fa0000000000000000000000000000000000000000000000000000000000000000009f
:0a481a000000000000000000000094
:204824000000000000000000000000000000008000000000000000000000000000000000f4
:094844000000000000000000006b
:20484d0000000000000000000000000000000000000000000000000000000000000000004b
:0a486d000000000000000000000041
:204877000000000000000000000000000000008000000000000000000000000000000000a1
:0948970000000000000000000018
:2048a0000000000000000000000000000000000800000000020000000000000800000000e6
:0a48c000000020000000000000804e
:2048ca000000000000080000000000002000000000080000000000002000000000000080fe
:0948ea00000000000002000000c3
:2048f300000000000000000000000000000000000000000000000000002000000000000085
:0a491300000000000000000000009a
:20491d0000000000000000000000000000000000000000000000000000000000000000007a
:09493d0000000000000000000071
:20494600000000000000000000000000000000000000000000000000000000000000000051
:0a4966000000000000000000000047
:20497000000000000000000000000000000000000000000000000000000000000000000027
:094990000000000000000000001e
:204999000000000000000000000000000000000000000000000000000000000000000000fe
:0a49b90000000000000000000000f4
:2049c3000000000000000000000000000000000000000000000000000000000000000000d4
:0949e300000000000000000000cb
:2049ec000000000000000000000000000000000000000000000000000000000000000000ab
:0a4a0c0000000000000000000000a0
:204a160000020000000000000000000000000000000000000000000000000000000000007e
:094a360000000000000000000077
:204a3f00000000000000000000000000000000000000000000000000000000000000000057
:0a4a5f00000000000000000000004d
:204a690000000000000000000000000000000000000000000000000000000000000000002d
:094a890000000000000000000024
:204a92000000300000000000000000000000000000000000000000000000000000000000d4
:0a4ab20000000000000000000000fa
:204abc000000000000000000000000000000000000000000000000000000000000000000da
:094adc00000000000000000000d1
:204ae5000000000000000000000000000000000000000000000000000000000000000000b1
:0a4b050000000000000000000000a6
:204b0f00000000000000000000000000000000000000000000000000000000000000000086
:094b2f000000000000000000007d
:204b380000000000000000000000000000000000000000000000000000000000000000005d
:0a4b58000000000000000000000053
:204b6200000200000000000000000000000000000000000000000000000000000000000031
:094b82000000000000000000002a
:204b8b0000000000000000000000000000000000000000000000000000000000000000000a
:0a4bab000000000000000000000000
:204bb5000000000000000000000000000000000000000000000000000000000000000000e0
:094bd500000000000000000000d7
:204bde000400000000000000000000000000000000000000000000000000000000000000b3
:0a4bfe0000000000000000000000ad
:204c080080000000000000000000000000000000000000000000000000000000000000000c
:094c280000000000000000000083
:204c3100000000000000000000000000000000000000000000000000000000000000000063
:0a4c51000000000000000000000059
:204c5b000c2800000000000000000000000000000000000000000000000000000000000005
:094c7b0000000000000000000030
:204c840004404000000000000000000000000000000000000000000000000000000000008c
:0a4ca4000000000000000000000006
:204cae000000000000000000000000000000000000000000000000000000000000000000e6
:094cce00000000000000000000dd
:204cd7000000000000000000000000000000000000000000000000000000000000000000bd
:0a4cf70000000000000000000000b3
:204d0100000000000000000000000000000000000000000010000000000000000000000082
:094d210000000000000000000089
:204d2a00000030000000000000000000000000000000000002000000000000000000000037
:0a4d4a00000000000000000000005f
:204d540000000000000000000000000000000000000000000000000000000000000000003f
:094d740000000000000000000036
:204d7d00000000000000000000000000000000000000000000000000000000000000000016
:0a4d9d00000000000000000000000c
:204da70080000000000000000000000000000000000000000000000000000000000000006c
:094dc700000000000000000000e3
:204dd0000000000000000000000000000000000000000000000000000000000000000000c3
:0a4df00000000000000000000000b9
:204dfa00000200000000000000000000000000000000000080000000000000000000000017
:094e1a000000000000000000008f
:204e2300000008000000000000000000000000000000000000000000000000000000000067
:0a4e43000000000000000000000065
:204e4d00000000000000000000000000000000000000000000000000000000000000000045
:094e6d00000000000000108000ac
:204e760000000000000000000000000000000000000000000000000000000000000000001c
:0a4e96000000000000000801000009
:204ea000800000000000000000000000000000000000000000000000000000000000000072
:094ec00000000002a810008000af
:204ec9000000000000000000000000000000000000000000000000000000000000000000c9
:0a4ee90000000000aa85e019000097
:204ef30000000000000000000000000000000000000000000000000000000000000000009f
:094f130000000003c000000000d2
:204f1c0000000800000000000000000000000000000000000000000000000000000000006d
:0a4f3c0000000000c3c5a000000043
:204f4600000300000000000000000000000000000000000000000000000040000000000008
:094f660000000003c0000000007f
:204f6f00000000000000000000000000000000000000000000000000000002100000000010
:0a4f8f0000000000c3c5e0000000b0
:204f99000000000000000000000000000000000000000000000000000000000000000000f8
:094fb90000000003c0100000001c
:204fc2000000100000000000000000000000000000000000000000000000000000000000bf
:0a4fe20000000000c3c4a018000086
:204fec000000000000000000000000000000000000000000000000000000000000000000a5
:09500c0000000003c010100000b8
:2050150000000000000000000000000000000000000000000000000000000000000000007b
:0a50350000000000c3c4a9800000c1
:20503f008000000000000000000000000000000000000000000000000000000000000000d1
:09505f0000000003c00000000184
:20506800000000000000000000000000000000000000000000000000000000000000000028
:0a50880000000000c3c4e0000010a7
:205092000000000000000000000000000000000000000000000000000000000000000000fe
:0950b20000000083c00000d000e2
:2050bb000000000000000000000000000000000000000000000000000000000000000000d5
:0a50db0000000000c3c4e001000063
:2050e5000000000000000000000000000000000000000000000000000000000000000000ab
:0951050000000003c0100080004e
:20510e0004000000000000000000000000000000000000000000000000000000000000007d
:0a512e0000000000c3c5e18100008d
:205138008000000000000000000000000000000000000000000000000000000000000000d7
:0951580000000003c010008000fb
:2051610000000000000000000000000000000000000000000000000000000000000000002e
:0a51810000000000c3c5a0190000e3
:20518b000800000000000000000000000000000000000000000000000000000000000000fc
:0951ab0000000003c00000000038
:2051b400048000000000000000000000000000000000000000000000000000000000000057
:0a51d40000000000c3c5a0000000a9
:2051de000002000000000000000000000000000000000000000000000000000000000000af
:0951fe0000000003c000000000e5
:20520700000000000000000000000000000000000000000000000000000000000000000087
:0a52270000000000c3c5e000000015
:2052310000000000000000000000000000000000000000000000000000000000000000005d
:0952510000000003c01010000071
:20525a000040300000000000000000000000000000000000000000000000000000000000c4
:0a527a0000000000c3c4a8180000e3
:205284000040000000000000000000000000000000000000000000000000000000000000ca
:0952a40000000003c0101000001e
:2052ad000003000000000000000000000000000000000000000000000000000000000000de
:0a52cd0000000000c3c4a980000027
:2052d7000000000000000000000000000000000000000000000000000000000000000000b7
:0952f70000000003c000000001ea
:2053000000000000000000000000000000000002000000000000000000000000000000008b
:0a53200000000000c3c4e00000100c
:20532a000002000000000000000000000000000000000000800000000000010000000000e0
:09534a0000000083c00000e00037
:20535300000000000000000000000000000000000000000000000000000000080000000032
:0a53730000000000c3c4e0000000c9
:20537d0000000000000000000000000000000000000000000000000000090000000203dc26
:09539d0000000003c010008000b4
:2053a60000000000000000000000000000000000000000000000000000001000040a27aef4
:0a53c60007000000c3c5e1810000ec
:2053d0008000000000000000000000000000000000000000000000000980000000030a4463
:0953f00040000003c01000800021
:2053f90000000000000000000000000000000000000000000000000000b0e000040015a249
:0a54190002000000c3c5a0191c002a
:205423000000000000000000000000000000000000000000000020fee009000000000680dc
:0954430038000003c00000000065
:20544c00000000000000000000000000000000000000000000000804c9001000040041e82e
:0a546c0000400000c3c5a0000000ce
:205476000000000000000000000000000000000000000000000000000f10000010e5064cb0
:0954960000000003c00000d0007a
:20549f0000000000000000000000000000000000000000000000000000018000140805bc8f
:0a54bf0000000000c3c5e00100007a
:2054c90002000000000000000000000000000000000000000000000005000040000508244b
:0954e90020000003c010100000b7
:2054f200000000000000000000000000000000000000000000000000008000080000556b52
:0a55120042c00000c3c4a818000046
:20551c000000000000000000000000000000000000000000000000000000000c000a0a80cf
:09553c0028002003c0101000003b
:2055450000000000000000000000000000000000000000000000000000000000c020016df8
:0a556500c2800300c3c4a980000047
:20556f008000000000000000000000000000000000000000000000000000001400209a1eb0
:09558f0034005003c000000001cb
:2055980000000000000000000000000000000000000000000000000000000001404009f574
:0a55b800e7400500c3c4e000001442
:2055c20000000000000000000000000000000000000000000000008e800f00800000003cf0
:0955e20040000083c0000002003b
:2055eb0000000000000000000000000000000000000000000000089b6c000000000000038e
:0a560b00c7000000c3c4e000400027
:20561500000000000000000000000000000000000000000000000000008d00000010f7f4ed
:0956350060000003c01001000038
:20563e000000000000000000000000000000000000000000000000000038d000000001ae95
:0a565e0006400000c3c5e1980000fb
:20566800800000000000000300000000000000000000000000000016b909000000000b0eae
:095688003c000003c0100000000a
:205691000000000000000000000000000000000000000000000000417b8080000000a16e2e
:0a56b10040400000c3c5a000000047
:2056bb000000000000000000000000000000000000000000000000a5e0000001140308002a
:0956db00280000003c000800005a
:2056e4000000000000000000000000000000000000000000000000117e00800034403100f2
:0a57040002c0000043c481800000d1
:20570e00000200000000000000000000000000000000000000003fc1e0000000008b00000e
:09572e00280000003c0001e0002d
:205737000000000000000000000000000000000000000000000103f9ee0000000c08b3b8e8
:0a5757000000000043c580180000a8
:20576100000000000000000000000000000000000000000000000000cb0e0800008307823b
:095781002c0000003c1010000097
:20578a00000030000000000000000000000000000000000000010101e9b9a000040017bdb2
:0a57aa004000000043c4a800000006
:2057b400000000000000000000000000000000000000000000000036a0000000803c00162d
:0957d400028000003c000000000e
:2057dd000000000000000000000000000000000000000000000000437a00a0000403c00088
:0a57fd00e010000043c4c580000066
:2058070080000000000000000000000000000000000000000000000000000000008d740000
:09582700340000003c10500001a7
:20583000000000000000000000000000000000000000000000000000000000000008d36815
:0a5850000040000043c5881a001450
:20585a00000200000000000000000000000000000000000080000000000f000000050c0686
:09587a000000000001d000a000b4
:20588300000000000000000000000000000000000000000000000000005010000000512a2a
:0a58a300600000004021c001000079
:2058ad0000000000000000000000000000000000000000000004008fc91000428c0203405c
:0958cd00428004016f6f10a0007d
:2058d600000000000000000000000000000000000000000000000810c980a0003c005360c2
:0a58f6000210000009749d8b0000f1
:20590000000000000000000000013fc00000000000000000000000000780808000050804ef
:0959200034020200080e10000020
:205929000000000000000000000033fc00000000000000000000000000f180100000552a2f
:0a59490000401010805e1fa800004f
:205953000000000000000000000000000000000000000000000000000010200000a552c04d
:0959730040000e53d03f50a0008b
:20597c000000000000000000000000000000000000000000000000000000a540100855f8c1
:0a599c00660700123f8fe01980003b
:2059a600000200000000000000000000000000000000000000000041b70e000080690402ea
:0959c6003c000000002e0002006c
:2059cf00000000000000000000000000000000000000000004010810ee81d000000697615e
:0a59ef00e04000100406c01e400056
:2059f9000000000000000000000000000000000000000000000028c600000000004e52c040
:095a1900c000000004c0500000b0
:205a220000003000000000000000000000000000000000008000428f785800000808d580ae
:0a5a420002800000006fef0eb000bc
:205a4c0000000000000000000000000000001c0000000000000000000080000c10a30834a3
:095a6c0024000000035a010000af
:205a7500c000000000000000000000000000000000000000000000000038a000c40a33f088
:0a5a9500000000000427f19c000c43
:205a9f000000000000000000000000000000000000000000000028c2001855700000fa0c1a
:095abf002c0000000000090001a8
:205ac80040000000000000000000000000000000000000000001028d6a00b203400841ef57
:0a5ae8006680000000000388001033
:205af20008020000000000000000000000000000000000000000005feb000001000196b4f4
:095b120000000000000000a008e2
:205b1b00000000000000000000000000000000000000000000000203ee800000000a1534a4
:0a5b3b00000000000000000100401f
:205b45000000000000000000000000000f8000000000000000000001b10000000001fb8083
:095b6500740002000c6c00000049
:205b6e0000000000000000000000000000b800000000000000010a106f8000000008017cd0
:0a5b8e0002c000008036a5000000f0
:205b9800000000000000000000000000008e000000000000000028c300800000000f002cb9
:095bb80002000000054b08a000ea
:205bc10000000000000000000000000000781000000000000003028cf83800800000f10208
:0a5be10000200000203681010000c2
:205beb00000000000000000000000000000000000000000000000075f0884000000fb0149a
:095c0b00000000000a580000002e
:205c14000000000000000000000000000000000000000000000002026f5010000010f1029a
:0a5c3400000000008136c0000000ef
:205c3e0000020000000000000080007df70000000000000000000001f00d8000000fb00013
:095c5e0040000000000050b400f9
:205c6700000000000000000000000813de8000000000000000010a107a0010000010f901f5
:0a5c8700660000000000001b801002
:205c91000000000000000000000000000000000000000000002011c0df000020040f1000e0
:095cb10000000000000009900051
:205cba0000003000000000000000000000000000000000000001022ce180a0000010f90061
:0a5cda00000000000000010b0000b4
:205ce400082c0000000000000000000000000008000000000000007db01e0008000f5000b2
:095d040040000000000a0000024a
:205d0d00c4800000000000000000000000000000c0000000000002007a18b0008010f100ad
:0a5d2d0006000010a11c950a002cce
:205d37008000000000000000000000000000001000000000000000b5a50a0090000f300089
:095d5700405008028c30090001e3
:205d6000000000000000000000000000000000030000000000000a035899b0014010f10030
:0a5d80000628001028de818a0014b6
:205d8a00000200000000000000000000000c0000000000008000007fa7000000200f000412
:095daa0000000000054811900002
:205db3000400000000000000000000000000000000000000000002005bd800000010f12274
:0a5dd30006800000203c8808000054
:025ddd000000c4
:035ddf0062003f20
:035de200720080cc
:025de5001100ab
:035de70082000037
:025dea000103b3
:085dec000000000000000000af
:085df4000000000000000000a7
:085dfc0000000000000000009f
:085e0400000000000000000096
:0261ec000000b1
:0361ee00820080ac
:0261f1000103a8
:0861f3000000000000000000a4
:0861fb0000000000000000009c
:08620300000000000000000093
:08620b0000000000000000008b
:0265f3000000a6
:0265f500110192
:0365f7008200001f
:0265fa0001039b
:0865fc00000000000000000097
:0866040000000000000000008e
:08660c00000000000000000086
:0866140000000000000000007e
:0269fc00000099
:0369fe0082008094
:026a010001038f
:086a030000000000000000008b
:086a0b00000000000000000083
:086a130000000000000000007b
:086a1b00000000000000000073
:026e030000008d
:026e0500110278
:036e070082000006
:026e0a00010382
:086e0c0000000000000000007e
:086e1400000000000000000076
:086e1c0000000000000000006e
:086e2400000000000000000066
:02720c00000080
:03720e008200807b
:02721100010377
:08721300000000000000000073
:08721b0000000000000000006b
:08722300000000000000000063
:08722b0000000000000000005b
:02761300000075
:0276150011035f
:03761700820000ee
:02761a0001036a
:08761c00000000000000000066
:0876240000000000000000005e
:08762c00000000000000000056
:0876340000000000000000004e
:027a1c00000068
:037a1e0082008063
:027a210001035f
:087a230000000000000000005b
:087a2b00000000000000000053
:087a330000000000000000004b
:087a3b00000000000000000043
:027e230000005d
:017e2500223a
:027e2600ed4528
:027e2800010651
:00000001FF
