:02000000ff00ff
:080002004c6174746963650030
:17000a00694345637562653220323032302e31322e32373934330071
:15002100506172743a2069434534304c50314b2d514e38340034
:1b003600446174653a204a756e20313520323032322031383a35393a35380066
:0200510000ffae
:040053007eaa997e6a
:02005700510056
:0200590001059f
:03005b0092000010
:03005e0062014bf1
:030061007200909a
:0300640082000017
:02006700110086
:02006900010193
:20006b00000000000000000000000000000000000000000000000000000000000000000075
:09008b00000000800000000000ec
:2000940000000000000000000000000000000000000000000000000000000000000000004c
:0a00b4000000000000000000000042
:2000be00000000000000000000000000000000000000000000000000000000001000000012
:0900de00000000400700000000d2
:2000e7000000000000000000000000000000000000000000000000000000000000000000f9
:0a01070000000000000000000000ee
:200111000000000000000000000000000000000000000000000000000000000000000000ce
:0901310000000080000003000042
:20013a000000000000000000000000000000000000000000000000000000000000000000a5
:0a015a00000000000000001000008b
:200164000000000000040000000000001000000000000040000000001000000000000040d7
:0901840000000000000100000071
:20018d00000000000000000000000000000000000000000000000000000000000000000052
:0a01ad000000000000000000000048
:2001b70000000000000c00000000000030000000000000c00000000030000000000000c03c
:0901d7000000000000020000001d
:2001e0000000000000000000000000000000000000000000000000000000000000000000ff
:0a02000000000000000000000000f4
:20020a000000000000000000000000000000000000000000000000000000000000000000d4
:09022a00000000000000000000cb
:200233000000000000000000000000000000000000000000000000000000000000000000ab
:0a02530000000000000000000000a1
:20025d00000000000000000000000000000000000000000000000000000000000000000081
:09027d0000000000000000000078
:20028600000000000000000000000000000000000000000000004000000000000100000017
:0a02a600000000040000000000004a
:2002b00000000000000400000000000010000000000000400000000010000000000000408a
:0902d000800000000001000000a4
:2002d900000000000000000000000000000000000000000000000000000000000000000005
:0a02f90000000000000000000000fb
:200303000000000000000000000000000000000000000000000000000000000000000000da
:09032300000000000000000000d1
:20032c00000020000000000000000000000000000040000000000000000000000000000051
:0a034c0000000000000000000000a7
:20035600000000000000000000000000000000000000000000000000000000000000000087
:090376000000000000000000007e
:20037f0000000000000000000000000000000000000000000000000000000000000000005e
:0a039f000000000000000000000054
:2003a900000000000000000000000000000000000000000000000000000000000000000034
:0903c9000000000000000000002b
:2003d20000000000000000000000000000000000000000000000000000000000000000000b
:0a03f2000000000000000000000001
:2003fc000003000000000000000000000000000000000000000000000000000000000000de
:09041c00000000000000000000d7
:200425000000000000000000000000000000000000000000000000000000000000000000b7
:0a04450000000000000000000000ad
:20044f0000000000000000000000000000000000000000000000000000000000000000008d
:09046f0000000000000000000084
:20047800000020000000000000000000000000000000000000000000000000000000000044
:0a049800000000000000000000005a
:2004a20000000000000000000000000000000000000000000000000000000000000000003a
:0904c20000000000000000000031
:2004cb00000000000000000000000000000000000000000000000000000000000000000011
:0a04eb000000000000000000000007
:2004f5000000000000000000000000000000000000000000000000000000000000000000e7
:09051500000000000000000000dd
:20051e000000000000000000000000000000000000000000000000000000000000000000bd
:0a053e0000000000000000000000b3
:20054800000000000000000000000000000000000000000000000000000000000000000093
:090568000000000000000000008a
:2005710000000000000000000000000000000000000000000000000000000000000000006a
:0a0591000000000000000000000060
:20059b00400000000000000000000000000000000000000000000000000000000000000000
:0905bb0000000000000000000037
:2005c4000000200000000000000000000000000000000000000000000000000000000000f7
:0a05e400000000000000000000000d
:2005ee000000000000000000000000000000000000000000000000000000000000000000ed
:09060e00000000000000000000e3
:200617000800000000000000000000000000000000000000000000000000000000000000bb
:0a06370000000000000000000000b9
:20064100440000000000000000000000000000000000000000000000000000000000000055
:0906610000000000000000000090
:20066a0000c0000000000000000000000000000000000000000000000000000000000000b0
:0a068a000000000000000000000066
:20069400000300000000000000000000000000000000000000000000000000000000000043
:0906b4000000000000000000003d
:2006bd0000000000000000000000000000000000000000000000000000000000000000001d
:0a06dd000000000000000000000013
:2006e700000000000000000000000000000000008000000000000000000000000000000073
:09070700000000000000000000e9
:200710000000200000000000000000000000000000000000000000000000000000000000a9
:0a07300000000000000000000000bf
:20073a0000300000000000000000000000000000000000000000000000000000000000006f
:09075a0000000000000000000096
:20076300000000000000000000000000000000000000000000000000000000000000000076
:0a078300000000000000000000006c
:20078d0000000000000000000000000000000000000000000000000000000000000000004c
:0907ad00000000800000000000c3
:2007b600000000000000000000000000000000000000000000000000000000000000000023
:0a07d6000000000400000000000015
:2007e0000000000000000000000000000000000000000000000000000000000000000000f9
:09080000000000000000000000ef
:200809000000000000000000000000000000000000000000000000000000000000000000cf
:0a08290000000000000000000000c5
:200833000000000000000000000000000000000000000000000000000000000000000000a5
:090853000000000000000000009c
:20085c0000002000000000000000000000000000004000000000000000000000000000001c
:0a087c000000000000000000000072
:20088600000000000000000000000000000000000000000000000000000000000000000052
:0908a60000000000000000000049
:2008af00080000000000000000000000000000000000000000000000000000000000000021
:0a08cf00000000000000000000001f
:2008d9000000000000000000000000000000000000000000000000000000000000000000ff
:0908f900000000000000000000f6
:200902000000000000000000000000000000000000000000000000000000000000000000d5
:0a09220000000000000000000000cb
:20092c000003000000000000000000000000000000000000000000000000000000000000a8
:09094c00000000000000000000a2
:2009550000000000000000000000000000000000000000000000000000000000002800005a
:0a0975000000000000000000000078
:20097f00000000000000000000000000000000000000000000000000000000000000000058
:09099f000000000000000000004f
:2009a80000002000000000000000000000000000000000000000000000000000000000000f
:0a09c8000000000000000000000025
:2009d200000000000000000000000000000000000000000000000000000000000000000005
:0909f200000000000000000000fc
:2009fb000000000000000000000000000000000000000000000000000000000000000000dc
:0a0a1b0000000000000000000000d1
:200a25000000000000000000000000000000000000000000000000000000000000000000b1
:090a4500000000000000000000a8
:200a4e00000000000000000000000000000000000000000000000000000000000000000088
:0a0a6e00000000000000000000007e
:200a780000000000000000000000000000000000000000000000000000000000000000005e
:090a980000000000000000000055
:200aa100000000000000000000000000000000000000000000000000000000000000000035
:0a0ac100000000000000000000002b
:200acb0000000000000000000000000000000000000000000000000000000000000000000b
:090aeb0000000000000000000002
:200af4000000200000000000000000000000000000000000000000000000000000000000c2
:0a0b140000000000000000000000d7
:200b1e000000000000000000000000000000000000000000000000000000000000000000b7
:090b3e00000000000000000000ae
:200b4700080000000000000000000000000000000000000000000000000000000000000086
:0a0b67000000000000000000000084
:200b7100000000000000000000000000000000000000000000000000000000000000000064
:090b91000000000000000000005b
:200b9a0000000000000000000000000000000000000000000000000000000000000000003b
:0a0bba000000000000000000000031
:200bc40000030000000000000000000000000000000000000000000000000000000000000e
:090be40000000000000000000008
:200bed000000000000000000000000000000000000000000000000000000000000000000e8
:0a0c0d0000000000000000000000dd
:200c17000000000000000000000000000000000000000000000000000000000000000000bd
:090c3700000000000000000000b4
:200c4000000020000000000000000000000000000000000000000000000000000000000074
:0a0c6000000000000000000000008a
:200c6a0000000000000000000000000000000000000000000000000000000000000000006a
:090c8a0000000000000000000061
:200c9300000000000000000000000000000000000000000000000000000000000000000041
:0a0cb3000000000000000000000037
:200cbd00000000000000000000000000000000000000000000000000000000000000000017
:090cdd000000000000000000000e
:200ce6000000000000000000000000000000000000000000000000000000000000000000ee
:0a0d060000000000000000000000e3
:200d10000000000000000000000000000000000000000000000000000000000000000000c3
:090d3000000000000000000000ba
:200d390000000000000000000000000000000000000000000000000000000000000000009a
:0a0d59000000000000000000000090
:200d6300000000000000000000000000000000000000000000000000000000000000000070
:090d830000000000000000000067
:200d8c00000000000000000000000000000000000040000000000000000000000000000007
:0a0dac00000000000000000000003d
:200db6000068000000000000000000000000000000000000000000000000000000000000b5
:090dd60000000000000000000014
:200ddf000800000000000000000000000000000000000000000000000000000000000000ec
:0a0dff0000000000000000000000ea
:200e09000000000000000000000000000000000000000000000000000000000000000000c9
:090e2900000000000000000000c0
:200e3200080000000000000000000000000000000000000000000000000000000000000098
:0a0e52000000000000000000000096
:200e5c00000100000000000000000000000000000000000000000000000000000000000075
:090e7c000000000000000000006d
:200e850000000000000000000000000000000000000000000001000000000000000000004c
:0a0ea5000000000000000000000043
:200eaf00000000000000000000000000000000000000000000000000000000000000000023
:090ecf000000000000000000001a
:200ed8000000200000000000000000000000000000000000000000000000000000000000da
:0a0ef80000000000000000000000f0
:200f020040000000000000000000000000000000000000000000000000000000000000008f
:090f2200000000000000000000c6
:200f2b0000c0000000000000000000000000000000000000000000000000000000000000e6
:0a0f4b00000000000000000000009c
:200f550000000000000000000000000000000000000000000000000000000000000000007c
:090f750000000000000000000073
:200f7e0008000000000000000000000000000000000000000000000000000000000000004b
:0a0f9e000000000000000000000049
:200fa8004000000000000000000000000000000000000000000000000000000000000000e9
:090fc80000000000000000000020
:200fd100000000000000000000000000000000000000000000000000000000000000000000
:0a0ff10000000000000000000000f6
:200ffb000000000000000000000000000000000000000000000000000000000000000000d6
:09101b00000000000000000000cc
:2010240000002000000000000000000000000000000000000000000000000000000000008c
:0a10440000000000000000000000a2
:20104e00000000000000000000000000000000000000000000000000000000000000000082
:09106e0000000000000000000079
:20107700000000000000000000000000000000000030000000000000000000000000000029
:0a109700000000000000000000004f
:2010a10000000000000000000000000000000000000000000000000000000000000000002f
:0910c10000000000000000000026
:2010ca00000000000000000000000000000000000000000000000000000000000000000006
:0a10ea0000000000000000000000fc
:2010f4000003000000000000000000000000000000000000000000000000000000000000d9
:09111400000000000000000000d2
:20111d000000000000000000000000000000000000000000000000000000000000000000b2
:0a113d0000000000000000000000a8
:20114700000000000000000000000000000000000000000000000000000000000000000088
:091167000000000000000000007f
:2011700000002000000000000000000000000000000000000000000000000000000000003f
:0a1190000000000000000000000055
:20119a00000000000000000000000000000000000000000000000000000000000000000035
:0911ba000000000000000000002c
:2011c30000000000000000000000000000000000000000000000000000000000000000000c
:0a11e3000000000000000000000002
:2011ed000000000000000000000000000000000000000000000000000000000000000000e2
:09120d00000000000000000000d8
:201216000000000000000000000000000000000000000000000000000000000000000000b8
:0a12360000000000000000000000ae
:2012400000000000000000000000000000000000000000000000000000000000000000008e
:0912600000000000000000000085
:20126900000000000000000000000000000000000000000000000000000000000000000065
:0a128900000000000000000000005b
:2012930000000000000000000000000000000000000000000000000000000000000000003b
:0912b30000000000000000000032
:2012bc000000200000000000000000000000000000400000000000000000000000000000b2
:0a12dc000000000000000000000008
:2012e6000000000000000000000000000000000000000000000000000000000000000000e8
:09130600000000000000000000de
:20130f000000000000000000000000000000000000000000000000000000000000000000be
:0a132f0000000000000000000000b4
:20133900000000000000000000000000000000000000000000000000000000000000000094
:091359000000000000000000008b
:2013620000000000000000000000000000000000000000000000000000000000000000006b
:0a1382000000000000000000000061
:20138c0000030000000000000000000000000000000000000000000000000000000000003e
:0913ac0000000000000000000038
:2013b500000000000000000000000000000000000000000000000000000000000010000008
:0a13d500000000000000000000000e
:2013df000000000000000000000000000000000000000000000000000000000000000000ee
:0913ff00000000000000000000e5
:201408000000200000000000000000000000000000000000000000000000000000000000a4
:0a14280000000000000000000000ba
:2014320000000000000000000000000000000000000000000000000000000000000000009a
:0914520000000000000000000091
:20145b00000000000000000000000000000000000000000000000000000000000000000071
:0a147b000000000000000000000067
:20148500000000000000000000000000000000000000000000000000000000000000000047
:0914a5000000000000000000003e
:2014ae0001000000000000000000000000000000000000000000000000000000000000001d
:0a14ce000000000000000000000014
:2014d8000000000000000000000000000000000000000000000000000000000000000000f4
:0914f800000000000000000000eb
:201501000000000000000000000000000000000000000000000000000000000000000000ca
:0a15210000000000000000000000c0
:20152b00400000000000000000000000000000000000000000000000000000000000000060
:09154b0000000000000000000097
:20155400000020000000000000000000000000000000000000000000000000000000000057
:0a157400000000000000000000006d
:20157e0000000000000000000000000000000000000000000000000000000000000000004d
:09159e0000000000000000000044
:2015a70008000000000000000000000000000000000000000000000000000000000000001c
:0a15c700000000000000000000001a
:2015d1004000000000000000000000000000000000000000000000000000000000000000ba
:0915f100000000000000000000f1
:2015fa000000000000000000000000000000000000000000000000000000000000000000d1
:0a161a0000000000000000000000c6
:201624000003000000000000000000000000000000000000000000000000000000000000a3
:091644000000000000000000009d
:20164d0000000000000000000000000000000000000000000000000000000000000000007d
:0a166d000000000000000000000073
:20167700000000000000000000000000000000000000000000000000000000000000000053
:091697000000000000000000004a
:2016a00000002000000000000000000000000000000000000000000000000000000000000a
:0a16c0000000000000000000000020
:2016ca00000000000000000000000000000000000000000000000000000000000000000000
:0916ea00000000000000000000f7
:2016f3000000000000000000000000000000000000000000000000000000000000000000d7
:0a17130000000000000000000000cc
:20171d000000000000000000000000000000000000000000000000000000000000000000ac
:09173d00000000000000000000a3
:2017460008000000000000000000000000000000000000000000000000000000000000007b
:0a1766000000000000000000000079
:20177000000000000000000000000000000000000000000000000000000000000000000059
:0917900000000000000000000050
:20179900000000000000000000000000000000000000000000000000000000000000000030
:0a17b9000000000000000000000026
:0217c300000024
:0217c500110110
:0217c70001011e
:2017c9000000020000000000000800000000000020000000000000000000000000000000d6
:0917e900000000000000000000f7
:2017f2000000000000000000000000000000000000000000000000000000000000000000d7
:0a18120000000000000000000000cc
:20181c00000001000000000000040000000000001000000000040000000000000000000093
:09183c00000000000000000000a3
:20184500000000000000000000000000000000000000000000000000000000000000000083
:0a1865000000000000000000000079
:20186f000000020000000000000800000000000020020000800000000000000000000000ad
:09188f0000000000000000000050
:2018980000000000000000c0000000000000000000003c000c000000000000000000000028
:0a18b8000000000000000000000026
:2018c20000000000000400000000000010000000000000400004000010000000000000405e
:0918e200000000000001000000fc
:2018eb000000000000000000000000000000000000000000000000000000000000000000dd
:0a190b0000000000000000000000d2
:2019150000000000000c00000000000030000000000000c00000000020000000000000c0d6
:09193500000000000003000000a6
:20193e00000000000000000000000000000000000000000000000000000000000000000089
:0a195e00000000000000000000007f
:2019680000000000000000000000000000000000000000000000000000000000000000005f
:0919880000000000000000000056
:20199100000000000000000000000000000000000000000000000000000000000000000036
:0a19b100000000000000000000002c
:2019bb00000000000e000000000000000000000000000000000000000000000000000000fe
:0919db0000000000000000000003
:2019e400000000000020000000000000000000000100000000004000000000000100000081
:0a1a040000000004000000000000d4
:201a0e00000000000004000000000000100000000000004000000000100000000000004014
:091a2e00000000000001000000ae
:201a370000000000000000000000000000000000000000000000000000000000000000008f
:0a1a5700060000000000000000007f
:201a6100000000000000000000400000000000000000000000000000000000000000000025
:091a81000000000000000000005c
:201a8a000000000000000000000c0000000000000000000000000000000000000000000030
:0a1aaa000000000000000000000032
:201ab400000000000000000000000000000000000000000000000000000000000000000012
:091ad40000000000000000000009
:201add000000000000000000000000040000000000000000000000000000000000000000e5
:0a1afd0000000000000000000000df
:201b07000000000000000000000000c000000000018000000000000000000000000000007d
:091b2700000000000000000000b5
:201b3000000000000000000000000020000000000000000000000000000000000000000075
:0a1b5000000000000000000000008b
:201b5a00000200000000000000000003400000000000000000000000000000000000000026
:091b7a0000000000000000000062
:201b830000000000000000000000000004000000000000000000000000000000000000003e
:0a1ba3000000000000000000000038
:201bad00000000000000000000000000000000000000000000000000000000000000000018
:091bcd000000000000000000000f
:201bd6000000300000000000000000000000000000000000000000000000000000000000bf
:0a1bf60000000000000000000000e5
:201c0000000000000000000000400040000000000000000000000000000000000000000044
:091c2000000000000000000000bb
:201c29000000000000000000000c002000000000000000000000000000000000000000006f
:0a1c49000000000000000000000091
:201c5300000000000000000000a000000000000000000000000000000000000000000000d1
:091c730000000000000000000068
:201c7c000000000000000000000a000000000000000000000000000000000000000000003e
:0a1c9c00000000000000000000003e
:201ca600000200000000000000000000000550c00000000000000000000000000000000007
:091cc60000000000000000000015
:201ccf00000000000000000000000000014855400000000000000000000000000000000017
:0a1cef0000000000000000000000eb
:201cf9000000000000a7036c01c000400200000000000000000000000000000000000000b2
:091d1900000000000000000000c1
:201d22000000000005810039c08c003c00e0008000000000000040000000000000000000ba
:0a1d42000000000000000000000097
:201d4c0000000000100d610001000040060f50000000000000000000000000000000000053
:091d6c000000000000000000006e
:201d7500000000000000dae800000026016805c00000000000000000000000000000000038
:0a1d95000000000000000000000044
:201d9f00000000005000000000000002140f5000000000000000000000000000000000005f
:091dbf000000000000000000001b
:201dc800000000000800000000000000016805c000000000000000000000000000000000c5
:0a1de80000000000000000000000f1
:201df2000002000050a9400004000000040f5000000000000000000000000000000000002f
:091e1200000000000000000000c7
:201e1b0000000000099b32200080000001e805c00000000000000000000000000000000083
:0a1e3b00000000000000000000009d
:201e4500000000001099350000000002160f50000000000000000000000000000000000028
:091e650000000000000000000074
:201e6e0000003000081f930000000006054805c00000000000000000000000000010000042
:0a1e8e00000000000000000000004a
:201e98000000000008800000000001e2060f5000000000000000000000000000000000005a
:091eb80000000000000000000021
:201ec10000000000410000000000001e654805c00000000000000000000000000000000030
:0a1ee10000000000000000000000f7
:201eeb0000000000f90f200000a00000140f5000000000000000000000000000000000009c
:091f0b00000000000000000000cd
:201f140000000000090eff420002000001c805e00000000000000080000000000100000024
:0a1f340000000000000000000000a3
:201f3e000002000098957400010001c0040f50400400000000000000000000000000000077
:091f5e000000000000000000007a
:201f670000000000098a16820000000001c805c000000000000000000000000000000000a1
:0a1f87000000000000000000000050
:201f9100004000000180c28000400040160f50000000000000000000340b500000000000a9
:091fb10000000000000000000027
:201fba0000028000000837a80044002e63e805c00000000000000000024af52200000000b9
:0a1fda0000000000000000000000fd
:201fe40000000000008b81a8020000401e0f500000000000000000043c000000000000002a
:09200400000000000000000000d3
:20200d0000000000001bfea150800126036805c0000000000000001c3160a5000000000080
:0a202d0000000000000000000000a9
:20203700000000005089416800000000140f5000000000000000024014000100000000003d
:0920570000000000000000000080
:20206000000000000d9b970280000000036805c0000000000000000003dca02000000000d0
:0a2080000000000000000000000056
:20208a0000020000f09b6284000020001c0f50000000000000000000000000000000000028
:0920aa000000000000000000002d
:2020b30000000000000186148000000003e805c00000000000000000000000000000000042
:0a20d3000000000000000000000003
:2020dd00000000009103740000004142160f5000000000000000034340000000000000005d
:0920fd00000000000000000000da
:2021060000003000080ebbe000000006074805c0000000000000002004000000000000009a
:0a21260000000000000000000000af
:202130000c000000000d8314800060021e0f50100000000000000000050850900020000063
:0921500000000000000000000086
:2021590004c000000000f6a154800004674805c00000000000000014005a0002002000002f
:0a21790000000000e000000000007c
:20218300800008001109414000a000c3d40f50000000000000000000150af0000000000074
:0921a30000000000000000000033
:2021ac0000000280080e97028002002003c805c00100000000000000020e5f000000000040
:0a21cc000000000000000000000009
:2021d600000200001001a328000000041d9f500000000000000001400000000000000000ba
:0921f600000000000000000000e0
:2021ff000400000008007ed15010000073c905c000000000000000140000000000000000f0
:0a221f0000000000000000000000b5
:2022290000003000000000000000e246fdee30000000000000000040010f30000000005052
:0922490000040000000000000088
:202252000000030001000000000000203aeac3008000000000000020000cf31200000001af
:0a22720002940000000000000000cc
:20227c008000008008000000000003400000000000000000000000400d0500100000000095
:09229c0000000000000000000039
:2022a5000000001007000000000000060000000000000000000000060208a020000000002c
:0a22c500000000000000000000000f
:2022cf000000000000000000000003e6470d920000000000000002c01400e010000000005a
:0922ef00000000000000000000e6
:2022f800000000000000000000000426767ea5420000000000000e1e01da000200000000b8
:0a23180000000000000000000000bb
:202322000000400000f00000000002664205028000000000000001c38d0000000380000066
:0923420000000000000000000092
:20234b0000000400000100000000003c64ec5001000000000000002007c8a0000000000001
:0a236b000000000000000000000068
:202375000000000000000000000000003400000002800000000080001508b1000000000044
:092395000000000000000000003f
:20239e00000030000000000000000000006e8002000000000000001401c80202000000001e
:0a23be000000000000000000000015
:2023c800000010001000000000000002ac84000000000000000000400d000000000b00004b
:0923e800000000000000000000ec
:2023f1000000030008000000000000047a5c0000000000000000002003c8a000000000005c
:0a24110000000000000000000000c1
:20241b00800028000000000000a003c3aee00000000000000020000014e850000000000099
:09243b0000000000000000000098
:2024440000000280000000000002002604cd8000001000000002020001cd454000300000e6
:0a246400000000000000000000006e
:20246e00000000000000015410000160000000000600000000000042cc9e7000000700005f
:09248e0000000000000000000045
:2024970000000010000052155000002e000000000000000000000000295c854000000000e6
:0a24b700000000000000000000001b
:2024c100000030005000000000000023a69c52100020000000000003800ff2000000000010
:0924e100000000000420000000ce
:2024ea0000000100018050002000001c0179454000010000000000000400ff1000000000b1
:0a250a000000000002004000000085
:2025140098000000100383d40000000245ab52000000000000000020340ff00010000000fe
:0925340000000000040020550025
:20253d00000000000980da017000001c07698140000000000000000400405a280000000097
:0a255d000000000002601e8554001b
:2025670000000000500703d400000263400f300420000000000001c0148990000000000030
:09258700000000000000000f003c
:20259000000000000000fa017000062e7018f3020100000000000020000166600000000027
:0a25b000000000000000168f0c0070
:2025ba0040004000700303d4000000201f0c108000000000000000000c0000000000000050
:0925da00000000000000000f00e9
:2025e300000000080000da017000000600fe80028004000000000000026a5020000000009f
:0a2603000000002000001e8f0c00f4
:20260d0000000000188783d4000001e00e0000001000000000000000150e20100000000065
:09262d00000000000000200f0075
:20263600000020000f01d2017000002e625e50000200000000000086016af062000000008e
:0a265600000000000060148f0c006b
:2026600008300000088383d4000003c00ea00000000000000000c1400f00000000000000bf
:09268000000000000020200f0002
:20268900048000000599d2017000005603cc08000000000000000000627e050000000000ba
:0a26a900000000000006548f0c0032
:2026b30088000800000703d400200b44000f30800000000000a000040000000000000000c7
:0926d300000002000000000f00ed
:2026dc00000002800000f201700200407018f30200000000000a00066000000000000000ca
:0a26fc000000002000001c8f0c00fd
:2027060000020000000303d410000047f6d800100000000000000020000000000000000082
:09272600000000000400000f0493
:20272f00040000000000f201700000002a4be020000000000000001e000000000000000090
:0a274f000000000000001c8f0c00c9
:2027590000003000180983d4005000000000000000000000000000c41f80000020050adef8
:09277900800010000400200f0094
:202782000400030009187a01700500400000000000000000000000007bfa80010020d9d51b
:0a27a2007e00400002061e8f0c00ae
:2027ac0090000000100383d4000000040000000000000000000000000000000000050afb05
:0927cc00800000000400200f0051
:2027d5000040000009805a0170000000780000000000040000000000000000000000d9b744
:0a27f500fc2000000260168f0c00ab
:2027ff0008000280000903d4000000000000000008000000000000000000000000050a0039
:09281f00000000000000000f00a1
:202828000480000000005a017000000000000000010000000000000000000000000051a04f
:0a284800000000000000168f0c00d5
:2028520000020000900303d4000000000000000000000000000200000000000000050ab732
:09287200000000002400000f002a
:20287b000000000000007a017000000000000000000000000000400000000000000050ab17
:0a289b00b420000000001e8f0c00a6
:2028a50000000000008983d40000000000000000000000000000000400000000010710b760
:0928c500000000000020200f00bb
:2028ce0000003000018b520170000000000000000000000000000c00200000000010018ba3
:0a28ee00302000000060548f0c0041
:2028f80008700000008383d400c00060000000000000000000000000340a501000001ed7bb
:09291800800000000020200f00e7
:202921000482c00007995201700c003e00000000000000000000000002005a00000001ff47
:0a294100382000000006548f0c003f
:20294b0080002800000903d400a00b400000000000000000000000000000000000000000f9
:09296b00000002000000000f0052
:2029740000000080000a720170020140000000000000000000000000000000000280000011
:0a299400000000a000001c8f0c00e2
:20299e000002000001036fd401040000000550400400000000000000000f01d00000000052
:0929be00000000000000000f04fd
:2029c70004000000000876417000000001485540000000000000001c0008f000400000008b
:0a29e7000000000000001c8f0c002f
:2029f1000000000000a5c2bc0040004000000000000000000000014280e0000000030ab6bd
:092a1100800000000400200f0009
:202a1a000400000005817729400c002e00c000800000000000000000680100800000801738
:0a2a3a006200000002061e8f0c006f
:202a44008000000051096c00000000401e0f5000000000000000000000f0000000050098e2
:092a640003c000000400200f0073
:202a6d0000000000001e9a6000400026036805c0000000000000000028000080000099a9b1
:0a2a8d00780100000260168f0c00b3
:202a97000c00000050c00000000200c00c0f5000000000000000014000f00000000500fba5
:092ab700000000000000000f0007
:202ac00004000000090100000000400e036805c00000000000000036000100800000d80fcc
:0a2ae000742000000000168f0c00a7
:202aea000002000000000000000002401c0f5000000000000000000280d0000000000ad3de
:092b0a00400000000000000f0073
:202b130000070000000000000000000003e805c00000000000000000000000800000599f73
:0a2b33003020000000001e8f0c008f
:202b3d00000000000103c03c010000020e0f5000000000000000140000c000000000107ba9
:092b5d00490000000020200f00d7
:202b660000003000000af70140000006074805c00000000000000081000100800000018937
:0a2b8600010900000060548f0c00ec
:202b900008000000f00b3cd0010000021e0f5000000000000000000000c000000001087855
:092bb00003c000000020200f000a
:202bb900044000000800870e00000004674805c00000000000000000000100800000f0151d
:0a2bd900780100000046548f0c0044
:202be3008000000008bf380000a000000c0f500011000000000000000090000280000870ad
:092c030017c00a000000000f00d8
:202c0c00000680000500ff020002000003c805c00280000000000c0000000080080000185c
:0a2c2c003abd002000001c8f0c00d0
:202c36000002000001000000000000001c0f5040000000000000000400f000200001991002
:092c560003c000000000000f049f
:202c5f0004000000000a00000000000003c805c000000000000000006001008000009991ac
:0a2c7f007801000000001c8f0c001b
:202c89000000000050a0000000c000435e0f500000000000000000000000000000050a006c
:092ca900000000000000200f00f3
:202cb200000000000d9b0000000c003c61e805c00000000000000000000000000000801074
:0a2cd2000000000000061e8f0c0039
:202cdc008000000050a77c00000001c00e0f50000000000000000000000000000000009027
:092cfc0003c000000000200f00dd
:202d0500000000000d8bfb6000000006016805c00000000000000000000000000000000b7c
:0a2d2500b00100000040168f0c0002
:202d2f000000000000800000000000035c0f50000000000000000000000000000000000046
:092d4f0000000000002c20f0003f
:202d5800000000000001000000000000016805c000000000000000000000000000005800d4
:0a2d7800000000000000068f0800b4
:202d82000002000050a7f400000001c00c0f5000000000000000000000000000000f080001
:092da20000000000366c20f00076
:202dab0000000000051a7b820000000001e805c008000000000000000000000000007010b6
:0a2dcb00000000000142948f080090
:202dd5000000000010000000000000021e0f5000000000000000000000000000000000fe51
:092df500c8000000002020f000dd
:202dfe00000020000800000000000006054805c00000000000000000000000000000000b6a
:0a2e1e006000000000004e8f080065
:202e28000000000008000000000000420e0f500000000000000000000000000000000bb018
:092e480003c00000002820f00086
:202e510000000000050000000000003e654805c000000000000000000000000000000007a5
:0a2e7100b001000000004c8f0800c3
:202e7b00800000000005400001a000001c0f500000000000000000000000000080000800ce
:092e9b0000000a00002800f0000c
:202ea400000000000000d7200082000001c805c000000000000000000000000028000010cf
:0a2ec400000000a000004c8f080081
:202ece000002000000033c00000000000ddf50000400000000000000000000000000000063
:092eee000000000000000d0000ce
:202ef700000000000000338040000000015f05c000000000000000000000000000000000a3
:0a2f17000000000000000c0008009c
:022f21000000ae
:022f2300110299
:022f25000101a8
:202f270000000000000000000000000000000000000000000000000000000000000000008a
:092f470000000000000000000081
:202f5000000000000000000000000000000000000000000000000000000000000000000061
:0a2f70000000000000000000000057
:202f7a000000000000000000000000000000000000000000000000000000008000000000b7
:092f9a000000000000000000002e
:202fa30000000000000000000000000000000000000000000000000000000000000000000e
:0a2fc3000000000000000000000004
:202fcd000000000000000000000000000000000000000000000000000000000000000000e4
:092fed00000000000000000000db
:202ff6000000000000000000000000000000000000000000000000000000000000000000bb
:0a30160000000000000000000000b0
:203020000000000000080000000000002000000000080000000000002000000000000080c0
:0930400000000000000200000085
:20304900000000000000000000000000000000000000000000000000000000000000000067
:0a306900000000000000000000005d
:2030730000000000000c00000000000030000000000c00000000000030000000000000c005
:0930930000000000000300000031
:20309c00000000000000000000000000000000000000000000000000000000000000000014
:0a30bc00000000000000000000000a
:2030c6000000000000000000000000000000000000000000000000000000000000000000ea
:0930e600000000000000000008d9
:2030ef000000000000000000000000000000000000000000000000000000000000000000c1
:0a310f0000000000000000000000b6
:20311900000000000000000000000000000000000000000000000000000000000000000096
:093139000000000000008000000d
:20314200000000000000000000000000000000000000000000000000000000080000000065
:0a31620000002000000000000080c3
:20316c00000000000008000000000000200000000008000000000000200000000000008073
:09318c0000000000000200000038
:2031950000000000000000000000000000000000000000000000000000000000000000001a
:0a31b500000000000000020000000e
:2031bf000000000000000000000000000000000000000000000000000000000000000000f0
:0931df00000000000000000000e7
:2031e80000002000000000000000000000000000000000000800000000000000000000009f
:0a32080000000000000000000000bc
:2032120000000000000000000000000000000000000000000000000000000000000000009c
:0932320000000000000000000093
:20323b00000000000000000000000000000000000000000000000000000000000000000073
:0a325b000000000000000000000069
:20326500000000000000000000000000000000000000000000000000000000000000000049
:0932850000000000000000000040
:20328e00000000000000000000000000000000000000000000000000000000000000000020
:0a32ae000000000000000000000016
:2032b8000003000000000000000000000000000000000000000000000000000000000000f3
:0932d800000000000000000000ed
:2032e1000000000000000000000000000000000000000000000000000000000000000000cd
:0a33010000000000000000000000c2
:20330b000000000000000000000000000000000000000000000000000000000000000000a2
:09332b0000000000000000000099
:20333400000020000000000000000000000000000000000000000000000000000000000059
:0a335400000000000000000000006f
:20335e0000000000000000000000000000000000000000000000000000000000000000004f
:09337e0000000000000000000046
:20338700000000000000000000000000000000000000000000000000000000000000000026
:0a33a700000000000000000000001c
:2033b1000000000000000000000000000000000000000000000000000000000000000000fc
:0933d100000000000000000000f3
:2033da000000000000000000000000000000000000000000000000000000000000000000d3
:0a33fa0000000000000000000000c9
:203404000000000000000000000000000000000000000000000000000000000000000000a8
:093424000000000000000000009f
:20342d0000000000000000000000000000000000000000000000000000000000000000007f
:0a344d000000000000000000000075
:20345700000000000000000000000000000000000000000000000000000000000000000055
:093477000000000000000000004c
:2034800000002000000000000000000000000000000000000000000000000000000000000c
:0a34a0000000000000000000000022
:2034aa00000000000000000000000000000000000000000000000000000000000000000002
:0934ca00000000000000000002f7
:2034d3000000000000000000000000000000000000000000000000000000000000000000d9
:0a34f30000000000000000001800b7
:2034fd000000000000000000000000000000000000000000000000000000000000000000af
:09351d00000000000000000000a5
:20352600000000000000000000000000000000000000000000000000000000000000000085
:0a354600000000000000000000007b
:20355000000300000000000000000000000000000000000000000000000000000000000058
:0935700000000000000000000052
:20357900000000000000000000000000000000000000000000000000000000000000000032
:0a3599000000000000000000000028
:2035a300000000000000000000000000000000000000000000000000000000000000000008
:0935c300000000000000000000ff
:2035cc000000200000000000000000000000000000000000000000000000000000000000bf
:0a35ec0000000000000000000000d5
:2035f6000000000000000000000000000000000000000000000000000000000000000000b5
:09361600000000000000000000ab
:20361f0000000000000000000000000000000000000000000000000000000000000000008b
:0a363f000000000000000000000081
:20364900000000000000000000000000000000000000000000000000000000000000000061
:0936690000000000000000000058
:20367200000000000000000000000000000000000000000000000000000000000000000038
:0a369200000000000000000000002e
:20369c0000000000000000000000000000000000000000000000000000000000000000000e
:0936bc0000000000000000000005
:2036c5000000000000000000000000000000000000000000000000000000000000000000e5
:0a36e50000000000000000000000db
:2036ef000000000000000000000000000000000000000000000000000000000000000000bb
:09370f00000000000000000000b1
:20371800000020000000000000000000000000000000000008000000000000000000000069
:0a3738000000000000000000000087
:20374200000000000000000000000000000000000000000000000000000000000000000067
:093762000000000000000000005e
:20376b0000000000000000000000000000000000000000000000000000000000000000003e
:0a378b000000000000000000000034
:20379500000000000000000000000000000000000000000000000000000000000000000014
:0937b5000000000000000000000b
:2037be000000000000000000000000000000000000000000000000000000000000000000eb
:0a37de0000000000000000000000e1
:2037e8000003000000000000000000000000000000000000000000000000000000000000be
:09380800000000000000000000b7
:20381100000000000000000000000000000000000000000000000000000000000000000097
:0a383100000000000000000000008d
:20383b0000000000000000000000000000000000000000000000000000000000000000006d
:09385b0000000000000000000064
:20386400000020000000000000000000000000000000000000000000000000000000000024
:0a388400000000000000000000003a
:20388e0000000000000000000000000000000000000000000000000000000000000000001a
:0938ae0000000000000000000011
:2038b7000000000000000000000000000000000000000000000000000000000000000000f1
:0a38d70000000000000000000000e7
:2038e1000000000000000000000000000000000000000000000000000000000000000000c7
:09390100000000000000000000bd
:20390a00080000000000000000000000000000000000000000000000000000000000000095
:0a392a000000000000000000000093
:20393400000000000000000000000000000000000000000000000000000000000000000073
:093954000000000000000000006a
:20395d0000000000000000000000000000000000000000000000000000000000000000004a
:0a397d000000000000000000000040
:20398700000000000000000000000000000000000000000000000000000000000000000020
:0939a70000000000000000000017
:2039b0000000200000000000000000000000000000000000000000000000000000000000d7
:0a39d00000000000000000000000ed
:2039da000000000000000000000000000000000000000000000000000000000000000000cd
:0939fa00000000000000000000c4
:203a030008000000000000000000000000000000000000000000000000000000000000009b
:0a3a23000000000000000000000099
:203a2d00000000000000000000000000000000000000000000000000000000000000000079
:093a4d0000000000000000000070
:203a5600000000000000000000000000000000000000000000000000000000000000000050
:0a3a76000000000000000000000046
:203a8000000300000000000000000000000000000000000000000000000000000000000023
:093aa0000000000000000000001d
:203aa9000000000000000000000000000000000000000000000000000000000000000000fd
:0a3ac90000000000000000000000f3
:203ad3000000000000000000000000000000000000000000000000000000000000000000d3
:093af300000000000000000000ca
:203afc0000002000000000000000000000000000000000000000000000000000000000008a
:0a3b1c00000000000000000000009f
:203b260000000000000000000000000000000000000000000000000000000000000000007f
:093b460000000000000000000076
:203b4f00000000000000000000000000000000000000000000000000000000000000000056
:0a3b6f00000000000000000000004c
:203b790000000000000000000000000000000000000000000000000000000000000000002c
:093b990000000000000000000023
:203ba200000000000000000000000000000000000000000000000000000000000000000003
:0a3bc20000000000000000000000f9
:203bcc000000000000000000000000000000000000000000000000000000000000000000d9
:093bec00000000000000000000d0
:203bf5000000000000000000000000000000000000000000000000000000000000000000b0
:0a3c150000000000000000000000a5
:203c1f00000000000000000000000000000000000000000000000000000000000000000085
:093c3f000000000000000000007c
:203c4800000020000000000000000000000000000000000008000000000000000000000034
:0a3c68000000000000000000000052
:203c7200000000000000000000000000000000000000000000000000000000000000000032
:093c920000000000000000000029
:203c9b00000000000000000000000000000000000000000000000000000000000000000009
:0a3cbb0000000000000000000000ff
:203cc5000000000000000000000000000000000000000000000000000000000000000000df
:093ce500000000000000000000d6
:203cee000000000000000000000000000000000000000000000000000000000000000000b6
:0a3d0e0000000000000000000000ab
:203d1800000300000000000000000000000000000000000000000000000000000000000088
:093d380000000000000000000082
:203d4100000000000000000000000000000000000000000000000000000000000000000062
:0a3d61000000000000000000000058
:203d6b00000000000000000000000000000000000000000000000000000000000000000038
:093d8b000000000000000000002f
:203d94000000200000000000000000000000000000000000000000000000000000000000ef
:0a3db4000000000000000000000005
:203dbe000000000000000000000000000000000000000000000000000000000000000000e5
:093dde00000000000000000000dc
:203de7000000000000000000000000000000000000000000000000000000000000000000bc
:0a3e070000000000000000000000b1
:203e1100000000000000000000000000000000000000000000000000000000000000000091
:093e310000000000000000000088
:203e3a00000000000000000000000000000000000000000000000000000000000000000068
:0a3e5a00000000000000000000005e
:203e640000000000000000000000000000000000000000000000000000000000000000003e
:093e840000000000000000000035
:203e8d00000000000000000000000000000000000000000000000000000000000000000015
:0a3ead00000000000000000000000b
:203eb7004000000000000000000000000000000000000000000000000000000000000000ab
:093ed700000000000000000000e2
:203ee0000000200000000000000000000000000000000000000000000000000000000000a2
:0a3f000000000000000000000000b7
:203f0a00000400000000000000000000000000000000000000000000000000000000000093
:093f2a000000000000000000800e
:203f33000802800000000000000000000000000000000000000000000000000000000000e4
:0a3f5300000000000000000008005c
:203f5d00400000000000000000000000000000000000000000000000000000000000000004
:093f7d000000000000000000003b
:203f860000c00000000000000000000000000000000000000000000000000000000000005b
:0a3fa6000000000000000000000011
:203fb0000003000000000000000000000000000000000000000000000000000000000000ee
:093fd000000000000000000000e8
:203fd9000000000000000000000000000000000000000000000000000000000000000000c8
:0a3ff90000000000000000001400aa
:2040030000000000000000000000000000000000000000000000000000000000000000009d
:0940230000000000000000000094
:20402c00000020000000000000000000000000000000000000000000000000000000000054
:0a404c00000000000000000000006a
:2040560000000000000000000000000000000000000000000000000000000000000000004a
:0940760000000000000000000041
:20407f00000000000000000000000000000000000000000000000000000000000000000021
:0a409f000000000000000000000017
:2040a9000000000000000000000000000000000000000000000000000000000000000000f7
:0940c900000000000000000000ee
:2040d2000800000000000000000000000000000000000000000000000000000000000000c6
:0a40f20000000000000000000000c4
:2040fc000000000000000000000000000000000000000000000000000000000000000000a4
:09411c000000000000000000009a
:2041250000000000000000000000000000000000000000000000000000000000000000007a
:0a4145000000000000000000000070
:20414f00000000000000000000000000000000000000000000000000000000000000000050
:09416f0000000000000000000047
:204178000000200000000000000000000000000000000000080000000000000000000000ff
:0a419800000000000000000000001d
:2041a2000000000000000000000000000000000000000000000000000000000000000000fd
:0941c200000000000000000000f4
:2041cb000800000000000000000000000000000000000000000000000000000000000000cc
:0a41eb0000000000000000000000ca
:2041f5000000000000000000000000000000000000000000000000000000000000000000aa
:09421500000000000000000000a0
:20421e00000000000000000000000000000000000000000000000000000000000000000080
:0a423e000000000000000000000076
:20424800000200000000000000000000000000000000000000000000000000000000000054
:094268000000000000000000004d
:2042710000000000000000000000000000000000000000000000000000000000000000002d
:0a4291000000000000000000000023
:20429b00000000000000000000000000000000000000000000000000000000000000000003
:0942bb00000000000000000000fa
:2042c4000000200000000000000000000000000000000000000000000000000000000000ba
:0a42e40000000000000000000000d0
:2042ee00400000000000000000000000000000000000000000000000000000000000000070
:09430e00000000000000000000a6
:20431700000000000000000000000000000000000000000000000000000000000000000086
:0a433700000000000000000000007c
:2043410000000000000000000000000000000000000000000000000000000000000000005c
:0943610000000000000000000053
:20436a0008000000000000000000000000000000000000000000000000000000000000002b
:0a438a000000000000000000000029
:204394004000000000000000000000000000000000000000000000000000000000000000c9
:0943b40000000000000000000000
:2043bd000000000000000000000000000000000000000000000000000000000000000000e0
:0a43dd0000000000000000000000d6
:2043e7000000000000000000000000000000000000000000000000000000000000000000b6
:09440700000000000000020000aa
:2044100000002000000000000000000000000000000000000000000000000000000000006c
:0a4430000000000000000000000082
:20443a00000000000000000000000000000000000000000000000000000000000000000062
:09445a0000000000000000000059
:20446300000000000000000000000000000000000000000000000000000000000000000039
:0a448300000000000000000000002f
:20448d0000000000000000000000000000000000000000000000000000000000000000000f
:0944ad0000000000000000000006
:2044b6000000000000000000000000000000000000000000000000000000000000000000e6
:0a44d60000000000000000000000dc
:2044e0000003000000000000000000000000000000000000000000000000000000000000b9
:09450000000000000000000000b2
:20450900010000000000000000000000000000000000000000000000000000000000000091
:0a4529000000000000000000000088
:20453300000000000000000000000000000000000000000000000000000000000000000068
:094553000000000000000000005f
:20455c0000002000000000000000000000000000000000000000000000000000000000001f
:0a457c000000000000000000000035
:20458600000000000000000000000000000000000000000000000000000000000000000015
:0945a6000000000000000000000c
:2045af000000000000000000000000000000000000000000000000000000000000000000ec
:0a45cf0000000000000000000000e2
:2045d9000000000000000000000000000000000000000000000000000000000000000000c2
:0945f900000000000000000000b9
:20460200000000000000000000000000000000000000000000000000000000000000000098
:0a462200000000000000000000008e
:20462c0000000000000000000000000000000000000000000000000000000000000000006e
:09464c0000000000000000000065
:20465500000000000000000000000000000000000000000000000000000000000000000045
:0a467500000000000000000000003b
:02467f00000039
:02468100110323
:02468300010133
:20468500000000000000000000000000000000000000000010000000000000000000000005
:0946a5000000000000000000000c
:2046ae000000000000000000000000000000000000000000000000000000000000000000ec
:0a46ce0000000000000000000000e2
:2046d800000000000000000000000000000000000000000020000000000000800000000022
:0946f800000200000000000000b7
:20470100000000000000000000000000000000000000000000000000000000000000000098
:0a472100000000000000000000008e
:20472b0000000000000000000000000000000000000000001000000000000000000000005e
:09474b0000000000000000000065
:204754000000000000000000000000000000000000800000000000000000000000000000c5
:0a477400000000000000000000003b
:20477e00000000000008000000000000000000000000000000000000200000000000008073
:09479e0000000000000200000010
:2047a7000000000000000000000000000000000000000000000000000000000000000000f2
:0a47c70000000000000000000000e8
:2047d10000000000000c00000000000030000000000c00000000000030000000000000c090
:0947f100000000000003000000bc
:2047fa0000000000000000000000000000000000000000000000000000000000000000009f
:0a481a000000000000000000000094
:204824000000000000000000000000000000000000000000000000000000008000000000f4
:094844000000000000000000006b
:20484d0000000000000000000000000000000000000000000000000000000000000000004b
:0a486d000000000000000000000041
:20487700000000000000000000000000000000000000000000000000000000000000000021
:0948970000000000000000000018
:2048a000000000000000000000000000002000080000000002000000008000080000000046
:0a48c000000020000000000000804e
:2048ca000000000000080000000000002000000000080000000000002000000000000080fe
:0948ea00000000000002000000c3
:2048f30000000000000000000000000000000000000000e000000000800000000000000045
:0a491300000000000000000000009a
:20491d000000000000000000000000000000a00000000000000000000000000000000000da
:09493d0000000000000000000071
:2049460000000000000000000000000000000400000000000000000000000000000000004d
:0a4966000000000000000000000047
:20497000000000000000000000000000000000000000000000000000000000000000000027
:094990000000000000000000001e
:204999000000000000000000000000000000000000000000000000000000000000000000fe
:0a49b90000000000000000000000f4
:2049c3000000000000000000000000000000000000000000000000000000000000000000d4
:0949e300000000000000000000cb
:2049ec000000000000000000000000000000000000000000000000000000000000000000ab
:0a4a0c0000000000000000000000a0
:204a160000020000000000000000000000000000000000000000000000000000000000007e
:094a360000000000000000000077
:204a3f00000000000000000000000000000000000000000000000000000000000000000057
:0a4a5f00000000000000000000004d
:204a690000000000000000000000000000000000000000000000000000000000000000002d
:094a890000000000000000000024
:204a92000000300000000000000000000000000000000000000000000000000000000000d4
:0a4ab20000000000000000000000fa
:204abc000000000000000000000000000000000000000000000000000000000000000000da
:094adc00000000000000000100d0
:204ae5000000000000000000000000000000000000000000000000000000000000000000b1
:0a4b050000000000000000000000a6
:204b0f00000000000000000000000000000000000000000000000000000000000000000086
:094b2f000000000000000000007d
:204b380000000000000000000000000000000000000000000000000000000000000000005d
:0a4b58000000000000000000000053
:204b6200000200000000000000000000000000000000000000000000000000000000000031
:094b82000000000000000000002a
:204b8b0000000000000000000000000000000000000000000000000000000000000000000a
:0a4bab000000000000000000000000
:204bb5000028000000000000000000000000000000000000000000000000000000000000b8
:094bd500000000000000000000d7
:204bde00040040000000000000000000000000000000000000000000000000000000000073
:0a4bfe0000000000000000000000ad
:204c08008000000000000000000000000000000000000000000000000000100000000000fc
:094c280000000000000000000083
:204c3100000000000000000000000000000000000000000000000000000000000000000063
:0a4c51000000000000000000000059
:204c5b000c000000000000000000000000000000000000000000000000000000000000002d
:094c7b0000000000000000000030
:204c840004c00000000000000000000000000000000000000000000000000000000000004c
:0a4ca4000000000000000000000006
:204cae000000000000000000000000000000000000000000000000000000000000000000e6
:094cce00000000000000000000dd
:204cd7000000000000000000000000000000000000000000000000000000000000000000bd
:0a4cf70000000000000000000000b3
:204d0100000000000000000000000000000000000000000000000000000000000000000092
:094d210000000000000000000089
:204d2a00000030000000000000000000000000000000000000000000000000000000000039
:0a4d4a00000000000000000000005f
:204d540000000000000000000000000000000000000000000000000000000000000000003f
:094d740000000000000000000036
:204d7d00000000000000000000000000000000000000000000000000000000000000000016
:0a4d9d00000000000000000000000c
:204da70080004000000000000000000000000000000000000000000000000000000000002c
:094dc700000000000000000000e3
:204dd0000000000000000000000000000000000000000000000000000000000000000000c3
:0a4df00000000000000000000000b9
:204dfa00000200000000000000000000000000000000000080000000000000000000000017
:094e1a000000000000000000008f
:204e230000000000000000000000000000000000000000000000000000000000000000006f
:0a4e43000000000000000000000065
:204e4d00000000000000000000000000000000000000000000000000000000000000000045
:094e6d000000000000000000003c
:204e760000000000000000000000000000000000000000000000000000000000000000001c
:0a4e96000000000000000000000012
:204ea000800000000000000000000000000000000000000000000000000000000000000072
:094ec000000000000000000000e9
:204ec9000000000000000000000000000000000000000000000000000000000000000000c9
:0a4ee90000000000000000000000bf
:204ef30000004000000000000000000000000000000000000000000000000000000000005f
:094f130000000000000000000095
:204f1c00000000000000000000000000000000000000000000000000000000000000000075
:0a4f3c00000000000000000000006b
:204f4600000200000000000000000000000000000000000000000000000000000000000049
:094f660000000000000000000042
:204f6f0004000000000000000000000000000000000000000000000000000000000000001e
:0a4f8f000000000000000000000018
:204f99000000000000000000000000000000000000000001000000000000a0000000000057
:094fb900000000000000000000ef
:204fc20000401000000000000000000000000000000000000000000000000000000000007f
:0a4fe20000000000000000000000c5
:204fec000000000000000000000000000000000000000000000000000000000000000000a5
:09500c000000000000000000009b
:2050150000000000000000000000000000000000000000000000000000000000000000007b
:0a5035000000000000000000000071
:20503f008000000000000000000000000000000000000000000000000000000000000000d1
:09505f0000000000000000000048
:20506800000000000000000000000000000000000000000000000000000000000000000028
:0a508800000000000000000000001e
:205092000000000000000000000000000000000000000000000000000000014000000000bd
:0950b200000000000000000002f3
:2050bb000000000000000000000000000000000000000000000000000000000000000000d5
:0a50db0000000000000000000000cb
:2050e500003400000000000000000000000000000000000000000000000000000000000077
:09510500000000000000000000a1
:20510e0004000000000000000000000000000000000000000000000000000000000000007d
:0a512e000000000000000000000077
:205138008000000000000000000000000000000000000000000000000000000000000000d7
:095158000000000000000000004e
:2051610000000000000000000000000000000000000000000000000000000000000000002e
:0a5181000000000000000000000024
:20518b000c00000000000000000000000000000000000000000000000000000000000000f8
:0951ab00000000000000000000fb
:2051b40004c000000000000000000000000000000000000000000000000000000000000017
:0a51d40000000000000000000000d1
:2051de000002000000000000000000000000000000000000000000000000000000000000af
:0951fe00000000000000000000a8
:20520700000000000000000000000000000000000000000000000000000000000000000087
:0a522700000000000000000000007d
:2052310000000000000000000000000000000000000000000000000000000000000000005d
:0952510000000000000000000054
:20525a00000030000000000000000000000000000000000000000000000000000000000004
:0a527a00000000000000000000002a
:2052840000000000000000000000000000000000000000000000000000000000000000000a
:0952a40000000000000000000001
:2052ad000000000000000000000000000000000000000000000000000000000000000000e1
:0a52cd0000000000000000000000d7
:2052d7000000000000000000000000000000000000000000000000000000000000000000b7
:0952f700000000000000000000ae
:2053000000000000000000000000000000000000000000000000000000000002000000008b
:0a5320000000000000000000100073
:20532a000002000000000000000000000000000000000000800000000000000000000000e1
:09534a000000000000000000005a
:2053530000000000000000000000000000000000000000000000000000000000000000003a
:0a5373000000000000000000000030
:20537d00000000000000000000000000000000000000000000000000000000000000000010
:09539d0000000000000000000007
:2053a6000000000000000000000000000000000000000000000000000000000000000000e7
:0a53c60000000000000000000000dd
:2053d00080000000000000000000000000000000000000000000000000000000000000003d
:0953f000000000000000000000b4
:2053f900000000000000000000000000000000000000000000000000000000000000000094
:0a5419000000000000000000000089
:20542300000000000000000000000000000000000000000000000000000000000000000069
:0954430000000000000000000060
:20544c00000000000000000000000000000000000000000000000000000000000000000040
:0a546c000000000000000000000036
:20547600000000000000000000000000000000000000000000000000000000000000000016
:095496000000000000000000000d
:20549f000000000000000000000000000000000000000000000000000000000000000000ed
:0a54bf0000000000000000000000e3
:2054c9000800000000000000000000000000000000000000000000000000000000000000bb
:0954e900000000000000000000ba
:2054f20000000000000000000000000000000000000000000000000000000000000000009a
:0a55120000000000000000000c0083
:20551c0000000000000000000000000000000000000000000000000000000000000000006f
:09553c0000000000000000000066
:20554500000000000000000000000000000000000000000000000000000000000000000046
:0a556500000000000000000000003c
:20556f0080000000000000000000000000000000000000000000000000000000000000009c
:09558f0000000000000000000013
:205598000000000000000000000000000000000000000000000000000000000000000000f3
:0a55b80000000000000000000000e9
:2055c200000000000000000000000000000000000000000000000000000000400000000089
:0955e200000000000000000000c0
:2055eb00000000000000000000000000000000000000000000000000000000080000000098
:0a560b000000000000000000000095
:20561500000000000000000000000000000000000000000000000000000000000000000075
:095635000000000000000000006c
:20563e00000000000000000000000000000000000000000000000000000000c0000000008c
:0a565e000000000000000000000042
:205668008000000000000000000000000000000000000000000000000000000000000000a2
:0956880000000000000000000019
:205691000000000000000000000000000000000000000000000000000000000000000000f9
:0a56b10000000000000000000000ef
:2056bb000000000000000000000000000000000000000000000000000000000000000000cf
:0956db00000000000000000000c6
:2056e4000000000000000000000000000000000000000000000000000000000000000000a6
:0a570400000000000000000000009b
:20570e00000200000000000000000000000000000000000000000000000000000000000079
:09572e0000000000000000000072
:20573700000000000000000000000000000000000000000000000000000000000000000052
:0a5757000000000000000000000048
:20576100000000000000000000000000000000000000000000000000000000000000000028
:095781000000000000000000001f
:20578a000000300000000000000000000000000000000000000000000000000000000000cf
:0a57aa0000000000000000000000f5
:2057b4000000000000000000000000000000000000000000000000000000000000000000d5
:0957d400000000000000000000cc
:2057dd000000000000000000000000000000000000000000000000000000000000000000ac
:0a57fd0000000000000000000000a2
:20580700800000000000000000000000000000000000000000000000000000000000000001
:0958270000000000000000000078
:20583000000000000000000000000000000000000000000000000000000000000000000058
:0a585000000000000000000000004e
:20585a000002000000000000000000000000000000000000800000000000000000000000ac
:09587a0000000000000000000025
:20588300000000000000000000000000000000000000000000000000000000000000000005
:0a58a30000000000000000000000fb
:2058ad000000000000000000000000000000000000000000000000000000000000000000db
:0958cd00000000000000000000d2
:2058d6000000000000000000000000000000000000000000000000000000000000000000b2
:0a58f60000000000000000000000a8
:20590000000000000000000000000000000000000000000000000000000000000000000087
:095920000000000000000000007e
:2059290000000000000000000000000000000000000000000000000000000000000000005e
:0a5949000000000000000000000054
:20595300000000000000000000000000000000000000000000000000000000000000000034
:0959730000000000000000000427
:20597c0000000000000000000000000000000000000000000000000000000000000000000b
:0a599c000000000000000000000001
:2059a6000002000000000000000000000000000000000000000000000000000000000000df
:0959c600000000000000000000d8
:2059cf000000000000000000000000000000000000000000000000000000000000000000b8
:0a59ef0000000000000000000000ae
:2059f90000000000000000000000000000000000000000000000000000000000000000008e
:095a190000000000000000000084
:205a2200000030000000000000000000000000000000000000000000000000000000000034
:0a5a4200000000000000000000005a
:205a4c0000000000000000000000000000000000000000000000000000000000000000003a
:095a6c0000000000000000000031
:205a7500000000000000000000000000000000000000000000000000000000000000000011
:0a5a95000000000000000000000007
:205a9f000000000000000000000000000000000000000000000000000000000000000000e7
:095abf00000000000000000000de
:205ac8000000000000000000000000000000000000000000000000000000000000000000be
:0a5ae8000000000000000000014073
:205af200000200000000000000000000000000000000000000000000000000000000000092
:095b12000000000000000000008a
:205b1b0000000000000000000000000000000000000000000000000000000000000000006a
:0a5b3b000000000000000000000060
:205b4500000000000000000000000000000000000000000000000000000000000000000040
:095b650000000000000000000037
:205b6e00000000000000000000000000000000000000000000000000000000000000000017
:0a5b8e00000000000000000000000d
:205b98000000000000000000000000000000000000000000000000000000000000000000ed
:095bb800000000000000000000e4
:205bc1000000000000000000000000000000000000000000000000000000000000000000c4
:0a5be10000000000000000000000ba
:205beb0000000000000000000000000000000000000000000000000000000000000000009a
:095c0b0000000000000000000090
:205c1400000000000000000000000000000000000000000000000000000000000000000070
:0a5c34000000000000000000a000c6
:205c3e00000200000000000000000000000000000000000000000000000000000000000044
:095c5e000000000000000000003d
:205c670000000000000000000000000000000000000000000000000000000000000000001d
:0a5c87000000000000000000000013
:205c91000000000000000000000000000000000000000000000000000000000000000000f3
:095cb100000000000000000000ea
:205cba0000003000000000000000000000000000000000000000000000000000000000009a
:0a5cda0000000000000000000000c0
:205ce4000000000000000000000000000000000000000000000000000000000000000000a0
:095d040000000000000000000096
:205d0d00040000000000000000000000000000000000000000000000000000000000000072
:0a5d2d00000000000000000000006c
:205d37008000000000000000000000000000000000000000000000000000000000000000cc
:095d570000000000000000000241
:205d6000000000000000000000000000000000000000000000000000000000000000000023
:0a5d80000000000000000000008099
:205d8a00000200000000000000000000000000000000000080000000000000000000000077
:095daa00000000000000000000f0
:205db3000400000000000000000000000000000000000000000000000000000000000000cc
:0a5dd30000000000000000000000c6
:025ddd000000c4
:035ddf0062003f20
:035de200720080cc
:025de5001100ab
:035de70082000037
:025dea000103b3
:085dec000000000000000000af
:085df4000000000000000000a7
:085dfc0000000000000000009f
:085e0400000000000000000096
:0261ec000000b1
:0361ee00820080ac
:0261f1000103a8
:0861f3000000000000000000a4
:0861fb0000000000000000009c
:08620300000000000000000093
:08620b0000000000000000008b
:0265f3000000a6
:0265f500110192
:0365f7008200001f
:0265fa0001039b
:0865fc00000000000000000097
:0866040000000000000000008e
:08660c00000000000000000086
:0866140000000000000000007e
:0269fc00000099
:0369fe0082008094
:026a010001038f
:086a030000000000000000008b
:086a0b00000000000000000083
:086a130000000000000000007b
:086a1b00000000000000000073
:026e030000008d
:026e0500110278
:036e070082000006
:026e0a00010382
:086e0c0000000000000000007e
:086e1400000000000000000076
:086e1c0000000000000000006e
:086e2400000000000000000066
:02720c00000080
:03720e008200807b
:02721100010377
:08721300000000000000000073
:08721b0000000000000000006b
:08722300000000000000000063
:08722b0000000000000000005b
:02761300000075
:0276150011035f
:03761700820000ee
:02761a0001036a
:08761c00000000000000000066
:0876240000000000000000005e
:08762c00000000000000000056
:0876340000000000000000004e
:027a1c00000068
:037a1e0082008063
:027a210001035f
:087a230000000000000000005b
:087a2b00000000000000000053
:087a330000000000000000004b
:087a3b00000000000000000043
:027e230000005d
:017e2500223a
:027e26002ae749
:027e2800010651
:00000001FF
