:02000000ff00ff
:080002004c6174746963650030
:17000a00694345637562653220323032302e31322e32373934330071
:15002100506172743a2069434534304c50314b2d514e38340034
:1b003600446174653a204a756e20323020323032322031343a34333a35360077
:0200510000ffae
:040053007eaa997e6a
:02005700510056
:0200590001059f
:03005b0092000010
:03005e0062014bf1
:030061007200909a
:0300640082000017
:02006700110086
:02006900010193
:20006b00000000000000000000000000000000000000000000000000000000000000000075
:09008b00000000800000000000ec
:2000940000000000000000000000000000000000000000000000000000000000000000004c
:0a00b4000000000000000000000042
:2000be00000000000000000000000000000000000000000000000000000000001000000012
:0900de00000000400000000000d9
:2000e7000000000000000000000000000000000000000000000000000000000000000000f9
:0a01070000000000000000000000ee
:200111000000000000000000000000000000000000000000000000000000000000000000ce
:0901310000000080000001000044
:20013a000000000000000000000000000000000000000000000000000000000000000000a5
:0a015a00000000000000003000006b
:200164000000000000040000000000001000000000000040000000001000000000000040d7
:0901840000000000000100000071
:20018d00000000000000000000000000000000000000000000000000000000000000000052
:0a01ad000000000000000000000048
:2001b70000000000000c00000000000030000000000000c00000000030000000000000c03c
:0901d70000000000078200000096
:2001e0000000000000000000000000000000000000000000000000000000000000000000ff
:0a02000000000000000800000000ec
:20020a000000000000000000000000000000000000000000000000000000000000000000d4
:09022a00000000000000000000cb
:200233000000000000000000000000000000000000000000000000000000000000000000ab
:0a02530000000000000000000000a1
:20025d00000000000000000000000000000000000000000000000000000000000000000081
:09027d0000000000000000000078
:20028600000000000000000000000000000000000000000000004000000000000100000017
:0a02a600000000040000000000004a
:2002b00000000000000400000000000010000000000000400000000010000000000000408a
:0902d00000000000000100000024
:2002d900000000000000000000000000000000000000000000000000000000000000000005
:0a02f90000000000000000000000fb
:200303000000000000000000000000000000000000000000000000000000000000000000da
:09032300000000000000000000d1
:20032c00000020000000000000000000000000000040000000000000000000000000000051
:0a034c0000000000000000000000a7
:20035600000000000000000000000000000000000000000000000000000000000000000087
:090376000000000000000000007e
:20037f0000000000000000000000000000000000000000000000000000000000000000005e
:0a039f000000000000000000000054
:2003a900000000000000000000000000000000000000000000000000000000000000000034
:0903c9000000000000000000002b
:2003d20000000000000000000000000000000000000000000000000000000000000000000b
:0a03f2000000000000000000000001
:2003fc000003000000000000000000000000000000000000000000000000000000000000de
:09041c00000000000000000000d7
:200425000000000000000000000000000000000000000000000000000000000000000000b7
:0a04450000000000000000000000ad
:20044f0000000000000000000000000000000000000000000000000000000000000000008d
:09046f0000000000000000000084
:20047800000020000000000000000000000000000000000000000000000000000000000044
:0a049800000000000000000000005a
:2004a20000000000000000000000000000000000000000000000000000000000000000003a
:0904c20000000000000000000031
:2004cb00000000000000000000000000000000000000000000000000000000000000000011
:0a04eb000000000000000000000007
:2004f5000000000000000000000000000000000000000000000000000000000000000000e7
:09051500000000000000000000dd
:20051e000000000000000000000000000000000000000000000000000000000000000000bd
:0a053e0000000000000000000000b3
:20054800000000000000000000000000000000000000000000000000000000000000000093
:090568000000000000000000008a
:2005710000000000000000000000000000000000000000000000000000000000000000006a
:0a0591000000000000000000000060
:20059b00400000000000000000000000000000000000000000000000000000000000000000
:0905bb0000000000000000000037
:2005c4000000200000000000000000000000000000000000000000000000000000000000f7
:0a05e400000000000000000000000d
:2005ee000000000000000000000000000000000000000000000000000000000000000000ed
:09060e00000000000000000000e3
:200617000800000000000000000000000000000000000000000000000000000000000000bb
:0a06370000000000000000000000b9
:200641004c000000000000000000000000000000000000000000000000000000000000004d
:0906610000000000000000000090
:20066a000080000000000000000000000000000000000000000000000000000000000000f0
:0a068a000000000000000000000066
:20069400000300000000000000000000000000000000000000000000000000000000000043
:0906b4000000000000000000003d
:2006bd0000000000000000000000000000000000000000000000000000000000000000001d
:0a06dd000000000000000000000013
:2006e7000000000000000000000000000000000000000000000000000000000000000000f3
:09070700000000000000000000e9
:200710000000200000000000000000000000000000000000000000000000000000000000a9
:0a07300000000000000000000000bf
:20073a0000000000000000000000000000000000000000000000000000000000000000009f
:09075a0000000000000000000096
:20076300000000000000000000000000000000000000000000000000000000000000000076
:0a078300000000000000000000006c
:20078d00002800000000000000000000000000000000000000000000000000000000000024
:0907ad0000000000000000000043
:2007b60000040000000000000000000000000000000000000000000000000000000000001f
:0a07d6000000000000000000000019
:2007e0000000000000000000000000000000000000000000000000000000000000000000f9
:09080000000000000000000000ef
:200809000000000000000000000000000000000000000000000000000000000000000000cf
:0a08290000000000000000000000c5
:20083300400000000000000000000000000000000000000000000000000000000000000065
:090853000000000000000000009c
:20085c0000002000000000000000000000000000004000000000000000000000000000001c
:0a087c000000000000000000000072
:20088600000000000000000000000000000000000000000000000000000000000000000052
:0908a60000000000000000000049
:2008af00090000000000000000000000000000000000000000000000000000000000000020
:0a08cf00000000000000000000001f
:2008d9004000000000000000000000000000000000000000000000000000000000000000bf
:0908f900000000000000000000f6
:200902000000000000000000000000000000000000000000000000000000000000000000d5
:0a09220000000000000000000000cb
:20092c000003000000000000000000000000000000000000000000000000000000000000a8
:09094c00000000000000000000a2
:20095500000000000000000000000000000000000000000000000000000000000000000082
:0a0975000000000000000000000078
:20097f00000000000000000000000000000000000000000000000000000000000000000058
:09099f000000000000000000004f
:2009a80000002000000000000000000000000000000000000000000000000000000000000f
:0a09c8000000000000000000000025
:2009d200000000000000000000000000000000000000000000000000000000000000000005
:0909f200000000000000000000fc
:2009fb000000000000000000000000000000000000000000000000000000000000000000dc
:0a0a1b0000000000000000000000d1
:200a25000000000000000000000000000000000000000000000000000000000000000000b1
:090a4500000000000000000000a8
:200a4e00000000000000000000000000000000000000000000000000000000000000000088
:0a0a6e00000000000000000000007e
:200a780000000000000000000000000000000000000000000000000000000000000000005e
:090a980000000000000000000055
:200aa100000000000000000000000000000000000000000000000000000000000000000035
:0a0ac100000000000000000000002b
:200acb004000000000000000000000000000000000000000000000000000000000000000cb
:090aeb0000000000000000000002
:200af4000000200000000000000000000000000000000000000000000000000000000000c2
:0a0b140000000000000000000000d7
:200b1e000000000000000000000000000000000000000000000000000000000000000000b7
:090b3e00000000000000000000ae
:200b4700080000000000000000000000000000000000000000000000000000000000000086
:0a0b67000000000000000000000084
:200b7100400000000000000000000000000000000000000000000000000000000000000024
:090b91000000000000000000005b
:200b9a0000000000000000000000000000000000000000000000000000000000000000003b
:0a0bba000000000000000000000031
:200bc40000030000000000000000000000000000000000000000000000000000000000000e
:090be40000000000000000000008
:200bed000000000000000000000000000000000000000000000000000000000000000000e8
:0a0c0d0000000000000000000000dd
:200c17000000000000000000000000000000000000000000000000000000000000000000bd
:090c3700000000000000000000b4
:200c4000000020000000000000000000000000000000000000000000000000000000000074
:0a0c6000000000000000000000008a
:200c6a0000000000000000000000000000000000000000000000000000000000000000006a
:090c8a0000000000000000000061
:200c9300000000000000000000000000000000000000000000000000000000000000000041
:0a0cb3000000000000000000000037
:200cbd00000000000000000000000000000000000000000000000000000000000000000017
:090cdd000000000000000000000e
:200ce6000000000000000000000000000000000000000000000000000000000000000000ee
:0a0d06000000000060000000000083
:200d10000000000000000000000000000000000000000000000000000000000000000000c3
:090d3000000000000000000000ba
:200d390000000000000000000000000000000000000000000000000000000000000000009a
:0a0d59000000000000000000000090
:200d6300000000000000000000000000000000000000000000000000000000000000000070
:090d830000000000000000000067
:200d8c000000080000000000000000000000000000400000000000000000000000000000ff
:0a0dac00000000000000000000003d
:200db600000000000000000000000000000000000000000000040000000000000000000019
:090dd60000000000000000000014
:200ddf0008000000000000000000000000000000000000000000a00000000000000000004c
:0a0dff0000000000000000000000ea
:200e09000000000000000000000000000000000000000000000000000000000000000000c9
:090e2900000000000000000000c0
:200e32000000000000000000000000000000000000000000000000000000000000000000a0
:0a0e52000000000000000000000096
:200e5c00000100000000000000000000000000000000000000000000000000000000000075
:090e7c000000000000000000006d
:200e85000000008000000000000000000000000000000000000200000000000008000000c3
:0a0ea5000000002000000000000023
:200eaf0000040000000000000000000000000000000000000000000000000000000000001f
:090ecf000000000000000000001a
:200ed8000003200000000000000000000000000000000000000000000000000000000000d7
:0a0ef80000000000000000000000f0
:200f020044000000000000000000000000000000000000000000000000000000000000008b
:090f2200000000000000000000c6
:200f2b000080000000000000000000000000000000000000000000800000000000000000a6
:0a0f4b00000000000000000000009c
:200f550000000000000000000000000000000000000000000000000000000000000000007c
:090f750000000000000000000073
:200f7e0008000000000000000000000000000000000000000000000000000000000000004b
:0a0f9e000000000000000000000049
:200fa8004000000000000000000000000000000000000000000000000000000000000000e9
:090fc80000000000000000000020
:200fd100000000000000000000000000000000000000000000000000000000000000000000
:0a0ff10000000000000000000000f6
:200ffb000000000000a0000000000000000000000000000000000000000000000000000036
:09101b000000000000000100804b
:2010240000002000001000000000000000000000000000000000000000000000000000007c
:0a10440000000000000000c00020c2
:20104e000000280000000000000000000000000001800000000000000000000000000000d9
:09106e00000000000000010080f8
:201077000000028000000000000000000000000000000000000000000000000000000000d7
:0a10970000000000000000a00000af
:2010a10000001000000000000000000000000000000000000000000000000000000000001f
:0910c100000000000000000080a6
:2010ca00000002000000000000000000000000000000000000000000000000000000000004
:0a10ea0000000000000000d000002c
:2010f400000300000180000000000000000000000000000000000000000000000000000058
:0911140000000000200001008031
:20111d000000000000000000000000000000000000000000000000000000000000000000b2
:0a113d0000000000024000c00000a6
:20114700000000003800000000000000000000000000000000000000000000000000000050
:0911670000000000002c010080d2
:2011700000002000000000000000000000000000000000000000000000000000000000003f
:0a11900000000000000280e00000f3
:20119a0000000000000000000000000000000000000000000000000000000000280000000d
:0911ba0000000000360000008076
:2011c30000000000000a000000000000000000000000000000000000000000000100000001
:0a11e30000000000014280d000006f
:2011ed00000000007000000000000000000000000000000000000000000000000000000072
:09120d0000000000000001008057
:20121600000000000080000000000000000000000000000000000000000000000000000038
:0a12360000000000000280d000005c
:20124000000000000005f00100000000000000000000000000000000000000000000000098
:09126000000000001400000080f1
:201269000000000000009f3440000000000000000000000000000000000000000000000052
:0a12890000000000000000f000006b
:2012930000000000018000000000014204b08000000000000000000000000000000018002b
:0912b30000000000000008f0300a
:2012bc00c0002000000000000000003603580000004000000000000000000000000000e081
:0a12dc00000000000040000f004079
:2012e600000008008001e80182000002a1e0200000000000000000000000000082000000cf
:09130600000002000000000000dc
:20130f00018002800b009428000000346d5a01000000000000000000000000002830d000d0
:0a132f000000002000000000000094
:201339000000100070000000000003629f9000000000000000000000000000010007000078
:09135900000000002029ca5550d3
:201362000000020000800000000000366c5d80000000000000000000000000002000080042
:0a13820000000000004402055010b6
:20138c000003000080a5f50980000340000000000000000000000000000000000000001a3e
:0913ac00009000000000000000a8
:2013b500000000000b009e8280000036000000000000000000000000000000000000000730
:0a13d5006494050000000000000011
:2013df00000000000000000000000207a0cf20000000000000000000000000000000000056
:0913ff00000000000001ca5000ca
:2014080000002000000000000000000403daf1000000000000000000000000000000700062
:0a1428000000000000003600000084
:2014320000000000001000000000000747a08000000000000000000000000000000000001c
:0914520000000000000000000091
:20145b0000000000000a00000000000071e90000000000000000000000000000000000000d
:0a147b000000000000000000000067
:201485000000000000000000000000005dc800200000000000000000000000000000000002
:0914a5000000000000040000003a
:2014ae0000000000000000000000001c20f000000000000000000000000000000000700082
:0a14ce000000000000020000000012
:2014d8000000000000000000000000060000000000000000000000000000000000000036b8
:0914f800001400000000000000d7
:2015010000000000000000000000001c400000000000000000000000000000000000000965
:0a152100028023000000000000001b
:20152b004000000000a00000000000003db05c00000000000000020000000000000800d29b
:09154b00940400000061fbe000c3
:201554000000200080000000000080000348f500000000000000007c000000000000700724
:0a15740080000000034004d40200d0
:20157e00000000000011ab8040a000073c805c0000000000002000000000000000081e00cc
:09159e00000002800000000000c2
:2015a7000800000000099aa0021200144240f50000300000000200000000000000005000b8
:0a15c700000000a400000000000076
:2015d10040000000980000000000000674805c00000000000040000000000000000d190066
:0915f100000004000400000000e9
:2015fa000000000007800000000000002360f500000000000008003c000000000000989066
:0a161a00000000800542800000007f
:201624000003040000000000000000c774805c000000000000000012c0000000000d001792
:091644005fc0000040025c64403c
:20164d000000004000000000000000146260f5000004000000000000780000000000d80717
:0a166d007bfc000009401d980100fd
:201677000000000000000000000002003e805c00000000000000000035a00400000000bea0
:091697008800800000005f526031
:2016a00000002000000000000000003c0340f50000000000000000000350500100080001e9
:0a16c00080000000034006d0200067
:2016ca000000000000000000000000003e805c000000000000000000000000000050095637
:0916ea00c0000000000000000037
:2016f3000000000000000000000000000240f500000000000000000000000000000301c7d5
:0a17130025000000000200000000a5
:20171d0000000000000000000000026036805c0000000000000000000000000000080052de
:09173d009000e00000014a500098
:201746000800000000000000000000040360f50000000000000000000000000000003000ef
:0a1766008100000000000e000000ea
:201770000000000000000000004002663e805c00005000000000000000000000000780d6ea
:0917900000000000200000000030
:201799000000000000000000000c00040260f5000002000000000000000000000000100bac
:0a17b9008140000000400000000025
:0217c300000024
:0217c500110110
:0217c70001011e
:2017c9000000020000000000000800000000000020000000000000000000000000000000d6
:0917e900000000000000000000f7
:2017f2000000000000000000000000000000000000000000000000000000000000000000d7
:0a18120000000000000000000000cc
:20181c00000001000000000000040000000000001000000000040000000000000000000093
:09183c00000000000000000000a3
:2018450000000000000000000000000000000000000000000000000000060000000000007d
:0a1865000000000000000000000079
:20186f000000020000000000000800000000000020000000400000000000000000000000ef
:09188f0000000000000000000050
:2018980000000000000000400000000000000000000000000c0000000000000000000000e4
:0a18b8000000000000000000000026
:2018c200000000000004000000000000100000000000004000000001700000000000004001
:0918e200000000000001000000fc
:2018eb000000000000000000000000000000000000000000000000000000000000000000dd
:0a190b0000000000000000000000d2
:2019150000000000000c00000000000030000000000160c00000000020000000000000c075
:09193500000000000003000000a6
:20193e00000000000000000000000000000000000000000000000000000000000000000089
:0a195e00000000000000000000007f
:2019680000000000000000000000000000000000000000000000000000000000000000005f
:0919880000000000000000000056
:20199100000000000000000000000000000000000000000000000000000000000000000036
:0a19b100000000000000000000002c
:2019bb0000000000000000000000000000000000000000000000000000000000000000000c
:0919db0000000000000000000003
:2019e4000000000000000000000000000000000001000000000040000000000001000000a1
:0a1a040000000004000000000000d4
:201a0e00000000000004000000000000100000000000004000000000100000000000004014
:091a2e00000000000001000000ae
:201a370000000000014000000000000000000000000000000000000000040000000000004a
:0a1a57000000000000000000000085
:201a6100000000000000000000000004000000000000000000000000000000000000000061
:091a81000000000000000000005c
:201a8a00000000000000000000000000380000000000000000000000000000000000000004
:0a1aaa000000000000000000000032
:201ab400000000000000000000000000000000000000000000000000000000000000000012
:091ad40000000000000000000009
:201add0000000000000000000000000000000000000000000000a000000000000000000049
:0a1afd0000000000000000000000df
:201b070000000000000000000000004000000000000000000000000000000000000000007e
:091b2700000000000000000000b5
:201b3000000000000000000000000000000000000000000000000e00000000000000000087
:0a1b5000000000000000000000008b
:201b5a00000200000000000000000000000000000000000000000000000000000000000069
:091b7a0000000000000000000062
:201b8300000000000000000000000000000000000000000000000000000000000000000042
:0a1ba3000000000000000000000038
:201bad00000000000000000000000000000000000000000000000000000000000000000018
:091bcd000000000000000000000f
:201bd6000000300000000000000000000000000000000000000000000000000000000000bf
:0a1bf60000000000000000000000e5
:201c00000000000000000000000000000000000000000000000000000000000000000000c4
:091c2000000000000000000000bb
:201c290000000000000000000000000000000000000000000000000000000000000000009b
:0a1c49000000000000000000000091
:201c5300000000000000000000000000010a00000000000000000000000000000000000066
:091c730000000000000000000068
:201c7c0000000000000000000000000000fea00000000000000000000000000000000000aa
:0a1c9c00000000000000000000003e
:201ca60000020000000000000000000000000000000000000000000000000000000000001c
:091cc60000000000000000000015
:201ccf000000000000000000000000000000000000000000000000000000000000000000f5
:0a1cef0000000000000000000000eb
:201cf9000000000000000000000000000000000000000000000000000000000000000000cb
:091d1900000000000000000000c1
:201d22000000000000000000000000000000000000000000000000000000000000000000a1
:0a1d42000000000000000000000097
:201d4c00000000000000000000000000000000000000000000000000000000000000000077
:091d6c000000000000000000006e
:201d750000000000000000000000000000000000000000000000000000000000000000004e
:0a1d95000000000000000000000044
:201d9f00000000000000000000000000000000000000000000000000000000000000000024
:091dbf000000000000000000001b
:201dc8000000000000000000000000000000000000000000000000000000000000000000fb
:0a1de80000000000000000000000f1
:201df2000002000000000000000000000000000000000000000000000000000000000000cf
:091e1200000000000000000000c7
:201e1b000000000000000000000000000000000000000000000000000000000000000000a7
:0a1e3b00000000000000000000009d
:201e450000000000000000000000000000000000000000000000000000000000000000007d
:091e650000000000000000000074
:201e6e00000030000000000000000000000000000000000000000000000000000000000024
:0a1e8e00000000000000000000004a
:201e980000000000000000000000000000000000000000000000000000000000000000002a
:091eb80000000000000000000021
:201ec100000000000000000000000000000000000000000000000000000000000000000001
:0a1ee10000000000000000000000f7
:201eeb000000000000000000000000000000000000000000000000000000000000000000d7
:091f0b00000000000000000000cd
:201f14000000000000000000000000000000000000000000000000000000000000000000ad
:0a1f340000000000000000000000a3
:201f3e0000020000000000000000000000000000040000000010000000000000000000006d
:091f5e000000000000000000007a
:201f6700000000000000000000000000000000000000000000010000000000000000000059
:0a1f87000000000000000000000050
:201f9100000000000800000000000000000000000000000000000000000000000000000028
:091fb10000000000000000000027
:201fba00000000000580000000000000000000000000000000000000000000000000000082
:0a1fda0000000000000000000000fd
:201fe4000000000000000000000000000000000000000000000000000000000000000000dd
:09200400000000000000000000d3
:20200d000000000001800000000000000000000000000000000000000000000002800000b0
:0a202d0000000000000000000000a9
:20203700000000000000000000000000000000000000000000040000000000000000000085
:0920570000000000000000000080
:20206000000000000000000000000000000000000000000000002000000000000000000040
:0a2080000000000000000000000056
:20208a0000020000f0073814040000000000000000000000000000000000000000000000ed
:0920aa000000000000000000002d
:2020b3000000000000005ad090000000000000000000000000000000000000000000000053
:0a20d3000000000000000000000003
:2020dd000000000010000000000000000000000000000000000000000000000000000000d3
:0920fd00000000000000000000da
:20210600000030000800000000000000000000000000000000000000000000000000000081
:0a21260000000000000000000000af
:202130000828200070000000000000000000000000000000000000000000000000000000cf
:0921500000000000000000000086
:202159000480410000000000000000000000000000000000000000000000000000000000a1
:0a21790000000000e000000000007c
:202183008000080000052a8801000000000000002800000000000000000000000180000053
:0921a30000000000000000000033
:2021ac00000002800000fb80500000000000000000000000000000000000000000000000c6
:0a21cc000000000000000000000009
:2021d600000200000000000000000000000000000000000000004000000000000000400067
:0921f600000000000000000000e0
:2021ff000400000000000000000000000000000000000000000000000000000000000000bc
:0a221f0000000000000000000000b5
:20222900000000000000000000c000200000000000000000000000000000000300000000b2
:0922490000000c0002000000007e
:202252000000000000000000000c00060000000000000000000000000000000030003800f2
:0a227200000000c000e000000000c2
:20227c00800000000000000000000020000000000000000000000000000000002000800002
:09229c0000000000000000000039
:2022a50000000000038000000000000400000000000000000000000000000000010038e079
:0a22c500000000000043800000004c
:2022cf000000000000b000000000000000000000000000000000000000000000000100003e
:0922ef00000000000000000000e6
:2022f800000000000001000000000000000000000000000000000000000000000000300095
:0a23180000000000000000000000bb
:2023220080008000000000000000000000000000000000000000000000000000000000009b
:0923420000000000000000000092
:20234b000000000380000000000000000000000000000000000000000000000000000000ef
:0a236b000000000000000000000068
:2023750000000800d0058280800000000000000000000000000000000000000000000000e9
:092395000000000000000000003f
:20239e00000030000000ba80100000000000000000000000000000000000000000000000a5
:0a23be000000000000000000000015
:2023c80000002000080000000040004000000000000000000000000000000003000010003a
:0923e80000000c000400000000dc
:2023f10000000100050000000004002000000000000000000000040000000000300001c0ad
:0a241100000000c0020000000000ff
:20241b00800028000000000000a00000000000000200000000000000000000028000003a9b
:09243b0030600a000000000000fe
:202444000000028000000000000a0000000000000000000000000000000000002800000db7
:0a246400732d80a0000000000000ae
:20246e00000000000000000000000003c00550c00400000000000000000000000000000072
:09248e00000001000000005504eb
:2024970000000000000000000000000005485540000000000000a00000000000000018008b
:0a24b70000000000000014855480ae
:2024c1000000000010a0000000c00044020000000000000000400000000000000000000005
:0924e10000000c000400000000e2
:2024ea0000000000058100000004002671e0008000000000000c0000000000000000000045
:0a250a000000004002600c00080011
:2025140080000000508003cc20000040060f500000000000000000200000000000000000a3
:0925340000000000040060f5083d
:20253d00000000000b1b07bcc0800026036805c0000000000000800400000000000000007b
:0a255d0000000000026036805c0000
:20256700000000005005038000000000140f5000000000000000024000000000000d00b00a
:092587003e820040000140f5080d
:2025900000000000080073200080000003e805c000000000000000000000000002808088d6
:0a25b00073d4000200003e805c00be
:2025ba0040004000b0a9c00000006000040f500000000000000000000000000000000000a5
:0925da00000000002c0040f50097
:2025e3000000000005819ba000c0000003e805c000000000000000000000000000000000a7
:0a2603000000000000003e805c00b3
:20260d0000000000000f2000000001c2160f50000280000000000000000000008000000044
:09262d00000000001c2160f50012
:20263600000020000008ff4200000016074805c000000000000000000000000000000000f1
:0a2656000000000000e074805c004a
:2026600000000000f00b3c0000000002060f5000000000000040c04000000000000000007c
:0926800000000000002060f500dc
:20268900040000000000338200000004674805c000000000000400200000000000000000dc
:0a26a90000000000004674805c0091
:2026b3008000000008a0000000a001c0140f50000000000000a0000000000000000000006b
:0926d30000000a001c0140f5089a
:2026dc0000000000010a00000002000003c805c000000000000a0000000000000000000037
:0a26fc000000002800103c805c0084
:2027060000020000000d3bc402000000040f50400000000000000002400550400000000029
:0927260000000000000040f50471
:20272f0004000010000082bc8000000003c805c0000000000000000001485540000000004a
:0a274f000000000000003c805c0068
:202759000000000000a3bc0000c000600e0f50000000000000c0004402000000000000006e
:0927790000000c00042360f500cf
:2027820004000000001bb340400c003461e805c0000000000004002630c00080028000007b
:0a27a2000000004002667e805c002b
:2027ac00800000000003bc00000000403e0f500000000000000000403e0f500000090052b9
:0927cc00c0000000042260f500c9
:2027d500000000000000b34200000026716805c00000000000000026036805c00000800550
:0a27f5003804000002607e805c00e2
:2027ff000000000050000000000000000c0f500000000000000000042c0f50000000080068
:09281f0000000000000340f50078
:20282800040000000d80000000000000016805c0000000000000000033e805c00000781069
:0a2848000000000000003e805c006c
:202852000002000050a00000000003603c0f50000000000000000003fc0f5000000d00907b
:0928720036c00000000240f50030
:20287b00000000000d9b00000000000e01e805c0000000000000000003e805e00000000801
:0a289b00039c0c0000003e805c006e
:2028a5000000000000000000000002c20e0f500000000000000000022e0f500002850a942e
:0928c50034004000022b60f50014
:2028ce00000030000000000000000026054805c0000000000000000c074805c000055819ec
:0a28ee0062804c0000e034805c00c2
:2028f8000800000000000000000000023e0f500000000000000000023e0f500000050ab8b3
:0929180000020000003660f50029
:20292100040000000000000000000000654805c00000000000000004674805c00000d9ad22
:0a2941006a00080000067c805c00bc
:20294b008000003000000000002008000c0f50000000000000a000002c0f5000000009d322
:09296b0000000200402b40f500c1
:2029740000000000000000000002004001c805c0000000000002000003c805c0001000bd14
:0a299400b420002000003c805c002d
:20299e00002a00000000000000000a403ccf500004000000000000003c0f50400005000066
:0929be0000000000043659f50088
:2029c70004004000000000000000000001da05c0000000000000000003c805c0000000007c
:0a29e7000000000000007ca05c006e
:2029f100000000000000000000c00000000000000000000000400042960f50002800001a4d
:092a110042800004020010f300f1
:202a1a004400000000000000000400000000000000000000000c002065e805c0010001cd47
:0a2a3a002c10040000e001af302072
:202a4400800000000000000000000000000000000000000000000040060f50000000005af3
:092a6400de800000003550a000e6
:202a6d00000000000000000000000000000000000000000000000026016805c000000001f4
:0a2a8d00e3d40000000040c5011072
:202a97000c00000000000000000000000000000000000000000003c2940f5000000000005b
:092ab700000000002c00000000ea
:202ac000048000000000000000000000000000000000000000000020056805c00000000020
:0a2ae00000000000020000000000ea
:202aea00000200000000000000000000000000000000000000080000040f500000000b97bd
:092b0a00400000000038ee00005c
:202b130000000003800000000000000000000000000000000000000001e805c00000000968
:0a2b33002820000000033cb0100051
:202b3d00004000000000000000000020000000000000000000140002160f50000005000088
:092b5d0000000000022c00000041
:202b66000006b000000000000000001c000000000000000000012006054805c00000d9a0cb
:0a2b86000000000001428000000082
:202b9000000000000000000000401440000000000000000000000362060f500000001a5657
:092bb000c0000000346c00ff08b5
:202bb9000400000000000000000400a000000000000000000000003e654805c0000051fd56
:0a2bd900a600000000e2800ff208e1
:202be300800000000000000000200000000000000000000000a00000140f500000001a9c69
:092c03000f0000043443590000e5
:202c0c0000000000000000000002000000000000000000000002000001c805c0000050fdc9
:0a2c2c0078e00a000012b6b80000bc
:202c3600000200000000000000000243c0055040000000000000034005df5000000000501b
:092c56000280000002005d000094
:202c5f0004000000000000000000000005485540000000000000002001df05c0008059a031
:0a2c7f0060140000c14024a0800092
:202c890000000000f0af3800024600400200000000200000000000c015e0020000070000ec
:092ca900000000202441d9901024
:202cb200000000000d81ff020004802000c00080000500000000000001db8000000000002e
:0a2cd200000000040206379a00001b
:202cdc008000000050002bcc20000040160f5000000000000000000000000000000000003c
:092cfc000000004000000000008f
:202d050000000000000007bcc0000026016805c0000000000000001c0000000000001800a3
:0a2d250000000000000000000000a4
:202d2f00000000005000000000000000040f500000000000000000000000000000000010c1
:092d4f0000000000023879e320c5
:202d5800000000000800000000000000016805c00000000000000000000000000000700da8
:0a2d7800b8150400004077fc30009d
:202d82000002000000000000000003c3140f5000000000000000000000000000000f0000e7
:092da20000000000000000000028
:202dab0000000000000000000000002005e805c00000000000000000000000000000000036
:0a2dcb0000000000000000000000fe
:202dd500000000000000000000041402060f5000004000000000000000000000000590008a
:092df50000000001562f4adb0129
:202dfe0000002000000000000000a006054805c8000000000000000030000000000038a0cd
:0a2e1e00000000000067a00e700025
:202e2800204000000000000000000002160f508000000000000002c000000002000000006f
:092e48000000000014000000006d
:202e510002038000050000000000001e654805c00000000000000020000000001000000017
:0a2e710000000000000280000000d5
:202e7b008000000000000000002001c0040f500800000000000000000000000080000d7866
:092e9b00294000003469705f0158
:202ea4000000000000000000000a0a2001c805c00000000000000000000000002800781d8f
:0a2ec400bbd5000001e72eaa500064
:202ece00000200000000000000000000140f50c00400000000000000000000000001001298
:092eee00600a00007600480000b3
:202ef70000400003800000000000011e01c805c00000000000004000000000000000800586
:0a2f1700f5910000014005d800000c
:022f21000000ae
:022f2300110299
:022f25000101a8
:202f270000000000000000000000000000000000000000000000000000000000000000008a
:092f470000000000000000000081
:202f5000000000000000000000000000000000000000000000000000000000000000000061
:0a2f70000000000000000000000057
:202f7a000000000000000000000000000000000000000000000000000000008000000000b7
:092f9a000000000000000000002e
:202fa30000000000000000000000000000000000000000000000000000000000000000000e
:0a2fc3000000000000000000000004
:202fcd000000000000000000000000000000000000000000000000000000000000000000e4
:092fed00000000000000000000db
:202ff6000000000000000000000000000000000000000000000000000000000000000000bb
:0a30160000000000000000000000b0
:203020000000000000080000000000002000000000080000000000002000000000000080c0
:0930400000000000000200000085
:20304900000000000000000000000000000000000000000000000000000000000000000067
:0a306900000000000000000000005d
:2030730000000000000c00000000000030000000000c00000000000030000000000000c005
:0930930000000000000300000031
:20309c00000000000000000000000000000000000000000000000000000000000000000014
:0a30bc00000000000000000000000a
:2030c6000000000000000000000000000000000000000000000000000000000000000000ea
:0930e600000000000000000008d9
:2030ef000000000000000000000000000000000000000000000000000000000000000000c1
:0a310f0000000000000000000000b6
:20311900000000000000000000000000000000000000000000000000000000000000000096
:093139000000000000008000000d
:20314200000000000000000000000000000000000000000000000000000000080000000065
:0a31620000002000000002000080c1
:20316c0000000000000800000000000020000000000800000000000820000000000000806b
:09318c0000000000000200000038
:2031950000000000000000000000000000000000000000000000000000000000000000001a
:0a31b500000000000000020000000e
:2031bf000000000000000000000000000000000000000000000000000000000000000000f0
:0931df00000000000000000000e7
:2031e80000002000000000000000000000000000000000000800000000000000000000009f
:0a32080000000000000000000000bc
:2032120000000000000000000000000000000000000000000000000000000000000000009c
:0932320000000000000000000093
:20323b00000000000000000000000000000000000000000000000000000000000000000073
:0a325b000000000000000000000069
:20326500000000000000000000000000000000000000000000000000000000000000000049
:0932850000000000000000000040
:20328e00000000000000000000000000000000000000000000000000000000000000000020
:0a32ae000000000000000000000016
:2032b8000003000000000000000000000000000000000000000000000000000000000000f3
:0932d800000000000000000000ed
:2032e1000000000000000000000000000000000000000000000000000000000000000000cd
:0a33010000000000000000000000c2
:20330b000000000000000000000000000000000000000000000000000000000000000000a2
:09332b0000000000000000000099
:20333400000020000000000000000000000000000000000000000000000000000000000059
:0a335400000000000000000000006f
:20335e0000000000000000000000000000000000000000000000000000000000000000004f
:09337e0000000000000000000046
:20338700000000000000000000000000000000000000000000000000000000000000000026
:0a33a700000000000000000000001c
:2033b1000000000000000000000000000000000000000000000000000000000000000000fc
:0933d100000000000000000000f3
:2033da000000000000000000000000000000000000000000000000000000000000000000d3
:0a33fa0000000000000000000000c9
:203404000000000000000000000000000000000000000000000000000000000000000000a8
:093424000000000000000000009f
:20342d0000000000000000000000000000000000000000000000000000000000000000007f
:0a344d000000000000000000000075
:20345700000000000000000000000000000000000000000000000000000000000000000055
:093477000000000000000000004c
:2034800000002000000000000000000000000000000000000000000000000000000000000c
:0a34a0000000000000000000000022
:2034aa00000000000000000000000000000000000000000000000000000000000000000002
:0934ca00000000000000000000f9
:2034d3000000000000000000000000000000000000000000000000000000000000000000d9
:0a34f30000000000000000000000cf
:2034fd000000000000000000000000000000000000000000000000000000000000000000af
:09351d00000000000000000000a5
:20352600000000000000000000000000000000000000000000000000000000000000000085
:0a354600000000000000000000007b
:20355000000300000000000000000000000000000000000000000000000000000000000058
:093570000000000000000008004a
:20357900000000000000000000000000000000000000000000000000000000000000000032
:0a3599000000000000000000000028
:2035a300000000000000000000000000000000000000000000000000000000000000000008
:0935c300000000000000000000ff
:2035cc000000200000000000000000000000000000000000000000000000000000000000bf
:0a35ec0000000000000000000000d5
:2035f6000000000000000000000000000000000000000000000000000000000000000000b5
:09361600000000000000000000ab
:20361f0000000000000000000000000000000000000000000000000000000000000000008b
:0a363f000000000000000000000081
:20364900000000000000000000000000000000000000000000000000000000000000000061
:0936690000000000000000000058
:20367200000000000000000000000000000000000000000000000000000000000000000038
:0a369200000000000000000000002e
:20369c0000000000000000000000000000000000000000000000000000000000000000000e
:0936bc0000000000000000000005
:2036c5000000000000000000000000000000000000000000000000000000000000000000e5
:0a36e50000000000000000000000db
:2036ef000000000000000000000000000000000000000000000000000000000000000000bb
:09370f00000000000000000000b1
:20371800000020000000000000000000000000000000000008000000000000000000000069
:0a3738000000000000000000000087
:20374200000000000000000000000000000000000000000000000000000000000000000067
:093762000000000000000000005e
:20376b000000000000000000000000000000000000000000000000000000008000000000be
:0a378b000000000000000000000034
:20379500000000000000000000000000000000000000000000000000000000000000000014
:0937b5000000000000000000000b
:2037be000000000000000000000000000000000000000000000000000000000000000000eb
:0a37de0000000000000000000000e1
:2037e8000001000000000000000000000000000000000000000000000000000000000000c0
:09380800000000000000000000b7
:20381100000000000000000000000000000000000000000000000000000000000000000097
:0a383100000000000000000000008d
:20383b0000000000000000000000000000000000000000000000000000000000000000006d
:09385b0000000000000000000064
:20386400000020000000000000000000000000000000000000000000000000000000000024
:0a388400000000000000000000003a
:20388e0000000000000000000000000000000000000000000000000000000000000000001a
:0938ae0000000000000000000011
:2038b7000000100000000000000000000000000000000000000000000000000000000000e1
:0a38d70000000000000000000000e7
:2038e1000000000000000000000000000000000000000000000000000000000000000000c7
:09390100000000000000000000bd
:20390a00080000000000000000000000000000000000000000000000000000000000000095
:0a392a000000000000000000000093
:20393400000000000000000000000000000000000000000000000000000001400000000032
:093954000000000000000000006a
:20395d0000000000000000000000000000000000000000000000000000000000000000004a
:0a397d000000000000000000000040
:20398700000000000000000000000000000000000000000000000000000000000000000020
:0939a70000000000000000000017
:2039b0000000200000000000000000000000000000000000000000000000000000000000d7
:0a39d00000000000000000000000ed
:2039da000000000000000000000000000000000000000000000000000000000000000000cd
:0939fa00000000000000000000c4
:203a030008000000000000000000000000000000000000000000000000000000000000009b
:0a3a23000000000000000000180081
:203a2d00000000000000000000000000000000000000000000000000000000000000000079
:093a4d000000000000000200006e
:203a5600000000000000000000000000000000000000000000000000000000000000000050
:0a3a76000000000000000000000046
:203a8000000300000000000000000000000000000000000000000000000000000000000023
:093aa00000000000000000080015
:203aa9000000000000000000000000000000000000000000000000000000000000000000fd
:0a3ac90000000000000000000000f3
:203ad3000000000000000000000000000000000000000000000000000000000000000000d3
:093af300000000000000000000ca
:203afc0000002000000000000000000000000000000000000000000000000000000000008a
:0a3b1c00000000000000000000009f
:203b260000000000000000000000000000000000000000000000000000000000000000007f
:093b460000000000000000000076
:203b4f00000000000000000000000000000000000000000000000000000000000000000056
:0a3b6f00000000000000000000004c
:203b790000000000000000000000000000000000000000000000000000000000000000002c
:093b990000000000000000000023
:203ba200000000000000000000000000000000000000000000000000000000000000000003
:0a3bc20000000000000000000000f9
:203bcc000000000000000000000000000000000000000000000000000000000000000000d9
:093bec00000000000000000000d0
:203bf5000000000000000000000000000000000000000000000000000000000000000000b0
:0a3c150000000000000000000000a5
:203c1f000000000000000000000000000000000000000000000000000000000001000396eb
:093c3f0000000000000018a000c4
:203c480000002000000000000000000000000000000000000800000000000000000007002d
:0a3c68000000000000000010000042
:203c720000000000000000000000000000000000000000000000000000000000010f13808f
:093c9200000040000000000001e8
:203c9b00400000000000000000000000000000000000000000000000000000000000f04099
:0a3cbb000000050000000d000010dd
:203cc50000000000000000000000000000000000000000000000000000000000010f1700b8
:093ce5007800000000001800c086
:203cee00000000000000000000000000000000000000000000000000000000000000f04086
:0a3d0e0004000000000000000000a7
:203d180000030000000000000000000000000000000000000000000000000000010f102048
:093d38000000000801dc0000009d
:203d4100000000000000000000000000000000000000000000000000000000010040f3002e
:0a3d6100400000003c00900000004c
:203d6b0000000000000000000000000000000000000000000000000000000000010f120016
:093d8b003800000003e80000000c
:203d9400000020000000000000000000000000000000000000000000000000000000f040bf
:0a3db400000000001026b00c000013
:203dbe0000000000000000000000000000000000000000000000000000000000010f1714aa
:093dde00000100000000001000cb
:203de700000000000000000000000000000000000000000000000000000000000000f04389
:0a3e0700600020000000000a000027
:203e110000000000000000000000000000000000000000000000000000000000030f1694d5
:093e310028000000000000e00080
:203e3a0000000000000000000000000000000000000000000000000000000000000f004019
:0a3e5a0026c0000000000000000078
:203e640000000000000000000000000000000000000000000000000000000000030f17868f
:093e8400000000000000800000b5
:203e8d0000000000000000000000000000000000000000000000000000000000000f0040c6
:0a3ead000000000000000500000006
:203eb70040000000000000000000000000000000000000100000000000000000030f1380f6
:093ed7000400000af400999000b7
:203ee00000002000000000000000000000000000000000000000000000000000020f000091
:0a3f000003c000001f84c908000080
:203f0a0000000000000000000000000000000000000000000000000000000000030f1380f2
:093f2a000000400800c8018001fc
:203f33004803c000000000000000000000000000000000000000000000000010000f000044
:0a3f5300000004003c008010181468
:203f5d0040000000000000000000000000000000000000000000000000000000030f12a63a
:093f7d000000000043cc018400a7
:203f860000c00000000000000000000000000000000000000000000000000000000f00400c
:0a3fa600400000000034d01b200092
:203fb00000030000000000000000000000000000000000000000000000000000030f12a02a
:093fd0006000000800ca1800009e
:203fd90000400000000000000000000000000000000000000000000000000000000f004039
:0a3ff900400000003c009080000032
:2040030000000000000000000000000000000000000000000000000000000000030f1780f4
:0940230000000000054981a00025
:20402c0000002000000000000000000000000000000000000000000000000000000f000045
:0a404c00000000000005f50b000065
:2040560000000000000000000000000000000000000000000000000000000000030f1680a2
:094076000000000042ef99a000d7
:20407f0000000000000000000000000000000000000000000000000000000000000f000012
:0a409f0000000000001fc500000033
:2040a90000000000000000000000000000000000000000000000000000000000030f16804f
:0940c9006400000829f859d00038
:2040d20008000000000000000000000000000000000000000000000000000000000f004077
:0a40f200020000002802c00a0000ce
:2040fc0000000000000000000000000000000000000000000000000000000000030f1786f5
:09411c000400000800c99811001c
:2041250000000000000000000000000000000000000000000000000000000000000f00402b
:0a414500020000003c01d10a000056
:20414f0000000000000000000000000000000000000000000000000000000000030f1380ab
:09416f0000000808004b300000bc
:2041780000002000000000000000000000000000000000000800000000000000020f0000ee
:0a419800000000003c02900e000041
:2041a20000000000000000000000000000000000000000000000000000000900030f13804f
:0941c2000000400000001800019b
:2041cb0008000000000000000000000000000000000000000000000000000088000f000035
:0a41eb00000005000000098000102c
:2041f50000000000000000000000000000000000000000000000000000000000030f12a6e0
:094215002000000041ff00100030
:20421e0000000000000000000000000000000000000000000000000000000000000f004031
:0a423e0040000000003de008000011
:2042480000020000000000000000000000000000000000000000000000000000030f12a090
:094268006000000040fd000000b0
:2042710000000000000000000000000000000000000000000000000000000000000f0040de
:0a42910040000000002ec0000000f5
:20429b0000000000000000000000000000000000000000000000000000000000030f17805a
:0942bb00000000000000d8a00082
:2042c40000002000000000000000000000000000000000000000000000000000000f0000ab
:0a42e400000000000000050a0000c1
:2042ee0040000000000000000000000000000000000000000000000000000000030f1680c8
:09430e000000000040cf81b00066
:2043170000000000000000000000000000000000000000000000000000000000000f000077
:0a43370000000000001e950a0000bf
:2043410000000000000000000000000000000000000000000000000000000000030f1680b4
:094361006400000043cc51b000df
:20436a0008000000000000000000000000000000000000000000000000000000000f0040dc
:0a438a0002000000003ec50a00001a
:2043940040000000000000000000000000000000000000000000000000000000030f17861a
:0943b40004000000000058a00004
:2043bd0000000000000000000000000000000000000000000000000000000100000f004090
:0a43dd00020000000000050a0000c5
:2043e70000000000000000000000000000000000000000000000000000000000030f138011
:094407000400000000001a00c0ce
:2044100000002000000000000000000000000000000000000000000000000000020f00005b
:0a44300003c0000000000d0b0000a7
:20443a0000000000000000000000000000000000000000000000000000000014030f1380a9
:09445a0000004000424b00a0806c
:2044630000000000000000000000000000000000000000000000000000000001400f0000e9
:0a44830000000400003f8010180044
:20448d0000000000000000000000000000000000000000000022801dd0000008030f12a6ae
:0944ad00000000000000d0a40092
:2044b6000000000000000000000000000000000000000000000040282c000000400f0040c3
:0a44d60040000000000007902000e5
:2044e00000030000000000000000000000000000000000000000000000000000030f128015
:09450000600000000348500c00ab
:2045090000000000000000000000000000000000000000000000000000000000000f004043
:0a45290000000000101cbd8b000014
:2045330000000000000000000000000000000000000000000000000000000000030f1780bf
:094553000000000043cf0000004d
:20455c0000002000000000000000000000000000000000000000000000000000000f000010
:0a457c0000000000001dc00e00004a
:20458600000000000000000000000000000000000000000000000000000c4000030f168021
:0945a6000000011005dc80120088
:2045af0000000000000000000000000000000000000000000000000000019200000f00004a
:0a45cf00000000000001910d400003
:2045d900000000000000000000000000000000000000000000000000000e000002aa178071
:0945f90064000000057b81908044
:2046020000000000000000000000000000000000000000000000000000310000000aa0407d
:0a46220002000000000dbb0d0000b7
:20462c0000000000000000000000000000000000000000000000000000000000000000204e
:09464c0004000000000001c000a0
:20465500000000000000000000000000000000000000000000000000000000000000000045
:0a467500420000000000071e0000d4
:02467f00000039
:02468100110323
:02468300010133
:20468500000000000000000000000000000000000000000010000000000000000000000005
:0946a5000000000000000000000c
:2046ae000000000000000000000000000000000000000000000000000000000000000000ec
:0a46ce0000000000000000000000e2
:2046d800000000000000000000000000000000000000000020000000000000800000000022
:0946f800000200000000000000b7
:20470100000000000000000000000000000000000000000000000000000000000000000098
:0a472100000000000000000000008e
:20472b0000000000000000000000000000000000000000001000000000000000000000005e
:09474b0000000000000000000065
:204754000000000000000000000000000000000000800000000000000000000000000000c5
:0a477400000000000000000000003b
:20477e00000000000008000000000000000000000000000000000000200000000000008073
:09479e0000000000000200000010
:2047a7000000000000000000000000000000000000000000000000000000000000000000f2
:0a47c70000000000000000000000e8
:2047d10000000000000c00000000000030000000000c00000000000030000000000000c090
:0947f100000000000003000000bc
:2047fa0000000000000000000000000000000000000000000000000000000000000000009f
:0a481a000000000000000000000094
:20482400000000000000000000000000000000000000000000000000000000000000000074
:094844000000000000000000006b
:20484d0000000000000000000000000000000000000000000100000000000000000000004a
:0a486d000000000000000000000041
:2048770000000000000000000000000000000080000000000000000002000080000000001f
:0948970000000000000000000018
:2048a0000000000000000000000000000000000800000000020000000020000800000000c6
:0a48c000000020000000000000804e
:2048ca000000000000080000000000002000000000080000000000002000000000000080fe
:0948ea00000000000002000000c3
:2048f30000000000000000000000000000000000000000e0010000000000000000000200c2
:0a491300000000000000000000009a
:20491d0000000000000000000000000000000000000000000000000000000000000000007a
:09493d0000000000000000000071
:20494600000000000000000000000000000000000000000000000000000000000000000051
:0a4966000000000000000000000047
:20497000000000000000000000000000000000000000000000000000000000000000000027
:094990000000000000000000001e
:204999000000000000000000000000000000000000000000000000000000000000000000fe
:0a49b90000000000000000000000f4
:2049c3000000000000000000000000000000000000000000000000000000000000000000d4
:0949e300000000000000000000cb
:2049ec000000000000000000000000000000000000000000000000000000000000000000ab
:0a4a0c0000000000000000000000a0
:204a160000020000000000000000000000000000000000000000000000004000000000003e
:094a360000000000000000000077
:204a3f00000000000000000000000000000000000000000000000000000002000000000055
:0a4a5f00000000000000000000004d
:204a690000000000000000000000000000000000000000000000000000000000000000002d
:094a890000000000000000000024
:204a92000000300000000000000000000000000000000000000000000000000000000000d4
:0a4ab20000000000000000000000fa
:204abc000000000000000000000000000000000000000000000000000000000000000000da
:094adc00000000000000000000d1
:204ae5000000000000000000000000000000000000000000000000000000000000000000b1
:0a4b050000000000000000000000a6
:204b0f00000000000000000000000000000000000000000000000000000000000000000086
:094b2f000000000000000000007d
:204b380000000000000000000000000000000000000000000000000000000000000000005d
:0a4b58000000000000000000000053
:204b6200000200000000000000000000000000000000000000000000000000000000000031
:094b82000000000000000000002a
:204b8b0000000000000000000000000000000000000000000000000000000000000000000a
:0a4bab000000000000000000000000
:204bb5000000000000000000000000000000000000000000000000000000000000000000e0
:094bd500000000000000000000d7
:204bde000400000000000000000000000000000000000000000000000000000000000000b3
:0a4bfe0000000000000000000000ad
:204c080080000000000000000000000000000000000000000000000000000000000000000c
:094c280000000000000000000083
:204c3100000000000000000000000000000000000000000000000000000000000000000063
:0a4c51000000000000000000000059
:204c5b000c2800000000000000000000000000000000000000000000000000000000000005
:094c7b0000000000000000000030
:204c840004404000000000000000000000000000000000000000000000000000000000008c
:0a4ca4000000000000000000000006
:204cae000000000000000000000000000000000000000000000000000000000000000000e6
:094cce00000000000000000000dd
:204cd7000000000000000000000000000000000000000000000000000000000000000000bd
:0a4cf70000000000000000000000b3
:204d0100000000000000000000000000000000000000000000000000000000000000000092
:094d210000000000000000000089
:204d2a00000030000000000000000000000000000000000000000000000000000000000039
:0a4d4a00000000000000000000005f
:204d54008000000000000000000000000000000000000000000000000000000000000000bf
:094d740000000000000000000036
:204d7d00000000000000000000000000000000000000000080000000000000000000000096
:0a4d9d00000000000000000000000c
:204da70080000000000000000000000000000000000000000000000000000000000000006c
:094dc700000000000000000000e3
:204dd0000000000000000000000000000000000000000000000000000000000000000000c3
:0a4df00000000000000000000000b9
:204dfa00000200000000000000000000000000000000000080000000000000000000000017
:094e1a000000000000000000008f
:204e2300000008000000000000000000000000000000000000000000000000000000000067
:0a4e43000000000000000000000065
:204e4d00000000000000000000000000000000000000000000000000000000000000000045
:094e6d000000000000000000003c
:204e760000000000000000000000000000000000000000000000000000000000000000001c
:0a4e96000000000000000000000012
:204ea000800000000000000000000000000000000000000000000000000000000000000072
:094ec000000000000000000000e9
:204ec9000000000000000000000000000000000000000000000000000000000000000000c9
:0a4ee90000000000000000000000bf
:204ef30000000000000000000000000000000000000000000000000000000000000000009f
:094f130000000000000000000095
:204f1c00000000000000000000000000000000000000000000000000000000000000000075
:0a4f3c00000000000000000000006b
:204f4600000300000000000000000000000000000000000000000000000000000000000048
:094f660000000000000000000042
:204f6f00000000000000000000000000000000000000000000000000000000000000000022
:0a4f8f000000000000000000000018
:204f99000000000000000000000000000000000000000001000000000000000000000000f7
:094fb900000000000000000000ef
:204fc2000000100000000000000000000000000000000000000000000000000000000000bf
:0a4fe20000000000000000000800bd
:204fec000000000000000000000000000000000000000000000000000000000000000000a5
:09500c000000000000000000009b
:2050150000000000000000000000000000000000000000000000000000000000000000007b
:0a5035000000000000000000000071
:20503f008000000000000000000000000000000000000000000000000000000000000000d1
:09505f0000000000000000000048
:20506800000000000000000000000000000000000000000000000000000000000000000028
:0a508800000000000000000000001e
:205092000000000000000000000000000000000000000000000000000000040000000000fa
:0950b200000000000000000000f5
:2050bb000000000000000000000000000000000000000000000000000000000000000000d5
:0a50db0000000000000000000000cb
:2050e5000000000000000000000000000000000000000000000000000000000000000000ab
:09510500000000000000000000a1
:20510e0004000000000000000000000000000000000000000000000000000000000000007d
:0a512e000000000000000000000077
:205138008000000000000000000000000000000000000008000000000000000000000000cf
:095158000000000000000100004d
:2051610000000000000000000000000000000000000000000000000000000000000000002e
:0a518100000000000000001e000006
:20518b000c00000000000000000000000000000000000000000000000000000000000000f8
:0951ab00000000000000000000fb
:2051b4000400000000000000000000000000000000000000000000000000000000000000d7
:0a51d40000000000000000000000d1
:2051de000002000000000000000000000000000000000000000000000000000000000000af
:0951fe00000000000000f00000b8
:20520700000000000000000000000000000000000000000000000000000000000000000087
:0a5227000000000000000800000075
:2052310000000000000000000000000000000000000000000000000000000000000000005d
:0952510000000002bc2000000076
:20525a000040300000000000000000000000000000000000000000000000000000000000c4
:0a527a00000000012bcce000000052
:2052840000000000000000000000000000000000000000000000000000000000000000000a
:0952a40000000000000000000001
:2052ad000000000000000000000000000000000000000000000000000000000000000000e1
:0a52cd0000000000000000000000d7
:2052d7000000000000000000000000000000000000000000000000000000000000000000b7
:0952f700000000000000000000ae
:20530000000780000000000000000000000000000000000000000000000000000000000006
:0a5320000000000000000000000083
:20532a000002000000000000000000000000000000000000800000000000004000000000a1
:09534a000000000000000000005a
:20535300000000000000000000000000000000000000000000000000000000080000000032
:0a5373000000000000000000000030
:20537d00000000000000000000000000000000000000000000000000000000000000000010
:09539d0000000000000000000007
:2053a6000000000000000000000000000000000000000000000000000000000000000000e7
:0a53c60000000000000000000000dd
:2053d000800000000000000000000000000000000000000000000000000900000000000034
:0953f000000000000000000000b4
:2053f900000000000000000000000000000000000000000000000000000180000000000013
:0a5419000000000000000000000089
:20542300000000000000000000000000000000000000000000000000000000000000000069
:0954430000000000000000000060
:20544c00000000000000000000000000000000000000000000000000000000000000000040
:0a546c000000000000000000000036
:20547600000000000000000000000000000000000000000000000000000e00000000000008
:095496000000000000000002000b
:20549f000000000000000000000000000000000000000000000000000000180000000000d5
:0a54bf0000000000000000004000a3
:2054c9000000000000000000000000000000000000000000000000000000001000000000b3
:0954e900000000000000000000ba
:2054f20000000000000000000000000000000000000000000000000000000000000000009a
:0a551200000000000000000000008f
:20551c0000000000000000000000000000000000000000000000000000100004000000005b
:09553c0000000000000050a00076
:205545000000000000000000000000000000000000000000000000000001c0008000000005
:0a5565000000000000000d810000ae
:20556f008000000000000000000000000000000000000000000422dc9000001000000000fa
:09558f0000000000000000a00073
:205598000000000000000000000000000000000000000000000208014f5000014000000008
:0a55b80000000000000000010000e8
:2055c2000000000000000000000000000000000000000000080000000000000000000000c1
:0955e20000000000005b00000065
:2055eb000000000000000000000000000000000000000000000000000000000000000000a0
:0a560b00000000040074a00000007d
:2056150000000000000000000000000000000000000000000000141cd00000000000000075
:095635000000200000000000004c
:20563e008000000000000000000000000000000000000000000409086b000000000000004c
:0a565e000000030000000000000c33
:20566800800000000000000000000000000000000000000000000000000f00000000000093
:0956880000000000000000000019
:205691000000000000000000000000000000000000000000000000000000100000000000e9
:0a56b10000000000000000000000ef
:2056bb000000000000000000000000000000000000000000000000000000000000000000cf
:0956db003c000000000000c000ca
:2056e40000000000000000000000000000000000000000000000000000180000000000008e
:0a570400000000000000000100009a
:20570e00000200000000000000000000000000000000000000000000000000000000002455
:09572e00000000000000b00000c2
:20573700000000000000000000000000000000000000000000000000000000000000000052
:0a5757000000000000000800000040
:20576100000000000000000000000000000000000000000800000000000000000000000020
:095781000000000000000000001f
:20578a000000300000000000000000000000000000000001100000000000000000000000be
:0a57aa0000000000000000000000f5
:2057b4000000000000000000000000000000000000000000000000000010000400000000c1
:0957d4002000200000000080000c
:2057dd008000000000000000000000000000000000000002700000000000a000800000009a
:0a57fd000240030000000001000c50
:20580700800000000000000000000000000000000000000000000000000e001000000000e3
:0958270000005000000000000127
:20583000000000000000000000000000000000000000000000000000000000010000000057
:0a585000000004000000000000103a
:20585a00000200000000000000000000000000000000000680000000000c000020aa0000d0
:09587a0000000082a80000e0001b
:2058830000000000000000000000000000000000000000000000000000001000002aa12802
:0a58a30000000004aa84a000000029
:2058ad00000000000000000000000000000000000000000000203d43e00e0000000000004d
:0958cd00200030000010108000e2
:2058d600c00000000000000000000000000000000000000000000294da00100000100070f2
:0a58f600064002004000880f000c7d
:205900000000000000000000000000000000000000000000000000000018000004af0200ba
:0959200020000042bc19008000c7
:205929000000000000000000000000000000000000000000000000000000e000003a0168db
:0a59490006400000e805f019000018
:205953000000000000000000000000000000000000000000000000000000000000af028003
:095973003c000042bc0b000000e6
:20597c00000000000000000000000000000000000000000000000000000001c0003a017897
:0a599c0000400000e805b000000024
:2059a6000002000000000000000000000000000000000000000033c2070b000000af020027
:0959c60000000042bc09000000d1
:2059cf0000000000000000000000000000000000000000000003033c40000000003a017883
:0a59ef0000000000e805f0000000d1
:2059f9000000000000000000000000000000000000000000002010c3e08a000000af0680fc
:095a190038000042bc1b500140a2
:205a22000000300000000000000000000000000000000000000920047a501000003a0128ca
:0a5a420003400000e804b8180c004f
:205a4c00000000000000000000000000000000000000000000000002d000000000af0604af
:095a6c0070000042bc191000009a
:205a75000000000000000000000000000000000000000000000000287e000000003a012a06
:0a5a950067800000e804b99c0800d7
:205a9f000000000000000000000000000000000000000000000000000500002000af028091
:095abf0000005202bc0b50000172
:205ac8004000000000000000000000000000000000000000000000000071a000003a0138fa
:0a5ae80000000400e804f8000010bc
:205af20000020000000000000000000000000000000000000000000ce000000020af0200d5
:095b1200300000c2bc0950000083
:205b1b0000000000000000000000000000000000000000000000004178300000003a01380e
:0a5b3b0000000000e804f80000007c
:205b450000000000000000000000000000000000000000000000000000000d4000af07c07d
:095b650020002002bc1fd08000ca
:205b6e00c0000000000000000000000000000000000000000000000000000008003a01789c
:0a5b8e0060400300e805f1990008eb
:205b9800000000000000000000000000000000000000000000000002c18b000000af077e6b
:095bb80020000002bc1d00800069
:205bc100000000000000000000000000000000000000000000030005cad00100003a01687e
:0a5be10046400000e805b01900007e
:205beb0000000000000000000000000000000000000000000000100ce000000000af03c02c
:095c0b003c000002bc0fd00400b3
:205c140000000000000000000000000000000000000000000000000148000000003a016983
:0a5c340040400000e805f0002000e9
:205c3e000002000000000000000000000000000000000000000000000d18000000af037cf1
:095c5e0000000002bc0d00b000c2
:205c67000000000000000000000000000000000000000000000000000000b000003a0178ba
:0a5c870000000000e805f001001025
:205c9100000000000000000000000000000000000000000000000000000a000000af07c46f
:095cb10000000002bc1f180900ec
:205cba0000003000000000000000000000000000000000000000000000581000003a012acd
:0a5cda0006000000e804bf9c000073
:205ce400000000000000000000000000000000000000000000000036950b000000af0744d0
:095d040040000002bc1d1004085f
:205d0d000400000000000000000000000000000000000000000000065981a000003a012a8d
:0a5d2d0062000000e804b980a04005
:205d37008000000000000000000000000000000000000000000000000500800000af03c0d5
:095d570000005002bc0f00000125
:205d60000000000000000000000000000000000200000080000000000081a002003a01380b
:0a5d800000000400e804f01a00d44b
:205d8a0000020000000000000000000000000000000000008000003ed00a000000affb4075
:095daa0000000002bf4d000000e2
:205db3000400000000000000000000000000000000000000000000415a581000003a03b8d4
:0a5dd30000000000e826f0000000c8
:025ddd000000c4
:035ddf0062003f20
:035de200720080cc
:025de5001100ab
:035de70082000037
:025dea000103b3
:085dec000000000000000000af
:085df4000000000000000000a7
:085dfc0000000000000000009f
:085e0400000000000000000096
:0261ec000000b1
:0361ee00820080ac
:0261f1000103a8
:0861f3000000000000000000a4
:0861fb0000000000000000009c
:08620300000000000000000093
:08620b0000000000000000008b
:0265f3000000a6
:0265f500110192
:0365f7008200001f
:0265fa0001039b
:0865fc00000000000000000097
:0866040000000000000000008e
:08660c00000000000000000086
:0866140000000000000000007e
:0269fc00000099
:0369fe0082008094
:026a010001038f
:086a030000000000000000008b
:086a0b00000000000000000083
:086a130000000000000000007b
:086a1b00000000000000000073
:026e030000008d
:026e0500110278
:036e070082000006
:026e0a00010382
:086e0c0000000000000000007e
:086e1400000000000000000076
:086e1c0000000000000000006e
:086e2400000000000000000066
:02720c00000080
:03720e008200807b
:02721100010377
:08721300000000000000000073
:08721b0000000000000000006b
:08722300000000000000000063
:08722b0000000000000000005b
:02761300000075
:0276150011035f
:03761700820000ee
:02761a0001036a
:08761c00000000000000000066
:0876240000000000000000005e
:08762c00000000000000000056
:0876340000000000000000004e
:027a1c00000068
:037a1e0082008063
:027a210001035f
:087a230000000000000000005b
:087a2b00000000000000000053
:087a330000000000000000004b
:087a3b00000000000000000043
:027e230000005d
:017e2500223a
:027e260028bc76
:027e2800010651
:00000001FF
