:02000000ff00ff
:080002004c6174746963650030
:17000a00694345637562653220323032302e31322e32373934330071
:15002100506172743a2069434534304c50314b2d514e38340034
:1b003600446174653a204a756e20323020323032322031343a30373a35390074
:0200510000ffae
:040053007eaa997e6a
:02005700510056
:0200590001059f
:03005b0092000010
:03005e0062014bf1
:030061007200909a
:0300640082000017
:02006700110086
:02006900010193
:20006b00000000000000000000000000000000000000000000000000000000000000000075
:09008b00000000800000000000ec
:2000940000000000000000000000000000000000000000000000000000000000000000004c
:0a00b4000000000000000000000042
:2000be00000000000000000000000000000000000000000000000000000000001000000012
:0900de00000000400000000000d9
:2000e7000000000000000000000000000000000000000000000000000000000000000000f9
:0a01070000000000000000000000ee
:200111000000000000000000000000000000000000000000000000000000000000000000ce
:0901310000000080000001000044
:20013a000000000000000000000000000000000000000000000000000000000000000000a5
:0a015a00000000000000003000006b
:200164000000000000040000000000001000000000000040000000001000000000000040d7
:0901840000000000000100000071
:20018d00000000000000000000000000000000000000000000000000000000000000000052
:0a01ad000000000000000000000048
:2001b70000000000000c00000000000030000000000000c00000000030000000000000c03c
:0901d7000000000003020000001a
:2001e0000000000000000000000000000000000000000000000000000000000000000000ff
:0a02000000000000000800000000ec
:20020a000000000000000000000000000000000000000000000000000000000000000000d4
:09022a00000000000000000000cb
:200233000000000000000000000000000000000000000000000000000000000000000000ab
:0a02530000000000000000000000a1
:20025d00000000000000000000000000000000000000000000000000000000000000000081
:09027d0000000000000000000078
:20028600000000000000000000000000000000000000000000004000000000000100000017
:0a02a600000000040000000000004a
:2002b00000000000000400000000000010000000000000400000000010000000000000408a
:0902d00000000000000100000024
:2002d900000000000000000000000000000000000000000000000000000000000000000005
:0a02f90000000000000000000000fb
:200303000000000000000000000000000000000000000000000000000000000000000000da
:09032300000000000000000000d1
:20032c00000020000000000000000000000000000040000000000000000000000000000051
:0a034c0000000000000000000000a7
:20035600000000000000000000000000000000000000000000000000000000000000000087
:090376000000000000000000007e
:20037f0000000000000000000000000000000000000000000000000000000000000000005e
:0a039f000000000000000000000054
:2003a900000000000000000000000000000000000000000000000000000000000000000034
:0903c9000000000000000000002b
:2003d20000000000000000000000000000000000000000000000000000000000000000000b
:0a03f2000000000000000000000001
:2003fc000003000000000000000000000000000000000000000000000000000000000000de
:09041c00000000000000000000d7
:200425000000000000000000000000000000000000000000000000000000000000000000b7
:0a04450000000000000000000000ad
:20044f0000000000000000000000000000000000000000000000000000000000000000008d
:09046f0000000000000000000084
:20047800000020000000000000000000000000000000000000000000000000000000000044
:0a049800000000000000000000005a
:2004a20000000000000000000000000000000000000000000000000000000000000000003a
:0904c20000000000000000000031
:2004cb00000000000000000000000000000000000000000000000000000000000000000011
:0a04eb000000000000000000000007
:2004f5000000000000000000000000000000000000000000000000000000000000000000e7
:09051500000000000000000000dd
:20051e000000000000000000000000000000000000000000000000000000000000000000bd
:0a053e0000000000000000000000b3
:20054800000000000000000000000000000000000000000000000000000000000000000093
:090568000000000000000000008a
:2005710000000000000000000000000000000000000000000000000000000000000000006a
:0a0591000000000000000000000060
:20059b00400000000000000000000000000000000000000000000000000000000000000000
:0905bb0000000000000000000037
:2005c4000000200000000000000000000000000000000000000000000000000000000000f7
:0a05e400000000000000000000000d
:2005ee000000000000000000000000000000000000000000000000000000000000000000ed
:09060e00000000000000000000e3
:200617000800000000000000000000000000000000000000000000000000000000000000bb
:0a06370000000000000000000000b9
:20064100440000000000000000000000000000000000000000000000000000000000000055
:0906610000000000000000000090
:20066a000080000000000000000000000000000000000000000000000000000000000000f0
:0a068a000000000000000000000066
:20069400000300000000000000000000000000000000000000000000000000000000000043
:0906b4000000000000000000003d
:2006bd0000000000000000000000000000000000000000000000000000000000000000001d
:0a06dd000000000000000000000013
:2006e70000680000000000000000000000000000000000000000000000000000000000008b
:09070700000000000000000000e9
:200710000000200000000000000000000000000000000000000000000000000000000000a9
:0a07300000000000000000000000bf
:20073a0000000000000000000000000000000000000000000000000000000000000000009f
:09075a0000000000000000000096
:20076300000000000000000000000000000000000000000000000000000000000000000076
:0a078300000000000000000000006c
:20078d0000000000000000000000000000000000000000000000000000000000000000004c
:0907ad0000000000000000000043
:2007b600000000000000000000000000000000000000000000000000000000000000000023
:0a07d6000000000000000000000019
:2007e0000000000000000000000000000000000000000000000000000000000000000000f9
:09080000000000000000000000ef
:200809000000000000000000000000000000000000000000000000000000000000000000cf
:0a08290000000000000000000000c5
:20083300400000000000000000000000000000000000000000000000000000000000000065
:090853000000000000000000009c
:20085c0000002000000000000000000000000000004000000000000000000000000000001c
:0a087c000000000000000000000072
:20088600000000000000000000000000000000000000000000000000000000000000000052
:0908a60000000000000000000049
:2008af00080000000000000000000000000000000000000000000000000000000000000021
:0a08cf00000000000000000000001f
:2008d9004000000000000000000000000000000000000000000000000000000000000000bf
:0908f900000000000000000000f6
:200902000000000000000000000000000000000000000000000000000000000000000000d5
:0a09220000000000000000000000cb
:20092c000003000000000000000000000000000000000000000000000000000000000000a8
:09094c00000001000000000000a1
:20095500000000000000000000000000000000000000000000000000000000000000000082
:0a0975000000001000000000000068
:20097f00000000000000000000000000000000000000000000000000000000000000000058
:09099f000000000000000000004f
:2009a80000002000000000000000000000000000000000000000000000000000000000000f
:0a09c8000000000000000000000025
:2009d200000000000000000000000000000000000000000000000000000000000000000005
:0909f200000000000000000000fc
:2009fb000000000000000000000000000000000000000000000000000000000000000000dc
:0a0a1b0000000000000000000000d1
:200a25000000000000000000000000000000000000000000000000000000000000000000b1
:090a4500000000000000000000a8
:200a4e00000000000000000000000000000000000000000000000000000000000000000088
:0a0a6e00000000000000000000007e
:200a780000000000000000000000000000000000000000000000000000000000000000005e
:090a980000000000000000000055
:200aa100000000000000000000000000000000000000000000000000000000000000000035
:0a0ac100000000000000000000002b
:200acb004000000000000000000000000000000000000000000000000000000000000000cb
:090aeb0000000000000000000002
:200af4000000200000000000000000000000000000000000000000000000000000000000c2
:0a0b140000000000000000000000d7
:200b1e000000000000000000000000000000000000000000000000000000000000000000b7
:090b3e00000000000000000000ae
:200b4700090000000000000000000000000000000000000000000000000000000000000085
:0a0b67000000000000000000000084
:200b7100400000000000000000000000000000000000000000000000000000000000000024
:090b91000000000000000000005b
:200b9a0000000000000000000000000000000000000000000000000000000000000000003b
:0a0bba000000000000000000000031
:200bc40000030000000000000000000000000000000000000000000000000000000000000e
:090be40000000000000000000008
:200bed000000000000000000000000000000000000000000000000000000000000000000e8
:0a0c0d0000000000000000000000dd
:200c17000000000000000000000000000000000000000000000000000000000000000000bd
:090c3700000000000000000000b4
:200c4000000020000000000000000000000000000000000000000000000000000000000074
:0a0c6000000000000000000000008a
:200c6a0000000000000000000000000000000000000000000000000000000000000000006a
:090c8a0000000000000000000061
:200c9300000000000000000000000000000000000000000000000000000000000000000041
:0a0cb3000000000000000000000037
:200cbd00000000000000000000000000000000000000000000000000000000000000000017
:090cdd000000000000000000000e
:200ce6000000000000000000000000000000000000000000000000000000000000000000ee
:0a0d060000000000000000000000e3
:200d10000000000000000000000000000000000000000000000000000000000000000000c3
:090d3000000000000000000000ba
:200d390000000000000000000000000000000000000000000000000000000000000000009a
:0a0d59000000000000000000000090
:200d6300006800000000000000000000000000000000000000000000000000000000000008
:090d830000000000000000000067
:200d8c00000000000000000000000000000000000040000000000000000000000000000007
:0a0dac00000000000000000000003d
:200db60000000000000000000000000000000000000000000000000000000000000000001d
:090dd60000000000000000000014
:200ddf000800040000000000000000000000000000000000000000000000000000000000e8
:0a0dff0000000000000000000000ea
:200e09000000000000000000000000000000000000000000000000000000000000000000c9
:090e2900000000000000000000c0
:200e32000000000000000000000000000000000000000000000000000000000000000000a0
:0a0e52000000000000000000000096
:200e5c00000100000000000000000000000000000000000000000000000000000000000075
:090e7c000000000000000000006d
:200e850000000000000000000000000000000000000000000000000000000000000000004d
:0a0ea5000000000000000000000043
:200eaf00000000000000000000000000000000000000000000000000000000000000000023
:090ecf000000000000000000001a
:200ed8000000200000000000000000000000000000000000000000000000000000000000da
:0a0ef80000000000000000000000f0
:200f020040000000000000000000000000000000000000000000000000000000000000008f
:090f2200000000000000000000c6
:200f2b00008000000000000000000000000000000000000000000000000000000000000026
:0a0f4b00000000000000000000009c
:200f550000000000000000000000000000000000000000000000000000000000000000007c
:090f750000000000000000000073
:200f7e0008000000000000000000000000000000000000000000000000000000000000004b
:0a0f9e000000000000000000000049
:200fa8004000000000000000000000000000000000000000000000000000000000000000e9
:090fc80000000000000000000020
:200fd100000000008000000000000000000000000000000000000000000000000000000080
:0a0ff10000000000000000000000f6
:200ffb000000000000000000000000000000000000000000000000000000000000000000d6
:09101b00000000000000000000cc
:2010240000002000000000000000000000000000000000000000000000000000000000008c
:0a10440000000000000000000000a2
:20104e00000000000000000000000000000000000000000000000000000000000000000082
:09106e0000000000000000000079
:20107700000000000000000000000000000000000000000000000000000000000000000059
:0a109700000000000000000000004f
:2010a10000000000000000000000000000000000000000000000000000000000000000002f
:0910c10000000000000000000026
:2010ca00000000000000000000000000000000000000000000000000000000000000000006
:0a10ea0000000000000000000000fc
:2010f4000003000000000000000000000000000000000000000000000000000000000000d9
:09111400000000000000000000d2
:20111d000000000000000000000000000000000000000000000000000000000000000000b2
:0a113d0000000000000000000000a8
:20114700000000000000000000000000000000000000000000000000000000000000000088
:091167000000000000000000007f
:2011700000002000000000000000000000000000000000000000000000000000000000003f
:0a1190000000000000000000000055
:20119a00000000000000000000000000000000000000000000000000000000000000000035
:0911ba000000000000000000002c
:2011c30000000000000000000000000000000000000000000000000000000000000000000c
:0a11e3000000000000000000000002
:2011ed000000000000000000000000000000000000000000000000000000000000000000e2
:09120d00000000000000000000d8
:201216000000000000000000000000000000000000000000000000000000000000000000b8
:0a12360000000000000000000000ae
:2012400000000000000000000000000000000000000000000000000000000000000000008e
:0912600000000000000000000085
:20126900000000000000000000000000000000000000000000000000000000000000000065
:0a128900000000000000000000005b
:2012930000000000000000000000000000000000000000000000000000000000000000003b
:0912b30000000000000000000032
:2012bc000000200000000000000000000000000000400000000000000000000000000000b2
:0a12dc000000000000000000000008
:2012e6000000000000000000000000000000000000000000000000000000000000000000e8
:09130600000000000000000000de
:20130f000100000000000000000000000000000000000000000000000000000000000000bd
:0a132f0000000000000000000000b4
:20133900000000000000000000000000000000000000000000000000000000000000000094
:091359000000000000000000008b
:2013620000000000000000000000000000000000000000000000000000000000000000006b
:0a1382000000000000000000000061
:20138c0000030000000000000000000000000000000000000000000000000000000000003e
:0913ac0000000000000000000038
:2013b500000000000000000000000000000000000000000000000000000000000000000018
:0a13d500000000000000000000000e
:2013df000000000000000000000000000000000000000000000000000000000000000000ee
:0913ff00000000000000000000e5
:201408000000200000000000000000000000000000000000000000000000000000000000a4
:0a14280000000000000000000000ba
:2014320000000000000000000000000000000000000000000000000000000000000000009a
:0914520000000000000000000091
:20145b00000000000000000000000000000000000000000000000000000000000000000071
:0a147b000000000000000000000067
:20148500000000000000000000000000000000000000000000000000000000000000000047
:0914a5000000000000000000003e
:2014ae0000000000000000000000000000000000000000000000000000000000000000001e
:0a14ce000000000000000000000014
:2014d8000000000000000000000000000000000000000000000000000000000000000000f4
:0914f800000000000000000000eb
:201501000000000000000000000000000000000000000000000000000000000000000000ca
:0a15210000000000000000000000c0
:20152b00400000000000000000000000000000000000000000000000000000000000000060
:09154b0000000000000000000097
:20155400000020000000000000000000000000000000000000000000000000000000000057
:0a157400000000000000000000006d
:20157e0000000000000000000000000000000000000000000000000000000000000000004d
:09159e0000000000000000000044
:2015a70009800000000000000000000000000000000000000000000000000000000000009b
:0a15c700000000000000000000001a
:2015d1004000000000000000000000000000000000000000000000000000000000000000ba
:0915f100000000000000000000f1
:2015fa000000000000000000000000000000000000000000000000000000000000000000d1
:0a161a0000000000000000000000c6
:201624000003000000000000000000000000000000000000000000000000000000000000a3
:091644000000000000000000009d
:20164d0000000000000000000000000000000000000000000000000000000000000000007d
:0a166d000000000000000000000073
:20167700000000000000000000000000000000000000000000000000000000000000000053
:091697000000000000000000004a
:2016a00000002000000000000000000000000000000000000000000000000000000000000a
:0a16c0000000000000000000000020
:2016ca0000000000000000000000000000000000000000000000a000000000000000000060
:0916ea00000000000000000000f7
:2016f3000000000000000000000000000000000000000000000000000000000000000000d7
:0a17130000000000000000000000cc
:20171d000000000000000000000000000000000000000000000000000000000000000000ac
:09173d00000000000000000000a3
:2017460008000000000000000000000000000000000000000000000000000000000000007b
:0a1766000000000000000000000079
:20177000000000000000000000000000000000000000000000000000000000000000000059
:0917900000000000000000000050
:20179900000000000000000000000000000000000000000000000000000000000000000030
:0a17b9000000000000000000000026
:0217c300000024
:0217c500110110
:0217c70001011e
:2017c9000000020000000000000800000000000020000000000000000000000000000000d6
:0917e900000000000000000000f7
:2017f2000000000000000000000000000000000000000000000000000000000000000000d7
:0a18120000000000000000000000cc
:20181c00000001000000000000040000000000001000000000040000000000000000000093
:09183c00000000000000000000a3
:20184500000000000000000000000000000000000000000000000000000000000000000083
:0a1865000000000000000000000079
:20186f000000020000000400000800000000000020000000800000000000000000000000ab
:09188f0000000000000000000050
:201898000000000000000040000000000000000000000000040000000000000000000000ec
:0a18b8000000000000000000000026
:2018c200000000000004000000000000100000000000c0400004000030000000000000407e
:0918e200000000000001000000fc
:2018eb000000000000000000000000000000000000002000000000000000000000000000bd
:0a190b0000000000000000000000d2
:2019150000000000000c00000000000030000000000000c00000000020000000000000c0d6
:09193500000000000003000000a6
:20193e00000000000000000000000000000000000000000000000000000000000000000089
:0a195e00000000000000000000007f
:2019680000000000020000000000000000000000000000000000000000000000000000005d
:0919880000000000000000000056
:201991000000000000600000000000000000000000000000000000000000000000000000d6
:0a19b100000000000000000000002c
:2019bb0000000000000000000000000000000000000000000000000000000000000000000c
:0919db0000000000000000000003
:2019e4000000000000000000000000000000000001000000000040000000000001000000a1
:0a1a040000000004000000000000d4
:201a0e00000000000004000000000000100000000000004000000000100000000000004014
:091a2e00000000000001000000ae
:201a370000000000000000000000000000000000000000000000000000040000000000008b
:0a1a57000000000000000000000085
:201a6100000000000000000000000000000000000000000000000000000000000000000065
:091a81000000000000000000005c
:201a8a0000000000000000000000000000000000000000000000000000000000000000003c
:0a1aaa000000000000000000000032
:201ab400000000000000000000000000000000000000000000000000000000000000000012
:091ad40000000000000000000009
:201add000000000000000000000000000000000000000000000000000000000000000000e9
:0a1afd0000000000000000000000df
:201b0700000000000000c2800000000000000000000000000000000000000000000000007c
:091b2700000000000000000000b5
:201b3000000000000000522800000000000000000000000000000e0000000000000000000d
:0a1b5000000000000000000000008b
:201b5a00000200000000000000000000000000000000000000000000000000000000000069
:091b7a0000000000000000000062
:201b8300000000000000000000000000000000000000000000000000000000000000000042
:0a1ba3000000000000000000000038
:201bad00000000000000000000000000000000000000000000000000000000000000000018
:091bcd000000000000000000000f
:201bd6000000300000000000000000000000000000000000000000000000000000000000bf
:0a1bf60000000000000000000000e5
:201c00000000000000000000000000000000000000000000000000000000000000000000c4
:091c2000000000000000000000bb
:201c290000000000000e00000000000000000000000000000000000000000000000000008d
:0a1c49000000000000000000000091
:201c5300000000000000000000000000000000000000000000000000000000000000000071
:091c730000000000000000000068
:201c7c00000000000000000000000000000000000000000000000000000000000000000048
:0a1c9c00000000000000000000003e
:201ca6000002000000f000000000000000000000000000000000000000000000000000002c
:091cc60000000000000000000015
:201ccf000000000000010000000000000000000000000000000000000000000000000000f4
:0a1cef0000000000000000000000eb
:201cf9000000000000000000000000000000000000000000000000000000000000000000cb
:091d1900000000000000000000c1
:201d22000000000000000000000000000000000000000000000000000000000000000000a1
:0a1d42000000000000000000000097
:201d4c00000000000000000000000000000000000000000000000000000000000000000077
:091d6c000000000000000000006e
:201d750000000000000000000000000000000000000000000000000000000000000000004e
:0a1d950000000000c0000000000084
:201d9f00000000000000000000000000000000000000000000000000000000000000000024
:091dbf000000000000000000001b
:201dc8000000000000000000000000000000000000000000000000000000000000000000fb
:0a1de80000000000000000000000f1
:201df2000002000000000000000000000000000000000000000000000000000000000000cf
:091e1200000000000000000000c7
:201e1b000000000000000000000000000000000000000000000000000000000000000000a7
:0a1e3b00000000000000000000009d
:201e450000000000000000000000000000000000000000000000000000000000000000007d
:091e650000000000000000000074
:201e6e00000030000000000000000000000000000000000000000000000000000000000024
:0a1e8e00000000000000000000004a
:201e980000000000000000000000000000000000000000000000000000000000000000002a
:091eb80000000000000000000021
:201ec100000000000000000000000000000000000000000000000000000000000000000001
:0a1ee10000000000000000000000f7
:201eeb000000000000000000000000000000000000000000000000000000000000000000d7
:091f0b00000000000000000000cd
:201f14000000000000000000000000000000000000000000000000000000000000000000ad
:0a1f340000000000000000000000a3
:201f3e0000020000000000000000000000000000040000000000000000000000000000007d
:091f5e000000000000000000007a
:201f670000000000000000000000000000000000000000000000000000000000000000005a
:0a1f87000000000000000000000050
:201f9100000000000000000000000000000000000000000000000000000000000000000030
:091fb10000000000140000000013
:201fba00000000000000000000000000000000000000000000000000000000000000000007
:0a1fda0000000000000000000000fd
:201fe40000400000000000000000000000000000000000000000000000000000000000009d
:0920040000000000142800000097
:20200d00000280000000000000000000000000000000000000000000000000000000000031
:0a202d00000000000346c0000000a0
:20203700000000000000000000000000000000000000000000000000000000000000000089
:0920570000000000142800000044
:20206000000000000000000000000000000000000000000000000000000000000000000060
:0a208000000000000346800000008d
:20208a00000200000000000000000000000000000000000000000000000000000000000034
:0920aa000000000014216900008f
:2020b30000000000000000000000000000000000000000000000000000000000000000000d
:0a20d300000000000162dcc0800084
:2020dd000000000000000000000000000000000000000000000000000000000000000000e3
:0920fd000000000000025d00007b
:20210600000030000000000000000000000000000000000000000000000000000000000089
:0a2126000000000000002ef8000089
:20213000080000000000000000000000000000000000000000000000000000000000000087
:09215000000000000200ee000096
:2021590004c0000000000000000000000000000000000000000000000000000000000000a2
:0a2179000000000001c00ce010009f
:202183008000000000000000000000000000000000000000000000000000000000000000bc
:0921a300000000000402600001cc
:2021ac00000000000000000000000000000000000000000000000000000000000000000013
:0a21cc000000000002078d880020cb
:2021d6000002000000000000000000000000000000000000000000000000000000000000e7
:0921f600000000000426c80000ee
:2021ff000400000000000000000000000000000000000000000000000000000000000000bc
:0a221f000000000000062fe0800020
:20222900000000000000000000000000000000000000000000000000000000000000000095
:0922490000000000340000000058
:2022520000000000000000000000000000000000000000000000000000000000000000006c
:0a2272000000000002000000000060
:20227c008000000000000000000000000000000000000000000000000000000000000000c2
:09229c0000000000000000000039
:2022a500000000000000000000000000000000000000000000000000000000000000000019
:0a22c50000000000004000000000cf
:2022cf000000000000000000000000000000000000000000000000000000000000000000ef
:0922ef00000000000000d0a7006f
:2022f8000000000800000000000000000000000000000000000000000000000000000000be
:0a2318000000000001602cca50a074
:2023220040010000000000000000000000000000000000000000000000000000000000005a
:09234200000000001429e0000075
:20234b00000000000000000000000000000000000000000000000000000000000000000072
:0a236b0000000000020046a8002058
:20237500000000000000000000000000000000000000000000000000000000000000000048
:09239500000000000001d050001e
:20239e000000300000000000000000000000000000000000000000000000000000000000ef
:0a23be0000000000000320aa000048
:2023c8000000000000000000000000000000000000000000000000000000000000000000f5
:0923e800000000002c434000013c
:2023f1000000000000000000000000000000000000000000000000000000000000000000cc
:0a2411000000000000031fc80020b7
:20241b00800000000000000000000000000000001000000000000000000000000000000011
:09243b0000000000000150000047
:202444000000000000000000000000000000000002800000000000000000000000000000f6
:0a2464000000000000031daa0000a4
:20246e0010000000000000000000000000000000040000000000000000000000000000003a
:09248e0000000000000000000045
:20249700000000000000000000000000000000000000000000000000000000000000000025
:0a24b700000000000000000000001b
:2024c1000000000000000000000000000000000000000000000000000000000000000000fb
:0924e1003fc810000000000000db
:2024ea000000000000000000000000000000000000000000000000000000000000000000d2
:0a250a0003fc0000000000000000c8
:20251400800000800000000000000000000000000000000000000000000000001000000097
:092534000000000000000000009e
:20253d0000000000000000000000000000000000000000000000000000000000020000007c
:0a255d000000000000000000000074
:20256700000040000000000000000000000000000000000000000000000000000000000014
:092587000000000000000000004b
:2025900000000000000000000000000000000000000000000000000000000000000000002b
:0a25b0000000000000000000000021
:2025ba00000000000000000000000000000000000000000000000000000000000000000001
:0925da00000000000000000000f8
:2025e3000000000000000000000000000000000000000000000001000000000000000000d7
:0a26030000000000000000000000cd
:20260d000000000000000000000000000000000000000000000000000000000000000000ad
:09262d00000000000000000000a4
:20263600000020000000000000000000000000000000000000000000000000000000000064
:0a265600000000000000000000007a
:2026600000000000000000000000000000000000000000000000000000000000005000000a
:09268000000000800000000000d1
:2026890004000000000000000000000000000000000000000000000000000000000000002d
:0a26a9000000000000000000000027
:2026b300800000000000000000000000000000000000000000000000000000000000000087
:0926d300000000000000000000fe
:2026dc000000000000000000000000000000000000000000000002000000000000000000dc
:0a26fc0000000000000000000000d4
:20270600180200000000000000000000000000000000000000000000000000002000000079
:09272600000001000000000000a9
:20272f00040000000000000000000000000000000000000000000000000000000100000085
:0a274f000000001040000000000030
:20275900000000000000000000000000000000000000000000000000000000000000000060
:0927790000000000010000000056
:20278200040000000000000000000000000000000000000000000000000000000000000033
:0a27a200000000000000000000002d
:2027ac008000000000000000000000000000000000000000000000000000000000000d1e62
:0927cc00400800000200000000ba
:2027d500000000000000000000000000000000000000000000000000000000000000001fc5
:0a27f5002e0000000040000000006c
:2027ff000000000000000000000000000000000000000000000000000000000000000000ba
:09281f00000000000000000000b0
:20282800040000000000000000000000000000000000000000000800000000000000000084
:0a2848000000000000000000000086
:20285200000200000000000000000000000000000000000000000000000000000000000064
:092872000000000000000000005d
:20287b0000000000000000000000000000000000000000000000000000000000000000003d
:0a289b000000000000000000000033
:2028a500000000000000000000000000000000000000000000000000000000000000000013
:0928c500000000000000005f208b
:2028ce000000300000000000000000000000000000000000000000000000000000000000ba
:0a28ee000000000000001d85f0004e
:2028f8000800000000000000000000000000000000000000000000000000000000000e00aa
:09291800000000000000000000b6
:20292100040000000000000000000000000000000000000000010000000000000080001001
:0a294100000000000000000000008c
:20294b009800000000000000000000000000000000000000000000000000000000070e00bf
:09296b000000000034000000002f
:202974000060000000000000000000000000000000000000000000000000000000000010d3
:0a2994000000000002000000000037
:20299e00002a000000000000000000000000000004000000000000000000000000000000eb
:0929be0000000000000000000010
:2029c7000400400000000000000000000000000000000000000000000000000000000000ac
:0a29e70000000000000000000000e6
:2029f1000000000000000000000000000000000000000000000000000000000000000000c6
:092a1100000000000000000000bc
:202a1a00040000000000000000000000000000000000000000000000000000000000000098
:0a2a3a000000000000000000000092
:202a44008000000000000000000000000000000000000000000000000000000000000000f2
:092a640000000000000000000069
:202a6d00000000000000000000000000000000000000000000000000000000000000000049
:0a2a8d00000000000000000000003f
:202a97000840000000000000000000000000000000000000000000000000000000000000d7
:092ab70000000000000000000016
:202ac00004468000000000000000000000000000000000000000000000000000000000002c
:0a2ae00000000000000000000000ec
:202aea00002a000000000000000000000000000000000000000000000000000000000000a2
:092b0a00000000000000000000c2
:202b1300000040000000000000000000000000000000000000000000000000000000000062
:0a2b33000000000000000000000098
:202b3d00000000000000000000000000000000000000000000000000000000000000000078
:092b5d000000000000000000006f
:202b660000003000000000000000000000000000000000000000000000000000000000001f
:0a2b86000000000000000000000045
:202b90000c0000000000000000000000000000000000000000000000000000000000009089
:092bb000294000000000000000b3
:202bb9000440000000000000000000000000000000000000000000000000000000000008b0
:0a2bd9000168400000000000000049
:202be3008000000000000000000000000000000000000000000000000000000000000d0045
:092c0300000000000000000000c8
:202c0c00000000000000000000000000000000000000000000000000000000000000001098
:0a2c2c00000000000000000000009e
:202c360000020000000000000000000000000000000000000000000000000000000000007c
:092c560000000000000000000075
:202c5f00040000000000000000000000000000000000000000000000000000000000000051
:0a2c7f00000000000000000000004b
:202c8900000000000000000000000000000000000000000000000000000000000200000029
:092ca90000000000000000000022
:202cb200000000000000000000000000000000000000000000000000000000000000000002
:0a2cd20000000000000000000000f8
:202cdc00800000000000000000000000000000000000000000000000000000000000000058
:092cfc00000000000000000000cf
:202d05000000000300000000000000000000000000000000000000000000000000000000ab
:0a2d250000000000000000000000a4
:202d2f00000000000000000000000000000000000000000000000000000000000000000084
:092d4f000000000000000000007b
:202d580000000000000000000000000000000000000000000000000000000000000000005b
:0a2d78000000000000000000000051
:202d820000020000000000000000000000000000000000000000000000000000000000002f
:092da20000000000000000000028
:202dab00000000000000000000000000000000000000000000000000000000000000000008
:0a2dcb0000000000000000000000fe
:202dd5000000000000000000000000000000000000000000000000000000000000000000de
:092df500000000000000000000d5
:202dfe00000020000000000000000000000000000000000000000000000000000000000095
:0a2e1e0000000000000000000000aa
:202e280000000000000000000000000000000000000000000000000000000000000000008a
:092e480000000000000000000081
:202e5100000000000000000000000000000000000000000000000000000000000000000061
:0a2e71000000000000000000000057
:202e7b008000000000000000000000000000000000000000000000000000000000000000b7
:092e9b000000000000000000002e
:202ea40000000000000000000000000000000000000000000000000000000000000000000e
:0a2ec4000000000000000000000004
:202ece000002000000000000000000000000000004000000000000000000000000000000de
:092eee00000000000000000000db
:202ef7000000000000000000000000000000000000000000000000000000000000180000a3
:0a2f170000000000000000000000b0
:022f21000000ae
:022f2300110299
:022f25000101a8
:202f270000000000000000000000000000000000000000000000000000000000000000008a
:092f470000000000000000000081
:202f5000000000000000000000000000000000000000000000000000000000000000000061
:0a2f70000000000000000000000057
:202f7a000000000000000000000000000000000000000000000000000000008000000000b7
:092f9a000000000000000000002e
:202fa30000000000000000000000000000000000000000000000000000000000000000000e
:0a2fc3000000000000000000000004
:202fcd000000000000000000000000000000000000000000000000000000000000000000e4
:092fed00000000000000000000db
:202ff6000000000000000000000000000000000000000000000000000000000000000000bb
:0a30160000000000000000000000b0
:203020000000000000080000000000002000000000080000000000002000000000000080c0
:0930400000000000000200000085
:20304900000000000000000000000000000000000000000000000000000000000000000067
:0a306900000000000000000000005d
:2030730000000000000c00000000000030000000000c00000000000030000000000000c005
:0930930000000000000300000031
:20309c00000000000000000000000000000000000000000000000000000000000000000014
:0a30bc00000000000000000000000a
:2030c6000000000000000000000000000000000000000000000000000000000000000000ea
:0930e600000000000000000008d9
:2030ef000000000000000000000000000000000000000000000000000000000000000000c1
:0a310f0000000000000000000000b6
:20311900000000000000000000000000000000000000000000000000000000000000000096
:0931390000000000000000000885
:20314200000000000000000000000000000000000000000000000000000000080000000065
:0a31620000002000000002000080c1
:20316c00000000000008000000000000200000000008000000000000200000000000008073
:09318c0000000000000200000038
:2031950000000000000000000000000000000000000000000000000000000000000000001a
:0a31b5000000000000000000000010
:2031bf000000000000000000000000000000000000000000000000000000000000000000f0
:0931df00000000000000000000e7
:2031e80000002000000000000000000000000000000000000800000000000000000000009f
:0a32080000000000000000000000bc
:2032120000000000000000000000000000000000000000000000000000000000000000009c
:0932320000000000000000000093
:20323b00000000000000000000000000000000000000000000000000000000000000000073
:0a325b000000000000000000000069
:20326500000000000000000000000000000000000000000000000000000000000000000049
:0932850000000000000000000040
:20328e00000000000000000000000000000000000000000000000000000000000000000020
:0a32ae000000000000000000000016
:2032b8000003000000000000000000000000000000000000000000000000000000000000f3
:0932d800000000000000000000ed
:2032e1000000000000000000000000000000000000000000000000000000000000000000cd
:0a33010000000000000000000000c2
:20330b000000000000000000000000000000000000000000000000000000000000000000a2
:09332b0000000000000000000099
:20333400000020000000000000000000000000000000000000000000000000000000000059
:0a335400000000000000000000006f
:20335e0000000000000000000000000000000000000000000000000000000000000000004f
:09337e0000000000000000000046
:20338700000000000000000000000000000000000000000000000000000000000000000026
:0a33a700000000000000000000001c
:2033b1000000000000000000000000000000000000000000000000000000000000000000fc
:0933d100000000000000000000f3
:2033da000000000000000000000000000000000000000000000000000000000000000000d3
:0a33fa0000000000000000000000c9
:203404000000000000000000000000000000000000000000000000000000000000000000a8
:093424000000000000000000009f
:20342d0000000000000000000000000000000000000000000000000000000000000000007f
:0a344d000000000000000000000075
:20345700000000000000000000000000000000000000000000000000000000000000000055
:093477000000000000000000004c
:2034800000002000000000000000000000000000000000000000000000000000000000000c
:0a34a0000000000000000000000022
:2034aa00000000000000000000000000000000000000000000000000000000000000000002
:0934ca00000000000000000000f9
:2034d3000000000000000000000000000000000000000000000000000000000000000000d9
:0a34f30000000000000000000000cf
:2034fd000000000000000000000000000000000000000000000000000000000000000000af
:09351d00000000000000000000a5
:20352600000000000000000000000000000000000000000000000000000000000000000085
:0a354600000000000000000000007b
:20355000000300000000000000000000000000000000000000000000000000000000000058
:0935700000000000000000000052
:20357900000000000000000000000000000000000000000000000000000000000000000032
:0a3599000000000000000000000028
:2035a300000000000000000000000000000000000000000000000000000000000000000008
:0935c300000000000000000000ff
:2035cc000000200000000000000000000000000000000000000000000000000000000000bf
:0a35ec0000000000000000000000d5
:2035f6000000000000000000000000000000000000000000000000000000000000000000b5
:09361600000000000000000000ab
:20361f0000000000000000000000000000000000000000000000000000000000000000008b
:0a363f000000000000000000000081
:20364900000000000000000000000000000000000000000000000000000000000000000061
:0936690000000000000000000058
:20367200000000000000000000000000000000000000000000000000000000000000000038
:0a369200000000000000000000002e
:20369c0000000000000000000000000000000000000000000000000000000000000000000e
:0936bc0000000000000000000005
:2036c5000000000000000000000000000000000000000000000000000000000000000000e5
:0a36e50000000000000000000000db
:2036ef000000000000000000000000000000000000000000000000000000000000000000bb
:09370f00000000000000000000b1
:20371800000020000000000000000000000000000000000008000000000000000000000069
:0a3738000000000000000000000087
:20374200000000000000000000000000000000000000000000000000000000000000000067
:093762000000000000000000005e
:20376b0000000000000000000000000000000000000000000000000000000000000000003e
:0a378b000000000000000000000034
:20379500000000000000000000000000000000000000000000000000000000000000000014
:0937b5000000000000000000000b
:2037be000000000000000000000000000000000000000000000000000000000000000000eb
:0a37de0000000000000000000000e1
:2037e8000001000000000000000000000000000000000000000000000000000000000000c0
:09380800000000000000000000b7
:20381100000000000000000000000000000000000000000000000000000000000000000097
:0a383100000000000000000000008d
:20383b0000000000000000000000000000000000000000000000000000000000000000006d
:09385b0000000000000000000064
:2038640008002000000000000000000000000000000000000000000000000000000000001c
:0a388400000000000000000000003a
:20388e0000000000000000000000000000000000000000000000000000000000000000001a
:0938ae0000000000000000000011
:2038b7000000000000000000000000000000000000000000000000000000000000000000f1
:0a38d70000000000000000000000e7
:2038e1000000000000000000000000000000000000000000000000000000000000000000c7
:09390100000000000000000000bd
:20390a00080000000000000000000000000000000000000000000000000000000000000095
:0a392a000000000000000000000093
:20393400000000000000000000000000000000000000000000000000000000000000000073
:093954000000000000000000006a
:20395d0000000000000000000000000000000000000000000000000000000000000000004a
:0a397d000000000000000000000040
:20398700000000000000000000000000000000000000000000000000000000000000000020
:0939a70000000000000000000017
:2039b0000000200000000000000000000000000000000000000000000000000000000000d7
:0a39d00000000000000000000000ed
:2039da000000000000000000000000000000000000000000000000000000000000000000cd
:0939fa00000000000000000000c4
:203a030008000000000000000000000000000000000000000000000000000000000000009b
:0a3a23000000000000000000000099
:203a2d00000000000000000000000000000000000000000000000000000000000000000079
:093a4d0000000000000000000070
:203a5600000000000000000000000000000000000000000000000000000000000000000050
:0a3a76000000000000000000000046
:203a8000000300000000000000000000000000000000000000000000000000000000000023
:093aa00000000000000000080015
:203aa9000000000000000000000000000000000000000000000000000000000000000000fd
:0a3ac90000000000000000000000f3
:203ad3000000000000000000000000000000000000000000000000000000000000000000d3
:093af300000000000000000000ca
:203afc0000002000000000000000000000000000000000000000000000000000000000008a
:0a3b1c00000000000000000000009f
:203b260000000000000000000000000000000000000000000000000000000000000000007f
:093b460000000000000000000076
:203b4f00000000000000000000000000000000000000000000000000000000000000000056
:0a3b6f00000000000000000000004c
:203b790000000000000000000000000000000000000000000000000000000000000000002c
:093b990000000000000000000023
:203ba200000000000000000000000000000000000000000000000000000000000000000003
:0a3bc20000000000000000000000f9
:203bcc000000000000000000000000000000000000000000000000000000000000000000d9
:093bec00000000000000000000d0
:203bf5000000000000000000000000000000000000000000000000000000000000000000b0
:0a3c150000000000000000000000a5
:203c1f00000000000000000000000000000000000000000000000000000000000000000085
:093c3f000000000000000000007c
:203c4800000020000000000000000000000000000000000008000000000000000000000034
:0a3c68000000000000000000000052
:203c7200000000000000000000000000000000000000000000000000000000000000000032
:093c920000000000000000000029
:203c9b00000000000000000000000000000000000000000000000000000000000000000009
:0a3cbb0000000000000000000000ff
:203cc5000000000000000000000000000000000000000000000000000000000000000000df
:093ce500000000000000000002d4
:203cee000000000000000000000000000000000000000000000000000000000000000000b6
:0a3d0e00000000000000000000208b
:203d1800000300000000000000000000000000000000000000000000000000000000000088
:093d380000000000000000000280
:203d4100000000000000000000000000000000000000000000000000000000000000000062
:0a3d61000000000000000000000058
:203d6b00000000000000000000000000000000000000000000000000000000000000000038
:093d8b000000000000000000002f
:203d94000000200000000000000000000000000000000000000000000000000000000000ef
:0a3db4000000000000000000000005
:203dbe000000000000000000000000000000000000000000000000000000000000000000e5
:093dde00000000000000000000dc
:203de7000000000000000000000000000000000000000000000000000000000000000000bc
:0a3e070000000000000000000000b1
:203e1100000000000000000000000000000000000000000000000000000000000000000091
:093e310000000000000000000088
:203e3a00000000000000000000000000000000000000000000000000000000000000000068
:0a3e5a00000000000000000000005e
:203e640000000000000000000000000000000000000000000000000000000000000000003e
:093e840000050000000000000030
:203e8d00000000000000000000000000000000000000000000000000000200000000000013
:0a3ead0000002000000000000000eb
:203eb7004000000000000000000000000000000000000000000000000000000000000000ab
:093ed700000000000000000000e2
:203ee0000000200000000000000000000000000000000000000000000000000000000000a2
:0a3f000000000000000000000000b7
:203f0a00000400000000000000000000000000000000000000000000000000000000000093
:093f2a000000000000000200008c
:203f33000802800000000000000000000000000000000000000000000000000000000000e4
:0a3f53000000000000000000000064
:203f5d00400000000000000000000000000000000000000000000000000000000000000004
:093f7d000000000000000000003b
:203f860000c00000000000000000000000000000000000000000000000000000000000005b
:0a3fa6000000000000000000000011
:203fb0000003000000000000000000000000000000000000000000000000000000000000ee
:093fd000000000000000000000e8
:203fd9000000000000000000000000000000000000000000000000000000000000000000c8
:0a3ff90000000000000000000000be
:2040030000000000000000000000000000000000000000000000000000000000000000009d
:0940230000000000000000000094
:20402c00000020000000000000000000000000000000000000000000000000000000000054
:0a404c00000000000000000000006a
:2040560000000000000000000000000000000000000000000000000000000000000000004a
:0940760000000000000000000041
:20407f00000000000000000000000000000000000000000000000000000000000000000021
:0a409f000000000000000000000017
:2040a9000000000000000000000000000000000000000000000000000000000000000000f7
:0940c900000000000000000000ee
:2040d2000800000000000000000000000000000000000000000000000000000000000000c6
:0a40f20000000000000000000000c4
:2040fc000000000000000000000000000000000000000000000000000000000000000000a4
:09411c000000000000000000009a
:2041250000000000000000000000000000000000000000000000000000000000000000007a
:0a4145000000000000000000000070
:20414f00000000000000000000000000000000000000000000000000000000000000000050
:09416f0000000000000000000047
:204178000000200000000000000000000000000000000000080000000000000000000000ff
:0a419800000000000000000000001d
:2041a2000000000000000000000000000000000000000000000000000000000000000000fd
:0941c200000000000000000000f4
:2041cb000800000000000000000000000000000000000000000000000000000000000000cc
:0a41eb0000000000000000000000ca
:2041f5000000000000000000000000000000000000000000000000000000000000000000aa
:09421500000000000000000000a0
:20421e00000000000000000000000000000000000000000000000000000000000000000080
:0a423e000000000000000000000076
:20424800000200000000000000000000000000000000000000000000000000000000000054
:094268000000000000000002004b
:2042710000000000000000000000000000000000000000000000000000000000000000002d
:0a42910000000000000000004000e3
:20429b00000000000000000000000000000000000000000000000000000000000000000003
:0942bb00000000000000000000fa
:2042c4000000200000000000000000000000000000000000000000000000000000000000ba
:0a42e40000000000000000000000d0
:2042ee00400000000000000000000000000000000000000000000000000000000000000070
:09430e00000000000000000000a6
:20431700000000000000000000000000000000000000000000000000000000000000000086
:0a433700000000000000000000007c
:2043410000000000000000000000000000000000000000000000000000000000000000005c
:0943610000000000000000000053
:20436a0008000000000000000000000000000000000000000000000000000000000000002b
:0a438a000000000000000000000029
:204394004000000000000000000000000000000000000000000000000000000000000000c9
:0943b40000000000000000000000
:2043bd000000000000000000000000000000000000000000000000000000000000000000e0
:0a43dd0000000000000000000000d6
:2043e70000000000000000000000200f8300000000000000000000000000408003a0fbc0e6
:09440700040000000000000000a8
:20441000000020000000000000000002cc70e000000000000000000000000000004afbac5d
:0a44300003c00000000000000000bf
:20443a00000000000000000000000000058c0000000000000000029f9019001403a013dce1
:09445a0000004000000000000019
:204463000000000000000000000000000008000000000000000000000c008001004af02446
:0a448300200004000000000000000b
:20448d000000000000000000000000000181000000000000001000578700008803a012e67c
:0944ad0000000000000000040002
:2044b60000000000000000000000000000008000000000000002410c2e080000c04af06c7b
:0a44d600400000000000000020007c
:2044e00000030000000000000000043ee000000000000000001133d40000000003a012fcce
:0945000060000000000000000052
:204509000100000000000000000000027c000400000000000000033c20f00000004af06422
:0a4529006000000000000000000028
:20453300000000000000000000000000001e00000000000000008017901d00000ba017c084
:094553000040000000000004001b
:20455c0000002000000000000000000000f1f000000000000000011de800e000000af02c32
:0a457c000000000000000000000035
:20458600000000000000000000000000079e00000000000000009826f00e000003a016e01b
:0945a6000000000000000002000a
:2045af000000000000000000000000000008040000000000000002804b000000004af025b4
:0a45cf004240000000000000400020
:2045d90000000000000000000000040e878a000000000000000003c6d01c00000ba016c069
:0945f90064000000000000000055
:204602000000000000000000000000027808000000000000000002bc08000000000af06cea
:0a462200020000000000000000008c
:20462c0000000000000000000011005ca78000000000000000208006f01c00000ba017e680
:09464c000600300000000000002f
:204655000000000000000000000000001a000000000000000000101408010000000af0659f
:0a46750042380200000000000000bf
:02467f00000039
:02468100110323
:02468300010133
:20468500000000000000000000000000000000000000000010000000000000000000000005
:0946a5000000000000000000000c
:2046ae000000000000000000000000000000000000000000000000000000000000000000ec
:0a46ce0000000000000000000000e2
:2046d800000000000000000000000000000000000000000020000000000000800000000022
:0946f800000200000000000000b7
:20470100000000000000000000000000000000000000000000000000000000000000000098
:0a472100000000000000000000008e
:20472b00000000000000000000000000000000000800000010000000000000000000000056
:09474b0000000000000000000065
:204754000000000000000000000000000000000000c0000000000000000000000000000085
:0a477400000000000000000000003b
:20477e00000000000008000000000000000000000000000000000000200000000000008073
:09479e0000000000000200000010
:2047a7000000000000000000000000000000000000000000000000000000000000000000f2
:0a47c70000000000000000000000e8
:2047d10000000000000c00000000000030000000000c0c000000000030000000000000c084
:0947f100000000000003000000bc
:2047fa0000000000000000000000000000000000000000000000000000000000000000009f
:0a481a000000000000000000000094
:20482400000000000000000000000000000000800000000000000000000000800000000074
:094844000000000000000000006b
:20484d0000000000000000000000000000000000000000000100000000000000000000004a
:0a486d000000000000000000000041
:20487700000000000000000000000000000000000000000000000000000000000000000021
:0948970000000000000000000018
:2048a0000000000000000000000000000100000800000000020000000000000800000000e5
:0a48c000000020000000000000804e
:2048ca0000000000000800000000000020000000000800000000000020000080000000807e
:0948ea00000000000002000000c3
:2048f3000000000000000000000000000000000000000000010000000000000000000200a2
:0a491300000000000000000000009a
:20491d000000000000000000000000000000000000000000000000000000000c000000006e
:09493d000020300000000004001d
:204946008000000000000000000000000000000000000000000000000000e000c000000031
:0a496600000002000000000020081d
:20497000000000000000000000000000000000000000000000000000000000000000000027
:094990000000000000000000001e
:2049990000000000000000000000000000000000000000000000000000008000000000007e
:0a49b90040000000000000000000b4
:2049c3000000000000000000000000000000000000000000000000000000000000000000d4
:0949e300000000000000000000cb
:2049ec000000000000000000000000000000000000000000000000000000000000000000ab
:0a4a0c0000000000000000000000a0
:204a160000020000000000000000000000000000000000000000000000000000000000007e
:094a360000000000000000000077
:204a3f00000000000000000000000000000000000000000000000000000000000000000057
:0a4a5f0000005000000000000000fd
:204a690000000000000000000000000000000000000000000000000000000000000000002d
:094a890000000000000000000024
:204a92000000300000000000000000000000000000000000000000000000000000000000d4
:0a4ab2000380000000000000000077
:204abc000000000000000000000000000000400000000000000000000088000c0000000006
:094adc003c0030000000008000e5
:204ae500800000000000000000000000000008000000000000000000003810008000000061
:0a4b0500004003000000002f10081c
:204b0f00000000000000000000000000000000000000000000000000000000140000000072
:094b2f0000004000000000f0014c
:204b38004000000000000000000000000000000000000000000000000000000140000000dc
:0a4b58000028040000000000001017
:204b6200000200000000000000000000000000000000000000082a800000000020aa0000b5
:094b820038000082a800b0000018
:204b8b00000000000000000000000000000000000000000000004aa84a000000006aa1289b
:0a4bab0000200004aa84a800000006
:204bb500003c000000000000000000159090000000000000000000010788000c00000400cf
:094bd50020002000001000800007
:204bde00c40040000000000000000041fe79e00000000000000004001e7990008010006000
:0a4bfe00004002004001c119000848
:204c0800800000000000000000000000008000000000000000042bc1d008a00000af06c0af
:094c280020000002bc1f00800006
:204c3100000000000000000000000000007800000000000000000e805b01940000ba016c46
:0a4c510006400000e805b01900005d
:204c5b000c0000000000000000000000000000000000000000402bc0f700000004af024016
:094c7b0000000002bc0d10000055
:204c840004c0000000000000000000000079e0000000000000000e805f000800003a01685b
:0a4ca40000000000e805f100000028
:204cae0000000000000000000000003db00000000000000000402bc0d000400004af02c049
:094cce0030000002bc0f000000e0
:204cd700000000000000000000000040fc0000000000000000000e805f000200003a017cdb
:0a4cf70000400000e805f000000096
:204d0100000000000000000000000000000000000000000000402bc1f110400004af064626
:094d210000000002bc1d1000009e
:204d2a00000030000000000000000000000000000000000000000e804b80e200003a012a99
:0a4d4a00e6000000e804b80e0000c7
:204d5400000000000000000000000000008e00000000000000042bc1d110000000af06c467
:094d740000000042bc1f10000009
:204d7d00000000000000000000000000003000000000000000000e804b98840000ba012e08
:0a4d9d0060070000e804b98e000072
:204da700800000000000000000000000000000000000000000042bc0f000001404af026c58
:094dc7003c004002bc0d0000019b
:204dd000400000000000000000000000000000000000000000000e804f000001003a013a30
:0a4df00000000500e804f0000010c8
:204dfa000002800000000004000000000000000000000000800c2bc0d000000024af02c037
:094e1a0000000082bc0f00000042
:204e2300000000000000000000000000003000000000000000000e804f000000003a013dea
:0a4e4300c0000000e804f0000000c9
:204e4d00000000000000000000000000000000000000000000002bc19b08000c00af07cc28
:094e6d0020003002bc1800800096
:204e7600800000000000000000000000007800000000000002000e805e19980080ba0166e4
:0a4e960003c00300e805e1810008f5
:204ea000800000000000000000000002808000000000000000002bc1b018000000af0744c2
:094ec00020000012bc0d1080005e
:204ec9000000000000000000000300047a7800000000000000000e805a18900000ba016e17
:0a4ee90006400000e805a0190000d3
:204ef300000000000000000000000007b00000000000000000002bc09b00000000af03cce4
:094f130000000002bc080080004f
:204f1c00000000000000000000000043ef01e0000000000000000e805e02000000ba016e4b
:0a4f3c0000000001e805a0000000dd
:204f4600000280000000000000000000001000000000000000002bc0b000000000af03402c
:094f660038000002bc0d900000af
:204f6f000000080000000000000000000001e0000000000000000e805e000000007a017c56
:0a4f8f0000000000e805e00000004b
:204f9900000000000000000000000000070b00000000000000002bc19100000004af07c6e9
:094fb90000000002bc1800e00039
:204fc200000010000000000000000000008001800000000000000e804e80e000003a012e19
:0a4fe200e6000000e804a01900003a
:204fec00000000000000000000000000000000000000000110002bc1b180000004af07407d
:09500c0000000002bc1d10004070
:205015000000000000000000000000000030c0000000000002000e804ab98000003a013c01
:0a50350060000000e804a9800000fc
:20503f00800000000000000000000000008000000000000000002bc09000001404af03f418
:09505f0000004002bc0800f00151
:205068000000000000000000000000000050c0000000000000000e804a000001403a013e86
:0a50880002800500e804e0010010ba
:20509200000000000000000000000034a00804000000000000002beeb080000004afd3400f
:0950b20000000002bced01e00069
:2050bb00000000000000000000000200ec0010000000000000000e83ee380000003a09bc21
:0a50db0000000000e83ce0080000bf
:2050e5000000000000000000000117c2c00001000000000000002bc2011d002000000000e5
:0951050020000000000000000081
:20510e000400000000000000000002bcc100000800000000000202bdce81d0000000000016
:0a512e000040000000000000000037
:2051380080000000000000000000000001000000000000000000000db0980000000a0ac0ad
:09515800400000000000180000f6
:205161000000000000000000000000000081800000000000300000057b1990002020037918
:0a518100c3800000000001000000e0
:20518b000c0000000000000000001742cf8000000000000000000000000e000080fa0b9c21
:0951ab0001000010141f00801423
:2051b400040000000000000000010a9cef398000000000000000000000000010000a5527f2
:0a51d400c0280000800f80000000da
:2051de000002000000000000000024020b0f00000000000000000002a71e0100002cda029f
:0951fe0000000000000010c000d8
:20520700000000000000000000010241dc8010000000000000011005ee0080080020837c2c
:0a5227004000000000000800000035
:205231000000000000000000000038ee90000000000000050000001ccd8b00400002774035
:0952510000000000000000000054
:20525a0000003000000000000000036ed90000000000000000000043e8500000202269a8ec
:0a527a00002000000000000000000a
:2052840000000000000000000020282f800000000000000000000000008b000008cf0800a9
:0952a40000803000045d50f000b0
:2052ad00c000000000000000000000807d000000000000000000000000518000040cf380d0
:0a52cd00601003808994a800000c13
:2052d70000400000000000000000006e908d001000000002000000278090000084097b405b
:0952f7003c005000000090000191
:20530000000380000000000000000002d978100340000000200000424b10a00200005be0ca
:0a532000004015000000000000141a
:20532a0000020000000000000000000000000000000000008000100cdd19000000000000cf
:09534a0024000002905d008000c7
:205353000000000000000000000000000000000000000000000000034800a000000000004f
:0a537300000000009014a0010000eb
:20537d00000000000000000000200007e008000000000000000000000700000000000000fa
:09539d000060000000000000c0e7
:2053a600800000000000000000000042eb001000000000000000000000900000000000009a
:0a53c6000000000000000000000cd1
:2053d000800000000000000000001540d0080000000000000000000000900000000a0bb4b7
:0953f0006c000000000000000048
:2053f900000000000000000000000aa84101900000000000000000000038e00021a00738f8
:0a54190043800000000001000000c5
:20542300000000000000000000002584010000000000000000000003ab0000000000000011
:0954430028000000000000e40054
:20544c00000000000000000000000da6408000000000000000001a81fd80000000000000b5
:0a546c0000000000000000018000b5
:20547600000000000000000000003c00000000000000000000000000000f000000000000cb
:09549600340000000000000000d9
:20549f00000000000000000000000c3c5e0000000000000000000000000000000000000047
:0a54bf000040100000000000000093
:2054c900080000000000000000003c01000000000000000008002bc1f00900020083038089
:0954e90024020000000000018013
:2054f200000000000000000000000c3c4a000000000000000008083ddf000000040013b80d
:0a55120000400000000000000c0043
:20551c00000000000000000000003c01010000000000000000000000000a400c00000300d8
:09553c0024023000000000800090
:20554500c00000000000000000080c3c4a98000000000000000000000051a800c000a5688e
:0a5565000040130000000001000cdc
:20556f00800000000000000000803c000000401000000000000233c00000001300500280b6
:09558f00240040000000000001ae
:20559800000000000000000000000c3c4e0180c1000000000001033d40000001610a0180ad
:0a55b8000042040000000000001093
:2055c200000000000000000000083c00000d0000000000000082009db000010000000000a8
:0955e20038000082a80000d0147a
:2055eb00000000000000000000080c3c4e00100000000000000000155e000000000000007f
:0a560b0000000004aa84a0010000c2
:20561500000000000000000000003c01000810000000000000000000b00c000080cf000015
:09563500000000000010008000dc
:20563e00800000000000000000000c3c5e1810000000000000000028d87008c0040cf500c1
:0a565e00060000004001c001000832
:20566800800000000000000000003c0100080000000000000001179db110000090011f80b7
:0956880000050202bc1e008000b6
:20569100000000000000000000000c3c5a01900000000000000002bc6880800008007ba479
:0a56b10000000000e805a00b000057
:2056bb00000000000000000000003c0000000000000000000000001ec080000000e01a40fb
:0956db0000700042bc0c1000003c
:2056e400000000000000000070000c3c5a000100000000000000000648700000082403792d
:0a57040066814000e805a0000000e7
:20570e00000200000000000000003c00000000000000000000042644c08800000000000483
:09572e0030000042bc0e00000036
:20573700000000000000000000000c3c5e000000000000000000099a0079d00000000002be
:0a57570000400000e805e00a000031
:20576100000000000000000000003c0101000000000000000000382d8000008000f50b0085
:0957810000050042bc1c100000f0
:20578a00000030000000000000000c3c4a81800000000000000000006b000000000a537cf8
:0a57aa0000000000e804a8188000c9
:2057b400000000000000000000003c01010000000000000000042803c590000080017b40d7
:0957d40040003042bc1e10000030
:2057dd00000000000000000000000c3c4a9800000000000000040829dcd080000022692175
:0a57fd00c2860200e804a99800002b
:20580700800000000000000000003c00000000100000000000201001001800140000000058
:095827003c304042bc0c00900131
:20583000000000000000000000000c3c4e00000100000000000101007e00b0010000000090
:0a58500000000500e804a0000010ad
:20585a00000200000000000000083c00000e000000000000800803c00f0e00000000000270
:09587a00000000c2bc0e00800019
:20588300000000000000000000000c3c4e000000000000000000403c40b000000000000003
:0a58a300e7800400e804e0000000c4
:2058ad0000000000000366c000003c0100080000000000000000003c0f0000000000000022
:0958cd0000042002bc1b00800055
:2058d600800000000000062800000c3c5e1810000000000000000402000000000000000030
:0a58f60000002300e805e181000c2a
:20590000000000000000200000003c0100080000000000000000001400000000000000020c
:0959200000000002bc1910800017
:20592900000000000000143800000c3c5a01900000000000000004020000000000000000d9
:0a594900e0000000e805ad190000c1
:20595300000000800f78200000003c000000010000000000000000240000000000000000ac
:0959730020000002bc0b00f00052
:20597c000000000010fbd43800000c3c5a0000080000000000000402000000000000000044
:0a599c0000000000e805a001000073
:2059a6000002008001bb46c000003c00000d00000000000000000014000000000000000040
:0959c60038000002bc0900d00009
:2059cf000000000010bf002800000c3c5e0010000000000000000400000000000000000007
:0a59ef0000000000e805e5010000db
:2059f900000000000000028000003c010100000000000000000000040510000000000000b5
:095a190000000002bc1b1000009b
:205a2200000030000000000400000c3c4a81800000000000000004020000e00000000000b7
:0a5a420000000000e804a8180000ae
:205a4c00000000800b71428000003c0101000000000000000000003400900000000000007a
:095a6c0020003002bc199000007a
:205a7500000000001036366c40000c3c4a98000000000000000004000058e0000000000083
:0a5a950000400300e804e180000077
:205a9f000000000005e143c000003c000000001000000000000000340090000000000000ee
:095abf0000004002bc0b000001d4
:205ac8000000000810d6766800000c3c4e00000140000000000004020071a0000000000004
:0a5ae80000000500e804e0000014cf
:205af20000020000057c000020083c00000000000000000000100004000a180024aa0000a9
:095b120000000002bfe9100000d0
:205b1b00000000081052c00001000c3c4e000000000000000000040000000000002aa128b2
:0a5b3b0000000000e80ce00000008c
:205b4500000000000000000000003c01010f00000000000000013c01b00e000000000402f1
:095b650020002000000071800006
:205b6e00000000000000000000000c3c5e9810000000000000000800c901e008001000708f
:0a5b8e00e04003000000001d0000cd
:205b9800000000000000000000003c010f00000000000000000001368100000000af07c073
:095bb800000000000000b2d0045e
:205bc100000000000000000000001c3c5e8000000000000000000001df80000000ba016c07
:0a5be10006000000000008010000ab
:205beb000000000000000000002003c0070000000000000000003c00c000000000af036e94
:095c0b003c000000000000e00074
:205c140000000000000000000000043c588000000000000000002800df01800000ba016ea7
:0a5c3400e040000000000000000046
:205c3e000002000000000000000003c0000e0c000000000000012801c00c000000af03c0ff
:095c5e0000000000036970e00081
:205c670000000000000000000000143c5e00100000000000000008296a00100000ba017c7d
:0a5c8700000000000065900000001e
:205c91000000000000000300000003c00d0000000000000000003c018708000200af074458
:095cb1000000000001cf08000012
:205cba0000003000000000000000243c4c8000000000000000002800ca999000003a012eea
:0a5cda0006280000004dd500002050
:205ce4000000000000000000000003c1000040000000000000002802c30f000200af07c424
:095d04007c00000002e8d0b002ae
:205d0d0004000000000000000000143c5a0008000000000000001829ca180002003a012e32
:0a5d2d00675000000414919e00204e
:205d37008000000001a80400000203c1000b00100000000110002bc0800f041000af0340ad
:095d570000025800003ed1b0002a
:205d600000000000109240700000043c5c001001000000000200197cc0000001007a013c15
:0a5d8000000044100044b00a0000c7
:205d8a00000200000000c300000000250b0c00000000000080000034a70f000020af03c0fc
:095daa000000000001da190000fc
:205db3000400000000000000000004000e000000000000000000000769819000007a012c92
:0a5dd300000000002034ed0a00007b
:025ddd000000c4
:035ddf0062003f20
:035de200720080cc
:025de5001100ab
:035de70082000037
:025dea000103b3
:085dec000000000000000000af
:085df4000000000000000000a7
:085dfc0000000000000000009f
:085e0400000000000000000096
:0261ec000000b1
:0361ee00820080ac
:0261f1000103a8
:0861f3000000000000000000a4
:0861fb0000000000000000009c
:08620300000000000000000093
:08620b0000000000000000008b
:0265f3000000a6
:0265f500110192
:0365f7008200001f
:0265fa0001039b
:0865fc00000000000000000097
:0866040000000000000000008e
:08660c00000000000000000086
:0866140000000000000000007e
:0269fc00000099
:0369fe0082008094
:026a010001038f
:086a030000000000000000008b
:086a0b00000000000000000083
:086a130000000000000000007b
:086a1b00000000000000000073
:026e030000008d
:026e0500110278
:036e070082000006
:026e0a00010382
:086e0c0000000000000000007e
:086e1400000000000000000076
:086e1c0000000000000000006e
:086e2400000000000000000066
:02720c00000080
:03720e008200807b
:02721100010377
:08721300000000000000000073
:08721b0000000000000000006b
:08722300000000000000000063
:08722b0000000000000000005b
:02761300000075
:0276150011035f
:03761700820000ee
:02761a0001036a
:08761c00000000000000000066
:0876240000000000000000005e
:08762c00000000000000000056
:0876340000000000000000004e
:027a1c00000068
:037a1e0082008063
:027a210001035f
:087a230000000000000000005b
:087a2b00000000000000000053
:087a330000000000000000004b
:087a3b00000000000000000043
:027e230000005d
:017e2500223a
:027e2600e2e593
:027e2800010651
:00000001FF
