:02000000ff00ff
:080002004c6174746963650030
:17000a00694345637562653220323032302e31322e32373934330071
:15002100506172743a2069434534304c50314b2d514e38340034
:1b003600446174653a204a756e20313320323032322031343a31363a3430007c
:0200510000ffae
:040053007eaa997e6a
:02005700510056
:0200590001059f
:03005b0092000010
:03005e0062014bf1
:030061007200909a
:0300640082000017
:02006700110086
:02006900010193
:20006b00000000000000000000000000000000000000000000000000000000000000000075
:09008b00000000800000000000ec
:2000940000000000000000000000000000000000000000000000000000000000000000004c
:0a00b4000000000000000000000042
:2000be00000000000000000000000000000000000000000000000000000000001000000012
:0900de00000000400000000000d9
:2000e7000000000000000000000000000000000000000000000000000000000000000000f9
:0a01070000000000000000000000ee
:200111000000000000000000000000000000000000000000000000000000000000000000ce
:090131000000008008000200003b
:20013a000000000000000000000000000000000000000000000000000000000000000000a5
:0a015a000000000000f0003000007b
:200164000000000000040000000000001000000000000040000000001000000000000040d7
:0901840000000000000100000071
:20018d00000000000000000000000000000000000000000000000000000000000000000052
:0a01ad000000000000000000000048
:2001b70000000000000c00000000000030000000000000c00000000030000000000000c03c
:0901d7000000000000020000001d
:2001e0000000000000000000000000000000000000000000000000000000000000000000ff
:0a02000000000000000000000000f4
:20020a000000000000000000000000000000000000000000000000000000000000000000d4
:09022a00000000000000000000cb
:200233000000000000000000000000000000000000000000000000000000000000000000ab
:0a02530000000000000000000000a1
:20025d00000000000000000000000000000000000000000000000000000000000000000081
:09027d0000000000000000000078
:20028600000000000000000000000000000000000000000000004000000000000100000017
:0a02a600000000040000000000004a
:2002b00000000000000400000000000010000000000000400000000010000000000000408a
:0902d00000000000000102000022
:2002d900000000000000000000000000000000000000000000000000000000000000000005
:0a02f90000000000000000000000fb
:200303000000000000000000000000000000000000000000000000000000000000000000da
:09032300000000000000000000d1
:20032c00000020000000000000000000000000000040000000000000000000000000000051
:0a034c0000000000000000000000a7
:20035600000000000000000000000000000000000000000000000000000000000000000087
:090376000000000000000000007e
:20037f0000000000000000000000000000000000000000000000000000000000000000005e
:0a039f000000000000000000000054
:2003a900000000000000000000000000000000000000000000000000000000000000000034
:0903c9000000000000000000002b
:2003d20000000000000000000000000000000000000000000000000000000000000000000b
:0a03f2000000000000000000000001
:2003fc000003000000000000000000000000000000000000000000000000000000000000de
:09041c00000000000000000000d7
:200425000000000000000000000000000000000000000000000000000000000000000000b7
:0a04450000000000000000000000ad
:20044f0000000000000000000000000000000000000000000000000000000000000000008d
:09046f0000000000000000000084
:20047800000020000000000000000000000000000000000000000000000000000000000044
:0a049800000000000000000000005a
:2004a20000000000000000000000000000000000000000000000000000000000000000003a
:0904c20000000000000000000031
:2004cb00000000000000000000000000000000000000000000000000000000000000000011
:0a04eb000000000000000000000007
:2004f5000000000000000000000000000000000000000000000000000000000000000000e7
:09051500000000000000000000dd
:20051e000000000000000000000000000000000000000000000000000000000000000000bd
:0a053e0000000000000000000000b3
:20054800000000000000000000000000000000000000000000000000000000000000000093
:090568000000000000000000008a
:2005710000000000000000000000000000000000000000000000000000000000000000006a
:0a0591000000000000000000000060
:20059b00400000000000000000000000000000000000000000000000000000000000000000
:0905bb0000000000000000000037
:2005c4000000200000000000000000000000000000000000000000000000000000000000f7
:0a05e400000000000000000000000d
:2005ee000000000000000000000000000000000000000000000000000000000000000000ed
:09060e00000000000000000000e3
:200617000800000000000000000000000000000000000000000000000000000000000000bb
:0a06370000000000000000000000b9
:200641004c000000000000000000000000000000000000000000000000000000000000004d
:0906610000000000000000000090
:20066a000080000000000000000000000000000000000000000000000000000000000000f0
:0a068a000000000000000000000066
:20069400000300000000000000000000000000000000000000000000000000000000000043
:0906b4000000000000000000003d
:2006bd0000000000000000000000000000000000000000000000000000000000000000001d
:0a06dd000000000000000000000013
:2006e7000000000000000000000000000000000000000000000000000000000000000000f3
:09070700000000000000000000e9
:200710000000200000000000000000000000000000000000000000000000000000000000a9
:0a07300000000000000000000000bf
:20073a0000000000000000000000000000000000000000000000000000000000000000009f
:09075a0000000100000000000095
:20076300000000000000000000000000000000000000000000000000000000000000000076
:0a078300000000000000000000006c
:20078d0000300000000000000000000000000000000000000000000000000000000000001c
:0907ad0000000000000000000043
:2007b600000000000000000000000000000000000000000000000000000000000000000023
:0a07d6000000000000000000000019
:2007e0000000000000000000000000000000000000000000000000000000000000000000f9
:09080000000000000000000000ef
:200809000000000000000000000000000000000000000000000000000000000000000000cf
:0a08290000000000000000000000c5
:200833000000000000000000000000000000000000000000000000000000000000000000a5
:090853000000000000000000009c
:20085c0000002000000000000000000000000000004000000000000000000000000000001c
:0a087c000000000000000000000072
:20088600000000000000000000000000000000000000000000000000000000000000000052
:0908a600000000000000faa000af
:2008af00080000000000000000000000000000000000000000000000000000000000000021
:0a08cf00000000004000030a008052
:2008d9000000000000000000000000000000000000000000000000000000000000000000ff
:0908f900000000000000000000f6
:200902000000000000000000000000000000000000000000000000000000000000000000d5
:0a09220000000000000000000000cb
:20092c000003000000000000000000000000000000000000000000000000000000000000a8
:09094c0000000000002000000082
:20095500000000000000000000000000000000000000000000000000000000000000000082
:0a09750000000000a00400000000d4
:20097f00000000000000000000000000000000000000000000000000000000000000000058
:09099f000000000000000000004f
:2009a80000002000000000000000000000000000000000000000000000000000000000000f
:0a09c8000000000000000000000025
:2009d200000000000000000000000000000000000000000000000000000000000000000005
:0909f200000000000000000000fc
:2009fb000000000000000000000000000000000000000000000000000000000000000000dc
:0a0a1b00000000000003400000008e
:200a25000000000000000000000000000000000000000000000000000000000000000000b1
:090a4500000000000000000000a8
:200a4e00000000000000000000000000000000000000000000000000000000000000000088
:0a0a6e00000000000000000000007e
:200a780000000000000000000000000000000000000000000000000000000000000000005e
:090a980000000000000000000055
:200aa100000000000000000000000000000000000000000000000000000000000000000035
:0a0ac100000000000000000000002b
:200acb0000000000000000000000000000000000000000000000000000000000000000000b
:090aeb0000000000000000000002
:200af4000000200000000000000000000000000000000000000000000000000000000000c2
:0a0b140000000000000000000000d7
:200b1e000000000000000000000000000000000000000000000000000000000000000000b7
:090b3e00000000000000000000ae
:200b4700080000000000000000000000000000000000000000000000000000000000000086
:0a0b67000000000000000000000084
:200b7100000000000000000000000000000000000000000000000000000000000000000064
:090b91000000000000000000005b
:200b9a0000000000000000000000000000000000000000000000000000000000000000003b
:0a0bba000000000000000000000031
:200bc40000030000000000000000000000000000000000000000000000000000000000000e
:090be40000000000000000000008
:200bed000000000000000000000000000000000000000000000000000000000000000000e8
:0a0c0d0000000000000000000000dd
:200c17000000000000000000000000000000000000000000000000000000000000000000bd
:090c3700000000000000000000b4
:200c4000000020000000000000000000000000000000000000000000000000000000000074
:0a0c6000000000000000000000008a
:200c6a0000000000000000000000000000000000000000000000000000000000000000006a
:090c8a0000000000000000000061
:200c9300000000000000000000000000000000000000000000000000000000000000000041
:0a0cb3000000000000000000000037
:200cbd00000000000000000000000000000000000000000000000000000000000000000017
:090cdd000000000000000000000e
:200ce6000000000000000000000000000000000000000000000000000000000000000000ee
:0a0d060000000000000000000000e3
:200d10000000000000000000000000000000000000000000000000000000000000000000c3
:090d3000000000000000000000ba
:200d390000000000000000000000000000000000000000000000000000000000000000009a
:0a0d59000000000000000000000090
:200d63000000000000000000000000000000000000000000000003e00410080000019b00d5
:090d830000000000800001008066
:200d8c0000000000000000000000000000000000004000000000003e000d0000000000a01c
:0a0dac00000000000000009000208d
:200db6000000000000000000000000000000000000000000002400001e8f080080000013b1
:090dd60000100000000001008083
:200ddf0008000400000000000000000000000000000000000002a0000000f00068000001ed
:0a0dff00803c00000002c0a00000cc
:200e09000000000000000000000000000000000000000000000000000c8f08000001195ab2
:090e29009410000000000100809b
:200e32000000000000000000000000000000000000000000000000000000f0000000088325
:0a0e520040140000000000c0000082
:200e5c000001000000000000000000000000000000000000000000065c8f0800000d995383
:090e7c00001000002000000080bd
:200e85000000000000000000000000000000000000000000000000002020f000000050a924
:0a0ea500803c0000014000c0000086
:200eaf000004000000000000000000000000000000000000000001601c8f0800000000d635
:090ecf00c100000014280000809d
:200ed8000003200000000000000000000000000000000000000000000020f0000000500d6a
:0a0ef800f40000000026c0d0000046
:200f02004400000000000000000000000000000000000000000000005e8f0800000019007d
:090f220000000000000000008046
:200f2b000080000000000000000000000000000000000000000000002820f000000000806e
:0a0f4b0000000000e34000d00000a9
:200f5500000000000000000000000000000000000000000000000006d68f0c0000000007fe
:090f7500c49000001c0001008082
:200f7e0008000000000000000000000000000000000000000000000028200f0000000003f1
:0a0f9e0034840000000000e00000b1
:200fa800400000000000000000000000000000000000000000000146968f0c00000000db96
:090fc800001000000e01c00080c1
:200fd10000000000800000000000000000000000000000000000000000200f000000f00b56
:0a0ff100003c00000020000000009a
:200ffb000000000000000000000000000000000000000000000002001c8f0c00000001001c
:09101b0000000000000008f000d4
:2010240000002000000000000000000000000000000000000000003c00000f04000000a09d
:0a104400000000080000000f00404b
:20104e000000000000000000000000000000000000000000002000001c8f0c02800d80d6c6
:09106e0042000a001638000000df
:2010770000000000000000000000000000000000000000000002000000000f00280050e1ef
:0a109700ac0000200007c0000000bc
:2010a100000000000000000000000000000000000000000000000006548f0c00000d9a3360
:0910c100c20000002660000000de
:2010ca0000000000000000000000000000000000000000000000000020200f000000500364
:0a10ea006c00000000600000000030
:2010f400000300000000000000000000000000000000000000000060548f0c0000019bbf2f
:091114000200000000014000404f
:20111d0080000000000000000000000000000000000000000000000020200f00000000a340
:0a113d00b40000000000160ff004db
:201147000000000000000000000000000000000000000000000000001e8f0c0000050a5769
:09116700020000000603f88000fc
:2011700000002000000000000000000000000000000000000000000000000f000000d90552
:0a11900064000000026027a00000c8
:20119a00000000000000000000000000000000000000000000000000168f0c000005181e49
:0911ba0085100000000000000097
:2011c30000000000000000000000000000000000000000000000000000000f000000d9b074
:0a11e300b8500000000000000000fa
:2011ed00000000000000000000000000000000000000000000000260168f0c0000090000c6
:09120d000000000014606c800078
:2012160000000000000000000000000000000000000000000000000400200f00000050b085
:0a1236000000000000041cf000009e
:201240000000000000000000000000000000000000000000000002061e8f0c0000000000cd
:0912600000000000000400000081
:2012690000000000000000000000000000000000000000000000000400200f000000000032
:0a12890000000000000280000000d9
:201293000000000000000000000000000000000000000000000000001c8f0c000008007ffd
:0912b300c200100006604964004d
:2012bc0000002000000000000000000000000000004000000000000000000f040000900f00
:0a12dc00b800000001c005e40000a6
:2012e6000000000000000000000000000000000000000000002000001c8f0c000000000011
:09130600000002000000eac5220b
:20130f004000000000000000000000000000000000000000000a000000000f000000000065
:0a132f00000000a04140030c500034
:201339000000000000000000000000000000000000000000000001e6548f0c0000001900a5
:0913590000000c000e2f7c0000c6
:2013620000000000000000000000000000000000000000000000000220200f00000001f029
:0a138200000000400343d5f2000014
:20138c00000300000000000000000000000000000000000000000060548f0c0000001a00d5
:0913ac00000000003c61f8802201
:2013b50040000000000000000000000000000000000000000000000020200f0000009000f9
:0a13d5000000000041e016000004d3
:2013df000000000000000000000000000000000000000000000000001e8f0c000005005ad6
:0913ff00e940100000005c10023e
:2014080000002000000000000000000000000000000000000000000000000f00000008b7d6
:0a14280075a8000000020401a000f6
:20143200000000000000000000000000000000000000000000000000168f0c0000000012d7
:0914520081406000066d6ac513bb
:20145b0000000000000000000000000000000000000000000000000000000f0000000090d2
:0a147b00401405000002030c52109b
:20148500000000000000000000000000000000000000000000000260168f0c0000010ab376
:0914a5008200000000384a2142d7
:2014ae0000000000000000000000000000000000000000000000000400200f000000d90d05
:0a14ce0034000200000407011000c2
:2014d8000000000000000000000000000000000000000000000002061e8f0c00000500002e
:0914f800000000a006705e104027
:2015010000000000000000000000000000000000000000000000000400200f000000d8b00f
:0a15210000000000000004925000da
:20152b004000000000000000000000000000000000000000000002001c8f0c0000000000a7
:09154b00000000001c2a4b0e00f8
:2015540000002000000000000000000000000000000000000000003c00000f040000000008
:0a1574000000000000202580800028
:20157e000000000000000000000000000000000000000000002000001c8f0c000000000076
:09159e000000000026054b0200cc
:2015a70008000000000000000000000000000000000000000002000000000f00000000000b
:0a15c70000000000006276d0000072
:2015d100400000000000000000000000000000000000000000000006548f0c0000000000c5
:0915f10000000001142e1ad102c1
:2015fa0040000000000000000000000000000000000000000000000020200f000000000042
:0a161a00000000000802250e220067
:20162400000300000000000000000000000000000000000000000070148f0c000000000084
:091644000000000014041e9612bf
:20164d0000000000000000000000000000000000000000000000000000200f00000000004e
:0a166d00000000000003c009600047
:201677000000000000000000000000000000000000000000000000001e8f0c00000000009a
:091697000000000400005c4002a8
:2016a00000002000000000000000000000000000000000000000000000000f0000000000fb
:0a16c0000000000000001700000009
:2016ca00000000000000000000000000000000000000000000000000168f0c00000000004f
:0916ea0000000001407018c52247
:2016f30000000000000000000000000000000000000000000000000000000f0000000000c8
:0a171300000000000800050ca00013
:20171d000000000000000000000000000000000000000000000002601e8554000000000053
:09173d00000000000003ee200092
:20174600080000000000000000000000000000000000000000000004002055000000000002
:0a17660000000008000355a300086e
:20177000000000000000000000000000000000000000000000000200400000000000000017
:091790000000000006035ba50047
:2017990000000000000000000000000000000000000000000000000420000000000000000c
:0a17b9000000000000c004e520005d
:0217c300000024
:0217c500110110
:0217c70001011e
:2017c9000000020000000000000800000000000020000000000000000000000000000000d6
:0917e900000000000000000000f7
:2017f2000000000000000000000000000000000000000000000000000000000000000000d7
:0a18120000000000000000000000cc
:20181c00000001000000000000040000000000001000000000040000000000000000000093
:09183c00000000000000000000a3
:20184500000000000000000000000000000000000000000000000000000000000000000083
:0a1865000000000000000000000079
:20186f000000020020000800000800000000000020000000400000000000000000000000c7
:09188f0000000000000000000050
:2018980000000000034000c00000000000000000000000000c000000000000000000000021
:0a18b8000000000000000000000026
:2018c20000000000000400000000000010000000000000400004000010000000000000405e
:0918e200000000000001000000fc
:2018eb000000000000000000000000000000000000000000000000000000000000000000dd
:0a190b0000000000000000000000d2
:2019150000000000000c000000000000300000000001c0c00000000020000000000000c015
:09193500000000000003000000a6
:20193e00000000000000000000000000000000000000020000000000000000000000000087
:0a195e00000000000000000000007f
:2019680000000000000000000000000000000000000000000000000000000000000000005f
:0919880000000000000000000056
:20199100000000000000000000000000000000000000000000000000000000000000000036
:0a19b100000000000000000000002c
:2019bb0000000000000000000000000000000000000000000000000000000000000000000c
:0919db0000000000000000000003
:2019e4000000000000000000000000000000000001000000000040000000000001000000a1
:0a1a040000000004000000000000d4
:201a0e00000000000004000000000000100000000000004000000000100000000000004014
:091a2e00000000000001000000ae
:201a370000000000000000000000000000000000000000000000000000040000000000008b
:0a1a57000000000000000000000085
:201a6100000000000000000000000000000000000000000000000000000000000000000065
:091a81000000000000000000005c
:201a8a0000000000000000000000000000000000000000000000000000000000000000003c
:0a1aaa000000000000000000000032
:201ab400000000000000000000000000000000000000000000000000000000000000000012
:091ad40000000000000000000009
:201add000000000000000000000000000000000000000000000000000000000000000000e9
:0a1afd0000000000000000000000df
:201b07000000000000000000000000000000000000000000000000000000000000000000be
:091b2700000000000000000000b5
:201b3000000000000000000000000000000000000000000000000000000000000000000095
:0a1b5000000000000000000000008b
:201b5a00000200000000000000000000000000000000000000000000000000000000000069
:091b7a0000000000010000000061
:201b8300000000000000000000000000000000000000000000000000000000000000000042
:0a1ba3000000000000000000000038
:201bad00000000000000000000000000000000000000000000000000000000000000000018
:091bcd000000000000000000000f
:201bd6000000300000000000000000000000000000000000000000000000000000000000bf
:0a1bf60000000000000000000000e5
:201c00000000000000000000000000000000000000000000000000000000000000200000a4
:091c2000000000000000000000bb
:201c290000000000000000000000000000000000000000000000000000000000000000009b
:0a1c49000000000000000000000091
:201c5300000000000000000000000000000000000000000000000000000000000000000071
:091c730000000000000000000068
:201c7c00000000000000000000000000000000000000000000000000000000000000000048
:0a1c9c00000000000000000000003e
:201ca60000020000000000000000000000000000000000000000000000000000000000001c
:091cc60000000000000000000015
:201ccf000000000000000000000000000000000000000000000000000000000000000000f5
:0a1cef0000000000000000000000eb
:201cf9000000000000000000000000000000000000000000000000000000000000000000cb
:091d1900000000000000000000c1
:201d22000000000000000000000000000000000000000000000000000000000000000000a1
:0a1d42000000000000000000000097
:201d4c00000000000000000000000000000000000000000000000000000000000000000077
:091d6c000000000000000000006e
:201d750000000000000000000000000000000000000000000000000000000000000000004e
:0a1d95000000000000000000000044
:201d9f00000000000000000000000000000000000300000000000000000000000000000021
:091dbf000000000000000000001b
:201dc8000000000000000000000000000000000000000000000000000000000000000000fb
:0a1de80000000000000000000000f1
:201df2000002000000000000000000000000000000000000000000000000000000000000cf
:091e1200000000000000000000c7
:201e1b000000000000000000000000000000000000000000000000000000000000000000a7
:0a1e3b00000000000000000000009d
:201e450000000000000000000000000000000000000000000000000000000000000000007d
:091e650000000000000000000074
:201e6e00000030000000000000000000000000000000000000000000000000000000000024
:0a1e8e00000000000000000000004a
:201e980000000000000000000000000000000000000000000000000000000000000000002a
:091eb80000000000000000000021
:201ec100000000000000000000000000000000000000000000000000000000000000000001
:0a1ee10000000000000000000000f7
:201eeb000000000000000000000000000000000000000000000000000000000000000000d7
:091f0b00000000a000000000002d
:201f14000000000000000000000000000000000000000000000000000000000000000000ad
:0a1f340000000000000000000000a3
:201f3e00000200000000000000040000000000000400000000100000000000000000000069
:091f5e000000000000000000007a
:201f67000000000000000000000000000000000000800000000100000000000000000000d9
:0a1f870000000000c0000000000090
:201f9100000000000000000000000000000000000000000000000000000000000000000030
:091fb10000000000000000000027
:201fba00000000000000000000000000000000000000000000000000000000000000000007
:0a1fda0000000000000000000000fd
:201fe4000000000000000000000000000000000000000000000000000000000000000000dd
:09200400000000000000000000d3
:20200d000000000000000000000000000000000000000000000000000000000000000000b3
:0a202d0000000000000000000000a9
:20203700000000000000000000000000000000000000000000000000000000000000000089
:0920570000000000000000000080
:20206000000000000000000000000000000000000000000000000000000000000000000060
:0a2080000000000000000000000056
:20208a00000200000000000000000000000000000000000000000000000000000000000034
:0920aa000000000000000000002d
:2020b30000000000000000000000000000000000000000000000000000000000000000000d
:0a20d3000000000000000000000003
:2020dd000000000000000000000000000000000000000000000000000000000000000000e3
:0920fd00000000000000000000da
:20210600000030000000000000000000000000000000000000000000000000000000000089
:0a21260000000000000000000000af
:2021300008280000000000000000000000000000000000000000000000000000000000005f
:0921500000000000000000000086
:202159000480400000000000000000000000000000000000000000000000000000000000a2
:0a217900000000000000000000005c
:202183008000000000000000000000000000000000000000000000000000000000000000bc
:0921a30000000000000000000033
:2021ac00000000000000000000000000000000000000000000000000000000000000000013
:0a21cc000000000000000000000009
:2021d6000002000000000000000000000000000000000000000000000000000000000000e7
:0921f600000001000100000000de
:2021ff000400000000000000000000000000000000000000000000000000000000000000bc
:0a221f0000000010000000000000a5
:2022290000000000000000000000000000000000000000000000000000000000000100bcd8
:092249002bc000003c7670c500ba
:2022520000000000000000000000000000000000000000000000000000000000000001a1ca
:0a227200fa940200036797805420dd
:20227c00800000000000000000000000000000000000000000000000000000000050000072
:09229c00000000003c0070aa00e3
:2022a50000000000000000000000000000000000000000000000000000000000000200c057
:0a22c5000000000400063fca5000ac
:2022cf000000000000014140000000000000000000000000000002c0000000000000005e4d
:0922ef00800020000001d0fa007b
:2022f800000000000000022800200000000000000000000000000000000000000000000973
:0a231800380400000166208f510018
:2023220000000000000000000000000000000000000000000000000000000000000000009b
:09234200000000000c01e040085d
:20234b0000000000000000000000000000000000000000000000000000000000000000e092
:0a236b0000000000020037a000206f
:2023750018000000000000000000000000000000000000000000000000000000000300d05d
:0923950036c000001429d05000ec
:20239e0000002000000000000000000000000000000000000000000000000000000080007f
:0a23be00039c0800014601ea000438
:2023c8000000000000000000000000000000000000000000000000000d05010000050e04cb
:0923e8000c021000000010550069
:2023f1000000000000000000000000000000000000800000000000000218a028000000006a
:0a24110028c00800000017a55000c5
:20241b008000000000000000000000000000000020000000000000040000000000000f7f6f
:09243b007f4002001c3f6c2008e8
:20244400000000000000000000000200000000000100000000000000380000000000000934
:0a246400fbe000a000007db50000c1
:20246e000800000008a00000000000000000000004000000000000000000000000000c008e
:09248e0000000000007470a500bc
:2024970000000000070100000000000000000000000000000000000000000000000000100d
:0a24b700000000000007fe85500041
:2024c1000000000000000000000000000e0ff00000000000004000000000000300000000ab
:0924e100000001000028e0f400f5
:2024ea0000000000000000000000000002e05a0900000000000400000000000030007800e1
:0a250a00000000000006df8fc02073
:2025140080000008000000000000000000000000000000000000000000000000600080003f
:09253400000000000031f08a20d3
:20253d00000000000000000000000000000000000000000000000000000000000500100069
:0a255d000000000000601ee850209e
:2025670000000000080000000000002200000000000000000000000000000000100000001a
:09258700000000000000003c000f
:20259000000000000100000000000004000000000000000000000000000000000000000026
:0a25b0000000000001400003c020fd
:2025ba00000000000000000000000000000000000000000000000000000000000000000001
:0925da00000000001c22f08a2020
:2025e3000000000000000000000000000000000000000000000000000000000000000000d8
:0a26030000000000016054e85020c0
:20260d00000000000803ac0080000000000000000000000000000000000000000040000036
:09262d00000000003440c9450022
:2026360000002000070edea0040000000000000000000000000000000000000000020000cb
:0a265600000000000062358850000b
:202660000c00000000a0000000000000000000000000000000ca006400000003000110006c
:0926800000000002002f7d420061
:2026890004000000000100000000000000000000000000000004403e38000000100080a042
:0a26a90000000000014606ae240008
:2026b300803400000000000000000000000000000000000000a002400000000280000000ef
:0926d300000002200443c9640068
:2026dc000000000000000000000000000000000000000000000200000000000028000000b4
:0a26fc00000000a402023dba4400f1
:2027060000020000000000000000000000000000000000000000000000055040000000001c
:092726001541000006404b58016a
:20272f0004000000000000000000000000000000000000000000000001485548000000059b
:0a274f0021550000e34285be54004e
:202759000000000000000000000000000000000000000000004000440000000100010008d2
:09277900000000003c000000001b
:202782000400000000000000000000000000000000000000000c002020c000803000b805ba
:0a27a20080020000020000000000a9
:2027ac008000000000000000000000000000000000000000000000403e0f508000010078b7
:0927cc003d4040000027500000d0
:2027d500000000000000000000000000000000000000000000000026036805c00000980de9
:0a27f500a01700000002aec800307b
:2027ff00080000000000000000000000000000000000000000000240040f500800070030ce
:09281f003d404000000258000099
:20282800048000000000000000000000000000000000000000000000036805c00000380d97
:0a284800a017000000e00498000053
:202852000002000000000000000000000000000000000000000003c03c0f50800000007016
:092872003d4800002c400000006c
:20287b0000000000000000000000000000000000000000000000002003e805c00000000f5e
:0a289b00a017000000070000000075
:2028a500000000000000000000001400000000000000000000000002060f50080000083850
:0928c5003d40000a00380000004b
:2028ce00000030000000000000000080000000000000000000000006074805c0000018dd2b
:0a28ee002017000014028000000013
:2028f8000c40000000000000000000000000000000000000000000023e0f50000000087855
:092918003d4000002403f0000022
:20292100040380000000000000000000000000000000000000000000674805c80000119de5
:0a29410020170000034006e1022405
:20294b00802800000000000000000000000000000000000000200020040f5002800000306f
:09296b003d4000403e7dc0000823
:2029740000004000000000000000000000000000000000000002000403c805c04800000f16
:0a2994002017000201f2b5880024ac
:20299e00000200000000000000000000000ff01004000000000003c03c0f504000000070f6
:0929be003d410000142a6c0000e8
:2029c7000400000000000000000000000000ff30000000000000002003c805c04000000fbe
:0a29e700201700000206f6a8000009
:2029f1000000000000000000000000000000000000000000004000400e0f5003028180983b
:092a11003d4000000026690000b0
:202a1a000400000000000000000000000000000000000000000c002063e805c01000b18f0c
:0a2a3a00a0170000000007b800001c
:202a44008028000000d0000000000000000000000000000000000040360f5000000100d84c
:092a64003d4000000200000000ea
:202a6d00000040000001000000000000000000000000000000000026036805c00000900d15
:0a2a8d00a017000001400000000047
:202a97000800000000000000000000000000000000000000000001c00c0f500001008092d8
:092ab70024c00000243f5000007f
:202ac00004c00000000000000000000000000000000000000000003e036805c0000030088c
:0a2ae000258f0000006054a0a00044
:202aea00000200000000000000000000000000000000000000000000340f5000000000d067
:092b0a003d40000000204e0000d7
:202b130000000000000000000000000000000000000000000000000003e805c00000000fe3
:0a2b3300a017000001e064c080104c
:202b3d000000000000000000000000000000000000000000000000020e0f5000028f0898d8
:092b5d003d4000000000000000f2
:202b6600000030000000000000000000000000000000000000000006274805c00000b9dd4f
:0a2b860020170000016000000000ad
:202b90000c0000000000403c00000000000000000000000000000022360f5000000000d016
:092bb0003d4000061c2f5c58009a
:202bb9000400000000000383c000000000000000000000000000001e674805c00005198d75
:0a2bd900a017800a034207ffe00086
:202be300802400000000000000000000000000000000000000a000040c0f5002a1000090ec
:092c03003d4000001628f07a00a3
:202c0c0000004000000000000000000000000000000000000002000063c805c0281019cd58
:0a2c2c00201700000366edca5020d7
:202c3600000200000000000000000000000000000000000000000240358f5000000000d353
:092c5600bd400000003a50ff00ef
:202c5f0004000000000000000000000000000000000000000000000003d805c00000000fa2
:0a2c7f00741702000166d4a5f000ee
:202c89000000001000000000000000000000000000000000000002c29698000000050053d1
:092ca9005fc000021600ebca0036
:202cb20000000000000000000000000000000000000000000000002005cf0000000080038b
:0a2cd200ae94040002422ffc001033
:202cdc00800000000000000000000000000000000000000000000026030f50000005007457
:092cfc003002000000000000009d
:202d050000000000000000000000000000000000000000000000000421eef501000099a16b
:0a2d2500ab80080000e00000000091
:202d2f000000000000000000000000000000000000000000000000e02f000000000510540c
:092d4f00014000003c207000006e
:202d580000000000000000000000000000000000000000000000002e62ca8002000080837c
:0a2d7800b800000001c016ca0008f0
:202d82000000400000000000000000000000000000000000000002c225c00000000700043d
:092da20038c40000022450850031
:202dab00000000000000000000000000000000000000000000000620064b08000000800702
:0a2dcb002b8d080001c3168454206c
:202dd5000000000000000000000000000000000000000000000003641cc00000002000d0ab
:092df5002b400000063ac050001a
:202dfe000000300000000000000000000000000000000000000000142a4d080000041801d5
:0a2e1e00ea900800036341ca0000b7
:202e2800000000000000000000000000000000000000000000000342d5b0000000018ef041
:092e48000d0000061401cd740018
:202e5100000000000000000000000000000000000000000000000400636980000000f80019
:0a2e710078e0080012003f9a000804
:202e7b00800000000000000000000000000000000000000000000006c00000008001000070
:092e9b0001400a000440d9ff00c7
:202ea400000000000000000000000000000000000000000000000000200000002800d801ed
:0a2ec400701400a002e697ffe00082
:202ece00000200000000000000000000000000000400000000000264000000000001005621
:092eee0014c000001400d84000db
:202ef7000000000000000000000000000000000000000000000000142800000000008009f6
:0a2f1700ab8d000002e3b4d000000f
:022f21000000ae
:022f2300110299
:022f25000101a8
:202f270000000000000000000000000000000000000000000000000000000000000000008a
:092f470000000000000000000081
:202f5000000000000000000000000000000000000000000000000000000000000000000061
:0a2f70000000000000000000000057
:202f7a000000000000000000000000000000000000000000000000000000008000000000b7
:092f9a000000000000000000002e
:202fa30000000000000000000000000000000000000000000000000000000000000000000e
:0a2fc3000000000000000000000004
:202fcd000000000000000000000000000000000000000000000000000000000000000000e4
:092fed00000000000000000000db
:202ff6000000000000000000000000000000000000000000000000000000000000000000bb
:0a30160000000000000000000000b0
:203020000000000000080000000000002000000000080000000000002000000000000080c0
:0930400000000000000200000085
:20304900000000000000000000000000000000000000000000000000000000000000000067
:0a306900000000000000000000005d
:2030730000000000000c00000000000030000000000c00000000000030000000000000c005
:0930930000000000000300000031
:20309c00000000000000000000000000000000000000000000000000000000000000000014
:0a30bc00000000000000000000000a
:2030c6000000000000000000000000000000000000000000000000000000000000000000ea
:0930e600000000000000000000e1
:2030ef000000000000000000000000000000000000000000000000000000000000000000c1
:0a310f0000000000000000000000b6
:20311900000000000000000000000000000000000000000000000000000000000000000096
:0931390000000000000020000865
:20314200000000000000000000000000000000000000000000000000000000080000000065
:0a31620000002000000002000080c1
:20316c00000000000008000000000000200000000008000000000000200000000000008073
:09318c0000000000000300000037
:20319500000000000000000000000000000000000100000000000000000000000000000019
:0a31b500000000000000020000000e
:2031bf000000000000000000000000000000000000000000000000000000000000000000f0
:0931df00000000000000000000e7
:2031e80000002000000000000000000000000000000000000800000000000000000000009f
:0a32080000000000000000000000bc
:2032120000000000000000000000000000000000000000000000000000000000000000009c
:0932320000000000000000000093
:20323b00000000000000000000000000000000000000000020000000000000000000000053
:0a325b000000000000000000000069
:20326500000000000000000000000000000000000000000000000000000000000000000049
:0932850000000000000000000040
:20328e00000000000000000000000000000000000000000000000000000000000000000020
:0a32ae000000000000000000000016
:2032b8000003000000000000000000000000000000000000000000000000000000000000f3
:0932d800000000000000000000ed
:2032e1000000000000000000000000000000000000000000000000000000000000000000cd
:0a33010000000000000000000000c2
:20330b000000000000000000000000000000000000000000000000000000000000000000a2
:09332b0000000000000000000099
:20333400000020000000000000000000000000000000000000000000000000000000000059
:0a335400000000000000000000006f
:20335e0000000000000000000000000000000000000000000000000000000000000000004f
:09337e0000000000000000000046
:20338700000000000000000000000000000000000000000000000000000000000000000026
:0a33a700000000000000000000001c
:2033b1000000000000000000000000000000000000000000000000000000000000000000fc
:0933d100000000000000000000f3
:2033da000000000000000000000000000000000000000000000000000000000000000000d3
:0a33fa0000000000000000000000c9
:203404000000000000000000000000000000000000000000000000000000000000000000a8
:093424000000000000000000009f
:20342d0000000000000000000000000000000000000000000000000000000000000000007f
:0a344d000000000000000000000075
:20345700000000000000000000000000000000000000000000000000000000000000000055
:093477000000000000000000004c
:2034800000002000000000000000000000000000000000000000000000000000000000000c
:0a34a0000000000000000000000022
:2034aa00000000000000000000000000000000000000000000000000000000000000000002
:0934ca00000000000000000000f9
:2034d3000000000000000000000000000000000000000000000000000000000000000000d9
:0a34f30000000000000000000000cf
:2034fd000000000000000000000000000000000000000000000000000000000000000000af
:09351d00000000000000000000a5
:20352600000000000000000000000000000000000000000000000000000000000000000085
:0a354600000000000000000000007b
:20355000000300000000000000000000000000000000000000000000000000000000000058
:093570000000000000000008004a
:20357900000000000000000000000000000000000000000000000000000000000000000032
:0a3599000000000000000000000028
:2035a300000000000000000000000000000000000000000000000000000000000000000008
:0935c300000000000000000000ff
:2035cc000000200000000000000000000000000000000000000000000000000000000000bf
:0a35ec0000000000000000000000d5
:2035f6000000000000000000000000000000000000000000000000000000000000000000b5
:09361600000000000000000000ab
:20361f0000000000000000000000000000000000000000000000000000000000000000008b
:0a363f000000000000000000000081
:20364900000000000000000000000000000000000000000000000000000000000000000061
:0936690000000000000000000058
:20367200000000000000000000000000000000000000000000000000000000000000000038
:0a369200000000000000000000002e
:20369c0000000000000000000000000000000000000000000000000000000000000000000e
:0936bc0000000000000000000005
:2036c5000000000000000000000000000000000000000000000000000000000000000000e5
:0a36e50000000000000000000000db
:2036ef000000000000000000000000000000000000000000000000000000000000000000bb
:09370f00000000000000000000b1
:20371800000020000000000000000000000000000000000008000000000000000000000069
:0a3738000000000000000000000087
:20374200000000000000000000000000000000000000000000000000000000000000000067
:093762000000000000000000005e
:20376b0000000000000000000000000000000000000000000000000000000000000000003e
:0a378b000000000000000000000034
:20379500000000000000000000000000000000000000000000000000000000000000000014
:0937b5000000000000000000000b
:2037be000000000000000000000000000000000000000000000000000000000000000000eb
:0a37de0000000000000000000000e1
:2037e8000001000000000000000000000000000000000000000000000000000000000000c0
:09380800000000000000000000b7
:20381100000000000000000030000000000000000000000000000000000000000000000067
:0a3831000000000000000000180075
:20383b0000000000000000000000000000000000000000000000000000000000000000006d
:09385b0000000000000000000064
:20386400000024000000000000000000000000000000000000000000000000000000000020
:0a388400000000000000000000003a
:20388e0000000000000000000000000000000000000000000000000000000000000000001a
:0938ae0000000000000000000011
:2038b7000000000000000000000000000000000000000000000000000000000000000000f1
:0a38d70000000000000000000000e7
:2038e1000000000000000000000000000000000000000000000000000000000000000000c7
:09390100000000000000000000bd
:20390a00080000000000000000000000000000000000000000000000000000000000000095
:0a392a000000000000000000000093
:20393400000000000000000000000000000000000000000000000000000000000000000073
:093954000000000000000000006a
:20395d0000000000000000000000000000000000000000000000000000000000000000004a
:0a397d000000000000000000000040
:20398700000000000000000000000000000000000000000000000000000000000000000020
:0939a70000000000000002000015
:2039b0000000200000000000000000000000000000000000000000000000000000000000d7
:0a39d00000000000000000000000ed
:2039da000000000000000000000000000000000000000000000000000000000000000000cd
:0939fa00000000000000000000c4
:203a030008000000000000000000000000000000000000000000000000000000000000009b
:0a3a23000000000000000000000099
:203a2d00000000000000000000000000000000000000000000000000000000000000000079
:093a4d0000000000000000000070
:203a5600000000000000000000000000000000000000000000000000000000000000000050
:0a3a76000000000000000000000046
:203a8000000300000000000000000000000000000000000000000000000000000000000023
:093aa00000000000000000080015
:203aa9000000000000000000000000000000000000000000000000000000000000000000fd
:0a3ac90000000000000000000000f3
:203ad3000000000000000000000000000000000000000000000000000000000000000000d3
:093af300000000000000000000ca
:203afc0000002000000000000000000000000000000000000000000000000000000000008a
:0a3b1c00000000000000000000009f
:203b260000000000000000000000000000000000000000000000000000000000000000007f
:093b460000000000000000020074
:203b4f00000000000000000000000000000000000000000000000000000000000000000056
:0a3b6f00000000000000000040000c
:203b790000000000000000000000000000000000000000000000000000000000000000002c
:093b990000000000000000000023
:203ba200000000000000000000000000000000000000000000000000000000000000000003
:0a3bc20000000000000000000000f9
:203bcc000000000000000000000000000000000000000000000000000000000000000000d9
:093bec00000000000000000000d0
:203bf5000000000000000000000000000000000000000000000000000000000000000000b0
:0a3c150000000000000000000000a5
:203c1f0000000000000000000000000000000000000000000000002dd00000000100860001
:093c3f006800000002dc00000036
:203c4800000020000000000000000000000000000000000008000103ca10000000000f0047
:0a3c6800000000001037e700000024
:203c72000000000000000000000000000000000000000000001028dca01a001001691000da
:093c9200780001028cea780001bf
:203c9b0040000000000000000000000000000000000000002000028c100000014009610060
:0a3cbb000400000028c10000001002
:203cc50000000000000000000000000000000000000000000000141ca18900080169900083
:093ce500000000000000180000be
:203cee00800000000000000000000000000000000000000000002181cb00800088096d004b
:0a3d0e0000000000000000000008a3
:203d180000030000000000000000000000000000000000000000802df01b00000169101442
:093d38000000000883cf7801d2dd
:203d41000000000000000000000000000000000000000000500001004d00800000096b00d0
:0a3d610020000000002e900080807a
:203d6b0000000000000000000000000000000000000000000000802ec01d0000016990149f
:093d8b00680004080bfcf01400b0
:203d9400000020000000000000000000000000000000000000000103cdd0c00000096b001a
:0a3db400200000000037f50b0800a6
:203dbe0000000000000000000000000000000000000000000000000df79c000001691000cb
:093dde000000020083dd701000fa
:203de700000000000000000000000000000000000000000000000010fc0000000009630341
:0a3e070040000000002f950d0000a0
:203e11000000000000000000000000000000000000000000009022d6051e0000016910006c
:093e310028000000000071a0004f
:203e3a0000000000000000000000000000000000000000000000011c0e0880000009670045
:0a3e5a00000000000000000000401e
:203e640000000000000000000000000000000000000000000000801df79c0000010f178e59
:093e84002800000883cd000000b5
:203e8d00000000000000000000000000000000000000000000020020ed000000000f0000f7
:0a3ead0020000000002f9500000027
:203eb70040000000000000000000000000000000000000000001002fd80100000169100028
:093ed7002800000002cc000000ec
:203ee0000000200000000000000000000000000000000000000000205d10a00002096f00fb
:0a3f000004000000101daf00800057
:203f0a000000000000000000000000000000000000000000001028cc80010014010f13b427
:093f2a000000000000000010017d
:203f330048000000000000000000000000000000000000000000028c3000d001400f000246
:0a3f530062c0000000000d09181004
:203f5d004000000000000000000000000000000000000028000080afd180000c0169900056
:093f7d000400000002cc188000d1
:203f8600800000000000000000000000000000000000000100004002d8000000800969008e
:0a3fa60002800000101db09000081a
:203fb000000100000000000000000000000000000000000000008827f000000001691000d7
:093fd000000001128c7c001c00b1
:203fd900000000000000000030000000000000000000000000000002dc0000000009610050
:0a3ff9000000000028c200090000cb
:2040030000000000000000000000000000000000000000000000002fd000000001699000a4
:094023000000000808ec50b10097
:20402c000000240000000000000000000000000000000000000000205ff000000009610077
:0a404c00000000000034f09d100099
:204056000000000000000000000000000000000000000000001028ccaf1e000081699000ff
:0940760000000000007e18b000fb
:20407f0000000000000000000000000000000000000000000000228c309800000009690336
:0a409f0042c00000010cd018000020
:2040a90000000000000000000000000000000000000000000000808fd008000000aa105402
:0940c900280001022ce150a000c6
:2040d2000800000000000000000000000000000000000000000000005801000000055030e8
:0a40f2000000000011c290900000d1
:2040fc000000000000000000000000000000000000000000000008269180000004a33f86f9
:09411c000280000803cf00a0009e
:20412500000000000000000000000000000000000000000000000002cc080000000a35c0a5
:0a414500201000001015c01000004b
:20414f00000000000000000000000000000000000000001800000026a00041000002979404
:09416f000000040aa94079a00037
:20417800000020000000000000000000000000000000000208000103fef009c0000009f445
:0a419800000000801540c78e0000f3
:2041a2000000000000000000500000000000000000000020001128ce0700011040a37060bb
:0941c200280040097cce81a01503
:2041cb0008000000000000000000000000000000000000010000014c0f0808014005302fba
:0a41eb004280052017c007090010ec
:2041f50000000000000000000000000000000000000000000000808f8008a00c401076ced3
:094215007805200000000010c033
:20421e00000000000000000000000000000000000000000000000001f9f10400c080002c25
:0a423e000400230000000008000047
:2042480000020000000000000000000000000000000000100000294fb500000000009b0676
:09426800040004100cd8000080d1
:204271000000000000000000000000000000000000000000400021541b50010000008f7c01
:0a429100428050240094c000000099
:20429b0000000000000000000000000000000000000000000000000000000400448b3820d8
:0942bb0000000002945e00d00036
:2042c400000020000000000000000000000000000000000000000000000000000004703b0b
:0a42e400c00000002a829f190000ac
:2042ee004000000000000000000000000000000000000000600000000781000002009b00eb
:09430e006000020014ce00000062
:204317000000000000000000000000000000000000000000040000000008e00000008f7c8f
:0a433700000000060141090000002b
:204341000000000000000000000000000000000000000000000000000f98000006029fa06e
:09436100380003000c691980000a
:20436a0008000000000000000000000000000000000000000500000000190000000009758f
:0a438a00c7c0002710c0d08000005b
:204394004000000000000000000000000000000000000000000000000780000000057bf4ce
:0943b4000000010148d9001000cd
:2043bd00000000000000000000000000000000000000000010000000000800000005f0bb18
:0a43dd00e3c000000403f90b000028
:2043e7000000000000000000000000000000000000000000000000000000000000000014a2
:094407000600000b1468101000ff
:2044100000002000000000000000000000000000000000000000000000000000000000006c
:0a44300063d00000b00fe00d0000a3
:20443a000000000000000000000000000000000000000000400000000000001400253a149b
:09445a000000400097cc5802015b
:204463000000000000000000000000000000000000000000000000000000000100015bfce0
:0a4483002000040409a49000581062
:20448d0000000000000000000000000000000000000000000000802ed000000c02081f005c
:0944ad00000030000000000400d2
:2044b6000000000000000000000000000000000000000000000021014f000000c82087c046
:0a44d60000000300000000002000b9
:2044e000000300000000000000000000000000000000000000000000000c000000000000ad
:0945000060000000000001c4008d
:20450900000000000000000000000000000000000000000000000000000100000000000091
:0a4529000000000000000010000078
:2045330000000000000000000000000000000000000000000000800ed00f000000e5b2461e
:0945530000000000000018140033
:20455c00000020000000000000000000000000000000000000001041cf00e000000805f41e
:0a457c00200000000000008820006d
:20458600000000000000000000000000000000000000000000000000001c0000064203dcd2
:0945a6000000000000000000000c
:2045af0000000000000000000000000000000000000000000000000000010000002009368c
:0a45cf006000000000000000000082
:2045d900000000000000000000000000000000000000000000000000011e0000000000267d
:0945f900780000000000018000c0
:2046020000000000000000000000000000000000000000000000000000090000000000008f
:0a462200600000000000011000001d
:20462c0000000000000000000000000000000000000000000000000001004000000000002d
:09464c007000300009ee0180004d
:204655008000000000000000000000000000000000000000000000000008080000000000b5
:0a46750000000300003cd010000c10
:02467f00000039
:02468100110323
:02468300010133
:20468500000000000000000000000000000000000000000010000000000000000000000005
:0946a5000000000000000000000c
:2046ae000000000000000000000000000000000000000000000000000000000000000000ec
:0a46ce0000000000000000000000e2
:2046d800000000000000000000000000000000000000000020000000000000800000000022
:0946f800000200000000000000b7
:20470100000000000000000000000000000000000000000000000000000000000000000098
:0a472100000000000000000000008e
:20472b0000000000000000000000000000000000040000001000000000000000000000005a
:09474b0000000000000000000065
:204754000000000000000000000000000000000000800000000000000000000000000000c5
:0a477400000000000000000000003b
:20477e000000000000080000000000000000000000000d0000000000200000000000008066
:09479e0000000000000200000010
:2047a7000000000000000000000000000000000000000010000000000000000000000000e2
:0a47c70000000000000000000000e8
:2047d10000000000000c00000000000030000000000c00000000000030000000000000c090
:0947f100000000000003000000bc
:2047fa0000000000000000000000000000000000000000000000000000000000000000009f
:0a481a000000000000000000000094
:20482400000000000000000000000000000000000000000000000000000000000000000074
:094844000000000000000000006b
:20484d0000000000000000000000000000000000000000000000000000000000000000004b
:0a486d000000000000000000000041
:204877000000000000000000000000000000008000000000000000000000000000000000a1
:0948970000000000000000000018
:2048a0000000000000000000000000000000000800000000020000000020000800000000c6
:0a48c000000020000000000000804e
:2048ca000000000000080000000000002800000000080000000000002000000000000080f6
:0948ea00000000000002000000c3
:2048f300000000000020000000000000000000000000000000000000000000000000020083
:0a491300000000000000000000009a
:20491d0000000000000000000000000000000000000000000000000000000000000000007a
:09493d0000000000000000000071
:20494600000000000000000000000000000000000000000000000000000000000000000051
:0a4966000000000000000000000047
:20497000000000000000000000000000000000000000000000000000000000000000000027
:094990000000000000000000001e
:204999000000000000000000000000000000000000000000000000000000000000000000fe
:0a49b90000000000000000000000f4
:2049c3000000000000000000000000000000000000000000000000000000000000000000d4
:0949e300000000000000000000cb
:2049ec000000000000000000000000000000000000000000000000000000000000000000ab
:0a4a0c0000000000000000000000a0
:204a160000020000000000000000000000000000000000000000000000000000000000007e
:094a360000000000000000000077
:204a3f00000000000000000000000000000000000000000000000000000000000000000057
:0a4a5f00000000000000000000004d
:204a690000000000000000000000000000000000000000000000000000002000000000000d
:094a890000000000000000000024
:204a92000000300000000000000000000000000000000000000000000000040000000000d0
:0a4ab20000000000000000000000fa
:204abc000000000000000000000000000000000000000000000000000000000000000000da
:094adc00000000000000000000d1
:204ae5000000000000000000000000000000000000000000000000000000000000000000b1
:0a4b050000000000000000000000a6
:204b0f00000000000000000000000000000000000000000000000000000000000000000086
:094b2f000000000000000000007d
:204b380000000000000000000000000000000000000000000000000000000000000000005d
:0a4b58000000000000000000000053
:204b6200000200000000000000000000000000000000000000000000000000000000000031
:094b82000000000000000000002a
:204b8b0000000000000000000000000000000000000000000000000000000000000000000a
:0a4bab000000000000000000000000
:204bb5000000000000000000000000000000000000000000000000000000000000000000e0
:094bd500000000000000000000d7
:204bde000400000000000000000000000000000000000000000000000000000000000000b3
:0a4bfe0000000000000000000000ad
:204c080080000000000000000000000000000000000000000000000000000000000000000c
:094c280000000000000000000083
:204c3100000000000000000000000000000000000000000000000000000000000000000063
:0a4c51000000000000000000000059
:204c5b00080000000000000000000000000000000000000000000000000000000000000031
:094c7b0000000000000000000030
:204c840004000000000000000000000000000000000000000000000000000000000000000c
:0a4ca40000000000000000001000f6
:204cae000000000000000000000000000000000000000000000000000000000000000000e6
:094cce00000000000000000000dd
:204cd7000000000000000000000000000000000000000000000000000000000000000000bd
:0a4cf70000000000000000000000b3
:204d0100000000000000000000000000000000000000000000000000000000000000000092
:094d210000000000000000000089
:204d2a000000300000000000000000000000000000000000500000000000000000000000e9
:0a4d4a00000000000000000000005f
:204d54008000000000000000000000000000000000000000000000000000000000000000bf
:094d740000000000000000000036
:204d7d00000000000000000000000000000000000000000000000000000000000000000016
:0a4d9d00000000000000000000000c
:204da70080000000000000000000000000000000000000000000000000000000000000006c
:094dc700000000000000000000e3
:204dd0000000080000000000000000000000000000000000000000000000000000000000bb
:0a4df00000000000000000000000b9
:204dfa000043000000000000000000000000000000000000800000000000000000000000d6
:094e1a000000000000000000008f
:204e23000003800000000000000000000000000000000000100000000000000000000000dc
:0a4e43000000000000000000000065
:204e4d00000000000000000000000000000000000000000000000000000000000000000045
:094e6d000000000000000000003c
:204e760000000000000000000000000000000000000000000000000000000000000000001c
:0a4e96000000000000000000000012
:204ea000800000000000000000000000000000000000000000000000000000000000000072
:094ec000000000000000000000e9
:204ec9000000000000000000000000000000000000000000000000000000000000000000c9
:0a4ee90000000000000000000000bf
:204ef30000000000000000000000000000000000000000000000000000000000000000009f
:094f130000000000000000000095
:204f1c00000000000000000060000000000000000000000000000000000000000000000015
:0a4f3c00000000000000000000006b
:204f460080004000000000000000000000000000000000000000000000000000000000008b
:094f660000100000000000000032
:204f6f00000000000000000000000000000000000000000000000000000000000000000022
:0a4f8f000000000000000000000018
:204f99000000000000000000000000000000000000000000000000000000000000000000f8
:094fb900000000000000000000ef
:204fc2000000100000000000000000000000000000000000000000000000000000000000bf
:0a4fe20000000000000000000000c5
:204fec000000000000000000000000000000000000000000000000000000000000000000a5
:09500c000000000000000000009b
:2050150000000000000000000000000000000000000000000000000000000000000000007b
:0a5035000000000000000000000071
:20503f008000000000000000000000000000000000000000000000000000000000000000d1
:09505f0000000000000000000048
:20506800000000000000000000000000000000000000000000000000000000000000000028
:0a508800000000000000000000001e
:205092000000000000000000000000000000000000000000000000000000000000000000fe
:0950b200000000000000000000f5
:2050bb000000000000000000000000000000000000000000000000000000000000000000d5
:0a50db0000000000000000000000cb
:2050e50000300000000000000000000000000000000000000000000000000000000000007b
:0951050000000001526d000000e1
:20510e0004000000000000000000000000000000000000000000000000000000000000007d
:0a512e0000000001a93c90001400ed
:20513800800000000000028000000000000000000000000000000000000000000000000055
:095158000000000000000000004e
:2051610000000000000000000000000000000000000000000000000000000000000000002e
:0a518100000000000000078000009d
:20518b000c00000000000000000000000000000000000010000000000000000000000000e8
:0951ab0000000220281a00000097
:2051b40004c000000000000000000000000000000000000200000000000000000000000015
:0a51d40000000010a2d6f1800000d8
:2051de0000020000000003400000000000000000000000000000000000000000000000006c
:0951fe0000000000283000c1008f
:20520700000000000000000400000000000000000000000000000000000000000000000083
:0a522700000000000287c000000034
:205231000000000000000000000000000000000000000000000000000000000000f50a80de
:0952510000000000000000f00064
:20525a0000003000000000000000000000000000000000000000000000000000000fa581cf
:0a527a00e000000000000019000031
:20528400000000000001e00000000000000000000000000000000000000000000000000029
:0952a400300000000000f00000e1
:2052ad000000000000000c00000000000000000000000000000000000000000000000000d5
:0a52cd000040000000000000000097
:2052d7000000000000000000000000000000a0000000000000000000000000000000000017
:0952f700000000000000000001ad
:20530000000000000000000000000000000004000000000000000000000000000000000089
:0a53200000002000000005800014ca
:20532a00000200800d700000000000000000000000000000800000000000000000000000e4
:09534a0000000000001a00a000a0
:20535300000000000172800000000000000000000000000000000000000000000000000047
:0a537300000000020156b001000026
:20537d000000000000000000000000000000000000000000000000000f00000800000000f9
:09539d0038000003d42c080000c4
:2053a6000000000000000000000000000000000000000000000000000080000080000000e7
:0a53c600004000003e841580000046
:2053d000800000000000000000000000000000000000000000008003c7100000104fd2842e
:0953f00038000003025d1000000a
:2053f900000000000000000000000000000000000000000000001829df80e0000005f77a9e
:0a54190000400000392dc81e0000fd
:20542300000000000000000000000000000000000000000000000000000e000010a10f1487
:0954430000000011702038000087
:20544c0000000000000000000000000000000000000000000000000000001000040a25f20b
:0a546c0000000010170f8b880000ed
:205476000000000000000000000000000000000000000000000000000f00400000e702805e
:09549600400000008010b100008c
:20549f000000000000000000000000000000000000000000000000000000080004081004c5
:0a54bf0003800010080ca81800007c
:2054c9000000000000000000000000000000000000000000000000000000000000fed38072
:0954e90000000640003801b0008b
:2054f20000000000000000000000000000000000000000000000000000000000000ff52571
:0a551200e68000312007e71a1800b8
:20551c000000000000000000000000000000000000000010000000000000000800af029610
:09553c00280000000009700000c5
:2055450000000000000000000000000000000000000000028000000000000000c005f50703
:0a556500468000000147c81c00004a
:20556f00800000000000000000000000000000000000000000000000000c0014000000007c
:09558f0064000003004a50f00121
:20559800400000000000000000000000000000000000000000000000000000014000000072
:0a55b80006400000b156f81a00107a
:2055c20000000000000000000000000000000000000000000000000000000000003fda00b0
:0955e20038000a2007797002006c
:2055eb00000000000000000000000000000000000000000000000000000000000002ff643b
:0a560b0000000042002ef0184c00d1
:2056150000000000000000000000000000000000000000001000a8030080000c00d1da0281
:09563500200000000000008010bc
:20563e00c00000000000000000000000000000000000000000000a81de18000080481ff133
:0a565e00c04000000000000f000c27
:205668008000000000000000000000000000000000000000000022ecf080000000300242b0
:0956880030000000000000018068
:2056910000000000000000000000000000000000000000000000002a7a7000000447056530
:0a56b10040000000000007000000a8
:2056bb0000000000000000000000000000000000000000000000a8030910000000500b00b0
:0956db003c00000000000000008a
:2056e400000000000000000280000000000000000000000060000a81dc818000000a07014a
:0a57040063c0000000000000000078
:20570e00000200000000000000000000000000000000000000008140ff0f000000ca03c01d
:09572e0034000008142b000000f7
:20573700000000000000000000000000000000000000000000000828e0800000040c53015e
:0a575700e7800000829400000000cb
:2057610000000000000000000000000000000000000000000000394ea00800000000b25ceb
:095781004000000a80200098009d
:20578a00000030000000000000000000000000000000000000000203d900e000000105e02b
:0a57aa0006000001a81580010000b0
:2057b4000000000000000000000000000000000000000000000000000000008800a5024066
:0957d4002c00000097db98000096
:2057dd00c0000000000000000000000000000000000000003000000000000014c44e53f84b
:0a57fd000000000009968d00008cea
:205807008000000000000000000000000000000000000000000000000008001000000b944a
:095827002800000329fb00900198
:20583000000000000000000000000000000000000000000000000000000190014000a7b12e
:0a58500042c00000303ca00100102f
:20585a00000200000000000000000000000000000000000080000000000000000025ffd6b2
:09587a0000000000000000c01055
:2058830000000000000000000000000000000000000000000000000000000000000269f0aa
:0a58a3006700000000000181008092
:2058ad000000000000000000000000000000000000000000000000000000000800aa001415
:0958cd00000000000000000200d0
:2058d60080000000000000000000000000000000000000000000000000000000800aa120e7
:0a58f6000000000000000000000c9c
:2059000000000000000000000000000000000000000000000000396ce080000000f004345a
:09592000000000000000d100406d
:205929000000000000000000000000000000000000000000000002027c7080000010f17974
:0a594900400020000000018a000069
:205953000000000000000005000000000000000000000000000081428900000000f00400ef
:0959730001000000000070d08862
:20597c00000000000000000000000000000000000000000000000828e18180000010f138c0
:0a599c0000200000000000000100e0
:2059a60000020000000000000000000000000000000000000000396de91e000004f004003a
:0959c600400000014d7f30080093
:2059cf000000000000000000000000000000000000000000000002006c9990000010f138e8
:0a59ef000280000000fc8800c000e8
:2059f9000000000000000000000000000000000000000000000081428000000000f0040255
:095a19000000000900500100002a
:205a2200000030000000000000000000000000000000000000000828c10000000050f128da
:0a5a420060000000903dc018540001
:205a4c000000000000000000000000000000000000000000000000000000000c00f000023c
:095a6c00240000000000000010fd
:205a750080000000000000000000000000000000000000000000000000018000c010f1301f
:0a5a9500606850000000001c008c47
:205a9f0000000000000000000000000000000000000000000002a04c801f001008f004004e
:095abf00000000000000010001dc
:205ac800400000000000000000000000000000000000000000002908010090014010f16812
:0a5ae800000000000000001800108c
:205af200000200000000000000000000000000000000000000002054e000000028f0000026
:095b12002c00000076df00000009
:205b1b000000000000000000000000000000000000000000000003886c0000000010f1284a
:0a5b3b00000000000146e3800000b6
:205b4500000000000000000000000000000000000000000000002176a000000d00f00014f8
:095b650028000000000000a180ee
:205b6e00c00000000000000000000000000000000000000000000117cf00e000c810f1289f
:0a5b8e00000000000000000f0008f6
:205b980000000000000000000000000000000000000000000001840ce010000000f0040078
:095bb80000000000000090000054
:205bc100000000000000000000000000000000000000000000000882e038a0001010f178f9
:0a5be10000000000000000000000ba
:205beb00000000000000000000000000000000000000000000000000001f000000f000008b
:095c0b002c000000000000a800bc
:205c1400000000000000000000000000000000000000000000000000000080000010f1717e
:0a5c3400c0000000000000010000a5
:205c3e00000200000000000000000000000000000000000000000000018b000000f00400c4
:095c5e002800000900f0b0d0009c
:205c670000000000000000000000000000000000000000000000000000d000000050f120ec
:0a5c870000000000902ce700000070
:205c91000000000000000000000000000000000000000000000028efa109000008f000003a
:095cb100000000014dda00800042
:205cba0000003000000000000000000000000000000000000000000dcd8000000010f160df
:0a5cda000028000000ff900f0000fa
:205ce40000000000000000000000000000000000000000000000a801c000000800f000003f
:095d040000500000000000000046
:205d0d00840000000000000000000000000000000000000000002800ed0080009010f17854
:0a5d2d000280000000000000100cce
:205d3700800000000000000000000000000000000000000000008000c000001400f0000088
:095d5700280000000000b001c1a9
:205d6000000000000000000000000000000000020000000000002828dd0000010050f13082
:0a5d800000014000000008000014bc
:205d8a0000020000000000000000000000000000000000008000388cf1000000400004007e
:095daa00000000000000000000f0
:205db30004000000000000000000000000000000000000000000020568018000001000715b
:0a5dd3006000000000000000000066
:025ddd000000c4
:035ddf0062003f20
:035de200720080cc
:025de5001100ab
:035de70082000037
:025dea000103b3
:085dec000000000000000000af
:085df4000000000000000000a7
:085dfc0000000000000000009f
:085e0400000000000000000096
:0261ec000000b1
:0361ee00820080ac
:0261f1000103a8
:0861f3000000000000000000a4
:0861fb0000000000000000009c
:08620300000000000000000093
:08620b0000000000000000008b
:0265f3000000a6
:0265f500110192
:0365f7008200001f
:0265fa0001039b
:0865fc00000000000000000097
:0866040000000000000000008e
:08660c00000000000000000086
:0866140000000000000000007e
:0269fc00000099
:0369fe0082008094
:026a010001038f
:086a030000000000000000008b
:086a0b00000000000000000083
:086a130000000000000000007b
:086a1b00000000000000000073
:026e030000008d
:026e0500110278
:036e070082000006
:026e0a00010382
:086e0c0000000000000000007e
:086e1400000000000000000076
:086e1c0000000000000000006e
:086e2400000000000000000066
:02720c00000080
:03720e008200807b
:02721100010377
:08721300000000000000000073
:08721b0000000000000000006b
:08722300000000000000000063
:08722b0000000000000000005b
:02761300000075
:0276150011035f
:03761700820000ee
:02761a0001036a
:08761c00000000000000000066
:0876240000000000000000005e
:08762c00000000000000000056
:0876340000000000000000004e
:027a1c00000068
:037a1e0082008063
:027a210001035f
:087a230000000000000000005b
:087a2b00000000000000000053
:087a330000000000000000004b
:087a3b00000000000000000043
:027e230000005d
:017e2500223a
:027e2600c91f72
:027e2800010651
:00000001FF
