:02000000ff00ff
:080002004c6174746963650030
:17000a00694345637562653220323032302e31322e32373934330071
:15002100506172743a2069434534304c50314b2d514e38340034
:1b003600446174653a204a756e20313420323032322030393a32363a3239006f
:0200510000ffae
:040053007eaa997e6a
:02005700510056
:0200590001059f
:03005b0092000010
:03005e0062014bf1
:030061007200909a
:0300640082000017
:02006700110086
:02006900010193
:20006b00000000000000000000000000000000000000000000000000000000000000000075
:09008b00000000800000000000ec
:2000940000000000000000000000000000000000000000000000000000000000000000004c
:0a00b4000000000000000000000042
:2000be00000000000000000000000000000000000000000000000000000000001000000012
:0900de00000000400b00000000ce
:2000e7000000000000000000000000000000000000000000000000000000000000000000f9
:0a01070000000000000000000000ee
:200111000000000000000000000000000000000000000000000000000000000000000000ce
:0901310000000080000003000042
:20013a000000000000000000000000000000000000000000000000000000000000000000a5
:0a015a00000000000000001000008b
:200164000000000000040000000000001000000000000040000000001000000000000040d7
:0901840000000000000100000071
:20018d00000000000000000000000000000000000000000000000000000000000000000052
:0a01ad000000000000000000000048
:2001b70000000000000c00000000000030000000000000c00000000030000000000000c03c
:0901d7000000000000020000001d
:2001e0000000000000000000000000000000000000000000000000000000000000000000ff
:0a02000000000000000000000000f4
:20020a000000000000000000000000000000000000000000000000000000000000000000d4
:09022a00000000000000000000cb
:200233000000000000000000000000000000000000000000000000000000000000000000ab
:0a02530000000000000000000000a1
:20025d00000000000000000000000000000000000000000000000000000000000000000081
:09027d0000000000000000000078
:20028600000000000000000000000000000000000000000000004000000000000100000017
:0a02a600000000040000000000004a
:2002b00000000000000400000000000010000000000000400000000010000000000000408a
:0902d00000000000000100000024
:2002d900000000000000000000000000000000000000000000000000000000000000000005
:0a02f90000000000000000000000fb
:200303000000000000000000000000000000000000000000000000000000000000000000da
:09032300000000000000000000d1
:20032c00000020000000000000000000000000000040000000000000000000000000000051
:0a034c0000000000000000000000a7
:20035600000000000000000000000000000000000000000000000000000000000000000087
:090376000000000000000000007e
:20037f0000000000000000000000000000000000000000000000000000000000000000005e
:0a039f000000000000000000000054
:2003a900000000000000000000000000000000000000000000000000000000000000000034
:0903c9000000000000000000002b
:2003d20000000000000000000000000000000000000000000000000000000000000000000b
:0a03f2000000000000000000000001
:2003fc000003000000000000000000000000000000000000000000000000000000000000de
:09041c00000000000000000000d7
:200425000000000000000000000000000000000000000000000000000000000000000000b7
:0a04450000000000000000000000ad
:20044f0000000000000000000000000000000000000000000000000000000000000000008d
:09046f0000000000000000000084
:20047800000020000000000000000000000000000000000000000000000000000000000044
:0a049800000000000000000000005a
:2004a20000000000000000000000000000000000000000000000000000000000000000003a
:0904c20000000000000000000031
:2004cb00000000000000000000000000000000000000000000000000000000000000000011
:0a04eb000000000000000000000007
:2004f5000000000000000000000000000000000000000000000000000000000000000000e7
:09051500000000000000000000dd
:20051e000000000000000000000000000000000000000000000000000000000000000000bd
:0a053e0000000000000000000000b3
:20054800000000000000000000000000000000000000000000000000000000000000000093
:090568000000000000000000008a
:2005710000000000000000000000000000000000000000000000000000000000000000006a
:0a0591000000000000000000000060
:20059b00400000000000000000000000000000000000000000000000000000000000000000
:0905bb0000000000000000000037
:2005c4000000200000000000000000000000000000000000000000000000000000000000f7
:0a05e400000000000000000000000d
:2005ee000000000000000000000000000000000000000000000000000000000040000000ad
:09060e00000000000000000000e3
:200617000800000000000000000000000000000000000000000000000000000000000000bb
:0a06370000000000000000000000b9
:200641004c000000000000000000000000000000000000000000000000000000000000004d
:0906610000000000000000000090
:20066a0000c0000000000000000000000000000000000000000000000000000000000000b0
:0a068a000000000000000000000066
:20069400000300000000000000000000000000000000000000000000000000000000000043
:0906b4000000000000000000003d
:2006bd0000000000000000000000000000000000000000000000000000000000000000001d
:0a06dd000000000000000000000013
:2006e7000000000000000000000000000000000000000000000000000000000000000000f3
:09070700000000000000000000e9
:200710000000200000000000000000000000000000000000000000000000000000000000a9
:0a07300000000000000000000000bf
:20073a0000000000000000000000000000000000000000000000000000000000000000009f
:09075a0000000000000000000096
:20076300000000000000000000000000000000000000000000000000000000000000000076
:0a078300000000000000000000006c
:20078d0000000000000000000000000000000000000000000000000000000000000000004c
:0907ad0000000000000000000043
:2007b600000000000000000000000000000000000000000000000000000000000000000023
:0a07d6000000000000000000000019
:2007e0000030000000000000000000000000000000000000000000000000000000000000c9
:09080000000000000000000000ef
:200809000000000000000000000000000000000000000000000000000000000000000000cf
:0a08290000000000000000000000c5
:200833000000000000000000000000000000000000000000000000000000000000000000a5
:090853000000000000000000009c
:20085c0000002000000000000000000000000000004000000000000000000000000000001c
:0a087c000000000000000000000072
:20088600000000000000000000000000000000000000000000000000000000000000000052
:0908a60000000000000000000049
:2008af00080000000000000000000000000000000000000000000000000000000000000021
:0a08cf00000000000000000000001f
:2008d9000000000000000000000000000000000000000000000000000000000000000000ff
:0908f900000000000000000000f6
:200902000000000000000000000000000000000000000000000000000000000000000000d5
:0a09220000000000000000000000cb
:20092c000003000000000000000000000000000000000000000000000000000000000000a8
:09094c00000000000000000000a2
:20095500000000000000000000000000000000000000000000000000000000000000000082
:0a0975000000000000000000000078
:20097f00000000000000000000000000000000000000000000000000000000000000000058
:09099f000000000000000000004f
:2009a80000002000000000000000000000000000000000000000000000000000000000000f
:0a09c8000000000000000000000025
:2009d200000000000000000000000000000000000000000000000000000000000000000005
:0909f200000000000000000000fc
:2009fb000000000000000000000000000000000000000000000000000000000000000000dc
:0a0a1b0000000000000000000000d1
:200a25000000000000000000000000000000000000000000000000000000000000000000b1
:090a4500000000000000000000a8
:200a4e00000000000000000000000000000000000000000000000000000000000000000088
:0a0a6e00000000000000000000007e
:200a780000000000000000000000000000000000000000000000000000000000000000005e
:090a980000000000000000000055
:200aa100000000000000000000000000000000000000000000000000000000000000000035
:0a0ac100000000000000000000002b
:200acb0000000000000000000000000000000000000000000000000000000000000000000b
:090aeb0000000000000000000002
:200af4000000200000000000000000000000000000000000000000000000000000000000c2
:0a0b140000000000000000000000d7
:200b1e000000000000000000000000000000000000000000000000000000000000000000b7
:090b3e00000000000000000000ae
:200b4700080000000000000000000000000000000000000000000000000000000000000086
:0a0b67000000000000000000000084
:200b7100000000000000000000000000000000000000000000000000000000000000000064
:090b91000000000000000000005b
:200b9a0000000000000000000000000000000000000000000000000000000000000000003b
:0a0bba000000000000000000000031
:200bc40000030000000000000000000000000000000000000000000000000000000000000e
:090be40000000000000000000008
:200bed000000000000000000000000000000000000000000000000000000000000000000e8
:0a0c0d0000000000000000000000dd
:200c17000000000000000000000000000000000000000000000000000000000000000000bd
:090c3700000000000000000000b4
:200c4000000020000000000000000000000000000000000000000000000000000000000074
:0a0c6000000000000000000000008a
:200c6a0000000000000000000000000000000000000000000000000000000000000000006a
:090c8a0000000000000000000061
:200c9300000000000000000000000000000000000000000000000000000000000000000041
:0a0cb3000000000000000000000037
:200cbd00000000000000000000000000000000000000000000000000000000000000000017
:090cdd000000000000000000000e
:200ce6000000000000000000000000000000000000000000000000000000000000000000ee
:0a0d060000000000000000000000e3
:200d10000000000000000000000000000000000000000000000000000000000000000000c3
:090d3000000000000000000000ba
:200d390000000000000000000000000000000000000000000000000000000000000000009a
:0a0d59000000000000000000000090
:200d6300006800000000000000000000000000000000000000000000000000000000000008
:090d830000000000000000000067
:200d8c000800000000000000000000000000000000400000000000000000000000000000ff
:0a0dac00000000000000000000003d
:200db60000000000000000000000000000000000000000000000000000000000000000001d
:090dd60000000000000000000014
:200ddf000800000000000000000000000000000000000000000000000000000000000000ec
:0a0dff0000000000000000000000ea
:200e09000000000000000000000000000000000000000000000000000000000000000000c9
:090e2900000002000000000000be
:200e32000000000000000000000000000000000000000000000000000000000000000000a0
:0a0e52000000000000000000000096
:200e5c00000100000000000000000000000000000000000000000000000000000000000075
:090e7c000000000000000000006d
:200e850000000000000000000000000000000000000000000000000000000000000000004d
:0a0ea5000000000000000000000043
:200eaf00000000000000000000000000000000000000000000000000000000000000000023
:090ecf000000000000000000001a
:200ed8000000200000000000000000000000000000000000000000000000000000000000da
:0a0ef80000000000000000000000f0
:200f020040000000000000000000000000000000000000000000000000000000000000008f
:090f2200000000000000000000c6
:200f2b00008000000000000000000000000000000000000000000000000000000000000026
:0a0f4b00000000000000000000009c
:200f550000000000000000000000000000000000000000000000000000000000000000007c
:090f750000000000000000000073
:200f7e0008000000000000000000000000000000000000000000000000000000000000004b
:0a0f9e000000000000000000000049
:200fa8004000000000000000000000000000000000000000000000000000000000000000e9
:090fc80000000000000000000020
:200fd100000000000000000000000000000000000000000000000000000000000000000000
:0a0ff10000000000000000000000f6
:200ffb000000000000000000000000000000000000000000000000000000000000000000d6
:09101b00000000000000000000cc
:2010240000002000000000000000000000000000000000000000000000000000000000008c
:0a10440000000000000000000000a2
:20104e00000000000000000000000000000000000000000000000000000000000000000082
:09106e0000000000000000000079
:20107700000000000000000000000000000000000000000000000000000000000000000059
:0a109700000000000000000000004f
:2010a10000000000000000000000000000000000000000000000000000000000000000002f
:0910c10000000000000000000026
:2010ca00000000000000000000000000000000000000000000000000000000000000000006
:0a10ea0000000000000000000000fc
:2010f4000003000000000000000000000000000000000000000000000000000000000000d9
:09111400000000000000000000d2
:20111d000000000000000000000000000000000000000000000000000000000000000000b2
:0a113d0000000000000000000000a8
:20114700000000000000000000000000000000000000000000000000000000000000000088
:091167000000000000000000007f
:2011700000002000000000000000000000000000000000000000000000000000000000003f
:0a1190000000000000000000000055
:20119a00000000000000000000000000000000000000000000000000000000000000000035
:0911ba000000000000000000002c
:2011c30000000000000000000000000000000000000000000000000000000000000000000c
:0a11e3000000000000000000000002
:2011ed000000000000000000000000000000000000000000000000000000000000000000e2
:09120d00000000000000000000d8
:201216000000000000000000000000000000000000000000000000000000000000000000b8
:0a12360000000000000000000000ae
:2012400000000000000000000000000000000000000000000000000000000000000000008e
:0912600000000000000000000085
:20126900000000000000000000000000000000000000000000000000000000000000000065
:0a128900000000000000000000005b
:2012930000000000000000000000000000000000000000000000000000000000000000003b
:0912b30000000000000000000032
:2012bc000000200000000000000000000000000000400000000000000000000000000000b2
:0a12dc000000000000000000000008
:2012e6000000000000000000000000000000000000000000000000000000000000000000e8
:09130600000000000000000000de
:20130f000100000000000000000000000000000000000000000000000000000000000000bd
:0a132f0000000000000000000000b4
:20133900000000000000000000000000000000000000000000000000000000000000000094
:091359000000000000000000008b
:2013620000000000000000000000000000000000000000000000000000000000000000006b
:0a1382000000000000000000000061
:20138c0000030000000000000000000000000000000000000000000000000000000000003e
:0913ac0000000000000000000038
:2013b500000000000000000000000000000000000000000000000000000000000000000018
:0a13d500000000000000000000000e
:2013df000000000000000000000000000000000000000000000000000000000000000000ee
:0913ff000000000000021ca00027
:20140800800020000000000000000000000000000000000000000000000000000000000024
:0a1428000000000000000d050000a8
:2014320000000000000000000000000000000000000000000000000000000000000000009a
:0914520000000000203000000041
:20145b00000000000000000000000000000000000000000000000000000000000000000071
:0a147b000000000000c000000000a7
:20148500000000000000000000000000000000000000000000000000000000000000000047
:0914a5000000000000000000003e
:2014ae0000000000000000000000000000000000000000000000000000000000000000001e
:0a14ce000000000000000000000014
:2014d8000000000000000000000000000000000000000000000000000000000000000000f4
:0914f800000000000000000000eb
:201501000000000000000000000000000000000000000000000000000000000000000000ca
:0a15210000000000000000000000c0
:20152b00400000000000000000000000000000000000000000000000000000000000000060
:09154b003fc80000000000000090
:20155400000020000000000000000000000000000000000000000000000000000000000057
:0a15740003fc01000000000000006d
:20157e0000000000000000000000000000000000000000000000000000000000000000004d
:09159e0000000000000000000044
:2015a70008000000000000000000000000000000000000000000000000000000000000001c
:0a15c700000000000000000000001a
:2015d1004000000000000000000000000000000000000000000000000000000000000000ba
:0915f100000000000000000000f1
:2015fa000000000000000000000000000000000000000000000000000000000000000000d1
:0a161a0000000000000000000000c6
:201624000003000000000000000000000000000000000000000000000000000000000000a3
:091644000000000000000000009d
:20164d0000000000000000000000000000000000000000000000000000000000000000007d
:0a166d000000000000000000000073
:20167700000000000000000000000000000000000000000000000000000000000000000053
:091697000000000000000000004a
:2016a00000002000000000000000000000000000000000000000000000000000000000000a
:0a16c0000000000000000000000020
:2016ca00000000000000000000000000000000000000000000000000000000000000000000
:0916ea00000000000000000000f7
:2016f3000000000000000000000000000000000000000000000000000000000000000000d7
:0a17130000000000000000000000cc
:20171d000000000000000000000000000000000000000000000000000000000000000000ac
:09173d00000000000000000000a3
:2017460008000000000000000000000000000000000000000000000000000000000000007b
:0a1766000000000000000000000079
:20177000000000000000000000000000000000000000000000000000000000000000000059
:0917900000000000000000000050
:20179900000000000000000000000000000000000000000000000000000000000000000030
:0a17b9000000000000000000000026
:0217c300000024
:0217c500110110
:0217c70001011e
:2017c9000000020020000000000800000000000020000000000000000000000000000000b6
:0917e900000000000000000000f7
:2017f200000000000340000000000000000000000000000000000000000000000000000094
:0a18120000000000000000000000cc
:20181c00000001000000000000040000000000001000000000040000000000000000000093
:09183c00000000000000000000a3
:20184500000000000000000000000000000000000000000000000000000000000000000083
:0a1865000000000000000000000079
:20186f000000020000000c0000080000000000002000000000000000000000000000000023
:09188f0000000000000000000050
:2018980000000000000000c00000000000000000000000000400000000000000000000006c
:0a18b8000000000000000000000026
:2018c20000000000000400000000000010000000000000400004000010000000000000405e
:0918e200000000000001000000fc
:2018eb000000000000000000000000000000000000000000000000000000000000000000dd
:0a190b0000000000000000000000d2
:2019150000000000000c00000000000030000000000000c00000000020000000000000c0d6
:09193500000000000003000000a6
:20193e00000000000000000000000000000000000000000000000000000000000000000089
:0a195e00000000000000000000007f
:2019680000000000000000000000000000000000000000000000000000000000000000005f
:0919880000000000000000000056
:20199100000000000000000000000000000000000000000000000000000000000000000036
:0a19b100000000000000000000002c
:2019bb0000000000000000000000000000000000000000000000000000000000000000000c
:0919db0080000000000000000083
:2019e4000000000000000000000000000000000001000000000040000000000001000000a1
:0a1a040000000004000000000000d4
:201a0e00000000000004000000000000100000000000004000000000100000000000004014
:091a2e00000000000001000000ae
:201a3700000000000000000000000000000000000000160000000000000000000000000079
:0a1a57000000000000000000000085
:201a6100000000000000000000000000000000000000000000000000000000000000000065
:091a81000000000000000000005c
:201a8a0000000000000000000000000000000000000000000000000000000000000000003c
:0a1aaa000000000000000000000032
:201ab400000000000000000000000000000000000000000000000000000000000000000012
:091ad40000000000000000000009
:201add000000000000000000000000000000000000000000000000000000000000000000e9
:0a1afd0000000000000000000000df
:201b07000000000000000000000000000000000000000000000000000000000000000000be
:091b2700000000000000000000b5
:201b3000000000000000000000000000000000000000000000000000000000000000000095
:0a1b5000000000000000000000008b
:201b5a00000200000000000000000000000000000000000000000000000000000000000069
:091b7a0000000000000000000062
:201b8300000000000000000000000000000000000000000000000000000000000000000042
:0a1ba3000000000000000000000038
:201bad00000000000000000000000000000000000000000000000000000000000000000018
:091bcd000000000000000000000f
:201bd6000000300000000000000000000000000000000000000000000000000000000000bf
:0a1bf60000000000000000000000e5
:201c00000000000000000000000000000000000000000000000000000000000000000000c4
:091c2000000000000000000000bb
:201c290000000000000000000000000000000000000000000000000000000000000000009b
:0a1c49000000000000000000000091
:201c5300000000000000000000000000000000000000000000000000000000000000000071
:091c730000000000000000000068
:201c7c00000000000000000000000000000000000000000000000000000000000000000048
:0a1c9c00000000000000000000003e
:201ca60000020000000000000000000000000000000000000000000000000000000000001c
:091cc60000000000000000000015
:201ccf000000000000000000000000000000000000000000000000000000000000000000f5
:0a1cef0000000000000000000000eb
:201cf9000000000000000000000000000000000000000000000000000000000000000000cb
:091d1900000000000000000000c1
:201d22000000000000000000000000000000000000000000000000000000000000000000a1
:0a1d42000000000000000000000097
:201d4c00000000000000000000000000000000000000000000000000000000000000000077
:091d6c000000000000000000006e
:201d750000000000000000000000000000000000000000000000000000000000000000004e
:0a1d95000000000000000000000044
:201d9f000000000000000000000000000000000000000000000000000000000002800000a2
:091dbf000000000000000000001b
:201dc8000000000000000000000000000000000000000000000000000000000000000000fb
:0a1de80000000000000000000000f1
:201df2000002000000000000000000000000000000000000000000000000000000000000cf
:091e1200000000000000000000c7
:201e1b000000000000000000000000000000000000000000000000000000000000000000a7
:0a1e3b00000000000000000000009d
:201e450000000000000000000000000000000000000000000000000000000000000000007d
:091e650000000000000000000074
:201e6e00000030000000000000000000000000000000000000000000000000000000000024
:0a1e8e00000000000000000000004a
:201e980000000000000000000000000000000000000000000000000000000000000000002a
:091eb80000000000000000000021
:201ec100000000000000000000000000000000000000000000000000000000000000000001
:0a1ee10000000000000000000000f7
:201eeb000000000000000000000000000000000000000000000000000000000000000000d7
:091f0b00000000000000000000cd
:201f14000000000000000000000000000000000000000000000000000000000000000000ad
:0a1f340000000000000000000000a3
:201f3e0000020000000000000000000000000000040000000000000000000000000000007d
:091f5e000000000000000000007a
:201f670000000000000000000000000000000000000000000000000000000000003000002a
:0a1f87000000000000000000000050
:201f9100000000000000000000000000000000000000000000000000000000000000000030
:091fb10000000000000000000027
:201fba00000000000000000000000000000000000000000000000000000000000000000007
:0a1fda0000000000000000000000fd
:201fe40000400000000000000000000000000000000000000000000000000000000000009d
:09200400000000000000000000d3
:20200d00000280000000000000000000000000000000000000000000000000000000000031
:0a202d0000000000000000000000a9
:20203700000000000000000000000000000000000000000000000000000000000000000089
:0920570000000000000000000080
:20206000000000000000000000000000000000000000000000000000000000000000000060
:0a2080000000000000000000000056
:20208a00000200000000000000000000000000000000000000000000000000000000000034
:0920aa000000000000000000002d
:2020b30000000000000000000000000000000000000000000000000100000000000000000c
:0a20d3000000000000000000000003
:2020dd000000000000000000000000000000000000000000000000000000000000000000e3
:0920fd00000000000000000000da
:20210600000030000000000000000000000000000000000000000000000000000000000089
:0a21260000000000000000000000af
:20213000080000000000000000000000000000000000000000000000000000000000000087
:0921500000000000000000000086
:2021590004c0000000000000000000000000000000000000000000000000000000000000a2
:0a217900000000000000000000005c
:202183008000000000000000000000000000000000000000000000000000000000000000bc
:0921a30000000000000000000033
:2021ac00000000000000000000000000000000000000000000000000000000000000000013
:0a21cc000000000000000000000009
:2021d6000002000000000000000000000000000000000000000000000000000010000000d7
:0921f600000000000000000000e0
:2021ff000400000000000000000000000000000000000000000000000000000000000000bc
:0a221f0000000000000000000000b5
:20222900000000000000c280000000000000000000000000000002c0000000000000000091
:0922490000000c0002000000007e
:2022520000000000000012a800200000000000000000000000000000000000000000000092
:0a227200000000c001c000000000e1
:20227c008800000000000000000000000000000000000000000000000000000000000000ba
:09229c0000000000040000000035
:2022a500000000000000000000000000000000000000000000000000000000000000000019
:0a22c500000000000000000000000f
:2022cf000000020000000000000000000000000000000000000000000000000000000000ed
:0922ef00000000000000000000e6
:2022f8000000001000000000000000000000000000000000000000000000000000000000b6
:0a23180000000000000000000000bb
:20232200000000000000000000000000000000000000000000000000240db00000000000ba
:092342000000004004000000004e
:20234b000000000000000000000000000000000000000000000000000000e7120000000079
:0a236b000000000000000000000068
:202375000000000000000000000000000000000000000000000000001c0501000000000026
:092395000000000000000000003f
:20239e000000200000000000000000000000000000000000000000000218a0000000000045
:0a23be000000000000000000000015
:2023c8000000000001000000000000000000000000000000000000000000000000000000f4
:0923e800000000000000000000ec
:2023f10000000000000e0000000000000000000000000000000000000000000000000000be
:0a2411000000000001400000000080
:20241b008000000000000000000000000000000000000000000002400000000000000000df
:09243b0000000200003de85340de
:20244400000000000000000000000000000000000000000000000000000000000000000078
:0a246400000000a0000006a03400f4
:20246e000000000000a0000000000000000000000400000000000002800000000000000028
:09248e0000000000000000000045
:20249700000000000001000000000000000000000000000000000000000000000000000024
:0a24b70000000000006000000000bb
:2024c1000000000000000000000000000000000000000000000000002c958000000100fcbd
:0924e100380000000000000000ba
:2024ea0000000000000000000000000000000000000000000000001c03db644000000187ac
:0a250a007945080000000000000001
:202514008000000000000000000000000000000000000000000000001d07a000000019d872
:092534001400000000000000008a
:20253d00000000000000000000000000000000000000000000000016001cb502800019c339
:0a255d00ebd40000000000000000b5
:202567000000400000000000000000000000000000000000000000401400000000010004bb
:092587000140000000000000000a
:2025900000000000000000000000000000000000000000000000002661f8a0000000818704
:0a25b00068140000000000000000a5
:2025ba000000000000000000000000000000000000000000000000021e0050000007903cbe
:0925da0006800000000000000072
:2025e30000000000000000000000000000000000000000000000000004fc00000000f1cb1c
:0a2603003855080000000000000038
:20260d00003400000000000000000000140af11000000000000000002c00a000000700b4d3
:09262d002a8000000000000000fa
:20263600000060000000000000000000000a5f000000000000000006020e0500000019abdc
:0a265600a97c000000000000000055
:202660000c00000000000000000001c0000000000000000000000260170c300000000030a8
:0926800000004000024150190065
:2026890004800000000000000000000400000000000000000000001e0258e342000000af5d
:0a26a900b280050001438682503024
:2026b300800000000000000000000000000000000000000000a001c4260ad000800500f2ab
:0926d3006c0000000202785a00bc
:2026dc0000000000000000000000000000000000000000000002002022dca402280081c1ae
:0a26fc00bfd500000047b49a10009b
:202706000002020000000000000000000000000002000000000000001e0a50000800001e0f
:09272600b4004000003400000082
:20272f0004000010000000000000000000000000000000000000000060fcaf000000000962
:0a274f00be800000000380000000bf
:20275900000000000000000000000000000000000000000000c0002000000000000300dca1
:0927790029c00c00020000000060
:202782000400000000000000000000000000000000000000000c000400000000000081871b
:0a27a200e8050cc000e00000000094
:2027ac0080000000000000000000000000000000000000000000000000000000000088966f
:0927cc00e8c0000000000000005c
:2027d50000000000000000000000000000000000000000000000000000000000000070185c
:0a27f500714c00000000000000001d
:2027ff000c000000000000000000000000000000000000000000000000000000000000d0de
:09281f003fc0400c000000000065
:20282800040680000000000000000000000000000000000000000a0000000000000001817a
:0a28480002940000000000000000f0
:20285200000200000000000000000000000000000000000000000000000000000000000c58
:0928720029c060002400000000f0
:20287b0000000000000000000000000000000000000000000000000000000000000000033a
:0a289b00e29c0800000000000000ad
:2028a500000000000000000000020000000000000000000000000000000000000300107886
:0928c5000000000000000000000a
:2028ce0000003000000000000000400000000000000000000000000000000000000000a9d1
:0a28ee0062800000000000000000fe
:2028f8000c00000000000000000000000000000000000000004000400000000000000c0424
:092918000c001c0004000000008a
:202921000440000000000000000000000000000000000000000400200000000000000180ad
:0a29410028c0094a0203000000004c
:20294b0098400000000000000000000000000000000000000020000000000002800f1a9f2a
:09296b0056c0020000000000004b
:2029740000638000000000000000000000000000000000000002000000000000280000ad89
:0a29940066fc00a000000000000037
:20299e000002000000000000000000000000000004000000000003c200055040000d090c97
:0929be003d40000000000055043a
:2029c7000400000000000000000000000000000000000000000000200148554040000005a9
:0a29e7003bd44000000014855400aa
:2029f100000000000000000000000000000000000000000000c000640200000000030a0093
:092a110000000c000400000000ac
:202a1a00040000000000000000000a000000000000000000000c003e78c000800018d8108c
:0a2a3a0000000040026014000800d4
:202a44008000000000000000000000000000000000000000000000403e0f5000000500947c
:092a640000000000040260f5000e
:202a6d00000000000000000000000000000000000000000000000026036805c00000000be8
:0a2a8d0062000c00026016805c007d
:202a97000c38000000000000000000000000000000000000000000042c0f5000034500f311
:092ab70080000000000140f50060
:202ac0000440400000000000000000000000000000000000000000007b6805c00002800f39
:0a2ae000f020000000003e805c00c2
:202aea00000200000000000000000003800000000000000000000003fc0f500000050000e4
:092b0a0000000000240240f50067
:202b130000000000000000000000000000000000000000000000000003e805c0000199a0b8
:0a2b33000000000000001e805c009e
:202b3d000000000000000000000000000100f00000000000000000022e0f500000030ad318
:092b5d00800000001e2160f5005b
:202b6600000030000000000000000000000c0f100000000000000006074805c00000d81de5
:0a2b8600e420000003c074805c002e
:202b90000c00000000000000000000000000000000000000000000223e0f50000005005203
:092bb000c0020000422260f500a1
:202bb90004000000000000000000000000000000000000000000001e674805c04280d9a526
:0a2bd9006804000000e654805c0070
:202be300803000000000000000000000000000000000000000a000002c0f500000050a13d5
:092c030050000200400140f501ff
:202c0c0000000000000000000000000000000000000000000002000003c805c0000080a1f5
:0a2c2c00300000a000003c805c00b6
:202c36000002000000000000000000000000000000000000000000003c0f50400009800018
:092c560000000000003e40f504fe
:202c5f0004000000000000000000000000000000000000000000000003c805c000809000b1
:0a2c7f000000000000005c805c0013
:202c8900000000000000000000000000000000000000000000c000400e0f500000050afbb4
:092ca900c0000c400402e0f5003b
:202cb2000000000000000000000000000000000000000000000c002463e805c00000d9bb2e
:0a2cd200382000c803c61e805c0015
:202cdc008000000000000000000000000000000000000000000000442e0f500000000a7706
:092cfc00c00000000003e0f50037
:202d0500000000000000000000000000000000000000000000000026336805c00000598f40
:0a2d2500b6000000006716805c0095
:202d2f0000000000000000000000c0000000000000000000000000020c0f50000000003c1b
:092d4f00000000000002c0f500c4
:202d5800000000000000000000000000000000000000000000000004036805c00000000720
:0a2d78002a000c00000016805c0029
:202d82000001000000000000000000000000000000000000000000042c0f5000000b8a9775
:092da200000000003e03c0f50032
:202dab0000000000000000000000000000000000000000000000000033e805c00000b9b9b6
:0a2dcb002820000002e71e805c00d3
:202dd5000000000000000000000008000000000000000000000000020e0f500002000092d3
:092df500400000014022e0f5005d
:202dfe00000020000000000000000040000000000000000000000006074805c000005805de
:0a2e1e00e6000000006054805c0034
:202e28000000000000000000000000000000000000000000000000022e0f500000101a00d1
:092e4800000000060423e0f5007f
:202e5100000000018000000000000000000000000800000000000000674805c0000000b0b4
:0a2e710000000000020654805c001f
:202e7b008000000000000000000000000000000000000000002000000c0f500000050a001d
:092e9b00000002000002c0f50075
:202ea40000000000000000000000000000000000000000000002000003c805c0000081b04b
:0a2ec400000000a000001c805c006c
:202ece000002000000000000000000000000000004000000000003c02dff5000000000009f
:092eee00000000003c03c8f500df
:202ef70000000000000000000000000000000000000000000000002003cc05c0400059a0ce
:0a2f170000000000020014c05c007e
:022f21000000ae
:022f2300110299
:022f25000101a8
:202f270000000000000000000000000000000000000000000000000000000000000000008a
:092f470000000000000000000081
:202f5000000000000000000000000000000000000000000000000000000000000000000061
:0a2f70000000000000000000000057
:202f7a000000000000000000000000000000000000000000000000000000008000000000b7
:092f9a000000000000000000002e
:202fa30000000000000000000000000000000000000000000000000000000000000000000e
:0a2fc3000000000000000000000004
:202fcd000000000000000000000000000000000000000000000000000000000000000000e4
:092fed00000000000000000000db
:202ff6000000000000000000000000000000000000000000000000000000000000000000bb
:0a30160000000000000000000000b0
:203020000000000000080000000000002000000000080000000000002000000000000080c0
:0930400000000000000200000085
:20304900000000000000000000000000000000000000000000000000000000000000000067
:0a306900000000000000000000005d
:2030730000000000000c00000000000030000000000c00000000000030000000000000c005
:0930930000000000000300000031
:20309c00000000000000000000000000000000000000000000000000000000000000000014
:0a30bc00000000000000000000000a
:2030c6000000000000000000000000000000000000000000000000000000000000000000ea
:0930e600000000000000000008d9
:2030ef000000000000000000000000000000000000000000000000000000000000000000c1
:0a310f0000000000000000000000b6
:20311900000000000000000000000000000000000000000000000000000000000000000096
:093139000000000000000000008d
:20314200000000000000000000000000000000000000000000000000000000080000000065
:0a31620000002000000002000080c1
:20316c00000000000008000000000000200000000008000000000000200000000000008073
:09318c0000000000000200000038
:2031950000000000000000000000000000000000000000000000000000000000000000001a
:0a31b500000000000000020000000e
:2031bf000000000000000000000000000000000000000000000000000000000000000000f0
:0931df00000000000000000000e7
:2031e80000002000000000000000000000000000000000000800000000000000000000009f
:0a32080000000000000000000000bc
:2032120000000000000000000000000000000000000000000000000000000000000000009c
:0932320000000000000000000093
:20323b00000000000000000000000000000000000000000000000000000000000000000073
:0a325b000000000000000000000069
:20326500000000000000000000000000000000000000000000000000000000000000000049
:0932850000000000000000000040
:20328e00000000000000000000000000000000000000000000000000000000000000000020
:0a32ae000000000000000000000016
:2032b8000003000000000000000000000000000000000000000000000000000000000000f3
:0932d800000000000000000000ed
:2032e1000000000000000000000000000000000000000000000000000000000000000000cd
:0a33010000000000000000000000c2
:20330b000000000000000000000000000000000000000000000000000000000000000000a2
:09332b0000000000000000000099
:20333400000020000000000000000000000000000000000000000000000000000000000059
:0a335400000000000000000000006f
:20335e0000000000000000000000000000000000000000000000000000000000000000004f
:09337e0000000000000000000046
:20338700000000000000000000000000000000000000000000000000000000000000000026
:0a33a700000000000000000000001c
:2033b1000000000000000000000000000000000000000000000000000000000000000000fc
:0933d100000000000000000000f3
:2033da000000000000000000000000000000000000000000000000000000000000000000d3
:0a33fa0000000000000000000000c9
:203404000000000000000000000000000000000000000000000000000000000000000000a8
:093424000000000000000000009f
:20342d0000000000000000000000000000000000000000000000000000000000000000007f
:0a344d000000000000000000000075
:20345700000000000000000000000000000000000000000000000000000000000000000055
:093477000000000000000000004c
:2034800000002000000000000000000000000000000000000000000000000000000000000c
:0a34a0000000000000000000000022
:2034aa00000000000000000000000000000000000000000000000000000000000000000002
:0934ca00000000000000000000f9
:2034d3000000000000000000000000000000000000000000000000000000000000000000d9
:0a34f30000000000000000001800b7
:2034fd000000000000000000000000000000000000000000000000000000000000000000af
:09351d00000000000000000000a5
:20352600000000000000000000000000000000000000000000000000000000000000000085
:0a354600000000000000000000007b
:20355000000300000000000000000000000000000000000000000000000000000000000058
:0935700000000000000000000052
:20357900000000000000000000000000000000000000000000000000000000000000000032
:0a3599000000000000000000000028
:2035a300000000000000000000000000000000000000000000000000000000000000000008
:0935c300000000000000000000ff
:2035cc000000200000000000000000000000000000000000000000000000000000000000bf
:0a35ec0000000000000000000000d5
:2035f6000000000000000000000000000000000000000000000000000000000000000000b5
:09361600000000000000000000ab
:20361f0000000000000000000000000000000000000000000000000000000000000000008b
:0a363f000000000000000000000081
:20364900000000000000000000000000000000000000000000000000000000000000000061
:0936690000000000000000000058
:20367200000000000000000000000000000000000000000000000000000000000000000038
:0a369200000000000000000000002e
:20369c0000000000000000000000000000000000000000000000000000000000000000000e
:0936bc0000000000000000000005
:2036c5000000000000000000000000000000000000000000000000000000000000000000e5
:0a36e50000000000000000000000db
:2036ef000000000000000000000000000000000000000000000000000000000000000000bb
:09370f00000000000000000000b1
:20371800000020000000000000000000000000000000000008000000000000000000000069
:0a3738000000000000000000000087
:20374200000000000000000000000000000000000000000000000000000000000000000067
:093762000000000000000000005e
:20376b0000000000000000000000000000000000000000000000000000000000000000003e
:0a378b000000000000000000000034
:20379500000000000000000000000000000000000000000000000000000000000000000014
:0937b5000000000000000000000b
:2037be000000000000000000000000000000000000000000000000000000000000000000eb
:0a37de0000000000000000000000e1
:2037e8000001000000000000000000000000000000000000000000000000000000000000c0
:09380800000000000000000000b7
:20381100000000000000000030000000000000000000000000000000000000000000000067
:0a383100000000000000000000008d
:20383b0000000000000000000000000000000000000000000000000000000000000000006d
:09385b0000000000000000000064
:20386400000024000000000000000000000000000000000000000000000000000000000020
:0a388400000000000000000000003a
:20388e0000000000000000000000000000000000000000000000000000000000000000001a
:0938ae0000000000000000000011
:2038b7000000000000000000000000000000000000000000000000000000000000000000f1
:0a38d70000000000000000000000e7
:2038e1000000000000000000000000000000000000000000000000000000000000000000c7
:09390100000000000000000000bd
:20390a00080000000000000000000000000000000000000000000000000000000000000095
:0a392a000000000000000000000093
:20393400000000000000000000000000000000000000000000000000000000000000000073
:093954000000000000000000006a
:20395d0000000000000000000000000000000000000000000000000000000000000000004a
:0a397d000000000000000000000040
:20398700000000000000000000000000000000000000000000000000000000000000000020
:0939a70000000000000000000017
:2039b0000000200000000000000000000000000000000000000000000000000000000000d7
:0a39d00000000000000000000000ed
:2039da000000000000000000000000000000000000000000000000000000000000000000cd
:0939fa00000000000000000000c4
:203a030008000000000000000000000000000000000000000000000000000000000000009b
:0a3a23000000000000000000000099
:203a2d00000000000000000000000000000000000000000000000000000000000000000079
:093a4d0000000000000000000070
:203a5600000000000000000000000000000000000000000000000000000000000000000050
:0a3a76000000000000000000000046
:203a8000000300000000000000000000000000000000000000000000000000000000000023
:093aa00000000000000000080015
:203aa9000000000000000000000000000000000000000000000000000000000000000000fd
:0a3ac90000000000000000000000f3
:203ad3000000000000000000000000000000000000000000000000000000000000000000d3
:093af300000000000000000000ca
:203afc0000002000000000000000000000000000000000000000000000000000000000008a
:0a3b1c00000000000000000000009f
:203b260000000000000000000000000000000000000000000000000000000000000000007f
:093b460000000000000000000076
:203b4f00000000000000000000000000000000000000000000000000000000000000000056
:0a3b6f00000000000000000000004c
:203b790000000000000000000000000000000000000000000000000000000000000000002c
:093b990000000000000000000023
:203ba200000000000000000000000000000000000000000000000000000000000000000003
:0a3bc20000000000000000000000f9
:203bcc000000000000000000000000000000000000000000000000000000000000000000d9
:093bec00000000000000000000d0
:203bf5000000000000000000000000000000000000000000000000000000000000000000b0
:0a3c150000000000000000000000a5
:203c1f00000000000000000000000000000000000000000000000000000000000000000085
:093c3f000000000000000000007c
:203c4800000020000000000000000000000000000000000008000000000000000000000034
:0a3c68000000000000000000000052
:203c7200000000000000000000000000000000000000000000000000000000000000000032
:093c920000000000000000000029
:203c9b00000000000000000000000000000000000000000000000000000000000000000009
:0a3cbb0000000000000000000000ff
:203cc5000000000000000000000000000000000000000000000000000000000000000000df
:093ce500000000000000000000d6
:203cee000000000000000000000000000000000000000000000000000000000000000000b6
:0a3d0e0000000000000000000000ab
:203d1800000300000000000000000000000000000000000000000000000000000000000088
:093d380000000000000000000082
:203d4100000000000000000000000000000000000000000000000000000000000000000062
:0a3d61000000000000000000000058
:203d6b00000000000000000000000000000000000000000000000000000000000000000038
:093d8b000000000000000000002f
:203d94000000200000000000000000000000000000000000000000000000000000000000ef
:0a3db4000000000000000000000005
:203dbe000000000000000000000000000000000000000000000000000000000000000000e5
:093dde00000000000000000000dc
:203de70000000000000000000000000000000000000000000000000000000040000000007c
:0a3e070000000000000000000000b1
:203e1100000000000000000000000000000000000000000000000000000000000000000091
:093e310000000000000000000088
:203e3a00000000000000000000000000000000000000000000000000000000000000000068
:0a3e5a00000000000000000000005e
:203e640000000000000000000000000000000000000000000000000000000000000000003e
:093e840000000000000000000035
:203e8d00000000000000000000000000000000000000000000000000000000000000000015
:0a3ead00000000000000000000000b
:203eb7004000000000000000000000000000000000000000000000000000000000000000ab
:093ed700000000000000000000e2
:203ee0000000200000000000000000000000000000000000000000000000000000000000a2
:0a3f000000000000000000000000b7
:203f0a00000000000000000000000000000001000000000000000000000000000000000096
:093f2a000000000000000200008c
:203f3300080000000000000000000000000000000000000000000000000000000000000066
:0a3f53000000000000000000000064
:203f5d00440000000000000000000000000000000000000000000000000000000000000000
:093f7d000000000000000000003b
:203f860000c00000000000000000000000000000000000000000000000000000000000005b
:0a3fa6000000000000000000000011
:203fb0000001000000000000000000000000000000000000000000000000000000000000f0
:093fd000000000000000000000e8
:203fd900000000000000000030000000000000000000000000000000000000000000000098
:0a3ff90000000000000000001400aa
:2040030000000000000000000000000000000000000000000000000000000000000000009d
:094023000000000000000001c0d3
:20402c00000024000000000000000000000000000000000000000000000000000000000050
:0a404c00000000000000000000006a
:204056000068000000000000000000000000000000000000000000000000000000000000e2
:0940760000000000000000000041
:20407f00000000000000000000000000000000000000000000000000000000000000000021
:0a409f000000000000000000000017
:2040a9000000000000000000000000000000000000000000000000000000000000000000f7
:0940c900000000000000000000ee
:2040d2000800000000000000000000000000000000000000000000000000000000000000c6
:0a40f20000000000000000000000c4
:2040fc000000000000000000000000000000000000000000000000000000000000000000a4
:09411c000000000000000000009a
:2041250000000000000000000000000000000000000000000000000000000000000000007a
:0a4145000000000000000000000070
:20414f00000000000000000000000000000000000000000000000000000000000000000050
:09416f0000000000000000000047
:204178000000200000000000000000000000000000000000080000000000000000000000ff
:0a419800000000000000000000001d
:2041a2000000000000000000000000000000000000000000000000000000000000000000fd
:0941c200000000000000000000f4
:2041cb000800000000000000000000000000000000000000000000000000000000000000cc
:0a41eb0000000000000000000000ca
:2041f5000000000000000000000000000000000000000000000000000000000000000000aa
:09421500000000000000000000a0
:20421e00000000000000000000000000000000000000000000000000000000000000000080
:0a423e000000000000000000000076
:20424800000200000000000000000000000000000000000000000000000000000000000054
:094268000000000000000002004b
:2042710000000000000000000000000000000000000000000000000000000000000000002d
:0a42910000000000000000004000e3
:20429b00000000000000000000000000000000000000000000000000000000000000000003
:0942bb00000000000000000000fa
:2042c4000000200000000000000000000000000000000000000000000000000000000000ba
:0a42e40000000000000000000000d0
:2042ee004c0000000000000000000000000000000000000000000000000000000000000064
:09430e00000000000000000000a6
:204317000080000000000000500000000000000000000000000000000000000000000000b6
:0a433700000000000000000000007c
:2043410000000000000000000000000000000000000000000000000000000000000000005c
:0943610000000000000000000053
:20436a000802c0000000000000000000000000000000000000000000000000000000000069
:0a438a000000000000000000000029
:204394004000000000000000000000000000000000000000000000000000000000000000c9
:0943b40000000000000000000000
:2043bd000000000000000000000000000000000000000000000000000000000000000000e0
:0a43dd0000000000000000000000d6
:2043e70006000000000000040000e82ef000000000000000000000000000000000000000a6
:09440700000000000000020000aa
:204410000180200000000000000002bccd0000000000000000000000000000000000000060
:0a4430000000000000000000000082
:20443a0000000000000160000000e804f00000140000000000000000000000000000000011
:09445a0000000000000000000059
:204463000000000000000000000002bc0d000001000000000000000000000000000000006d
:0a448300000000000000000000002f
:20448d0000000000000160000000e804b980a00000000000000000000000000000000000e9
:0944ad0000000000000000000006
:2044b6000000000000000000000002bc1d10000000000000000000000000000000000000fb
:0a44d60000000000000000000000dc
:2044e00000030000000206800000e804b81c00000000000000000000000000000000000071
:09450000000000000000000000b2
:204509000000000000001400000002bc1d1000000000000000000000000000000000000093
:0a4529000000000000000000000088
:2045330000000000000000000000e805f0010000000000000000000000000080000000000a
:094553000100000000000000005e
:20455c000000200000000000000002bc0d00c0000000000000000000000000000000000094
:0a457c000020000000000000000015
:20458600000000001d6c00000000e805fb9c00000000000000000000000000000000000008
:0945a6000000000000000002000a
:2045af0000000000009ac001000002bc0db99000000000000000000000000000000000007d
:0a45cf0000000000000000004000a2
:2045d90000000000000000000000e805b0190000000000000000000000000000000000000c
:0945f900000000000000000000b9
:204602000080000000000000000002bc1d00800000000000000000000000000000000000bd
:0a462200000000000000000000008e
:20462c0000000000000000000000e805f199000800000000000000000000000000000000ef
:09464c0000000000000000000065
:204655000000000000000000000002bc1d008000c00000000000000000000000000000002a
:0a467500000000000000000000003b
:02467f00000039
:02468100110323
:02468300010133
:20468500000000000000000000000000000000000000000010000000000000000000000005
:0946a5000000000000000000000c
:2046ae000000000000000000000000000000000000000000000000000000000000000000ec
:0a46ce0000000000000000000000e2
:2046d800000000000000000000000000000000000000000020000000000000800000000022
:0946f800000200000000000000b7
:20470100000000000000000000000000000000000000000000000000000000000000000098
:0a472100000000000000000000008e
:20472b0000000000000000000000000000000000040000001000000000000000000000005a
:09474b0000000000000000000065
:204754000000000000000000000000000000000000c000f000000000000000000000000095
:0a477400000000000000000000003b
:20477e00000000000008000000000000000000000000000000000000200000000000008073
:09479e0000000000000200000010
:2047a7000000000000000000000000000000000000000000000000000000000000000000f2
:0a47c70000000000000000000000e8
:2047d10000000000000c00000000000030000000000c00000000000030000000000000c090
:0947f100000000000003000000bc
:2047fa0000000000000000000000000000000000000000000000000000000000000000009f
:0a481a000000000000000000000094
:20482400000000000000000000000000000000000000000000000000000000000000000074
:094844000000000000000000006b
:20484d0000000000000000000000000000000000000000000000000000000000000000004b
:0a486d000000000000000000000041
:20487700000000000000000000000000000000800000000000000000000000800000000021
:0948970000000000000000000018
:2048a0000000000000000000000000000000000800000000020000000000000800000000e6
:0a48c000000020000000000000804e
:2048ca000000000000080000000000002000000000080000000000002000000000000080fe
:0948ea00000000000002000000c3
:2048f3000000000000000000000000000000000000000000000000000000000000000000a5
:0a491300000000000000000000009a
:20491d00000000000000000000000000000000000000000000000000000000000000de801c
:09493d0040000000000000000031
:20494600000000000000000000000000000000000000000000000000003800001028476832
:0a496600060000000000001a000027
:2049700000000000000000100000000000000000000000000000000000190000000002c636
:09499000000004111c2b508000f2
:204999000000000000000002000000000000000000000000000000000000d000042841af10
:0a49b9006000001022d40800000086
:2049c3000000000000000000000000000000000000000000000000000000000000a30c0421
:0949e30000000000037e009000ba
:2049ec0000000000000000000000000000000000000000000000000000380000040a3572be
:0a4a0c0000000000212580000000da
:204a1600000200000000000000000000000000000000000000000082f01e4000000052c09c
:094a360000000000000000020075
:204a3f000000000000000000000000000000000000000000000108104d019800000849ac5b
:0a4a5f0060000000000000004000ad
:204a69000000000000000000000000000000000000000000000028c20000000000000682bb
:094a890000000000000010000014
:204a920000003000000000000000000000000000000000000001128c58000000042841e888
:0a4ab20046000000000008000000ac
:204abc0000000000000000000000000000000000000000000000005db000000800470aec88
:094adc00780030000000500000d9
:204ae500000000000000000000000000000000000000000000000200dc1980008408b302f9
:0a4b0500e7800200000001000c0030
:204b0f000000000000000000000000000000000000000000000428c3070800100000f68002
:094b2f0028005000000090000075
:204b380000000000000000000000000000000000000000000001028c58001001400841e8f4
:0a4b5800028004000000000a0000c3
:204b620000020000000000000000000000000000000000030000005da300000000007ac0f4
:094b82000000002001ec9000008d
:204b8b00000000000000000000000000000000000000000000000201dcb800000008492df5
:0a4bab0040000000043d98000000e7
:204bb500000000000000000000000000000000000000000000000003b110000000000f000d
:094bd500000000017c3910000011
:204bde00040000000000000000000000000000000000000000010a106d80a000100051b4f6
:0a4bfe0000000000015fcd80000000
:204c08008000000000000000000000000000000000000010000117c1bd1f0000000f000038
:094c280000000000002a08000051
:204c31000000000000000000000000000000000000000002000000155970e0000000f100b2
:0a4c510002800010a10c9380000007
:204c5b0008000000000000000000000000000000000000000000000003080000000f1034d3
:094c7b00000000017c1f10000084
:204c8400040000000000000000000000000000000000000000000000003800000010f900cb
:0a4ca40007000001014dd0000000e0
:204cae0000000000000000100000000000000000000000000004080007000000000f902cf8
:094cce0000000000000050a000ed
:204cd700000000000000000000000000000000000000000000010081c80000000010f1036f
:0a4cf7004000000000000d800000e6
:204d0100000000000000000000000000000000000000000000003fc3bb100000000f0000b6
:094d2100000000400028d1000050
:204d2a000000300000000000000000000000000000000000000103f85c98e0000010f16800
:0a4d4a00068000018147a008000068
:204d5400000000000000001000000000000000000000000000000836c58a800c000fb00057
:094d74000000000002ea0000004a
:204d7d00c00000000000000200000000000000000000000000000000f9500580c010f900bd
:0a4d9d0000000000a116901c000c9d
:204da70080000000000000000000000000000040000000000000000005800014000fb014c0
:094dc700403000000000900001e2
:204dd00040000000000000000000000000000000000000020000000000b8e0014010f100a7
:0a4df000028000000000080000101f
:204dfa00004280000000000000000000000000000000000080000017e7000000200f703486
:094e1a000000000000000100008e
:204e2300000780000000000000000000000000000000000000001043df00e0000010f100d5
:0a4e430000000000000001880c00d0
:204e4d000000000000000000000000000000000000000000000000cefd100000000ff00269
:094e6d0000000010003e000000ee
:204e76000000000000000000000000000000000000000000000208034c00c0000010f10101
:0a4e960040000000814ce000000025
:204ea0008000000000000000000000e7c000000000000000200000a6e71000800096f014f4
:094ec00000000010000d909000ac
:204ec9000000000000000000000200007d00000000000000350008104918e000001699020b
:0a4ee90000000000815dc58000009c
:204ef3000000400000000000000000000009000000000000000000149010180000f000009a
:094f1300000000028c3050000087
:204f1c00000000000000000000000000007801000000000000000a137e00c0140010f16824
:0a4f3c000000501028d5881a00006c
:204f4600000000000000000000000000000040000000000700000000038b0000000f000067
:094f660000000400000d10000021
:204f6f0000000400000000000000000000000a000000000000000000009800000010f1601b
:0a4f8f0000000000015dc1000000f9
:204f9900000000000000000000000000000000000000000000000083c00a000000f00000bb
:094fb900000000000000000000ef
:204fc2000000100000000000000000000000000000000000000108115b58b0002010f128f9
:0a4fe200068000000000000e000031
:204fec000000000000000000200000000000000000000000000014c2f1800008000f001c0b
:09500c0000000002055d0800002f
:20501500c0000000000000000500000000000000000000000001128cc0b80000c010f120be
:0a50350002800000203ce18020080a
:20503f00800000000000000000000000008000400000000000000066bd000054840f000007
:09505f0068000012943c100001ed
:205068000000000000000000000000000078000800000000000002017e0000094010f1607d
:0a50880006000010394e98000010d9
:20509200000080000000000400000000010000000000000000000026b58000000000943c4e
:0950b20040000002017f10c00063
:2050bb00000000000000000000000000000000000000000000000213fcb8a0000010002a32
:0a50db0006000000002ce8011c0094
:2050e500000000000000000000000082890001000000000000000002d0888000004e7a7e7f
:0951050020500000027910840022
:20510e000400000000000000000302045b3800080000000000012101e83800000048db83f0
:0a512e0040000000042f88018000fb
:20513800800000000000001000000003d70f000000000000000014010100000100009a80ad
:0951580000000002a81000800014
:20516100000000000000000200010005c98000000000000000000141ee018000000103a880
:0a51810060000000aa85e01900009c
:20518b0008000000000000000000001df100000000000000000114c2800b00010000da268b
:0951ab0040500003c00070000038
:2051b400044000000000000000000040df000000000000000003028de101800000010d6412
:0a51d40063000000c3c5a000000046
:2051de000036000000000000000000000f0f00000000000000000040cd900002042700246f
:0951fe0020000003c000000000c5
:20520700000000000000000000000000008010000000000000010200ed198000148275f172
:0a52270060000000c3c5e0000000b5
:205231000000000000000000000001430080000000000000002000e40f0e0002800003d41f
:095251007f800003c01000000082
:20525a000000300000000000000000156c58e00000000000000c100d6090a000244855b61b
:0a527a0006680000c3c4a01800007d
:205284000000000000000000000000000000000000000000000000b6b00000000005080097
:0952a4002a000003c010100000f4
:2052ad0000000000000000000000000000000000000000000000120f7a500000000051792c
:0a52cd0066c00000c3c4a980000001
:2052d7000000000000000004000000000010000000000000000028c30d10000000a30c00ec
:0952f70028000003c000d80001ea
:2053000000000000000000000000000000008000000000000005128df800a000040a377814
:0a53200006c00000c3c4e500001041
:20532a0000020000000000000000000003000000000000008000005ed009004000000b5606
:09534a0000000083c00008d0003f
:205353000000000000000000000000000018000000000000000000116c50000000005322e0
:0a53730062800000c3c4e181000065
:20537d000000000000000000000000000100200000000000000000000000000000000000ef
:09539d0040000003c01000800074
:2053a6000000000000000000000000000000040000000000000000000000000000000000e3
:0a53c60002000000c3c5e1810000f1
:2053d0008000000000000000000001030f1000000000000000000242e110000000000000e5
:0953f00040000003c01000800021
:2053f900000000000000000000010811fc01e000000000000001081448f9c000000000007f
:0a54190067000000c3c5a0190000e1
:205423000000000000000000002022f4f000000000000000000028c301000000000f0ac27c
:0954430040000003c0000000005d
:20544c0000000000000000000002010bda780000000000000001028d7c8000020c08b72562
:0a546c0043000000c3c5a000c0000b
:205476000000000000000000000000000f0c00000000000000000040a01e008000000ac0b3
:0954960000000003c00000020048
:20549f0000000000000000000000000000001000000000000001020cc901d0140000533598
:0a54bf0046000000c3c5e0004000f5
:2054c900000000000000000000000000010000000000000000020f000000000000023b5420
:0954e90000000003c01010018056
:2054f2000000000000000000000000000081800000000000000100f0005180000020158121
:0a55120040000000c3c4a8180c00fc
:20551c000000000000000000000000000000000800000000000011c0b008000804030802c5
:09553c006c003003c010100000e7
:2055450000000000000000000000000000000000c00000000001022d41001000840033014d
:0a55650047800200c3c4a9800800bb
:20556f008000000000000010000000000000001000000000000011bec000801294f407408c
:09558f0020005003c000000001df
:20559800000000000000000000000000000000814000000000000011da000001440fe7ac60
:0a55b80000400400c3c4e00004102a
:2055c200000000000000000000000000000000000000000000001116f5000000000013801a
:0955e20024000083c00000d00089
:2055eb00000000000000000000000000000000000000000000000a13cc19a40000010ba846
:0a560b0000400000c3c4e0010000ed
:205615000000000520b4234000000000010800000000000000202a82000d0000009602348b
:0956350026000003c010008000f3
:20563e0000000042a27bde0400000000008000000000000000080aa9680000000806918544
:0a565e0062900000c3c5e181000066
:205668008000000fa069c00000042883df00008000000000000000000b000000804277c2b6
:095688006c000003c01000801446
:2056910000000000a05f006000011a857e81a14400000000000000000081e00000085fb599
:0a56b10042800000c3c5a0190000ec
:2056bb00000000000f78000800000140d00d00000000000000032802000000000000da8299
:0956db006c000003c00000040093
:2056e40000000004011ec60100000029c158000000000000000a52816800000000010d6cbb
:0a57040062800000c3c5a000800011
:20570e00000200000000000000000003cf00000000000000000000000000000000009ab459
:09572e0000000003c00000d000df
:20573700000000000000006000000015ef800000000000000000000000000000000103a9c1
:0a57570040000000c3c5e00100009f
:205761000000000000000380000036c0bb0000000000000000000000001000000000fb14d5
:0957810028000003c01010000014
:20578a000000300000000e000001039c0100000000000000000000000019e04000010f7661
:0a57aa0006c00000c3c4a8184000a8
:2057b4000000000000000400008403020010a0000000000000041084b00000000000bb8015
:0957d40028000003c010100000c1
:2057dd000000000000000030000100316001c010000000000000020401700000000101b9e7
:0a57fd0066c00000c3c4a9800000cc
:205807008000000a30b40280040027ede0000014000000100000001ef00000140000000053
:0958270078000003c000000181bb
:2058300000000042a07bc0040040017fcd0001c100000002000030075a0000014000000113
:0a58500062c00000c3c4e0000c14a5
:20585a0000020000a02803c000402bc3e000400000000000802a03c00008000000000014ca
:09587a0000000083c000000000e2
:2058830000000000af5b00040000403cee000800000000000000003c4000100000000002f7
:0a58a30000000000c3c4e000000094
:2058ad000000000000000000000000000000000c0000000000000001001b00000090b2a4cd
:0958cd0024000003c010100000cb
:2058d6000000000000000000000000000001e000c0000000000004001c00a00000260b061a
:0a58f60000400000c3c5e980000077
:205900000000000000000000000000000000000000000000000000000d80000000009e005c
:0959200028000003c01000000083
:205929000000000000000000000000000000000000000000000004000a5000000002097085
:0a59490006000000c3c5e580000061
:20595300000000000000000500000000000000000000000000000001070000000000000027
:09597300000000003c0000a1400e
:20597c000000000000000000000000000000000000000000000004000e0000c00000000039
:0a599c006000000043c4c581000054
:2059a60000020000000000000000000000000000000000000000000100000000004818007e
:0959c600280000003c1000a000c4
:2059cf000000000000000000000000000000000000000000000004000e00000000248b39be
:0a59ef00e000000043c5c01b0000eb
:2059f90000000000000000000000000000000000000000000000000000000000009093c0ab
:095a1900280000003c00500000d0
:205a22000000300000000000000000000000000000000000000004001e00000000260304e5
:0a5a42000040000143c5c000080049
:205a4c000000000000000000000000000088000c0000000000000000050f000000001b94e3
:095a6c00400000003c00000000b5
:205a75000000000000000000000000000050100080000000000004001e80000000001ffa76
:0a5a95000780000043c4c0000c00ad
:205a9f000000000000000000400000000000001000000000000000010500000000f002d4cb
:095abf00200050003c0000a00191
:205ac800000000000000000002000000000000050000000000000400188001c00020033afd
:0a5ae80006c0040043c58000015011
:205af200000200000000000000082a80000c0000000000000010000100000000004810006b
:095b12002000000003d000e000b7
:205b1b00000000000000000000000aa84a00100000000000000004000a000008002481b8eb
:0a5b3b00604000004001a0000000df
:205b45000000000000000240000000000118000800000000000000000000140000000000c9
:095b650000000000000010000027
:205b6e000000000000000004000004001e809000c000000000000000000000000000000021
:0a5b8e000000000000000800000005
:205b980000000000002006c000002bc1900800000000000000000000000000000000000083
:095bb800000000017c30f0000047
:205bc100000000c00136006000000e805f01900000000000000000000000000000000000ef
:0a5be1000000000097dde000000066
:205beb0000000000072c000000002bc0b00e000000000000000000000000000000000000be
:095c0b0000000000000000000090
:205c1400000000008036c00000000e805b0000000000000000000000000000000000000011
:0a5c34000000000000000000a000c6
:205c3e00000200000002424000002bc0900000000000000000000000000000000000000045
:095c5e0000000003c02a00b000a0
:205c6700000000000000206400000e805f00000000000000000000000000000000000000ac
:0a5c870000000000801da0010010c5
:205c9100000000000001400000002bc1b7000000000000000000000000000000000000000f
:095cb10000000000000000880062
:205cba00000030000000206800000e804b8180000000000000000000000000000000000038
:0a5cda0000000000000000010000bf
:205ce400082800000001428000002bc1910000000000000000000000000000000000000030
:095d040000000000000001000293
:205d0d00048040000000360400000e804b9800000000000002000000000000000000000005
:0a5d2d00000000000000000a002042
:205d3700800000000178028000002bc0b700001000000000000000000000a000000000007f
:095d570000000000000000000142
:205d6000000000001073402c00000e804f80000300000000000000000000040200000000ce
:0a5d80000000000000000000001405
:205d8a0000020000016c020000082bc0900c00000000000080000000000000000000000079
:095daa00000000000000000000f0
:205db3000400000001d2806c00000e804f0000000000000000000000000000000000000030
:0a5dd30000000000000000000000c6
:025ddd000000c4
:035ddf0062003f20
:035de200720080cc
:025de5001100ab
:035de70082000037
:025dea000103b3
:085dec000000000000000000af
:085df4000000000000000000a7
:085dfc0000000000000000009f
:085e0400000000000000000096
:0261ec000000b1
:0361ee00820080ac
:0261f1000103a8
:0861f3000000000000000000a4
:0861fb0000000000000000009c
:08620300000000000000000093
:08620b0000000000000000008b
:0265f3000000a6
:0265f500110192
:0365f7008200001f
:0265fa0001039b
:0865fc00000000000000000097
:0866040000000000000000008e
:08660c00000000000000000086
:0866140000000000000000007e
:0269fc00000099
:0369fe0082008094
:026a010001038f
:086a030000000000000000008b
:086a0b00000000000000000083
:086a130000000000000000007b
:086a1b00000000000000000073
:026e030000008d
:026e0500110278
:036e070082000006
:026e0a00010382
:086e0c0000000000000000007e
:086e1400000000000000000076
:086e1c0000000000000000006e
:086e2400000000000000000066
:02720c00000080
:03720e008200807b
:02721100010377
:08721300000000000000000073
:08721b0000000000000000006b
:08722300000000000000000063
:08722b0000000000000000005b
:02761300000075
:0276150011035f
:03761700820000ee
:02761a0001036a
:08761c00000000000000000066
:0876240000000000000000005e
:08762c00000000000000000056
:0876340000000000000000004e
:027a1c00000068
:037a1e0082008063
:027a210001035f
:087a230000000000000000005b
:087a2b00000000000000000053
:087a330000000000000000004b
:087a3b00000000000000000043
:027e230000005d
:017e2500223a
:027e2600528b7d
:027e2800010651
:00000001FF
