:02000000ff00ff
:080002004c6174746963650030
:17000a00694345637562653220323032302e31322e32373934330071
:15002100506172743a2069434534304c50314b2d514e38340034
:1b003600446174653a204a756e20313920323032322031333a31323a33350077
:0200510000ffae
:040053007eaa997e6a
:02005700510056
:0200590001059f
:03005b0092000010
:03005e0062014bf1
:030061007200909a
:0300640082000017
:02006700110086
:02006900010193
:20006b00000000000000000000000000000000000000000000000000000000000000000075
:09008b00000000800000000000ec
:2000940000000000000000000000000000000000000000000000000000000000000000004c
:0a00b4000000000000000000000042
:2000be00000000000000000000000000000000000000000000000000000000001000000012
:0900de00000000400000000000d9
:2000e7000000000000000000000000000000000000000000000000000000000000000000f9
:0a01070000000000000000000000ee
:200111000000000000000000000000000000000000000000000000000000000000000000ce
:0901310000000080000001000044
:20013a000000000000000000000000000000000000000000000000000000000000000000a5
:0a015a00000000000000003000006b
:200164000000000000040000000000001000000000000040000000001000000000000040d7
:0901840000000000000100000071
:20018d00000000000000000000000000000000000000000000000000000000000000000052
:0a01ad000000000000000000000048
:2001b70000000000000c00000000000030000000000000c00000000030000000000000c03c
:0901d70000000000078200000096
:2001e0000000000000000000000000000000000000000000000000000000000000000000ff
:0a02000000000000000800000000ec
:20020a000000000000000000000000000000000000000000000000000000000000000000d4
:09022a00000000000000000000cb
:200233000000000000000000000000000000000000000000000000000000000000000000ab
:0a02530000000000000000000000a1
:20025d00000000000000000000000000000000000000000000000000000000000000000081
:09027d0000000000000000000078
:20028600000000000000000000000000000000000000000000004000000000000100000017
:0a02a600000000040000000000004a
:2002b00000000000000400000000000010000000000000400000000010000000000000408a
:0902d00000000000000100000024
:2002d900000000000000000000000000000000000000000000000000000000000000000005
:0a02f90000000000000000000000fb
:200303000000000000000000000000000000000000000000000000000000000000000000da
:09032300000000000000000000d1
:20032c00000020000000000000000000000000000040000000000000000000000000000051
:0a034c0000000000000000000000a7
:20035600000000000000000000000000000000000000000000000000000000000000000087
:090376000000000000000000007e
:20037f0000000000000000000000000000000000000000000000000000000000000000005e
:0a039f000000000000000000000054
:2003a900000000000000000000000000000000000000000000000000000000000000000034
:0903c9000000000000000000002b
:2003d20000000000000000000000000000000000000000000000000000000000000000000b
:0a03f2000000000000000000000001
:2003fc000003000000000000000000000000000000000000000000000000000000000000de
:09041c00000000000000000000d7
:200425000000000000000000000000000000000000000000000000000000000000000000b7
:0a04450000000000000000000000ad
:20044f0000000000000000000000000000000000000000000000000000000000000000008d
:09046f0000000000000000000084
:20047800000020000000000000000000000000000000000000000000000000000000000044
:0a049800000000000000000000005a
:2004a20000000000000000000000000000000000000000000000000000000000000000003a
:0904c20000000000000000000031
:2004cb00000000000000000000000000000000000000000000000000000000000000000011
:0a04eb000000000000000000000007
:2004f5000000000000000000000000000000000000000000000000000000000000000000e7
:09051500000000000000000000dd
:20051e000000000000000000000000000000000000000000000000000000000000000000bd
:0a053e0000000000000000000000b3
:20054800000000000000000000000000000000000000000000000000000000000000000093
:090568000000000000000000008a
:2005710000000000000000000000000000000000000000000000000000000000000000006a
:0a0591000000000000000000000060
:20059b00400000000000000000000000000000000000000000000000000000000000000000
:0905bb0000000000000000000037
:2005c4000000200000000000000000000000000000000000000000000000000000000000f7
:0a05e400000000000000000000000d
:2005ee000000000000000000000000000000000000000000000000000000000000000000ed
:09060e00000000000000000000e3
:200617000800000000000000000000000000000000000000000000000000000000000000bb
:0a06370000000000000000000000b9
:200641004c000000000000000000000000000000000000000000000000000000000000004d
:0906610000000000000000000090
:20066a0000c0000000000000000000000000000000000000000000000000000000000000b0
:0a068a000000000000000000000066
:20069400000300000000000000000000000000000000000000000000000000000000000043
:0906b4000000000000000000003d
:2006bd0000000000000000000000000000000000000000000000000000000000000000001d
:0a06dd000000000000000000000013
:2006e7000000000000000000000000000000000000000000000000000000000000000000f3
:09070700000000000000000000e9
:200710000000200000000000000000000000000000000000000000000000000000000000a9
:0a07300000000000000000000000bf
:20073a0000000000000000000000000000000000000000000000000000000000000000009f
:09075a0000000000000000000096
:20076300000000000000000000000000000000000000000000000000000000000000000076
:0a078300000000000000000000006c
:20078d0000000000000000000000000000000000000000000000000000000000000000004c
:0907ad0000000000000000000043
:2007b600000000000000000000000000000000000000000000000000000000000000000023
:0a07d6000000000000000000000019
:2007e00000380000000000000000000000000000038000000000000000000000000000003e
:09080000000000000000000000ef
:200809000000000000000000000000000000000000000000000000000000000000000000cf
:0a08290000000000000000000000c5
:20083300400000000000000000000000000000000000000000000000000000000000000065
:090853000000000000000000009c
:20085c0000002000000000000000000000000000004000000000000000000000000000001c
:0a087c000000000000000000000072
:20088600000000000000000000000000000000000000000000000000000000000000000052
:0908a60000000000000000000049
:2008af00080000000000000000000000000000000000000000000000000000000000000021
:0a08cf00000000000000000000001f
:2008d9004800000000000000000000000000000000000000000000000000000000000000b7
:0908f900000000000000000000f6
:2009020000c000000000000000000000000000000000000000000000000000000000000015
:0a09220000000000000000000000cb
:20092c00000300000000000000100000000000000000000000000000000000000000000098
:09094c00000000000000000000a2
:2009550000034000000000000001000000000000000000000000000000000000000000003e
:0a0975000000000000000000000078
:20097f00000000000000000000000000000000000000000000000000000000000000000058
:09099f000000000000000000004f
:2009a80000002000000000000000000000000000000000000000000000000000000000000f
:0a09c8000000000000000000000025
:2009d200000004000000000000000000000000000000000000000000000000000000000001
:0909f200000000000000000000fc
:2009fb000000000000000000000000000000000000000000000000000000000000000000dc
:0a0a1b0000000000000000000000d1
:200a25000000000000000000000000000000000000000000000000000000000000000000b1
:090a4500000000000000000000a8
:200a4e00000000000000000000000000000000000000000000000000000000000000000088
:0a0a6e00000000000000000000007e
:200a780000000000000000000000000000000000000000000000000000000000000000005e
:090a980000000000000000000055
:200aa100000000000000000000000000000000000000000000000000000000000000000035
:0a0ac100000000000000000000002b
:200acb004000000000000000000000000000000000000000000000000000000000000000cb
:090aeb0000000000000000000002
:200af4000000200000000000000000000000000000000000000000000000000000000000c2
:0a0b140000000000000000000000d7
:200b1e000000000000000000000000000000000000000000000000000000000000000000b7
:090b3e00000000000000000000ae
:200b4700080000000000000000000000000000000000000000000000000000000000000086
:0a0b67000000000000000000000084
:200b7100400000000000000000000000000000000000000000000000000000000000000024
:090b91000000000000000000005b
:200b9a0000000000000000000000000000000000000000000000000000000000000000003b
:0a0bba000000000000000000000031
:200bc40000030000000000000000000000000000000000000000000000000000000000000e
:090be40000000000000000000008
:200bed000000000000000000000000000000000000000000000000000000000000000000e8
:0a0c0d0000000000000000000000dd
:200c17000000000000000000000000000000000000000000000000000000000000000000bd
:090c3700000000000000000000b4
:200c4000000020000000000000000000000000000000000000000000000000000000000074
:0a0c6000000000000000000000008a
:200c6a0000000000000000000000000000000000000000000000000000000000000000006a
:090c8a0000000000000000000061
:200c9300000000000000000000000000000000000000000000000000000000000000000041
:0a0cb3000000000000000000000037
:200cbd00000000000000000000000000000000000000000000000000000000000000000017
:090cdd000000000000000000000e
:200ce6000000000000000000000000000000000000000000000000000000000000000000ee
:0a0d06000000000060000000000083
:200d10000000000000000000000000000000000000000000000000000000000000000000c3
:090d3000000000000000000000ba
:200d390000000000000000000000000000000000000000000000000000000000000000009a
:0a0d59000000000000000000000090
:200d63000000800000000000000000000000000000000000000000000000000000000000f0
:090d830000000000000000000067
:200d8c00000000000000000000000000000000000040000000000000000000000000000007
:0a0dac00000000000000000000003d
:200db60000000000000000000000000000000000000000000000000000000000000000001d
:090dd60000000000000000000014
:200ddf000800000000000000000000000000000000000000000000000000000000000000ec
:0a0dff0000000000000000000000ea
:200e09000000000000000000000000000000000000000000000000000000000000000000c9
:090e2900000000000000000000c0
:200e32000000000000000000000000000000000000000000000000000000000000000000a0
:0a0e52000000000000000000000096
:200e5c00000100000000000000001000000000000000000000000000000000000000000065
:090e7c000000000000000000006d
:200e850000000000000000000000000000000000000000000000000000000000000000004d
:0a0ea5000000000000000000000043
:200eaf00000000000000000000000000000000000000000000000000000000000000000023
:090ecf000000000000000000001a
:200ed8000000200000000000000000000000000000000000000000000000000000000000da
:0a0ef80000000000000000000000f0
:200f0200440400000000000000000000000000000000000000000000000000000000000087
:090f2200000000000000000000c6
:200f2b0000c280000000000000000000000000000000000000000000000000000000000064
:0a0f4b00000000000000000000009c
:200f550000000000000000000000000000000000000000000000000000000000000000007c
:090f750000000000000000000073
:200f7e0008000000000000000000000000000000000000000000000000000000000000004b
:0a0f9e000000000000000000000049
:200fa8004000000000000000000000000000000000000000000000000000000000000000e9
:090fc80000000000000000000020
:200fd100000000000000000000000000000000000000000000000000000000000000000000
:0a0ff10000000000000000000000f6
:200ffb000000000000000000000000000000000000000000000000000000000000000000d6
:09101b00000000000000000000cc
:2010240000002000000000000000000000000000000000000000000000000000000000008c
:0a10440000000000000000000000a2
:20104e00000000000000000000000000000000000000000000000000000000000000000082
:09106e0000000000000000000079
:20107700000000000000000000000000000000000000000000000000000000000000000059
:0a109700000000000000000000004f
:2010a10000000000000000000000000000000000000000000000000000000000000000002f
:0910c10000000000000000000026
:2010ca000000000000000000000000000000000000280000000000000000000000000000de
:0a10ea0000000000000000000000fc
:2010f4000003000000000000000000000000000000000000000000000000000000000000d9
:09111400000000000000000000d2
:20111d000000000000000000000000000000000000000000000000000000000000000000b2
:0a113d0000000000000000000000a8
:20114700000000000000000000000000000000000000000000000000000000000000000088
:091167000000000000000000007f
:2011700000002000000000000000000000000000000000000000000000000000000000003f
:0a1190000000000000000000000055
:20119a00000000000000000000000000000000000000000000000000000000000000000035
:0911ba000000000000000000002c
:2011c30000000000000000000000000000000000000000000000000000000000000000000c
:0a11e3000000000000000000000002
:2011ed000000000000000000000000000000000000000000000000000000000000000000e2
:09120d00000000000000000000d8
:201216000000000000000000000000000000000000000000000000000000000000000000b8
:0a12360000000000000000000000ae
:2012400000000000000000000000000000000000000000000000000000000000000000008e
:0912600000000000000000000085
:20126900000000000000000000000000000000000000000000000000000000000000000065
:0a128900000000000000000000005b
:2012930000000000000000000000000000000000000000000000000000000000000000003b
:0912b30000000000000000000032
:2012bc000000200000000000000000000000000000400000000000000000000000000000b2
:0a12dc000000000000000000000008
:2012e6000000000000000000000000000000000000000000000000000000000000000000e8
:09130600000000000000000000de
:20130f000000000000000000000000000000000000000000000000000000000000000000be
:0a132f0000000000000000000000b4
:20133900000000000000000000000000000000000000000000000000000000000000000094
:091359000000000000000000008b
:2013620000000000000000000000000000000000000000000000000000000000000000006b
:0a1382000000000000000000000061
:20138c0000030000000000000000000000000000000000000000000000000000000000003e
:0913ac0000000000000000000038
:2013b500010000000000000000000000000000000000000000000000000000000000000017
:0a13d500000000000000000000000e
:2013df000000000000000000000000000000000000000000000000000000000000000000ee
:0913ff00000000000000000000e5
:201408000000200000000000000000000000000000000000000000000000000000000000a4
:0a14280000000000000000000000ba
:2014320000000000000000000000000000000000000000000000000000000000000000009a
:0914520000000000000000000091
:20145b00000000000000000000000000000000000000000000000000000000000000000071
:0a147b000000000000000000000067
:20148500000000000000000000000000000000000000000000000000000000000000000047
:0914a5000000000000000000003e
:2014ae0000000000000000000000000000000000000000000000000000000000000000001e
:0a14ce000000000000000000000014
:2014d8000000000000000000000000000000000000000000000000000000000000000000f4
:0914f800000000000000000000eb
:201501000000000000000000000000000000000000000000000000000000000000000000ca
:0a15210000000000000000000000c0
:20152b00400000000000000000000000000000000000000000000000000000000000000060
:09154b0000000001400000000056
:20155400000020000000000000000000000000000000000000000000000000000000000057
:0a1574000000000008000000000065
:20157e0000000000000000000000000000000000000000000000000000000000000000004d
:09159e0000000000000000000044
:2015a70008000000000000000000000000000000000000000000000000000000000000001c
:0a15c700000000000000000000001a
:2015d1004000000000000000000000000000000000000000000000000000000000000000ba
:0915f100000000000000000000f1
:2015fa000000000000000000000000000000000000000000000000000000000000000000d1
:0a161a0000000000000000000000c6
:201624000003000000000000000000000000000000000000000000000000000000000000a3
:091644000000000000000000009d
:20164d0000000000000000000000000000000000000000000000000000000000000000007d
:0a166d000000000000000000000073
:20167700000000000000000000000000000000000000000000000000000000000000000053
:091697000000000000000000004a
:2016a0000000200000000000000000400000000000000000000000000000000000000000ca
:0a16c0000000000000000000000020
:2016ca00000000000000000000000000000000000000000000000000000000000000000000
:0916ea00000000000000000000f7
:2016f3000000000000000000000000000000000000000000000000000000000000000000d7
:0a17130000000000000000000000cc
:20171d000000000000000000000000000000000000000000000000000000000000000000ac
:09173d00000000000000000000a3
:2017460008000000000000000000000000000000000000000000000000000000000000007b
:0a1766000000000000000000000079
:20177000000000000000000000000000000000000000000000000000000000000000000059
:0917900000000000000000000050
:20179900000000000000000000000000000000000000000000000000000000000000000030
:0a17b9000000000000000000000026
:0217c300000024
:0217c500110110
:0217c70001011e
:2017c9000000020020000000000800000000000020000000000000000000000000000000b6
:0917e900000000000000000000f7
:2017f200000000000240000000000000000000000000000000000000000000000000000095
:0a18120000000000000000000000cc
:20181c00000001000000000000040000000000001000000000040000000000000000000093
:09183c00000000000000000000a3
:20184500000000000000000000000000000000000000000000000000000000000000000083
:0a1865000000000000000000000079
:20186f000000020000000c00000800000000000020000000800000000000000000000000a3
:09188f0000000000000000000050
:2018980000000000000000c000000000000000000000000004000000140000000000000058
:0a18b8000000000000000000000026
:2018c200000000000004000000000000100000000001404000000001100000000000004020
:0918e200000000000001000000fc
:2018eb000000000000000000000000000000000000002000000000000000000000000000bd
:0a190b0000000000000000000000d2
:2019150000000000000c00000000000030000000000000c00000000020180000000000c0be
:09193500000000000003000000a6
:20193e00000000000000000000000000000000000000000000000000000000000000000089
:0a195e00000000000000000000007f
:2019680000000000000000000000000000000000000000000000000000000000000000005f
:0919880000000000000000000056
:20199100000000000000000000000000000000000000000000000000000000000000000036
:0a19b100000000000000000000002c
:2019bb0000000000000000000000000000000000000000000000000000000000000000000c
:0919db0000000000000000000003
:2019e4000000000000000000000000000000000001000000000040000000000001000000a1
:0a1a040000000004000000000000d4
:201a0e0000000000000406000000000010000000000000400000000010000000000000400e
:091a2e00000000000001000000ae
:201a370000000000000000000000000000000000000000000000000000000000000000008f
:0a1a57000000000000000000000085
:201a6100000000000000000000000000000000000000000000000000000000000000000065
:091a81000000000000000000005c
:201a8a0000000000000000000000000000000000000000000000000000000000000000003c
:0a1aaa000000000000000000000032
:201ab4000000000000014140000000002d0af3100000000000000000000000000000000056
:091ad40000000000000000000009
:201add0000000000000086a80000000002d8a540000000000000800000000000000000007c
:0a1afd0000000000000000000000df
:201b07000000000000000000000000020000000000000000000001c00000000000000000fb
:091b2700000000000000000000b5
:201b3000000000000000000000000000040000000000000000000020000000000000000071
:0a1b5000000000000000000000008b
:201b5a00000200000000000000000000000000000000000000000003c000000000000000a6
:091b7a0000000000000000000062
:201b830000000000000000000000000400000000000000000000000000000000000000003e
:0a1ba3000000000000000000000038
:201bad000000000000e00000000000000000000000000000000a00000600008000000000a8
:091bcd000000000000000000000f
:201bd600000030000001000000000000000000000000000000004000025c05484000000093
:0a1bf60000000000000000000000e5
:201c0000000000000000000000400000000000001000000000400020000000000000000014
:091c2000000000000000000000bb
:201c29000000000000000000000400000000000002800000000c001e0000000000000000eb
:0a1c49000000000000000000000091
:201c5300000000007000000000200004000000000000000000a0002000000000000000001d
:091c730000000000000000000068
:201c7c000000000000000000000200007000000000000000000200040000000000000000d0
:0a1c9c000000000008000000000036
:201ca600000200000000000000000243c00000000000000000000002c00000000000000055
:091cc60000000000000000000015
:201ccf000000000000000000000000000000000000000000000000000000000000000000f5
:0a1cef0000000000000000000000eb
:201cf900000000000000000000400000000000000000000000c0000000000000000000be0d
:091d190002800c00000000000033
:201d220000000000000000000004000000000000000000000004000000000000000000edac
:0a1d4200790902c000e00000000073
:201d4c00000000000000000000000000000000000000000000002004000000000000000053
:091d6c000000000000400000002e
:201d7500000000000000000000000000380000000080000000000000200000000000000076
:0a1d950000000000004600000000fe
:201d9f0000000000000000000000000000000000000000000000000000000000000b000019
:091dbf000000000000000000001b
:201dc8000000000000000000000000000000000000000000000000000000000000008180fa
:0a1de80000000000000000000000f1
:201df2000002000000000000000000000000000000000000000000000000000000000d17ab
:091e120002804000000000000005
:201e1b00000000000000000000000000000000000000000000000000000000000000000d9a
:0a1e3b006d09010000000000000026
:201e45001800000000000000000000000000000000000000000000000000000000000ebe99
:091e6500344040000000000000c0
:201e6e0000003000000000000000000000000000000000000000000e000000000000000d09
:0a1e8e0078010000000000000000d1
:201e9800000000000000000000c00040000000000000000000c00040000000010001000028
:091eb80000000c00040000000011
:201ec1000000000000000000000c00200000000000000000000c0020000000003000818078
:0a1ee100000000c002000000000035
:201eeb000000000000000000002001c000000000280000000020000000000000800100002d
:091f0b0000000a000000000000c3
:201f1400000000000000000000020000000000000000000000020000000000000800800021
:0a1f3400000000a000000000000003
:201f3e000002000000000000000000400005504004000000000003c0000550400009001730
:091f5e003440100000000055049d
:201f6700400000000000000000000000014855400000000000000020014855400000700dc1
:0a1f87006c01800000001485540076
:201f91000000000050af380000c000434000000000200000004004400000000003830097f5
:091fb100bc400c00060000000019
:201fba00000000000d81fb42000400260440008000040000000c002000c000800000b80026
:0a1fda006bc801c002e0040008001b
:201fe4000000000050000000000000402e0f50000000000000000040360f50000001801b4f
:09200400000000000443c0f520b7
:20200d00000000000d9a000000000026036805c00000000000000026616805c00000780d7d
:0a202d00e0200000026616805c004f
:202037000000000000900000000400037c0f50000000000000000340240f5000100080b011
:0920570001c000000002c0f50008
:2020600000000000001800000000200007e805c00000000000000020016805c0008038ef7f
:0a20800078002800080016805c00bc
:20208a000002000050000000000000402c0f500000000000000001c0340f5000100d005850
:0920aa003fc000000443c0f50032
:2020b30000000008000000000000000003e805c0000000000000002001e805c000800009fe
:0a20d3008168000000061e805c001a
:2020dd00002c0000000b0000010000023e0f50000000000000000002260f5000002f1a0438
:0920fd003cc000001c02e0f500eb
:2021060000003000000092a00080001e074805c0000000000000000605c805c0000178b0e4
:0a2126002bcc0800026014805c005e
:202130000c00000090f73c00000040022e0f50000000000000000026360f5000000d80d0d9
:09215000304010000023e0f5000e
:20215900048000000d00728040000400674805c0000000000000001e654805c0000038afb4
:0a217900ea000800000654805c0034
:202183008000000000f043cc022000003c0f50000000000000a00000240f500002951090a6
:0921a300000002000002c0f5007a
:2021ac00000000000001073cc08a000003c805c0000000000002000001c805c00028d9a7bd
:0a21cc00a94000a000001c805c0088
:2021d6000002000050c9e500810001c02c0f50400000000000000004340f504001801d90d7
:0921f6002bc201002c03c0f5040a
:2021ff0004000000001812e80000002003c805c0000000000000c00061c805c0000000b399
:0a221f00aa94003002001c805c004d
:2022290000000100000927d400400040260f500000000000004000402e0f5000000000344a
:0922490000000c00040260f50025
:2022520000000000000013fd000c002061e805c00000000000040e2061e805c000001807c3
:0a227200e2000c4012661e805c00c2
:20227c008000000000a0000000002040260f500000000000000800403e0f5000000d90d6e5
:09229c0000000000040360f500dd
:2022a50000000000011b000000000026036805c00000000000000026696805c0000050a1fa
:0a22c5002c200000026036805c004f
:2022cf000000400050a00000000001c0240f500000000000000000002c0f5000000100d31c
:0922ef0080000080004240f5006f
:2022f800000000000d9b000000000000016805c00000000000000000016805c00000800f33
:0a2318006820000000029e805c00b7
:202322000000000000a0000000040000240f500000000000000001403c0f500000098b33d1
:0923420026400000043b40f500b8
:20234b0000000000058000000000200003e805c0000000000000000069e805c00000900077
:0a236b000599040000003e805c00ac
:20237500000000000000000000040002260f500000000000000014022e0f500000000a0010
:0923950014043000822260f500fe
:20239e000000300000000000000080066d4805c00000000000000086054805c000005813ec
:0a23be00b140220005c754805c0006
:2023c800000000000000000000040822260f500000000000000000023e0f500000050a0094
:0923e8000000000a402360f5002a
:2023f10000000000000000000000001c674805c00000000000000000654805c0000091b089
:0a24110000000000140674805c0057
:20241b00800000180103740000a00003240f500000000000002001602c0f500280050b00cd
:09243b0000000200000240f5005f
:2024440000000000001ebbe000020a006dc805c0020000000002000401c805c0080081a0fa
:0a246400000000a040001c805c0096
:20246e0008000000f00bb4000000000425bf50000400000000000bc03ccf5000000000bb7a
:09248e00c000100000035df50020
:2024970000000000080ef302000000003bd905c0080000000000012001d805c0020058011f
:0a24b700a80400000006bdc05c0090
:2024c100000000000000000000000240000000001000000000000142a4e0a2100001081e09
:0924e100800000003639ec000017
:2024ea000000000000080000000000000000000002800000000000363f5a04000018801dc0
:0a250a006420000003e06fe0100001
:202514008000000010b00000000a00000000000000000000000000c0000000000001000894
:0925340015400000004000000009
:20253d0000000000000000000000400000000000000000000000403e680000000000998738
:0a255d00a1550000000280000000fc
:202567000000000000c00000000000000000000000000000000001402c0db000000000006a
:0925870003c00000243c00000028
:202590000000000000090000000000000000000000000000000000042800e70240000005c8
:0a25b000a3c30000000000000000bb
:2025ba00c0000000000b4000200000000000000000100000000000031d0c2000000f00006b
:0925da0003c000000000e900004c
:2025e300000000000000f3a0008000000000000000000000000040002cfc80038000000753
:0a260300a3c3000001e026a80010a8
:20260d0000000000000b41400000000415e00000000000000000002001a0200000850008ba
:09262d0003c00000000270ba00b5
:20263600000020000000822800000000787b8028000000000000001e00fe020000001807e2
:0a26560023c30000000616ee542016
:202660000000000070098000200002c00000000000000000000000602cc200000000080821
:0926800003c00100340030090020
:202689000400000800003aa000800000000000000000000000000024000b1000800000b557
:0a26a90023c30000020005e09020aa
:2026b30080000000000fc000000002c00000000000000000000000043ee0000080000a004a
:0926d30003c002000001ecad009f
:2026dc000000000000003fa80000002100000000000000000000000073df080028005007fd
:0a26fc0023c300200003afeaf00042
:202706000002000000e0000000000000000000000000000000000000000f004c0000000076
:0927260003c10000243c00ff0186
:20272f000400000000010000000000000000000000000000000000000008f008000000077e
:0a274f0023c300000006400ff00055
:20275900000000000000000000400000000000000000000000000000008000000001000897
:0927790003c00000000000000094
:202782000400000000000000000c000000000000000000000000000000000080000081879f
:0a27a200a3c30000000000000000c7
:2027ac008000000000000000000000040000000000000000000000000090000000010008f0
:0927cc0003c00000022c00000013
:2027d500000000000000000000000000700000000000000000000000000000800000980557
:0a27f500a3c3000001400000000033
:2027ff000000000000000000000002c000000000000000000000000000d000000000000028
:09281f0003c000000000000000ed
:202828000400000000000000000000200000000000000000000000002801008000000005be
:0a284800a3c3000000000000000020
:2028520000020000000000000000000000000000000000000000000000800000000f0000d5
:0928720003c00000340000000066
:20287b000000000000000000000000000000000000000000000000000000008000000007b6
:0a289b00a3c30000000000000000cd
:2028a500100000000000000000000000000000000000000000000000009000000000080863
:0928c50003c00000000000000047
:2028ce0000003000000a000000000000000000000000000000000000000100800000181502
:0a28ee0023c30000000000000000fa
:2028f800080000000100000000c0004000000000000000000000000280a000000000080885
:0929180003c000000000000000f3
:202921000400000000080000000c0020000000000000000000000014000000800000019534
:0a29410023c30000000000000000a6
:20294b008000000000d0c3d40120000000000000000000000000014000b0000080000000f3
:09296b0003c0000000024f00103f
:2029740000000000000156bd40020000000000000000000000000000280000802800000716
:0a29940023c300000006ace0800041
:20299e00002a000000090294000000400005505004000000000001638080002000000000e3
:0929be0003c1000000000000004c
:2029c700040040000000801680000000014855400000000000000014040100800000000718
:0a29e70023c3000000000000000000
:2029f100000000007007e64040c00040020000000000000000000142bee0000002010008fb
:092a110003c000000000000000f9
:202a1a0004000000000092a800040a260040008000000000000000366fdf080000008187d6
:0a2a3a00a3c300000000000000002c
:202a440080000000b9000000000000403e0f5080000000000000014294d21000000100081a
:092a640003c000001c000000008a
:202a6d00000000000f08000000000026396805c00000000000000014681d1240000098051e
:0a2a8d00a3c30000000000000000d9
:202a97000c38000000076440800000002c0f500000200000000000020c0f50000000000098
:092ab70003c00000000000000053
:202ac00004404000000083081430000001e805c00001000000000006060afa40040000059b
:0a2ae000a3c3000000000000000086
:202aea000002000000890140000003c03c0f5000000000000000014296b000000007000012
:092b0a0003c000000438000000c3
:202b130000000000000192801040002039e805c00000000000000036677c80000000800719
:0a2b3300a3c3000001c00000000071
:202b3d00000000000007e468000000022e0f50000040000000000002ae00f00000000808a6
:092b5d0003c000000000000000ac
:202b6600000030000000b2009000000e054805c00000000000000014004a004000001815f2
:0a2b860023c3000000c0000000009f
:202b900008003000f109b500000008023e0f5000000000000000016026d20000000008082e
:092bb00003c004000001405010b4
:202bb90004000300000c179918000140654805c00000000000000004624b00000000019527
:0a2bd90023c300c000002ce004003c
:202be300800028001099796c012060002c0f5000000000000020000666c00000a80000009c
:092c030003c002014000000000c2
:202c0c000000028008001b29400a000001c805c0002800000003010066cc0800290000076c
:0a2c2c0023c300a008000000000010
:202c36000022000008a0000000004003fc0f504002000000000003c27de0000000000000b2
:092c560003c100000000000000b1
:202c5f0004004000031800000000000001c805c000000000000000202fce0800000000073c
:0a2c7f0023c3000000000000000065
:202c8900000000005080000000400040260f500000000000000001620000000000000008eb
:092ca90003c0000200000000005d
:202cb20000000000059f00000004002061e805c0000000000000002e040000000000018772
:0a2cd200a3c3000000000000000092
:202cdc008000000050a7340800000040360f500000000000000000001f00500000000008d9
:092cfc0003c0000000000000000c
:202d0500000000000d0b338000000026036805c0000000000000000002de50400000000518
:0a2d2500a3c300000000000000003e
:202d2f000000000000a0000000000003a40f500000000000000000000c00f00008008b004f
:092d4f003c00000000000000003f
:202d580000000000051b000000000000016805c00000000000000016017e004001005001e6
:0a2d780023c20000c00000000000ac
:202d82000002000050a00000000003e0340f5010000000000000000000000000000f100892
:092da2003c0000000000000000ec
:202dab0000000000059a00000000003403e805c0000000000000001668000000000000a166
:0a2dcb0023c2000000000000000019
:202dd50000000000000ba80000000006260f500000400000000000001e00f0000000080842
:092df5003c000000000000000099
:202dfe00000020000000bb20000000063d4805c00000000000000006035e0040000058115a
:0a2e1e00a3c2000000000000000045
:202e2800000000009801c00000001002360f50000000000000000040000000000000000842
:092e48003c000000000000000045
:202e51000000000001007a2000800080674805c000000000000000206000000000000003cf
:0a2e710023c2000000000000000072
:202e7b00800000000007b000002076c0240f500010000000002000000000000080000a006d
:092e9b003c00000c0000000000e6
:202ea400000000000000fac2000a00a001c805c002000000000200000000000028000015d9
:0a2ec400a3c200000000000000009f
:202ece00000200001007fc000000000434df500004000000000003c01c005000000500032d
:092eee004000000000000000009b
:202ef700000000000818b382000000007bcd05c0000000000000002002ea5040000081a399
:0a2f1700840200000000000000002a
:022f21000000ae
:022f2300110299
:022f25000101a8
:202f270000000000000000000000000000000000000000000000000000000000000000008a
:092f470000000000000000000081
:202f5000000000000000000000000000000000000000000000000000000000000000000061
:0a2f70000000000000000000000057
:202f7a000000000000000000000000000000000000000000000000000000008000000000b7
:092f9a000000000000000000002e
:202fa30000000000000000000000000000000000000000000000000000000000000000000e
:0a2fc3000000000000000000000004
:202fcd000000000000000000000000000000000000000000000000000000000000000000e4
:092fed00000000000000000000db
:202ff6000000000000000000000000000000000000000000000000000000000000000000bb
:0a30160000000000000000000000b0
:203020000000000000080000000000002000000000080000000000002000000000000080c0
:0930400000000000000200000085
:20304900000000000000000000000000000000000000000000000000000000000000000067
:0a306900000000000000000000005d
:2030730000000000000c00000000000030000000000c00000000000030000000000000c005
:0930930000000000000300000031
:20309c00000000000000000000000000000000000000000000000000000000000000000014
:0a30bc00000000000000000000000a
:2030c6000000000000000000000000000000000000000000000000000000000000000000ea
:0930e600000000000000000008d9
:2030ef000000000000000000000000000000000000000000000000000000000000000000c1
:0a310f0000000000000000000000b6
:20311900000000000000000000000000000000000000000000000000000000000000000096
:093139000000000000000000008d
:20314200000000000000000000000000000000000000000000000000000000080000000065
:0a31620000002000000002000080c1
:20316c00000000000008000000000000200000000008000000000000200000000000008073
:09318c0000000000000200000038
:2031950000000000000000000000000000000000000000000000000000000000000000001a
:0a31b500000000000000020000000e
:2031bf000000000000000000000000000000000000000000000000000000000000000000f0
:0931df00000000000000000000e7
:2031e80000002000000000000000000000000000000000000800000000000000000000009f
:0a32080000000000000000000000bc
:2032120000000000000000000000000000000000000000000000000000000000000000009c
:0932320000000000000000000093
:20323b00000000000000000000000000000000000000000000000000000000000000000073
:0a325b000000000000000000000069
:20326500000000000000000000000000000000000000000000000000000000000000000049
:0932850000000000000000000040
:20328e00000000000000000000000000000000000000000000000000000000000000000020
:0a32ae000000000000000000000016
:2032b8000003000000000000000000000000000000000000000000000000000000000000f3
:0932d800000000000000000000ed
:2032e1000000000000000000000000000000000000000000000000000000000000000000cd
:0a33010000000000000000000000c2
:20330b000000000000000000000000000000000000000000000000000000000000000000a2
:09332b0000000000000000000099
:20333400000020000000000000000000000000000000000000000000000000000000000059
:0a335400000000000000000000006f
:20335e0000000000000000000000000000000000000000000000000000000000000000004f
:09337e0000000000000000000046
:20338700000000000000000000000000000000000000000000000000000000000000000026
:0a33a700000000000000000000001c
:2033b1000000000000000000000000000000000000000000000000000000000000000000fc
:0933d100000000000000000000f3
:2033da000000000000000000000000000000000000000000000000000000000000000000d3
:0a33fa0000000000000000000000c9
:203404000000000000000000000000000000000000000000000000000000000000000000a8
:093424000000000000000000009f
:20342d0000000000000000000000000000000000000000000000000000000000000000007f
:0a344d000000000000000000000075
:20345700000000000000000000000000000000000000000000000000000000000000000055
:093477000000000000000000004c
:2034800000002000000000000000000000000000000000000000000000000000000000000c
:0a34a0000000000000000000000022
:2034aa00000000000000000000000000000000000000000000000000000000000000000002
:0934ca00000000000000000000f9
:2034d3000000000000000000000000000000000000000000000000000000000000000000d9
:0a34f30000000000000000000000cf
:2034fd000000000000000000000000000000000000000000000000000000000000000000af
:09351d00000000000000000000a5
:20352600000000000000000000000000000000000000000000000000000000000000000085
:0a354600000000000000000000007b
:20355000000300000000000000000000000000000000000000000000000000000000000058
:093570000000000000000008004a
:20357900000000000000000000000000000000000000000000000000000000000000000032
:0a3599000000000000000000000028
:2035a300000000000000000000000000000000000000000000000000000000000000000008
:0935c300000000000000000000ff
:2035cc000000200000000000000000000000000000000000000000000000000000000000bf
:0a35ec0000000000000000000000d5
:2035f6000000000000000000000000000000000000000000000000000000000000000000b5
:09361600000000000000000000ab
:20361f0000000000000000000000000000000000000000000000000000000000000000008b
:0a363f000000000000000000000081
:20364900000000000000000000000000000000000000000000000000000000000000000061
:0936690000000000000000000058
:20367200000000000000000000000000000000000000000000000000000000000000000038
:0a369200000000000000000000002e
:20369c0000000000000000000000000000000000000000000000000000000000000000000e
:0936bc0000000000000000000005
:2036c5000000000000000000000000000000000000000000000000000000000000000000e5
:0a36e50000000000000000000000db
:2036ef000000000000000000000000000000000000000000000000000000000000000000bb
:09370f00000000000000000000b1
:20371800000020000000000000000000000000000000000008000000000000000000000069
:0a3738000000000000000000000087
:20374200000000000000000000000000000000000000000000000000000000000000000067
:093762000000000000000000005e
:20376b0000000000000000000000000000000000000000000000000000000000000000003e
:0a378b000000000000000000000034
:20379500000000000000000000000000000000000000000000000000000000000000000014
:0937b5000000000000000000000b
:2037be000000000000000000000000000000000000000000000000000000000000000000eb
:0a37de0000000000000000000000e1
:2037e8000001000000000000000000000000000000000000000000000000000000000000c0
:09380800000000000000000000b7
:20381100000000000000000000000000000000000000000000000000000000000000000097
:0a383100000000000000000000008d
:20383b0040000000000000000000000000000000000000000000000000000000000000002d
:09385b0000000000000000000064
:20386400000020000000000000000000000000000000000000000000000000000000000024
:0a388400000000000000000000003a
:20388e0000000000000000000000000000000000000000000000000000000000000000001a
:0938ae0000000000000000000011
:2038b7000000000000000000000000000000000000000000000000000000000000000000f1
:0a38d70000000000000000000000e7
:2038e1000000000000000000000000000000000000000000000000000000000000000000c7
:09390100000000000000000000bd
:20390a00080000000000000000000000000000000000000000000000000000000000000095
:0a392a000000000000000000000093
:20393400000000000000000000000000000000000000000000000000000000000000000073
:093954000000000000000000006a
:20395d0000000000000000000000000000000000000000000000000000000000000000004a
:0a397d000000000000000000000040
:20398700000000000000000000000000000000000000000000000000000000000000000020
:0939a70000000000000000000017
:2039b0000000200000000000000000000000000000000000000000000000000000000000d7
:0a39d00000000000000000000000ed
:2039da000000000000000000000000000000000000000000000000000000000000000000cd
:0939fa00000000000000000000c4
:203a030008000000000000000000000000000000000000000000000000000000000000009b
:0a3a23000000000000000000180081
:203a2d00000000000000000000000000000000000000000000000000000000000000000079
:093a4d0000000000000000000070
:203a5600000000000000000000000000000000000000000000000000000000000000000050
:0a3a76000000000000000000000046
:203a8000000300000000000000000000000000000000000000000000000000000000000023
:093aa0000000000000000000001d
:203aa9000000000000000000000000000000000000000000000000000000000000000000fd
:0a3ac90000000000000000000000f3
:203ad3000000000000000000000000000000000000000000000000000000000000000000d3
:093af300000000000000000000ca
:203afc0000002000000000000000000000000000000000000000000000000000000000008a
:0a3b1c00000000000000000000009f
:203b260000000000000000000000000000000000000000000000000000000000000000007f
:093b460000000000000000000076
:203b4f00000000000000000000000000000000000000000000000000000000000000000056
:0a3b6f00000000000000000000004c
:203b790000000000000000000000000000000000000000000000000000000000000000002c
:093b990000000000000000000023
:203ba200000000000000000000000000000000000000000000000000000000000000000003
:0a3bc20000000000000000000000f9
:203bcc000000000000000000000000000000000000000000000000000000000000000000d9
:093bec00000000000000000000d0
:203bf5000000000000000000000000000000000000000000000000000000000000000000b0
:0a3c150000000000000000000000a5
:203c1f00000000000000000000000000000000000000000000000000000000000000000085
:093c3f000000000000000000007c
:203c4800000020000000000000000000000000000000000008000000000000000000000034
:0a3c68000000000000000000000052
:203c7200000000000000000000000000000000000000000000000000000000000000000032
:093c920000000000000000000029
:203c9b00000000000000000000000000000000000000000000000000000000000000000009
:0a3cbb0000000000000000000000ff
:203cc5000000000000000000000000000000000000000000000000000000000000000000df
:093ce500000000000000000000d6
:203cee000000000000000000000000000000000000000000000000000000000000000000b6
:0a3d0e0000000000000000000000ab
:203d1800000300000000000000000000000000000000000000000000000000000000000088
:093d380000000000000000000082
:203d4100000000000000000000000000000000000000000000000000000000000000000062
:0a3d61000000000000000000000058
:203d6b00000000000000000000000000000000000000000000000000000000000000000038
:093d8b000000000000000000002f
:203d94000000200000000000000000000000000000000000000000000000000000000000ef
:0a3db4000000000000000000000005
:203dbe000000000000000000000000000000000000000000000000000000000000000000e5
:093dde00000000000000000000dc
:203de7000000000000000000000000000000000000000000000000000000000000000000bc
:0a3e070000000000000000000000b1
:203e1100000000000000000000000000000000000000000000000000000000000000000091
:093e310000000000000000000088
:203e3a00000000000000000000000000000000000000000000000000000000000000000068
:0a3e5a00000000000000000000005e
:203e640000000000000000000000000000000000000000000000000000000000000000003e
:093e840000000000000000000035
:203e8d00000000000000000000000000000000000000000000000000000000000000000015
:0a3ead00000000000000000000000b
:203eb70040000000000000000000000000000000000000100000000000000000000000009b
:093ed700000000000000000000e2
:203ee0000000200000000000000000000000000000000000000000000000000000000000a2
:0a3f000000000000000000000000b7
:203f0a00000000000000000000000000000000000000000000000000000000000000000097
:093f2a000000000000000000008e
:203f33000803c00000000000000000000000000000000000000000000000000000000000a3
:0a3f53000000000000000000000064
:203f5d00400000000000000000000000000000000000000000000000000000000000000004
:093f7d000000000000000000003b
:203f860000c00000000000000000000000000000000000000000000000000000000000005b
:0a3fa6000000000000000000000011
:203fb0000003000000000000000000000000000000000000000000000000000000000000ee
:093fd000000000000000000800e0
:203fd9000000000000000000000000000000000000000000000000000000000000000000c8
:0a3ff90000000000000000000000be
:2040030000000000000000000000000000000000000000000000000000000000000000009d
:0940230000000000000000000094
:20402c00000020000000000000000000000000000000000000000000000000000000000054
:0a404c00000000000000000000006a
:2040560000000000000000000000000000000000000000000000000000000000000000004a
:094076000000000000000002003f
:20407f00000000000000000000000000000000000000000000000000000000000000000021
:0a409f0000000000000000004000d7
:2040a9000000000000000000000000000000000000000000000000000000000000000000f7
:0940c900000000000000000000ee
:2040d2000800000000000000000000000000000000000000000000000000000000000000c6
:0a40f20000000000000000000000c4
:2040fc000000000000000000000000000000000000000000000000000000000000000000a4
:09411c000000000000000000009a
:2041250000000000000000000000000000000000000000000000000000000000000000007a
:0a4145000000000000000000000070
:20414f00000000000000000000000000000000000000000000000000000000000000000050
:09416f0000000000000000000047
:204178000000200000000000000000000000000000000000080000000000000000000000ff
:0a419800000000000000000000001d
:2041a2000000000000000000000000000000000000000000000000000000000000000000fd
:0941c200000000000000000000f4
:2041cb000800000000000000000000000000000000000000000000000000000000000000cc
:0a41eb0000000000000000000000ca
:2041f5000000000000000000000000000000000000000000000000000000000000000000aa
:09421500000000000000000000a0
:20421e00000000000000000000000000000000000000000000000000000000000000000080
:0a423e000000000000000000000076
:20424800000200000000000000000000000000000000000000000000000000000000000054
:094268000000000000000000004d
:2042710000000000000000000000000000000000000000000000000000000000000000002d
:0a4291000000000000000000000023
:20429b00000000000000000000000000000000000000000000000000000000000000000003
:0942bb00000000000000000000fa
:2042c4000000200000000000000000000000000000000000000000000000000000000000ba
:0a42e40000000000000000000000d0
:2042ee00400000000000000000000000000000000000000000000000000000000000000070
:09430e00000000000000000000a6
:20431700000000000000000000000000000000000000000000000000000000000000000086
:0a433700000000000000000000007c
:2043410000000000000000000000000000000000000000000000000000000000000000005c
:0943610000000000000000000053
:20436a0008000000000000000000000000000000000000000000000000000000000000002b
:0a438a000000000000000000000029
:204394004000000000000000000000000000000000000000000000000000000000000000c9
:0943b40000000000000000000000
:2043bd000000000000000000000000000000000000000000000000000000000000000000e0
:0a43dd0000000000000000000000d6
:2043e7000000000000000000000000000000000000000000000000000000000000000000b6
:09440700000000000000020000aa
:2044100000002000000000000000000000000000000000000000000000000000000000006c
:0a4430000000000000000000000082
:20443a00000000000000000000000000000000000000000000000000000000000000000062
:09445a0000000000000000000059
:20446300000000000000000000000000000000000000000000000000000000000000000039
:0a448300000000000000000000002f
:20448d0000000000000000000000000000000000000000000000000000000000000000000f
:0944ad0000000000000000000006
:2044b6000000000000000000000000000000000000000000000000000000000000000000e6
:0a44d60000000000000000000000dc
:2044e0000003000000000000000000000000000000000000000000000000000000000000b9
:09450000000000000000000000b2
:20450900000000000000000000000000000000000000000000000000000000000000000092
:0a4529000000000000000000140074
:20453300000000000000000000000000000000000000000000000000000000000000000068
:094553000000000000000000005f
:20455c0000002000000000000000000000000000000000000000000000000000000000001f
:0a457c000000000000000000000035
:20458600000000000000000000000000000000000000000000000000000000000000000015
:0945a6000000000000000000000c
:2045af000000000000000000000000000000000000000000000000000000000000000000ec
:0a45cf0000000000000000000000e2
:2045d9000000000000000000000000000000000000000000000000000000000000000000c2
:0945f900000000000000000000b9
:20460200000000000000000000000000000000000000000000000000000000000000000098
:0a462200000000000000000000008e
:20462c0000000000000000000000000000000000000000000000000000000000000000006e
:09464c0000000000000000000065
:20465500000000000000000000000000000000000000000000000000000000000000000045
:0a467500000000000000000000003b
:02467f00000039
:02468100110323
:02468300010133
:20468500000000000000000000000000000000000000000010000000000000000000000005
:0946a5000000000000000000000c
:2046ae000000000000000000000000000000000000000000000000000000000000000000ec
:0a46ce0000000000000000000000e2
:2046d800000000000000000000000000000000000000000020000000000000800000000022
:0946f800000200000000000000b7
:20470100000000000000000000000000000000000000000000000000000000000000000098
:0a472100000000000000000000008e
:20472b00000000000000000000000000000000000800000010000000000000000000000056
:09474b0000000000000000000065
:204754000000000000000000000000000000000000c0000000000000000000000000000085
:0a477400000000000000000000003b
:20477e00000000000008000000000000000000000000000000000000200000000000008073
:09479e0000000000000200000010
:2047a7000000000000000000000000000000000000000000000000000000000000000000f2
:0a47c70000000000000000000000e8
:2047d10000000000000c00000000000030000000000c1c000000000030000000000000c074
:0947f100000000000003000000bc
:2047fa0000000000000000000000000000000000000001000000000000000000000000009e
:0a481a000000000000000000000094
:204824000000000000000000000000000000008000000000000000000000000000000000f4
:094844000000000000000000006b
:20484d0000000000000000000000000000000000000000000000000000000000000000004b
:0a486d000000000000000000000041
:20487700000000000000000000000000000000000000000000000000000000000000000021
:0948970000000000000000000018
:2048a0000000000000000000000000000000000800000000020000000020000800000000c6
:0a48c000000020000000000000804e
:2048ca000000000000080000000000002000000000080000000000002000000000000080fe
:0948ea00000000000002000000c3
:2048f3000000000000000000000000000000000000000000000000000000000000000000a5
:0a491300000000000000000000009a
:20491d0000000000000000000000000000000000000000000000000000000000000000007a
:09493d0000000000000000000071
:20494600000000000000000000000000000000000000000000000000000000000000000051
:0a4966000000000000000000000047
:20497000000000000000000000000000000000000000000000000000000000000000000027
:094990000000000000000000001e
:204999000000000000000000000000000000000000000000000000000000000000000000fe
:0a49b90000000000000000000000f4
:2049c3000000000000000000000000000000000000000000000000000000000000000000d4
:0949e300000000000000000000cb
:2049ec000000000000000000000000000000000000000000000000000000000000000000ab
:0a4a0c0000000000000000000000a0
:204a160000020000000000000000000000000000000000000000000000000000000000007e
:094a360000000000000000000077
:204a3f00000000000000000000000000000000000000000000000000000000000000000057
:0a4a5f00000000000000000000004d
:204a690000000000000000000000000000000000000000000000000000000000000000002d
:094a890000000000000000000024
:204a92000000300000000000000000000000000000000000000000000000000000000000d4
:0a4ab20000000000000000000800f2
:204abc000000000000000000000000000000000000000000000000000000000000000000da
:094adc00000000000000000000d1
:204ae5000000000000000000000000000000000000000000000000000000000000000000b1
:0a4b050000000000000000000000a6
:204b0f00000000000000000000000000000000000000000000000000000000000000000086
:094b2f000000000000000000007d
:204b380000000000000000000000000000000000000000000000000000000000000000005d
:0a4b58000000000000000000000053
:204b6200000200000000000000000000000000000000000000000000000018000000000019
:094b82000000000000000000002a
:204b8b0000000000000000000000000000000000000000000000000000000000000000000a
:0a4bab000000000000000000000000
:204bb5000000000000000000000000000000000000000000000000000000000000000000e0
:094bd500000000000000000000d7
:204bde000400000000000000000000000000000000000000000000000000000000000000b3
:0a4bfe0000000000000000000000ad
:204c080080000000000000000000000000000000000000000000000000000000000000000c
:094c280000000000000000000083
:204c3100000000000000000000000000000000000000000000000000000000000000000063
:0a4c51000000000000000000000059
:204c5b000000000000000000000000000000800000000000000000000000000000000000b9
:094c7b0000000000000000000030
:204c8400040000000000000000000000000004000000000000000000000000000000000008
:0a4ca4000000000000000000000006
:204cae000000000000000000000000000000000000000000000000000000000000000000e6
:094cce00000000000000000000dd
:204cd7000000000000000000000000000000000000000000000000000000000000000000bd
:0a4cf70000000000000000000000b3
:204d0100000000000000000000000000000000000000000000000000000000000000000092
:094d210000000000000000000089
:204d2a00000030000000000000000000000000000000000000000000000000000000000039
:0a4d4a00000000000000000054000b
:204d540000000000000000000000000000000000000000000000000000000000000000003f
:094d740000000000000000000036
:204d7d00000000000000000000000000000000000000000000000000000000000000000016
:0a4d9d00000000000000000000000c
:204da70080000000000000000000000000000000000000000000000000000000000000006c
:094dc700000000000000000000e3
:204dd0000000000000000000000000000000000000000000000000000000000000000000c3
:0a4df00000000000000000000000b9
:204dfa00000200000000000000000000000000000000000080000000000000000000000017
:094e1a000000000000000001008e
:204e230000000400000000000000000000000000000000000000000000000000000000006b
:0a4e43000000000000000000000065
:204e4d00000000000000000000000000000000000000000000000000000000000000000045
:094e6d0000000000000000e0005c
:204e760000000000000000000000000000000000000000000000000000000000000000001c
:0a4e96000000000000000000000012
:204ea000800000000000000000000000000000000000000000000000000000000000000072
:094ec00000000000002b0080003e
:204ec9000000000000000000000000000000000000000000000000000000000000000000c9
:0a4ee900000000110056f001000067
:204ef30000000000000000000000000000000000000000000000000000000000000000009f
:094f13000000000001cc000000c8
:204f1c00000000000000000000000000000000000000000000000000000000000000000075
:0a4f3c0000000000202da00000007e
:204f46008002000000000000000000000000000000000000000000000000000000000000c9
:094f6600000000000000019000b1
:204f6f0004000000000000000000000000000000000000000000000000000000000000001e
:0a4f8f00000000000000000f000009
:204f99000000000000000000000000000000000000000000000000000000000000000000f8
:094fb9000000000000005000009f
:204fc2000000100000000000000000000000000000000000000000000000000000000000bf
:0a4fe200000000000000053a100076
:204fec000000000000000000000000000000000000000000000000000000000000000000a5
:09500c0000000000000050a000ab
:2050150000000000000000000000000000000000000000000000000000000000000000007b
:0a5035000000000000000d810000e3
:20503f008000000000000000000000000000000000000010000000000000000000000000c1
:09505f0000000000000000a000a8
:205068000000000000000000000000000000000000000000800000000000000000000000a8
:0a508800000000000000000100001d
:205092000000000000000000000000000000000000000000000000000000000000000000fe
:0950b20000000000005b0000009a
:2050bb000000000000000000000000000000000000000000000000000000000000000000d5
:0a50db00000000000074a0000000b7
:2050e5000000000000000000000000000000000000000000000000000000000000000000ab
:095105000000000000da00f000d7
:20510e0004000000000000000000000000000000000000000000000000000000000000007d
:0a512e0000000000041490010000ce
:205138008000000000000000000000000000000000000000000000000000000000000000d7
:09515800000000000369080000da
:2051610000000000000000000000000000000000000000000000000000000000000000002e
:0a51810000000000006591800000ae
:20518b000c00000000000000000000000000000000000000000000000000000000000000f8
:0951ab00000000000000000000fb
:2051b400048000000000000000000000000000000000000000000000000000000000000057
:0a51d40000000000000000000000d1
:2051de000002000000000000000000000000000000000000000000000000000000000000af
:0951fe00000000000000010000a7
:20520700000000000000000000000000000000000000000000000000000000000000000087
:0a522700000000000000000a000073
:2052310000400000000000000000000000000000000000000000000000000000000000001d
:0952510000000000000000a800ac
:20525a00000330000000000000000000000000000000000000000000000000000000000001
:0a527a0000000000000005810000a4
:2052840000000000000000000000000000000000000000000000000000000000000000000a
:0952a400000000017c0f00000075
:2052ad000000000000000000000000000000000000000000000000000000000000000000e1
:0a52cd00000000022bde001a0000b2
:2052d7000000000000000000000000000000000000000000000000000000000000000000b7
:0952f7000000000000005000005e
:2053000000000000000000000000000000000002000000000000000000000000000000008b
:0a532000000000000000081a000061
:20532a000002000000000000000000000000000000000000800000000000000000000000e1
:09534a000000000000005000000a
:2053530000000000000000000000000000000000000000000000000000000000000000003a
:0a5373000000000000000d800000a3
:20537d00000000000000000000000000000000000000000000000000000000000000000010
:09539d0000000000000000000007
:2053a6000000000000000000000000000000000000000000000000000000000000000000e7
:0a53c60000000000000000000000dd
:2053d00080000000000000000000000000000000000000000000000000000000000000003d
:0953f000000000000000000000b4
:2053f900000000000000000000000000000000000000000000000000000000000000000094
:0a5419000000000000000000000089
:20542300000000000000000000000000000000000000000000000000000000000000000069
:0954430000000000000000000060
:20544c00000000000000000000000000000000000000000000000000000001c0000000007f
:0a546c000000000000000000000036
:20547600000000000000000000000000000000000000000000000000000000000000000016
:095496000000000000000000000d
:20549f000000000000000000000000000000000000000000000000000000000000000000ed
:0a54bf0000000000000000000000e3
:2054c9000000000000000000000000000000000000000000000000000000000000000000c3
:0954e9000000000000000000803a
:2054f20000000000000000000000000000000000000000000000000000000000000000009a
:0a551200000000000000000000008f
:20551c0000000000000000000000000000000000000000000000000000000000000000006f
:09553c0000000000000000000066
:20554500000000000000000000000000000000000000000000000000000000000000000046
:0a556500000000000000000000003c
:20556f0080000000000000000000000000000000000000000000000000000000000000009c
:09558f0000000000000000001003
:205598000000000000000000000000000000000000000000000000000000000000000000f3
:0a55b800000000000000000001c028
:2055c2000000000000000000000000000000000000000000080000000000000000000000c1
:0955e200000000000000000000c0
:2055eb000000000000000000000000000000000000000000000000000000000000000000a0
:0a560b000000000000000000000095
:20561500000000000000000000000000000000000000000000000000000000000000000075
:095635000000000000000000006c
:20563e0000000000000000000000000000000000000000000000000000000000000000004c
:0a565e000000000000000000000042
:205668008000000000000000000000000000000000000000000000000000000000000000a2
:0956880000000000000000000019
:205691000000000000000000000000000000000000000000000000000000000000000000f9
:0a56b10000000000000000000000ef
:2056bb000000000000000000000000000000000000000000000000000000000000000000cf
:0956db00000000000000000000c6
:2056e4000000000000000000000000000000000000000000000000000000000000000000a6
:0a570400000000000000000000009b
:20570e00000200000000000000000000000000000000000000000000000000000000000079
:09572e0000000000000000000072
:20573700000000000000000000000000000000000000000000000000000000000000000052
:0a5757000000000000000000000048
:20576100000000000000000000000000000000000000000000000000000000000000000028
:095781000000000000000000001f
:20578a000000300000000000000000000000000000000000000000000000000000000000cf
:0a57aa0000000000000000002000d5
:2057b4000000000000000000000000000000000000000000000000000000000000000000d5
:0957d400000000000000000000cc
:2057dd000000000000000000000000000000000000000000000000000000000000000000ac
:0a57fd0000000000000000000000a2
:20580700800000000000000000000000000000000000000000000000000000000000000001
:0958270000000000000000001464
:20583000000000000000000000000000000000000000000000000000000000000000000058
:0a58500000000000000000000080ce
:20585a000002000000000000000000000000000000000000800000000000000000000000ac
:09587a0000000000000000000025
:20588300000000000000000000000000000000000000000000000000000000000000000005
:0a58a30000000000000000000000fb
:2058ad000000000000000000000000000000000000000000000000000000000000000000db
:0958cd00000000000000000400ce
:2058d600000000000000000000000000000000000000000080000000000000000000000032
:0a58f6000000000000000000200088
:20590000000000000000000000000000000000000000000000000000000000000000000087
:095920000000000000000000007e
:2059290000000000000000000000000000000000000000000000000000000000000000005e
:0a5949000000000000000000000054
:20595300000000000000000000000000000000000000000000000000000000000000000034
:0959730000000000000000040027
:20597c0000000000000000000000000000000000000000000000000000000000000000000b
:0a599c0000000000000000006000a1
:2059a6000002000000000000000000000000000000000000000000000000000000000000df
:0959c600000000000000000000d8
:2059cf000000000000000000000000000000000000000000000000000000000000000000b8
:0a59ef0000000000000000000000ae
:2059f90000000000000000000000000000000000000000000000000000000000000000008e
:095a190000000000000000000084
:205a2200000030000000000000000000000000000000000000000000000000000000000034
:0a5a4200000000000000000040100a
:205a4c0000000000000000000000000000000000000000000000000000000000000000003a
:095a6c0000000000000000000031
:205a7500000000000000000000000000000000000000000000000000000000000000000011
:0a5a95000000000000000000000007
:205a9f000000000000000000000000000000000000000000000000000000000000000000e7
:095abf00000000000000000000de
:205ac8000000000000000000000000000000000000000000000000000000000000000000be
:0a5ae80000000000000000000000b4
:205af200000200000000000000000000000000000000000000000000000000000000000092
:095b12000000000000000000008a
:205b1b0000000000000000000000000000000000000000000000000000000000000000006a
:0a5b3b000000000000000000000060
:205b4500000000000000000000000000000000000000000000000000000000000000000040
:095b650000000000000000000037
:205b6e00000000000000000000000000000000000000000000000000000000000000000017
:0a5b8e00000000000000000000000d
:205b98000000000000000000000000000000000000000000000000000000000000000000ed
:095bb800000000000000020000e2
:205bc1000000000000000000000000000000000000000000000000000000000000000000c4
:0a5be10000000000000000000000ba
:205beb0000000000000000000000000000000000000000000000000000000000000000009a
:095c0b0000000000000000000090
:205c1400000000000000000000000000000000000000000000000000000000000000000070
:0a5c34000000000000000000a000c6
:205c3e00000200000000000000000000000000000000000000000000000000000000000044
:095c5e000000000000000000003d
:205c670000000000000000000000000000000000000000000000000000000000000000001d
:0a5c87000000000000000000000013
:205c91000000000000000000000000000000000000000000000000000000000000000000f3
:095cb100000000000000000800e2
:205cba0000003000000000000000000000000000000000000000000000000000000000009a
:0a5cda0000000000000000000020a0
:205ce4000000000000000000000000000000000000000000000000000000000000000000a0
:095d040000000000000000000294
:205d0d00040000000000000000000000000000000000000000000000000000000000000072
:0a5d2d00000000000000000000204c
:205d37008000000000000000000000000000000000000000000000000000000000000000cc
:095d570000000000000000000043
:205d60000000000000000000000000000000000000000080000000000000000000000000a3
:0a5d8000000000000000000000c059
:205d8a00000200000000000000000000000000000000000080000000000000000000000077
:095daa00000000000000000000f0
:205db3000400000000000000000000000000000000000000000000000000000000000000cc
:0a5dd30000000000000000000000c6
:025ddd000000c4
:035ddf0062003f20
:035de200720080cc
:025de5001100ab
:035de70082000037
:025dea000103b3
:085dec000000000000000000af
:085df4000000000000000000a7
:085dfc0000000000000000009f
:085e0400000000000000000096
:0261ec000000b1
:0361ee00820080ac
:0261f1000103a8
:0861f3000000000000000000a4
:0861fb0000000000000000009c
:08620300000000000000000093
:08620b0000000000000000008b
:0265f3000000a6
:0265f500110192
:0365f7008200001f
:0265fa0001039b
:0865fc00000000000000000097
:0866040000000000000000008e
:08660c00000000000000000086
:0866140000000000000000007e
:0269fc00000099
:0369fe0082008094
:026a010001038f
:086a030000000000000000008b
:086a0b00000000000000000083
:086a130000000000000000007b
:086a1b00000000000000000073
:026e030000008d
:026e0500110278
:036e070082000006
:026e0a00010382
:086e0c0000000000000000007e
:086e1400000000000000000076
:086e1c0000000000000000006e
:086e2400000000000000000066
:02720c00000080
:03720e008200807b
:02721100010377
:08721300000000000000000073
:08721b0000000000000000006b
:08722300000000000000000063
:08722b0000000000000000005b
:02761300000075
:0276150011035f
:03761700820000ee
:02761a0001036a
:08761c00000000000000000066
:0876240000000000000000005e
:08762c00000000000000000056
:0876340000000000000000004e
:027a1c00000068
:037a1e0082008063
:027a210001035f
:087a230000000000000000005b
:087a2b00000000000000000053
:087a330000000000000000004b
:087a3b00000000000000000043
:027e230000005d
:017e2500223a
:027e26004d7e8f
:027e2800010651
:00000001FF
