:02000000ff00ff
:080002004c6174746963650030
:17000a00694345637562653220323032302e31322e32373934330071
:15002100506172743a2069434534304c50314b2d514e38340034
:1b003600446174653a204a756e20313920323032322031323a35383a3535006c
:0200510000ffae
:040053007eaa997e6a
:02005700510056
:0200590001059f
:03005b0092000010
:03005e0062014bf1
:030061007200909a
:0300640082000017
:02006700110086
:02006900010193
:20006b00000000000000000000000000000000000000000000000000000000000000000075
:09008b00000000800000000000ec
:2000940000000000000000000000000000000000000000000000000000000000000000004c
:0a00b4000000000000000000000042
:2000be00000000000000000000000000000000000000000000000000000000001000000012
:0900de00000000400000000000d9
:2000e7000000000000000000000000000000000000000000000000000000000000000000f9
:0a01070000000000000000000000ee
:200111000000000000000000000000000000000000000000000000000000000000000000ce
:0901310000000080000000000045
:20013a000000000000000000000000000000000000000000000000000000000000000000a5
:0a015a00000000000000001000008b
:200164000000000000040000000000001000000000000040000000001000000000000040d7
:0901840000000000000100000071
:20018d00000000000000000000000000000000000000000000000000000000000000000052
:0a01ad000000000000000000000048
:2001b70000000000000c00000000000030000000000000c00000000030000000000000c03c
:0901d7000000000000020000001d
:2001e0000000000000000000000000000000000000000000000000000000000000000000ff
:0a02000000000000000000000000f4
:20020a000000000000000000000000000000000000000000000000000000000000000000d4
:09022a00000000000000000000cb
:200233000000000000000000000000000000000000000000000000000000000000000000ab
:0a02530000000000000000000000a1
:20025d00000000000000000000000000000000000000000000000000000000000000000081
:09027d0000000000000000000078
:20028600000000000000000000000000000000000000000000004000000000000100000017
:0a02a600000000040000000000004a
:2002b00000000000000400000000000010000000000000400000000010000000000000408a
:0902d000800000000001020000a2
:2002d900000000000000000000000000000000000000000000000000000000000000000005
:0a02f900000000000070000000008b
:200303000000000000000000000000000000000000000000000000000000000000000000da
:09032300000000000000000000d1
:20032c00000020000000000000000000000000000040000000000000000000000000000051
:0a034c0000000000000000000000a7
:20035600000000000000000000000000000000000000000000000000000000000000000087
:090376000000000000000000007e
:20037f0000000000000000000000000000000000000000000000000000000000000000005e
:0a039f000000000000000000000054
:2003a900000000000000000000000000000000000000000000000000000000000000000034
:0903c9000000000000000000002b
:2003d20000000000000000000000000000000000000000000000000000000000000000000b
:0a03f2000000000000000000000001
:2003fc000003000000000000000000000000000000000000000000000000000000000000de
:09041c00000000000000000000d7
:200425000000000000000000000000000000000000000000000000000000000000000000b7
:0a04450000000000000000000000ad
:20044f0000000000000000000000000000000000000000000000000000000000000000008d
:09046f0000000000000000000084
:20047800000020000000000000000000000000000000000000000000000000000000000044
:0a049800000000000000000000005a
:2004a20000000000000000000000000000000000000000000000000000000000000000003a
:0904c20000000000000000000031
:2004cb00000000000000000000000000000000000000000000000000000000000000000011
:0a04eb000000000000000000000007
:2004f5000000000000000000000000000000000000000000000000000000000000000000e7
:09051500000000000000000000dd
:20051e000000000000000000000000000000000000000000000000000000000000000000bd
:0a053e0000000000000000000000b3
:20054800000000000000000000000000000000000000000000000000000000000000000093
:090568000000000000000000008a
:2005710000000000000000000000000000000000000000000000000000000000000000006a
:0a0591000000000000000000000060
:20059b004004000000000000000000000000000000000000000000000000000000000000fc
:0905bb0000000000000000000037
:2005c4000002a0000000000000000000000000000000000000000000000000000000000075
:0a05e400000000000000000000000d
:2005ee000000000000000000000000000000000000000000000000000000000000000000ed
:09060e00000000000000000000e3
:200617000800000000000000000000000000000000000000000000000000000000000000bb
:0a06370000000000000000000000b9
:20064100400000000000000000000000000000000000000000000000000000000000000059
:0906610000000000000000000090
:20066a000080000000000000000000000000000000000000000000000000000000000000f0
:0a068a0000000000a00000000000c6
:20069400000300000000000000000000000000000000000000000000000000000000000043
:0906b4000000000000000000003d
:2006bd0000000000000000000000000000000000000000000000000000000000000000001d
:0a06dd000000000000000000000013
:2006e7000000000000000000000000000000000000000000000000000000000000000000f3
:09070700000000000000000000e9
:200710000000200000000000000000000000000000000000000000000000000000000000a9
:0a07300000000000000000000000bf
:20073a0000000000000000000000000000000000000000000000000000000000000000009f
:09075a0000000000000000000096
:20076300000000000000000000000000000000000000000000000000000000000000000076
:0a078300000000000000000000006c
:20078d0000000000000000000000000000000000000000000000000000000000000000004c
:0907ad0000000000000000000043
:2007b600000000000000000000000000000000000000000000000000000000000000000023
:0a07d6000000000000000000000019
:2007e0000000000000000000000000000000000000000000000000000000000000000000f9
:09080000000000000000000000ef
:200809000000000000000000000000000000000000000000000000000000000000000000cf
:0a08290000000000000000000000c5
:20083300400000000000000000000000000000000000000000000000000000000000000065
:090853000000000000000000009c
:20085c0000002000000000000000000000000000004000000000000000000000000000001c
:0a087c000000000000000000000072
:20088600000000000000000000000000000000000000000000000000000000000000000052
:0908a60000000000000000000049
:2008af00080000000000000000000000000000000000000000000000000000000010000011
:0a08cf0000000000400000000000df
:2008d9004800000000000000000000000000000000000000000000000000000000000000b7
:0908f900000000000000000000f6
:200902000083800000000000000000000000000000000000000000000000000000000000d2
:0a09220000000000000000000000cb
:20092c00000300000000000000100000000000000000000000000000000000000000000098
:09094c00000000000000000000a2
:20095500000000000000000000010000000000000000000000000000000000000028000059
:0a0975000000000000000000000078
:20097f00000000000000000000000000000000000000000000000000000000000000000058
:09099f000000000000000000004f
:2009a80000002000000000000000000000000000000000000000000000000000000000000f
:0a09c8000000000000000000000025
:2009d200000000000000000000000000000000000000000000000000000000000000000005
:0909f200000000000000000000fc
:2009fb000000000000000000000000000000000000000000000000000000000000000000dc
:0a0a1b0000000000000000000000d1
:200a25000000000000000000000000000000000000000000000000000000000000000000b1
:090a4500000000000000000000a8
:200a4e00000000000000000000000000000000000000000000000000000000000000000088
:0a0a6e00000000000000000000007e
:200a780000000000000000000000000000000000100000000000000000000000000000004e
:090a980000000000000000000055
:200aa1000000000000000000000000000000000000800000000000000000000000000000b5
:0a0ac100000000000000000000002b
:200acb004000000000000000000000000000000000000000000000000000000000000000cb
:090aeb0000000000000000000002
:200af4000100200000000000000000000000000000000000000000000000000000000000c1
:0a0b140000000000000000000000d7
:200b1e000000000000000000000000000000000000000000000000000000000000000000b7
:090b3e00000000000000000000ae
:200b4700080000000000000000000000000000000000000000000000000000000000000086
:0a0b67000000000000000000000084
:200b7100400000000000000000000000000000000000000000000000000000000000000024
:090b91000000000000000000005b
:200b9a0000000000000000000000000000000000000000000000000000000000000000003b
:0a0bba000000000000000000000031
:200bc40000030000000000000000000000000000000000000000000000000000000000000e
:090be40000000000000000000008
:200bed000000000000000000000000000000000000000000000000000000000000000000e8
:0a0c0d0000000000000000000000dd
:200c17000000000000000000000000000000000000000000000000000000000000000000bd
:090c3700000000000000000000b4
:200c4000000020000000000000000000000000000000000000000000000000000000000074
:0a0c6000000000000000000000008a
:200c6a0000000000000000000000000000000000000000000000000000000000000000006a
:090c8a0000000000000000000061
:200c9300000000000000000000000000000000000000000000000000000000000000000041
:0a0cb3000000000000000000000037
:200cbd00000000000000000000000000000000000000000000000000000000000000000017
:090cdd000000000000000000000e
:200ce6000000000000000000000000000000000000000000000000000000000000000000ee
:0a0d060000000000000000000000e3
:200d10000000000000000000000000000000000000000000000000000000000000000000c3
:090d3000000000000000000000ba
:200d390000000000000000000000000000000000000000000000000000000000000000009a
:0a0d59000000000000000000000090
:200d6300000000000000000000000000000000000000000000000000000000000000000070
:090d830000000000000000000067
:200d8c00000000000000000000000000000000000040000000000000000000000000000007
:0a0dac00000000000000000000003d
:200db60080000000000000000000000000000000000000000000000000000000000000009d
:090dd60000000000000000000014
:200ddf000800000000000000000000000000000000000000000000000000000000000000ec
:0a0dff0000000000000000000000ea
:200e09000000000000000000000000000000000000000000000000000000000000000000c9
:090e2900000000000000000000c0
:200e32000000000000000000000000000000000000000000000000000000000000000000a0
:0a0e52000000000000000000000096
:200e5c00000100000000000000000000000000000000000000000000000000000000000075
:090e7c000000000000000000006d
:200e850000000000000000000000000000000000000000000000000000000000000000004d
:0a0ea5000000000000000000000043
:200eaf00000000000000000000000000000000000000000000000000000000000000000023
:090ecf000000000000000000001a
:200ed8000000200000000000000000000000000000000000000000000000000000000000da
:0a0ef80000000000000000000000f0
:200f0200440400000000000000000000000000000000000000000000000000000000000087
:090f2200000000000000000000c6
:200f2b0000c3400000000000000000000000000000000000000000000000000000000000a3
:0a0f4b00000000000000000000009c
:200f550000000000000000000000000000000000000000000000000000000000000000007c
:090f750000000000000000000073
:200f7e0008000000000000000000000000000000000000000000000000000000000000004b
:0a0f9e000000000000000000000049
:200fa80040000000000000000000000000000000000000000000c000000000000000000029
:090fc80000000000000000000020
:200fd100000000000000000000000000000000000000000000000000000000000000000000
:0a0ff10000000000000000000000f6
:200ffb000000000000000000000000000000000000000000000000000000000000000000d6
:09101b00000000000000000000cc
:2010240000002000000000000000000000000000000000000000000000000000000000008c
:0a1044000000000060000000000042
:20104e00000000000000000000000000000000000000000000000000000000000000000082
:09106e0000000000000000000079
:20107700000000000000000000000000000000000000000000000000000000000000000059
:0a109700000000000000000000004f
:2010a10000000000000000000000000000000000000000000000000000000000000000002f
:0910c10000000000000000000026
:2010ca00000000000000000000000000000000000000000000000000000000000000000006
:0a10ea0000000000000000000000fc
:2010f4000003000000000000000000000000000000000000000000000000000000000000d9
:09111400000000000000000000d2
:20111d000000000000000000000000000000000000000000000000000000000000000000b2
:0a113d0000000000000000000000a8
:20114700000000000000000000000000000000000000000000000000000000000000000088
:091167000000000000000000007f
:2011700000002000000000000000000000000000000004000000000000000000000000003b
:0a1190000000000000000000000055
:20119a00000000000000000000000000000000000000000000000000000000000000000035
:0911ba000000000000000000002c
:2011c30000000000000000000000000000000000000000000000000000000000000000000c
:0a11e3000000000000000000000002
:2011ed000000000000000000000000000000000000000000000000000000000000000000e2
:09120d00000000000000000000d8
:201216000000000000000000000000000000000000000000000000000000000000000000b8
:0a12360000000000000000000000ae
:2012400000000000000000000000000000000000000000000000000000000000000000008e
:0912600000000000000000000085
:20126900000000000000000000000000000000000000000000000000000000000000000065
:0a128900000000000000000000005b
:2012930000000000000000000000000000000000000000000000000000000000000000003b
:0912b30000000000000000000032
:2012bc000000200000000000000000000000000000400000000000000000000000000000b2
:0a12dc000000000000000000000008
:2012e6000000000000000000000000000000000000000000000000000000000000000000e8
:09130600000000000000000000de
:20130f000000000000000000000000000000000000000000000000000000000000100000ae
:0a132f000000000040000000000074
:20133900000000000000000000000000000000000000000000000000000000000000000094
:091359000000000000000000008b
:2013620000000000000000000000000000000000000000000000000000000000000000006b
:0a1382000000000000000000000061
:20138c0000030000000000000000000000000000000000000000000000000000010000003d
:0913ac0000000000000000000038
:2013b500000000030000000000000000000000000000000000000000000000000010000005
:0a13d50000000000a000000000006e
:2013df000000000000000000000000000000000000000000000000000000000000000000ee
:0913ff00000000000000000000e5
:201408000000200000000000000000000000000000000000000000000000000000000000a4
:0a14280000000000000000000000ba
:2014320000000000000000000000000000000000000000000000000000000000000000009a
:0914520000000000000000000091
:20145b00000000000000000000000000000000000000000000000000000000000000000071
:0a147b000000000000000000000067
:20148500000000000000000000000000000000000000000000000000000000000000000047
:0914a5000000000000000000003e
:2014ae0000000000000000000000000000000000000000000000000000000000000000001e
:0a14ce000000000000000000000014
:2014d8000000000000000000000000000000000000000000000000000000000000000000f4
:0914f800000000000000000000eb
:201501000000000000000000000000000000000000000000000000000000000000000000ca
:0a15210000000000000000000000c0
:20152b00400000000000000000000000000000000000000000000000000000000000000060
:09154b0000000000000000000097
:201554000080200000000000000000000000000000000000000000000000000000000000d7
:0a157400000000000000000000006d
:20157e0000000000000000000000800000000000000000000000000000000002800000004b
:09159e0000000000000000000044
:2015a7000800000000000000000000000000000000300000000000000000000028000000c4
:0a15c700000000000000000000001a
:2015d10040000000000000000000000000000000000000000000000000000003000000bafd
:0915f10080100000000000000061
:2015fa00000000000000000000000000000000000000000000000000000000001000f00fc2
:0a161a000140400000000000000045
:201624000003000000000000000000000000000000000000000000000000000000000000a3
:091644000000000000000000009d
:20164d0000000000000000000000000000000000000000000000000000000000000000007d
:0a166d000000000000000000000073
:20167700000000000000000000000000000000000000000000000000000000000000010052
:091697000000000000000000004a
:2016a00000002000000000000000000000000000000000000000000000000000000000c04a
:0a16c0000000000000000000000020
:2016ca000000000000000000000000000000000000000000000000000000000000070000f9
:0916ea00000000000000000000f7
:2016f3000000000000000000000000000000000000000000000000000000000000000800cf
:0a17130000000000000000000000cc
:20171d000000000000000000000000000000000000000000000000000000000000070000a5
:09173d00000000000000000000a3
:20174600080000000000000000000000000000000000000000000000000000000000080073
:0a1766000000000000000000000079
:201770000000000000000000000000000000000000000000000000000000000000001c003d
:0917900000000000000000000050
:20179900000000000000000000000000000000000000000000000000000000000000000030
:0a17b9000000000000000000000026
:0217c300000024
:0217c500110110
:0217c70001011e
:2017c9000000020000000000000800000000000020000000000000000000000000000000d6
:0917e900000000000000000000f7
:2017f2000000000000000000000000000000000000000000000000000000000000000000d7
:0a18120000000000000000000000cc
:20181c00000001000000000000040000000000001000000000040000000000000000000093
:09183c00000000000000000000a3
:20184500000000000000000000000000000000000000000000000000000000000000000083
:0a1865000000000000000000000079
:20186f000000020000000400000800000000000020000000400000000000000000000000eb
:09188f0000000000000000000050
:2018980000000000000000c00000000000000000000000000c000000000000000000000064
:0a18b8000000000000000000000026
:2018c200000000000004000000000000100000000000004000000001700000000000004001
:0918e200000000000001000000fc
:2018eb000000000000000000000000000000000000000000000000001000000000000000cd
:0a190b0000000000000000000000d2
:2019150000000000060c000000000000300000000001c0c00000000020000000000000c00f
:09193500000000000003000000a6
:20193e00000000000020000000000000000000000000020000000000000000000000000067
:0a195e00000000000000000000007f
:2019680000000000000000000000000000000000000000000000000000000000000000005f
:0919880000000000000000000056
:20199100000000000000000000000000000000000000000000000000000000000000000036
:0a19b100000000000000000000002c
:2019bb000000000000000000000000000000000000000000000000000060000000000000ac
:0919db0000000000000000000003
:2019e4000000000000000000000000000000000001000000000040000000000001000000a1
:0a1a040000000004000000000000d4
:201a0e00000000000004000000000000100000000000004000000000100000000000004014
:091a2e00000000000001000000ae
:201a3700000000000000000000000000000180000000000006000000000000000000000008
:0a1a57000000000000000040000045
:201a610000000000000501400000000000000000000000000000000000000000000000001f
:091a81000000000000000000005c
:201a8a0000000000000086280000000000000000000000000000000000000000000000008e
:0a1aaa000000000000000000000032
:201ab400000000000000000000000000000000000000000000000000000000000000000012
:091ad40000000000000000000009
:201add000000000000000000000000000000000000000000000000000000000000000000e9
:0a1afd0000000000000000000000df
:201b07000000000000000000000000000000000000000000000000000000000000100000ae
:091b2700000000000000000000b5
:201b300000000000000800000000a0000000000000000000000000000000000000020000eb
:0a1b5000000000000000000000008b
:201b5a00000200020000000000000000000000000000000000000000000000000000000067
:091b7a0000000000000000000062
:201b8300000000000000000000000000000000000000000000000000000000000000000042
:0a1ba3000000000000000000000038
:201bad000000000070000000000000000000000000000000000000000000000000000000a8
:091bcd000000000000000000000f
:201bd6000000300000000000000000000000000000000000000000000000000000000000bf
:0a1bf60000000000000000000000e5
:201c0000000000007000000000000000000000000000000000000000000000000000000054
:091c2000000000000000000000bb
:201c2900000000000800000000000000000000000000000000000000000000000000000093
:0a1c49000000000000000000000091
:201c5300000000007000000000000000000000000000000000000000000000000000000001
:091c730000000000000000000068
:201c7c00000000000800000000000000000000000000000000000c00000000000000000034
:0a1c9c00000000000000000000003e
:201ca60000020000000082800000000000000000000000000000000000000000000000001a
:091cc60000000000000000000015
:201ccf000000000000003aa8000001400000000000000000000000000000000000000000d2
:0a1cef0000000000000000000000eb
:201cf900000000000001680001400000000000000000000000000000000000010000000020
:091d1900000000000000000000c1
:201d220000000000000877a00004000000000000000000000000000000000000300000004e
:0a1d42000000000000000000000097
:201d4c0000000000080f000000000000000000000000000000000000000000000000100050
:091d6c000000000000000000006e
:201d7500000000000380932800100000380000000000000000000000000000000000008048
:0a1d95000000000000000000000044
:201d9f0000000000000000000000000000000000028000000000000000000000000b000097
:091dbf000000000000000000001b
:201dc80000000000000000000000000100000000000000000000000000000000000080007a
:0a1de80000000000000000000000f1
:201df2000002000008000000000000000000000000000000000000000000000000000000c7
:091e1200000000000000000000c7
:201e1b00000000000380000000000000000000000000000000000000000000000000000024
:0a1e3b00000000000000000000009d
:201e450000000000000000000000000000000000000000000000000000000000000000007d
:091e650000000000000000000074
:201e6e00000030000000000000000000000000000000000000000000000000000000000024
:0a1e8e00000000000000000000004a
:201e980000000000d000000000c00040000000000000000000000000000000030001000056
:091eb80000000000000000000021
:201ec1000000000000000000000c0020000000000000000000000000000000003000900015
:0a1ee10000000000000000000000f7
:201eeb000000000000010294002001c00000000000000000000000000000000280000000dd
:091f0b00000000000000000000cd
:201f140000000000000000168202000000000000000000000000000000000000080000000b
:0a1f340000000000000000000000a3
:201f3e000002000000000000000000c0000550400400000000000000000000000000000028
:091f5e0015410000000000000024
:201f6700000000000100000000000020014855400000000000000000000000000000000556
:0a1f870021550000000000000000da
:201f9100000000000005402c00c00040020000000000000000000020000000010001000893
:091fb10000000000003c00ff20cc
:201fba00000000000580d3000084002600600080000000000000001c00000000100281a7cf
:0a1fda00800200000000000ff080fc
:201fe40000000000500983fc00000040040f5200005000000000000200000000000100b855
:092004003d4000007400000000e2
:20200d00000680000000b01680000026016805c0000200000000001c0400000000009005dc
:0a202d00a0170000080000000000ea
:20203700000000005001380000040000140f50000000000000000020250a01102000009079
:092057003d400040003f4e000135
:202060000000000008007f020000200001e805c0000000000000001c01ec0070010000058a
:0a208000a0170002000076c0100057
:20208a00000201000180000000000000040f500040500000000801c200000000030008b039
:0920aa003d400000a4000000000c
:2020b30000000000000e00000000a00001e805c0040200000000000004000000000400079c
:0a20d300a017000006000000000046
:2020dd000000000010000000001001c0160f500008000000000a0363e4f2c08002800898dd
:0920fd003d400000002a5f5e086e
:2021060000003000001800000001003e014805c0000000000000403e05fa04400000181536
:0a21260020170000016045daf00008
:20213000080000000085a428040015e2060f508000000000004000002ead1080000008b8eb
:092150003d400000142b68000062
:2021590004c00000011e36c100100084654805c00000000000040000005d00400010199527
:0a217900201700000206d4b8000091
:202183008000000000e043cc02a00003140f5000000000000020000000000002810f009073
:0921a3003d4000001400000000a2
:2021ac0000000000000b02bcc082000001c805c000000000000a0000000000002800000543
:0a21cc0020170000020000000000d0
:2021d60000020000088de500810021c0040f504000000000000000025d000100000010b048
:0921f6003d410001b400000000ad
:2021ff000400000007019aa80000000001c805c00000000000000000617a0540000001c7fc
:0a221f0020170000060780000000f1
:202229000000010050018000004000400e0f5000000000000040000000000001000108d8b4
:092249003d4000003c41ee800024
:20225200000000000d9ab6a0008c002e63e805c00000000000040e00000000001000819f63
:0a227200a017000000070fb00000e5
:20227c008000000050a77c00000000001e0f50000000000000000004000000000001009835
:09229c003d4000000400000000b8
:2022a50000000000000bfb6000000000036805c00000000000000000200000000000980fbc
:0a22c500a017000000e60000000072
:2022cf000000400011a7b000000001c00c0f5000000000000000c00000000000000000d08b
:0922ef003d40000000234c0000fa
:2022f80000000000070973004000000e036805c00000000000000000000000000000000db8
:0a231800a0170000006606a0800078
:20232200000000005083efe8000000c01c0f500000000000000080000000000000000090a6
:092342003d4000000243c0fa0016
:20234b00000000000d1bbefd0000002003e805c00000000000000000000000000000000fb0
:0a236b00a0170000014701ef510028
:202375000000000001930294200001420e0f500000000000000000000000000000001ed858
:092395003d4000001c02f075003f
:20239e0000003000019f801680000026074805c00000000000000040000000000000198d19
:0a23be002017000003c3bdae542039
:2023c80000000000000be400000000421e0f50000000000000c00040000000000000889827
:0923e8003d400000002be0000064
:2023f100000000000000f60200000020674805c000000000000c0420000000000000119d62
:0a241100201700000166cda0f000c6
:20241b008000000009000000002001400e0f5000000000000020024000000002800b1ed06d
:09243b003d400a001428f00008dd
:2024440000000000050e0000000a0060024805e00000000000020000000000000800818fb2
:0a246400201700a00366fe88002484
:20246e00000000000090000000006003dc8f50000500000000000040000550400000009630
:09248e00fd400000002e5b00007f
:20249700000000010000000000000000075b05c00000000000000000014855400020000ff0
:0a24b70064170000000027880000f1
:2024c1000000100000000000000001c2000000000000000000c0004000000000100f90da9f
:0924e100400000000420505a00e4
:2024ea0000000100000000000000003c04000000000000000004002600c000800280198705
:0a250a00b0040000020064cf50008e
:202514008000000001000000000000201f05f0100800000000000000360f5000000d000038
:0925340000000000040020550025
:20253d0000000000070800000000000e03fca5404000000000000006036805c00000000007
:0a255d000000000002601e8554001b
:20256700000000000000000000000024000000000000000000000000240f500030008906ee
:092587007cc000000000000f0000
:2025900000000000000000000000000428000000000000000000000003e805c0038071d08b
:0a25b00027cc01000000168f0c007c
:2025ba000000000000000000000000001c0500040000000000000240340f5000000900d02e
:0925da00000800000020000f00c1
:2025e30000000400000000000000000000fe0040000000000000000003e805c00000980d41
:0a26030032000c0000001e8f0c00d6
:20260d00000000000000000000000000000000000000000000000026260f500000000ad325
:09262d00800000000000200f00f5
:20263600000020000000000000000000000000000000000000000006674805c00000599df4
:0a265600e02000000060148f0c006b
:20266000000030001000000000c000040000000000000000000003c2360f500008050a984d
:092680003d4000000020200f0085
:20268900040003000800000000040004780000000000000000000020674805c00100001bf2
:0a26a900fbc000000046548f0c80b7
:2026b300800028009000000000a00000000000000100000000200004240f500000050f3a39
:0926d30000000a000200000f00e3
:2026dc0000000280080000000002000100000000001800000002000063c805c00000d0abcc
:0a26fc00f820002000601c8f0c8005
:202706000002000000000154100000000000000000000000000001c0340f504000000a08a6
:092726003d4800002400000f04ee
:20272f00040000000000521550000000000000000000000000000080034805e0000059a125
:0a274f00e3d4000002001c8f0c8090
:202759000000100010f08000000010201cc000000000000000c000402e0f5000000509f039
:09277900280610000400200f00e6
:2027820004000300080170002000001c0158800100000000000c003663e805c000007818bf
:0a27a2003140040002061e8f0c00f7
:2027ac0080400000100b83d4000000e0000000000000000000000042be0f5000000009b3e0
:0927cc00c00040000400200f00d1
:2027d50000078000098eda017800001e380000000000000000008026796805c0000000ab26
:0a27f500f82000000260168f0c00af
:2027ff000000000550ff03d400000024010f308000000000000000002c0f500000001ab84e
:09281f00308800800000000f0069
:20282800040000002801da017000a01c380af30200000000000004006b6805c000005089b0
:0a284800e20008000000168f0c00eb
:2028520000020000000b03d4000003441f0e00000000000000000002bc0f50000009000fd9
:09287200008000000000000f00ce
:20287b00000000000000fa017000000e3a7c8002000000000000000001e805e0000080e15d
:0a289b00f8080000a0001e8f0c00da
:2028a50000000010008f83d4000009402700000400000000000a14022e0f50000380000079
:0928c5000000000a0020200f00b1
:2028ce00000030000181d20170000160006880020000000000004086074805c000000000d0
:0a28ee00000000000060548f0c0091
:2028f80008000000088b83d4000000201cc0000000000000000000023e0f500000000a9c8d
:09291800304040000020200f00b7
:2029210004c000000719d20170000004787a08000000000000000004654805c0000201b345
:0a2941003a00080000e6548f0c0075
:20294b0080002800000f03d400040342800000001000000000a000002c0f5000000d1ef0bf
:09296b0000000a040000000f0046
:20297400000000800000f2017000a01660000000028000000002000003c805c0029001f9aa
:0a2994003140002000001c8f0c00f1
:20299e0000020000000b03d41000000285fa708004000000000000003ddf500000070fd757
:0929be00800000000000000f047d
:2029c700040000000000f201700000002aeca500000000000000000001ce05c00000d80161
:0a29e7002c20000000001c8f0c00e3
:2029f10000001004100983d40004e0000000000000000000000000000000000000450a7b94
:092a1100c00000000400200f00c9
:202a1a000400030028187a017000a000000000000000000000000000000000000002d9bf30
:0a2a3a007c20000002061e8f0c0035
:202a440080000000100d83d4000000201cd0200000000000000000002c0aa00000050a006d
:092a6400000000000400200f0036
:202a6d000000000009985a0170000014004a00000000000000000004020a5560000059b0b1
:0a2a8d00000000000260168f0c002c
:202a97000c000080500903d4000000000000000000000000000000020000000010050a93af
:092ab700c00000000000000f0047
:202ac0000400001000005a017000000000000000000000000000000004000000020050ab16
:0a2ae000382000000000168f0c00e3
:202aea0000020000500d03d400000346c000000000000000000000000000000001050af38a
:092b0a00400000000000000f0073
:202b13000000000000007a0170000000280000000000000000000000000000000000d0af10
:0a2b33003020000000001e8f0c008f
:202b3d00003c0000008983d40000014287d0000000000000000000000000000000000000c2
:092b5d00000000200020200f0000
:202b66000000700001817201700000206f480800000000000000000000000000000000009b
:0a2b8600000000000060548f0c00f6
:202b90000c000000008d83d40000014036c000000000000000000040000000000009081499
:092bb00017c000008020200f0076
:202bb90004800000071f5201700000206b7a8000000000000000002000000000000070106a
:0a2bd9002abd000011c6548f0c0045
:202be30080402800080903d400000800000000000000000000a001c0010020828009105b02
:092c030040000a000000000f006f
:202c0c000007808001007201700001560000000000000000000a0000007c02020800018152
:0a2c2c006420002000001c8f0c0043
:202c360000020000000d33d400000002800000000000000000000000000f0140002508bbae
:092c5600000000000000000f0462
:202c5f0004000000001e7601700000160400000000000000000000000008f0000004800bab
:0a2c7f007420000000001c8f0c0000
:202c890000000000000000000000000000000000000000000000014402000000000500b827
:092ca90003c000000000200f0030
:202cb20000000000000000000000000000000000000000000000003479e000800038818bb1
:0a2cd2003001000000061e8f0c0008
:202cdc0080000000000000000000000000000000000000000000a14000e00000000008345b
:092cfc0001400000022c200f0031
:202d0500000000000000000000000000000000000000000000000014680000800800001397
:0a2d2500e94100000040168f0c0089
:202d2f0000000000000000000000000000000000000000000000014000e0000000000ab2a7
:092d4f0002400000000020f00029
:202d58000000000000000000000000000000000000000000000000002800008000005990ca
:0a2d7800341900000000068f080067
:202d820000020000000000000000000000000000000000000000000000c00000000d0abe9a
:092da20000400000000000f000f8
:202dab0000000000000000000000000000000000000000000000000000010080000059bd71
:0a2dcb00b80000000000148f08009b
:202dd50000000000000000000000000000000000000000000000080000d000000000081ee0
:092df50000000000002000f000c5
:202dfe00000020000000000000000000000000000000000000000140000100800000001fb4
:0a2e1e00a20000000160568f0800ba
:202e280000000000000000000000000000000000000000000000000000e000000000809793
:092e48000a000000140020f00053
:202e51000000000000000000000000000000000000000000000000000001008000001000d0
:0a2e7100385100000360068f0800ce
:202e7b0080000000000000000000000000000000000000000000000000e000028000003223
:092e9b0002400a00002800f000ca
:202ea40000000000000000000000000000000000000000000000000000010080080018006d
:0a2ec400301900a00006d48f0800aa
:202ece0000020000000000000000000000000000040000000000000000f0002000010b3290
:092eee0009000000002829000081
:202ef70000000000000000000000000000000000000000000000000000000080000098079c
:0a2f17008109000000005c000800c2
:022f21000000ae
:022f2300110299
:022f25000101a8
:202f270000000000000000000000000000000000000000000000000000000000000000008a
:092f470000000000000000000081
:202f5000000000000000000000000000000000000000000000000000000000000000000061
:0a2f70000000000000000000000057
:202f7a000000000000000000000000000000000000000000000000000000008000000000b7
:092f9a000000000000000000002e
:202fa30000000000000000000000000000000000000000000000000000000000000000000e
:0a2fc3000000000000000000000004
:202fcd000000000000000000000000000000000000000000000000000000000000000000e4
:092fed00000000000000000000db
:202ff6000000000000000000000000000000000000000000000000000000000000000000bb
:0a30160000000000000000000000b0
:203020000000000000080000000000002000000000080000000000002000000000000080c0
:0930400000000000000200000085
:20304900000000000000000000000000000000000000000000000000000000000000000067
:0a306900000000000000000000005d
:2030730000000000000c00000000000030000000000c00000000000030000000000000c005
:0930930000000000000300000031
:20309c00000000000000000000000000000000000000000000000000000000000000000014
:0a30bc00000000000000000000000a
:2030c6000000000000000000000000000000000000000000000000000000000000000000ea
:0930e600000000000000000008d9
:2030ef000000000000000000000000000000000000000000000000000000000000000000c1
:0a310f0000000000000000000000b6
:20311900000000000000000000000000000000000000000000000000000000000000000096
:09313900000000000000a00000ed
:20314200000000000000000000000000000000000000000000000000000000080000000065
:0a31620000002000000002000080c1
:20316c00000000000008000000000000200000000008000000000000200000000000008073
:09318c0000000000000200000038
:2031950000000000000000000000000000000000000000000000000000000000000000001a
:0a31b5000000000000000000000010
:2031bf000000000000000000000000000000000000000000000000000000000000000000f0
:0931df00000000000000000000e7
:2031e80000002000000000000000000000000000000000000800000000000000000000009f
:0a32080000000000000000000000bc
:2032120000000000000000000000000000000000000000000000000000000000000000009c
:0932320000000000000000000093
:20323b00000000000000000000000000000000000000000000000000000000000000000073
:0a325b000000000000000000000069
:20326500000000000000000000000000000000000000000000000000000000000000000049
:0932850000000000000000000040
:20328e00000000000000000000000000000000000000000000000000000000000000000020
:0a32ae000000000000000000000016
:2032b8000003000000000000000000000000000000000000000000000000000000000000f3
:0932d800000000000000000000ed
:2032e1000000000000000000000000000000000000000000000000000000000000000000cd
:0a33010000000000000000000000c2
:20330b000000000000000000000000000000000000000000000000000000000000000000a2
:09332b0000000000000000000099
:20333400000020000000000000000000000000000000000000000000000000000000000059
:0a335400000000000000000000006f
:20335e0000000000000000000000000000000000000000000000000000000000000000004f
:09337e0000000000000000000046
:20338700000000000000000000000000000000000000000000000000000000000000000026
:0a33a700000000000000000000001c
:2033b1000000000000000000000000000000000000000000000000000000000000000000fc
:0933d100000000000000000000f3
:2033da000000000000000000000000000000000000000000000000000000000000000000d3
:0a33fa0000000000000000000000c9
:203404000000000000000000000000000000000000000000000000000000000000000000a8
:093424000000000000000000009f
:20342d0000000000000000000000000000000000000000000000000000000000000000007f
:0a344d000000000000000000000075
:20345700000000000000000000000000000000000000000000000000000000000000000055
:093477000000000000000000004c
:2034800000002000000000000000000000000000000000000000000000000000000000000c
:0a34a0000000000000000000000022
:2034aa00000000000000000000000000000000000000000000000000000000000000000002
:0934ca00000000000000000000f9
:2034d3000000000000000000000000000000000000000000000000000000000000000000d9
:0a34f30000000000000000000000cf
:2034fd000000000000000000000000000000000000000000000000000000000000000000af
:09351d00000000000000000000a5
:20352600000000000000000000000000000000000000000000000000000000000000000085
:0a354600000000000000000000007b
:20355000000300000000000000000000000000000000000000000000000000000000000058
:0935700000000000000000000052
:20357900000000000000000000000000000000000000000000000000000000000000000032
:0a3599000000000000000000000028
:2035a300000000000000000000000000000000000000000000000000000000000000000008
:0935c300000000000000000000ff
:2035cc000000200000000000000000000000000000000000000000000000000000000000bf
:0a35ec0000000000000000000000d5
:2035f6000000000000000000000000000000000000000000000000000000000000000000b5
:09361600000000000000000000ab
:20361f0000000000000000000000000000000000000000000000000000000000000000008b
:0a363f000000000000000000000081
:20364900000000000000000000000000000000000000000000000000000000000000000061
:0936690000000000000000000058
:20367200000000000000000000000000000000000000000000000000000000000000000038
:0a369200000000000000000000002e
:20369c0000000000000000000000000000000000000000000000000000000000000000000e
:0936bc0000000000000000000005
:2036c5000000000000000000000000000000000000000000000000000000000000000000e5
:0a36e50000000000000000000000db
:2036ef000000000000000000000000000000000000000000000000000000000000000000bb
:09370f00000000000000000000b1
:20371800000020000000000000000000000000000000000008000000000000000000000069
:0a3738000000000000000000000087
:20374200000000000000000000000000000000000000000000000000000000000000000067
:093762000000000000000000005e
:20376b0000000000000000000000000000000000000000000000000000000000000000003e
:0a378b000000000000000000000034
:20379500000000000000000000000000000000000000000000000000000000000000000014
:0937b5000000000000000000000b
:2037be000000000000000000000000000000000000000000000000000000000000000000eb
:0a37de0000000000000000000000e1
:2037e8000001000000000000000000000000000000000000000000000000000000000000c0
:09380800000000000000000000b7
:20381100000000000000000000000000000000000000000000000000000000000000000097
:0a383100000000000000000000008d
:20383b0040000000000000000000000000000000000000000000000000000000000000002d
:09385b0000000000000000000064
:20386400000020000000000000000000000000000000000000000000000000000000000024
:0a388400000000000000000000003a
:20388e0000000000000000000000000000000000000000000000000000000000000000001a
:0938ae0000000000000000000011
:2038b7000000000000000000000000000000000000000000000000000000000000000000f1
:0a38d70000000000000000000000e7
:2038e1000000000000000000000000000000000000000000000000000000000000000000c7
:09390100000000000000000000bd
:20390a00080000000000000000000000000000000000000000000000000000000000000095
:0a392a000000000000000000000093
:20393400000000000000000000000000000000000000000000000000000000000000000073
:093954000000000000000000006a
:20395d0000000000000000000000000000000000000000000000000000000000000000004a
:0a397d000000000000000000000040
:20398700000000000000000000000000000000000000000000000000000000000000000020
:0939a70000000000000000000017
:2039b0000000200000000000000000000000000000000000000000000000000000000000d7
:0a39d00000000000000000000000ed
:2039da000000000000000000000000000000000000000000000000000000000000000000cd
:0939fa00000000000000000000c4
:203a030008000000000000000000000000000000000000000000000000000000000000009b
:0a3a23000000000000000000180081
:203a2d00000000000000000000000000000000000000000000000000000000000000000079
:093a4d0000000000000000000070
:203a5600000000000000000000000000000000000000000000000000000000000000000050
:0a3a76000000000000000000000046
:203a8000000300000000000000000000000000000000000000000000000000000000000023
:093aa0000000000000000000001d
:203aa9000000000000000000000000000000000000000000000000000000000000000000fd
:0a3ac90000000000000000000000f3
:203ad3000000000000000000000000000000000000000000000000000000000000000000d3
:093af300000000000000000000ca
:203afc0000002000000000000000000000000000000000000000000000000000000000008a
:0a3b1c00000000000000000000009f
:203b260000000000000000000000000000000000000000000000000000000000000000007f
:093b460000000000000000000076
:203b4f00000000000000000000000000000000000000000000000000000000000000000056
:0a3b6f00000000000000000000004c
:203b790000000000000000000000000000000000000000000000000000000000000000002c
:093b990000000000000000000023
:203ba200000000000000000000000000000000000000000000000000000000000000000003
:0a3bc20000000000000000000000f9
:203bcc000000000000000000000000000000000000000000000000000000000000000000d9
:093bec00000000000000000000d0
:203bf5000000000000000000000000000000000000000000000000000000000000000000b0
:0a3c150000000000000000000000a5
:203c1f00000000000000000000000000000000000000000000000000000000000000000085
:093c3f000000000000000000007c
:203c4800000020000000000000000000000000000000000008000000000000000000000034
:0a3c68000000000000000000000052
:203c7200000000000000000000000000000000000000000000000000000000000000000032
:093c920000000000000000000029
:203c9b00000000000000000000000000000000000000000000000000000000000000000009
:0a3cbb0000000000000000000000ff
:203cc5000000000000000000000000000000000000000000000000000000000000000000df
:093ce500000000000000000000d6
:203cee000000000000000000000000000000000000000000000000000000000000000000b6
:0a3d0e0000000000000000000000ab
:203d1800000300000000000000000000000000000000000000000000000000000000000088
:093d380000000000000000000082
:203d4100000000000000000000000000000000000000000000000000000000000000000062
:0a3d61000000080000000000000050
:203d6b00000000000000000000000000000000000000000000000000000000000000000038
:093d8b000000000000000000002f
:203d94000000200000000000000000000000000000000000000000000000000000000000ef
:0a3db4000000000000000000000005
:203dbe000000000000000000000000000000000000000000000000000000000000000000e5
:093dde00000000000000000000dc
:203de7000000000000000000000000000000000000000000000000000000000000000000bc
:0a3e070000000000000000000000b1
:203e1100000000000000000000000000000000000000000000000000000000000000000091
:093e310000000000000000000088
:203e3a00000000000000000000000000000000000000000000000000000000000000000068
:0a3e5a00000000000000000000005e
:203e640000000000000000000000000000000000000000000000000000000000000000003e
:093e840000000000000000000035
:203e8d00000000000000000000000000000000000000000000000000000000000000000015
:0a3ead00000000000000000000000b
:203eb7004000000000000000000000000000000000000000000000000000000000000000ab
:093ed700000000000000000000e2
:203ee0000000200000000000000000000000000000000000000000000000000000000000a2
:0a3f000000000000000000000000b7
:203f0a00000400000000000000000000000000000000000000000000000000000000000093
:093f2a000000000000000000008e
:203f33000802800000000000000000000000000000000000000000000000000000000000e4
:0a3f53000000000000000000000064
:203f5d00400000000000000000000000000000000000000000000000000000000000000004
:093f7d000000000000000000003b
:203f860000c00000000000000000000000000000000000000000000000000000000000005b
:0a3fa6000000000000000000000011
:203fb0000003000000000000000000000000000000000000000000000000000000000000ee
:093fd000000000000000000000e8
:203fd9000000000000000000000000000000000000000000000000000000000000000000c8
:0a3ff90000000000000000000000be
:2040030000000000000000000000000000000000000000000000000000000000000000009d
:0940230000000000000000000094
:20402c00000020000000000000000000000000000000000000000000000000000000000054
:0a404c00000000000000000000006a
:2040560000000000000000000000000000000000000000000000000000000000000000004a
:0940760000000000000000000041
:20407f00000000000000000000000000000000000000000000000000000000000000000021
:0a409f000000000000000000000017
:2040a9000000000000000000000000000000000000000000000000000000000000000000f7
:0940c900000000000000000000ee
:2040d2000800000000000000000000000000000000000000000000000000000000000000c6
:0a40f20000000000000000000000c4
:2040fc000000000000000000000000000000000000000000000000000000000000000000a4
:09411c000000000000000000009a
:2041250000000000000000000000000000000000000000000000000000000000000000007a
:0a4145000000000000000000000070
:20414f00000000000000000000000000000000000000000000000000000000000000000050
:09416f0000000000000000000047
:204178000000200000000000000000000000000000000000080000000000000000000000ff
:0a419800000000000000000000001d
:2041a2000000000000000000000000000000000000000000000000000000000000000000fd
:0941c200000000000000000000f4
:2041cb000800000000000000000000000000000000000000000000000000000000000000cc
:0a41eb0000000000000000000000ca
:2041f5000000000000000000000000000000000000000000000000000000000000000000aa
:09421500000000000000000000a0
:20421e00000000000000000000000000000000000000000000000000000000000000000080
:0a423e000000000000000000000076
:20424800000200000000000000000000000000000000000000000000000000000000000054
:094268000000000000000000004d
:2042710000000000000000000000000000000000000000000000000000000000000000002d
:0a4291000000000000000000000023
:20429b00000000000000000000000000000000000000000000000000000000000000000003
:0942bb00000000000000000000fa
:2042c4000000200000000000000000000000000000000000000000000000000000000000ba
:0a42e40000000000000000000000d0
:2042ee00400000000000000000000000000000000000000000000000000000000000000070
:09430e00000000000000000000a6
:20431700000000000000000000000000000000000000000000000000000000000000000086
:0a433700000000000000000000007c
:2043410000000000000000000000000000000000000000000000000000000000000000005c
:0943610000000000000000000053
:20436a0008000000000000000000000000000000000000000000000000000000000000002b
:0a438a000000000000000000000029
:204394004000000000000000000000000000000000000000000000000000000000000000c9
:0943b40000000000000000000000
:2043bd000000000000000000000000000000000000000000000000000000000000000000e0
:0a43dd0000000000000000000000d6
:2043e700000000000000000000000000000000800000000000000000000000000000000036
:09440700000000000000000000ac
:20441000000020000000000000000000000000040000000000000000000000000000000068
:0a4430000000000000000000000082
:20443a000000000000000000000000000000000000000000000000000000008000000000e2
:09445a00000000000000000080d9
:20446300000000000000000000000000000000000000000000000000000000140000000025
:0a4483000000000000000000080027
:20448d0000000000000000000000000000000000000000000000000000000000000000000f
:0944ad0000000000000000000006
:2044b6000000000000000000000000000000000000000000000000000000000000000000e6
:0a44d60000000000000000000000dc
:2044e0000003000000000000000000000000000000000000000000000000000000000000b9
:09450000000000000000000400ae
:20450900018000000000000000000000000000000000000000000000000000000000000011
:0a4529000000000000000000b400d4
:20453300000000000000000000000000000000000000000000000000000000000000000068
:094553000000000000000000005f
:20455c0000002000000000000000000000000000000000000000000000000000000000001f
:0a457c000000000000000000000035
:20458600000000000000000000000000000000000000000000000000000000000000000015
:0945a6000000000000000000000c
:2045af000000000000000000000000000000000000000000000000000000000000000000ec
:0a45cf0000000000000000000000e2
:2045d9000000000000000000000000000000000000000000000000000000000000000000c2
:0945f900000000000000000008b1
:20460200000000000000000000000000000000000000000000000000000000000000000098
:0a462200000000000000000000008e
:20462c0000000000000000000000000000000000000000000000000000000000000000006e
:09464c0000000000000000000065
:20465500000000000000000000000000000000000000000000000000000000000000000045
:0a467500000000000000000000003b
:02467f00000039
:02468100110323
:02468300010133
:20468500000000000000000000000000000000000000000010000000000000000000000005
:0946a5000000000000000000000c
:2046ae000000000000000000000000000000000000000000000000000000000000000000ec
:0a46ce0000000000000000000000e2
:2046d800000000000000000000000000000000000000000020000000000000800000000022
:0946f800000200000000000000b7
:20470100000000000000000000000000000000000000000000000000000000000000000098
:0a472100000000000000000000008e
:20472b00000000000000000000000000000000000800000010000000000000000000000056
:09474b0000000000000000000065
:204754000000000000000000000000000000000000c0000000000000000000000000000085
:0a477400000000000000000000003b
:20477e00000000000008000000000000000000000000000000000000200000000000008073
:09479e0000000000000200000010
:2047a7000000000000000000000000000000000000000000000000000000000000000000f2
:0a47c70000000000000000000000e8
:2047d10000000000000c00000000000030000000000c1c000000000030000000000000c074
:0947f100000000000003000000bc
:2047fa0000000000000000000000000000000000000001000000000000000000000000009e
:0a481a000000000000000000000094
:20482400000000000000000000000000000000000000000000000000000000000000000074
:094844000000000000000000006b
:20484d0000000000000000000000000000000000000000000000000000000000000000004b
:0a486d000000000000000000000041
:204877000000000000000000000000000200000000000000000000000a0000000000000015
:0948970000000000000000000018
:2048a0000000000000000000000000000000000800000000020000000020000800000000c6
:0a48c000000020000000000000804e
:2048ca000000000000080000000000002000000000080000000000002000000000000080fe
:0948ea00000000000002000000c3
:2048f30000000000000000000000000000000000002000000000000000000000000018006d
:0a4913000000000000080000000092
:20491d0000000000000000000000000000000000000000000000000000000000000000007a
:09493d0000000000000000000071
:20494600000000000000000000000000000000000000000000000000000000000000000051
:0a4966000000000000000000000047
:20497000000000000000000000000000000000000000000000000000000000000000000027
:094990000000000000000000001e
:204999000000000000000000000000000000000000000000000000000000000000000000fe
:0a49b90000000000000000000000f4
:2049c3000000000000000000000000000000000000000000000000000000000000000000d4
:0949e300000000000000000000cb
:2049ec000000000000000000000000000000000000000000000000000000000000000000ab
:0a4a0c0000000000000000000000a0
:204a160000020000000000000000000000000000000000000000000000000000000000007e
:094a360000000000000000000077
:204a3f00000000000000000000000000000000000000000000000000000000000000000057
:0a4a5f00000000000000000000004d
:204a690000000000000000000000000000000000000000000000000000002000000000000d
:094a890000000000000000000024
:204a92000000300000000000000000000000000000000000000000000000040000000000d0
:0a4ab20000000000000000000000fa
:204abc000000000000000000000000000000000000000000000000000000000000000000da
:094adc00000000000000000000d1
:204ae5000000000000000000000000000000000000000000000000000000000000000000b1
:0a4b050000000000000000000000a6
:204b0f00000000000000000000000000000000000000000000000000000000000000000086
:094b2f000000000000000000007d
:204b380000000000000000000000000000000000000000000000000000000000000000005d
:0a4b58000000000000000000000053
:204b6200000200000000000000000000000000000000000000000000000000000000000031
:094b82000000000000000000002a
:204b8b0000000000000000000000000000000000000000000000000000000000000000000a
:0a4bab000000000000000000000000
:204bb5000000000000000000000000000000000000000000000000000000000000000000e0
:094bd500000000000000000000d7
:204bde000400000000000000000000000000000000000000000000000000000000000000b3
:0a4bfe0000000000000000000000ad
:204c080080000000000000000000000000000000000000000000000000000000000000000c
:094c280000000000000000000083
:204c3100000000000000000000000000000000000000000000000000000000000000000063
:0a4c51000000000000000000000059
:204c5b00000000000000000000000000000000000000000000000000000000000000000039
:094c7b0000000000000000000030
:204c840004000000000000000000000000000000000000000000000000000000000000000c
:0a4ca4000000000000000000000006
:204cae000000000000000000000000000000000000000000000000000000000000000000e6
:094cce00000000000000000000dd
:204cd7000000000000000000000000000000000000000000000000000000000000000000bd
:0a4cf70000000000000000000000b3
:204d0100000000000000000000000000000000000000000000000000000000000000000092
:094d210000000000000000000089
:204d2a00000030000000000000000000000000000000000000000000000000000000000039
:0a4d4a00000000000000000000005f
:204d540000000000000000000000000000000000000000000000000000000000000000003f
:094d740000000000000000000036
:204d7d00000000000000000000000000000000000000000000000000000000000000000016
:0a4d9d00000000000000000000000c
:204da70080000000000000000000000000000000000000000000000000000000000000006c
:094dc700000000000000000000e3
:204dd0000800000000000000000000000000000000000000000000000000000000000000bb
:0a4df00000000000000000000000b9
:204dfa00000200000000000000000000000000000000000080000000000000000000000017
:094e1a000000800000000000000f
:204e230000000000000000000000000000000000000000000000000000000000000000006f
:0a4e4300000008000000000000005d
:204e4d00000000000000000000000000000000000000000000000000000000000000000045
:094e6d00800000000000000000bc
:204e760000000000000000000000000000000000000000000000000000000000000000001c
:0a4e96000000000000000000000012
:204ea000800000000000000000000000000000000000000000000000000000000000000072
:094ec000000000000000000000e9
:204ec9000000000000000000000000000000000000000000000000000000000000000000c9
:0a4ee90000000000000000000000bf
:204ef30000000000000000000000000000000000000000000000000000000000000000009f
:094f130000000000000000000095
:204f1c00000000000000000000000000000000000000000000000000000000000000000075
:0a4f3c00000000000000000000006b
:204f46008002000000000000000000000000000000000000000000000000000000000000c9
:094f660000000000000000000042
:204f6f0004000000000000000000000000000000000000000000000000000000000000001e
:0a4f8f000000000000000000000018
:204f99000000000000000000000000000000000000000000000000000000000000000000f8
:094fb900000000000000000010df
:204fc2000000100000000000000000000000000000000000000000000000000000000000bf
:0a4fe20000000000000000000000c5
:204fec000000000000000000000000000000000000000000000000000000000000000000a5
:09500c000000000000000004088f
:2050150000000000000000000000000000000000000000000000000000000000000000007b
:0a5035000000000000000000a000d1
:20503f008000000000000000000000000000000000000010000000000000000000000000c1
:09505f0000000000000000000048
:20506800000000000000000000000000000000000000000000000000000000000000000028
:0a508800000000000000000000001e
:205092000000000000000000000000000000000000000000000000000000000000000000fe
:0950b200000000000000000000f5
:2050bb000000000000000000000000000000000000000000000000000000000000000000d5
:0a50db0000000000000000000000cb
:2050e5000000000000000000000000000000000000000000000000000000000000000000ab
:09510500000000000000000000a1
:20510e0004000000000000000000000000000000000000000000000000000000000000007d
:0a512e000000000000000000000077
:205138008030000000000000000000000000000000000000000000000000000000000000a7
:095158000000000000000000004e
:2051610000000000000000000000000000000000000000000000000000000000000000002e
:0a5181000000000000000000000024
:20518b000800000000000000000000000000000000000000000000000000000000000000fc
:0951ab00000000000000000000fb
:2051b40004c000000000000000000000000000000000000000000000000000000000000017
:0a51d40000040000000000000000cd
:2051de000002000000000000000000000000000000000000000000000000000000000000af
:0951fe00000000000000000000a8
:20520700000000000000000000000000000000000000000000000000000000000000000087
:0a522700000000000000000000007d
:2052310000000000000000000000000000000000000000000000000000000000000000005d
:0952510000000000000000000054
:20525a00000030000000000000000000000000000000000000000000000000000000000004
:0a527a00000000000000000000002a
:2052840000000000000000000000000000000000000000000000000000000000000000000a
:0952a400005000000000000000b1
:2052ad000000000000000000000000000000000000000000000000000000000000000000e1
:0a52cd0000000000000000000000d7
:2052d7000000000000000000000000000000000000000000000000000000000000000000b7
:0952f700000000000000000000ae
:2053000000000000000000000000000000000000000000000000000000000000000000008d
:0a5320000000000000000000000083
:20532a000002000000000000000000000000000000000000800000000000000000000000e1
:09534a000000000000000000005a
:2053530000000000000000000000000000000000000000000000000000000000000000003a
:0a5373000000000000000000000030
:20537d00000000000000000000000000000000000000000000000000000000000000000010
:09539d00000008022ed9000000f6
:2053a6000000000000000000000000000000000000000000000000000000000000000000e7
:0a53c60000000001802da00010007f
:2053d00080000000000000000000000000000000000000000000000000000000000000003d
:0953f000000000000000080008a4
:2053f900000000000000000000000000000000000000000000000000000000000000000094
:0a5419000000000000000700004042
:20542300000000000000000000000000000000000000000000000000000000000000000069
:0954430000000000000000000060
:20544c00000000000000000000000000000000000000000000000000000000000000000040
:0a546c0000000000000007800000af
:20547600000000000000000000000000000000000000000000000000000000800000000096
:0954960000000000000000e0002d
:20549f000000000000000000000000000000000000000000000000000000000400000000e9
:0a54bf0000000000000000010000e2
:2054c9000000000000000000000000000000000000000000000000000000000000000000c3
:0954e900000000000000000000ba
:2054f20000000000000000000000000000000000000000000000000000000000000000009a
:0a55120000000000000001801000fe
:20551c0000000000000000000000000000000000000000000000000000000000000000006f
:09553c0000000000000000000066
:20554500c00000000000000000000000000000000000000000000000000000000000000086
:0a556500000000000000001c000c14
:20556f0080000000000000000000000000000000000000000000000000000000000000009c
:09558f0000000000000000000112
:205598004000000000000000000000000000000000000000000000000000000000000000b3
:0a55b80008000000000000000010d1
:2055c2000000000000000000000000000000000000000000000000000000000000000000c9
:0955e200010000000000000000bf
:2055eb000000000000000000000000000000000000000000000000000000000000000000a0
:0a560b000020000000000500000070
:20561500000000000000000000000000000000000000000000000000000000000000000075
:095635000000000000000100006b
:20563e0000000000000000000000000000000000000000000000000000000000000000004c
:0a565e00000300000000000e000031
:205668008000000000000000000000000000000000000000000000000000000000000000a2
:0956880000000000000000000019
:205691000000000000000000000000000000000000000000000000000000000000000000f9
:0a56b10000000000000000000000ef
:2056bb000000000000000000000000000000000000000000000000000000000000000000cf
:0956db0000000011024d00001452
:2056e4000000000000000000000000000000000000000000000000000000000000000000a6
:0a5704000000000192b681000000d1
:20570e00000200000000000000000000000000000000000000000000000000000000000079
:09572e0000000000000000000072
:20573700000000000000000000000000000000000000000000000000000000000000000052
:0a5757000000000000000700000041
:20576100000000000000000000000000000000000000000000000000000000000000000028
:095781000000006142d90800009b
:20578a000000300000000000000000000000000000000000000000000000000000000000cf
:0a57aa000000000090bfa5180000e9
:2057b4000000000000000000000000000000000000000000000000000000000000000000d5
:0957d400000000000000000000cc
:2057dd0080000000000000000000000000000000000000000000000000000000000000002c
:0a57fd00000000000000000e00088c
:20580700800000000000000000000000000000000000000000000000000000000000000001
:0958270000000000000000000177
:20583000400000000000000000000000000000000000000000000000000000000000000018
:0a5850000000000000000500001039
:20585a000002000000000000000000000000000000000000800000000000000000000000ac
:09587a0000000062247af08000b5
:20588300000000000000000000000000000000000000000000000000000000000000000005
:0a58a30000000000810d9981000053
:2058ad000000000000000000000000000000000000000000000000000000000000000000db
:0958cd000000001000dd000000e5
:2058d6000000000000000000000000000000000000000000000000000000000000000000b2
:0a58f60000000001005cf00000005b
:20590000000000000000000000000000000000000000000000000000000000000000000087
:095920000000000000000100007d
:2059290000000000000000000000000000000000000000000000000000000000000000005e
:0a594900000000000000010800004b
:20595300000000000000000000000000000000000000000000000000000000000000000034
:0959730000000000000008000023
:20597c0000000000000000000000000000000000000000000000000000000000000000000b
:0a599c000000000000000100000000
:2059a6000002000000000000000000000000000000000000000000000000000000000000df
:0959c600000000000000010000d7
:2059cf000000000000000000000000000000000000000000000000000000000000000000b8
:0a59ef00000000000000001c000092
:2059f90000000000000000000000000000000000000000000000000000000000000000008e
:095a190000000000000000000084
:205a2200000030000000000000000000000000000000000000000000000000000000000034
:0a5a42000800000000000000000052
:205a4c0000000000000000000000000000000000000000000000000000000000000000003a
:095a6c0000000000000000000031
:205a7500000000000000000000000000000000000000000000000000000000000000000011
:0a5a95000000000000000000000007
:205a9f000000000000000000000000000000000000000000000000000000000000000000e7
:095abf000000020000dd000000ff
:205ac8000000000000000000000000000000000000000000000000000000000000000000be
:0a5ae80000000000005cf000000068
:205af200000200000000000000000000000000000000000000000000000000000000000092
:095b12000000000000000000008a
:205b1b0000000000000000000000000000000000000000000000000000000000000000006a
:0a5b3b000000000000000000000060
:205b4500000000000000000000000000000000000000000000000000000000000000000040
:095b650000000000000000000037
:205b6e00000000000000000000000000000000000000000000000000000000000000000017
:0a5b8e00000000000000000000000d
:205b98000000000000000000000000000000000000000000000000000000000000000000ed
:095bb800000000000000000000e4
:205bc1000000000000000000000000000000000000000000000000000000000000000000c4
:0a5be10000000000000000000000ba
:205beb0000000000000000000000000000000000000000000000000000000000000000009a
:095c0b0000000000000000000090
:205c1400000000000000000000000000000000000000000000000000000000000000000070
:0a5c34000000000000000000000066
:205c3e00000200000000000000000000000000000000000000000000000000000000000044
:095c5e000000000000000000003d
:205c670000000000000000000000000000000000000000000000000000000000000000001d
:0a5c87000000000000000000000013
:205c91000000000000000000000000000000000000000000000000000000000000000000f3
:095cb100000000000000000000ea
:205cba0000003000000000000000000000000000000000000000000000000000000000009a
:0a5cda0000000000000000000000c0
:205ce4000000000000000000000000000000000000000000000000000000000000000000a0
:095d040000000000000000000096
:205d0d00040000000000000000000000000000000000000000000000000000000000000072
:0a5d2d00000000000000000000006c
:205d37008000000000000000000000000000000000000000000000000000000000000000cc
:095d570000000000000000000241
:205d6000000000000000000000000000000000000000000000000000000000000000000023
:0a5d80000000000000000000000019
:205d8a00000200000000000000000000000000000000000080000000000000000000000077
:095daa00000000000000000000f0
:205db3000400000000000000000000000000000000000000000000000000000000000000cc
:0a5dd30000000000000000000000c6
:025ddd000000c4
:035ddf0062003f20
:035de200720080cc
:025de5001100ab
:035de70082000037
:025dea000103b3
:085dec000000000000000000af
:085df4000000000000000000a7
:085dfc0000000000000000009f
:085e0400000000000000000096
:0261ec000000b1
:0361ee00820080ac
:0261f1000103a8
:0861f3000000000000000000a4
:0861fb0000000000000000009c
:08620300000000000000000093
:08620b0000000000000000008b
:0265f3000000a6
:0265f500110192
:0365f7008200001f
:0265fa0001039b
:0865fc00000000000000000097
:0866040000000000000000008e
:08660c00000000000000000086
:0866140000000000000000007e
:0269fc00000099
:0369fe0082008094
:026a010001038f
:086a030000000000000000008b
:086a0b00000000000000000083
:086a130000000000000000007b
:086a1b00000000000000000073
:026e030000008d
:026e0500110278
:036e070082000006
:026e0a00010382
:086e0c0000000000000000007e
:086e1400000000000000000076
:086e1c0000000000000000006e
:086e2400000000000000000066
:02720c00000080
:03720e008200807b
:02721100010377
:08721300000000000000000073
:08721b0000000000000000006b
:08722300000000000000000063
:08722b0000000000000000005b
:02761300000075
:0276150011035f
:03761700820000ee
:02761a0001036a
:08761c00000000000000000066
:0876240000000000000000005e
:08762c00000000000000000056
:0876340000000000000000004e
:027a1c00000068
:037a1e0082008063
:027a210001035f
:087a230000000000000000005b
:087a2b00000000000000000053
:087a330000000000000000004b
:087a3b00000000000000000043
:027e230000005d
:017e2500223a
:027e2600f7ca99
:027e2800010651
:00000001FF
