:02000000ff00ff
:080002004c6174746963650030
:17000a00694345637562653220323032302e31322e32373934330071
:15002100506172743a2069434534304c50314b2d514e38340034
:1b003600446174653a204a756e20313320323032322031373a35383a3535006d
:0200510000ffae
:040053007eaa997e6a
:02005700510056
:0200590001059f
:03005b0092000010
:03005e0062014bf1
:030061007200909a
:0300640082000017
:02006700110086
:02006900010193
:20006b00000000000000000000000000000000000000000000000000000000000000000075
:09008b00000000800000000000ec
:2000940000000000000000000000000000000000000000000000000000000000000000004c
:0a00b4000000000000000000000042
:2000be00000000000000000000000000000000000000000000000000000000001000000012
:0900de00000000400000000000d9
:2000e7000000000000000000000000000000000000000000000000000000000000000000f9
:0a01070000000000000000000000ee
:200111000000000000000000000000000000000000000000000000000000000000000000ce
:090131000000008008000200003b
:20013a000000000000000000000000000000000000000000000000000000000000000000a5
:0a015a000000000000f0003000007b
:200164000000000000040000000000001000000000000040000000001000000000000040d7
:0901840000000000000100000071
:20018d00000000000000000000000000000000000000000000000000000000000000000052
:0a01ad000000000000000000000048
:2001b70000000000000c00000000000030000000000000c00000000030000000000000c03c
:0901d7000000000000020000001d
:2001e0000000000000000000000000000000000000000000000000000000000000000000ff
:0a02000000000000000000000000f4
:20020a000000000000000000000000000000000000000000000000000000000000000000d4
:09022a00000000000000000000cb
:200233000000000000000000000000000000000000000000000000000000000000000000ab
:0a02530000000000000000000000a1
:20025d00000000000000000000000000000000000000000000000000000000000000000081
:09027d0000000000000000000078
:20028600000000000000000000000000000000000000000000004000000000000100000017
:0a02a600000000040000000000004a
:2002b00000000000000400000000000010000000000000400000000010000000000000408a
:0902d00000000000000100000024
:2002d900000000000000000000000000000000000000000000000000000000000000000005
:0a02f90000000000000000000000fb
:200303000000000000000000000000000000000000000000000000000000000000000000da
:09032300000000000000000000d1
:20032c00000020000000000000000000000000000040000000000000000000000000000051
:0a034c0000000000000000000000a7
:20035600000000000000000000000000000000000000000000000000000000000000000087
:090376000000000000000000007e
:20037f0000000000000000000000000000000000000000000000000000000000000000005e
:0a039f000000000000000000000054
:2003a900000000000000000000000000000000000000000000000000000000000000000034
:0903c9000000000000000000002b
:2003d20000000000000000000000000000000000000000000000000000000000000000000b
:0a03f2000000000000000000000001
:2003fc000003000000000000000000000000000000000000000000000000000000000000de
:09041c00000000000000000000d7
:200425000000000000000000000000000000000000000000000000000000000000000000b7
:0a04450000000000000000000000ad
:20044f0000000000000000000000000000000000000000000000000000000000000000008d
:09046f0000000000000000000084
:20047800000020000000000000000000000000000000000000000000000000000000000044
:0a049800000000000000000000005a
:2004a20000000000000000000000000000000000000000000000000000000000000000003a
:0904c20000000000000000000031
:2004cb00000000000000000000000000000000000000000000000000000000000000000011
:0a04eb000000000000000000000007
:2004f5000000000000000000000000000000000000000000000000000000000000000000e7
:09051500000000000000000000dd
:20051e000000000000000000000000000000000000000000000000000000000000000000bd
:0a053e0000000000000000000000b3
:20054800000000000000000000000000000000000000000000000000000000000000000093
:090568000000000000000000008a
:2005710000000000000000000000000000000000000000000000000000000000000000006a
:0a0591000000000000000000000060
:20059b00400000000000000000000000000000000000000000000000000000000000000000
:0905bb0000000000000000000037
:2005c4000000200000000000000000000000000000000000000000000000000000000000f7
:0a05e400000000000000000000000d
:2005ee000000000000000000000000000000000000000000000000000000000000000000ed
:09060e00000000000000000000e3
:200617000800000000000000000000000000000000000000000000000000000000000000bb
:0a06370000000000000000000000b9
:20064100440000000000000000000000000000000000000000000000000000000000000055
:0906610000000000000000000090
:20066a0000c0000000000000000000000000000000000000000000000000000000000000b0
:0a068a000000000000000000000066
:20069400000300000000000000000000000000000000000000000000000000000000000043
:0906b4000000000000000000003d
:2006bd0000000000000000000000000000000000000000000000000000000000000000001d
:0a06dd000000000000000000000013
:2006e7000000000000000000000000000000000000000000000000000000000000000000f3
:09070700000000000000000000e9
:200710000000200000000000000000000000000000000000000000000000000000000000a9
:0a07300000000000000000000000bf
:20073a0000700000000000000000000000000000000000000000000000000000000000002f
:09075a0000000000000000000096
:20076300000400000000000000000000000000000000000000000000000000000000000072
:0a078300000000000000000000006c
:20078d0000000000000000000000000000000000000000000000000000000000000000004c
:0907ad0000000000000000000043
:2007b600000000000000000000000000000000000000000000000000000000000000000023
:0a07d6000000000000000000000019
:2007e0000000000000000000000000000000000000000000000008000000000000000000f1
:09080000000000000000000000ef
:200809000000000000000000000000000000000000000000000001000000000000000000ce
:0a08290000000000000000000000c5
:200833000000000000000000000000000000000000000000000000000000000000000000a5
:090853000000000000000000009c
:20085c0000002000000000000000000000000000004000000000000000000000000000001c
:0a087c000000000000000000000072
:20088600000000000000000000000000000000000000000000000000000000000000000052
:0908a6000000000016021aa00077
:2008af00080000000000000000000000000000000000000000000000000000000000000021
:0a08cf000000000000200405008076
:2008d9000000000000000000000000000000000000000000000000000000000000000000ff
:0908f900000000000000000000f6
:200902000000000000000000000000000000000000000000000000000000000000000000d5
:0a09220000000000000000000000cb
:20092c000003000000000000000000000000000000000000000000000000000000000000a8
:09094c00000000000e0000000094
:20095500000000000000000000000000000000000000000000000000000000000000000082
:0a0975000000000000200000000058
:20097f00000000000000000000000000000000000000000000000000000000000000000058
:09099f000000000000000000004f
:2009a80000002000000000000000000000000000000000000000000000000000000000000f
:0a09c8000000000000000000000025
:2009d200000000000000000000000000000000000000000000000000000000000000000005
:0909f200000000000000000000fc
:2009fb000000000000000000000000000000000000000000000000000000000000000000dc
:0a0a1b0000000000000000000000d1
:200a25000000000000000000000000000000000000000000001000000000000000000000a1
:090a4500000000000000000000a8
:200a4e00000000000000000000000000000000000000000000000000000000000000000088
:0a0a6e00000000000000000000007e
:200a780000000000000000000000000000000000000000000000000000000000000000005e
:090a980000000000000000000055
:200aa100000000000000000000000000000000000000000000000000000000000000000035
:0a0ac100000000000000000000002b
:200acb0000000000000000000000000000000000000000000000000000000000000000000b
:090aeb00000000200000000000e2
:200af4000000200000000000000000000000000000000000000000000000000000000000c2
:0a0b140000000000000000000000d7
:200b1e000000000000000000000000000000000000000000000000000000000000000000b7
:090b3e00000000000000000000ae
:200b4700080000000000000000000000000000000000000000000000000000000000000086
:0a0b67000000000000000000000084
:200b7100000000000000000000000000000000000000000000000000000000000000000064
:090b91000000000000000000005b
:200b9a0000000000000000000000000000000000000000000000000000000000000000003b
:0a0bba000000000000000000000031
:200bc40000030000000000000000000000000000000000000000000000000000000000000e
:090be40000000000000000000008
:200bed000000000000000000000000000000000000000000000000000000000000000000e8
:0a0c0d0000000000000000000000dd
:200c17000000000000000000000000000000000000000000000000000000000000000000bd
:090c3700000000000000000000b4
:200c4000000020000000000000000000000000000000000000000000000000000000000074
:0a0c6000000000000000000000008a
:200c6a0000000000000000000000000000000000000000000000000000000000000000006a
:090c8a0000000000000000000061
:200c9300000000000000000000000000000000000000000000000000000000000000000041
:0a0cb3000000000000000000000037
:200cbd00000000000000000000000000000000000000000000000000000000000000000017
:090cdd000000000000000000000e
:200ce6000000000000000000000000000000000000000000000000000000000000000000ee
:0a0d060000000000000000000000e3
:200d10000000000000000000000000000000000000000000000000000000000000000000c3
:090d3000000000000000000000ba
:200d390000000000000000000000000000000000000000000000000000000000000000009a
:0a0d59000000000000000000000090
:200d63000000800000000000000000000000000000000000000000000c1008000005813e08
:090d8300a00000002068000080bf
:200d8c00000000000000000000000000000000000040000000000000000d0000000000ab4f
:0a0dac00a8000000014000800020b4
:200db6000000000000000000000000000000000000000000002400000e8f0802800d810341
:090dd600c4900000000000008040
:200ddf000800000000000000000040000000000000000000000aa0000000f000080050a713
:0a0dff0020840000c00000900000f6
:200e09000000000000000000000000000000000000000000000401e00e8f080000051a031d
:090e29008190000000000100802e
:200e32000000000000000000000000000000000000000000000000020020f0000000080d79
:0a0e520034240000000000e000005e
:200e5c000001000000000000000000000000000000000000000000004c8f08000008003e4c
:090e7c00400000000000000080ad
:200e85000000000000000000000000000000000000000000000000002020f000000010030a
:0a0ea500f0080000000000e000006b
:200eaf000004000000000000000000000000000000000000000001404e8f080000098193dc
:090ecf00801000000028000080e2
:200ed8000003200000000000000000000000000000000000000000002800f00000007083cc
:0a0ef800003c00000006c0d000001e
:200f0200440000000000000000000000000000000000000000000366dc8f080000099918f5
:090f220050900001400000008025
:200f2b000080000000000000000000000000000000000000000000152800f0000000108762
:0a0f4b0030900000080000d0000004
:200f5500000000000000000000000000000000000000000000000160168f0c000001808366
:090f7500819000000038000080aa
:200f7e0008000000000000000000000000000000000000000000000000200f000000500bc1
:0a0f9e0028240008034400f00000be
:200fa8004000000000000000000000000000000000000000000000061e8f0c000000000228
:090fc80044900000340001008097
:200fd10000000000000000000000000000000000000000000000000000200f0000000007ca
:0a0ff1007484000002e000e000003c
:200ffb000000000000000000000000000000000000000000000000001c8f0c001001815e2f
:09101b0042000000200008f02052
:2010240000002000000000000000000000000000000000000000000000000f04000000adcc
:0a104400240000000040000f0044eb
:20104e000000000000000000000000000000000000000000002000001c8f0c02800581069d
:09106e00be900a00000000000021
:201077000000000000000000000000000000000000000000000a000000000f00080000a197
:0a10970003d4002002400000000016
:2010a1000000000000000000000000000000000000000000000001e6548f0c00010d9a733e
:0910c100c200000020016b400098
:2010ca0000000000000000000000000000000000000000000000000220200f00000050075e
:0a10ea00ac00000000401ccc000028
:2010f400000300000000000000000000000000000000000000000060548f0c00000f1a3f22
:09111400420000000601fcd32298
:20111d0000000000000000000000000000000000000000000000000020200f000000580b00
:0a113d00b0000000e3c00d0c30000c
:201147000000000000000000000000000000000000000000000000001e8f0c0000280a009d
:09116700000000001c03da000086
:2011700000002000000000000000000000000000000000000000000000000f0000007100bf
:0a11900000000000006004ec0010f5
:20119a00000000000000000000000000000000000000000000000000168f0c0000051892d5
:0911ba0082000000207c5a55510e
:2011c30040000000000000000000000000000000000000000000000000000f000000d9bb29
:0a11e300a800000003c6000552003a
:2011ed00000000000000000000000000000000000000000000000260168f0c0000050000ca
:09120d00000000000400ff0000d5
:2012160000000000000000000000000000000000000000000000000400200f000000d8b0fd
:0a1236000000000003e006c02000e5
:201240000000000000000000000000000000000000000000000002061e8f0c00005000007d
:09126000000000001c0000000069
:2012690000000000000000000000000000000000000000000000000400200f000002000030
:0a1289000000000003c00000000098
:201293000000000000000000000000000000000000000000000000001c8f0c00000000dba9
:0912b300280810400001e1008050
:2012bc0000002000000000000000000000000000004000000000000000000f040200900706
:0a12dc0043d42400000000d00000fd
:2012e6000000000000000000000000000000000000000000002000001c8f0c00801981db1c
:0913060099008000000148f0800c
:20130f000000000000000000000000000000000000000000000a000000000f002802b8ebd8
:0a132f000290000000000000f00032
:201339000000000000000000000000000000000000000000000401e6548f0c03008900002e
:09135900000000001600e8f0801d
:2013620040000000000000000000000000000000000000000000000220200f003000980012
:0a1382000000000000000200f0105f
:20138c00000300000000000000000000000000000000000000000060548f0c00000980f373
:0913ac00494000000000c8f08077
:2013b50040000000000000000000000000000000000000000000000020200f000000100376
:0a13d50034a8040000000000f0102e
:2013df000000000000000000000000000000000000000000000000001e8f0c0010081d1ae6
:0913ff00e00000000000e8f080ad
:2014080000002000000000000000000000000000000000000000000000000f00000011dba9
:0a1428002680000001c00000f0085b
:20143200000000000000000000000000000000000000000000000000168f0c0000018e83d7
:09145200941000001429e8f08157
:20145b0000000000000000000000000000000000000000000000000000000f000000000b57
:0a147b00028100000002c000f00032
:20148500000000000000000000000000000000000000000000000260168f0c0000058807a0
:0914a500015000000001c8f080b4
:2014ae0000000000000000000000000000000000000000000000000400200f0000000001ea
:0a14ce004029000000028200f01027
:2014d8000000000000000000000000000000000000000000000002061e8f0c01000300002f
:0914f800000000000e69e8f0801c
:2015010000000000000000000000000000000000000000000000000400200f00100008007f
:0a1521000000000003600200f0006b
:20152b0040000000000000000000000000000000000000000000026040896c0000001a9619
:09154b0042000000166048f08027
:2015540000002000000000000000000000000000000000000000003c200c69040028000951
:0a157400a000020000000000f04497
:20157e0000000000000000000000000000000000000000000020000280896c02800d813373
:09159e00a00000000000c8f0806c
:2015a70048000000000000000000000000000000000000000002000000086900080050a56c
:0a15c700bb9400000342c200f010c4
:2015d10040000000000000000000000000000000000000000004000600896c0100001e8319
:0915f1008410000c06000896802d
:2015fa00000000000000000000000000000000000000000000000000000969003000500fd0
:0a161a003c810100002000a69000b2
:20162400000300000000000000000000000000000000000000000070148f0c00000388f702
:09164400829000000001e8f08032
:20164d0000000000000000000000000000000000000000000000000000200f00000008073f
:0a166d00c001020000000200f0803e
:201677000000000000000000000000000000000000000000000002001e8f0c001008017a05
:09169700c0c000e03404c8f0807a
:2016a00000002000000000000000000000000000000000000000000400000f000000708700
:0a16c0002d4c000a02638000f000c8
:2016ca00000000000000000000000000000000000000000000000000168f0c0000001977bf
:0916ea000480c080000068f0805b
:2016f30000000000000000000000000000000000000000000000000000000f000000008048
:0a171300c048000000000200f000d2
:20171d000000000000000000000000000000000000000000000020001e855400002d0a3a24
:09173d00b1408000003a0855009b
:201746000800000000000000000000000000000000000000000000000020550000055900a8
:0a176600831400000004040aa00030
:201770000000000000000000000000000000000000000000000002004c90800100081c8353
:091790008190c0000067cc450007
:20179900000000000000000000000000000000000000000000000004205900083000110763
:0a17b90040250000e0027e94a0002d
:0217c300000024
:0217c500110110
:0217c70001011e
:2017c9000000020000000000000800000000000020000000000000000000000000000000d6
:0917e900000000000000000000f7
:2017f2000000000000000000000000000000000000000000000000000000000000000000d7
:0a18120000000000000000000000cc
:20181c00000001000c00000000040000000000001003400000040000000000000000000044
:09183c00000000000000000000a3
:20184500000000000000000000000000000000000000000000000000000000000000000083
:0a1865000000000000000000000079
:20186f000000020000000c00000800000000000020000000c0000000000000000000000063
:09188f0000000000000000000050
:201898000000000000000040000000000000000000000000040000000000000000000000ec
:0a18b8000000000000000000000026
:2018c200000000000004000000000000100000000000004000000001100000000000004061
:0918e200000000000001000000fc
:2018eb000000000000000000000000000000000000000000000000000000000000000000dd
:0a190b0000000000000000000000d2
:2019150000000000000c00000000000030000000000000c00000000020000000000000c0d6
:09193500000000000003000000a6
:20193e00000000000000000000000000000000000000000000000000000000000000000089
:0a195e00000000000000000000007f
:2019680000000000000000000000000000000000000000000000000000000000000000005f
:0919880000000000000000000056
:20199100000000000000000000000000000000000000000000000000000000000000000036
:0a19b100000000000000000000002c
:2019bb0000000000000000000000000000000000000000000000000000000000000000000c
:0919db0000000000000000000003
:2019e4000000000000000000000000000000000001000000000040000000000001000000a1
:0a1a040000000004000000000000d4
:201a0e00000000000004000000000000100000000000004000000000100000000000004014
:091a2e00000000000001000000ae
:201a370000000000000000000000000000000000000000000000000000040000000000008b
:0a1a57000600000000000038000047
:201a6100000000000000000000000000000000000000000000000000000000000000000065
:091a81000000000000000000005c
:201a8a0000000000000000000000000000000000000000000000000000000000000000003c
:0a1aaa000000000000000000000032
:201ab400000000000000000000000000000000000000000000000000000000000000000012
:091ad40000000000000000000009
:201add000000000000000000000000000000000000000000000000000000000000000000e9
:0a1afd0000000000000000000000df
:201b07000000000000000000000000000000000000000000000000000000000000000000be
:091b2700000000000000000000b5
:201b3000000000000000000000000000000000000000000000000000000000000000000095
:0a1b5000000000000000000000008b
:201b5a00000200000000000000000000000000000000000000000000000000000000000069
:091b7a0000000000000000000062
:201b8300000000000000000000000000000000000000000000000000000000000000000042
:0a1ba3000000000000000000000038
:201bad00000000000000000000000000000000000000000000000000000000000000000018
:091bcd000000000000000000000f
:201bd6000000300000000000000000000000000000000000000000000000000000000000bf
:0a1bf60000000000000000000000e5
:201c00000000000000000000000000000000000000000000000000000000000000000000c4
:091c2000000000000000000000bb
:201c290000000000000000000000000000000000000000000000000000000000000000009b
:0a1c49000000000000000000000091
:201c5300000000000000000000000000000000000000000000000000000000000000000071
:091c730000000000000000000068
:201c7c00000000000000000000000000000000000000000000000000000000000000000048
:0a1c9c00000000000000000000003e
:201ca60000020000000000000000000000000000000000000000000000000000000000001c
:091cc60000000000000000000015
:201ccf000000000000000000000000000000000000000000000000000000000000000000f5
:0a1cef0000000000000000000000eb
:201cf9000000000000000000000000000000000000000000000000000000000000000000cb
:091d1900000004000000000000bd
:201d22000000000000000000000000000000000000000000000000000000000000000000a1
:0a1d4200000000c0000000000000d7
:201d4c0000000000000000000000000000000000000000000010000000000000000d00005a
:091d6c000000000000000000006e
:201d75000000000000000000000000000000000000000000000100000000000000008000cd
:0a1d95000000000000000000000044
:201d9f00000000000000000000000000000000000000000000000000000000000000000024
:091dbf00000000002c00000000ef
:201dc8000000000000000000000000000000000000000000000000000000000000000000fb
:0a1de80000000000020000000000ef
:201df2000002000000000000000000000000000000000000000000000000000000000000cf
:091e1200000000000000000000c7
:201e1b000000000000000000000000000000000000000000000000000000000000000000a7
:0a1e3b00000000000000000000009d
:201e45000000000000000000000000000000000000000000000000000000000000000d0070
:091e650000000000000000000074
:201e6e00000030000000000000000000000000000000000000000000000000000000001014
:0a1e8e00000000000000000000004a
:201e98000000000000000000000000000000000000000000000000000000000040000000ea
:091eb80000000c00040000000011
:201ec1000000000000000000000000000000000000000000000000000000000004000000fd
:0a1ee10000000040020300000000b2
:201eeb000000000000000000000000000000000000000000000000000000000000000000d7
:091f0b00000002060000000000c5
:201f14000000000000000000000000000000000000000000000000000000000000000000ad
:0a1f34000000002000000000000083
:201f3e00000200000000000000000000000000000400000000100000000000000000000865
:091f5e003d4000000400005504a0
:201f6700000000000000000000000000000000000000000000010000000000000000000554
:0a1f8700bbd4400000001485548014
:201f9100000000000000000000000000000000000000000000000000000000000000000030
:091fb100000004000400200000ff
:201fba00000000000000000000000000000000000000000000000000000000000000000007
:0a1fda00000000400200160008009d
:201fe4000000000000000000000000000000000000000000000000000000000000000000dd
:0920040000000000000260f50874
:20200d000000000000000000000000000000000000000000000000000000000000000000b3
:0a202d0000000000e06016805c0077
:20203700000000000000000000000000000000000000000000000000000000000000000089
:0920570000000000000140f5004a
:202060008000000000000000000000000000000000000000000000000000000000000000e0
:0a20800000000000000036805c0044
:20208a00000200000000000000000000000000000000000000000000000000000000000034
:0920aa0000000000040240f508ea
:2020b30000000000000000000000000000000000000000000000000000000000000000000d
:0a20d3000000000000001e805c0009
:2020dd000000000000000000000000000000000000000000000000000000000000000000e3
:0920fd00000000000c2160f50850
:20210600000030000000000000000000000000000000000000000000000000000000000089
:0a212600000000000263f4805c007a
:2021300008280004000000000000000000000000000000000000000000000000004000001b
:0921500000000000042260f5000b
:20215900048040002000000000000000000000000000000000000000000000000000000082
:0a21790000000000e20654805c1034
:202183008000000000000000000000000000000000000000000000000000000000000000bc
:0921a3000000020a3c0140f508ad
:2021ac00000000000000000000000000000000000000000000000000000000000000000013
:0a21cc00000000a000003c805c0051
:2021d6000002000000000000000000000000000000000000000000000000000000000000e7
:0921f60000000000003a40f5046d
:2021ff000400000000000000000000000000000000000000000000000000000000000000bc
:0a221f0000000000000054805c0481
:20222900000000000000000000000000000000000000000000000000000000000000800015
:0922490000000c00040160f50026
:20225200000000000000000000000000000000000000000000000000000000000000380034
:0a2272000000004002661e805c00c0
:20227c008000000000000000000000000000000000000000000000000000000000000000c2
:09229c0000000000040060f500e0
:2022a500000000000000000000000000000000000000000000000000000000000280100087
:0a22c5000000000a026016805c00b1
:2022cf0000000000000000000000000000000000000000000000000000000000000000945b
:0922ef003e880000000140f501e9
:2022f800000000000000000000000000000000000000000000000000000000000000000fb7
:0a231800a3d0080000001e805c0046
:20232200000000000000000000000000000000000000000000000000000000002800000073
:0923420028000000000040f50035
:20234b00000000000000000000000000000000000000000000000000000000000100000170
:0a236b006280a00000001e805c00ec
:2023750018000000000000000000000000000000000000000000000000000000000100909f
:0923950038004000006160f50011
:20239e00000020000000000000000000000000000000000000000000000000000000d0052a
:0a23be00ba80290001e7d4805c001a
:2023c8000000000030090140000000000000000000000000000000000000000000030094e4
:0923e80002800000242060f500d1
:2023f10000000000000002a80020000000000000000000000000040000000000000090a0ce
:0a2411006014000000e654805c0037
:20241b00800000000000000000000000000000000800000000000000000000028000809a7d
:09243b00b9400a00004140f5001f
:2024440000000000000000000000000000000000000000000000000000000000080010a1bf
:0a2464006b91802000079c805c0053
:20246e000000000000a00000000000000000000004000000000000000000000028009fd013
:09248e003e80000004005bf50033
:2024970000000000000100000000000000000000000000000000000000000000010079901a
:0a24b7006bd4400000001d905c0093
:2024c100000000000000000000000000000000000000000000000003400000000000005365
:0924e100744000000278000000c4
:2024ea00000000000000000000000000000000000000000000000000040000000000000dc1
:0a250a007509000000e70000000062
:20251400800000000000000000000000000000000000000000000000000000000000000027
:09253400000000002e3bdb00005a
:20253d0000000000000000000000000000000000000000000000000000000000000010006e
:0a255d000000000002403698000064
:2025670000004000000000000000000000000000000000000000000000000000000100040f
:09258700040000002c03cf400009
:2025900000000000000000000000000000000000000000000000000000000000000099850d
:0a25b00068400800020004f000007b
:2025ba000000000000000000000000000000000000000000000000000000000010000010e1
:0925da00140000000c425c00003a
:2025e30000000000000000000000000000000000000000000000000000000000028000084e
:0a2603002a800000000224a08000dd
:20260d00000000000000000000000000000000000000000000000000000000000005005058
:09262d0030c000003463400000dd
:202636000000200000000000000000000000000000000000000000000000000000000189da
:0a265600738d08000062f788002071
:20266000082c00000000000000000000000000000000000000000000250af010000f80d098
:0926800006800000002cee0000b1
:20268900048040000000000000000000000000000000000000000000021e5f10000051830a
:0a26a900ead4080000002cf08000c5
:2026b300800000000000000000000000000000000000000000000003c0000002900d00180d
:0926d30029400000042c00000065
:2026dc00000000000000000000000000000000000000000000000000040000002a000005ab
:0a26fc00f2bc000002000000000024
:2027060000020200000000000000000000000000000000000000000000000000000180d05e
:092726001680000036400000009e
:20272f00040000100000000000000000000000000000000000000000000000000000d0099d
:0a274f0000000000014280000000bd
:20275900000000000000000000000000000000000000000000000000000000000000100050
:0927790000000002000000000055
:2027820004000000000000000000000000000000000000000000000000000000002000e033
:0a27a200000000000000000000002d
:2027ac0080000000000000000000000000000000000000000000000000000000000000008d
:0927cc0000000000000000000004
:2027d5000000000000000000000000000000000000000000000000000000000000000000e4
:0a27f50000000000000000000000da
:2027ff00080000000000403c0000000000000000000000000000000000000000000090584e
:09281f000c0000000000000000a4
:202828000400000000000203c000000000000000000000000000000000000000000011c7ef
:0a284800eac50800000000000000cf
:2028520000020000000003fc40000000000000000000000000000000000000000000000421
:09287200140850000000000000f1
:20287b00000000000000003fc04000000000000000000000000000000000000000000003fb
:0a289b00f140820000000000000080
:2028a50000000000000000000000000000000000000000000004000000000000000f000000
:0928c5000000000080000000008a
:2028ce00000030000000000000000000000000000000000000008000000000000000180022
:0a28ee0000000000140000000000cc
:2028f8000c0000000000000000001000000000000000000000000000000000000001800023
:09291800000000000000000000b6
:20292100040000000000000000000000000000000000000000000000000000000000900002
:0a294100000000000000000000008c
:20294b00802800000000000000000000000000000000000000000000000000028000090039
:09296b0000000000000000000063
:20297400000040000000000000000000000000000000000000000c000000000008000000ef
:0a2994000000000000000000000039
:20299e000002000000e00000000000000000000004000000000000000000000000000e968f
:0929be00400400000000000000cc
:2029c70004070000000100000000000000000000000000000000000000000000000000fde7
:0a29e700a2004000a0000000000064
:2029f1000000000000000000000000000000000000000000000002400c0000800009107b64
:092a1100a9400c000200000000c5
:202a1a00040000000000000000000000000000000000000000000000025c2002000000e533
:0a2a3a003c9402c0004000000000c0
:202a44008020000000000000000000000000000000000000000001401c0af0000009081357
:092a6400498000000000000000a0
:202a6d0000064000000000000000000000000000000000000000003c001e5f00003078138f
:0a2a8d00e0940000000000000000cb
:202a97000800000000000000000000000000000000000000000003c01c0400000000080c20
:092ab70009c0000000003050408d
:202ac00004c0000000000000000000000000000000000000000000140218800280001813d7
:0a2ae000f89d0800000016850410a0
:202aea000002000000000000000000000000000000000000000000022e07a000000709b42f
:092b0a0014000000043400000076
:202b13000000000000000000000000000000000000000000000000006d4e24020000801130
:0a2b3300b8000000000040000000a0
:202b3d000000000000000000000000000000000000000000000000202ce9b0000001800012
:092b5d000f000000004000000020
:202b6600000030000000000000000000000000000000000000000006005a5b000000500014
:0a2b860000f0080040078000000086
:202b9000080000000000000000000000000000000000000000000022a6dd30000000000048
:092bb000314004000000000000a7
:202bb90004c00000000000000000000000000000000000000000001e004e424000000183c6
:0a2bd900eb1428c00000000000000b
:202be300800000000000000000000000000000000000000000a003c0000000008020001c33
:092c030001400200000000000085
:202c0c00000000000000000000000000000000000000000000020020000000002804500901
:0a2c2c00790808aa0000000000006b
:202c3600000200000000000000000000000000000000000000000142800000000001085060
:092c56000002000000340000003f
:202c5f00040000000000000000000000000000000000000000000000600000000000801f52
:0a2c7f007a802000000040000000f1
:202c890000000000000000000000000000000000000000000000000605000307000000dc3a
:092ca90000004400243dc00000bd
:202cb2008000000000000000000000000000000000000000000000003a5ea0001000180d15
:0a2cd200e02008c0020025808020e9
:202cdc008000000000000000000000000000000020000000000000200fed1000000018db19
:092cfc0068c0200000236a4a00b0
:202d050000000000000000000000000000000000010000000000001c005a4200000010875e
:0a2d25002c0c000000039f945000e6
:202d2f000000000000000000000000000000000020000000000000003f00000800001d0000
:092d4f00314200403c3f4f1840a6
:202d5800000000000000000000000000000000000100000000000016037ea000000000f330
:0a2d78003b14880042602012440062
:202d82000000400000000000000a00000000000000000000000000600d0b50000047081fb1
:092da20088800000003edfa4005f
:202dab0000000800000000000000400000000000000000000000001c28da2003002a8013c2
:0a2dcb00ac84000000002fa64000b9
:202dd500000000000000000000000000000000000000000000008007c10a021000091af463
:092df5000290400a2c2bc0a04002
:202dfe000000300000000000000000000000000000000000000000002c5ea0004000b990d2
:0a2e1e0028150000134021a5040050
:202e28000000000000000000000000000000000000000000000000003d050203002b0bd03d
:092e480028100c000002d0054026
:202e5100000000000000000000000000000000000000000000000000021ea000700591a0fb
:0a2e7100694100c000e636e00400ed
:202e7b008000000000000000000000000000000000000000000000200301a20280000d5e04
:092e9b00a9c00a040637f000404a
:202ea400000000000000000000000000000000000000000000000004005e1a020800001375
:0a2ec4002c040020e3e04f85040019
:202ece000002000000000000000a0000000000000400000000000043c2005000000d00d39f
:092eee00788000001402c94508b7
:202ef70000000000000000000000000000000000000000000000002064dc050000800005d1
:0a2f170069080000026005985000f0
:022f21000000ae
:022f2300110299
:022f25000101a8
:202f270000000000000000000000000000000000000000000000000000000000000000008a
:092f470000000000000000000081
:202f5000000000000000000000000000000000000000000000000000000000000000000061
:0a2f70000000000000000000000057
:202f7a000000000000000000000000000000000000000000000000000000008000000000b7
:092f9a000000000000000000002e
:202fa30000000000000000000000000000000000000000000000000000000000000000000e
:0a2fc3000000000000000000000004
:202fcd000000000000000000000000000000000000000000000000000000000000000000e4
:092fed00000000000000000000db
:202ff6000000000000000000000000000000000000000000000000000000000000000000bb
:0a30160000000000000000000000b0
:203020000000000000080000000000002000000000080000000000002000000000000080c0
:0930400000000000000200000085
:20304900000000000000000000000000000000000000000000000000000000000000000067
:0a306900000000000000000000005d
:2030730000000000000c00000000000030000000000c00000000000030000000000000c005
:0930930000000000000300000031
:20309c00000000000000000000000000000000000000000000000000000000000000000014
:0a30bc00000000000000000000000a
:2030c6000000000000000000000000000000000000000000000000000000000000000000ea
:0930e600000000000000000000e1
:2030ef000000000000000000000000000000000000000000000000000000000000000000c1
:0a310f0000000000000000000000b6
:20311900000000000000000000000000000000000000000000000000000000000000000096
:0931390000000000000000000885
:20314200000000000000000000000000000000000000000000000000000000080000000065
:0a31620000002000000002000080c1
:20316c00000000000008000000000000200000000008000000000000200000000000008073
:09318c00000000000003800000b7
:2031950000000000000000000000000000000000000000000000000000000000000000001a
:0a31b500000000000000020000000e
:2031bf000000000000000000000000000000000000000000000000000000000000000000f0
:0931df00000000000000000000e7
:2031e80000002000000000000000000000000000000000000800000000000000000000009f
:0a32080000000000000000000000bc
:2032120000000000000000000000000000000000000000000000000000000000000000009c
:0932320000000000000000000093
:20323b00000000000000000000000000000000000000000000000000000000000000000073
:0a325b000000000000000000000069
:20326500000000000000000000000000000000000000000000000000000000000000000049
:0932850000000000000000000040
:20328e00000000000000000000000000000000000000000000000000000000000000000020
:0a32ae000000000000000000000016
:2032b8000003000000000000000000000000000000000000000000000000000000000000f3
:0932d800000000000000000000ed
:2032e1000000000000000000000000000000000000000000000000000000000000000000cd
:0a33010000000000000000001800aa
:20330b000000000000000000000000000000000000000000000000000000000000000000a2
:09332b0000000000000000000099
:20333400000020000000000000000000000000000000000000000000000000000000000059
:0a335400000000000000000000006f
:20335e0000000000000000000000000000000000000000000000000000000000000000004f
:09337e000000000000000008003e
:20338700000000000000000000000000000000000000000000000000000000000000000026
:0a33a700000000000000000000001c
:2033b1000000000000000000000000000000000000000000000000000000000000000000fc
:0933d100000000000000000000f3
:2033da000000000000000000000000000000000000000000000000000000000000000000d3
:0a33fa0000000000000000000000c9
:203404000000000000000000000000000000000000000000000000000000000000000000a8
:093424000000000000000000009f
:20342d0000000000000000000000000000000000000000000000000000000000000000007f
:0a344d000000000000000000000075
:20345700000000000000000000000000000000000000000000000000000000000000000055
:093477000000000000000000004c
:2034800000002000000000000000000000000000000000000000000000000000000000000c
:0a34a0000000000000000000000022
:2034aa00000000000000000000000000000000000000000000000000000000000000000002
:0934ca00000000000000000000f9
:2034d3000000000000000000000000000000000000000000000000000000000000000000d9
:0a34f30000000000000000000000cf
:2034fd000000000000000000000000000000000000000000000000000000000000000000af
:09351d00000000000000000000a5
:20352600000000000000000000000000000000000000000000000000000000000000000085
:0a354600000000000000000000007b
:20355000000300000000000000000000000000000000000000000000000000000000000058
:0935700000000000000000000052
:20357900000000000000000000000000000000000000000000000000000000000000000032
:0a3599000000000000000000000028
:2035a300000000000000000000000000000000000000000000000000000000000000000008
:0935c300000000000000000000ff
:2035cc000000200000000000000000000000000000000000000000000000000000000000bf
:0a35ec0000000000000000000000d5
:2035f6000000000000000000000000000000000000000000000000000000000000000000b5
:09361600000000000000000200a9
:20361f0000000000000000000000000000000000000000000000000000000000000000008b
:0a363f000000000000000000400041
:20364900000000000000000000000000000000000000000000000000000000000000000061
:0936690000000000000000000058
:20367200000000000000000000000000000000000000000000000000000000000000000038
:0a369200000000000000000000002e
:20369c0000000000000000000000000000000000000000000000000000000000000000000e
:0936bc0000000000000000000005
:2036c5000000000000000000000000000000000000000000000000000000000000000000e5
:0a36e50000000000000000000000db
:2036ef000000000000000000000000000000000000000000000000000000000000000000bb
:09370f00000000000000000000b1
:20371800000020000000000000000000000000000000000008000000000000000000000069
:0a3738000000000000000000000087
:20374200000000000000000000000000000000000000000000000000000000000000000067
:093762000000000000000000005e
:20376b0000000000000000000000000000000000000000000000000000000000000000003e
:0a378b000000000000000000000034
:20379500000000000000000000000000000000000000000000000000000000000000000014
:0937b5000000000000000000000b
:2037be000000000000000000000000000000000000000000000000000000000000000000eb
:0a37de0000000000000000000000e1
:2037e8000001000000000000000000000000000000000000000000000000000000000000c0
:09380800000000000000000000b7
:20381100000000000000000030000000000000000000000000000000000000000000000067
:0a3831000000000000000000180075
:20383b0000000000000000000000000000000000000000000000000000000000000000006d
:09385b0000000000000000000064
:20386400000024000000000000000000000000000000000000000000000000000000000020
:0a388400000000000000000000003a
:20388e0000000000000000000000000000000000000000000000000000000000000000001a
:0938ae0000000000000000080009
:2038b7000000000000000000000000000000000000000000000000000000000000000000f1
:0a38d70000000000000000000000e7
:2038e1000000000000000000000000000000000000000000000000000000000000000000c7
:09390100000000000000000000bd
:20390a00080000000000000000000000000000000000000000000000000000000000000095
:0a392a000000000000000000000093
:20393400000000000000000000000000000000000000000000000000000000000000000073
:093954000000000000000000006a
:20395d0000000000000000000000000000000000000000000000000000000000000000004a
:0a397d000000000000000000000040
:20398700000000000000000000000000000000000000000000000000000000000000000020
:0939a70000000000000000000017
:2039b0000000200000000000000000000000000000000000000000000000000000000000d7
:0a39d00000000000000000000000ed
:2039da00000000000000000000000000000000000000000000000000000000010000bbd43d
:0939fa00000000000000000000c4
:203a0300080000000000000000000000000000000000000000000000000000000000332444
:0a3a23002000000000000000000079
:203a2d00000000000000000000000000000a0000000000000000000000000000000000006f
:093a4d0000000000000000000070
:203a560000000000000000000000000000010000000000000000000000000000000000004f
:0a3a76000000000000000000000046
:203a800000030000000000000001292cb0000000000000000000000000000000000000001d
:093aa00000000000000000080015
:203aa900000000000000000000000191ed000000000000000000000000000000000000007e
:0a3ac90000000000000000000000f3
:203ad3000000000000000000000000000800000000000000000000000000000000000000cb
:093af300000000000000000000ca
:203afc0000002000000000000000000000b0000000000000000000000000000000000000da
:0a3b1c00000000000000000000009f
:203b26000000000000000000000000000380000000000005000000000000000000000000f7
:093b460024000000000000000052
:203b4f00000000000000000000000000000000000000000000000000000000000000000056
:0a3b6f000300000000000000000049
:203b790000000000000000000000000000000000000000000000000000000000000000002c
:093b9900380000000000000000eb
:203ba200000000000000000000000000000000000000000000000000000000000000000003
:0a3bc20000000000000000000000f9
:203bcc000000000000000000000000000000000000000000000000000000000000000000d9
:093bec00000000000000000000d0
:203bf5000000000000000000000000000000e00000000000000000000000000000000000d0
:0a3c150000000000000000000000a5
:203c1f0000000000000000000000000000180000000000000001000ef80000400100030022
:093c3f000000000000000000007c
:203c480000002000000000000000000000d0c00000000000080002801c500000000007406f
:0a3c68000000000000000000000052
:203c720000000000000000000000b005a00000100000000000000136c0000000010f13941f
:093c920068000403fbfe000000c1
:203c9b00000000000000000000000b286b00000100000000000000097a0000002100f04096
:0a3cbb00200000003fd5c00000000b
:203cc5000000000000000000000000000000000000000000001028dea0010000010f178081
:093ce500000000000000000002d4
:203cee0000000000000000000000000000700000000000000000128c30d0c0000800f000f0
:0a3d0e00000000000000000000208b
:203d1800000300000000000000000000000a00000000000000000016978000000169900057
:093d38000000000014ef01f0820c
:203d410000000000000000000000000000010000000000000000000d7e08f0c021096f0085
:0a3d6100000000800003e01f0000d6
:203d6b000000000000000000000000000000000000000000001028dec01c0001010f160c13
:093d8b000000040014ff01c00057
:203d940000002000000000000000000000000000000000000000128c20d000000000f04031
:0a3db400200000000000d010000005
:203dbe00000000000000000000000000000000000000001000103f9df519808005699000dd
:093dde00000001028cfa01b4009e
:203de7000000000000000000000000000000000000000000800003fc0d08d41420096100b6
:0a3e07000380000028c00f0f000028
:203e1100000000000000000000000000000000000000000000000000000e00000169901c6d
:093e3100384000000000580000b8
:203e3a000000000000000000000000000000000000000000000000000070000021096f005f
:0a3e5a00000000000000002000003e
:203e6400000000000000000000000000000c000c0000000000000000001d0000010f1714ce
:093e840006820000000070e0005d
:203e8d0000000000000000000000000000010000c00000000000000000b080002000f00212
:0a3ead00c29050000000000c00005d
:203eb700400000000000000000000000001e4000000000000000000000000000010f160027
:093ed7000000000000d8001000fa
:203ee00000002000000000000000000000f100000000000000000000005000002200f0004f
:0a3f000002c0000000d5e00d000033
:203f0a000000000000000000004001d697800000000000000000000000004014050f12806f
:093f2a00282001028cfe70000148
:203f330008000000000000000000000859080000000000000000000000d008010000f00034
:0a3f53000400108028c30080001055
:203f5d0044000000000000000000294680000000000000020000811dc7000088050f12a05c
:093f7d0068000000000001e000f2
:203f8600c0c00000000000000000414a6f0000000000000000000005c9080000c000f042d9
:0a3fa60040060000000000100008b3
:203fb000000100000000000000000000000c0000000000034001295590010000050f1380ea
:093fd00002c0000a00fb00a0c0c1
:203fd9000000000000000000000000000000000000000000000001543a0081000000f04088
:0a3ff90000100020115cc010180039
:2040030000000000000000000000000000000000000000000010811dc0010000010f90008e
:0940230000000000000000e400b0
:20402c000000240000000000000000000000010000000000000000040f00e0000000f30069
:0a404c000000000000000f0020003b
:20405600006800000000000000003144100000800000000000000000001c0000010f13a0fe
:0940760000000000000000ec0055
:20407f00000000000000000000004328690000140000000000000000007100000000f002d6
:0a409f00c28000000000090f0000bd
:2040a90000000000000000000000000007800000000000020020015fd79e4000800f101684
:0940c90028000000000001800045
:2040d2000800000000000000000000000000000000000000000000002f0098000000f0000f
:0a40f200000000000000000f0000b5
:2040fc000000000000000000000000000000000000000000001028d5c900800000a53a402f
:09411c000400000000005000c87e
:2041250000000000000000007000000000000000000000000000028c30980500010550b8a1
:0a41450003400000000000000040ed
:20414f00000000000000000000000000000000000000000000000104f900000000809ac672
:09416f002800000800ee00a00089
:204178000000200000000000000000000000000000000000090000056e100140000017b073
:0a41980002800001a8018118000058
:2041a2000000000000000000000000000000000000000000001022c410012014000000348e
:0941c2006000400284c959c015d7
:2041cb0048000000000000000000000000000000000000000002011c2f00840100000000b9
:0a41eb0040000500147d8000001460
:2041f500000000000000000000000000000000000000000000108104f518000c10053a406d
:0942150078003000127b8002c029
:20421e00c000000000000000000000000000000000000000000000042e000000990af07487
:0a423e0006480300000da109000866
:20424800000200000000000000000000000000000000000000002007c008000042847f80a0
:0942680000000003f85bd9e080be
:20427100000000000000000020000000000000000000000000000009c9010000000000a892
:0a429100000000003fffe100000004
:20429b000000000000000000000000000000000000000000003028dfc001000000809a8071
:0942bb000000010081ca0014009a
:2042c4000003e000000000000000000000000000000000000000028c20b0e0000000172082
:0a42e400000000002d41c10f200072
:2042ee0044000000000000000000000000000000000000000010a10fa8190000c0a33e004a
:09430e003400031005fc018000dd
:204317000080000000000000000000000000000000000000000000000e909000000a30c2dc
:0a43370042c0002000038f0f0000b9
:20434100000000000000000000000000000000000000000000000104e18b000042847acedd
:0943610060000108814100e00048
:20436a000800000000000000000000000000000000000000000000076f09c00000000038b4
:0a438a00040400008400bd0f0000d1
:2043940040000000000000000000000000000100000000000000a00ee8180000028077849d
:0943b4003a80000286c939c000fc
:2043bd00c00000000000000000000000000000000000000000000009e9b100000000152048
:0a43dd00020000001465b08e000c11
:2043e700000000000000000000000000070000000000000000008154b001000000805b044a
:0944070074000003f84d180000d8
:204410000000200000000000000000000008000000000000000000002f00d080000023348e
:0a44300003c000003feec0000000d2
:20443a000000000000000000000000000000000000000000000000000000001440a3568095
:09445a0000004100c1df00a011c7
:2044630040000000000000000000000000000000000000000000000000000001000a30c0fe
:0a448300000004000d42c00e00907e
:20448d00000000000000000000000000000000000000000000808155bd80000c000000046c
:0944ad000001200007e8101408ca
:2044b600c000000000000000000000000000001000000000000200001f30b180c0000000d4
:0a44d6002006230029dff00d310c51
:2044e00000030000000000000000000000000000000000000000815e8800000014053b8678
:094500000000000828eb00140083
:204509000000000000000000000000000000000000000000000040002a300000180af0e402
:0a45290023800000800380080000da
:204533000000000000000000000001e4e80000000000000000000000000100000000001684
:0945530060000008007e00b000c9
:20455c0000002000000000000002200ced30000000000000000000000000e01000000003e1
:0a457c0062800000a800bd1d2000b1
:20458600000000000000000000000000000000000000000000000000038000000000000092
:0945a6000000000287df80d6004e
:2045af00000000000000000000000000000080000000000000000000000800000000000361
:0a45cf00c0060000145ea908c00039
:2045d9000000000000000000000000000000000000000000000000000700000002807b1ea0
:0945f90000000000000078000041
:2046020000800000000000000000000000008000000000000000000000000000010023f77d
:0a4622004000000000000d00000041
:20462c0000000000000000000000000000000000000000000000a015f100000002847b00c7
:09464c002280000285de8090004e
:204655008000000000000000000000000000000000000000000020057d0000002000013dc5
:0a467500c01600001456f9090008f1
:02467f00000039
:02468100110323
:02468300010133
:20468500000000000000000000000000000000000000000010000000000000000000000005
:0946a5000000000000000000000c
:2046ae000000000000000000000000000000000000000000000000000000000000000000ec
:0a46ce0000000000000000000000e2
:2046d800000000000000000000000000000000000000000020000000000000800000000022
:0946f800000200000000000000b7
:20470100000000000000000000000000000000000000000000000000000000000000000098
:0a472100000000000000000000008e
:20472b0000000000000000000000000000000000040000001000000000000000000000005a
:09474b0000000000000000000065
:204754000000000000000000000000000000000000c000f000000000000000000000000095
:0a477400000000000000000000003b
:20477e00000000000008000000000000000000000000000000000000200000000000008073
:09479e0000000000000200000010
:2047a7000000000000000000000000000000000000000000000000000000000000000000f2
:0a47c70000000000000000000000e8
:2047d10000000000000c00000000000030000000000c00000000000030000000000000c090
:0947f100000000000003000000bc
:2047fa0000000000000000000000000000000000000000000000000000000000000000009f
:0a481a000000000000000000000094
:20482400000000000000000000000000000000000000000000000000000000000000000074
:094844000000000000000000006b
:20484d0000000000000000000000000000000000000000000000000000000000000000004b
:0a486d000000000000000000000041
:204877000000000000000000000000000a0000000000000000000000000000000000000017
:0948970000000000000000000018
:2048a0000000000000000000000000000020000800000000020000000000000800000000c6
:0a48c000000020000000000000804e
:2048ca000000000000080000000000002000000000080000000000003000000000000080ee
:0948ea00000000000002000000c3
:2048f300000000000020000000000000008000000020000000000000800000000000020063
:0a491300000000000000000000009a
:20491d0000000000000000000000000000000000000000000000000000000000000000007a
:09493d0000000000000000000071
:20494600000000000000000000000000000000000000000000000000000000000000000051
:0a4966000000000000000000000047
:20497000000000000000000000000000000000000000000000000000000000000000000027
:094990000000000000000000001e
:204999000000000000000000000000000000000000000000000000000000000000000000fe
:0a49b90000000000000000000000f4
:2049c3000000000000000000000000000000000000000000000000000000000000000000d4
:0949e300000000000000000000cb
:2049ec000000000000000000000000000000000000000000000000000000000000000000ab
:0a4a0c0000000000000000000000a0
:204a160000020000000000000000000000000000000000000000000000000000000000007e
:094a360000000000000000000077
:204a3f00000000000000000000000000000000000000000000000000000000000000000057
:0a4a5f00000000000000000000004d
:204a690000000000000000000000000000002000000000000000000000000000000000000d
:094a890000000000000000000024
:204a92000000300000000000000000000000040000000000000000000000000000000000d0
:0a4ab20000000000000000000000fa
:204abc000000000000000000000000000000000000000000000000000000000000000000da
:094adc00000000000000000400cd
:204ae5000000000000000000000000000000000000000000000000000000000000000000b1
:0a4b050000000000000000000000a6
:204b0f00000000000000000000000000000000000000000000000000000000000000000086
:094b2f000000000000000000007d
:204b380000000000000000000000000000000000000000000000000000000000000000005d
:0a4b58000000000000000000000053
:204b6200000200000000000000000000000000000000000000000000000000000000000031
:094b82000000000000000000002a
:204b8b0000000000000000000000000000000000000000000000000000000000000000000a
:0a4bab0000000000000000200000e0
:204bb5000000000000000000000000000000000000000000000000000000000000000000e0
:094bd500000030000000000000a7
:204bde000400000000000000000000000000000000000000000000000000000000000000b3
:0a4bfe0000000200000000000000ab
:204c08008000000000000000000000000000000000000000000000000000100000000000fc
:094c280000000000000000000083
:204c3100000000000000000000000000000000000000000000000000000000000000000162
:0a4c5100c000000000000000000099
:204c5b00080000000000000000000000000000000000000000000000000000000000000031
:094c7b0000000802bc100000005a
:204c840004000000000000000000000000000000000000000000000000000000000000000c
:0a4ca400000000002bc68000000095
:204cae000000000000000000000000000000000000000000000000000000000000000000e6
:094cce00000000000000000a00d3
:204cd7000000000000000000000000000000000000000000000000000000000000000000bd
:0a4cf7000000000000000000400073
:204d0100000000000000000000000000000080000000000000000000000000000000000012
:094d210040000000000000000049
:204d2a00000030000000000000000000000000000000000000000000000000000000000039
:0a4d4a0007800000000000000000d8
:204d5400800000000000000000000000000000800000000000000000000018000000000027
:094d7400200030000000000000e6
:204d7d00000000000000000000000000000000100000000000000000000000000000000006
:0a4d9d0000400300000000000000c9
:204da70080004000000000000000000000000000000000000000000000000000000000002c
:094dc70000004000000000b000f3
:204dd0000000080000000000000000000000000000000002000000000000000000000000b9
:0a4df00000000400000000010000b4
:204dfa000042000000000000000000000000000000000000800000000000000020aa00000d
:094e1a003c0000000000700000e3
:204e230000030000000000000000000000000000000000000000000000000000002aa12879
:0a4e43000040000000000000000025
:204e4d00000000000000000000000000000000000000000000000000000000000000000045
:094e6d006000300000005000005c
:204e76000000000000000000000000000000000000000000000000000000000000100030dc
:0a4e9600064003000000081a0000a7
:204ea0008000000000000000000000000000000000000000000000000000000000af075c60
:094ec00020000000000050a000d9
:204ec90000000000000000000000000000000000000000000000000000000000003a016a24
:0a4ee9000640000000000d810000eb
:204ef3000000000000000000000000000000000000000000000000000000000000af03c02d
:094f130000000000014f00a000a5
:204f1c0000000800000000000000000000000000000000000000000000000000003a0168ca
:0a4f3c0000000000011ed00100007b
:204f46000000000000000000000000000000000000000000000000000000000000af035c3d
:094f66003c000000000000a00066
:204f6f0000000400000000000000000000000000000000000000000000000000003a017a69
:0a4f8f0000400000000000000000d8
:204f99000000000000000000000000000000000000000000000000000000000000af07c47e
:094fb900000000000000000000ef
:204fc20000001000000000000000000000000000000000000000000000000000003a012a5a
:0a4fe20006000000000000000000bf
:204fec000000000000000000000000000000000000000000000000000000000000af0744ab
:09500c004000000000df009000ec
:2050150000000000000000008000000000000000000000000000000000000000003a012a96
:0a50350067800000007ce0010c0021
:20503f008000000000000000000000000000000000000000000000000000000010af03c04f
:09505f00000050000000000000f8
:2050680000000000000000000000000000000000000000000000000000000000003a0138b5
:0a508800000004000000000000001a
:205092000000400000000000000000000000000000000000000000000000000020af0340ac
:0950b200000000000000000000f5
:2050bb0000000000000000000000000000000200000000000000000000000000003a013860
:0a50db0000000000000000000000cb
:2050e5000000000000000000000000000000000000000000000000000000000000af0740b5
:09510500200030031f48000000e7
:20510e0004000000000000000000000000000000000000000000000000000000003a0178ca
:0a512e006640020032dc058000003c
:205138008000000000000000000000000000000000000000000000000000000004af03c25f
:095158000000000003ea50000011
:2051610000000000000000000000000000000000000000000000000000000000003a01698a
:0a518100e6000000006dc81c0000ed
:20518b000c00000000000000000000000000000000000000000000000000000000af034006
:0951ab00000002003020f0a00019
:2051b40004800000000000000000000000000000000000000000000000000000003a0178a4
:0a51d40000000030030e001b000075
:2051de000002000000000000000000000000000000000000000000000000000000af03c23b
:0951fe0000000002b42e00c00004
:2052070000000000000000000000000000000000000000000000000000000000003a0179d3
:0a522700e00000103f54859a0000db
:205231000040000000000000000000000000000000000000000000000000000000af074027
:0952510038000000001b190000e8
:20525a0000033000000000000000000000000000000000000000000000000000003a01299d
:0a527a0066c000100056990a0000fb
:205284000000000000000000000000000000000000000000000000000000000000af07c490
:0952a40060000000035c510000f1
:2052ad0000000000000000000000000000000000000000000000000000000000003a012a7c
:0a52cd0067c00000042cf00e0c0076
:2052d7000000000000000000000000000000000000000000000000000000000000af0340c5
:0952f700000050014c28000001e8
:2053000000000000000000000000000000000000000000000000000000000000003a013919
:0a53200060000410a80e80000014c5
:20532a000002000000000000000000000000000000000000800000000000000000afdbc097
:09534a0000000000282ed08000b4
:2053530000000000000000000000000000000000000000000000000000000000003a09a84f
:0a537300000000002bc48198000028
:20537d00000000000000000000000000000000000000000000000000000000000000000010
:09539d0000000000000000da002d
:2053a6000000000000000000000000000000000000000000000000000000000000000000e7
:0a53c600000000000000000140009c
:2053d00080000000000000000000000000000000000000000000000000000000000000003d
:0953f000000000000000100000a4
:2053f900000000000000000000000000000000000000000000000000000000000000000094
:0a5419000000000000000800000081
:20542300000000000000000000000000000000000000000000000000000000000000000069
:0954430000000000281001000027
:20544c00000000000000000000000000000000000000000000000000000000000000000040
:0a546c00000000200294c01c0000a4
:20547600000000000000000000000000000000000000000000000000000000000000000016
:09549600000000000000100000fd
:20549f000000000000000000000000000000000000000000000000000000000000000000ed
:0a54bf0000000000000008000000db
:2054c9000200000000000000000000000000000000000000000000000000000000000000c1
:0954e900000000000000000000ba
:2054f20000000000000000000000000000000000000000000000000000000000000000009a
:0a551200000000000000000000008f
:20551c0000000000000000000000000000000000000000000000000000000000000000006f
:09553c0000000802841a090000b5
:20554500000000000000000000000000000000000000000000000000000002000000000044
:0a55650000000010a88ee52a0000e7
:20556f0080000000000000000000000000000000000000000000000000000100000000009b
:09558f0000000003e83e000001e9
:205598000000000000000000000000000000000000000000000000000000000000000000f3
:0a55b800000000002814d0000010cd
:2055c2000000000000000000000000000000000000000000000000000000000000000000c9
:0955e20000000000000000d000f0
:2055eb000000000000000000000000000000000000000000000000000000000000000000a0
:0a560b000000000000000001000094
:20561500000000000000000000000000000001400000000000000000000000000000000034
:095635000000000000000000006c
:20563e000000000000001c0000000000000000080000000000000000000001c00000000067
:0a565e000000000000000000000042
:2056680080000000000003800000000000000000000000000000000000000000000000001f
:0956880000000000000000000019
:205691000000000000000000000000000000000000000000000000000000000000000000f9
:0a56b10000000000000000000000ef
:2056bb000000000000000000000000000000000000000000000000000000000000000000cf
:0956db00000000000000000000c6
:2056e4000000000000000000000000000000000000000000000000000000000000000000a6
:0a57040000000000000000000c008f
:20570e00000200000000000000000000000000000000000700000000000000000000000072
:09572e0000000000002800e0006a
:20573700000000000000000000000000000000000000000000000000000000000000000052
:0a5757000000000201449001000070
:20576100000000000000030000000000000000000000000000000000000000000000000025
:09578100000002210a48000000aa
:20578a00000030000000000400000000000000000000000000000000000001c0000000000a
:0a57aa000000000191c6d0000000cd
:2057b4000000000000000000000000000000000000000000000000000000000000000000d5
:0957d400000000000000000000cc
:2057dd000000000000000c00000000000000000000000000000000000000000000000000a0
:0a57fd0000000000000000000000a2
:20580700800000000000000000000000000000800000001000000000000000000000000071
:0958270000000000000001c109ad
:205830000000000000000000000000000000001000000002800000000000000000000000c6
:0a585000000000000000000a001034
:20585a00080200800f2c0000000000000000000000000000800000000000000000000000e9
:09587a0000000000000000c00065
:205883000000000001f680000000000000000000000000001000000000000000000000007e
:0a58a300000000000000019f00005b
:2058ad000000000000000002000000000000000000000000000022ffb000000000020a40bc
:0958cd002000000000000000149e
:2058d60000000000000000000000000000000000000000000000080069000000040a21f41e
:0a58f60000400000000000000080e8
:205900000000000000000000000000000000000000000000000000000f000000000106046d
:095920000000000004200000005a
:2059290000000000000000000000000000000000000000000000000000000000040815ae8f
:0a5949004000001000548000000030
:205953000000000000000000000000000000000000000000000000000000000000000ac06a
:0959730038000041a41010a0004e
:20597c0000000000000000000000000000000000000000000000000000000000040045249e
:0a599c00000000001a4f8001c8004f
:2059a600000200000000000000000000000000000000000000000000000e000000e506e402
:0959c600000000000000000200d6
:2059cf0000000000000000000000000000000000000000000000000000001000340807bea7
:0a59ef00000000000000000040006e
:2059f900000000000000000000000000000000000000000000000000050000000003581e10
:095a1900200000001420000080b0
:205a22000000300000000000000000000000000000000000200000000000000000003300e1
:0a5a420060000000014ea000080003
:205a4c000000000000000000000000000000000000000000000000000080000c000a03544d
:095a6c006400300000005000004d
:205a75000000000000000000000000000000000000000000000000000038000080200579bb
:0a5a950067c00300000000080c00c9
:205a9f0000000000000000000000000000002000000000000000000005000010000000248e
:095abf0028005000000050000016
:205ac8000000000000000000000000000000040000000000000000000080000140000003f6
:0a5ae800e0000400000000000000d0
:205af20000020000000000000000000000000000000000000000000005000000000000008d
:095b120028000000000001000061
:205b1b00000000000000000000000000000008000000000000000000000000000000000062
:0a5b3b00000000000000001e000042
:205b45000000000000000000000000000f0000000000000000250043e108000000af0b40e6
:095b650000020000000098080095
:205b6e000000000000000000000000000080000000000000000500157d801000100057a564
:0a5b8e00c00010000000010000003c
:205b98000000000000000000000000000010000000000004000111c0d000000200000a5ccf
:095bb800200008030bd9f0b0082d
:205bc1000000000000000000000000000001c000000000000001022d41000000040407681b
:0a5be1000000000031cff181014007
:205beb00000000000000000000000000000e000000000000000020e4f18f00000000768012
:095c0b0000000000000001080087
:205c1400000000000000000000000000000010000000000000000004ed50100000010531d8
:0a5c3400600000000000001c3000ba
:205c3e000002000000000000000000000f0000000000000000001080c00e000000000ec405
:095c5e0021000000000000040018
:205c670000000000000000000000000000800000000000000001020400000000040403a0eb
:0a5c8700002e00000000011aa0002a
:205c9100000000000000000000000000008000000000000000000f00000000000000020062
:095cb100200000000400010000c5
:205cba000000300000000000000000000038000000000000000910f0007000000005a02024
:0a5cda00000000108056800a000050
:205ce400080000000000001000000000000f00080000003820002bc3d00e00000000b2801b
:095d040038020403e02b000e003c
:205d0d00c4000000000000028000000000001000c000000005001014f900100000010729fd
:0a5d2d00628000b53f8cc10e000833
:205d37008000000000000000000000000000001400000000000000000080800000001a405e
:095d57000000000003fed0000171
:205d600040000000000000000000000000000001400000000000000000500000000105202c
:0a5d8000000000000407e00000101e
:205d8a00002a00000000000300022075c00000000000000080020143000000000010971eea
:095daa0025020000000000e000e9
:205db3000400400000000000000008175f00000000000000000840145e180000000005b87f
:0a5dd30062605000000000010000b3
:025ddd000000c4
:035ddf0062003f20
:035de200720080cc
:025de5001100ab
:035de70082000037
:025dea000103b3
:085dec000000000000000000af
:085df4000000000000000000a7
:085dfc0000000000000000009f
:085e0400000000000000000096
:0261ec000000b1
:0361ee00820080ac
:0261f1000103a8
:0861f3000000000000000000a4
:0861fb0000000000000000009c
:08620300000000000000000093
:08620b0000000000000000008b
:0265f3000000a6
:0265f500110192
:0365f7008200001f
:0265fa0001039b
:0865fc00000000000000000097
:0866040000000000000000008e
:08660c00000000000000000086
:0866140000000000000000007e
:0269fc00000099
:0369fe0082008094
:026a010001038f
:086a030000000000000000008b
:086a0b00000000000000000083
:086a130000000000000000007b
:086a1b00000000000000000073
:026e030000008d
:026e0500110278
:036e070082000006
:026e0a00010382
:086e0c0000000000000000007e
:086e1400000000000000000076
:086e1c0000000000000000006e
:086e2400000000000000000066
:02720c00000080
:03720e008200807b
:02721100010377
:08721300000000000000000073
:08721b0000000000000000006b
:08722300000000000000000063
:08722b0000000000000000005b
:02761300000075
:0276150011035f
:03761700820000ee
:02761a0001036a
:08761c00000000000000000066
:0876240000000000000000005e
:08762c00000000000000000056
:0876340000000000000000004e
:027a1c00000068
:037a1e0082008063
:027a210001035f
:087a230000000000000000005b
:087a2b00000000000000000053
:087a330000000000000000004b
:087a3b00000000000000000043
:027e230000005d
:017e2500223a
:027e2600b70f94
:027e2800010651
:00000001FF
