:02000000ff00ff
:080002004c6174746963650030
:17000a00694345637562653220323032302e31322e32373934330071
:15002100506172743a2069434534304c50314b2d514e38340034
:1b003600446174653a204a756e20313320323032322031363a32323a3431007c
:0200510000ffae
:040053007eaa997e6a
:02005700510056
:0200590001059f
:03005b0092000010
:03005e0062014bf1
:030061007200909a
:0300640082000017
:02006700110086
:02006900010193
:20006b00000000000000000000000000000000000000000000000000000000000000000075
:09008b00000000800000000000ec
:2000940000000000000000000000000000000000000000000000000000000000000000004c
:0a00b4000000000000000000000042
:2000be00000000000000000000000000000000000000000000000000000000001000000012
:0900de00000000400000000000d9
:2000e7000000000000000000000000000000000000000000000000000000000000000000f9
:0a01070000000000000000000000ee
:200111000000000000000000000000000000000000000000000000000000000000000000ce
:0901310000000080000001000044
:20013a000000000000000000000000000000000000000000000000000000000000000000a5
:0a015a00000000000000001000008b
:200164000000000000040000000000001000000000000040000000001000000000000040d7
:0901840000000000000100000071
:20018d00000000000000000000000000000000000000000000000000000000000000000052
:0a01ad000000000000000000000048
:2001b70000000000000c00000000000030000000000000c00000000030000000000000c03c
:0901d7000000000000020000001d
:2001e0000000000000000000000000000000000000000000000000000000000000000000ff
:0a02000000000000000000000000f4
:20020a000000000000000000000000000000000000000000000000000000000000000000d4
:09022a00000000000000000000cb
:200233000000000000000000000000000000000000000000000000000000000000000000ab
:0a0253000000000000300000000071
:20025d00000000000000000000000000000000000000000000000000000000000000000081
:09027d0000000000000000000078
:20028600000000000000000000000000000000000000000000004000000000000100000017
:0a02a600000000040000000000004a
:2002b00000000000000400000000000010000000000000400000000010200000000000406a
:0902d000800000000001000000a4
:2002d900000000000000000000000000000000000000000000000000000000000000000005
:0a02f90004000000000000000000f7
:200303000000000000000000000000000000000000000000000000000000000000000000da
:09032300000000000000000000d1
:20032c00000020000000000000000000000000000040000000000000000000000000000051
:0a034c0000000000000000000000a7
:20035600000000000000000000000000000000000000000000000000000000000000000087
:090376000000000000000000007e
:20037f0000000000000000000000000000000000000000000000000000000000000000005e
:0a039f000000000000000000000054
:2003a900000000000000000000000000000000000000000000000000000000000000000034
:0903c9000000000000000000002b
:2003d20000000000000000000000000000000000000000000000000000000000000000000b
:0a03f2000000000000000000000001
:2003fc000003000000000000000000000000000000000000000000000000000000000000de
:09041c00000000000000000000d7
:200425000000000000000000000000000000000000000000000000000000000000000000b7
:0a04450000000000000000000000ad
:20044f0000000000000000000000000000000000000000000000000000000000000000008d
:09046f0000000000000000000084
:20047800000020000000000000000000000000000000000000000000000000000000000044
:0a049800000000000000000000005a
:2004a20000000000000000000000000000000000000000000000000000000000000000003a
:0904c20000000000000000000031
:2004cb00000000000000000000000000000000000000000000000000000000000000000011
:0a04eb000000000000000000000007
:2004f5000000000000000000000000000000000000000000000000000000000000000000e7
:09051500000000000000000000dd
:20051e000000000000000000000000000000000000000000000000000000000000000000bd
:0a053e0000000000000000000000b3
:2005480000000000000000000000000000000000000000000000000000000000280000006b
:090568000000000000000000008a
:2005710000000000000000000000000000000000000000000000000000000000000000006a
:0a0591000000000000000000000060
:20059b00400000000000000000000000000000000000000000000000000000000000000000
:0905bb0000000000000000000037
:2005c4000000200000000000000000000000000000000000000000000000000000000000f7
:0a05e400000000000000000000000d
:2005ee000000000000000000000000000000000000000000000000000000000000000000ed
:09060e00000000000000000000e3
:200617000800000000000000000000000000000000000000000000000000000000000000bb
:0a06370000000000000000000000b9
:20064100440000000000000000000000000000000000000000000000000000000000000055
:0906610000000000000000000090
:20066a0000c0000000000000000000000000000000000000000000000000000000000000b0
:0a068a000000000000000000000066
:20069400000300000000000000000000000000000000000000000000000000000000000043
:0906b4000000000000000000003d
:2006bd0000000000000000000000000000000000000000000000000000000000000000001d
:0a06dd000000000000000000000013
:2006e7000000000000000000000000000000000000000000000000000000000000000000f3
:09070700000000000000000000e9
:200710000000200000000000000000000000000000000000000000000000000000000000a9
:0a07300000000000000000000000bf
:20073a0000700000000000000000000000000000000000000000000000000000000000002f
:09075a0000000000000000000096
:20076300000400000000000000000000000000000000000000000000000000000000000072
:0a078300000000000000000000006c
:20078d0000000000000000000000000000000000000000000000000000000000000000004c
:0907ad0000000000000000000043
:2007b600000000000000000000000000000000000000000000000000000000000000000023
:0a07d6000000000000000000000019
:2007e0000000000000000000000000000000000000000000000008000000000000000000f1
:09080000000000000000000000ef
:2008090000000000000000000000000000000000000000000000014000000000000000008e
:0a08290000000000000000000000c5
:200833000000000000000000000000000000000000000000000000000000000000000000a5
:090853000000000000000000009c
:20085c0000002000000000000000000000000000004000000000000000000000000000001c
:0a087c000000000000000000000072
:20088600000000000000000000000000000000000000000000000000000000000000000052
:0908a60000000000000000000049
:2008af00080000000000000000000000000000000000000000000000000000000010000011
:0a08cf00000000000000000000001f
:2008d9000000000000000000000000000000000000000000000000000000000000000000ff
:0908f900000000000000000000f6
:200902000000000000000000000000000000000000000000000000000000000000000000d5
:0a09220000000000000000000000cb
:20092c000003000000000000000000000000000000000000000000000000000000000000a8
:09094c00000000000000000000a2
:2009550000000000000000000000000000000000000000000000000000000000002800005a
:0a0975000000000000000000000078
:20097f00000000000000000000000000000000000000000000000000000000000000000058
:09099f000000000000000000004f
:2009a80000002000000000000000000000000000000000000000000000000000000000000f
:0a09c8000000000000000000000025
:2009d200000000000000000000000000000000000000000000000000000000000000000005
:0909f200000000000000000000fc
:2009fb000000000000000000000000000000000000000000000000000000000000000000dc
:0a0a1b0000000000000000000000d1
:200a25000000000000000000000000000000000000000000000000000000000000000000b1
:090a4500000000000000000000a8
:200a4e00000000000000000000000000000000000000000000000000000000000000000088
:0a0a6e00000000000000000000007e
:200a78000000000000000000000000000000000000000000000a000000000000280000002c
:090a980000000000000000000055
:200aa100000000000000000000000000000000000000000000000000000000000000000035
:0a0ac100000000000000000000002b
:200acb0000000000000000000000000000000000000000000000000000000000000000000b
:090aeb0000000000000000000002
:200af4000000200000000000000000000000000000000000000000000000000000000000c2
:0a0b140000000000000000000000d7
:200b1e000000000000000000000000000000000000000000000000000000000000000000b7
:090b3e00000000000000000000ae
:200b4700080000000000000000000000000000000000000000000000000000000000000086
:0a0b67000000000000000000000084
:200b7100000000000000000000000000000000000000000000000000000000000000000064
:090b91000000000000000000005b
:200b9a0000000000000000000000000000000000000000000000000000000000000000003b
:0a0bba000000000000000000000031
:200bc40000030000000000000000000000000000000000000000000000000000000000000e
:090be4000000000000381aa00115
:200bed000000000000000000000000000000000000000000000000000000000000000000e8
:0a0c0d000000000000041d050000b7
:200c17000000000000000000000000000000000000000000000000000000000000000000bd
:090c3700000000000000000000b4
:200c4000000020000000000000000000000000000000000000000000000000000000000074
:0a0c6000000000000000000000008a
:200c6a0000000000000000000000000000000000000000000000000000000000000000006a
:090c8a0000000000000000000061
:200c9300000000000000000000000000000000000000000000000000000000000000000041
:0a0cb3000000000000000000000037
:200cbd00000000000000000000000000000000000000000000000000000000000000000017
:090cdd000000000000000000000e
:200ce6000000000000000000000000000000000000000000000000000000000000000000ee
:0a0d060000000000004000000000a3
:200d10000000000000000000000000000000000000000000000000000000000000000000c3
:090d3000000000000000000000ba
:200d390000000000000000000000000000000000000000000000000000000000000000009a
:0a0d59000000000000000000000090
:200d630000000000000000000000000000000000000000000000000015ea0300000000501e
:090d8300002000000061d81240bc
:200d8c00000000000000000000000000000000000040000000000000035000080000f0f0cc
:0a0dac00b0000000024003c1200067
:200db6008068000000000000000000000000000000000000000000000000000280000012a1
:090dd6003c280200207800000016
:200ddf000800000000000000000000000000000000000000000000000000000028000000c4
:0a0dff0003c00020014400000000c2
:200e0900000000000000000000000000000000000000000000000003000000000000015a6b
:090e29003c2800000001cd080086
:200e320000000000000000000000000000000000000000000000003400000000000000e08c
:0a0e520003c0000000002cb00000f7
:200e5c0000010000000000000000000000000000000000000000000000000000005801120a
:090e7c003c280000166d600040e6
:200e850000000000000000000000000000000000000000000000000000000000000070805d
:0a0ea50083c000000002a4f3c000a7
:200eaf00000000000000000000000000000000000000000000000000000000000008003ae1
:090ecf003c20000034000000008a
:200ed80000002000000000000000000000000000000000000000000000000000000050008a
:0a0ef80003c000000062c00000000b
:200f0200400000000000000000000000000000000000000000000000000000000005807298
:090f22003c2000000602600040c2
:200f2b0000c0000000000000000000000000000000000000000000000000000000000000e6
:0a0f4b0083c0000000000cf3c0009a
:200f55000000000000000000000000000000000000000000000000000000000000079a5a81
:090f75003c30000000065a0400a3
:200f7e0008000000000000000000000000000000000000000000000000000000000000004b
:0a0f9e00803c000003435fc0000028
:200fa800400000000000000000000000000000000000000000000000000000000000187a57
:090fc8003c3000000600000000ae
:200fd1000000000000000000000000000000000000000000000000003800000000000000c8
:0a0ff100803c00000000000000003a
:200ffb0000000000000000000000000000000000000000000000220067a2400028000072d1
:09101b003c3000000003dc004041
:2010240000002000000000000000000000000000000000000000003c3ffcb5000000000060
:0a104400003c100000038c00a40023
:20104e000000000000000000000000000000000000000000002000064ff0800080000072ab
:09106e003c300a000028fa85005c
:2010770000000000000000000000000000000000000000000002000022cf0020280000001e
:0a109700003c00a00bc415c8a01017
:2010a1000000000000000000000000000000000000000000000000000ee08000000719524f
:0910c1003c30040020256b2000e6
:2010ca0000000000000000000000000000000000000000000000000402ee00200000008072
:0a10ea00803c0040004636d00000b4
:2010f4000003000000000000000000000000000000000000000000606ef0800000018152c7
:091114003c3000001e76ec7f0067
:20111d0000000000000000000000000000000000000000000000000038fe002000000080dc
:0a113d00803c0000002624cff000e3
:201147000000000000000000000000000000000000000000000023c6b6d250001000007a3d
:091167003c3000001e015c040292
:2011700000002000000000000000000000000000000000000000000c296f19000001000081
:0a119000003c000001c0270ad00057
:20119a00000000000000000000000000000000000000000000000346868476200000005af2
:0911ba003c300000063dfa800201
:2011c300000000000000000000000000000000000000000000000014283047000000000059
:0a11e300003c000001c73c000314ab
:2011ed0000000000000000000000000000000000000000000004014294d010000009805a44
:09120d003c3000000439d8104205
:20121600000000000000000000000000000000000000000000000014000f01000000100084
:0a123600803c000002424101040068
:201240000000000000000000000000000000000000000000000001627ed474000008187acb
:091260003c3004000c03da8500a7
:201269000000000000000000000000000000000000000000000000142b694300000010006a
:0a128900803c0040c02037c8a000e0
:201293000000000000000000000000000000000000000000000001c0658a000c000000720d
:0912b3003c3000014001c0008044
:2012bc000000200000000000000000000000000000400000000000423ad0f5110000000060
:0a12dc00003c1000080002a0000012
:2012e600000000000000000000000000000000000000000000200007b6864220a800007209
:091306003c300000c000c8f0807a
:20130f000000000000000000000000000000000000000000000a000043d0a40028000000d5
:0a132f00003c000014000200f11061
:20133900000000000000000000000000000000000000000000c000400000000001039952a5
:091359003c3000001e00e8f080a9
:201362000000000000000000000000000000000000000000000400000000000000010880de
:0a138200803c000000200200f11082
:20138c000003000000000000000000000000000000000000000014600000000000518152a6
:0913ac003c3000000028c8f0806c
:2013b500000000000000000000000000000000000000000000000000000000000000008098
:0a13d500803c000000000000f01052
:2013df0000000000000000000000a0000000000000000000000001e0000000000000007af3
:0913ff003c3000000404e8f08019
:201408000000200000000000000000000000000000000000000000003c0000000000000068
:0a142800003c0000c1f3c000f0001a
:20143200000000000000000000000000000000000000000000000000608504100000005a47
:091452003c3000001429e8f0818f
:20145b0000000000000000000000000000000000000000000000000037d0a040000000008a
:0a147b00003c000008000000f00033
:201485000000000000000000000000000000000000000000000000000de054000009805a23
:0914a5003c3000000000c8f0809a
:2014ae00010000000000000000000000000000000000000000000000001005408020100018
:0a14ce00803c00002003c000f00085
:2014d800000000000000000000000800000000000000000000c00040000000000008187a52
:0914f8003c3000414e0168f08017
:201501000000000000000000000000400000000000000000000c0002380000000000100034
:0a152100803c000a08200200f010d0
:20152b00400000000000000000000000000000000000000000024202bfe080001000005299
:09154b003c3000000061c8f08092
:2015540000002000000000000000000000000000000000000000401c6def000100807000ae
:0a157400003c100000000200f1c06e
:20157e00000000000000000000000000000000000000000000200006048e22008000007281
:09159e003c3000015e00c8f08041
:2015a7000800000000000000000000000000000000000000000a0000015f81000800000029
:0a15c700003c00000802c200f0849e
:2015d1004000000000000000000000000000000000000000004401e205c00600080818722e
:0915f1003c300000000548f080c8
:2015fa000000000000000000000000000000000000000000000c001600700a4000001000e5
:0a161a00803c000000034200f08055
:201624000003000000000000000000000000000000000000000002400000000000018a5284
:091644003c3000014001e8f08097
:20164d00000000000000000000000000000000000000000000000006000000000000000077
:0a166d00803c000008000200f010ad
:2016770000000000000000000000000000000000000000000000000016b032000000007ae1
:091697003c3000801404c8f0800e
:2016a000000020000000000000000000000000000000000000000000264f53004000000002
:0a16c000003c000414238000f00039
:2016ca00000000000000000000000000000000000000000000000003c1c120200000005ae1
:0916ea003c300002000068f080b1
:2016f300000000000000000000000000000000000000000000000000625021010000000003
:0a171300003c000000000200f0009e
:20171d00000000000000000000000000000000000000000000003006c6ac50300381817a05
:09173d00155000401c3c08550148
:201746000800000000000000000000000000000000000000000000802020c5000000008076
:0a176600815400020007dc0aa00015
:2017700000000000000000000000000000000000000000000040036260c066204008015b6a
:09179000820000001c63de45002c
:201799000000000000000000000000000000000000000000000c0014695009400400108f6b
:0a17b900a800040000000694a00040
:0217c300000024
:0217c500110110
:0217c70001011e
:2017c9000000020000000000000800000000000020000000000000000000000000000000d6
:0917e900000000000000000000f7
:2017f2000000000000000000000000000000000000000000000000000000000000000000d7
:0a18120000000000000000000000cc
:20181c0000000100340000000004000000000000100000000004000000000000000000005f
:09183c00000000000000000000a3
:20184500000000000200000000000000000000000000000000000000000000000000000081
:0a1865000000000000000000000079
:20186f000000020000000c00000800000000000020000000800000000000000000000000a3
:09188f0000000000000000000050
:201898000000000000000040000000000000000000000000040000000000000000000000ec
:0a18b8000000000000000000000026
:2018c20000000000000400000000000010000000000340400000000110000000000000401e
:0918e200000000000001000000fc
:2018eb000000000000000000000000000000000000000000000000000000000000000000dd
:0a190b0000000000000000000000d2
:2019150000000000000c00000000000030000000000000c00000000020000000000000c0d6
:09193500000000000003000000a6
:20193e00000000000000000000000000000000000000000000000000000000000000000089
:0a195e00000000000000000000007f
:2019680000000000000000000000000000000000000000000000000000000000000000005f
:0919880000000000000000000056
:20199100000000000000000000000000000000000000000000000000000000000000000036
:0a19b100000000000000000000002c
:2019bb0000000000000000000000000000000000000000000000000000000000000000000c
:0919db0000000000000000000003
:2019e4000000000000000000000000000000000001000000000040000000000001000000a1
:0a1a040000000004000000000000d4
:201a0e00000000000004000000000000100000000000004000000000100000000000004014
:091a2e00000000000001000000ae
:201a370000000000000000000000000000000000000000000000000000000000000000008f
:0a1a57000000000000000000000085
:201a6100000000000000000000000000000000000000000000000000000000000000000065
:091a81000000000000000000005c
:201a8a0000000000000000000000000000000000000000000000000000000000000000003c
:0a1aaa000000000000000000000032
:201ab400000000000000000000000000000000000000000000000000000000000000000012
:091ad40000000000000000000009
:201add000000000000000000000000000000000000000000000000000000000000000000e9
:0a1afd0000000000000000000000df
:201b07000000000000000000000000000000000000000000000000000000000000000000be
:091b2700000000000000000000b5
:201b3000000000000000000000000000000000000000000000000000000000000000000095
:0a1b5000000000000000000000008b
:201b5a00000200000000000000000000000000000000000000000000000000000000000069
:091b7a0000000000000000000062
:201b8300000000000000000000000000000000000000000000000000000000000000000042
:0a1ba3000000000000000000000038
:201bad00000000000000000000000000000000000000000000000000000000000000000018
:091bcd000000000000000000000f
:201bd6000000300000000000000000000000000000000000000000000000000000000000bf
:0a1bf60000000000000000000000e5
:201c00000000000000000000000000000000000000000000000000000000000000000000c4
:091c2000000000000000000000bb
:201c290000000000000000000000000000000000000000000000000000000000000000009b
:0a1c49000000000000000000000091
:201c5300000000000000000000000000000000000000000000000000000000000000000071
:091c730000000000000000000068
:201c7c00000000000000000000000000000000000000000000000000000000000000000048
:0a1c9c00000000000000000000003e
:201ca60000020000000000000000000000000000000000000000000000000000000000001c
:091cc60000000000000000000015
:201ccf000000000000000000000000000000000000000000000000000000000000000000f5
:0a1cef0000000000000000000000eb
:201cf9000000000000000000000000000000000000000000000000000000000000000000cb
:091d1900000004000000000000bd
:201d22000000000000000000000000000000000000000000000000000000000000000000a1
:0a1d4200000000c0000000000000d7
:201d4c00000000000000000000000000000000000000000000000000000000000000000077
:091d6c000000000000000000006e
:201d750000000000000000000000000000000000000000000000000000000000000000004e
:0a1d95000000000000000000000044
:201d9f00000000000000000000000000000000000000000000000000000000000000000024
:091dbf0000000000040000000017
:201dc8000000000000000000000000000000000000000000000000000000000000000000fb
:0a1de80000000000000000000000f1
:201df2000002000000000000000000000000000000000000000000000000000000000000cf
:091e120000000000043c00000087
:201e1b000000000000000000000000000000000000000000000000000000000000000000a7
:0a1e3b00000000000000000000009d
:201e450000000000000000000000000000000000000000000000000000000000000000007d
:091e650000000000000000000074
:201e6e00000030000000000000000000000000000000000000000000000000000000000024
:0a1e8e00000000000000000000004a
:201e980000000000000000000000000000000000000000000000000000000000000000002a
:091eb80000000400040000000019
:201ec100000000000000000000000000000000000000000000000000000000000000000001
:0a1ee100000000c002000000000035
:201eeb000000000000000000000000000000000000000000000000000000000000000000d7
:091f0b00000002000000000000cb
:201f14000000000000000000000000000000000000000000000000000000000000000000ad
:0a1f3400000000a000000000000003
:201f3e0000020000000000000000000000000000040000000000000000000000000000007d
:091f5e0000000000000000550421
:201f670000000000000000000000000000000000000000000000000000000000000000005a
:0a1f87000000000000001485540063
:201f91000040000000000000000000000000000000000000000000000000000000000000f0
:091fb100000004000400200000ff
:201fba00000280000000000000000000000000000000000000000000000000000000000085
:0a1fda00000000c00200040008002f
:201fe4000000000000000000000000000000000000000000000000000000000000000000dd
:0920040000000000040060f5007a
:20200d000000000000000000000000000000000000000000000000000000000000000000b3
:0a202d0000000000026036805c0035
:20203700000000000000000000000000000000000000000000000000000000000000000089
:09205700000000003c0140f5000e
:20206000000000000000000000000000000000000000000000000000000000000000000060
:0a20800000000000020036805c0042
:20208a00000200000000000000000000000000000000000000000000000000000000000034
:0920aa0000000000000040f500f8
:2020b30000000000000000000000000000000000000000000000000000000000000000000d
:0a20d3000000000000003e805c00e9
:2020dd000000000000000000000000000000000000000000000000000000000000000000e3
:0920fd00000000001c2160f50048
:20210600000030000000000000000000000000000000000000000000000000000000000089
:0a21260000000000006074805c00ff
:202130000c0000000000000000000000000000000000000000000000000000000000000083
:0921500000000000002060f50011
:2021590004c0000000000000000000000000000000000000000000000000000000000000a2
:0a21790000000000004674805c00c6
:202183008000000000000000000000000000000000000000000000000000000000000000bc
:0921a30000000a001c0140f508cf
:2021ac00000000000000000000000000000000000000000000000000000000000000000013
:0a21cc000000002000003c805c00d1
:2021d6000002000000000000000000000000000000000000000000000000000000000000e7
:0921f60000000000003440f50473
:2021ff000400000000000000000000000000000000000000000000000000000000000000bc
:0a221f000000000000007c805c005d
:20222900000000000000000000000000000000000000000000000000000000000000000095
:09224900000004000400e0f500af
:2022520000000000000000000000000000000000000000000000000000000000000000006c
:0a227200000000c0020696805c0028
:20227c00800000000009014000000000000000000000000000080000000000000000000070
:09229c00000000000403e0f5005d
:2022a50000000000000002a80020000000000000000000000000000000000000000000004f
:0a22c50000000000026716805c00b4
:2022cf000000000000000000000000000000000000000000000000000000000000000000ef
:0922ef00000000002400c0f520ed
:2022f8000000000000000000000000000000000000000000000000000000000000000000c6
:0a23180000000000000696805c0043
:2023220000000000000000000000000000000000000000000000000000000000000000009b
:09234200000000000203c0f500d8
:20234b00000000000000000000000000000000000000000000000000000000000000000072
:0a236b000000000000e01e805c008e
:20237500000000000000000000000000000000000000000000000000000000000000000048
:09239500000000000020e0f5004a
:20239e000000200000000000000000000000000000000000000000000000000000000000ff
:0a23be0000000000006654805c007f
:2023c8000000000030000000000000000000000000000000000000000000000000000000c5
:0923e800000000000023e0f500f4
:2023f1000000000000000000000000000000000000000000000000000000000000000000cc
:0a24110000000000000654805c008b
:20241b00800000000000000000000000000000000000000000000000000000000000000021
:09243b00000002000000c0f500e1
:20244400000000000000000000000000000000000000000000000000000000000000000078
:0a2464000000002000001c805c0056
:20246e000000000000a00000000000000000000004000000000000000000000000000000aa
:09248e00000000000403dff5006a
:20249700000000000001000000000000000000000000000000000000000000000000000024
:0a24b7000000000000001dd05c00d2
:2024c1000000000000000000000000000000000000000000000000000000000000000000fb
:0924e100000000000000000000f2
:2024ea000000000000000000000000000000000000000000000000000000000000000000d2
:0a250a0000000000000000000000c7
:20251400800000000000000000000000000000000000000000000000150af0000000000018
:0925340000000000003800000066
:20253d00000000000000000000000000000000000000000000000000020a5f09000000000a
:0a255d000000000000000000000074
:20256700000000000000000000000000000000000000000000000400000000000000000050
:092587000000000000016f0000db
:202590000000000000000000000000000000000000000000000000800000000000000000ab
:0a25b00000000000000024a08000dd
:2025ba00000080000000000000000000000000000000000000000800000000000000000079
:0925da00000000000000000000f8
:2025e300000000000000000000000000000000000000000000000040000000000000000098
:0a26030000000000000000000000cd
:20260d0000000000000000000000000000000000000000000000002000000000000000008d
:09262d0000000000340000000070
:2026360000002000000000000000000000000000000000000000001c000000000000000048
:0a265600000000000000000000007a
:20266000083000000000000000000000000000000000000000000003c0000000000000005f
:092680000000000002000000004f
:20268900048000000000000000000000000000000018000000000000040000000000000091
:0a26a90000000000014000000000e6
:2026b300800000000000000000000000000000000000000000000000000000000000000087
:0926d30000000000000000ff11ee
:2026dc000000000000000000000000000000000000000000000006000000000000000000d8
:0a26fc00000000000000000ff000d5
:20270600180200000000000000000000000000000000000000000000000000000000000099
:0927260000000000002c0000007e
:20272f00040000000000000000000000000000000000000000000000000000000000000086
:0a274f000000000000000000000080
:2027590000000000000000000000000000000000000000000002000000000000000000005e
:0927790000000046000000000011
:202782000400000000000000000000000000000000000000000040000000000000000000f3
:0a27a2000000000800000000000025
:2027ac00980000000000000000000000000000000000000000000000000000000000000075
:0927cc0000000000000000000004
:2027d500006000000000000000000000000000000000000000000000000000000000000084
:0a27f50000000000000000000000da
:2027ff0008000000000000000000000000000000280000000000000000000000000000008a
:09281f00000000000000000000b0
:20282800040000000000000000000000000000000018000000000000000000000000000074
:0a2848000000000000000000000086
:20285200000200000000000000000000000000000000000000000000000000000000000064
:092872000000000000000000005d
:20287b0000000000000000000000000000000000000000000000000000000000000000003d
:0a289b000000000a00000000000029
:2028a500000000000000000000000000000000000000000000000000000000000000000013
:0928c500000000400000000000ca
:2028ce000000300000000000000000000000000000000000000000000000000000000000ba
:0a28ee000000000a000000000000d6
:2028f8000c00000000000000000000000000000000000000000000000000000000000000b4
:0929180000000001403a58a0083b
:20292100040000000000000000000000000000000000000000000000000000000000000092
:0a29410000000000080004b7408009
:20294b008038000000000000000000000000000000000000000000000000000000000000b4
:09296b000000000024000000003f
:20297400000000000000000000000000000000000000000000000000000000000000000043
:0a2994000000000000000000000039
:20299e000042000000000000000000000000000004000000000000000000000000000000d3
:0929be00000000000230000000de
:2029c7000407000000000000000000000000000000000000000000000000000000000000e5
:0a29e7000000000000e040000000c6
:2029f100000000000000000000000000000000000000000000c0000000000003001f0000e4
:092a110000000000243dc0a500f6
:202a1a0004000000000000000000000000000000000000000004000000000000300258000a
:0a2a3a000000000040e02005a0802d
:202a44008000000000000000000000000000000000000000000000000000000000400800aa
:092a640000000000000000000069
:202a6d00000000000000000000000000000000000000000000000004300000000002009083
:0a2a8d0000000000000280000000bd
:202a9700080000000000000000000000000000000000000000000000000000000000c00057
:092ab700000000000043c04020b3
:202ac000044000000000000000000000000000000000000000000000000000000000300082
:0a2ae000000000200003218800a878
:202aea00002a0000000000000000000000000000000000000000000380000000002018d017
:092b0a00204000003c0070002096
:202b130080004000000000000000000000000000000000000000000004000000000001805d
:0a2b33000108080002028eca020029
:202b3d0000000000000000000000000000000000000000000000000025000400000000004f
:092b5d000f0000001403d0400039
:202b660000003000000000000000000000000000000000000000000401cc0a4040000000c4
:0a2b860000f008000200218800247e
:202b90000c0000000000000000000000000000000000000000c00000000000030020080826
:092bb00031480000002be0000098
:202bb9000400000000000000000000000000000000000000000c000000000000300500a512
:0a2bd9007314280000001fa200245e
:202be300803000000000000000000000000000000000000000200000000000008000001f63
:092c0300c6800000143ac0ff0075
:202c0c00000000000000000000000000000000000000000000020000000000000800780d19
:0a2c2c003008000002002405a0009b
:202c36000002000000000000000000000000000000000000000401c00000000000070008a8
:092c5600141000002400deff0050
:202c5f00040000000000000000000000000000000000000000000000280000000000000326
:0a2c7f0079412000014004b7f00481
:202c8900000000000000000000000000000000000000000000000006159f00830005009059
:092ca90000020c00007d60000037
:202cb20000000000000000000000000000000000000000000000001c3bef70003000508d3f
:0a2cd200a82008c040c75fc080289a
:202cdc008000000000000000000000000000000000000000000000000df25000005008d7da
:092cfc00788020001c036a4a00e4
:202d05000000000000000000000000000000000000000000000000002a7e7f010002018102
:0a2d2500b908000002601ef450001f
:202d2f0000000000000000000000000000000000000000000000014417cd1000000100f456
:092d4f00029000001c3fd0a040de
:202d5800000000000000000000000000000000000000000000000004395f420000008000fd
:0a2d780028150400400061850410d6
:202d82008000000000000000000000000000000000000000000011478e02a00000030ed048
:092da200281000003c3000000084
:202dab0000000000000000000000000000000000000000000000008024ea250300008000d2
:0a2dcb006941000002004000000012
:202dd5000000000000000000000000000000000000000000000002c02c050090000900044e
:092df500314201002c37c0a0405e
:202dfe00000030000000000000000000000000000000000000000000001ca0204000d80190
:0a2e1e00e31488000343e1a504005b
:202e28000000000000000000000000000000000000000000000022c38f00a09100000bf7e3
:092e4800c44004001402d005404e
:202e5100000000000000000000000000000000000000000000000020624c5a10180059af09
:0a2e7100a88400c0020637800400a8
:202e7b0080000000000000000000000000000000000000000000002417bd1000800f9e166c
:092e9b00a9c00200002b700a40de
:202ea40000000000000000000000000000000000000000000000000e394c42002800799bfd
:0a2ec400ac0400a00003b7c0040036
:202ece0000020000000000000000000000000000040000000000000400000000000008d3ff
:092eee00388000002c006e03087e
:202ef700000000000000000000000000000000000000000000000000780000000000000142
:0a2f1700ed080000000016ea30008b
:022f21000000ae
:022f2300110299
:022f25000101a8
:202f270000000000000000000000000000000000000000000000000000000000000000008a
:092f470000000000000000000081
:202f5000000000000000000000000000000000000000000000000000000000000000000061
:0a2f70000000000000000000000057
:202f7a000000000000000000000000000000000000000000000000000000008000000000b7
:092f9a000000000000000000002e
:202fa30000000000000000000000000000000000000000000000000000000000000000000e
:0a2fc3000000000000000000000004
:202fcd000000000000000000000000000000000000000000000000000000000000000000e4
:092fed00000000000000000000db
:202ff6000000000000000000000000000000000000000000000000000000000000000000bb
:0a30160000000000000000000000b0
:203020000000000000080000000000002000000000080000000000002000000000000080c0
:0930400000000000000200000085
:20304900000000000000000000000000000000000000000000000000000000000000000067
:0a306900000000000000000000005d
:2030730000000000000c00000000000030000000000c00000000000030000000000000c005
:0930930000000000000300000031
:20309c00000000000000000000000000000000000000000000000000000000000000000014
:0a30bc00000000000000000000000a
:2030c6000000000000000000000000000000000000000000000000000000000000000000ea
:0930e600000000000000000008d9
:2030ef000000000000000000000000000000000000000000000000000000000000000000c1
:0a310f0000000000000000000000b6
:20311900000000000000000000000000000000000000000000000000000000000000000096
:09313900000000000000a00000ed
:20314200000000000000000000000000000000000000000000000000000000080000000065
:0a31620000002000000012000080b1
:20316c00000000000008000000000000200000000008000000000000200000000000008073
:09318c0000000000000300000037
:20319500000000000000000000000000000000000100000000000000000000000000000019
:0a31b500000000000000020000000e
:2031bf000000000000000000000000000000000000000000000000000000000000000000f0
:0931df00000000000000000000e7
:2031e80000002000000000000000000000000000000000000800000000000000000000009f
:0a32080000000000000000000000bc
:2032120000000000000000000000000000000000000000000000000000000000000000009c
:0932320000000000000000000093
:20323b00000000000000000000000000000000000000000020000000000000000000000053
:0a325b000000000000000000000069
:20326500000000000000000000000000000000000000000000000000000000000000000049
:0932850000000000000000000040
:20328e00000000000000000000000000000000000000000000000000000000000000000020
:0a32ae000000000000000000000016
:2032b8000003000000000000000000000000000000000000000000000000000000000000f3
:0932d800000000000000000000ed
:2032e1000000000000000000000000000000000000000000000000000000000000000000cd
:0a33010000000000000000000000c2
:20330b000000000000000000000000000000000000000000000000000000000000000000a2
:09332b0000000000000000000099
:20333400000020000000000000000000000000000000000000000000000000000000000059
:0a335400000000000000000000006f
:20335e0000000000000000000000000000000000000000000000000000000000000000004f
:09337e0000000000000000000046
:20338700000000000000000000000000000000000000000000000000000000000000000026
:0a33a700000000000000000000001c
:2033b1000000000000000000000000000000000000000000000000000000000000000000fc
:0933d100000000000000000000f3
:2033da000000000000000000000000000000000000000000000000000000000000000000d3
:0a33fa0000000000000000000000c9
:203404000000000000000000000000000000000000000000000000000000000000000000a8
:093424000000000000000000009f
:20342d0000000000000000000000000000000000000000000000000000000000000000007f
:0a344d000000000000000000000075
:20345700000000000000000000000000000000000000000000000000000000000000000055
:093477000000000000000000004c
:2034800000002000000000000000000000000000000000000000000000000000000000000c
:0a34a0000000000000000000000022
:2034aa00000000000000000000000000000000000000000000000000000000000000000002
:0934ca00000000000000000000f9
:2034d3000000000000000000000000000000000000000000000000000000000000000000d9
:0a34f30000000000000000000000cf
:2034fd000000000000000000000000000000000000000000000000000000000000000000af
:09351d00000000000000000000a5
:20352600000000000000000000000000000000000000000000000000000000000000000085
:0a354600000000000000000000007b
:20355000000300000000000000000000000000000000000000000000000000000000000058
:093570000000000000000008004a
:20357900000000000000000000000000000000000000000000000000000000000000000032
:0a3599000000000000000000000028
:2035a300000000000000000000000000000000000000000000000000000000000000000008
:0935c300000000000000000000ff
:2035cc000000200000000000000000000000000000000000000000000000000000000000bf
:0a35ec0000000000000000000000d5
:2035f6000000000000000000000000000000000000000000000000000000000000000000b5
:09361600000000000000000000ab
:20361f0000000000000000000000000000000000000000000000000000000000000000008b
:0a363f000000000000000000000081
:20364900000000000000000000000000000000000000000000000000000000000000000061
:0936690000000000000000000058
:20367200000000000000000000000000000000000000000000000000000000000000000038
:0a369200000000000000000000002e
:20369c0000000000000000000000000000000000000000000000000000000000000000000e
:0936bc0000000000000000000005
:2036c5000000000000000000000000000000000000000000000000000000000000000000e5
:0a36e50000000000000000000000db
:2036ef000000000000000000000000000000000000000000000000000000000000000000bb
:09370f00000000000000000000b1
:20371800000020000000000000000000000000000000000008000000000000000000000069
:0a3738000000000000000000000087
:20374200000000000000000000000000000000000000000000000000000000000000000067
:093762000000000000000000005e
:20376b0000000000000000000000000000000000000000000000000000000000000000003e
:0a378b000000000000000000000034
:20379500000000000000000000000000000000000000000000000000000000000000000014
:0937b5000000000000000000000b
:2037be000000000000000000000000000000000000000000000000000000000000000000eb
:0a37de0000000000000000000000e1
:2037e8000001000000000000000000000000000000000000000000000000000000000000c0
:09380800000000000000000000b7
:20381100000000000000000000000000000000000000000000000000000000000000000097
:0a3831000000000000000000180075
:20383b0000000000000000000000000000000000000000000000000000000000000000006d
:09385b0000000000000000000064
:20386400000024000000000000000000000000000000000000000000000000000000000020
:0a388400000000000000000000003a
:20388e0000000000000000000000000000000000000000000000000000000000000000001a
:0938ae0000000000000000080009
:2038b7000000000000000000000000000000000000000000000000000000000000000000f1
:0a38d70000000000000000000000e7
:2038e1000000000000000000000000000000000000000000000000000000000000000000c7
:09390100000000000000000000bd
:20390a00080000000000000000000000000000000000000000000000000000000000000095
:0a392a000000000000000000000093
:20393400000000000000000000000000000000000000000000000000000000000000000073
:0939540000000000000000020068
:20395d000000000000000000700000000000000000000000000000000000000000000000da
:0a397d000000000000000000400000
:20398700000000000000000000000000000000000000000000000000000000000000000020
:0939a70000000000000000000017
:2039b0000000200000000000000000000000000000000000000000000000000000000000d7
:0a39d00000000000000000000000ed
:2039da000000000000000000000000000000000000000000000000000000000000000000cd
:0939fa00000000000000000000c4
:203a030008000000000000000000000000000000000000000000000000000000000000009b
:0a3a23000000000000000000000099
:203a2d00000000000000000000000000000000000000000000000000000000000000000079
:093a4d000000000000000200006e
:203a5600000000000000000000000000000000000000000000000000000000000000000050
:0a3a76000000000000000000000046
:203a8000000300000000000000000000000000000000000000000000000000000000000023
:093aa00000000000000000080015
:203aa9000000000000000000000000000000000000000000000000000000000000000000fd
:0a3ac90000000000000000000000f3
:203ad3000000000000000000000000000000000000000000000000000000000000000000d3
:093af300000000000000000000ca
:203afc0000002000000000000000000000000000000000000000000000000000000000008a
:0a3b1c00000000000000000000009f
:203b2600000000000000000000000000000000000000000700000000000000000000000078
:093b460000000000000000020074
:203b4f00000000000000000000000000000000000000000000000000000000000000000056
:0a3b6f00000000000000000040000c
:203b790000000000000000000000000000000000000000000000000000000000000000002c
:093b990000000000000000000023
:203ba200000000000000000000000000000000000000000000000000000000000000000003
:0a3bc20000000000000000000000f9
:203bcc000000000000000000000000000000000000000000000000000000000000000000d9
:093bec00000000000000000000d0
:203bf5000000000000000000000000000000000000000000000000000000000000000000b0
:0a3c150000000000000000000000a5
:203c1f0000000000000000000000000000000000000000000000013ec00000000100838082
:093c3f00200000009eee01a0002f
:203c4800000020000000000000000000000000000000000008000007cc00000000000b0056
:0a3c68000400000009fe0110000036
:203c720000000000000000000000000000000020000000000000000008000010010f138057
:093c92000000000af40100180111
:203c9b00400000000000000000000000000000000000000000000000005000016000f040e8
:0a3cbb00000000021f8ce00840101a
:203cc50000000000000000000000000000000000000000000000811ed008000c010f130039
:093ce5000400000801ef01e800f1
:203cee00000000000000000000000000000000000000000000000004cf000000a800f0004b
:0a3d0e00028000023c01c9094000d8
:203d18000003000000000000000000000000000000000000004028ee10190000010f139c4a
:093d380000000000114e018000a2
:203d410000000000000000000080000000000000000000000000014f6ad08000080f0000c1
:0a3d6100000008800094b00000008c
:203d6b0000000000000000000000000000000000000000000010811ec01f0003010f120085
:093d8b003000001983e081800082
:203d94000000200000000000000000000000000000000000000000040f70d0000000f000ac
:0a3db400000000002404df0c0000f2
:203dbe0000000000000000000000000000000000000000000001815d900000008969100074
:093dde000000001828fb981000f9
:203de7000000000000000000000000000000000000000000000200001e70000000096500be
:0a3e0700400700002802ef0f000042
:203e110000000000000000000000000000000000000000000000007ec51e00008169900caa
:093e31002000000007cd81a00073
:203e3a000000000000000000000000000000000000000000000010064008000000096f0092
:0a3e5a002640000000168109004018
:203e64000000000000000000000000000000000000000000001028cfa5010002810f169653
:093e840000000400144a100000c3
:203e8d0000000000000000000000000000000000000000000000028c2008d0000000f0405f
:0a3ead00000000000002808d0040bc
:203eb70040000000000000000000000000000000000000000000010d90000000010f1600e7
:093ed700000000040200000000dc
:203ee000000020000000000000000000000000000000000000000005ca00e0000200f00001
:0a3f00004000001000240000000043
:203f0a000004000000000000000000000000000000000000005022cc081f0012010f1200fa
:093f2a0028000004020000000060
:203f330008028000000000000000000000000000000000000000011c2d51a0010000f04078
:0a3f530004000000003c0500180007
:203f5d0040000000000000000000000000000000000000000010810d958a004e010f1726ac
:093f7d0004000004000000000033
:203f860000c0000000000000000000000000000000000000000000040a010008c000f04252
:0a3fa60062400000002c0000000043
:203fb000000100000000000000000000000000000000000740002027c01a0080010f128066
:093fd000000000040200000408d6
:203fd9000000000000000000300000000000000000000000000000084c0000140000f04000
:0a3ff90000000000002c0000014051
:204003000000000000000000000000000000000000000000003028cdcb9c0000010f17a04a
:09402300010000040000f8000097
:20402c0000002400000000000000000000000000000000000000028c201800000000f00298
:0a404c00c0000000001c0980000005
:2040560000000000000000000000000000000000000000000010a107c0190000010f138610
:09407600000000040000780000c5
:20407f000000000000000000000000000000000000000000000000001c9080000000f00005
:0a409f0000000000002c0f000000dc
:2040a90000000000000000000000000000000000000000000000012d83980000000f10008f
:0940c90068000004020001e0009f
:2040d200080000000000000000000000000000000000000000000005cb0800000000f000fe
:0a40f20000020000002c0010000086
:2040fc0000000000000000000000000000000000000000000000a035800c000080a33000f0
:09411c0004000004020080100000
:204125000000000000000000000000000000000000000000000000085c010000000535ac2f
:0a41450002800000001c090e0000bb
:20414f0000000000000000000000000000000000000000000000211e990118000004ff60fc
:09416f00028404103c40d8110048
:20417800000020000000000000000000000000000000000008000002f8f0a000000017b2ac
:0a419800c280200803c0050f0000dc
:2041a200000000000000000000000000000a001400000000001028c5a0010014000000002d
:0941c20000005102040180001408
:2041cb000800000000000000000000000001f001000000000002028c3000d0050000000144
:0a41eb00c00004031080d50000009e
:2041f500000000000000000000000000000010000000000000000000039c80080000000073
:0942150028002000055d00f00006
:20421e0000000000000000000000000000d000000000000000000000000804008000000024
:0a423e00000002020155a118000063
:204248000002000000000003000000000000000000000000000000000d1d00000280de5671
:094268002810000080e818900005
:204271000000000000000000000000000000000000000000000000000011d000000023fc2d
:0a42910004000020002ec01a0000f7
:20429b000000000000000000000000000001000000000000000081169801400000047f000f
:0942bb0004200202015e51e4003e
:2042c4000000200000000000000000000000e00000000000000000075db0e80000001fa01f
:0a42e40003c00000109e801f2000a0
:2042ee0040000000000000000000000008000000000000000020295e9000004040a35f208f
:09430e003c000003fa68500010a5
:204317000000000000000000000000000010050000000000000041540bd001c0200a3040a6
:0a43370042c000003fd791000000d3
:2043410000000000000000000000b035900000000000000000108116800a000042047f04ed
:0943610028000000135e59e00081
:20436a00080000000000000000000b2aef00000000000000000000041a010000000010a038
:0a438a00200500000076c0100000be
:2043940040000000000000000000000007000008000000000000a01db80a00000280f2e0e7
:0943b400680001028dee00b0c0aa
:2043bd0000000000000000002000000000000000800000000000000a4a9101800000233e79
:0a43dd00c000008028c1000c0000a1
:2043e70000000000000000000000000000000000000000000000010ec000000000041b8048
:09440700040000000000721080a6
:204410000000200000000000000000000000001400000000100000056f000140000017ea92
:0a44300043c000000000000d000072
:20443a00000000000000000000000000000d000000000000001428d7e0080014c0a35e94f1
:09445a003c04400060fb0010016d
:204463000000000000000000000000000000d000000000000000028c10010001000a30404f
:0a448300264024040b8cd70f001014
:20448d0000000000000000000000216ce800000000000000000409e6c118000c00a1f6200b
:0944ad007200000286fb00049479
:2044b600c00000000000000000000169fd100000000000000000009d509800049005b33ca2
:0a44d600c0000004288fd0002088e9
:2044e000000300000000000000000000000c00000000000000008015f01a0000406910064f
:094500006000001828f880a140b9
:2045090001800000000000000000000000500000000000000000422f6e00000000069083c9
:0a4529006000000080039f00000006
:204533000000000000000000000001e6f70000000000000000000000078f000040011b8018
:0945530000000208005f80e40092
:20455c0000002000000000000008200c5e78000000000000000000000071e0c0000010c133
:0a457c0040000020a802970e200066
:204586000000000000000000000028de000000000000000000000000050000008085b780ce
:0945a6000405000096ed901000e0
:2045af0000000000000000000000014fcd00000000000000000000000008000019800df829
:0a45cf000200000009ace90e000034
:2045d900000000000000000000100b96b0000000000000000000000007000001c0275054ce
:0945f900640000000000700000e5
:204602000000000000000000000010283e1000000000000000000000000000000001b0a3be
:0a4622006240000000000d0080005f
:20462c00000000000000000000200057e01c00000000000000000000019d00008aaa7806ab
:09464c000280000097dc00100060
:2046550080000000000000000000002fcd00000000000000000000000008c000090550b8eb
:0a46750000050000066ef0090008c1
:02467f00000039
:02468100110323
:02468300010133
:20468500000000000000000000000000000000000000000010000000000000000000000005
:0946a5000000000000000000000c
:2046ae000000000000000000000000000000000000000000000000000000000000000000ec
:0a46ce0000000000000000000000e2
:2046d800000000000000000000000000000000000000000020000000000000800000000022
:0946f800000200000000000000b7
:20470100000000000000000000000000000000000000000000000000000000000000000098
:0a472100000000000000000000008e
:20472b0000000000000000000000000000000000000000001000000000000000000000005e
:09474b0000000000000000000065
:204754000000000000000000000000000000000000c0000000000000000000000000000085
:0a477400000000000000000000003b
:20477e00000000000008000000000000000000000000000000000000200000000000008073
:09479e0000000000000200000010
:2047a7000000000000000000000000000000000000000000000000000000000000000000f2
:0a47c70000000000000000000000e8
:2047d10000000000000c00000000000030000000000c00000000000030000000000000c090
:0947f100000000000003000000bc
:2047fa0000000000000000000000000000000000000000000000000000000000000000009f
:0a481a000000000000000000000094
:20482400000000000000000000000000000000000000000000000000000000000000000074
:094844000000000000000000006b
:20484d0000000000000000000000000000000000000000000000000000000000000000004b
:0a486d000000000000000000000041
:204877000000000000000000000000000000008000001e00000000000a0000000000000079
:0948970000000000000000000018
:2048a0000000000000000000000000000020000800000100020000000000000800000000c5
:0a48c000000020000000000000804e
:2048ca0000000000000800000000000020000080000800000000000020000000000000807e
:0948ea00000000000002000000c3
:2048f30000000000000000000000000000000000000000000000000000000000000018008d
:0a491300000000000070000000002a
:20491d0000000000000000000000000000000000000000000000000000000000000000007a
:09493d0000002000000000000051
:20494600000000000000000000000000000000000000000000000000000000000000000051
:0a4966000000030000000000000044
:20497000000000000000000000000000000000000000000000000000000000000000000027
:094990000000000000000000001e
:204999000000000000000000000000000000000000000000000000000000000000000000fe
:0a49b90002000000000000000000f2
:2049c3000000000000000000000000000000000000000000000000000000000000000000d4
:0949e3003000000000000000009b
:2049ec000000000000000000000000000000000000000000010000000000000000000000aa
:0a4a0c000040000000000000000060
:204a160000020000000000000000000000000000000000000000000000000000000000007e
:094a360000000000000000000077
:204a3f00000000000000000000000000000000000000000000000000000000000000000057
:0a4a5f00000000000000000000004d
:204a690000000000000000000000000000000000000000000000000000000000000000002d
:094a890000000000000000000024
:204a92000000300000000000000000000000000000000000000000000000000000000000d4
:0a4ab20000000000000000000000fa
:204abc000000000000000000000000000000000000000000000000000000000000000000da
:094adc0020002000000000000091
:204ae5000000000000000000000000000000080000000000000000000000000000000000a9
:0a4b05000040020000000000000064
:204b0f00000000000000000000000000000000000000000000000000000000000000000086
:094b2f000000500000000000002d
:204b380000000000000000000000000000000000000000000000000000000000000000005d
:0a4b5800000005000000000000004e
:204b62000002000000000000000000000000000000000000000000000000000020aa002443
:094b82000000000000000000002a
:204b8b0000000000000000000000000000000000000000000000000000000000002aa12817
:0a4bab000000000000000000000000
:204bb500000000000000000000000000000000000000000000000000000000000000042cb0
:094bd50020002000000050c00087
:204bde00040000000000000000000000000000000000000000000000000000000010006a39
:0a4bfe000040030000000800000062
:204c0800800000000000000000000000000010000000000000002bc20000000000af074019
:094c28002000000000dc00a000e7
:204c31000000000000000000000000000000000000000000000202bd48000000003a016cb3
:0a4c510006400000040ff59b000070
:204c5b000c30000000000000000000000000000000000000000000000000000000af03ec5f
:094c7b0038000000000000a00058
:204c840004404000000000000000000000000000000000000000000000000000003a016ee3
:0a4ca400000000000000001b0000eb
:204cae000000000000000000000000000000000000000000000000000000000000af0340f4
:094cce0000000402bc0000a0007b
:204cd70000000000000000000000000000000000000000000000000000000000003a017c06
:0a4cf700000000002bd7e0000000d1
:204d01000000000000000000000000000000000000000000000000000000000000af07c418
:094d210000000000000000d000b9
:204d2a0000003000000000000000000000000000000000000000000000000000003a012fcf
:0a4d4a00c600000000000001000098
:204d54000000000000000000000000000000000000000000000000000100000000af074444
:094d74000000004003ce00900095
:204d7d0000000000000000000000000000000000000000000000000000000000003a012ead
:0a4d9d00600000002014e001000097
:204da7008000000000000000000000000000000000000000000000000000000000af03c0fa
:094dc70002004000000000018020
:204dd00000000000000000000000000000000000000000000000000000000000003a013c4c
:0a4df00000000400000000000000b5
:204dfa000002000000000008000000000000000000000000800000000000000020af0340fd
:094e1a002000000000000000006f
:204e23000000040000000001000000000000000000000000000000000000a000003a013c53
:0a4e43000000000000000000000065
:204e4d0000000000000000000000000000000000000000000000063c9100000000af06407d
:094e6d0020002000000b00a00051
:204e760000000000000000000000000000000000000000000000009001800000003a017858
:0a4e960060404211005cb59b0080f3
:204ea0008000000000000000000000000000000000000000000003c39110000000af064016
:094ec0002000000003ee519000f7
:204ec90000000000000000000000000000000000000000000000017c6f80e000003a016cd6
:0a4ee90006400000006df81d0000f7
:204ef3000000000000000000000000000000000000000000000030c1d000000000af0240ed
:094f1300000000000169500000db
:204f1c00000000000000000000000000000000000000000000010b1d79198000003a016897
:0a4f3c00000000000064880000007f
:204f4600000100000000001000000000000000000000000000002d42a000000000af02403a
:094f660000050000000050b0003d
:204f6f00000004000000000000000000000000000000000000010285fd000010003a017cd2
:0a4f8f00000020000000059a000059
:204f990000000000000000000000000000000000000000000000043e9000000000af06442d
:094fb900003200000000d0a0004d
:204fc2000000100000000000000000000000000000000000000000806101e000003a012a98
:0a4fe200060140000000000100007d
:204fec000000000000000000000000000000000000000000000439f7af00000000af0644c9
:09500c006400000000c90000006e
:20501500000000000000000000000000000000000000000000000a854f180000003a012e1c
:0a50350067c02000201d90080c0049
:20503f008000000000000000000000000000000000000000000001c1b500001c00af027c11
:09505f003c00500000005000006c
:205068000000000000000080000000000000000000000000000120156a500001403a013804
:0a508800000004000000081a0000f8
:205092000000800000000000000000000000000000000000000028030000a00000af1242b0
:0950b2002404040002dd50a000fa
:2050bb000000000000000000000000000000020000000000000002806e000000003a053d67
:0a50db00c0402000040cfd810c0011
:2050e500000000000000000000000000000000000000000000001482d00e00000000000037
:0951050000000003d42a0180001f
:20510e00040000000000000000000000000000000000000000010a884f001000000000008b
:0a512e00000000002947801900006e
:20513800800000000000000000000000000000000000000000000280b01000000000000095
:0951580000000210280c00000008
:20516100000000000000000000000000000000000000000000000015e001c0000000000078
:0a5181000000500401561000014028
:20518b000800000000000000000000000000000000000000000000000000000000000000fc
:0951ab0000000000027b00f0008e
:2051b4000400000000000000000000000000000000000000000000000018000000000000bf
:0a51d400000000000075b0090000a3
:2051de00000200000000000000000000000000000000000000000000000f000000000000a0
:0951fe0000000042840900800059
:20520700000000000000000000000000000000000000000000000000000000000000000087
:0a52270000000010a88ff001000045
:20523100000000000000000000000000000000000000000000000000001008000000000045
:0952510000000003e80a58a00067
:20525a000000300000000000000000000000000000000000000000000000a0000000000064
:0a527a0000000000280d8f980000ce
:205284000000000000000000000000000000000000000000000117c0a00000000000000092
:0952a400000002403000d0e000df
:2052ad000000000000000000000000000000000000000000000002bde170000000000000d1
:0a52cd0000000010030e0580000031
:2052d7000000000000000000000000000000000000000000000000000000001000000000a7
:0952f70000000000bc2a518001f6
:20530000000000000000000000000000000000000000000000000000000000154000000038
:0a532000000000101fc7858b00106d
:20532a00004200000000000000000000000000000000000080003fb5e100000000000000cc
:09534a0000000000016e00c0101b
:20535300000780000000000000000000000000000000000000000295fc0000000000000020
:0a53730000000000007590010080aa
:20537d000000000000000000000000000000a0000000000000000000000000000000000070
:09539d00001000000000000000f7
:2053a6000000000000000e00000000000000040000000000000000000000000000000000d5
:0a53c600000000000000001c0000c1
:2053d0008000000000000340000000000000000000000000000000000000000000000000fa
:0953f000000000014c2d00040036
:2053f900000000000000000400000000000000000000000000000000000000000000000090
:0a54190000000010a815901c000010
:20542300000000000000000000000000000000000000000020000000000000000000000049
:0954430000000002a82c1000007a
:20544c000000000000001c000000000000000000000000000500000000000000000000001f
:0a546c0000000000294e981c1400f7
:20547600000000000f6c00000000000000000000000000000000000000000000000000009b
:0954960000000020281e000000a7
:20549f000000000401f70000000000000000000000000000000000000000000000000000f1
:0a54bf0000000030a2d6b00000008b
:2054c9000000000000000000000000000000000000000000000000000000000000000000c3
:0954e900000000002820008000f2
:2054f20000000000000000000000000000000000000000000000000000000000000000009a
:0a55120000000000028f800100007d
:20551c0000000000000020000000000000000000000000000000000000000000000000004f
:09553c000000000000005000c056
:205545000000000000000c000000000000000000000000000000000000000000000000003a
:0a5565000800000000000000000034
:20556f0080000000000000000000000000000000000000000000000000000000000000009c
:09558f0000000000000000b00162
:205598004000000000000000000000000000000000000000000000000000000000000000b3
:0a55b800000000000000000e0014c7
:2055c2000000000000000000000000000000000000000000000000000000000000000000c9
:0955e20000000000001e00b000f2
:2055eb000000000000000000000000000000000000000000000000000000000000000000a0
:0a560b000000000201569780000025
:20561500000000000000000200000000000000000000000000000000000000000000000073
:095635000000000000000000006c
:20563e00000000000000000000000000000000c0000000000000000000000000000000008c
:0a565e00000000000000000004003e
:205668008000000000000000000000000000000000000000000000000000000000000000a2
:09568800000000014030000000a8
:205691000000000000000000000000000000000000000000000000000000000000000000f9
:0a56b1000000000014178000000044
:2056bb000000000000000000000000000000080000000000000000000000000000000000c7
:0956db00000000000000000000c6
:2056e4000000000000000000000000000000000000000000000000000000000000000000a6
:0a5704000000000000000000a000fb
:20570e00000200000000000000000000000000000000000000000000000000000000000475
:09572e0000000000014901000027
:20573700000000000000000000000000000000000000000000000000000000000000000052
:0a57570000000020004da108000032
:20576100000000000000000000000000000000000000000000000000000000000000001414
:09578100000000003029509000e6
:20578a000000300000000000000000000000000000000000000000000000000000000002cd
:0a57aa00e0000010a35580000c0081
:2057b4000000000000000000000000000000000000000000000000000000000000000000d5
:0957d40000000800281000f0009c
:2057dd00000000000000000000000000000000140000000000000000000000000000000098
:0a57fd00000000410294c18f00007b
:20580700800000000000000000000000000000000000000000000000000000000000de42e1
:09582700000000000000008001f7
:205830000000000000000000000000000000000000000000800000000000000000040db413
:0a585000e000000000000501005018
:20585a000002000000000000000000000000000000000000800000000000000000000000ac
:09587a0000000000000078c000ed
:20588300000000000000000000000000000000000000000000000000000000000000000005
:0a58a3000000000000000d010000ed
:2058ad000000000000000000000000000000000000000000000011ffa000000000010a849c
:0958cd0020000200002b00000085
:2058d6000000000000000000000000000000000000000000000008007c000000040a21e817
:0a58f6000040000081568000000011
:205900000000000000000000000000000000180000000003000000000f00000000030280d8
:0959200040000000002b00000013
:205929000000000000000000000000000000000000000000000000000000e000040015a0c5
:0a594900020000808154900000006d
:205953000000000000000005000000000000a00000000000000000000900000000000bc0bb
:095973000000000000000000002b
:20597c0000000000000000000000000000000400000000000000000000800000040045a49a
:0a599c0000042000000000000000dd
:2059a6000002000000000000000000000000000000000000000000000000000100da0624da
:0959c600000000000000f00000e8
:2059cf0000000000000000000000000000000000000000000000000000000000040807aef7
:0a59ef0000000000000008000000a6
:2059f9000000000000000000000000000000000000000000000000000000000000039800f3
:095a190064000000076008094068
:205a22000000300000000000000000000000000000000000000000000000000000003b00f9
:0a5a420047c000010056819c1000cf
:205a4c00000000000000000000000000000040000000001000000000000a4c080000075c29
:095a6c00640020000000509000cd
:205a750080000000000000000000000000000200000000028000000000000a00806a07e032
:0a5a950002c002000000039c000c98
:205a9f0000000000000000000000000000002000000000000000000005000014000000149a
:095abf003c005002946a000081d1
:205ac8004000000000000000000000000000040000000000000000000080000140000001b8
:0a5ae800404005002b55a0000010ff
:205af200000200000000000000000000000000000000001000000000070000000000001c5f
:095b1200280000000000019000d1
:205b1b0000000000000000000000000000000000000000028000000000000a0000000000de
:0a5b3b0006800000000000080000d2
:205b45000000000000000000000000000000000000000000000000000080000290420300e9
:095b6500000000000000d0a000c7
:205b6e000000000000000000000000000000000000000000000000000018000004081000e3
:0a5b8e000000000000000d8100007f
:205b98000000000000000000000000000000000000000000000000000000000004530ac4c8
:095bb800000000000000080400d8
:205bc10000000000000000000000000000380000000000000000000000000000048a31804d
:0a5be10040000000000001008000f9
:205beb00000000000000000000000000000000000000000000000000038000000042bf0412
:095c0b00000000000000b0800060
:205c14000000000000000000000000000000000000000000000000000050c0000000597295
:0a5c3400400000000000080100809d
:205c3e000002000000000003000000000f0d00000000000000000016d000000000040a0031
:095c5e000000000002f900b00092
:205c67000000000000000000000000000080100000000000000000435d00000004008584e0
:0a5c8700068000000426b0010000b2
:205c910000000000000000000000000000000000000000000000000eb080100000ff0bd4c7
:095cb10000000a000430000900a3
:205cba00000030000000000000000000007000000000000000002042fa39c100040fe5a933
:0a5cda00c3002010805ea10000004e
:205ce4000000000000000000000000000000000c0000000020001080bb0000000010fa829d
:095d040001000203d00c38040078
:205d0d00c4000000000000000000000000000000c00000000501020401800000000001253f
:0a5d2d0062a800953f9f9980a00c2a
:205d3700800000000000000000000000000000100000000000000f0000800002000a0ac057
:095d57002c00000003e9d99001c1
:205d60000000000000000000000000000001e00340000000000110f00050000000005585d4
:0a5d800040000000043785190054ac
:205d8a000002000000000000000010b5d0000c000000000090002bc3f000000000005bd6b7
:095daa00410000000000080000a7
:205db300040000000000000000002816683000000000000002000014f900000000040122c0
:0a5dd300e6280000000005000000b3
:025ddd000000c4
:035ddf0062003f20
:035de200720080cc
:025de5001100ab
:035de70082000037
:025dea000103b3
:085dec000000000000000000af
:085df4000000000000000000a7
:085dfc0000000000000000009f
:085e0400000000000000000096
:0261ec000000b1
:0361ee00820080ac
:0261f1000103a8
:0861f3000000000000000000a4
:0861fb0000000000000000009c
:08620300000000000000000093
:08620b0000000000000000008b
:0265f3000000a6
:0265f500110192
:0365f7008200001f
:0265fa0001039b
:0865fc00000000000000000097
:0866040000000000000000008e
:08660c00000000000000000086
:0866140000000000000000007e
:0269fc00000099
:0369fe0082008094
:026a010001038f
:086a030000000000000000008b
:086a0b00000000000000000083
:086a130000000000000000007b
:086a1b00000000000000000073
:026e030000008d
:026e0500110278
:036e070082000006
:026e0a00010382
:086e0c0000000000000000007e
:086e1400000000000000000076
:086e1c0000000000000000006e
:086e2400000000000000000066
:02720c00000080
:03720e008200807b
:02721100010377
:08721300000000000000000073
:08721b0000000000000000006b
:08722300000000000000000063
:08722b0000000000000000005b
:02761300000075
:0276150011035f
:03761700820000ee
:02761a0001036a
:08761c00000000000000000066
:0876240000000000000000005e
:08762c00000000000000000056
:0876340000000000000000004e
:027a1c00000068
:037a1e0082008063
:027a210001035f
:087a230000000000000000005b
:087a2b00000000000000000053
:087a330000000000000000004b
:087a3b00000000000000000043
:027e230000005d
:017e2500223a
:027e2600a13f7a
:027e2800010651
:00000001FF
