:02000000ff00ff
:080002004c6174746963650030
:17000a00694345637562653220323032302e31322e32373934330071
:15002100506172743a2069434534304c50314b2d514e38340034
:1b003600446174653a204a756e20313320323032322032303a31323a3137007f
:0200510000ffae
:040053007eaa997e6a
:02005700510056
:0200590001059f
:03005b0092000010
:03005e0062014bf1
:030061007200909a
:0300640082000017
:02006700110086
:02006900010193
:20006b00000000000000000000000000000000000000000000000000000000000000000075
:09008b00000000800000000000ec
:2000940000000000000000000000000000000000000000000000000000000000000000004c
:0a00b4000000000000000000000042
:2000be00000000000000000000000000000000000000000000000000000000001000000012
:0900de00000000400000000000d9
:2000e7000000000000000000000000000000000000000000000000000000000000000000f9
:0a01070000000000000000000000ee
:200111000000000000000000000000000000000000000000000000000000000000000000ce
:0901310000000080000002000043
:20013a000000000000000000000000000000000000000000000000000000000000000000a5
:0a015a00000000000000001000008b
:200164000000000000040000000000001000000000000040000000001000000000000040d7
:090184000000000007010000006a
:20018d00000000000000000000000000000000000000000000000000000000000000000052
:0a01ad0000000000008000000000c8
:2001b70000000000000c00000000000030000000000000c00000000030000000000000c03c
:0901d7000000000000020000001d
:2001e0000000000000000000000000000000000000000000000000000000000000000000ff
:0a02000000000000000000000000f4
:20020a000000000000000000000000000000000000000000000000000000000000000000d4
:09022a00000000000000000000cb
:200233000000000000000000000000000000000000000000000000000000000000000000ab
:0a02530000000000000000000000a1
:20025d00000000000000000000000000000000000000000000000000000000000000000081
:09027d0000000000000000000078
:20028600000000000000000000000000000000000000000000004000000000000100000017
:0a02a600000000040000000000004a
:2002b00000000000000400000000000010000000000000400000000010000000000000408a
:0902d000800000000001000000a4
:2002d900000000000000000000000000000000000000000000000000000000000000000005
:0a02f90000000000000000180000e3
:200303000000000000000000000000000000000000000000000000000000000000000000da
:09032300000000000000000000d1
:20032c00000020000000000000000000000000000040000000000000000000000000000051
:0a034c0000000000000000000000a7
:20035600000000000000000000000000000000000000000000000000000000000000000087
:090376000000000000000000007e
:20037f0000000000000000000000000000000000000000000000000000000000000000005e
:0a039f000000000000000000000054
:2003a900000000000000000000000000000000000000000000000000000000000000000034
:0903c9000000000000000000002b
:2003d20000000000000000000000000000000000000000000000000000000000000000000b
:0a03f2000000000000000000000001
:2003fc000003000000000000000000000000000000000000000000000000000000000000de
:09041c00000000000000000000d7
:200425000000000000000000000000000000000000000000000000000000000000000000b7
:0a04450000000000a000000000000d
:20044f0000000000000000000000000000000000000000000000000000000000000000008d
:09046f0000000000000000000084
:20047800000020000000000000000000000000000000000000000000000000000000000044
:0a049800000000000000000000005a
:2004a20000000000000000000000000000000000000000000000000000000000000000003a
:0904c20000000000000000000031
:2004cb00000000000000000000000000000000000000000000000000000000000000000011
:0a04eb000000000000000000000007
:2004f5000000000000000000000000000000000000000000000000000000000000000000e7
:09051500000000000000000000dd
:20051e000000000000000000000000000000000000000000000000000000000000000000bd
:0a053e0000000000000000000000b3
:20054800000000000000000000000000000000000000000000000000000000000000000093
:090568000000000000000000008a
:2005710000000000000000000000000000000000000000000000000000000000000000006a
:0a0591000000000000000000000060
:20059b004004000000000000000000000000000000000000000000000000000000000000fc
:0905bb0000000000000000000037
:2005c4000003e0000000000000000000000000000000000000000000000000000000000034
:0a05e400000000000000000000000d
:2005ee000000000000000000000000000000000000000000000000000000000000000000ed
:09060e00000000000000000000e3
:200617000800000000000000000000000000000000000000000000000000000000000000bb
:0a06370000000000000000000000b9
:20064100400000000000000000000000000000000000000000000000000000000000000752
:09066100a80010000000000000d8
:20066a00008000000000000000000000000000000000000000000000000000000000000fe1
:0a068a0041400000000000000000e5
:20069400000300000000000000000000000000000000000000000000000000000000000043
:0906b4000000000000000000003d
:2006bd000000000050000000000000000000000000000000000000000000000000000000cd
:0a06dd000000000000000000000013
:2006e7000000000000000000000000000000000000000000000000000000000000000000f3
:09070700000000000000000000e9
:200710000000200000000000000000000000000000000000000000000000000000000000a9
:0a07300000000000000000000000bf
:20073a0000000000000000000000000000000000000000000000000000000000000000009f
:09075a0000000000000000000096
:20076300000000000000000000000000000000000000000000000000000000000000000076
:0a078300000000000000000000006c
:20078d00000000000000000000000000000000000000000000000000000000000000080044
:0907ad0000000000000000000043
:2007b600000000000000000000000000000000000000000000000000000000000000010022
:0a07d6000000000000000000000019
:2007e0000000000000000000000000000000000000000000000000000000000010000000e9
:09080000000000000000000000ef
:2008090000000000000000000000000000000000000000000000000000000000008000d07f
:0a08290000000000000000000000c5
:200833000000000000000000000000000000000000000000000000000000000003000000a2
:090853000000000000000000009c
:20085c0000002000000000000000000000000000004000000000000000000000000000001c
:0a087c000000000000000000000072
:20088600000000000000000000000000000000000000000000000000000000000000000052
:0908a60000000000000000000049
:2008af00080000000000000000000000000000000000000000000000000000000000000021
:0a08cf00000000000000000000001f
:2008d9000000000000000000000000000000000000000000000000000000000000000000ff
:0908f900000000000000000000f6
:200902000000000000000000000000000000000000000000000000000000000000000000d5
:0a09220000000000000000000000cb
:20092c000003000000000000000000000000000000000000000000000000000000000000a8
:09094c00000000000000000000a2
:2009550000000000000000000000000000000000000000000000000000000000002800005a
:0a0975000000000000000000000078
:20097f00000000000000000000000000000000000000000000000000000000000000000058
:09099f000000000000000000004f
:2009a80000002000000000000000000000000000000000000000000000000000000000000f
:0a09c8000000000000000000000025
:2009d200000000000000000000000000000000000000000000000000000000000000000005
:0909f200000000000000000000fc
:2009fb000000000000000000000000000000000000000000000000000000000000000000dc
:0a0a1b0000000000000000000000d1
:200a25000000000000000000000000000000000000000000000000000000000000000000b1
:090a4500000000000000000000a8
:200a4e00000000000000000000000000000000000000000000000000000000000000000088
:0a0a6e00000000000000000000007e
:200a780000000000000000000000000000000000000000000000000000000000000000005e
:090a980000000000000000000055
:200aa100000000000000000000000000000000000000000000000000000000000000000035
:0a0ac100000000000000000000002b
:200acb000000000000000000000000000000000000000000000000000000000000201800d3
:090aeb00000000000003df000020
:200af40000002000000000000000000000000000000000000000000000000000000000f0d2
:0a0b140000000000000015c80000fa
:200b1e00000000000000000000000000000000000000000000000000000000029009803765
:090b3e00828000000000000000ac
:200b47000800000000000000000000000000000000000000000000002c00000028801000a2
:0a0b67004028040000000000000018
:200b71000000000000000000000000000000000000000000000000002dc5a2010008005770
:090b910011488000000000000082
:200b9a0000000000000000000000000000000000000000000000000002600a005000700b04
:0a0bba000214040000000000000017
:200bc400000300000000000000000000000000000000000000000000000000000001007e8f
:090be4000480800096000000006e
:200bed000000000000000000000000000000000000000000000000000000000000000800e0
:0a0c0d008048000014000000000001
:200c1700000000000000000000000000000000000000000000000007800000000008011f0e
:090c3700314080000000000000c3
:200c4000000020000000000000000000000000000000000000000000000000000000f08004
:0a0c60000314000000000000000073
:200c6a000000000000000000000000000000000000000000000001e000000000000700374b
:090c8a00819080000000000000d0
:200c93000000000000000000000000000000000000000000000000000000000000000880b9
:0a0cb300c019000001c0000000009d
:200cbd0000000000000000000000000000000000000000000000000000000000010900f21b
:090cdd0009804000000000000045
:200ce600000000000000000000000000000000000000000000000000000000000000500b93
:0a0d060064940000004000000000ab
:200d10000000000000000000000000000000000000000000000000000000000100000a00b8
:090d30000000000080000000003a
:200d3900000000000000000000000000000000000000000000000000000000003000010069
:0a0d5900000000001003400000003d
:200d630000000000000000000000000000000000000000000000006617ca02000007805848
:090d8300002000400001ce250013
:200d8c000000000000000000000000000000000000400000000000242820a0000000088073
:0a0dac003800000002401ec1501084
:200db600800000000000000000000000000000000000000000a0020004c104200000007a98
:090dd6003c2802e08000ce42003e
:200ddf0008000000000000000000000000000000000000000002001c00101041000000006d
:0a0dff00803c002210001cfd1000d3
:200e0900000000000000000000000000000000000000000000c0420005c850000000015257
:090e29003c200c0016600024407e
:200e32000000000000000000000000000000000000000000000c003c02d94500000000a098
:0a0e5200803c04c404001cc18400ad
:200e5c00000100000000000000000000000000000000000000000007c5e506000005803207
:090e7c003c20000000060c0540ba
:200e850000000000000000000000000000000000000000000000000061500040000050000c
:0a0ea500003c040040021c00a40001
:200eaf000000000000000000000000000000000000000000000000004000000000000012d1
:090ecf003c2040a02001ee0300cc
:200ed80000002000000000000000000000000000000000000000003c280000000000d400a2
:0a0ef800003c000003c00cba3000fb
:200f020044040000000000000000000000000000000000000000004225ee200000001c12e4
:090f22003c20000020000000004a
:200f2b0000c28000000000000000000000000000000000000000000242f9810000000000a6
:0a0f4b00803c010001c0000000001e
:200f55000000000000000000000000000000000000000000000000c21de500000003803afb
:090f75003c20400014340024402b
:200f7e000800000000000000000000000000000000000000000000007c3050084000000007
:0a0f9e00803c0000026214c18400d0
:200fa800400000000000000000000000000000000000000000400006bda0002000001a5ab2
:090fc8003c200c000000cb4200ab
:200fd10000000000000000000000000000000000000000000004000024d040004000000088
:0a0ff100003c804003401cbd1000ce
:200ffb0000000000000000000000000000000000000000000000000006a850000000017265
:09101b003c2800002028d88500c3
:2010240000002000000000000000000000000000000000000000001422fb4500000000a076
:0a104400003c100001479488a00052
:20104e00000000000000000000000000000000000000000000a00002800000000005015208
:09106e003c200a0004005e004071
:201077008000000000000000000000000000000000000000000a00007c000000002808a083
:0a109700003c00a0002025005400da
:2010a1000000000000000000000000000000000000000000004000060cb030000001813a41
:0910c1003c280400466e4a504030
:2010ca000000000000000000000000000000000000000000000400006479a30800000880f2
:0a10ea00803c00400802bf000480b3
:2010f40000030000000000000000000000000000000000000000006280000000000b80125a
:091114003c200000400000000036
:20111d0000000000000000000000000000000000000000000000000000000000000098001a
:0a113d00803c00001c0000000000d0
:2011470000000000000000000000000000000000000000000000e006800000000000015ac7
:091167003c280000040000000017
:2011700000002000000000000000000000000000000000000000000020000000000000c05f
:0a119000003c0000002000000000f9
:20119a0000000000000000000000000000000000000000000000016061a054000000181a4d
:0911ba003c2000000000000000d0
:2011c30000000000000000000000000000000000000000000000000028d00a4000000000ca
:0a11e300803c000002400000000004
:2011ed000000000000000000000000000000000000000000000000402eb030000008011a71
:09120d001540000004000000007f
:20121600000000000000000000000000000000000000000000000000035aa300000050a0c8
:0a1236000154000000000000000059
:20124000000000000000000000000000000000000000000000c001c017c504000000005bd2
:0912600021400c000021ea50605d
:201269000000000000000000000000000000000000000000000c0002003050400000000f88
:0a1289006e28004000040305040075
:201293000000000000000000000000000000000000000000000000024787f000000001de9c
:0912b3009fc0000024384850409f
:2012bc00000020000000000000000000000000000040000000000000765cff0000007081f0
:0a12dc00a3fc04000062c105040039
:2012e60000000000000000000000000000000000000000000020026614e5c02000000e97e2
:0913060081400a0c20044845084e
:20130f000000000000000000000000000000000000000000000a003c02600c20000070a3d7
:0a132f00800000a003c28598500062
:20133900000000000000000000000000000000000000000000c001e380000000000380d21b
:09135900a940040020054c080223
:201362000000000000000000000000000000000000000000000c0002400000000000d0bb92
:0a1382008154804002c2ac0000005c
:20138c000003000000000000000000000000000000000000000000004dd80000000f010009
:0913ac000f008000060078802289
:2013b50001000000000000000000000000000000000000000000000038cee5008010b0d01c
:0a13d50000f020000002fd00018876
:2013df000000000000000000000000000000000000000000000001c037e5060000001a00f1
:0913ff00000000001e035a000268
:2014080000002000000000000000000000000000000000000000003e03e000400000000043
:0a14280000000000e342170d100061
:2014320000000000000000000000000000000000000000000000000001f04400000f0ffe49
:091452001900000020000cc50285
:20145b0000000000000000000000000000000000000000000000002421db08400000b1a9af
:0a147b00fe90000003c01c0ca0103e
:201485000000000000000000000000000000000000000000000401c226ea40001000003fe1
:0914a500820080003e616a14021d
:2014ae0000000000000000000000000000000000000000000000200600ce6401008200a59e
:0a14ce00c00000000163ff024000af
:2014d8000000000000000000000000000000000000000000004000022fe004000005995fa2
:0914f8003bc00c000000000000e4
:20150100000000000000000000000000000000000000000000040004037005400000019574
:0a152100373c80400000000000008d
:20152b004000000000000000000000000000000000000000000000000000000000450af021
:09154b00001a000020020a9600bb
:20155400000020000000000000000000000000000000000000000000380000000000000718
:0a15740003fc01000140250690046d
:20157e000000000000000000000000000000000000000000000000001685f0129001803768
:09159e0048000000207a5a810087
:2015a70008000000000000000000000000000000003800000000000000305f002a00080f14
:0a15c700e1e8000002c664e0100035
:2015d10040000000000000000000000000000000000000000000000000000000000818108a
:0915f1001090800000681ae2234a
:2015fa00000000000000000000000000000000000000000000000000000000000000b10d13
:0a161a00039c00000002f40d1018fc
:2016240000030000000000000000000000000000000000000000000380000000000180bfe0
:0916440090c0000034024da10029
:20164d0000000000000000000000000000000000000000000000000000000000000008076e
:0a166d00670c000000401dfa0000a9
:20167700000000000000000000000000000000000000000000000000000000002800007fac
:091697005400000000046ea000e4
:2016a00000002000000000000000000000000000000000000000000000000000010000bb4e
:0a16c000f7c8000000034600000018
:2016ca00000000000000000000000000000000000000000000000000000000000000198760
:0916ea00a000a000002000000097
:2016f30000000000000000000000000000000000000000000000000000000000000010a720
:0a1713004100000000040000000087
:20171d0000000000000000000000000000000000000000000000000000000000030901d2cd
:09173d0056c000000002eea000fd
:201746000800000000000000000000000000000000000000000000000000000000001085e6
:0a176600766c0000014287000008c5
:201770000000000000000000000000000000000000000000000000000000000000010fb792
:09179000091080000000000000b7
:20179900000000000000000000000000000000000000000000000000000000000000118b94
:0a17b900c1e8000000c3800000003a
:0217c300000024
:0217c500110110
:0217c70001011e
:2017c9000000020000000000000800000000000020020000000000000000000000000000d4
:0917e900000000000000000000f7
:2017f2000000000000000000000000000000000000001c00000000000000000000000000bb
:0a18120000000000000000000000cc
:20181c00000001000000000000040000000000001000000000040000000000000000000093
:09183c00000000000000000000a3
:20184500000000000000000000000000000000000000000000000000000000000000000083
:0a1865000000000000000000000079
:20186f000000020000000400000800000000000020000000c000000000000000000000006b
:09188f0000000000000000000050
:2018980000000000000000400000000000000000000000000c0000000000000000000000e4
:0a18b8000000000000000000000026
:2018c200000000000004000000000000100000000000004000000000100000000000004062
:0918e200000000000001000000fc
:2018eb000000000000000000000000000000000000000000000000000000000000000000dd
:0a190b0000000000000000000000d2
:2019150000000000000c00000000000030000000000000c00000000020000000000000c0d6
:09193500000000000003000000a6
:20193e00000000000000000000000000000000000000000000000000000000000000000089
:0a195e00000000000000000000007f
:2019680000000000020000000000000000000000000000000000000000000000000000005d
:0919880000000000000000000056
:201991000000000000600000000000000000000000000000000000000000000000000000d6
:0a19b100000000000000000000002c
:2019bb0000000000000000000000000000000000000000000000000000000000000000000c
:0919db0000000000000000000003
:2019e4000000000000000000000000000000000001000000000040000000000001000000a1
:0a1a040000000004000000000000d4
:201a0e00000000000004000000000000100000000000004000000000100000000000004014
:091a2e00000000000001000000ae
:201a370000000000000000000000000000000000000000000000000000000000000000008f
:0a1a57000000000000000000000085
:201a6100000000000000000000000000000000000000000000000000000000000000000065
:091a81000000000000000000005c
:201a8a0000000000000000000000000000000000000000000000000000000000000000003c
:0a1aaa000000000000000000000032
:201ab400000000000000000000000000000000000000000000000000000000000000000012
:091ad40000000000000000000009
:201add000000000001000000000000000000000000000000000000000000000000000000e8
:0a1afd0000000000000000000000df
:201b07000000000000004280000000000000000000000000000000000000000000000000fc
:091b2700000000000000000000b5
:201b300000000000000072a80000000000000000000000000000000000000000000000007b
:0a1b5000000000000000000000008b
:201b5a00000200000000000000000000000000000000000000000000000000000000000069
:091b7a0000000000000000000062
:201b8300000000000000000000000000000000000000000000000000000000000000000042
:0a1ba3000000000000000000000038
:201bad00000000000000000000000000000000001000000000000000020a0180000000007b
:091bcd000000000000000000000f
:201bd6000000300000000000000000000000000002800000000000000058a0000000000045
:0a1bf60000000000000000000000e5
:201c00000000000001000000000000000000000000000000000000000000000000000000c3
:091c2000000000000000000000bb
:201c290000000000000e00000000000000000000000000000000000000000000000000008d
:0a1c49000000000000000000000091
:201c53000000000000000000000000000000000000000000000003c00000000000000000ae
:091c730000000000000000000068
:201c7c00000000000000000000000000000000000000000000000020000000000000000028
:0a1c9c00000000000000000000003e
:201ca600000200000000000000000000000000000000000000000002c0000000000000005a
:091cc60000000000000000000015
:201ccf000000000000000000000000000000000000000000000000000000000000000000f5
:0a1cef0000000000000000000000eb
:201cf9000000000000000000000000000000000000000000000000000000000000000000cb
:091d1900000000000000000000c1
:201d22000000000000000000000000000000000000000000000000000000000000000000a1
:0a1d42000000000000000000000097
:201d4c00000000000000000000000000000000000000000000000000000000000000000077
:091d6c000000000000000000006e
:201d750000000000000000000000000000000000000000000000000000000000000000004e
:0a1d95000000000000000000000044
:201d9f00000000000000000000000000000000000000000000000000000000000000000024
:091dbf000000000000000000001b
:201dc8000000000000000000000000000000000000000000000000000000000000000000fb
:0a1de80000000000000000000000f1
:201df2000002000000000000000000000000000000000000000000000000000000000000cf
:091e1200000000000000000000c7
:201e1b000000000000000000000000000000000000000000000000000000000000000000a7
:0a1e3b00000000000000000000009d
:201e4500180000000000000000000000000000000000000000000000000000000000000065
:091e650000000000000000000074
:201e6e00000030000000000000000000000000000000000000000000000000000000000024
:0a1e8e00000000000000000000004a
:201e980000000000000000000000000000000000002000000000000000000000000000000a
:091eb80000000000000000000021
:201ec100000000000000000000000000000000000000000000000000000000000000000001
:0a1ee10000000000000000000000f7
:201eeb000000000000000000000000000000000028000000000000000000000000000000af
:091f0b00000000000000000000cd
:201f14000000000000000000000000000000000000000000000000000000000000000000ad
:0a1f340000000000000000000000a3
:201f3e0000020000000000000000000000000000040000000000000000000000000000007d
:091f5e000000000000000000007a
:201f670000000000000000000000000000000000000000000000000000000000000000005a
:0a1f87000000000000000000000050
:201f9100000000000000000000000000000000000000000000000000000000000000000030
:091fb10000000000000000000027
:201fba00000000000000000000000000000000000000000000000000000000000000000007
:0a1fda0000000000000000000000fd
:201fe4000000000000000000000000000000000000000000000000000000000000000000dd
:09200400000000000000000000d3
:20200d00000000000000000000000000000000000000000000002000000000000000000093
:0a202d0000000000000000000000a9
:20203700000000000000000000000000000000000000000000000000000000000000000089
:0920570000000000000000000080
:20206000000000000000000000000000000000000000000000000000000000000000000060
:0a2080000000000000000000000056
:20208a00000200000000000000000000000000000000000000000000000000000000000034
:0920aa000000000000000000002d
:2020b30000000000000000000000000000000000000000000000000000000000000000000d
:0a20d3000000000000000000000003
:2020dd00002c000000000000000000000000000000000000000000000000000000000000b7
:0920fd00000000000000000000da
:20210600000030000000000000000000000000000000000000000000000000000000000089
:0a21260000000000000000000000af
:202130000c0000000000000000000000000000000000000000000000000000000000000083
:0921500000000000000000000086
:202159000480000000000000000000000000000000000000000000000000000000000000e2
:0a217900000000000000000000005c
:202183008000000000000000000000000000000000000000000000000000000000000000bc
:0921a30000000000000000000033
:2021ac00000000000000000000000200000000000000000000000000000000000000000011
:0a21cc000000000000000000000009
:2021d6000802000000000000000000000000000000000000000000000000000000000000df
:0921f600000001000000000000df
:2021ff000400000000000000000000000000000000000000000000000000000000000000bc
:0a221f0000000010000000000000a5
:20222900000000000000000000000000000000000000000000000000000000000000000095
:09224900000000003c0000000050
:2022520000000000000000000000000000000000000000000000000000000000000000006c
:0a2272000000000000000000000062
:20227c00800000000000000000000000000000000000000000000000000000004000000082
:09229c00000000000043c05000e6
:2022a500000000000000000000000000000000000000000000000000000000000400000015
:0a22c50000000000000681ea00009e
:2022cf000000000000000000000000000000000000000000000000000000000000000000ef
:0922ef00000000000000000000e6
:2022f8000000000000000000000000000000000000000000000006000000000000000000c0
:0a23180000000000000000000000bb
:2023220000000000000000000000000000000000000000000000000000000000000000009b
:0923420000000000000000000092
:20234b0000000800000000000000000000000000000000000000000000000000000000006a
:0a236b000000000000000000000068
:202375000000000000000000000080000000000000000000000000000000000000000000c8
:092395000000000000000000003f
:20239e000000200000000000000000000000000000000000000000000000000000000000ff
:0a23be000000000000000000000015
:2023c8000000000000000000000000000000000000000000000000000000000000000000f5
:0923e800000000000000000000ec
:2023f1000000000000000000000000000000000000000000000002000000000000000000ca
:0a24110000000000000000000000c1
:20241b00980000000000000000000000000000000000000000000000000000000000000009
:09243b0000000000000000000098
:20244400000000000000000000000000000000000000000000000000000000000000000078
:0a246400000000000000000000006e
:20246e0000000000000000000000000000000000040000000000000000000000000000004a
:09248e0000000000000000000045
:20249700000000000000000000000000000000000000000000000000000000000000000025
:0a24b700000000000000000000001b
:2024c100000000000000000000000000000000000000000000c0000000000000000000003b
:0924e1000000000006027000007a
:2024ea000000000000000000000000000000000000000000000400000000000000000000ce
:0a250a0000000000036027aa040887
:202514008000000000000000000002400000000000000000000000200000000000000000c5
:0925340000000000026400000038
:20253d0000000000000000000000000000000000000000000000000400000000000010006a
:0a255d0000000000004640000000ee
:20256700000000000000000000000000000000000000000000000000000000000000000054
:09258700000000000002700000d9
:2025900000000000000000000000000000000000000000000000000000000000000000002b
:0a25b00000000000006026e2142085
:2025ba000000000000000000000000000000000000000000000000200000000000000cd401
:0925da0010000000002240e200a4
:2025e30000000400000000000000000000000000000000000000000e0000000000000019ad
:0a26030068810800000041cd10209e
:20260d000000000000000000000000000000000000000000000000200d953400000008d0df
:09262d003880400000727e0000bc
:2026360000002000000000000000000000000000000000000000001c717a03410000788021
:0a26560063448800000766f21000dc
:2026600008000000000000000000000000000000000000000000140000000001000508de52
:09268000900004000001f040008c
:20268900040000000000000000000004000000000000000000000080000000003000500920
:0a26a9006880004000603da204209c
:2026b300800000000000000000000000000000000000000000a0000000000002800100d094
:0926d30038800a00003030c50017
:2026dc000000000000000000000000000000000000000000000a000000000000280080002c
:0a26fc006b44a8a000074c8c50248a
:20270600003600000000000000000000140af11020000000000a00000000000000000fda4b
:0927260040000000003179800040
:20272f00040040000000000000000000000e5f000100000000004000600000000000519d4a
:0a274f00a8840000000046f010000e
:2027590000000000000000000000000000000000000000000000014280000000000500b2e6
:09277900b8880000002410c5001e
:202782000400000000000000000000000000000000000000000000366c0000000000000889
:0a27a20063440000000057ac502013
:2027ac008028000000000000000000000000000000000000000002c60f000000000000008e
:0927cc003c000000000370001045
:2027d50000004000000000000000000000000000000000000000002071de21420000500082
:0a27f50023c00000000015ea0000f8
:2027ff000800000000000000000000000000000000000000000000042eae7200000000025e
:09281f00fc0000000203db40088c
:2028280084c0000000000000000000000000000000000000000000002260810000000080c9
:0a28480023c20000006020a8040075
:202852000002000000000000000000000000000000000000000002c23dcc00000010000285
:09287200fc0000000437600000c6
:20287b0000068000000000000000000000000000000000000000002007ee00400000000062
:0a289b0027c20000000055ca04081f
:2028a5001000000000000000000000000000000000000000000000003c00000001000003c3
:0928c500bc000000004010c50039
:2028ce0000003000000000000000000000000000000000000000000000de214200000180f8
:0a28ee0027c20000006707ac50206d
:2028f800080000000000000000000000000000000000000000c00160030d120000058a03e3
:09291800bc000400003b60000853
:202921000440000000000000000000000000000000000000000c001e00e8d1020000d0108d
:0a29410023c200c0000395ca000085
:20294b00800000000000000000000000000000000000000000a000021ef400000005000231
:09296b007c0002000400000000e1
:2029740000000000000000000000000000000000000000000002000004de010000008000de
:0a29940023c200a0020000000000b2
:20299e000002000000000000000000000000000004000000000000003ec8000000001002fb
:0929be00bc010000000000000053
:2029c70004000000000000000000000000000000000000000000000063de0100000000a00a
:0a29e70023c2000000000000000001
:2029f1000000000000000000000000000000000000000000000001429e8c00100000000247
:092a1100fc000000000240500826
:202a1a0004000000000000000000000000000000000000000000003c685f0040000000a0b5
:0a2a3a0023c20000000000ca0000e3
:202a44008000000000000000000000000000000000000000000001420ce8000000000003b8
:092a6400da4800000020e08000c7
:202a6d00000000000000000000000000000000000000000000000004067f0140000000007f
:0a2a8d00265a00000040458a44204c
:202a970008000000000000000000040000000000000000000000004025880000000900031a
:092ab7005a400000002850e2081a
:202ac00004400000000000000000008000000000000000000000000003ed01404000800041
:0a2ae000225a04000060418d10200e
:202aea00003a000000000000000000000000000000000000000000029c8000000000000371
:092b0a003c0000000c3cc0c200bc
:202b1300000040000000000000000000000000000000000000000016666d2140000000a078
:0a2b330027c2000000000f880020f8
:202b3d00000000000000000000000000000000000000000000000020050000000000000251
:092b5d009a4010000000003c0940
:202b660000003000000000000000000000000000000000000000001403fe2142000000a007
:0a2b8600225a000008000003c020de
:202b9000000000000000000000000000000000000000000000c00004030c500000550a02a1
:092bb000fc000400040000d10047
:202bb90004000000000000000000000000000000000000000004000060c8c51200020010e3
:0a2bd90027c200c0020004ad102066
:202be300800000000000000000000000000000000000000000a0066405f0000000250e0020
:092c03003c000a000023dc800003
:202c0c000000000000000000000000000000000000000000000a002663fe210000040011e1
:0a2c2c00a3c200a001404dd64000f5
:202c36000002000000000000000000000000000000000000000410061da0000000000002a3
:092c5600400000000202ec5100f4
:202c5f00040000000000000000000000000000000000000000002000627f2100000210011c
:0a2c7f000402000000e63dc014004e
:202c89000000000000000000000000000000000000000000000008400cac2000000d080cea
:092ca900314800aa0c00000000f3
:202cb20000000000000000000000000000000000000000000000006c036e800100005183d0
:0a2cd200ab1408040000000000002d
:202cdc0080000000000000000000000000000000000000000000e0021e05800000000bf4d4
:092cfc002000004e143d40400090
:202d050000000000000000000000000000000000000000000000001e2ef86422000000ab39
:0a2d2500a8040800020660a80420bc
:202d2f000000000000000000000000000000000000000000000009403e00a000000f0d0839
:092d4f00280010005f20702f0025
:202d5800000000000000000000000000000000000000000000000156616ea501000059979f
:0a2d78007a80c40008c05487f238c6
:202d8200000040000000000000000000000000000000000000008000030c520000001050b0
:092da2001c8040008234d00000c6
:202dab00000008000000000000000600000000000000000000000014696cc502401000e812
:0a2dcb007ac4480024406ce0802028
:202dd500000000000000000000000000000000000000000000000022dec800000001009283
:092df500a002300400004a400075
:202dfe0000003000000000000000000000000000000000000000000e625d01000000f801be
:0a2e1e007a048000016021a8000082
:202e2800000000000000000000000000000000000000000000000240010a028000070b08a1
:092e480004000c001403dd430139
:202e51000000000000000000000000000000000000000000000000200148a0004800d983b4
:0a2e710068400840c0069c9e300037
:202e7b008000000000000000000000000000000000000000000000200f000000000500b3d0
:092e9b00ffc002000001fc000070
:202ea40000000000000000000000000000000000000000000000000e024ea0200000800967
:0a2ec400f1fc002000602ed0800019
:202ece00000200000000000000000000000000000400000000000047e4840200000500d652
:092eee00b880000e0c2800000061
:202ef70000000000000000000000000000000000000000000000000068dc200000000080d7
:0a2f17007b4400000262c0000000cd
:022f21000000ae
:022f2300110299
:022f25000101a8
:202f270000000000000000000000000000000000000000000000000000000000000000008a
:092f470000000000000000000081
:202f5000000000000000000000000000000000000000000000000000000000000000000061
:0a2f70000000000000000000000057
:202f7a000000000000000000000000000000000000000000000000000000008000000000b7
:092f9a000000000000000000002e
:202fa30000000000000000000000000000000000000000000000000000000000000000000e
:0a2fc3000000000000000000000004
:202fcd000000000000000000000000000000000000000000000000000000000000000000e4
:092fed00000000000000000000db
:202ff6000000000000000000000000000000000000000000000000000000000000000000bb
:0a30160000000000000000000000b0
:203020000000000000080000000000002000000000080000000000002000000000000080c0
:0930400000000000000200000085
:20304900000000000000000000000000000000000000000000000000000000000000000067
:0a306900000000000000000000005d
:2030730000000000000c00000000000030000000000c00000000000030000000000000c005
:0930930000000000000300000031
:20309c00000000000000000000000000000000000000000000000000000000000000000014
:0a30bc00000000000000000000000a
:2030c6000000000000000000000000000000000000000000000000000000000000000000ea
:0930e600000000000000000000e1
:2030ef000000000000000000000000000000000000000000000000000000000000000000c1
:0a310f0000000000000000000000b6
:20311900000000000000000000000000000000000000000000000000000000000000000096
:09313900000000000000a00000ed
:20314200000000000000000000000000000000000000000000000000000000080000000065
:0a31620000002000000000000080c3
:20316c00000000000008000000000000200000000208000000000000200000000000008071
:09318c0000000000000300000037
:2031950000000000000000000000000000000000000000000000000000000000000000001a
:0a31b5000000000000000000000010
:2031bf000000000000000000000000000000000000000000000000000000000000000000f0
:0931df00000000000000000000e7
:2031e80000002000000000000000000000000000000000000800000000000000000000009f
:0a32080000000000000000000000bc
:2032120000000000000000000000000000000000000000000000000000000000000000009c
:0932320000000000000000000093
:20323b00000000000000000000000000000000000000000000000000000000000000000073
:0a325b000000000000000000000069
:20326500000000000000000000000000000000000000000000000000000000000000000049
:0932850000000000000000000040
:20328e00000000000000000000000000000000000000000000000000000000000000000020
:0a32ae000000000000000000000016
:2032b8000003000000000000000000000000000000000000000000000000000000000000f3
:0932d800000000000000000000ed
:2032e1000000000000000000000000000000000000000000000000000000000000000000cd
:0a33010000000000000000000000c2
:20330b000000000000000000000000000000000000000000000000000000000000000000a2
:09332b0000000000000000000099
:20333400000020000000000000000000000000000000000000000000000000000000000059
:0a335400000000000000000000006f
:20335e0000000000000000000000000000000000000000000000000000000000000000004f
:09337e0000000000000000000046
:20338700000000000000000000000000000000000000000000000000000000000000000026
:0a33a700000000000000000000001c
:2033b1000000000000000000000000000000000000000000000000000000000000000000fc
:0933d100000000000000000000f3
:2033da000000000000000000000000000000000000000000000000000000000000000000d3
:0a33fa0000000000000000000000c9
:203404000000000000000000000000000000000000000000000000000000000000000000a8
:093424000000000000000000009f
:20342d0000000000000000000000000000000000000000000000000000000000000000007f
:0a344d000000000000000000000075
:20345700000000000000000000000000000000000000000000000000000000000000000055
:093477000000000000000000004c
:2034800000002000000000000000000000000000000000000000000000000000000000000c
:0a34a0000000000000000000000022
:2034aa00000000000000000000000000000000000000000000000000000000000000000002
:0934ca00000000000000000000f9
:2034d3000000000000000000000000000000000000000000000000000000000000000000d9
:0a34f30000000000000000000000cf
:2034fd000000000000000000000000000000000000000000000000000000000000000000af
:09351d00000000000000000000a5
:20352600000000000000000000000000000000000000000000000000000000000000000085
:0a354600000000000000000000007b
:20355000000300000000000000000000000000000000000000000000000000000000000058
:0935700000000000000000000052
:20357900000000000000000000000000000000000000000000000000000000000000000032
:0a3599000000000000000000000028
:2035a300000000000000000000000000000000000000000000000000000000000000000008
:0935c300000000000000000000ff
:2035cc000000200000000000000000000000000000000000000000000000000000000000bf
:0a35ec0000000000000000000000d5
:2035f6000000000000000000000000000000000000000000000000000000000000000000b5
:09361600000000000000000000ab
:20361f0000000000000000000000000000000000000000000000000000000000000000008b
:0a363f000000000000000000000081
:20364900000000000000000000000000000000000000000000000000000000000000000061
:0936690000000000000000000058
:20367200000000000000000000000000000000000000000000000000000000000000000038
:0a369200000000000000000000002e
:20369c0000000000000000000000000000000000000000000000000000000000000000000e
:0936bc0000000000000000000005
:2036c5000000000000000000000000000000000000000000000000000000000000000000e5
:0a36e50000000000000000000000db
:2036ef000000000000000000000000000000000000000000000000000000000000000000bb
:09370f00000000000000000000b1
:20371800000020000000000000000000000000000000000008000000000000000000000069
:0a3738000000000000000000000087
:20374200000000000000000000000000000000000000000000000000000000000000000067
:093762000000000000000000005e
:20376b000000000000000000000000000000000000000000000000000000004000000000fe
:0a378b000000000000000000000034
:20379500000000000000000000000000000000000000000000000000000000000000000014
:0937b5000000000000000000000b
:2037be000000000000000000000000000000000000000000000000000000000000000000eb
:0a37de0000000000000000000000e1
:2037e8000003000000000000000000000000000000000000000000000000000000000000be
:09380800000000000000000000b7
:20381100000000000000000000000000000000000000000050000000000000000000000047
:0a3831000000000000000000180075
:20383b0000000000000000000000000000000000000000000000000000000000000000006d
:09385b0000000000000000000064
:20386400000020000000000000000000000000000000000000000000000000000000000024
:0a388400000000000000000000003a
:20388e0000000000000000000000000000000000000000000000000000000000000000001a
:0938ae0000000000000000080009
:2038b7000000000000000000000000000000000000000000000000000000000000000000f1
:0a38d70000000000000000000000e7
:2038e1000000000000000000000000000000000000000000000000000000000000000000c7
:09390100000000000000000000bd
:20390a00080000000000000000000000000000000000000000000000000000000000000095
:0a392a000000000000000000000093
:20393400000000000000000000000000000000000000000000000000000000000000000073
:0939540000000000000000020068
:20395d0000000000000000000000000000000000000000000000000000000000000000004a
:0a397d000000000000000000400000
:20398700000000000000000000000000000000000000000000000000000000000000000020
:0939a7000000000941de8000006f
:2039b0000000200000000000000000000000000000000000000000000000000000000000d7
:0a39d000000000028002d700000092
:2039da000000000000000000000000000000000000000000000000000000000000000000cd
:0939fa00000000000000000001c3
:203a030048000000000000000000000000000000000000000000000000000000000000005b
:0a3a23000000000000000000001485
:203a2d00000000000000000000000000000000000000000000000000000000000000000079
:093a4d0000000000000000000070
:203a56008000000000000000000000000000000000000000000000000000000000000000d0
:0a3a7600000000000000000000083e
:203a8000000300000000000000000000000000000000000000000000000000000000000023
:093aa00000000000000000040019
:203aa9000000000000000000000000000000000000000000000000000000000000000000fd
:0a3ac90000000000000000002000d3
:203ad3000000000000000000000000000000000000000000000000000000000000000000d3
:093af300000000000000000000ca
:203afc0000002000000000000000000000000000000000000000000000000000000000008a
:0a3b1c000000000000000700000098
:203b260000000000000000000000000000000000000000000000000000000000000000007f
:093b460000000000000000000076
:203b4f00000000000000000000000000000000000000000000000000000000000000000056
:0a3b6f00000000000000000e00003e
:203b790000000000000000000000000000000000000000000000000000000000000000002c
:093b990000000000000080e100c2
:203ba200000000000000000000000000000000000000000000000000000000000000000003
:0a3bc20000000000000007000000f2
:203bcc000000000000000000000000000000000000000000000000000000000000000000d9
:093bec00000000000000001000c0
:203bf500c000000000000000000000000000000000000000000000000000000000000000f0
:0a3c1500000000000000000f00880e
:203c1f0000000000000000000000000000000000000000000000e804b58000000000000064
:093c3f0000020000000070e140e9
:203c48000000200000000000000000000000000000000000080002bf6b0000000000000305
:0a3c68004000000000000010000002
:203c720000000000000000000000000000000000000000000000e804f780001400af17a055
:093c92000000500302cc0000c048
:203c9b000000000000000000000000000000000000000000000002bc09080001000050ac3d
:0a3cbb004000042031758000000075
:203cc50000000000000000000000000000000000000000000000e804bd81000042a072e081
:093ce500000000000000580a0074
:203cee000000000000000000000000000000000000000000000002bc1b108000080a30e427
:0a3d0e00400000000000000040002b
:203d180000030000000000000000000000000000000000000000e804ff9e0000000f1f8051
:093d380000000000000080000002
:203d41000000000000000000000000000000000000000000000002bc19180000000af0accd
:0a3d6100000008000000050000004b
:203d6b0000000000000000000000000000000000000000000000e805f00100000001b7762c
:093d8b0028000000000080000087
:203d94000000200000000000000000000000000000000000000002bc0b00f00000000fb572
:0a3db40043c0000000000f0e0000e5
:203dbe0000000000000000000000000000000000000000000000e805f000000000a017e071
:093dde006800000288ca800000a0
:203de7000000000000000000000000000000000000000000000002bc09000000000f50bdd9
:0a3e0700400000202865870e00002f
:203e110000000000000000000000000000000000000000000000e805b1980000c2a272c0c5
:093e310068200000000000000000
:203e3a000000000000000000000000000000000000000000000002bc1b000000000520e684
:0a3e5a00c00000000000000000009e
:203e640000000000000000000000000000000000000000000000e805f199000800107376c6
:093e840074000003fafd0001c006
:203e8d000000000000000000000000000000000000000000000002bc19008000c000037883
:0a3ead00468000013ffde10810000f
:203eb70044000000000000000000000000000000000000050000e804f00000000001f38052
:093ed70000000013fc00000000d3
:203ee0000000200000000000000000000000000000000000000082bc0d0000002000037db7
:0a3f0000400000023fc00000000076
:203f0a0000000000000000000000000000000000000000000000e804b000001400047b5e0a
:093f2a000000000000000080000e
:203f33000800000000000000000000000000000000000000000002bc0f0000014000053d16
:0a3f530060000000000000100000f4
:203f5d0040000000000000000000000000000000000000000000e804b998000040015b40eb
:093f7d0004000010146f000000a4
:203f86000000000000000000000000000000000000000000000002bc1d1000000000002c04
:0a3fa600024000240001e0000000ca
:203fb00000030000000000000000000000000000000000000000e804b8180000407f165409
:093fd000000000000000000000e8
:203fd9000000000000000000000000000000000000000000000002bc1f1000000002f0e405
:0a3ff900028000000000000000003c
:2040030000000000000000000000000000000000000000000000e805f001000000000000bf
:0940230020000000000000001460
:20402c000000200000000000000000000000000000000000000002bc0d00f0000000000099
:0a404c000680000000000000008064
:2040560000000000000000000000000000000000000000000000e805b000000000000000ad
:094076000400000000000000003d
:20407f000000000000000000000000000000000000000000000002bc0f70b4000000000030
:0a409f000280000000000000000095
:2040a90000000000000000000000000000000000000000000000e805b0090000000000361b
:0940c900068100000000800100e6
:2040d2000800000000000000000000000000000000000000000002bc1d008000000000016a
:0a40f2004290200000000f000000c3
:2040fc00000000000000000000000000000000000000000000004000c001000c0000002077
:09411c0068000000000001c00071
:204125000000000000000000000000000000000000000000400000000070800080000001c9
:0a4145004000000000000010000020
:20414f0000000000000000000000000000000000000000000000aa84a0000000000a5854cc
:09416f000000000802595810007c
:204178000000200000000000000000000000000000000000080082a800000000080050205d
:0a4198000000000022eec90d000037
:2041a20000000000000000000000000000000000000000005000000000010010000000009c
:0941c20000000000000001a00152
:2041cb000800000000000000000000000000000000000000000000000000a081400000006b
:0a41eb000380000000000000001037
:2041f500000000000000000000000000000000000000000000000000001d000c0000000081
:09421500000000000000000000a0
:20421e0080000000000000000000000000000000000000000000000000008000c0000000c0
:0a423e00000000000000000000086e
:20424800000200000000000000000000000000000000000000000000000000000000000054
:09426800040000000000000080c9
:204271000000000000000000000000000000000000000000000000000000014000000000ec
:0a42910003400000000000001800c8
:20429b0000000000000000000000000000000000000000000000000000000000000a720087
:0942bb00000000000000000000fa
:2042c400000020000000000000000000000000000000000000000000000000000800a0c052
:0a42e40000000000000000000000d0
:2042ee004c00000000000000000000000000000000000000000000000000000040e700003d
:09430e000000000000000009009d
:2043170000800000000000000000000000000000000000000000000000000000200db03ced
:0a4337000000000000000d0f000060
:20434100000400000000000000000000000000000000000000000000070000000000002031
:0943610000000000000000000053
:20436a000802800000000000000000000000000000000000000000000000000000000002a7
:0a438a00c000000000000000000069
:204394004000000000000000000000000000000000000000000000000000000800000000c1
:0943b400000000000000000008f8
:2043bd00000000000000000000000000000000000000000000000000000000008000000060
:0a43dd0000000000000000000000d6
:2043e700000000000000000000000000000000000000000000004000a0000000020a53c0b7
:09440700000100040000000000a7
:20441000000020000000000000000000000000000000000000000000d0000000000a007022
:0a44300000000010001c0000000056
:20443a000000000000000000000000000000000000000000000043c5a0000014000136e08f
:09445a0000005004000000000005
:2044630000000000000000000000000000000000000000000000003c1000000140000b7031
:0a44830040000500002c09000000b5
:20448d000000000000000000000000000000000000000000000043c4a8010000020072be2d
:0944ad002e0000040200000000d2
:2044b60000000000000000000000000000000000000000000000003c0050a000000f007c2f
:0a44d60046100000003c000000004a
:2044e0000003000000000000000000000000000000000000000143c5ad9a00000000baa609
:09450000000000040200000000ac
:2045090000000000000000000000000000000000000000000000003c0050000000080dac45
:0a45290040000000003c000000000c
:204533000000000000000000000000000000000000000000000043c5a00b000000000014a1
:094553006c000004000058000097
:20455c0000002000000000000000000000000000000000000000003c1001e00000000000f2
:0a457c0022000000002c0500800062
:204586000000000000000000000000000000000000000000000043c40000000002003ae0f2
:0945a60060000004000e0001c0d9
:2045af0000000000000000000000000000000000000000000000003cc0000000000f007170
:0a45cf00438000000001000000001e
:2045d90000000000000000000000000000000000000000000000c3c5e00e0000020a7bf4d1
:0945f90020000004020051a000a2
:204602000000000000000000000000000000000000000000000003c010000000000500259b
:0a46220066c000000024000900003b
:20462c0000000000000000000000000000000000000000000000c3c5e980000002003e80bd
:09464c000400000400005000000d
:204655000000000000000000000000000000000000000000000003c010100000000f0070e3
:0a46750002840000001c0500000094
:02467f00000039
:02468100110323
:02468300010133
:20468500000000000000000000000000000000000000000010000000000000000000000005
:0946a5000000000000000000000c
:2046ae000000000000000000000000000000000000000000000000000000000000000000ec
:0a46ce0000000000000000000000e2
:2046d800000000000000000000000000000000000000000020000000000000800000000022
:0946f800000200000000000000b7
:20470100000000000000000000000000000000000000000000000000000000000000000098
:0a472100000000000000000000008e
:20472b0000000000000000000000000000000000000000001000000000000000000000005e
:09474b0000000000000000000065
:204754000000000000000000000000000000000000800000000000000000000000000000c5
:0a477400000000000000000000003b
:20477e00000000000008000000000000000000000000000000000000200000000000008073
:09479e0000000000000200000010
:2047a7000000000000000000000000000000000000000000000000000000000000000000f2
:0a47c70000000000000000000000e8
:2047d10000000000000c00000000000030000000000c00000000000030000000000000c090
:0947f100000000000003000000bc
:2047fa0000000000000000000000000000000000000000000000000000000000000000009f
:0a481a000000000000000000000094
:20482400000000000000000000000000000000000000000000000000000000000000000074
:094844000000000000000000006b
:20484d0000000000000000000000000000000000000000000000000000000000000000004b
:0a486d000000000000000000000041
:2048770000000000000000000000000000000080000000000000000002000000000000009f
:0948970000000000000000000018
:2048a0000000000000000000000000000000000800000000020000000000000800000000e6
:0a48c000000020000000000000804e
:2048ca000000000000080000000000003000000000080000000000002000000000000080ee
:0948ea00000000000002000000c3
:2048f30000000000000000000000000000000000000000e0000000000000000000001800ad
:0a491300000000000000000000009a
:20491d0000000000000000000000000000000000000000000000000000000000000000007a
:09493d0000000000000000000071
:20494600000000000000000000000000000000000000000000000000000000000000000051
:0a49660000000000000000000080c7
:20497000000000000000000000000000000000000000000000000000000000000000000027
:094990000000000000000000001e
:204999000000000000000000000000000000000000000000000000000000000000000000fe
:0a49b90000000000000000000000f4
:2049c3000000000000000000000000000000000000000000000000000000000000000000d4
:0949e300000000000000000000cb
:2049ec000000000000000000000000000000000000000000000000000000000000000000ab
:0a4a0c0000000000000000000000a0
:204a160000020000000000000000000000000000000000000000000000000000000000007e
:094a360000000000000000000077
:204a3f00000000000000000000000000000000000000000000000000000000000000000057
:0a4a5f00000000000000000000004d
:204a690000000000000000000000000000000000000000000000000000000000000000002d
:094a890000000000000000000024
:204a92000000300000000000000000000000000000000000000000000000000000000000d4
:0a4ab20000000000000000000000fa
:204abc000000000000000000000000000000000000000000000000000000000000000000da
:094adc00000000000000000000d1
:204ae5000000000000000000000000000000000000000000000000000000000000000000b1
:0a4b050000000000000000000000a6
:204b0f00000000000000000000000000000000000000000000000000000000000000000086
:094b2f000000000000000000007d
:204b380000000000000000000000000000000000000000000000000000000000000000005d
:0a4b58000000000000000000000053
:204b6200000200000000000000000000000000000000000000000000000000000000000031
:094b82000000000000000000002a
:204b8b0000000000000000000000000000000000000000000000000000000000000000000a
:0a4bab000000000000000000000000
:204bb5000000000000000000000000000000000000000000000000000000000000000000e0
:094bd500000000000000000000d7
:204bde000400000000000000000000000000000000000000000000000000000000000000b3
:0a4bfe0000000000000000000000ad
:204c080080000000000000000000000000000000000000000000000000000000000000000c
:094c280000000000000000000083
:204c3100000000000000000000000000000000000000000000000000000000000000000063
:0a4c51000000000000000000000059
:204c5b000c00000000000000000000000000800000000000000000000000000000000000ad
:094c7b0000000000000000000030
:204c8400040000000000000000000000000004000000000000000000000000000000000008
:0a4ca4000000000000000000000006
:204cae000000000000000000000000000000000000000000000000000000000000000000e6
:094cce00000000000000000000dd
:204cd7000000000000000000000000000000000000000000000000000000000000000000bd
:0a4cf70000000000000000000000b3
:204d0100000000000000000000000000000000000000000000000000000000000000000092
:094d210000000000000000080081
:204d2a00000030000000000000000000000000000000000000000000000000000000000039
:0a4d4a00000000000000000054000b
:204d54000000000000000000000000000000400000000000000000000000000000000000ff
:094d740000000000000000000036
:204d7d00000000000000000000000000000000000000000000000000000000000000000016
:0a4d9d00000000000000000000000c
:204da7008000000000000000000000000000a00000000000000000000000000000000000cc
:094dc700000000000000000000e3
:204dd000000680000000000000000000000004000000000000000000000000000000000039
:0a4df00000000000000000000000b9
:204dfa00000200000000000000000000000000000000000080000000000000000000000017
:094e1a000000000000000004008b
:204e230000000400000000000000000000000000000000000000000000000000000000006b
:0a4e43000000000000000000000065
:204e4d00000000000000000000000000000000000000000000000000000000000000000045
:094e6d0000002012bc300000001e
:204e760000000000000000000000000000000000000000000000000000000000000000001c
:0a4e9600000003002bcd8000000097
:204ea000800000000000000000000000000000000000000000000000000000000000000270
:094ec000000000000000000000e9
:204ec9000000000000000000000000000000000000000000000000000000000000000001c8
:0a4ee900c2000000000000000000fd
:204ef30000000000000000000000000000000000000000000000000000000000000000009f
:094f130030000000000000000065
:204f1c00000000000000000000000000000000000000000000000000000000000000000075
:0a4f3c00004000000000000000002b
:204f4600800240000000000000000000000000000000000000000000000000000000000089
:094f6600000000000000900000b2
:204f6f00000000000000000000000000000000000000000000000000000000000000000022
:0a4f8f000000000000000000000018
:204f99000000000000000000000000000000000000000005000000000000000000000000f3
:094fb900000000000000000000ef
:204fc2000000100000000000100000000000000000000000000000000000000000000000af
:0a4fe20000010000000000000000c4
:204fec000000000000000000000000000000000000000000000000000000000000000000a5
:09500c002010300000000000003b
:2050150000000000000000000000000000000000000000000000000000000000000000007b
:0a503500004003000000000000002e
:20503f008000000000000000000000000000000000000000000000000000000000000000d1
:09505f0000005000000070000088
:20506800000000000000000000000000000000000000000000000000000000000000000028
:0a5088000000050000000000000019
:205092000000000000000000000000000000000000000000000000000000000020aa000034
:0950b200000000000000000000f5
:2050bb0000000000000000000000000000000000000000000000000000000000002aa128e2
:0a50db0000000000000000000000cb
:2050e500000000000000000000000000000000000000000000000024800000000000000007
:0951050020002000000000000061
:20510e00040000000000000000000000000000000000000000000200c8000000001000782b
:0a512e000240030000000000000032
:20513800800000000000000000000000000000000000000000000000000b000000af0740d6
:09515800207000017c0b900000a6
:2051610000600000000000000000000000000000000000000000000000000000003a01682b
:0a518100064050022bcc0000000095
:20518b000c00000000000000000000000000000000000000000000000000000000af034006
:0951ab0038000002940800000025
:2051b40004800000000000000000000000000000000000000000000000000000003a016daf
:0a51d400c000000000009000000081
:2051de000002000000000000000000000000000000000000000000000009000000af035c98
:0951fe00000000038c4901c0000f
:2052070000000000000000000000000000000000000000000000000000001000003a0178c4
:0a5227000000000034c6101f000054
:205231000000000000000000000000000000000000000000000000000500000000af07445e
:09525100000000030c2f00800096
:20525a000003300000000000004000000000000000000000000000000081a000003a012e37
:0a527a0006000010b1c7a0190000e3
:205284000000000000000000000000000000000000000000000000000000000000af074410
:0952a40000000001682b0000006d
:2052ad0000000000000000000000000000000000000000000000000000000000003a012a7c
:0a52cd00600000102a5da1800000bf
:2052d70000000000000000000000000000000000000000000000001cb00a000000af0340ef
:0952f70000004002802850000173
:205300000000000000000000000000000000000000000000000000407b001000003a013c4b
:0a532000000004000006980a0014c3
:20532a00000200000000000000000000000000000000000080000000000a000020af0340c5
:09534a00200000014a6800800007
:205353000000000000000000000000000000000000000000000000000059b000003a0138be
:0a53730000000000a8bd800100004a
:20537d000000000000000000000000000000000000000000000000000000000000af06401b
:09539d00205020001c2a00000031
:2053a60000000000000000000000000000000000000000000000000000000000003a017c30
:0a53c600604042320156b100014080
:2053d0008000000000000000000000000000000000000000000000000d00000000af06c0bb
:0953f000610000028000000000d1
:2053f90000000000000000000000000000000000000000000000000000000000003a016ced
:0a541900026000002815c00e00001c
:205423000000000000000000000000000000000000000000000000178000000000af0242df
:0954430000200001756c0000005e
:20544c000000000000000000000000000000000000000000000000075b000000003a016d36
:0a546c00c0000000a976b01800008f
:205476000000000000000000000000000000000000000000000000000000000000af02c0a5
:0954960000000000000000000805
:20549f0000000000000000000000000000000000000000000000000000000000003a017c36
:0a54bf00060000000000000001409c
:2054c900000000000000000000000000000000000000000000000000050a000000af0644bb
:0954e90000300000000000e000aa
:2054f20000000000000000000000000000000000000000000000000000d99000003a012ec8
:0a551200e6010000000001010000a6
:20551c00000000000000000000000000000000000000000000020002a000000000af06c452
:09553c0000000000000001b000b5
:205545000000000000000000000000000000000000000000000100046959a000003a012e76
:0a556500668000000000000a00004c
:20556f0080000000000000000000000000000000000000000000003db080000800c93240ec
:09558f003c0050036cea0090019d
:205598004000000000000000000000000000000000000000000000414951a000003c610497
:0a55b800e000050138ff8000001438
:2055c2000000000000000000000000000000000000000000000000000510000000af5ac0eb
:0955e20000700000000000000050
:2055eb000000000000000000000000000000000000000000000000000080a000003a03bc87
:0a560b000000000000000000000095
:205615000000000000000000000000000000a00000000000000000000108000000000000cc
:095635000000040001dd08b000d2
:20563e000000000000000000000000000000040000000000000000000080100000000000b8
:0a565e0000000000043dd50000002c
:20566800800000000000000000000000000000000000000000002a810008000000000000ef
:0956880000000400037901000890
:20569100000000000000000000000000000000000000000000000aa85e0190000000000058
:0a56b100000000200045a01e00408c
:2056bb00000000000000000000000000000000000000000000003c00000000000000000093
:0956db000000000140107880007d
:2056e400000000000000000000000000000000000000000000000c3c5a0000000000000004
:0a570400000000001407ef80000011
:20570e00000200000000000000000000000000000000000000003c0000000000000000003d
:09572e0000000000000001e00091
:20573700000000000000000000000000000000000000000000000c3c5e00000000000000ac
:0a575700000000000000000b00003d
:20576100000000000000000000000000000000000000000000003c010000080000000000e3
:095781000000000000001000808f
:20578a00000030000000000000000000000000000000000000000c3c4a01800000000000bc
:0a57aa0000000000000000000800ed
:2057b400000000000000000000000000000000000000000000003c01010000000000000097
:0957d400000000000000000000cc
:2057dd00000000000000000000000000000000000000000000000c3c4a99c00000000000c1
:0a57fd00000000000000078000001b
:20580700800000000000000000000000000000000000000000003c000000001400000000b1
:0958270000000200000c00a000ca
:20583000000000000000000000000000000000000000000000000c3c4e00001500000000ad
:0a58500000000010100dc00101401f
:20585a00000200000000000000000000000000000000000080083c00000000000000000068
:09587a000000000001ed900000a7
:20588300000000000000000000000000000000000000000000000c3c4e000000000000006f
:0a58a30000000000040ff700800071
:2058ad00000000000000000000000000000000000000000000003c01000800000000000096
:0958cd002800000103ecb1000009
:2058d600000000000000000000000000000000000000000000000c3c5e18100000000001e3
:0a58f60062800000a014180e0000ec
:20590000000000000000000000000000000000000000000000003c0100080000000000142e
:09592000280000000819700000c5
:20592900000000000000000000000000000000000000000000000c3c5a019000000000002b
:0a59490002800010204d80000000d5
:20595300000000000000000000000000000000000000000000003c000000000000000014e4
:0959730000000000000991900001
:20597c00000000000000000000000000000000000000000000000c3c5a0008000000000061
:0a599c00000000100047c8180000ca
:2059a600000200000000000000000000000000000000000000003c000000000000000000a3
:0959c600007000000028f0000050
:2059cf00000000000000000000000000000000000000000000000c3c5e0000000000000111
:0a59ef0040000010040c87180000af
:2059f900000000000000000000000000000000000000000000003c010100000000007bc015
:095a190000000222841f7000004d
:205a2200000030000000000000000000000000000000000000000c3c4a818000010107b8e0
:0a5a420008000014289fb180000046
:205a4c00000000000000000000000000000000000000000000003c010100000000000000fc
:095a6c000000000014100000000d
:205a7500800000000000000000000000000000000000000000000c3c4a98e0000000000087
:0a5a950000000000014ee18ea00c9d
:205a9f00000000000000000000000000000000000000000500003c00000000140000000092
:095abf0000000000437801a00181
:205ac800400000000000000000000000000000000000000000000c3c4e00000100000000e7
:0a5ae80000000000002dd50a001098
:205af200000200000000000000000000000000000000000000083c00000000001000bb8003
:095b1200000000000000189000e2
:205b1b00000000000000000000000000000000000000000000000c3c4e00000000010b7c4c
:0a5b3b000000000000000308000055
:205b4500000000000000000000000000000000000000000000003c01000800000000971450
:095b6500280000038c2f08000049
:205b6e00000000000000000000000000000000000000000000000c3c5e18100000010b330a
:0a5b8e006680001030dee700000022
:205b9800000000000000000000000000000000000000000000003c010008000000003f94d5
:095bb8002800000204591000004d
:205bc100000000000000000000000000000000000000000000000c3c5a01900000010fb5cc
:0a5be100428040002006d0180000aa
:205beb00000000000000000000000000000000000000000000003c000000000110a5035451
:095c0b00280000000000700100f7
:205c1400000000000000000000000000000000000000000000000c3c5a0000001800002591
:0a5c3400c2c000000000081a0000c2
:205c3e00000200000000000000000000000000000000000000003c000000000000000014f4
:095c5e0028000000280d18800048
:205c6700000000000000000000000000000000000000000000000c3c5e0000000000000374
:0a5c870066c00000015619800010ed
:205c9100000000000000000000000000000000000000000000003c010100000000003f80f6
:095cb10000000203d42000b01031
:205cba00000030000000000000000000000000000000000000000c3c4a81800000010bbc3f
:0a5cda0000000000bd5480011c8092
:205ce400000000000000000000000000000000000000000000003c0101000000000077c02b
:095d0400400002010acc01e0009c
:205d0d00040000000000000000000000000000000000000000000c3c4a9800000001073c04
:0a5d2d000201000491d5c19e0000a0
:205d3700800000000000000000000000000000000000000000003c00000000100018120254
:095d570040405001001dd0e001a4
:205d6000400000000000000000000000000000020000000000000c3c4e00000100242024e2
:0a5d8000660004100006881a0010e7
:205d8a00000200000000000000000000000000000000000080083c0000080000000000002b
:095daa00280008a03c00f0800074
:205db300040000000000000000000000000000000000000000000c3c4e0000000000000036
:0a5dd3000640000303c408010000ad
:025ddd000000c4
:035ddf0062003f20
:035de200720080cc
:025de5001100ab
:035de70082000037
:025dea000103b3
:085dec000000000000000000af
:085df4000000000000000000a7
:085dfc0000000000000000009f
:085e0400000000000000000096
:0261ec000000b1
:0361ee00820080ac
:0261f1000103a8
:0861f3000000000000000000a4
:0861fb0000000000000000009c
:08620300000000000000000093
:08620b0000000000000000008b
:0265f3000000a6
:0265f500110192
:0365f7008200001f
:0265fa0001039b
:0865fc00000000000000000097
:0866040000000000000000008e
:08660c00000000000000000086
:0866140000000000000000007e
:0269fc00000099
:0369fe0082008094
:026a010001038f
:086a030000000000000000008b
:086a0b00000000000000000083
:086a130000000000000000007b
:086a1b00000000000000000073
:026e030000008d
:026e0500110278
:036e070082000006
:026e0a00010382
:086e0c0000000000000000007e
:086e1400000000000000000076
:086e1c0000000000000000006e
:086e2400000000000000000066
:02720c00000080
:03720e008200807b
:02721100010377
:08721300000000000000000073
:08721b0000000000000000006b
:08722300000000000000000063
:08722b0000000000000000005b
:02761300000075
:0276150011035f
:03761700820000ee
:02761a0001036a
:08761c00000000000000000066
:0876240000000000000000005e
:08762c00000000000000000056
:0876340000000000000000004e
:027a1c00000068
:037a1e0082008063
:027a210001035f
:087a230000000000000000005b
:087a2b00000000000000000053
:087a330000000000000000004b
:087a3b00000000000000000043
:027e230000005d
:017e2500223a
:027e26009cba04
:027e2800010651
:00000001FF
