:02000000ff00ff
:080002004c6174746963650030
:17000a00694345637562653220323032302e31322e32373934330071
:15002100506172743a2069434534304c50314b2d514e38340034
:1a003600446174653a20446563203520323032312031353a33333a353300ca
:0200500000ffaf
:040052007eaa997e6b
:02005600510057
:020058000105a0
:03005a00920020f1
:03005d0062014bf2
:030060007200909b
:0300630082000018
:02006600110087
:02006800010194
:20006a00000000000000000000000000000000000000000000000000000000000000000076
:09008a000000000000000000006d
:2000930000000000000000000000000000000000000000000000000000000000000000004d
:0a00b3000000000000000000000043
:2000bd00000000000000000000000000000000000000000000000000000000000000000023
:0900dd000000000000000000001a
:2000e6000000000000000000000000000000000000000000000000000000000000000000fa
:0a01060000000000000000000000ef
:200110000000000000000000000000000000000000000000000000000000000000000000cf
:09013000000000000000000000c6
:200139000000000000000000000000000000000000000000000000000000000000000000a6
:0a015900000000000000000000009c
:200163000000000000040000000000001000000000000040000000001000000000000040d8
:0901830000000000000100000072
:20018c00000000000000000000000000000000000000000000000000000000000000000053
:0a01ac000000000000000000000049
:2001b600000000000004000000000000100000000000004000000000100000000000004085
:0901d6000000000000010000001f
:2001df00000000000000000000000000000000000000000000000000000000000000000000
:0a01ff0000000000000000000000f6
:200209000000000000000000000000000000000000000000000000000000000000000000d5
:09022900000000000000000000cc
:200232000000000000000000000000000000000000000000000000000000000000000000ac
:0a02520000000000000000000000a2
:20025c00000000000000000000000000000000000000000000000000000000000000000082
:09027c0000000000000000000079
:20028500000000000000000000000000000000000000000000000000000000000000000059
:0a02a500000000000000000000004f
:2002af0000000000000000000000000000000000000000000000000000000000000000002f
:0902cf0000000000000000000026
:2002d800000000000000000000000000000000000000000000000000000000000000000006
:0a02f80000000000000000000000fc
:200302000000000000000000000000000000000000000000000000000000000000000000db
:09032200000000000000000000d2
:20032b00000000000000000000000000000000000040000000000000000000000000000072
:0a034b0000000000000000000000a8
:20035500000000000000000000000000000000000000000000000000000000000000000088
:090375000000000000000000007f
:20037e0000000000000000000000000000000000000000000000000000000000000000005f
:0a039e000000000000000000000055
:2003a800000000000000000000000000000000000000000000000000000000000000000035
:0903c8000000000000000000002c
:2003d10000000000000000000000000000000000000000000000000000000000000000000c
:0a03f1000000000000000000000002
:2003fb000002000000000000000000000000000000000000000000000000000000000000e0
:09041b00000000000000000000d8
:200424000000000000000000000000000000000000000000000000000000000000000000b8
:0a04440000000000000000000000ae
:20044e0000000000000000000000000000000000000000000000000000000000000000008e
:09046e0000000000000000000085
:20047700000020000000000000000000000000000000000000000000000000000000000045
:0a049700000000000000000000005b
:2004a10000000000000000000000000000000000000000000000000000000000000000003b
:0904c10000000000000000000032
:2004ca00000000000000000000000000000000000000000000000000000000000000000012
:0a04ea000000000000000000000008
:2004f4000000000000000000000000000000000000000000000000000000000000000000e8
:09051400000000000000000000de
:20051d000000000000000000000000000000000000000000000000000000000000000000be
:0a053d0000000000000000000000b4
:20054700000000000000000000000000000000000000000000000000000000000000000094
:090567000000000000000000008b
:2005700000000000000000000000000000000000000000000000000000000000000000006b
:0a0590000000000000000000000061
:20059a00400000000000000000000000000000000000000000000000000000000000000001
:0905ba0000000000000000000038
:2005c3000000200000000000000000000000000000000000000000000000000000000000f8
:0a05e300000000000000000000000e
:2005ed000004000000000000000000000000000000000000000000000000000000000000ea
:09060d00000000000000000000e4
:200616000803c00000000000000000000000000000000000000000000000000000000000f9
:0a06360000000000000000000000ba
:2006400040000000000000000000000000000000000000000000000000000000000000005a
:0906600000000000000000000091
:2006690000c0000000000000000000000000000000000000000000000000000000000000b1
:0a0689000000000000000000000067
:200693000002000000000000000000000000000000000000000000000000000003800000c2
:0906b3000000000000000000003e
:2006bc0000000000000000000000000000000000000000000000000000000000000000001e
:0a06dc000000000000000000000014
:2006e6000000000000000000000000000000000000000000000000000000000000000000f4
:09070600000000000000000000ea
:20070f000000200000000000000000000000000000000000000000000000000000000000aa
:0a072f0000000000000000000000c0
:20073900000000180000000000000000000000000000000000000000000000000000000088
:0907590000000000000000000097
:20076200000000000000000000000000000000000000000000000000000000000000000077
:0a078200000000000000000000006d
:20078c0000000000000000000000000000000000000000000000000000000000000000004d
:0907ac0000000000000000000044
:2007b500000000000000000000000000000000000000000000000000000000000000000024
:0a07d500000000000000000000001a
:2007df000000000000000000000000000000000000000000000000000000000000000000fa
:0907ff00000000000000000000f1
:200808000000000000000000000000000000000000000000000000000000000000000000d0
:0a08280000000000000000000000c6
:200832000000000000000000000000000000000000000000000000000000000000000000a6
:090852000000000000000000009d
:20085b0000000000000000000000000000000000004000000000000000000000000000003d
:0a087b000000000000000000000073
:20088500000000000000000000000000000000000000000000000000000000000000000053
:0908a5000000000000000000004a
:2008ae0000000000000000000000000000000000000000000000000000000000000000002a
:0a08ce000000000000000000000020
:2008d800000000000000000000000000000000000000000000000000000000000000000000
:0908f800000000000000000000f7
:200901000000000000000000000000000000000000000000000000000000000000000000d6
:0a09210000000000000000000000cc
:20092b000002000000000000000000000000000000000000000000000000000000000000aa
:09094b00000000000000000000a3
:20095400000000000000000000000000000000000000000000000000000000000000000083
:0a0974000000000000000000000079
:20097e00000000000000000000000000000000000000000000000000000000000000000059
:09099e0000000000000000000050
:2009a700000020000000000000000000000000000000000000000000000000000000000010
:0a09c7000000000000000000000026
:2009d100000000000000000000000000000000000000000000000000000000000000000006
:0909f100000000000000000000fd
:2009fa000000000000000000000000000000000000000000000000000000000000000000dd
:0a0a1a0000000000000000000000d2
:200a24000000000000000000000000000000000000000000000000000000000000000000b2
:090a4400000000000000000000a9
:200a4d00000000000000000000000000000000000000000000000000000000000000000089
:0a0a6d00000000000000000000007f
:200a770000000000000000000000000000000000000000000000000000000000000000005f
:090a970000000000000000000056
:200aa000000000000000000000000000000000000000000000000000000000000000000036
:0a0ac000000000000000000000002c
:200aca0000000000000000000000000000000000000000000000000000000000000000000c
:090aea0000000000000000000003
:200af3000000000000000000000000000000000000000000000000000000000000000000e3
:0a0b130000000000000000000000d8
:200b1d000000000000000000000000000000000000000000000000000000000000000000b8
:090b3d00000000000000000000af
:200b460000000000000000000000000000000000000000000000000000000000000000008f
:0a0b66000000000000000000000085
:200b7000000000000000000000000000000000000000000000000000000000000000000065
:090b90000000000000000000005c
:200b990000000000000000000000000000000000000000000000000000000000000000003c
:0a0bb9000000000000000000000032
:200bc300000200000000000000000000000000000000000000000000000000000000000010
:090be30000000000000000000009
:200bec000000000000000000000000000000000000000000000000000000000000000000e9
:0a0c0c0000000000000000000000de
:200c16000000000000000000000000000000000000000000000000000000000000000000be
:090c3600000000000000000000b5
:200c3f00000020000000000000000000000000000000000000000000000000000000000075
:0a0c5f00000000000000000000008b
:200c690000000000000000000000000000000000000000000000000000000000000000006b
:090c890000000000000000000062
:200c9200000000000000000000000000000000000000000000000000000000000000000042
:0a0cb2000000000000000000000038
:200cbc00000000000000000000000000000000000000000000000000000000000000000018
:090cdc000000000000000000000f
:200ce5000000000000000000000000000000000000000000000000000000000000000000ef
:0a0d050000000000000000000000e4
:200d0f000000000000000000000000000000000000000000000000000000000000000000c4
:090d2f00000000000000000000bb
:200d380000000000000000000000000000000000000000000000000000000000000000009b
:0a0d58000000000000000000000091
:200d6200000000000000000000000000000000000000000000000000000000000000000071
:090d820000000000000000000068
:200d8b00000000000000000000000000000000000040000000000000000000000000000008
:0a0dab00000000000000000000003e
:200db50000000000000000000000000000000000000000000000000000000000000000001e
:090dd50000000000000000000015
:200dde000000000000000000000000000000000000000000000000000000000000000000f5
:0a0dfe0000000000000000000000eb
:200e08000000000000000000000000000000000000000000000000000000000000000000ca
:090e2800000000000000000000c1
:200e31000000000000000000000000000000000000000000000000000000000000000000a1
:0a0e51000000000000000000000097
:200e5b00000200000000000000000000000000000000000000000000000000000000000075
:090e7b000000000000000000006e
:200e840000000000000000000002000000000000000000000000000000000000000000004c
:0a0ea4000000000000000000000044
:200eae00000000000000000000000000000000000000000000000000000000000000000024
:090ece000000000000000000001b
:200ed7000000200000000000000200000000000000000000000000000000000000000000d9
:0a0ef70000000000000000000000f1
:200f0100000000000000000000000000000000000000000000000000000000000000400090
:090f2100000000000000000000c7
:200f2a000000000000000000000000000000000000000000000000000000000000000000a7
:0a0f4a00000000000000000000009d
:200f540000000000000000000000000000000000000000000000000000000000000000007d
:090f740000000000000000000074
:200f7d00000000000000000000000000000000000000000000000000000000000000000054
:0a0f9d00000000000000000000004a
:200fa70000000000000000000000000000000000000000000000000000000000000000002a
:090fc70000000000000000000021
:200fd000000000000000000000000000000000000000000000000000000000000000000001
:0a0ff00000000000000000000000f7
:200ffa000000000000000000000000000000000000000000000000000000000000000000d7
:09101a00000000000000000000cd
:201023000000000000000000000000000000000000000000000000000000000000000000ad
:0a10430000000000000000000000a3
:20104d00000000000000000000000000000000000000000000000000000000000000000083
:09106d000000000000000000007a
:2010760000000000000000000000000000000000000000000000000000000000000000005a
:0a1096000000000000000000000050
:2010a000000000000000000000000000000000000000000000000000000000000000000030
:0910c00000000000000000000027
:2010c900000000000000000000000000000000000000000000000000000000000000000007
:0a10e90000000000000000000000fd
:2010f3000002000000000000000000000000000000000000000000000000000000000000db
:09111300000000000000000000d3
:20111c000000000000000000000000000000000000000000000000000000000000000000b3
:0a113c0000000000000000000000a9
:20114600000000000000000000000000000000000000000000000000000000000000000089
:0911660000000000000000000080
:20116f00000020000000000000000000000000000000000000000000000000000000000040
:0a118f000000000000000000000056
:20119900000000000000000000000000000000000000000000000000000000000000000036
:0911b9000000000000000000002d
:2011c20000000000000000000000000000000000000000000000000000000000000000000d
:0a11e2000000000000000000000003
:2011ec000000000000000000000000000000000000000000000000000000000000000000e3
:09120c00000000000000000000d9
:201215000000000000000000000000000000000000000000000000000000000000000000b9
:0a12350000000000000000000000af
:20123f0000000000000000000000000000000000000000000000000000000000000000008f
:09125f0000000000000000000086
:20126800000000000000000000000000000000000000000000000000000000000000000066
:0a128800000000000000000000005c
:2012920000000000000000000000000000000000000000000000000000000000000000003c
:0912b20000000000000000000033
:2012bb000000000000000000000000000000000000400000000000000000000000000000d3
:0a12db000000000000000000000009
:2012e5000000000000000000000000000000000000000000000000000000000000000000e9
:09130500000000000000000000df
:20130e000000000000000000000000000000000000000000000000000000000000000000bf
:0a132e0000000000000000000000b5
:20133800000000000000000000000000000000000000000000000000000000000000000095
:091358000000000000000000008c
:2013610000000000000000000000000000000000000000000000000000000000000000006c
:0a1381000000000000000000000062
:20138b00000200000000000000000000000000000000000000000000000000000000000040
:0913ab0000000000000000000039
:2013b400000000000000000000000000000000000000000000000000000000000000000019
:0a13d400000000000000000000000f
:2013de000000000000000000000000000000000000000000000000000000000000000000ef
:0913fe00000000000000000000e6
:201407000000200000000000000000000000000000000000000000000000000000000000a5
:0a14270000000000000000000000bb
:2014310000000000000000000000000000000000000000000000000000000000000000009b
:0914510000000000000000000092
:20145a00000000000000000000000000000000000000000000000000000000000000000072
:0a147a000000000000000000000068
:20148400000000000000000000000000000000000000000000000000000000000000000048
:0914a4000000000000000000003f
:2014ad0000000000000000000000000000000000000000000000000000000000000000001f
:0a14cd000000000000000000000015
:2014d7000000000000000000000000000000000000000000000000000000000000000000f5
:0914f700000000000000000000ec
:201500000000000000000000000000000000000000000000000000000000000000000000cb
:0a15200000000000000000000000c1
:20152a0000000000000000000000000600000000000000000000000000000000000000009b
:09154a0000000000000000000098
:20155300000000000000000000000000000000000000000000000000000000000000000078
:0a157300000000000000000000006e
:20157d000000000000000000006000000000000000000000000000000000000000000000ee
:09159d0000000000000000000045
:2015a600000000000000000000000000000000000000000000000000000000000000000025
:0a15c600000000000000000000001b
:2015d0000000000000000000004000000000000000000000000000000000000000000000bb
:0915f000000000000000000000f2
:2015f9000000000000000000000800000000000000000000000000000000000000000000ca
:0a16190000000000000000000000c7
:201623000002000000000000000000000005a40000000000000000000000000000000000fc
:091643000000000000000000009e
:20164c000000000000000000000000000240a5000000000000000000000000000000000097
:0a166c000000000000000000000074
:20167600000000000000000000000000000000000000000000000000000000000000000054
:091696000000000000000000004b
:20169f0000002000000000000000000000000000000000000000000000000000000000000b
:0a16bf000000000000000000000021
:2016c900000000000000000000000000000000000000000000000000000000000000000001
:0916e900000000000000000000f8
:2016f2000000000000000000000000000000000000000000000000000000000000000000d8
:0a17120000000000000000000000cd
:20171c0000000000000000000000000005e96400000000000000000000000000000000005b
:09173c00000000000000000000a4
:201745000000000000000000000000000030960000000000000000000000000000000000be
:0a176500000000000000000000007a
:20176f0000000000000000000000000040000000000000000000000000000000000000001a
:09178f0000000000000000000051
:20179800000000000000000000000000200000000000000000000000000000000000000011
:0a17b8000000000000000000000027
:0217c200000025
:0217c400110111
:0217c60001011f
:2017c800000000000000000000000000000000000000000000000000000000000000000001
:0917e800000000000000000000f8
:2017f1000000000000000000000000000000000000000000000000000000000000000000d8
:0a18110000000000000000000000cd
:20181b000000000000000000000000000000000000000000000000000000000000000000ad
:09183b00000000000000000000a4
:20184400000000000000000000000000000000000000000000000000000000000000000084
:0a186400000000000000000000007a
:20186e0000000000000000000000000000000000000000000000000000000000000000005a
:09188e0000000000000000000051
:20189700000000000000000000000000000000000000000000000000000000000000000031
:0a18b7000000000000000000000027
:2018c100000000000004000000000000100000000000004000000000100000000000004063
:0918e100000000000001000000fd
:2018ea000000000000000000000000000000000000000000000000000000000000000000de
:0a190a0000000000000000000000d3
:2019140000000000000400000000000010000000000000400000000010000000000000400f
:09193400000000000001000000a9
:20193d0000000000000000000000000000000000000000000000000000000000000000008a
:0a195d000000000000000000000080
:20196700000000000000000000000000000000000000000000000000000000000000000060
:0919870000000000000000000057
:20199000000000000000000000000000000000000000000000000000000000000000000037
:0a19b000000000000000000000002d
:2019ba0000000000000000000000000000000000000000000000000000000000000000000d
:0919da0000000000000000000004
:2019e3000000000000000000000000000000000000000000000000000000000000000000e4
:0a1a030000000000000000000000d9
:201a0d000000000000000000000000000000000000000000000000000000000000000000b9
:091a2d00000000000000000000b0
:201a3600000000000000000000000000000000000000000000000000000000000000000090
:0a1a56000000000000000000000086
:201a6000000000000000000000000000000000000000000000000000000000000005000061
:091a800000000000042000000039
:201a8900000000000000000000000000000000000000000000000000000000000000d80065
:0a1aa90000000000020040000000f1
:201ab300000000000000000000000000000000000000000000000000000000000000000013
:091ad30000000000040020550091
:201adc000000000000000000000000000000000000000000000000000000000000000000ea
:0a1afc000000000002601e85540087
:201b06000000000000000000000000000000000000000000000000000000000000000a00b5
:091b2600000000000000000f00a7
:201b2f00000000000000000000000000000000000000000000000000000000000000001086
:0a1b4f00000000000000168f0c00db
:201b590000020000000000000000000000000000000000000000000000000000000000006a
:091b7900000000000000000f0054
:201b820000000000000000000000000000000000000000000000000000000000000001a0a2
:0a1ba2000000000000001e8f0c0080
:201bac00000000000000000000000000000000000000000000000000000000000000000019
:091bcc00000000000000200f00e1
:201bd5000000200000000000000000000000000000000000000000000000000000000000d0
:0a1bf500000000000060148f0c00d7
:201bff0000000000000000000000000000000000000000000000000000000000000000774f
:091c1f00400000000020200f002d
:201c2800000000000000000000000000000000000000000000000000000000000000000f8d
:0a1c4800b42020400006548f0c0069
:201c5200000000000000000000000000000000000000000000000000000000000000000072
:091c7200000000000000000f005a
:201c7b00000000000000000000000000000000000000000000000000000000000000000049
:0a1c9b000000006000001c8f0c0028
:201ca50000000000000000000000000000000000000000000000000000000000000000001f
:091cc500000000000000000f0403
:201cce000000000000000000000000000000000000000000000000000000000000000000f6
:0a1cee000000000000001c8f0c0035
:201cf8000000000000000000000000000000000000000000000000000000000000000a00c2
:091d1800000000000400200f008f
:201d2100000000000000000000000000000000000000000000000000000000000000001092
:0a1d41000000000002061e8f0c00d7
:201d4b0000000000000000000000000000000000080000000000000000000000000500006b
:091d6b00000000000400200f003c
:201d740000000000000000000000000000000000010000000000000000000000000051a05d
:0a1d9400000000000260168f0c0032
:201d9e00000000000000000000000000000000000000000000000000000000000005000020
:091dbe00000000000000000f000d
:201dc700000000000000000000000000000000000000000000000000000000000000d9a083
:0a1de700000000000000168f0c0041
:201df1000002000000000000000000000000000000000000000000000000000000000a00c6
:091e1100000000000000000f00b9
:201e1a000000000000000000000000000000000000000000000000000000000000000000a8
:0a1e3a000000000000001e8f0c00e5
:201e4400000000000000000000000000000000000000000000000000000000000000003747
:091e6400c00000000020200f0066
:201e6d00000020000000000000000000000000000000000000000000000000000000000b2a
:0a1e8d00bc2020000060548f0c0000
:201e970000000000000000000000000000000000000000000000000000000000000000002b
:091eb700000000000020200f00d3
:201ec000000000000000000000000000000000000000000000000000000000000000000002
:0a1ee000000000400006548f0c00c3
:201eea000000000000000000000000000000000000000000000000000000000000000000d8
:091f0a00000000000000000f00bf
:201f13000000000000000000000000000000000000000000000000000000000000000000ae
:0a1f33000000006000001c8f0c008d
:201f3d000000000000000000000000000000000004400000000000000000000000000077c9
:091f5d00400200000000000f0426
:201f6600000000000000000000000000000000000002000000000000000000000000000752
:0a1f86007020000000001c8f0c000a
:201f900000000000000000000000000004d63018000000000000000000000000000500000a
:091fb000000000000400200f00f5
:201fb900000000000000000000000000004bc3400000000000000000000000000000d9a041
:0a1fd9000000000002061e8f0c003d
:201fe3000000000000000000000000000000000000000000000000000000000000050a7758
:09200300400000000400200f0061
:20200c00000000000000000000000000000000000000000000000000000000000000d807d5
:0a202c00602000000260168f0c0017
:202036000000000000000000000000000000000000000000000000000000000000000a0080
:09205600000000000000000f0072
:20205f000000000000000000000000006000000000000000000000000000000000000010f1
:0a207f00000000000000168f0c00a6
:202089000002000000000000000000000000000000000000000000000000000000050a77af
:0920a900400000000000000f00df
:2020b20000000000000000000000000000000000000000000000000000000000000051bffe
:0a20d200b420000000001e8f0c0077
:2020dc00000000000000000000000000000000000000000000000000000000000005005689
:0920fc00c40000000020200f00c8
:2021050000002000000000000000000000000000000000000000000000000000000050ad9d
:0a212500680000000060548f0c00f9
:20212f000000000000000000000000200000000000000000000000000000000000008a5690
:09214f00000000000020200f0038
:2021580000000000000000000000001c00000000000000000000000000000000000018092a
:0a217800220000400006548f0c0006
:202182000000000000000000000000000000000000000000000000000000000000001037f6
:0921a200c00000000000000f0065
:2021ab0000000000000000000006000000000000000000000000000000000000000001838a
:0a21cb007820006020001c8f0c003b
:2021d500000000000000000000000140000000000000000000000000000f00400005000055
:0921f500000000000000000f04ce
:2021fe000000000000000000000000040000000000000000000000000008f000400050a095
:0a221e000000000000001c8f0c00ff
:202228000000000000000000000000000000000000000000000000028000000000050af80d
:0922480003c000000000200f009b
:2022510000000000000000000000000000000000000000000000000001c000800000981d77
:0a227100b001000000061e8f0c00f3
:20227b00000000000000000000000000000000000000000000000262800000000000080057
:09229b0000000000000020f0002a
:2022a40000000000000000000000000000000000000000000000000429c00080000000109d
:0a22c400000000000060068f080013
:2022ce0000000000000000000000000000000000000000000000014002000000000000b0fd
:0922ee0003c00000000000f00034
:2022f700000000000000000000000000000000000000000000000000006000800000580788
:0a231700b00100000000068f08006e
:2023210000020000000000000020000000000000000000000000000000000000800d0a30b3
:0923410001400200000000f00060
:20234a0000000000000000000000000000000000000000000000001400c00080000001b36b
:0a236a00e94100000000148f080094
:2023740000000000000000000000000000000000000000000000000000000000000100f850
:0923940003c00000000000f0008d
:20239d0000002000000000000000000000000000000000000000000000e00080000081859a
:0a23bd00300100000160168f0800d7
:2023c7000000000000000000000000000000000000000000000000000200000000010004ef
:0923e70003c00000140000f00026
:2023f00000000000000000000000000000000000000000000000000001e00080100081805b
:0a241000383d00400200048f080070
:20241a00000000000000000000000000000000000000000000000002420000000000001846
:09243a0003c000001400000f00b3
:2024430000000000000000000000000000000000000000000000000001c00080180000031d
:0a2463003001006002069c8f0c009f
:20246d00000000000000000000000000000f00440400000000000000020000208000003026
:09248d00014002000028290000b2
:202496000000000000000000000000000008f008000000000000000001c0008000001807c6
:0a24b600a94100000166c4000800ff
:2024c0000000000010800000000000000080000000000000000000420000000000100f008b
:0924e000000000000000000000f3
:2024e900000000000801000000000000000000800000000000000020040000000000001016
:0a2509000000000001400000000087
:20251300000000001000815400000400008000000000000000000040020550000000800028
:092533000000000000000000009f
:20253c000000000009807a155040000000000080000000000000002601e855400000700043
:0a255c000000000000000000000075
:20256600000000000000003c000000000090000000000000000000000000f0000001000098
:092586000000000000000000004c
:20258f000000000000005a3c301000000001008000000000000000000168f0c0000090002c
:0a25af000000000000000000000022
:2025b900000208000000003c002000000080000000000000002000000000f0008005003057
:0925d90036800000000000000043
:2025e2000000000000007a3c3000000000010080000000000000000001e8f0c00000f00bde
:0a26020070950a00000000000000bf
:20260c00000008000000803c002000000090000000000000000000000200f00080000af0ce
:09262c00000000000000000000a5
:20263500000020000180523c300000000000008000000000000000060148f0c00000581f30
:0a265500314000000000000000000a
:20265f00000020000080803c0000000000b0000000000000000000020200f000000000005b
:09267f0000000000000000000052
:20268800000001000019523c3000000e7000008000000000000000006548f0c000000000ff
:0a26a8000000000000000000000028
:2026b200000000000000003c00000143c000000003000000000000000000f000000500923e
:0926d200c000000000000003003c
:2026db00000001800000723c300000002d400080000000000006000001c8f0c0180080017b
:0a26fb00ec200000000001e0302890
:20270500000000000000003c100001400090002000000000000000000000f0400000000047
:0927250000000000000000f00dae
:20272e00400000000000723c3000001428010080000000000000000001c8f0c0000001a096
:0a274e00000000000000008f0000f2
:20275800000000001000803c000002436680000000000000000000400200f000000099009f
:092778000000000000000c00004c
:202781000000000008187a3c3000002004790800000000000000002061e8f0c000001990cb
:0a27a1000000000000000000080026
:2027ab00000000001000803c00000026c000000000000000000000400200f00000008b009f
:0927cb000000000024400b000096
:2027d4000000000009805a3c300000146000000000000000000000260168f0c00000500093
:0a27f40000000000020600000800cb
:2027fe00000000000000003c000003664000000000000000000000000000f00000090000dd
:09281e000000000000000a0000a7
:202827000000000000005a3c300000066400000000000000000000000168f0c000008000c8
:0a284700000000000000000008007f
:20285100000200000000003c0000034407a0000000000000000000000000f000000d103fef
:092871008000000002240a0000ae
:20287a000000000000007a3c30000000295c0800000000000000000001e8f0c00000018ba6
:0a289a007c2000000140400008000f
:2028a400000000000080803c000000000fe0000000000000000000020200f00000000a9358
:0928c400c000000014000a00002d
:2028cd00000020000181523c300000007bdd080000000000000000060548f0c00000581bb5
:0a28ed00382000000200001008006f
:2028f700000020000080803c000000028000000000000000000000020200f00000050000ea
:092917000000000014000f000094
:20292000000001000019523c300000160400000000000000000000006548f0c000008000c8
:0a294000000000000366800008009c
:20294a00000000000000003c00000142adf0000000000000000000000000f0000005001e3e
:09296a008000000000000e0000d6
:20297300000001800000723c300000366cfb0800000000000006000001c8f0c0000081a799
:0a299300a020000000000000080072
:20299d00000000010000003c100001400fe0000004000000000000000000f04000000a1e41
:0929bd008000000000000d000282
:2029c600000000000000723c30000020686e0800000000000000000001c8f0c0000059b98a
:0a29e6006c20000000000000080053
:2029f000000000001000803c000000260f00500000000000000000400200f0000000891e9d
:092a10004000400000000000003d
:202a19000000000008187a3c3000000666fa5040000000000000002061e8f0c00000181957
:0a2a3900aa000000000000000000e9
:202a4300000000001000803c000000001e00f00000000000000000400200f00000098013cb
:092a6300424000000000000000e8
:202a6c000000000009805a3c3000000003fc005000000000000000260168f0c0000018084d
:0a2a8c003c190000000000000000eb
:202a9600000000000000003c000000224000000000000000000000000000f000000918036e
:092ab60085000000000000000092
:202abf000000000000005a3c3000000e0400000000000000000000000168f0c000008195f0
:0a2adf00b8510000000000000000e4
:202ae900000200000000003c000000000000000000000000000000000000f0000000190086
:092b09002bc000000000000000d8
:202b12000000000000007a3c3000000000000000000000000000000001e8f0c00000199774
:0a2b32006abd000000000000000072
:202b3c00000000000080803c000000000f00500000000000000000020200f000000100ba2f
:092b5c00800000000000000000f0
:202b6500000020000181523c3000000063ea504000000000000000060548f0c0000098096f
:0a2b850028200000000000000000fe
:202b8f00000020000080803c008000000000000000000000000000020200f000000500b29f
:092baf00a000000000000000007d
:202bb800000001000019523c300400006000000000000000000000006548f0c00000d8cdbf
:0a2bd800b40000000000000000003f
:202be200000000000000003c000000000000000000000000000000000000f00000010a3765
:092c02008a00000000000000003f
:202c0b00000001800000723c3006000000000000000000000006000001c8f0c01800d000dd
:0a2c2b00305100000000000000001e
:202c3500000000000000003c100000000000000000000000000000000000f04000000a3fba
:092c5500800000000000000000f6
:202c5e00000000000000723c3000000000000000000000000000000001c8f0c0000000bb44
:0a2c7e007c200000000000000000b0
:202c880000000000000083c0000000000000000000000000000001400200f00000000800ae
:092ca80000000000000000000023
:202cb100000000000000723c2000000000000000000000000000001461e8f0c000007810a0
:0a2cd10000000000000000000000f9
:202cdb0000000000008083c0000003400000000000000000000000000200f0000000007c65
:092cfb000140000000000000008f
:202d040000000000000b3a3c200000000000000000000000000006000168f0c00000000de2
:0a2d240079412000000000000000cb
:202d2e000000000000a083c0000000000000000000000000000000028000f00000000050e0
:092d4e0003c000000000000000b9
:202d570000000000000a3a3c200000000000000000000000000000000168f0c0000000059e
:0a2d7700f801201000000000000029
:202d810000020000000083c000000022c000000000000000000000000000f000000000001b
:092da10000000000000000000029
:202daa00000000000000523c240000140000000000000000000000140168f0c00000000016
:0a2dca0000000000000000000000ff
:202dd40000000000009003c0800000069fc0001000000000000000420200f00000000094cf
:092df40002800000000000000054
:202dfd000000000000011a3c20000000284c080000000000000000260548f0c00000180f79
:0a2e1d00a941400000000000000081
:202e27002000200001c0803c0000000037b000100000000000000000000f000200030f00b4
:092e470000000000000000000082
:202e5000020301000018723c3000000029694000000000000000000060c8f080100001806b
:0a2e70000000000000000000000058
:202e7a008000000030b083c000000000000000000000000000000000000f00000000100076
:092e9a00000000400000000000ef
:202ea3000000018000011a3c2800000000000000000000000006000001e8f080180001e0b7
:0a2ec3000000000000000000000005
:202ecd00000200000000ac000000000680000000040000000000000000d00000005000008d
:092eed00000000000000000000dc
:202ef6002000000000005800200040002c000000000000000000000001e100800000000056
:0a2f160000000000000000000000b1
:022f20000000af
:022f220011029a
:022f24000101a9
:202f260000000000000000000000000000000000000000000000000000000000000000008b
:092f460000000000000000000082
:202f4f00000000000000000000000000000000000000000000000000000000000000000062
:0a2f6f000000000000000000000058
:202f7900000000000000000000000000000000000000000000000000000000000000000038
:092f99000000000000000000002f
:202fa20000000000000000000000000000000000000000000000000000000000000000000f
:0a2fc2000000000000000000000005
:202fcc000000000000000000000000000000000000000000000000000000000000000000e5
:092fec00000000000000000000dc
:202ff5000000000000000000000000000000000000000000000000000000000000000000bc
:0a30150000000000000000000000b1
:20301f000000000000080000000000002000000000080000000000002000000000000080c1
:09303f0000000000000200000086
:20304800000000000000000000000000000000000000000000000000000000000000000068
:0a306800000000000000000000005e
:2030720000000000000800000000000020000000000800000000000020000000000000806e
:0930920000000000000200000033
:20309b00000000000000000000000000000000000000000000000000000000000000000015
:0a30bb00000000000000000000000b
:2030c5000000000000000000000000000000000000000000000000000000000000000000eb
:0930e500000000000000000000e2
:2030ee000000000000000000000000000000000000000000000000000000000000000000c2
:0a310e0000000000000000000000b7
:20311800000000000000000000000000000000000000000000000000000000000000000097
:093138000000000000000000008e
:2031410000000000000000000000000000000000000000000000000000000000000000006e
:0a3161000000000000000000000064
:20316b00000000000000000000000000000000000000000000000000000000000000000044
:09318b000000000000000000003b
:2031940000000000000000000000000000000000000000000000000000000000000000001b
:0a31b4000000000000000000000011
:2031be000000000000000000000000000000000000000000000000000000000000000000f1
:0931de00000000000000000000e8
:2031e7000000000000000000000000000000000000000000080000000000000000000000c0
:0a32070000000000000000000000bd
:2032110000000000000000000000000000000000000000000000000000000000000000009d
:0932310000000000000000000094
:20323a00000000000000000000000000000000000000000000000000000000000000000074
:0a325a00000000000000000000006a
:2032640000000000000000000000000000000000000000000000000000000000000000004a
:0932840000000000000000000041
:20328d00000000000000000000000000000000000000000000000000000000000000000021
:0a32ad000000000000000000000017
:2032b7000002000000000000000000000000000000000000000000000000000000000000f5
:0932d700000000000000000000ee
:2032e0000000000000000000000000000000000000000000000000000000000000000000ce
:0a33000000000000000000000000c3
:20330a000000000000000000000000000000000000000000000000000000000000000000a3
:09332a000000000000000000009a
:2033330000002000000000000000000000000000000000000000000000000000000000005a
:0a3353000000000000000000000070
:20335d00000000000000000000000000000000000000000000000000000000000000000050
:09337d0000000000000000000047
:20338600000000000000000000000000000000000000000000000000000000000000000027
:0a33a600000000000000000000001d
:2033b0000000000000000000000000000000000000000000000000000000000000000000fd
:0933d000000000000000000000f4
:2033d9000000000000000000000000000000000000000000000000000000000000000000d4
:0a33f90000000000000000000000ca
:203403000000000000000000000000000000000000000000000000000000000000000000a9
:09342300000000000000000000a0
:20342c00000000000000000000000000000000000000000000000000000000000000000080
:0a344c000000000000000000000076
:20345600000000000000000000000000000000000000000000000000000000000000000056
:093476000000000000000000004d
:20347f0000000000000000000000000000000000000000000000000000000000000000002d
:0a349f000000000000000000000023
:2034a900000000000000000000000000000000000000000000000000000000000000000003
:0934c900000000000000000000fa
:2034d2000000000000000000000000000000000000000000000000000000000000000000da
:0a34f20000000000000000000000d0
:2034fc000000000000000000000000000000000000000000000000000000000000000000b0
:09351c00000000000000000000a6
:20352500000000000000000000000000000000000000000000000000000000000000000086
:0a354500000000000000000000007c
:20354f0000020000000000000000000000000000000000000000000000000000000000005a
:09356f0000000000000000000053
:20357800000000000000000000000000000000000000000000000000000000000000000033
:0a3598000000000000000000000029
:2035a200000000000000000000000000000000000000000000000000000000000000000009
:0935c20000000000000000000000
:2035cb000000200000000000000000000000000000000000000000000000000000000000c0
:0a35eb0000000000000000000000d6
:2035f5000000000000000000000000000000000000000000000000000000000000000000b6
:09361500000000000000000000ac
:20361e0000000000000000000000000000000000000000000000000000000000000000008c
:0a363e000000000000000000000082
:20364800000000000000000000000000000000000000000000000000000000000000000062
:0936680000000000000000000059
:20367100000000000000000000000000000000000000000000000000000000000000000039
:0a369100000000000000000000002f
:20369b0000000000000000000000000000000000000000000000000000000000000000000f
:0936bb0000000000000000000006
:2036c4000000000000000000000000000000000000000000000000000000000000000000e6
:0a36e40000000000000000000000dc
:2036ee000000000000000000000000000000000000000000000000000000000000000000bc
:09370e00000000000000000000b2
:2037170000000000000000000000000000000000000000000800000000000000000000008a
:0a3737000000000000000000000088
:20374100000000000000000000000000000000000000000000000000000000000000000068
:093761000000000000000000005f
:20376a0000000000000000000000000000000000000000000000000000000000000000003f
:0a378a000000000000000000000035
:20379400000000000000000000000000000000000000000000000000000000000000000015
:0937b4000000000000000000000c
:2037bd000000000000000000000000000000000000000000000000000000000000000000ec
:0a37dd0000000000000000000000e2
:2037e7000002000000000000000000000000000000000000000000000000000000000000c0
:09380700000000000000000000b8
:20381000000000000000000000000000000000000000000000000000000000000000000098
:0a383000000000000000000000008e
:20383a0000000000000000000000000000000000000000000000000000000000000000006e
:09385a0000000000000000000065
:20386300000020000000000000000000000000000000000000000000000000000000000025
:0a388300000000000000000000003b
:20388d0000000000000000000000000000000000000000000000000000000000000000001b
:0938ad0000000000000000000012
:2038b6000000000000000000000000000000000000000000000000000000000000000000f2
:0a38d60000000000000000000000e8
:2038e0000000000000000000000000000000000000000000000000000000000000000000c8
:09390000000000000000000000be
:2039090000000000000000000000000000000000000000000000000000000000000000009e
:0a3929000000000000000000000094
:20393300000000000000000000000000000000000000000000000000000000000000000074
:093953000000000000000000006b
:20395c0000000000000000000000000000000000000000000000000000000000000000004b
:0a397c000000000000000000000041
:20398600000000000000000000000000000000000000000000000000000000000000000021
:0939a60000000000000000000018
:2039af000000000000000000000000000000000000000000000000000000000000000000f8
:0a39cf0000000000000000000000ee
:2039d9000000000000000000000000000000000000000000000000000000000000000000ce
:0939f900000000000000000000c5
:203a02000000000000000000000000000000000000000000000000000000000000000000a4
:0a3a2200000000000000000000009a
:203a2c0000000000000000000000000000000000000000000000000000000000000000007a
:093a4c0000000000000000000071
:203a5500000000000000000000000000000000000000000000000000000000000000000051
:0a3a75000000000000000000000047
:203a7f00000200000000000000000000000000000000000000000000000000000000000025
:093a9f000000000000000000001e
:203aa8000000000000000000000000000000000000000000000000000000000000000000fe
:0a3ac80000000000000000000000f4
:203ad2000000000000000000000000000000000000000000000000000000000000000000d4
:093af200000000000000000000cb
:203afb0000002000000000000000000000000000000000000000000000000000000000008b
:0a3b1b0000000000000000000000a0
:203b2500000000000000000000000000000000000000000000000000000000000000000080
:093b450000000000000000000077
:203b4e00000000000000000000000000000000000000000000000000000000000000000057
:0a3b6e00000000000000000000004d
:203b780000000000000000000000000000000000000000000000000000000000000000002d
:093b980000000000000000000024
:203ba100000000000000000000000000000000000000000000000000000000000000000004
:0a3bc10000000000000000000000fa
:203bcb000000000000000000000000000000000000000000000000000000000000000000da
:093beb00000000000000000000d1
:203bf4000000000000000000000000000000000000000000000000000000000000000000b1
:0a3c140000000000000000000000a6
:203c1e00000000000000000000000000000000000000000000000000000000000000000086
:093c3e000000000000000000007d
:203c4700000000000000000000000000000000000000000008000000000000000000000055
:0a3c67000000000000000000000053
:203c7100000000000000000000000000000000000000000000000000000000000000000033
:093c91000000000000000000002a
:203c9a0000000000000000000000000000000000000000000000000000000000000000000a
:0a3cba000000000000000000000000
:203cc4000000000000000000000000000000000000000000000000000000000000000000e0
:093ce400000000000000000000d7
:203ced000000000000000000000000000000000000000000000000000000000000000000b7
:0a3d0d0000000000000000000000ac
:203d170000020000000000000000000000000000000000000000000000000000000000008a
:093d370000000000000000000083
:203d4000000000000000000000000000000000000000000000000000000000000000000063
:0a3d60000000000000000000000059
:203d6a00000000000000000000000000000000000000000000000000000000000000000039
:093d8a0000000000000000000030
:203d93000000200000000000000000000000000000000000000000000000000000000000f0
:0a3db3000000000000000000000006
:203dbd000000000000000000000000000000000000000000000000000000000000000000e6
:093ddd00000000000000000000dd
:203de6000000000000000000000000000000000000000000000000000000000000000000bd
:0a3e060000000000000000000000b2
:203e1000000000000000000000000000000000000000000000000000000000000000000092
:093e300000000000000000000089
:203e3900000000000000000000000000000000000000000000000000000000000000000069
:0a3e5900000000000000000000005f
:203e630000000000000000000000000000000000000000000000000000000000000000003f
:093e830000000000000000000036
:203e8c00000000000000000000000000000000000000000000000000000000000000000016
:0a3eac00000000000000000000000c
:203eb6000000000000000000000000000000000000000000000000000000000000000000ec
:093ed600000000000000000000e3
:203edf000000000000000000000000000000000000000000000000000000000000000000c3
:0a3eff0000000000000000000000b9
:203f0900000000000000000000000000000000000000000000000000000000000000000098
:093f29000000000000000000008f
:203f320000000000000000000000000000000000000000000000000000000000000000006f
:0a3f52000000000000000000000065
:203f5c00000000000000000000000000000000000000000000000000000000000000000045
:093f7c000000000000000000003c
:203f850000000000000000000000000000000000000000000000000000000000000000001c
:0a3fa5000000000000000000000012
:203faf000002000000000000000000000000000000000000000000000000000000000000f0
:093fcf00000000000000000000e9
:203fd8000000000000000000000000000000000000000000000000000000000000000000c9
:0a3ff80000000000000000000000bf
:2040020000000000000000000000000000000000000000000000000000000000000000009e
:0940220000000000000000000095
:20402b00000020000000000000000000000000000000000000000000000000000000000055
:0a404b00000000000000000000006b
:2040550000000000000000000000000000000000000000000000000000000000000000004b
:0940750000000000000000000042
:20407e00000000000000000000000000000000000000000000000000000000000000000022
:0a409e000000000000000000000018
:2040a8000000000000000000000000000000000000000000000000000000000000000000f8
:0940c800000000000000000000ef
:2040d1000000000000000000000000000000000000000000000000000000000000000000cf
:0a40f10000000000000000000000c5
:2040fb000000000000000000000000000000000000000000000000000000000000000000a5
:09411b000000000000000000009b
:2041240000000000000000000000000000000000000000000000000000000000000000007b
:0a4144000000000000000000000071
:20414e00000000000000000000000000000000000000000000000000000000000000000051
:09416e0000000000000000000048
:20417700000000000000000000000000000000000000000008000000000000000000000020
:0a419700000000000000000000001e
:2041a1000000000000000000000000000000000000000000000000000000000000000000fe
:0941c100000000000000000000f5
:2041ca000000000000000000000000000000000000000000000000000000000000000000d5
:0a41ea0000000000000000000000cb
:2041f4000000000000000000000000000000000000000000000000000000000000000000ab
:09421400000000000000000000a1
:20421d00000000000000000000000000000000000000000000000000000000000000000081
:0a423d000000000000000000000077
:20424700000200000000000000000000000000000000000000000000000000000000000055
:094267000000000000000000004e
:2042700000000000000000000000000000000000000000000000000000000000000000002e
:0a4290000000000000000000000024
:20429a00000000000000000000000000000000000000000000000000000000000000000004
:0942ba00000000000000000000fb
:2042c3000000200000000000000000000000000000000000000000000000000000000000bb
:0a42e30000000000000000000000d1
:2042ed000000000000000000000000000000000000000000000000000000000000000000b1
:09430d00000000000000000000a7
:20431600000000000000000000000000000000000000000000000000000000000000000087
:0a433600000000000000000000007d
:2043400000000000000000000000000000000000000000000000000000000000000000005d
:0943600000000000000000000054
:20436900000000000000000000000000000000000000000000000000000000000000000034
:0a438900000000000000000000002a
:2043930000000000000000000000000000000000000000000000000000000000000000000a
:0943b30000000000000000000001
:2043bc000000000000000000000000000000000000000000000000000000000000000000e1
:0a43dc0000000000000000000000d7
:2043e6000000000000000000000000000000000000000000000000000000000000000000b7
:09440600000000000000000000ad
:20440f0000000000000000000000000000000000000000000000000000000000000000008d
:0a442f000000000000000000000083
:20443900000000000000000000000000000000000000000000000000000000000000000063
:094459000000000000000000005a
:2044620000000000000000000000000000000000000000000000000000000000000000003a
:0a4482000000000000000000000030
:20448c00000000000000000000000000000000000000000000000000000000000000000010
:0944ac0000000000000000000007
:2044b5000000000000000000000000000000000000000000000000000000000000000000e7
:0a44d50000000000000000000000dd
:2044df000002000000000000000000000000000000000000000000000000000000000000bb
:0944ff00000000000000000000b4
:20450800000000000000000000000000000000000000000000000000000000000000000093
:0a4528000000000000000000000089
:20453200000000000000000000000000000000000000000000000000000000000000000069
:0945520000000000000000000060
:20455b00000020000000000000000000000000000000000000000000000000000000000020
:0a457b000000000000000000000036
:20458500000000000000000000000000000000000000000000000000000000000000000016
:0945a5000000000000000000000d
:2045ae000000000000000000000000000000000000000000000000000000000000000000ed
:0a45ce0000000000000000000000e3
:2045d8000000000000000000000000000000000000000000000000000000000000000000c3
:0945f800000000000000000000ba
:20460100000000000000000000000000000000000000000000000000000000000000000099
:0a462100000000000000000000008f
:20462b0000000000000000000000000000000000000000000000000000000000000000006f
:09464b0000000000000000000066
:20465400000000000000000000000000000000000000000000000000000000000000000046
:0a467400000000000000000000003c
:02467e0000003a
:02468000110324
:02468200010134
:20468400000000000000000000000000000000000000000000000000000000000000000016
:0946a4000000000000000000000d
:2046ad000000000000000000000000000000000000000000000000000000000000000000ed
:0a46cd0000000000000000000000e3
:2046d7000000000000000000000000000000000000000000000000000000000000000000c3
:0946f700000000000000000000ba
:20470000000000000000000000000000000000000000000000000000000000000000000099
:0a472000000000000000000000008f
:20472a0000000000000000000000000000000000000000000000000000000000000000006f
:09474a0000000000000000000066
:20475300000000000000000000000000000000000000000000000000000000000000000046
:0a477300000000000000000000003c
:20477d0000000000000800000000000020000000000800000000000020000000000000804c
:09479d0000000000000200000011
:2047a6000000000000000000000000000000000000000000000000000000000000000000f3
:0a47c60000000000000000000000e9
:2047d0000000000000080000000000002000000000080000000000002000000000000080f9
:0947f000000000000002000000be
:2047f9000000000000000000000000000000000000000000000000000000000000000000a0
:0a4819000000000000000000000095
:20482300000000000000000000000000000000000000000000000000000000000000000075
:0948430000000000080004000060
:20484c0000000000000000000000000000000000000000000000000000000000000000004c
:0a486c000000000000800060000062
:20487600000000000000000000000000000000000000000000000000000000000000000022
:0948960000000000000000000019
:20489f000000000000000000000000000000000000000000000000000000000000000000f9
:0a48bf0000000000000000000000ef
:2048c9000000000000000000000000000000000000000000000000000000000000000000cf
:0948e900000000000000000000c6
:2048f2000000000000000000000000000000000000000000000000000000000000000000a6
:0a491200000000000000000000009b
:20491c0000000000000000000000000000000000000000000000000000000000000000007b
:09493c000000000000000800006a
:20494500000000000000000000000000000000000000000000000000000000000000000052
:0a49650000000000000003800000c5
:20496f00000000000000000000000000000000000000000000000000000000000000000028
:09498f0000000000000070c000ef
:204998000000000000000000000000000000000000000000000000000000000000000000ff
:0a49b80000000000000000010000f4
:2049c2000000000000000000000000000000000000000000000000000000000000000000d5
:0949e2000000000001ff000000cc
:2049eb000000000000000000000000000000000000000000000000000000000000000000ac
:0a4a0b0000000000009fa000000062
:204a150000020000000000000000000000000000000000000000000000000000000000007f
:094a350000000000000000000078
:204a3e00000000000000000000000000000000000000000000000000000000000000000058
:0a4a5e00000000000000000000004e
:204a680000000000000000000000000000000000000000000000000000000000000000002e
:094a880000000000000000000025
:204a91000000200000000000000000000000000000000000000000000000000000000000e5
:0a4ab1000000000000000380000078
:204abb000000000000000000000000000000000000000000000000000000000000000000db
:094adb00000000000000000000d2
:204ae4000000000000000000000000000000000000000000000000000000000000000000b2
:0a4b040000000000000000000000a7
:204b0e00000000000000000000000000000000000000000000000000000000000000000087
:094b2e000000000000000000007e
:204b370000000000000000000000000000000000000000000000000000000000000000005e
:0a4b57000000000000000000000054
:204b6100000000000000000000000000000000000000000000000000000000000000000034
:094b81000000000000000000002b
:204b8a0000000000000000000000000000000000000000000000000000000000000000000b
:0a4baa000000000000000000000001
:204bb4000000000000000000000000000000000000000000000000000000000000000000e1
:094bd400000000000000000000d8
:204bdd000000000000000000000000000000000000000000000000000000000000000000b8
:0a4bfd0000000000000000000000ae
:204c070000000000000000000000000000000000000000000000000000000000000000008d
:094c270000000000000000000084
:204c3000000000000000000000000000000000000000000000000000000000000000000064
:0a4c5000000000000000000000005a
:204c5a0000000000000000000000000000000000000000000000000000000000000000003a
:094c7a0000000000000000010030
:204c8300000000000000000000000000000000000000000000000000000000000000000011
:0a4ca3000000000000000000000007
:204cad000002000000000000000000000000000000000000000000000000000000000000e5
:094ccd00000000000000000000de
:204cd6000000000000000000000000000000000000000000000000000000000000000000be
:0a4cf60000000000000000000000b4
:204d0000000000000000000000000000000000000000000000000000000000000000000093
:094d20000000000000000000008a
:204d290000002000000000000000000000000000000000000000000000000000000000004a
:0a4d49000000000000000000000060
:204d5300000000000000000000000000000000000000000000000000000000000000000040
:094d730000000000000000000037
:204d7c00000000000000000000000000000000000000000000000000000000000000000017
:0a4d9c00000000000000000000000d
:204da6000000000000000000000000000000000000000000000000000000000000000000ed
:094dc600000000000000000000e4
:204dcf000000000000000000000000000000000000000000000000000000000000000000c4
:0a4def00000000000000000020009a
:204df90000000000000000000000000000000000000000008000000000000000000000001a
:094e190000000000000000000090
:204e2200000000000000000000000000000000000000000000000000000000000000000070
:0a4e42000000000000000000000066
:204e4c00000000000000000000000000000000000000000000000000000000000000000046
:094e6c000000000000000000003d
:204e750000000000000000000000000000000000000000000000000000000000000000001d
:0a4e95000000000000000000000013
:204e9f000000000000000000000000000000000000000000000000000000000000000000f3
:094ebf00000000000000000000ea
:204ec8000000000000000000000000000000000000000000000000000000000000000000ca
:0a4ee80000000000000000000000c0
:204ef2000000000000000000000000000000000000000000000000000000000000000000a0
:094f120000000000000000000096
:204f1b00000000000000000000000000000000000000000000000000000000000000000076
:0a4f3b00000000000000000000006c
:204f450000020000000000000000000000000000000000000000000000000000000000004a
:094f650000000000000000000043
:204f6e00000000000000000000000000000000000000000000000000000000000000000023
:0a4f8e000000000000000000000019
:204f98000000000000000000000000000000000000000000000000000000000000000000f9
:094fb800000000000000000000f0
:204fc1000000200000000000000000000000000000000000000000000000000000000000b0
:0a4fe10000000000000000000000c6
:204feb000000000000000000000000000000000000000000000000000000000000000000a6
:09500b000000000000000000009c
:2050140000000000000000000000000000000000000000000000000000000000000000007c
:0a5034000000000000000000000072
:20503e00000000000000000000000000000000000000000000000000000000000000000052
:09505e0000000000000000000841
:20506700000000000000000000000000000000000000000000000000000000000000000029
:0a508700000000000000000001001e
:205091000000000000000000000000000000000000000000000000000000000000000000ff
:0950b100000000000000000000f6
:2050ba000000000000000000000000000000000000000000000000000000000000000000d6
:0a50da0000000000000000000000cc
:2050e4000000000000000000000000000000000000000000000000000000000000000000ac
:09510400000000000000000000a2
:20510d00000000000000000000000000000000000000000000000000000000000000000082
:0a512d000000000000000018000060
:20513700000000000000000000000000000000000000000000000000000000000000000058
:095157000000000000000000004f
:2051600000000000000000000000000000000000000000000000000000000000000000002f
:0a5180000000000000000000000025
:20518a00000000000000000000000000000000000000000000000000000000000000000005
:0951aa0000000002a80000000052
:2051b3000000000000000000000000000000000000000000000000000000000000000000dc
:0a51d30000000020aa8de00000009b
:2051dd000002000000000000000000000000000000000000000000000000000000000000b0
:0951fd0000000000000000900118
:20520600000000000000000000000000000000000000000000000000000000000000000088
:0a522600000000000000000100007d
:2052300000000000000000000000000000000000000000000000000000000000000000005e
:0952500000000000000000000055
:20525900000020000000000000000000000000000000000000000000000000000000000015
:0a527900000000000000000000002b
:2052830000000000000000000000000000000000000000000000000000000000000000000b
:0952a30000000000000000000002
:2052ac000000000000000000000000000000000000000000000000000000000000000000e2
:0a52cc0000000000000000000000d8
:2052d6000000000000000000000000000000000000000000000000000000000000000000b8
:0952f600000000000000000000af
:2052ff0000000000000000000000000000000000000000000000000000000000000000008f
:0a531f00000000000000000000186c
:205329000000000000000000000000000000000000000000800000000000000000000000e4
:095349000000000000000000005b
:2053520000000000000000000000000000000000000000000000000000000000000000003b
:0a5372000000000000000000000031
:20537c00000000000000000000000000000000000000000000000000000000000000000011
:09539c0000000000000000000008
:2053a5000000000000000000000000000000000000000000000000000000000000000000e8
:0a53c50000000000000000000000de
:2053cf000000000000000000000000000000000000000000000000000000000000000000be
:0953ef00000000000000000000b5
:2053f800000000000000000000000000000000000000000000000000000000000000000095
:0a541800000000000000000000008a
:2054220000000000000000000000000000000000000000000000000000000000000000006a
:0954420000000000000000000061
:20544b00000000000000000000000000000000000000000000000000000000000000000041
:0a546b000000000000000000000037
:20547500000000000000000000000000000000000000000000000000000000000000000017
:095495000000000000000000000e
:20549e000000000000000000000000000000000000000000000000000000000000000000ee
:0a54be0000000000000000000000e4
:2054c8000000000000000000000000000000000000000000000000000000000000000000c4
:0954e800000000000000000000bb
:2054f10000000000000000000000000000000000000000000000000000000000000000009b
:0a5511000000000000000000000090
:20551b00000000000000000000000000000000000000000000000000000000000000000070
:09553b0000000000000000000067
:20554400000000000000000000000000000000000000000000000000000000000000000047
:0a556400000000000000000000003d
:20556e0000000000000000000000000000000000000000000000000000000000000000001d
:09558e0000000000000000000014
:205597000000000000000000000000000000000000000000000000000000000000000000f4
:0a55b70000000000000000001c00ce
:2055c1000000000000000000000000000000000000000000000000000000000000000000ca
:0955e100000000000000000000c1
:2055ea000000000000000000000000000000000000000000000000000000000000000000a1
:0a560a000000000000000000000096
:20561400000000000000000000000000000000000000000000000000000000000000000076
:095634000000000000000000006d
:20563d0000000000000000000000000000000000000000000000000000000000000000004d
:0a565d000000000000000000000043
:20566700000000000000000000000000000000000000000000000000000000000000000023
:095687000000000000000000001a
:205690000000000000000000000000000000000000000000000000000000000000000000fa
:0a56b00000000000000000000000f0
:2056ba000000000000000000000000000000000000000000000000000000000000000000d0
:0956da00000000000000000000c7
:2056e3000000000000000000000000000000000000000000000000000000000000000000a7
:0a570300000000000000000000009c
:20570d0000020000000000000000000000000000000000000000000000000000000000007a
:09572d0000000000000000000073
:20573600000000000000000000000000000000000000000000000000000000000000000053
:0a5756000000000000000000000049
:20576000000000000000000000000000000000000000000000000000000000000000000029
:0957800000000000000000000020
:205789000000200000000000000000000000000000000000000000000000000000000000e0
:0a57a90000000000000000000000f6
:2057b3000000000000000000000000000000000000000000000000000000000000000000d6
:0957d300000000000000000000cd
:2057dc000000000000000000000000000000000000000000000000000000000000000000ad
:0a57fc0000000000000000000000a3
:20580600000000000000000000000000000000000000000000000000000000000000000082
:0958260000000000000000000079
:20582f00000000000000000000000000000000000000000000000000000000000000000059
:0a584f00000000000000000000004f
:205859000000000000000000000000000000000000000000800000000000000000000000af
:0958790000000000000000000026
:20588200000000000000000000000000000000000000000000000000000000000000000006
:0a58a20000000000000000000000fc
:2058ac000000000000000000000000000000000000000000000000000000000000000000dc
:0958cc00000000000000000000d3
:2058d5000000000000000000000000000000000000000000000000000000000000000000b3
:0a58f50000000000000000000000a9
:2058ff00000000000000000000000000000000000000000000000000000000000000000089
:09591f000000000000000000007f
:2059280000000000000000000000000000000000000000000000000000000000000000005f
:0a5948000000000000000000000055
:20595200000000000000000000000000000000000000000000000000000000000000000035
:095972000000000000000000002c
:20597b0000000000000000000000000000000000000000000000000000000000000000000c
:0a599b000000000000000000000002
:2059a5000002000000000000000000000000000000000000000000000000000000000000e0
:0959c500000000000000000000d9
:2059ce000000000000000000000000000000000000000000000000000000000000000000b9
:0a59ee0000000000000000000000af
:2059f80000000000000000000000000000000000000000000000000000000000000000008f
:095a180000000000000000000085
:205a2100000020000000000000000000000000000000000000000000000000000000000045
:0a5a4100000000000000000000005b
:205a4b0000000000000000000000000000000000000000000000000000000000000000003b
:095a6b0000000000000000000032
:205a7400000000000000000000000000000000000000000000000000000000000000000012
:0a5a94000000000000000000000008
:205a9e000000000000000000000000000000000000000000000000000000000000000000e8
:095abe00000000000000000000df
:205ac7000000000000000000000000000000000000000000000000000000000000000000bf
:0a5ae70000000000000000000000b5
:205af100000000000000000000000000000000000000000000000000000000000000000095
:095b11000000000000000000008b
:205b1a0000000000000000000000000000000000000000000000000000000000000000006b
:0a5b3a000000000000000000000061
:205b4400000000000000000000000000000000000000000000000000000000000000000041
:095b640000000000000000000038
:205b6d00000000000000000000000000000000000000000000000000000000000000000018
:0a5b8d00000000000000000000000e
:205b97000000000000000000000000000000000000000000000000000000000000000000ee
:095bb700000000000000000000e5
:205bc0000000000000000000000000000000000000000000000000000000000000000000c5
:0a5be00000000000000000000000bb
:205bea0000000000000000000000000000000000000000000000000000000000000000009b
:095c0a0000000000000000000091
:205c1300000000000000000000000000000000000000000000000000000000000000000071
:0a5c33000000000000000000000067
:205c3d00000200000000000000000000000000000000000000000000000000000000000045
:095c5d000000000000000000003e
:205c660000000000000000000000000000000000000000000000000000000000000000001e
:0a5c86000000000000000000000014
:205c90000000000000000000000000000000000000000000000000000000000000000000f4
:095cb000000000000000000000eb
:205cb9000000200000000000000000000000000000000000000000000000000000000000ab
:0a5cd90000000000000000000000c1
:205ce3000000000000000000000000000000000000000000000000000000000000000000a1
:095d030000000000000000000097
:205d0c00000000000000000000000000000000000000000000000000000000000000000077
:0a5d2c00000000000000000000006d
:205d360000000000000000000000000000000000000000000000000000000000000000004d
:095d560000000000000000000044
:205d5f00000000000000000000000000000000000000000000000000000000000000000024
:0a5d7f00000000000000000000001a
:205d890000000000000000000000000000000000000000008000000000000000000000007a
:095da900000000000000000000f1
:205db2000000000000000000000000000000000000000000000000000000000000000000d1
:0a5dd20000000000000000000000c7
:025ddc000000c5
:035dde0062003f21
:035de100720080cd
:025de4001100ac
:035de60082000038
:025de9000103b4
:085deb000000000000000000b0
:085df3000000000000000000a8
:085dfb000000000000000000a0
:085e0300000000000000000097
:0261eb000000b2
:0361ed00820080ad
:0261f0000103a9
:0861f2000000000000000000a5
:0861fa0000000000000000009d
:08620200000000000000000094
:08620a0000000000000000008c
:0265f2000000a7
:0265f400110193
:0365f60082000020
:0265f90001039c
:0865fb00000000000000000098
:0866030000000000000000008f
:08660b00000000000000000087
:0866130000000000000000007f
:0269fb0000009a
:0369fd0082008095
:026a0000010390
:086a020000000000000000008c
:086a0a00000000000000000084
:086a120000000000000000007c
:086a1a00000000000000000074
:026e020000008e
:026e0400110279
:036e060082000007
:026e0900010383
:086e0b0000000000000000007f
:086e1300000000000000000077
:086e1b0000000000000000006f
:086e2300000000000000000067
:02720b00000081
:03720d008200807c
:02721000010378
:08721200000000000000000074
:08721a0000000000000000006c
:08722200000000000000000064
:08722a0000000000000000005c
:02761200000076
:02761400110360
:03761600820000ef
:0276190001036b
:08761b00000000000000000067
:0876230000000000000000005f
:08762b00000000000000000057
:0876330000000000000000004f
:027a1b00000069
:037a1d0082008064
:027a2000010360
:087a220000000000000000005c
:087a2a00000000000000000054
:087a320000000000000000004c
:087a3a00000000000000000044
:027e220000005e
:017e2400223b
:027e25004da767
:027e2700010652
:00000001FF
